{
	"compilerInput": "{\"language\":\"Solidity\",\"sources\":{\"contracts/TIGGCOIN.sol\":{\"content\":\"// SPDX-License-Identifier: MIT\\r\\npragma solidity ^0.8.20;\\r\\n\\r\\n/*\\r\\n  TIGGCOIN ($TIGG) — FINAL (OpenZeppelin v5.x patterns)\\r\\n  - Chain: Binance Smart Chain (EVM compatible)\\r\\n  - Initial supply: 1,000,000,000 (1B) minted to deployer (msg.sender)\\r\\n  - Max supply: 10,000,000,000 (10B)\\r\\n  - Decimals: 18\\r\\n  - Scheduled mint: +1B on 30 Sep at 00:00:00 UTC every 5 years (first at 2030-09-30). Hardcoded timestamps.\\r\\n  - Emergency stop / restart (transfers & minting blocked while emergency)\\r\\n  - Bridge mint/burn hooks restricted to BRIDGE_ROLE\\r\\n  - Rescue functions for tokens & native currency (owner-only)\\r\\n  - OpenZeppelin v5: uses _grantRole, Ownable(msg.sender), and _update hook\\r\\n*/\\r\\n\\r\\nimport \\\"@openzeppelin/contracts/token/ERC20/ERC20.sol\\\";\\r\\nimport \\\"@openzeppelin/contracts/token/ERC20/IERC20.sol\\\";\\r\\nimport \\\"@openzeppelin/contracts/token/ERC20/utils/SafeERC20.sol\\\";\\r\\nimport \\\"@openzeppelin/contracts/access/AccessControl.sol\\\";\\r\\nimport \\\"@openzeppelin/contracts/access/Ownable.sol\\\";\\r\\n\\r\\ncontract TIGGCOIN is ERC20, AccessControl, Ownable {\\r\\n    using SafeERC20 for IERC20;\\r\\n\\r\\n    bytes32 public constant MINTER_ROLE = keccak256(\\\"MINTER_ROLE\\\");\\r\\n    bytes32 public constant BRIDGE_ROLE = keccak256(\\\"BRIDGE_ROLE\\\");\\r\\n\\r\\n    uint8 private constant _DECIMALS = 18;\\r\\n\\r\\n    uint256 public constant INITIAL_SUPPLY = 1_000_000_000 * (10 ** uint256(_DECIMALS)); // 1B\\r\\n    uint256 public constant TRANCHE_AMOUNT = 1_000_000_000 * (10 ** uint256(_DECIMALS)); // 1B each tranche\\r\\n    uint256 public constant MAX_SUPPLY = 10_000_000_000 * (10 ** uint256(_DECIMALS)); // 10B\\r\\n\\r\\n    // Hardcoded scheduled mint timestamps (30 Sep 00:00:00 UTC every 5 years starting 2030)\\r\\n    // These are UNIX timestamps (seconds since 1970-01-01 UTC)\\r\\n    uint256[] public scheduledMints;\\r\\n    uint256 public nextMintIndex = 0; // index for next scheduled mint\\r\\n\\r\\n    // Emergency circuit breaker\\r\\n    bool public emergencyStopped = false;\\r\\n\\r\\n    // Events\\r\\n    event MintScheduled(uint256 indexed amount, uint256 indexed unlockTime);\\r\\n    event MintExecuted(address indexed to, uint256 amount, uint256 timestamp, uint256 newTotalSupply);\\r\\n    event BridgeMint(address indexed to, uint256 amount, address indexed bridge);\\r\\n    event BridgeBurn(address indexed from, uint256 amount, address indexed bridge);\\r\\n    event TokenRescued(address indexed token, address indexed to, uint256 amount);\\r\\n    event NativeRescued(address indexed to, uint256 amount);\\r\\n    event EmergencyStopped(address indexed by, uint256 timestamp);\\r\\n    event EmergencyLifted(address indexed by, uint256 timestamp);\\r\\n\\r\\n    constructor() ERC20(\\\"TIGGCOIN\\\", \\\"TIGG\\\") Ownable(msg.sender) {\\r\\n        // Grant roles to deployer (OpenZeppelin v5 style)\\r\\n        _grantRole(DEFAULT_ADMIN_ROLE, _msgSender());\\r\\n        _grantRole(MINTER_ROLE, _msgSender());\\r\\n        _grantRole(BRIDGE_ROLE, _msgSender());\\r\\n\\r\\n        // Mint initial supply to deployer\\r\\n        _mint(_msgSender(), INITIAL_SUPPLY);\\r\\n\\r\\n        // Populate scheduled mint timestamps (30 Sep 00:00:00 UTC every 5 years starting 2030)\\r\\n        // Note: timestamps are in seconds UTC\\r\\n        // 2030-09-30 00:00:00 UTC\\r\\n        scheduledMints.push(1916956800);\\r\\n        // 2035-09-30\\r\\n        scheduledMints.push(2074723200);\\r\\n        // 2040-09-30\\r\\n        scheduledMints.push(2232576000);\\r\\n        // 2045-09-30\\r\\n        scheduledMints.push(2390342400);\\r\\n        // 2050-09-30\\r\\n        scheduledMints.push(2548108800);\\r\\n        // 2055-09-30\\r\\n        scheduledMints.push(2705875200);\\r\\n        // 2060-09-30\\r\\n        scheduledMints.push(2863728000);\\r\\n        // 2065-09-30\\r\\n        scheduledMints.push(3021494400);\\r\\n        // 2070-09-30\\r\\n        scheduledMints.push(3179260800);\\r\\n\\r\\n        // Emit schedule events for on-chain transparency\\r\\n        for (uint256 i = 0; i < scheduledMints.length; i++) {\\r\\n            emit MintScheduled(TRANCHE_AMOUNT, scheduledMints[i]);\\r\\n        }\\r\\n    }\\r\\n\\r\\n    // override decimals\\r\\n    function decimals() public pure override returns (uint8) {\\r\\n        return _DECIMALS;\\r\\n    }\\r\\n\\r\\n    // ----------------------\\r\\n    // Emergency controls\\r\\n    // ----------------------\\r\\n    function emergencyStop() external onlyOwner {\\r\\n        emergencyStopped = true;\\r\\n        emit EmergencyStopped(_msgSender(), block.timestamp);\\r\\n    }\\r\\n\\r\\n    function liftEmergencyStop() external onlyOwner {\\r\\n        emergencyStopped = false;\\r\\n        emit EmergencyLifted(_msgSender(), block.timestamp);\\r\\n    }\\r\\n\\r\\n    // ----------------------\\r\\n    // Scheduled mint: execute next tranche\\r\\n    // only callable by MINTER_ROLE, and blocked during emergency.\\r\\n    // ----------------------\\r\\n    function executeScheduledMint() external onlyRole(MINTER_ROLE) {\\r\\n        require(!emergencyStopped, \\\"TIGG: emergency stopped\\\");\\r\\n        require(nextMintIndex < scheduledMints.length, \\\"TIGG: no scheduled mints left\\\");\\r\\n\\r\\n        uint256 unlockTime = scheduledMints[nextMintIndex];\\r\\n        require(block.timestamp >= unlockTime, \\\"TIGG: scheduled mint not yet available\\\");\\r\\n\\r\\n        uint256 currentSupply = totalSupply();\\r\\n        require(currentSupply + TRANCHE_AMOUNT <= MAX_SUPPLY, \\\"TIGG: max supply exceeded\\\");\\r\\n\\r\\n        // Mint tranche to owner for distribution/treasury control\\r\\n        _mint(owner(), TRANCHE_AMOUNT);\\r\\n\\r\\n        emit MintExecuted(owner(), TRANCHE_AMOUNT, block.timestamp, totalSupply());\\r\\n\\r\\n        // advance index\\r\\n        nextMintIndex += 1;\\r\\n    }\\r\\n\\r\\n    function scheduledMintsRemaining() external view returns (uint256) {\\r\\n        if (nextMintIndex >= scheduledMints.length) return 0;\\r\\n        return scheduledMints.length - nextMintIndex;\\r\\n    }\\r\\n\\r\\n    // ----------------------\\r\\n    // Bridge functions (only BRIDGE_ROLE)\\r\\n    // ----------------------\\r\\n    function bridgeMint(address to, uint256 amount) external onlyRole(BRIDGE_ROLE) {\\r\\n        require(!emergencyStopped, \\\"TIGG: emergency stopped\\\");\\r\\n        require(to != address(0), \\\"TIGG: mint to zero\\\");\\r\\n        require(totalSupply() + amount <= MAX_SUPPLY, \\\"TIGG: max supply exceeded\\\");\\r\\n\\r\\n        _mint(to, amount);\\r\\n        emit BridgeMint(to, amount, _msgSender());\\r\\n    }\\r\\n\\r\\n    function bridgeBurn(address from, uint256 amount) external onlyRole(BRIDGE_ROLE) {\\r\\n        require(!emergencyStopped, \\\"TIGG: emergency stopped\\\");\\r\\n        require(from != address(0), \\\"TIGG: burn from zero\\\");\\r\\n\\r\\n        _burn(from, amount);\\r\\n        emit BridgeBurn(from, amount, _msgSender());\\r\\n    }\\r\\n\\r\\n    // ----------------------\\r\\n    // Accept native currency (BNB) and fallback\\r\\n    // ----------------------\\r\\n    receive() external payable {}\\r\\n    fallback() external payable {}\\r\\n\\r\\n    // ----------------------\\r\\n    // Rescue / sweep functions (owner-only)\\r\\n    // ----------------------\\r\\n    function rescueERC20(address token, address to, uint256 amount) external onlyOwner {\\r\\n        require(to != address(0), \\\"TIGG: to zero\\\");\\r\\n        IERC20(token).safeTransfer(to, amount);\\r\\n        emit TokenRescued(token, to, amount);\\r\\n    }\\r\\n\\r\\n    function rescueAllERC20(address token, address to) external onlyOwner {\\r\\n        require(to != address(0), \\\"TIGG: to zero\\\");\\r\\n        uint256 bal = IERC20(token).balanceOf(address(this));\\r\\n        require(bal > 0, \\\"TIGG: zero balance\\\");\\r\\n        IERC20(token).safeTransfer(to, bal);\\r\\n        emit TokenRescued(token, to, bal);\\r\\n    }\\r\\n\\r\\n    function rescueNative(address payable to, uint256 amount) external onlyOwner {\\r\\n        require(to != address(0), \\\"TIGG: to zero\\\");\\r\\n        require(amount <= address(this).balance, \\\"TIGG: insufficient balance\\\");\\r\\n        to.transfer(amount);\\r\\n        emit NativeRescued(to, amount);\\r\\n    }\\r\\n\\r\\n    function rescueAllNative(address payable to) external onlyOwner {\\r\\n        require(to != address(0), \\\"TIGG: to zero\\\");\\r\\n        uint256 bal = address(this).balance;\\r\\n        require(bal > 0, \\\"TIGG: zero balance\\\");\\r\\n        to.transfer(bal);\\r\\n        emit NativeRescued(to, bal);\\r\\n    }\\r\\n\\r\\n    // ----------------------\\r\\n    // OpenZeppelin v5 transfer hook: block transfers during emergency\\r\\n    // ----------------------\\r\\n    function _update(address from, address to, uint256 amount) internal override {\\r\\n        require(!emergencyStopped, \\\"TIGG: emergency stopped\\\");\\r\\n        super._update(from, to, amount);\\r\\n    }\\r\\n\\r\\n    // ----------------------\\r\\n    // Owner convenience role helpers\\r\\n    // ----------------------\\r\\n    function ownerGrantMinter(address account) external onlyOwner { _grantRole(MINTER_ROLE, account); }\\r\\n    function ownerRevokeMinter(address account) external onlyOwner { revokeRole(MINTER_ROLE, account); }\\r\\n    function ownerGrantBridge(address account) external onlyOwner { _grantRole(BRIDGE_ROLE, account); }\\r\\n    function ownerRevokeBridge(address account) external onlyOwner { revokeRole(BRIDGE_ROLE, account); }\\r\\n}\"},\"@openzeppelin/contracts/access/Ownable.sol\":{\"content\":\"// SPDX-License-Identifier: MIT\\n// OpenZeppelin Contracts (last updated v5.0.0) (access/Ownable.sol)\\n\\npragma solidity ^0.8.20;\\n\\nimport {Context} from \\\"../utils/Context.sol\\\";\\n\\n/**\\n * @dev Contract module which provides a basic access control mechanism, where\\n * there is an account (an owner) that can be granted exclusive access to\\n * specific functions.\\n *\\n * The initial owner is set to the address provided by the deployer. This can\\n * later be changed with {transferOwnership}.\\n *\\n * This module is used through inheritance. It will make available the modifier\\n * `onlyOwner`, which can be applied to your functions to restrict their use to\\n * the owner.\\n */\\nabstract contract Ownable is Context {\\n    address private _owner;\\n\\n    /**\\n     * @dev The caller account is not authorized to perform an operation.\\n     */\\n    error OwnableUnauthorizedAccount(address account);\\n\\n    /**\\n     * @dev The owner is not a valid owner account. (eg. `address(0)`)\\n     */\\n    error OwnableInvalidOwner(address owner);\\n\\n    event OwnershipTransferred(address indexed previousOwner, address indexed newOwner);\\n\\n    /**\\n     * @dev Initializes the contract setting the address provided by the deployer as the initial owner.\\n     */\\n    constructor(address initialOwner) {\\n        if (initialOwner == address(0)) {\\n            revert OwnableInvalidOwner(address(0));\\n        }\\n        _transferOwnership(initialOwner);\\n    }\\n\\n    /**\\n     * @dev Throws if called by any account other than the owner.\\n     */\\n    modifier onlyOwner() {\\n        _checkOwner();\\n        _;\\n    }\\n\\n    /**\\n     * @dev Returns the address of the current owner.\\n     */\\n    function owner() public view virtual returns (address) {\\n        return _owner;\\n    }\\n\\n    /**\\n     * @dev Throws if the sender is not the owner.\\n     */\\n    function _checkOwner() internal view virtual {\\n        if (owner() != _msgSender()) {\\n            revert OwnableUnauthorizedAccount(_msgSender());\\n        }\\n    }\\n\\n    /**\\n     * @dev Leaves the contract without owner. It will not be possible to call\\n     * `onlyOwner` functions. Can only be called by the current owner.\\n     *\\n     * NOTE: Renouncing ownership will leave the contract without an owner,\\n     * thereby disabling any functionality that is only available to the owner.\\n     */\\n    function renounceOwnership() public virtual onlyOwner {\\n        _transferOwnership(address(0));\\n    }\\n\\n    /**\\n     * @dev Transfers ownership of the contract to a new account (`newOwner`).\\n     * Can only be called by the current owner.\\n     */\\n    function transferOwnership(address newOwner) public virtual onlyOwner {\\n        if (newOwner == address(0)) {\\n            revert OwnableInvalidOwner(address(0));\\n        }\\n        _transferOwnership(newOwner);\\n    }\\n\\n    /**\\n     * @dev Transfers ownership of the contract to a new account (`newOwner`).\\n     * Internal function without access restriction.\\n     */\\n    function _transferOwnership(address newOwner) internal virtual {\\n        address oldOwner = _owner;\\n        _owner = newOwner;\\n        emit OwnershipTransferred(oldOwner, newOwner);\\n    }\\n}\\n\"},\"@openzeppelin/contracts/access/AccessControl.sol\":{\"content\":\"// SPDX-License-Identifier: MIT\\n// OpenZeppelin Contracts (last updated v5.4.0) (access/AccessControl.sol)\\n\\npragma solidity ^0.8.20;\\n\\nimport {IAccessControl} from \\\"./IAccessControl.sol\\\";\\nimport {Context} from \\\"../utils/Context.sol\\\";\\nimport {IERC165, ERC165} from \\\"../utils/introspection/ERC165.sol\\\";\\n\\n/**\\n * @dev Contract module that allows children to implement role-based access\\n * control mechanisms. This is a lightweight version that doesn't allow enumerating role\\n * members except through off-chain means by accessing the contract event logs. Some\\n * applications may benefit from on-chain enumerability, for those cases see\\n * {AccessControlEnumerable}.\\n *\\n * Roles are referred to by their `bytes32` identifier. These should be exposed\\n * in the external API and be unique. The best way to achieve this is by\\n * using `public constant` hash digests:\\n *\\n * ```solidity\\n * bytes32 public constant MY_ROLE = keccak256(\\\"MY_ROLE\\\");\\n * ```\\n *\\n * Roles can be used to represent a set of permissions. To restrict access to a\\n * function call, use {hasRole}:\\n *\\n * ```solidity\\n * function foo() public {\\n *     require(hasRole(MY_ROLE, msg.sender));\\n *     ...\\n * }\\n * ```\\n *\\n * Roles can be granted and revoked dynamically via the {grantRole} and\\n * {revokeRole} functions. Each role has an associated admin role, and only\\n * accounts that have a role's admin role can call {grantRole} and {revokeRole}.\\n *\\n * By default, the admin role for all roles is `DEFAULT_ADMIN_ROLE`, which means\\n * that only accounts with this role will be able to grant or revoke other\\n * roles. More complex role relationships can be created by using\\n * {_setRoleAdmin}.\\n *\\n * WARNING: The `DEFAULT_ADMIN_ROLE` is also its own admin: it has permission to\\n * grant and revoke this role. Extra precautions should be taken to secure\\n * accounts that have been granted it. We recommend using {AccessControlDefaultAdminRules}\\n * to enforce additional security measures for this role.\\n */\\nabstract contract AccessControl is Context, IAccessControl, ERC165 {\\n    struct RoleData {\\n        mapping(address account => bool) hasRole;\\n        bytes32 adminRole;\\n    }\\n\\n    mapping(bytes32 role => RoleData) private _roles;\\n\\n    bytes32 public constant DEFAULT_ADMIN_ROLE = 0x00;\\n\\n    /**\\n     * @dev Modifier that checks that an account has a specific role. Reverts\\n     * with an {AccessControlUnauthorizedAccount} error including the required role.\\n     */\\n    modifier onlyRole(bytes32 role) {\\n        _checkRole(role);\\n        _;\\n    }\\n\\n    /// @inheritdoc IERC165\\n    function supportsInterface(bytes4 interfaceId) public view virtual override returns (bool) {\\n        return interfaceId == type(IAccessControl).interfaceId || super.supportsInterface(interfaceId);\\n    }\\n\\n    /**\\n     * @dev Returns `true` if `account` has been granted `role`.\\n     */\\n    function hasRole(bytes32 role, address account) public view virtual returns (bool) {\\n        return _roles[role].hasRole[account];\\n    }\\n\\n    /**\\n     * @dev Reverts with an {AccessControlUnauthorizedAccount} error if `_msgSender()`\\n     * is missing `role`. Overriding this function changes the behavior of the {onlyRole} modifier.\\n     */\\n    function _checkRole(bytes32 role) internal view virtual {\\n        _checkRole(role, _msgSender());\\n    }\\n\\n    /**\\n     * @dev Reverts with an {AccessControlUnauthorizedAccount} error if `account`\\n     * is missing `role`.\\n     */\\n    function _checkRole(bytes32 role, address account) internal view virtual {\\n        if (!hasRole(role, account)) {\\n            revert AccessControlUnauthorizedAccount(account, role);\\n        }\\n    }\\n\\n    /**\\n     * @dev Returns the admin role that controls `role`. See {grantRole} and\\n     * {revokeRole}.\\n     *\\n     * To change a role's admin, use {_setRoleAdmin}.\\n     */\\n    function getRoleAdmin(bytes32 role) public view virtual returns (bytes32) {\\n        return _roles[role].adminRole;\\n    }\\n\\n    /**\\n     * @dev Grants `role` to `account`.\\n     *\\n     * If `account` had not been already granted `role`, emits a {RoleGranted}\\n     * event.\\n     *\\n     * Requirements:\\n     *\\n     * - the caller must have ``role``'s admin role.\\n     *\\n     * May emit a {RoleGranted} event.\\n     */\\n    function grantRole(bytes32 role, address account) public virtual onlyRole(getRoleAdmin(role)) {\\n        _grantRole(role, account);\\n    }\\n\\n    /**\\n     * @dev Revokes `role` from `account`.\\n     *\\n     * If `account` had been granted `role`, emits a {RoleRevoked} event.\\n     *\\n     * Requirements:\\n     *\\n     * - the caller must have ``role``'s admin role.\\n     *\\n     * May emit a {RoleRevoked} event.\\n     */\\n    function revokeRole(bytes32 role, address account) public virtual onlyRole(getRoleAdmin(role)) {\\n        _revokeRole(role, account);\\n    }\\n\\n    /**\\n     * @dev Revokes `role` from the calling account.\\n     *\\n     * Roles are often managed via {grantRole} and {revokeRole}: this function's\\n     * purpose is to provide a mechanism for accounts to lose their privileges\\n     * if they are compromised (such as when a trusted device is misplaced).\\n     *\\n     * If the calling account had been revoked `role`, emits a {RoleRevoked}\\n     * event.\\n     *\\n     * Requirements:\\n     *\\n     * - the caller must be `callerConfirmation`.\\n     *\\n     * May emit a {RoleRevoked} event.\\n     */\\n    function renounceRole(bytes32 role, address callerConfirmation) public virtual {\\n        if (callerConfirmation != _msgSender()) {\\n            revert AccessControlBadConfirmation();\\n        }\\n\\n        _revokeRole(role, callerConfirmation);\\n    }\\n\\n    /**\\n     * @dev Sets `adminRole` as ``role``'s admin role.\\n     *\\n     * Emits a {RoleAdminChanged} event.\\n     */\\n    function _setRoleAdmin(bytes32 role, bytes32 adminRole) internal virtual {\\n        bytes32 previousAdminRole = getRoleAdmin(role);\\n        _roles[role].adminRole = adminRole;\\n        emit RoleAdminChanged(role, previousAdminRole, adminRole);\\n    }\\n\\n    /**\\n     * @dev Attempts to grant `role` to `account` and returns a boolean indicating if `role` was granted.\\n     *\\n     * Internal function without access restriction.\\n     *\\n     * May emit a {RoleGranted} event.\\n     */\\n    function _grantRole(bytes32 role, address account) internal virtual returns (bool) {\\n        if (!hasRole(role, account)) {\\n            _roles[role].hasRole[account] = true;\\n            emit RoleGranted(role, account, _msgSender());\\n            return true;\\n        } else {\\n            return false;\\n        }\\n    }\\n\\n    /**\\n     * @dev Attempts to revoke `role` from `account` and returns a boolean indicating if `role` was revoked.\\n     *\\n     * Internal function without access restriction.\\n     *\\n     * May emit a {RoleRevoked} event.\\n     */\\n    function _revokeRole(bytes32 role, address account) internal virtual returns (bool) {\\n        if (hasRole(role, account)) {\\n            _roles[role].hasRole[account] = false;\\n            emit RoleRevoked(role, account, _msgSender());\\n            return true;\\n        } else {\\n            return false;\\n        }\\n    }\\n}\\n\"},\"@openzeppelin/contracts/token/ERC20/utils/SafeERC20.sol\":{\"content\":\"// SPDX-License-Identifier: MIT\\n// OpenZeppelin Contracts (last updated v5.3.0) (token/ERC20/utils/SafeERC20.sol)\\n\\npragma solidity ^0.8.20;\\n\\nimport {IERC20} from \\\"../IERC20.sol\\\";\\nimport {IERC1363} from \\\"../../../interfaces/IERC1363.sol\\\";\\n\\n/**\\n * @title SafeERC20\\n * @dev Wrappers around ERC-20 operations that throw on failure (when the token\\n * contract returns false). Tokens that return no value (and instead revert or\\n * throw on failure) are also supported, non-reverting calls are assumed to be\\n * successful.\\n * To use this library you can add a `using SafeERC20 for IERC20;` statement to your contract,\\n * which allows you to call the safe operations as `token.safeTransfer(...)`, etc.\\n */\\nlibrary SafeERC20 {\\n    /**\\n     * @dev An operation with an ERC-20 token failed.\\n     */\\n    error SafeERC20FailedOperation(address token);\\n\\n    /**\\n     * @dev Indicates a failed `decreaseAllowance` request.\\n     */\\n    error SafeERC20FailedDecreaseAllowance(address spender, uint256 currentAllowance, uint256 requestedDecrease);\\n\\n    /**\\n     * @dev Transfer `value` amount of `token` from the calling contract to `to`. If `token` returns no value,\\n     * non-reverting calls are assumed to be successful.\\n     */\\n    function safeTransfer(IERC20 token, address to, uint256 value) internal {\\n        _callOptionalReturn(token, abi.encodeCall(token.transfer, (to, value)));\\n    }\\n\\n    /**\\n     * @dev Transfer `value` amount of `token` from `from` to `to`, spending the approval given by `from` to the\\n     * calling contract. If `token` returns no value, non-reverting calls are assumed to be successful.\\n     */\\n    function safeTransferFrom(IERC20 token, address from, address to, uint256 value) internal {\\n        _callOptionalReturn(token, abi.encodeCall(token.transferFrom, (from, to, value)));\\n    }\\n\\n    /**\\n     * @dev Variant of {safeTransfer} that returns a bool instead of reverting if the operation is not successful.\\n     */\\n    function trySafeTransfer(IERC20 token, address to, uint256 value) internal returns (bool) {\\n        return _callOptionalReturnBool(token, abi.encodeCall(token.transfer, (to, value)));\\n    }\\n\\n    /**\\n     * @dev Variant of {safeTransferFrom} that returns a bool instead of reverting if the operation is not successful.\\n     */\\n    function trySafeTransferFrom(IERC20 token, address from, address to, uint256 value) internal returns (bool) {\\n        return _callOptionalReturnBool(token, abi.encodeCall(token.transferFrom, (from, to, value)));\\n    }\\n\\n    /**\\n     * @dev Increase the calling contract's allowance toward `spender` by `value`. If `token` returns no value,\\n     * non-reverting calls are assumed to be successful.\\n     *\\n     * IMPORTANT: If the token implements ERC-7674 (ERC-20 with temporary allowance), and if the \\\"client\\\"\\n     * smart contract uses ERC-7674 to set temporary allowances, then the \\\"client\\\" smart contract should avoid using\\n     * this function. Performing a {safeIncreaseAllowance} or {safeDecreaseAllowance} operation on a token contract\\n     * that has a non-zero temporary allowance (for that particular owner-spender) will result in unexpected behavior.\\n     */\\n    function safeIncreaseAllowance(IERC20 token, address spender, uint256 value) internal {\\n        uint256 oldAllowance = token.allowance(address(this), spender);\\n        forceApprove(token, spender, oldAllowance + value);\\n    }\\n\\n    /**\\n     * @dev Decrease the calling contract's allowance toward `spender` by `requestedDecrease`. If `token` returns no\\n     * value, non-reverting calls are assumed to be successful.\\n     *\\n     * IMPORTANT: If the token implements ERC-7674 (ERC-20 with temporary allowance), and if the \\\"client\\\"\\n     * smart contract uses ERC-7674 to set temporary allowances, then the \\\"client\\\" smart contract should avoid using\\n     * this function. Performing a {safeIncreaseAllowance} or {safeDecreaseAllowance} operation on a token contract\\n     * that has a non-zero temporary allowance (for that particular owner-spender) will result in unexpected behavior.\\n     */\\n    function safeDecreaseAllowance(IERC20 token, address spender, uint256 requestedDecrease) internal {\\n        unchecked {\\n            uint256 currentAllowance = token.allowance(address(this), spender);\\n            if (currentAllowance < requestedDecrease) {\\n                revert SafeERC20FailedDecreaseAllowance(spender, currentAllowance, requestedDecrease);\\n            }\\n            forceApprove(token, spender, currentAllowance - requestedDecrease);\\n        }\\n    }\\n\\n    /**\\n     * @dev Set the calling contract's allowance toward `spender` to `value`. If `token` returns no value,\\n     * non-reverting calls are assumed to be successful. Meant to be used with tokens that require the approval\\n     * to be set to zero before setting it to a non-zero value, such as USDT.\\n     *\\n     * NOTE: If the token implements ERC-7674, this function will not modify any temporary allowance. This function\\n     * only sets the \\\"standard\\\" allowance. Any temporary allowance will remain active, in addition to the value being\\n     * set here.\\n     */\\n    function forceApprove(IERC20 token, address spender, uint256 value) internal {\\n        bytes memory approvalCall = abi.encodeCall(token.approve, (spender, value));\\n\\n        if (!_callOptionalReturnBool(token, approvalCall)) {\\n            _callOptionalReturn(token, abi.encodeCall(token.approve, (spender, 0)));\\n            _callOptionalReturn(token, approvalCall);\\n        }\\n    }\\n\\n    /**\\n     * @dev Performs an {ERC1363} transferAndCall, with a fallback to the simple {ERC20} transfer if the target has no\\n     * code. This can be used to implement an {ERC721}-like safe transfer that rely on {ERC1363} checks when\\n     * targeting contracts.\\n     *\\n     * Reverts if the returned value is other than `true`.\\n     */\\n    function transferAndCallRelaxed(IERC1363 token, address to, uint256 value, bytes memory data) internal {\\n        if (to.code.length == 0) {\\n            safeTransfer(token, to, value);\\n        } else if (!token.transferAndCall(to, value, data)) {\\n            revert SafeERC20FailedOperation(address(token));\\n        }\\n    }\\n\\n    /**\\n     * @dev Performs an {ERC1363} transferFromAndCall, with a fallback to the simple {ERC20} transferFrom if the target\\n     * has no code. This can be used to implement an {ERC721}-like safe transfer that rely on {ERC1363} checks when\\n     * targeting contracts.\\n     *\\n     * Reverts if the returned value is other than `true`.\\n     */\\n    function transferFromAndCallRelaxed(\\n        IERC1363 token,\\n        address from,\\n        address to,\\n        uint256 value,\\n        bytes memory data\\n    ) internal {\\n        if (to.code.length == 0) {\\n            safeTransferFrom(token, from, to, value);\\n        } else if (!token.transferFromAndCall(from, to, value, data)) {\\n            revert SafeERC20FailedOperation(address(token));\\n        }\\n    }\\n\\n    /**\\n     * @dev Performs an {ERC1363} approveAndCall, with a fallback to the simple {ERC20} approve if the target has no\\n     * code. This can be used to implement an {ERC721}-like safe transfer that rely on {ERC1363} checks when\\n     * targeting contracts.\\n     *\\n     * NOTE: When the recipient address (`to`) has no code (i.e. is an EOA), this function behaves as {forceApprove}.\\n     * Opposedly, when the recipient address (`to`) has code, this function only attempts to call {ERC1363-approveAndCall}\\n     * once without retrying, and relies on the returned value to be true.\\n     *\\n     * Reverts if the returned value is other than `true`.\\n     */\\n    function approveAndCallRelaxed(IERC1363 token, address to, uint256 value, bytes memory data) internal {\\n        if (to.code.length == 0) {\\n            forceApprove(token, to, value);\\n        } else if (!token.approveAndCall(to, value, data)) {\\n            revert SafeERC20FailedOperation(address(token));\\n        }\\n    }\\n\\n    /**\\n     * @dev Imitates a Solidity high-level call (i.e. a regular function call to a contract), relaxing the requirement\\n     * on the return value: the return value is optional (but if data is returned, it must not be false).\\n     * @param token The token targeted by the call.\\n     * @param data The call data (encoded using abi.encode or one of its variants).\\n     *\\n     * This is a variant of {_callOptionalReturnBool} that reverts if call fails to meet the requirements.\\n     */\\n    function _callOptionalReturn(IERC20 token, bytes memory data) private {\\n        uint256 returnSize;\\n        uint256 returnValue;\\n        assembly (\\\"memory-safe\\\") {\\n            let success := call(gas(), token, 0, add(data, 0x20), mload(data), 0, 0x20)\\n            // bubble errors\\n            if iszero(success) {\\n                let ptr := mload(0x40)\\n                returndatacopy(ptr, 0, returndatasize())\\n                revert(ptr, returndatasize())\\n            }\\n            returnSize := returndatasize()\\n            returnValue := mload(0)\\n        }\\n\\n        if (returnSize == 0 ? address(token).code.length == 0 : returnValue != 1) {\\n            revert SafeERC20FailedOperation(address(token));\\n        }\\n    }\\n\\n    /**\\n     * @dev Imitates a Solidity high-level call (i.e. a regular function call to a contract), relaxing the requirement\\n     * on the return value: the return value is optional (but if data is returned, it must not be false).\\n     * @param token The token targeted by the call.\\n     * @param data The call data (encoded using abi.encode or one of its variants).\\n     *\\n     * This is a variant of {_callOptionalReturn} that silently catches all reverts and returns a bool instead.\\n     */\\n    function _callOptionalReturnBool(IERC20 token, bytes memory data) private returns (bool) {\\n        bool success;\\n        uint256 returnSize;\\n        uint256 returnValue;\\n        assembly (\\\"memory-safe\\\") {\\n            success := call(gas(), token, 0, add(data, 0x20), mload(data), 0, 0x20)\\n            returnSize := returndatasize()\\n            returnValue := mload(0)\\n        }\\n        return success && (returnSize == 0 ? address(token).code.length > 0 : returnValue == 1);\\n    }\\n}\\n\"},\"@openzeppelin/contracts/token/ERC20/IERC20.sol\":{\"content\":\"// SPDX-License-Identifier: MIT\\n// OpenZeppelin Contracts (last updated v5.4.0) (token/ERC20/IERC20.sol)\\n\\npragma solidity >=0.4.16;\\n\\n/**\\n * @dev Interface of the ERC-20 standard as defined in the ERC.\\n */\\ninterface IERC20 {\\n    /**\\n     * @dev Emitted when `value` tokens are moved from one account (`from`) to\\n     * another (`to`).\\n     *\\n     * Note that `value` may be zero.\\n     */\\n    event Transfer(address indexed from, address indexed to, uint256 value);\\n\\n    /**\\n     * @dev Emitted when the allowance of a `spender` for an `owner` is set by\\n     * a call to {approve}. `value` is the new allowance.\\n     */\\n    event Approval(address indexed owner, address indexed spender, uint256 value);\\n\\n    /**\\n     * @dev Returns the value of tokens in existence.\\n     */\\n    function totalSupply() external view returns (uint256);\\n\\n    /**\\n     * @dev Returns the value of tokens owned by `account`.\\n     */\\n    function balanceOf(address account) external view returns (uint256);\\n\\n    /**\\n     * @dev Moves a `value` amount of tokens from the caller's account to `to`.\\n     *\\n     * Returns a boolean value indicating whether the operation succeeded.\\n     *\\n     * Emits a {Transfer} event.\\n     */\\n    function transfer(address to, uint256 value) external returns (bool);\\n\\n    /**\\n     * @dev Returns the remaining number of tokens that `spender` will be\\n     * allowed to spend on behalf of `owner` through {transferFrom}. This is\\n     * zero by default.\\n     *\\n     * This value changes when {approve} or {transferFrom} are called.\\n     */\\n    function allowance(address owner, address spender) external view returns (uint256);\\n\\n    /**\\n     * @dev Sets a `value` amount of tokens as the allowance of `spender` over the\\n     * caller's tokens.\\n     *\\n     * Returns a boolean value indicating whether the operation succeeded.\\n     *\\n     * IMPORTANT: Beware that changing an allowance with this method brings the risk\\n     * that someone may use both the old and the new allowance by unfortunate\\n     * transaction ordering. One possible solution to mitigate this race\\n     * condition is to first reduce the spender's allowance to 0 and set the\\n     * desired value afterwards:\\n     * https://github.com/ethereum/EIPs/issues/20#issuecomment-263524729\\n     *\\n     * Emits an {Approval} event.\\n     */\\n    function approve(address spender, uint256 value) external returns (bool);\\n\\n    /**\\n     * @dev Moves a `value` amount of tokens from `from` to `to` using the\\n     * allowance mechanism. `value` is then deducted from the caller's\\n     * allowance.\\n     *\\n     * Returns a boolean value indicating whether the operation succeeded.\\n     *\\n     * Emits a {Transfer} event.\\n     */\\n    function transferFrom(address from, address to, uint256 value) external returns (bool);\\n}\\n\"},\"@openzeppelin/contracts/token/ERC20/ERC20.sol\":{\"content\":\"// SPDX-License-Identifier: MIT\\n// OpenZeppelin Contracts (last updated v5.4.0) (token/ERC20/ERC20.sol)\\n\\npragma solidity ^0.8.20;\\n\\nimport {IERC20} from \\\"./IERC20.sol\\\";\\nimport {IERC20Metadata} from \\\"./extensions/IERC20Metadata.sol\\\";\\nimport {Context} from \\\"../../utils/Context.sol\\\";\\nimport {IERC20Errors} from \\\"../../interfaces/draft-IERC6093.sol\\\";\\n\\n/**\\n * @dev Implementation of the {IERC20} interface.\\n *\\n * This implementation is agnostic to the way tokens are created. This means\\n * that a supply mechanism has to be added in a derived contract using {_mint}.\\n *\\n * TIP: For a detailed writeup see our guide\\n * https://forum.openzeppelin.com/t/how-to-implement-erc20-supply-mechanisms/226[How\\n * to implement supply mechanisms].\\n *\\n * The default value of {decimals} is 18. To change this, you should override\\n * this function so it returns a different value.\\n *\\n * We have followed general OpenZeppelin Contracts guidelines: functions revert\\n * instead returning `false` on failure. This behavior is nonetheless\\n * conventional and does not conflict with the expectations of ERC-20\\n * applications.\\n */\\nabstract contract ERC20 is Context, IERC20, IERC20Metadata, IERC20Errors {\\n    mapping(address account => uint256) private _balances;\\n\\n    mapping(address account => mapping(address spender => uint256)) private _allowances;\\n\\n    uint256 private _totalSupply;\\n\\n    string private _name;\\n    string private _symbol;\\n\\n    /**\\n     * @dev Sets the values for {name} and {symbol}.\\n     *\\n     * Both values are immutable: they can only be set once during construction.\\n     */\\n    constructor(string memory name_, string memory symbol_) {\\n        _name = name_;\\n        _symbol = symbol_;\\n    }\\n\\n    /**\\n     * @dev Returns the name of the token.\\n     */\\n    function name() public view virtual returns (string memory) {\\n        return _name;\\n    }\\n\\n    /**\\n     * @dev Returns the symbol of the token, usually a shorter version of the\\n     * name.\\n     */\\n    function symbol() public view virtual returns (string memory) {\\n        return _symbol;\\n    }\\n\\n    /**\\n     * @dev Returns the number of decimals used to get its user representation.\\n     * For example, if `decimals` equals `2`, a balance of `505` tokens should\\n     * be displayed to a user as `5.05` (`505 / 10 ** 2`).\\n     *\\n     * Tokens usually opt for a value of 18, imitating the relationship between\\n     * Ether and Wei. This is the default value returned by this function, unless\\n     * it's overridden.\\n     *\\n     * NOTE: This information is only used for _display_ purposes: it in\\n     * no way affects any of the arithmetic of the contract, including\\n     * {IERC20-balanceOf} and {IERC20-transfer}.\\n     */\\n    function decimals() public view virtual returns (uint8) {\\n        return 18;\\n    }\\n\\n    /// @inheritdoc IERC20\\n    function totalSupply() public view virtual returns (uint256) {\\n        return _totalSupply;\\n    }\\n\\n    /// @inheritdoc IERC20\\n    function balanceOf(address account) public view virtual returns (uint256) {\\n        return _balances[account];\\n    }\\n\\n    /**\\n     * @dev See {IERC20-transfer}.\\n     *\\n     * Requirements:\\n     *\\n     * - `to` cannot be the zero address.\\n     * - the caller must have a balance of at least `value`.\\n     */\\n    function transfer(address to, uint256 value) public virtual returns (bool) {\\n        address owner = _msgSender();\\n        _transfer(owner, to, value);\\n        return true;\\n    }\\n\\n    /// @inheritdoc IERC20\\n    function allowance(address owner, address spender) public view virtual returns (uint256) {\\n        return _allowances[owner][spender];\\n    }\\n\\n    /**\\n     * @dev See {IERC20-approve}.\\n     *\\n     * NOTE: If `value` is the maximum `uint256`, the allowance is not updated on\\n     * `transferFrom`. This is semantically equivalent to an infinite approval.\\n     *\\n     * Requirements:\\n     *\\n     * - `spender` cannot be the zero address.\\n     */\\n    function approve(address spender, uint256 value) public virtual returns (bool) {\\n        address owner = _msgSender();\\n        _approve(owner, spender, value);\\n        return true;\\n    }\\n\\n    /**\\n     * @dev See {IERC20-transferFrom}.\\n     *\\n     * Skips emitting an {Approval} event indicating an allowance update. This is not\\n     * required by the ERC. See {xref-ERC20-_approve-address-address-uint256-bool-}[_approve].\\n     *\\n     * NOTE: Does not update the allowance if the current allowance\\n     * is the maximum `uint256`.\\n     *\\n     * Requirements:\\n     *\\n     * - `from` and `to` cannot be the zero address.\\n     * - `from` must have a balance of at least `value`.\\n     * - the caller must have allowance for ``from``'s tokens of at least\\n     * `value`.\\n     */\\n    function transferFrom(address from, address to, uint256 value) public virtual returns (bool) {\\n        address spender = _msgSender();\\n        _spendAllowance(from, spender, value);\\n        _transfer(from, to, value);\\n        return true;\\n    }\\n\\n    /**\\n     * @dev Moves a `value` amount of tokens from `from` to `to`.\\n     *\\n     * This internal function is equivalent to {transfer}, and can be used to\\n     * e.g. implement automatic token fees, slashing mechanisms, etc.\\n     *\\n     * Emits a {Transfer} event.\\n     *\\n     * NOTE: This function is not virtual, {_update} should be overridden instead.\\n     */\\n    function _transfer(address from, address to, uint256 value) internal {\\n        if (from == address(0)) {\\n            revert ERC20InvalidSender(address(0));\\n        }\\n        if (to == address(0)) {\\n            revert ERC20InvalidReceiver(address(0));\\n        }\\n        _update(from, to, value);\\n    }\\n\\n    /**\\n     * @dev Transfers a `value` amount of tokens from `from` to `to`, or alternatively mints (or burns) if `from`\\n     * (or `to`) is the zero address. All customizations to transfers, mints, and burns should be done by overriding\\n     * this function.\\n     *\\n     * Emits a {Transfer} event.\\n     */\\n    function _update(address from, address to, uint256 value) internal virtual {\\n        if (from == address(0)) {\\n            // Overflow check required: The rest of the code assumes that totalSupply never overflows\\n            _totalSupply += value;\\n        } else {\\n            uint256 fromBalance = _balances[from];\\n            if (fromBalance < value) {\\n                revert ERC20InsufficientBalance(from, fromBalance, value);\\n            }\\n            unchecked {\\n                // Overflow not possible: value <= fromBalance <= totalSupply.\\n                _balances[from] = fromBalance - value;\\n            }\\n        }\\n\\n        if (to == address(0)) {\\n            unchecked {\\n                // Overflow not possible: value <= totalSupply or value <= fromBalance <= totalSupply.\\n                _totalSupply -= value;\\n            }\\n        } else {\\n            unchecked {\\n                // Overflow not possible: balance + value is at most totalSupply, which we know fits into a uint256.\\n                _balances[to] += value;\\n            }\\n        }\\n\\n        emit Transfer(from, to, value);\\n    }\\n\\n    /**\\n     * @dev Creates a `value` amount of tokens and assigns them to `account`, by transferring it from address(0).\\n     * Relies on the `_update` mechanism\\n     *\\n     * Emits a {Transfer} event with `from` set to the zero address.\\n     *\\n     * NOTE: This function is not virtual, {_update} should be overridden instead.\\n     */\\n    function _mint(address account, uint256 value) internal {\\n        if (account == address(0)) {\\n            revert ERC20InvalidReceiver(address(0));\\n        }\\n        _update(address(0), account, value);\\n    }\\n\\n    /**\\n     * @dev Destroys a `value` amount of tokens from `account`, lowering the total supply.\\n     * Relies on the `_update` mechanism.\\n     *\\n     * Emits a {Transfer} event with `to` set to the zero address.\\n     *\\n     * NOTE: This function is not virtual, {_update} should be overridden instead\\n     */\\n    function _burn(address account, uint256 value) internal {\\n        if (account == address(0)) {\\n            revert ERC20InvalidSender(address(0));\\n        }\\n        _update(account, address(0), value);\\n    }\\n\\n    /**\\n     * @dev Sets `value` as the allowance of `spender` over the `owner`'s tokens.\\n     *\\n     * This internal function is equivalent to `approve`, and can be used to\\n     * e.g. set automatic allowances for certain subsystems, etc.\\n     *\\n     * Emits an {Approval} event.\\n     *\\n     * Requirements:\\n     *\\n     * - `owner` cannot be the zero address.\\n     * - `spender` cannot be the zero address.\\n     *\\n     * Overrides to this logic should be done to the variant with an additional `bool emitEvent` argument.\\n     */\\n    function _approve(address owner, address spender, uint256 value) internal {\\n        _approve(owner, spender, value, true);\\n    }\\n\\n    /**\\n     * @dev Variant of {_approve} with an optional flag to enable or disable the {Approval} event.\\n     *\\n     * By default (when calling {_approve}) the flag is set to true. On the other hand, approval changes made by\\n     * `_spendAllowance` during the `transferFrom` operation set the flag to false. This saves gas by not emitting any\\n     * `Approval` event during `transferFrom` operations.\\n     *\\n     * Anyone who wishes to continue emitting `Approval` events on the`transferFrom` operation can force the flag to\\n     * true using the following override:\\n     *\\n     * ```solidity\\n     * function _approve(address owner, address spender, uint256 value, bool) internal virtual override {\\n     *     super._approve(owner, spender, value, true);\\n     * }\\n     * ```\\n     *\\n     * Requirements are the same as {_approve}.\\n     */\\n    function _approve(address owner, address spender, uint256 value, bool emitEvent) internal virtual {\\n        if (owner == address(0)) {\\n            revert ERC20InvalidApprover(address(0));\\n        }\\n        if (spender == address(0)) {\\n            revert ERC20InvalidSpender(address(0));\\n        }\\n        _allowances[owner][spender] = value;\\n        if (emitEvent) {\\n            emit Approval(owner, spender, value);\\n        }\\n    }\\n\\n    /**\\n     * @dev Updates `owner`'s allowance for `spender` based on spent `value`.\\n     *\\n     * Does not update the allowance value in case of infinite allowance.\\n     * Revert if not enough allowance is available.\\n     *\\n     * Does not emit an {Approval} event.\\n     */\\n    function _spendAllowance(address owner, address spender, uint256 value) internal virtual {\\n        uint256 currentAllowance = allowance(owner, spender);\\n        if (currentAllowance < type(uint256).max) {\\n            if (currentAllowance < value) {\\n                revert ERC20InsufficientAllowance(spender, currentAllowance, value);\\n            }\\n            unchecked {\\n                _approve(owner, spender, currentAllowance - value, false);\\n            }\\n        }\\n    }\\n}\\n\"},\"@openzeppelin/contracts/interfaces/IERC1363.sol\":{\"content\":\"// SPDX-License-Identifier: MIT\\n// OpenZeppelin Contracts (last updated v5.4.0) (interfaces/IERC1363.sol)\\n\\npragma solidity >=0.6.2;\\n\\nimport {IERC20} from \\\"./IERC20.sol\\\";\\nimport {IERC165} from \\\"./IERC165.sol\\\";\\n\\n/**\\n * @title IERC1363\\n * @dev Interface of the ERC-1363 standard as defined in the https://eips.ethereum.org/EIPS/eip-1363[ERC-1363].\\n *\\n * Defines an extension interface for ERC-20 tokens that supports executing code on a recipient contract\\n * after `transfer` or `transferFrom`, or code on a spender contract after `approve`, in a single transaction.\\n */\\ninterface IERC1363 is IERC20, IERC165 {\\n    /*\\n     * Note: the ERC-165 identifier for this interface is 0xb0202a11.\\n     * 0xb0202a11 ===\\n     *   bytes4(keccak256('transferAndCall(address,uint256)')) ^\\n     *   bytes4(keccak256('transferAndCall(address,uint256,bytes)')) ^\\n     *   bytes4(keccak256('transferFromAndCall(address,address,uint256)')) ^\\n     *   bytes4(keccak256('transferFromAndCall(address,address,uint256,bytes)')) ^\\n     *   bytes4(keccak256('approveAndCall(address,uint256)')) ^\\n     *   bytes4(keccak256('approveAndCall(address,uint256,bytes)'))\\n     */\\n\\n    /**\\n     * @dev Moves a `value` amount of tokens from the caller's account to `to`\\n     * and then calls {IERC1363Receiver-onTransferReceived} on `to`.\\n     * @param to The address which you want to transfer to.\\n     * @param value The amount of tokens to be transferred.\\n     * @return A boolean value indicating whether the operation succeeded unless throwing.\\n     */\\n    function transferAndCall(address to, uint256 value) external returns (bool);\\n\\n    /**\\n     * @dev Moves a `value` amount of tokens from the caller's account to `to`\\n     * and then calls {IERC1363Receiver-onTransferReceived} on `to`.\\n     * @param to The address which you want to transfer to.\\n     * @param value The amount of tokens to be transferred.\\n     * @param data Additional data with no specified format, sent in call to `to`.\\n     * @return A boolean value indicating whether the operation succeeded unless throwing.\\n     */\\n    function transferAndCall(address to, uint256 value, bytes calldata data) external returns (bool);\\n\\n    /**\\n     * @dev Moves a `value` amount of tokens from `from` to `to` using the allowance mechanism\\n     * and then calls {IERC1363Receiver-onTransferReceived} on `to`.\\n     * @param from The address which you want to send tokens from.\\n     * @param to The address which you want to transfer to.\\n     * @param value The amount of tokens to be transferred.\\n     * @return A boolean value indicating whether the operation succeeded unless throwing.\\n     */\\n    function transferFromAndCall(address from, address to, uint256 value) external returns (bool);\\n\\n    /**\\n     * @dev Moves a `value` amount of tokens from `from` to `to` using the allowance mechanism\\n     * and then calls {IERC1363Receiver-onTransferReceived} on `to`.\\n     * @param from The address which you want to send tokens from.\\n     * @param to The address which you want to transfer to.\\n     * @param value The amount of tokens to be transferred.\\n     * @param data Additional data with no specified format, sent in call to `to`.\\n     * @return A boolean value indicating whether the operation succeeded unless throwing.\\n     */\\n    function transferFromAndCall(address from, address to, uint256 value, bytes calldata data) external returns (bool);\\n\\n    /**\\n     * @dev Sets a `value` amount of tokens as the allowance of `spender` over the\\n     * caller's tokens and then calls {IERC1363Spender-onApprovalReceived} on `spender`.\\n     * @param spender The address which will spend the funds.\\n     * @param value The amount of tokens to be spent.\\n     * @return A boolean value indicating whether the operation succeeded unless throwing.\\n     */\\n    function approveAndCall(address spender, uint256 value) external returns (bool);\\n\\n    /**\\n     * @dev Sets a `value` amount of tokens as the allowance of `spender` over the\\n     * caller's tokens and then calls {IERC1363Spender-onApprovalReceived} on `spender`.\\n     * @param spender The address which will spend the funds.\\n     * @param value The amount of tokens to be spent.\\n     * @param data Additional data with no specified format, sent in call to `spender`.\\n     * @return A boolean value indicating whether the operation succeeded unless throwing.\\n     */\\n    function approveAndCall(address spender, uint256 value, bytes calldata data) external returns (bool);\\n}\\n\"},\"@openzeppelin/contracts/interfaces/draft-IERC6093.sol\":{\"content\":\"// SPDX-License-Identifier: MIT\\n// OpenZeppelin Contracts (last updated v5.4.0) (interfaces/draft-IERC6093.sol)\\npragma solidity >=0.8.4;\\n\\n/**\\n * @dev Standard ERC-20 Errors\\n * Interface of the https://eips.ethereum.org/EIPS/eip-6093[ERC-6093] custom errors for ERC-20 tokens.\\n */\\ninterface IERC20Errors {\\n    /**\\n     * @dev Indicates an error related to the current `balance` of a `sender`. Used in transfers.\\n     * @param sender Address whose tokens are being transferred.\\n     * @param balance Current balance for the interacting account.\\n     * @param needed Minimum amount required to perform a transfer.\\n     */\\n    error ERC20InsufficientBalance(address sender, uint256 balance, uint256 needed);\\n\\n    /**\\n     * @dev Indicates a failure with the token `sender`. Used in transfers.\\n     * @param sender Address whose tokens are being transferred.\\n     */\\n    error ERC20InvalidSender(address sender);\\n\\n    /**\\n     * @dev Indicates a failure with the token `receiver`. Used in transfers.\\n     * @param receiver Address to which tokens are being transferred.\\n     */\\n    error ERC20InvalidReceiver(address receiver);\\n\\n    /**\\n     * @dev Indicates a failure with the `spender`’s `allowance`. Used in transfers.\\n     * @param spender Address that may be allowed to operate on tokens without being their owner.\\n     * @param allowance Amount of tokens a `spender` is allowed to operate with.\\n     * @param needed Minimum amount required to perform a transfer.\\n     */\\n    error ERC20InsufficientAllowance(address spender, uint256 allowance, uint256 needed);\\n\\n    /**\\n     * @dev Indicates a failure with the `approver` of a token to be approved. Used in approvals.\\n     * @param approver Address initiating an approval operation.\\n     */\\n    error ERC20InvalidApprover(address approver);\\n\\n    /**\\n     * @dev Indicates a failure with the `spender` to be approved. Used in approvals.\\n     * @param spender Address that may be allowed to operate on tokens without being their owner.\\n     */\\n    error ERC20InvalidSpender(address spender);\\n}\\n\\n/**\\n * @dev Standard ERC-721 Errors\\n * Interface of the https://eips.ethereum.org/EIPS/eip-6093[ERC-6093] custom errors for ERC-721 tokens.\\n */\\ninterface IERC721Errors {\\n    /**\\n     * @dev Indicates that an address can't be an owner. For example, `address(0)` is a forbidden owner in ERC-20.\\n     * Used in balance queries.\\n     * @param owner Address of the current owner of a token.\\n     */\\n    error ERC721InvalidOwner(address owner);\\n\\n    /**\\n     * @dev Indicates a `tokenId` whose `owner` is the zero address.\\n     * @param tokenId Identifier number of a token.\\n     */\\n    error ERC721NonexistentToken(uint256 tokenId);\\n\\n    /**\\n     * @dev Indicates an error related to the ownership over a particular token. Used in transfers.\\n     * @param sender Address whose tokens are being transferred.\\n     * @param tokenId Identifier number of a token.\\n     * @param owner Address of the current owner of a token.\\n     */\\n    error ERC721IncorrectOwner(address sender, uint256 tokenId, address owner);\\n\\n    /**\\n     * @dev Indicates a failure with the token `sender`. Used in transfers.\\n     * @param sender Address whose tokens are being transferred.\\n     */\\n    error ERC721InvalidSender(address sender);\\n\\n    /**\\n     * @dev Indicates a failure with the token `receiver`. Used in transfers.\\n     * @param receiver Address to which tokens are being transferred.\\n     */\\n    error ERC721InvalidReceiver(address receiver);\\n\\n    /**\\n     * @dev Indicates a failure with the `operator`’s approval. Used in transfers.\\n     * @param operator Address that may be allowed to operate on tokens without being their owner.\\n     * @param tokenId Identifier number of a token.\\n     */\\n    error ERC721InsufficientApproval(address operator, uint256 tokenId);\\n\\n    /**\\n     * @dev Indicates a failure with the `approver` of a token to be approved. Used in approvals.\\n     * @param approver Address initiating an approval operation.\\n     */\\n    error ERC721InvalidApprover(address approver);\\n\\n    /**\\n     * @dev Indicates a failure with the `operator` to be approved. Used in approvals.\\n     * @param operator Address that may be allowed to operate on tokens without being their owner.\\n     */\\n    error ERC721InvalidOperator(address operator);\\n}\\n\\n/**\\n * @dev Standard ERC-1155 Errors\\n * Interface of the https://eips.ethereum.org/EIPS/eip-6093[ERC-6093] custom errors for ERC-1155 tokens.\\n */\\ninterface IERC1155Errors {\\n    /**\\n     * @dev Indicates an error related to the current `balance` of a `sender`. Used in transfers.\\n     * @param sender Address whose tokens are being transferred.\\n     * @param balance Current balance for the interacting account.\\n     * @param needed Minimum amount required to perform a transfer.\\n     * @param tokenId Identifier number of a token.\\n     */\\n    error ERC1155InsufficientBalance(address sender, uint256 balance, uint256 needed, uint256 tokenId);\\n\\n    /**\\n     * @dev Indicates a failure with the token `sender`. Used in transfers.\\n     * @param sender Address whose tokens are being transferred.\\n     */\\n    error ERC1155InvalidSender(address sender);\\n\\n    /**\\n     * @dev Indicates a failure with the token `receiver`. Used in transfers.\\n     * @param receiver Address to which tokens are being transferred.\\n     */\\n    error ERC1155InvalidReceiver(address receiver);\\n\\n    /**\\n     * @dev Indicates a failure with the `operator`’s approval. Used in transfers.\\n     * @param operator Address that may be allowed to operate on tokens without being their owner.\\n     * @param owner Address of the current owner of a token.\\n     */\\n    error ERC1155MissingApprovalForAll(address operator, address owner);\\n\\n    /**\\n     * @dev Indicates a failure with the `approver` of a token to be approved. Used in approvals.\\n     * @param approver Address initiating an approval operation.\\n     */\\n    error ERC1155InvalidApprover(address approver);\\n\\n    /**\\n     * @dev Indicates a failure with the `operator` to be approved. Used in approvals.\\n     * @param operator Address that may be allowed to operate on tokens without being their owner.\\n     */\\n    error ERC1155InvalidOperator(address operator);\\n\\n    /**\\n     * @dev Indicates an array length mismatch between ids and values in a safeBatchTransferFrom operation.\\n     * Used in batch transfers.\\n     * @param idsLength Length of the array of token identifiers\\n     * @param valuesLength Length of the array of token amounts\\n     */\\n    error ERC1155InvalidArrayLength(uint256 idsLength, uint256 valuesLength);\\n}\\n\"},\"@openzeppelin/contracts/utils/Context.sol\":{\"content\":\"// SPDX-License-Identifier: MIT\\n// OpenZeppelin Contracts (last updated v5.0.1) (utils/Context.sol)\\n\\npragma solidity ^0.8.20;\\n\\n/**\\n * @dev Provides information about the current execution context, including the\\n * sender of the transaction and its data. While these are generally available\\n * via msg.sender and msg.data, they should not be accessed in such a direct\\n * manner, since when dealing with meta-transactions the account sending and\\n * paying for execution may not be the actual sender (as far as an application\\n * is concerned).\\n *\\n * This contract is only required for intermediate, library-like contracts.\\n */\\nabstract contract Context {\\n    function _msgSender() internal view virtual returns (address) {\\n        return msg.sender;\\n    }\\n\\n    function _msgData() internal view virtual returns (bytes calldata) {\\n        return msg.data;\\n    }\\n\\n    function _contextSuffixLength() internal view virtual returns (uint256) {\\n        return 0;\\n    }\\n}\\n\"},\"@openzeppelin/contracts/token/ERC20/extensions/IERC20Metadata.sol\":{\"content\":\"// SPDX-License-Identifier: MIT\\n// OpenZeppelin Contracts (last updated v5.4.0) (token/ERC20/extensions/IERC20Metadata.sol)\\n\\npragma solidity >=0.6.2;\\n\\nimport {IERC20} from \\\"../IERC20.sol\\\";\\n\\n/**\\n * @dev Interface for the optional metadata functions from the ERC-20 standard.\\n */\\ninterface IERC20Metadata is IERC20 {\\n    /**\\n     * @dev Returns the name of the token.\\n     */\\n    function name() external view returns (string memory);\\n\\n    /**\\n     * @dev Returns the symbol of the token.\\n     */\\n    function symbol() external view returns (string memory);\\n\\n    /**\\n     * @dev Returns the decimals places of the token.\\n     */\\n    function decimals() external view returns (uint8);\\n}\\n\"},\"@openzeppelin/contracts/utils/introspection/ERC165.sol\":{\"content\":\"// SPDX-License-Identifier: MIT\\n// OpenZeppelin Contracts (last updated v5.4.0) (utils/introspection/ERC165.sol)\\n\\npragma solidity ^0.8.20;\\n\\nimport {IERC165} from \\\"./IERC165.sol\\\";\\n\\n/**\\n * @dev Implementation of the {IERC165} interface.\\n *\\n * Contracts that want to implement ERC-165 should inherit from this contract and override {supportsInterface} to check\\n * for the additional interface id that will be supported. For example:\\n *\\n * ```solidity\\n * function supportsInterface(bytes4 interfaceId) public view virtual override returns (bool) {\\n *     return interfaceId == type(MyInterface).interfaceId || super.supportsInterface(interfaceId);\\n * }\\n * ```\\n */\\nabstract contract ERC165 is IERC165 {\\n    /// @inheritdoc IERC165\\n    function supportsInterface(bytes4 interfaceId) public view virtual returns (bool) {\\n        return interfaceId == type(IERC165).interfaceId;\\n    }\\n}\\n\"},\"@openzeppelin/contracts/access/IAccessControl.sol\":{\"content\":\"// SPDX-License-Identifier: MIT\\n// OpenZeppelin Contracts (last updated v5.4.0) (access/IAccessControl.sol)\\n\\npragma solidity >=0.8.4;\\n\\n/**\\n * @dev External interface of AccessControl declared to support ERC-165 detection.\\n */\\ninterface IAccessControl {\\n    /**\\n     * @dev The `account` is missing a role.\\n     */\\n    error AccessControlUnauthorizedAccount(address account, bytes32 neededRole);\\n\\n    /**\\n     * @dev The caller of a function is not the expected one.\\n     *\\n     * NOTE: Don't confuse with {AccessControlUnauthorizedAccount}.\\n     */\\n    error AccessControlBadConfirmation();\\n\\n    /**\\n     * @dev Emitted when `newAdminRole` is set as ``role``'s admin role, replacing `previousAdminRole`\\n     *\\n     * `DEFAULT_ADMIN_ROLE` is the starting admin for all roles, despite\\n     * {RoleAdminChanged} not being emitted to signal this.\\n     */\\n    event RoleAdminChanged(bytes32 indexed role, bytes32 indexed previousAdminRole, bytes32 indexed newAdminRole);\\n\\n    /**\\n     * @dev Emitted when `account` is granted `role`.\\n     *\\n     * `sender` is the account that originated the contract call. This account bears the admin role (for the granted role).\\n     * Expected in cases where the role was granted using the internal {AccessControl-_grantRole}.\\n     */\\n    event RoleGranted(bytes32 indexed role, address indexed account, address indexed sender);\\n\\n    /**\\n     * @dev Emitted when `account` is revoked `role`.\\n     *\\n     * `sender` is the account that originated the contract call:\\n     *   - if using `revokeRole`, it is the admin role bearer\\n     *   - if using `renounceRole`, it is the role bearer (i.e. `account`)\\n     */\\n    event RoleRevoked(bytes32 indexed role, address indexed account, address indexed sender);\\n\\n    /**\\n     * @dev Returns `true` if `account` has been granted `role`.\\n     */\\n    function hasRole(bytes32 role, address account) external view returns (bool);\\n\\n    /**\\n     * @dev Returns the admin role that controls `role`. See {grantRole} and\\n     * {revokeRole}.\\n     *\\n     * To change a role's admin, use {AccessControl-_setRoleAdmin}.\\n     */\\n    function getRoleAdmin(bytes32 role) external view returns (bytes32);\\n\\n    /**\\n     * @dev Grants `role` to `account`.\\n     *\\n     * If `account` had not been already granted `role`, emits a {RoleGranted}\\n     * event.\\n     *\\n     * Requirements:\\n     *\\n     * - the caller must have ``role``'s admin role.\\n     */\\n    function grantRole(bytes32 role, address account) external;\\n\\n    /**\\n     * @dev Revokes `role` from `account`.\\n     *\\n     * If `account` had been granted `role`, emits a {RoleRevoked} event.\\n     *\\n     * Requirements:\\n     *\\n     * - the caller must have ``role``'s admin role.\\n     */\\n    function revokeRole(bytes32 role, address account) external;\\n\\n    /**\\n     * @dev Revokes `role` from the calling account.\\n     *\\n     * Roles are often managed via {grantRole} and {revokeRole}: this function's\\n     * purpose is to provide a mechanism for accounts to lose their privileges\\n     * if they are compromised (such as when a trusted device is misplaced).\\n     *\\n     * If the calling account had been granted `role`, emits a {RoleRevoked}\\n     * event.\\n     *\\n     * Requirements:\\n     *\\n     * - the caller must be `callerConfirmation`.\\n     */\\n    function renounceRole(bytes32 role, address callerConfirmation) external;\\n}\\n\"},\"@openzeppelin/contracts/utils/introspection/IERC165.sol\":{\"content\":\"// SPDX-License-Identifier: MIT\\n// OpenZeppelin Contracts (last updated v5.4.0) (utils/introspection/IERC165.sol)\\n\\npragma solidity >=0.4.16;\\n\\n/**\\n * @dev Interface of the ERC-165 standard, as defined in the\\n * https://eips.ethereum.org/EIPS/eip-165[ERC].\\n *\\n * Implementers can declare support of contract interfaces, which can then be\\n * queried by others ({ERC165Checker}).\\n *\\n * For an implementation, see {ERC165}.\\n */\\ninterface IERC165 {\\n    /**\\n     * @dev Returns true if this contract implements the interface defined by\\n     * `interfaceId`. See the corresponding\\n     * https://eips.ethereum.org/EIPS/eip-165#how-interfaces-are-identified[ERC section]\\n     * to learn more about how these ids are created.\\n     *\\n     * This function call must use less than 30 000 gas.\\n     */\\n    function supportsInterface(bytes4 interfaceId) external view returns (bool);\\n}\\n\"},\"@openzeppelin/contracts/interfaces/IERC165.sol\":{\"content\":\"// SPDX-License-Identifier: MIT\\n// OpenZeppelin Contracts (last updated v5.4.0) (interfaces/IERC165.sol)\\n\\npragma solidity >=0.4.16;\\n\\nimport {IERC165} from \\\"../utils/introspection/IERC165.sol\\\";\\n\"},\"@openzeppelin/contracts/interfaces/IERC20.sol\":{\"content\":\"// SPDX-License-Identifier: MIT\\n// OpenZeppelin Contracts (last updated v5.4.0) (interfaces/IERC20.sol)\\n\\npragma solidity >=0.4.16;\\n\\nimport {IERC20} from \\\"../token/ERC20/IERC20.sol\\\";\\n\"}},\"settings\":{\"optimizer\":{\"enabled\":false,\"runs\":200},\"outputSelection\":{\"*\":{\"\":[\"ast\"],\"*\":[\"abi\",\"metadata\",\"devdoc\",\"userdoc\",\"storageLayout\",\"evm.legacyAssembly\",\"evm.bytecode\",\"evm.deployedBytecode\",\"evm.methodIdentifiers\",\"evm.gasEstimates\",\"evm.assembly\"]}},\"remappings\":[],\"evmVersion\":\"cancun\"}}",
	"name": "TIGGCOIN",
	"bytecode": {
		"linkReferences": {},
		"object": "60806040525f6008555f60095f6101000a81548160ff0219169083151502179055503480156200002d575f80fd5b50336040518060400160405280600881526020017f54494747434f494e0000000000000000000000000000000000000000000000008152506040518060400160405280600481526020017f54494747000000000000000000000000000000000000000000000000000000008152508160039081620000ac919062000be7565b508060049081620000be919062000be7565b5050505f73ffffffffffffffffffffffffffffffffffffffff168173ffffffffffffffffffffffffffffffffffffffff160362000134575f6040517f1e4fbdf70000000000000000000000000000000000000000000000000000000081526004016200012b919062000d0e565b60405180910390fd5b62000145816200044160201b60201c565b50620001695f801b6200015d6200050460201b60201c565b6200050b60201b60201c565b50620001ab7f9f2df0fed2c77648de5860a4cc508cd0818c85b8b8a1ab4ceeef8d981c8956a66200019f6200050460201b60201c565b6200050b60201b60201c565b50620001ed7f52ba824bfabc2bcfcdf7f0edbb486ebb05e1836c90e78047efeb949990f72e5f620001e16200050460201b60201c565b6200050b60201b60201c565b5062000232620002026200050460201b60201c565b601260ff16600a62000215919062000ea6565b633b9aca0062000226919062000ef6565b6200060760201b60201c565b60076372427080908060018154018082558091505060019003905f5260205f20015f90919091909150556007637ba9c380908060018154018082558091505060019003905f5260205f20015f909190919091505560076385126800908060018154018082558091505060019003905f5260205f20015f90919091909150556007638e79bb00908060018154018082558091505060019003905f5260205f20015f909190919091505560076397e10e00908060018154018082558091505060019003905f5260205f20015f9091909190915055600763a1486100908060018154018082558091505060019003905f5260205f20015f9091909190915055600763aab10580908060018154018082558091505060019003905f5260205f20015f9091909190915055600763b4185880908060018154018082558091505060019003905f5260205f20015f9091909190915055600763bd7fab80908060018154018082558091505060019003905f5260205f20015f90919091909150555f5b6007805490508110156200043a5760078181548110620003d357620003d262000f40565b5b905f5260205f200154601260ff16600a620003ef919062000ea6565b633b9aca0062000400919062000ef6565b7fec75c0cdd7efcd5139001fdffde4379b216ba5aef028769704362fee1ec2d1fb60405160405180910390a38080600101915050620003ae565b506200108c565b5f60065f9054906101000a900473ffffffffffffffffffffffffffffffffffffffff1690508160065f6101000a81548173ffffffffffffffffffffffffffffffffffffffff021916908373ffffffffffffffffffffffffffffffffffffffff1602179055508173ffffffffffffffffffffffffffffffffffffffff168173ffffffffffffffffffffffffffffffffffffffff167f8be0079c531659141344cd1fd0a4f28419497f9722a3daafe3b4186f6b6457e060405160405180910390a35050565b5f33905090565b5f6200051e83836200069160201b60201c565b620005fd57600160055f8581526020019081526020015f205f015f8473ffffffffffffffffffffffffffffffffffffffff1673ffffffffffffffffffffffffffffffffffffffff1681526020019081526020015f205f6101000a81548160ff021916908315150217905550620005996200050460201b60201c565b73ffffffffffffffffffffffffffffffffffffffff168273ffffffffffffffffffffffffffffffffffffffff16847f2f8788117e7eff1d82e926ec794901d17c78024a50270940304540a733656f0d60405160405180910390a46001905062000601565b5f90505b92915050565b5f73ffffffffffffffffffffffffffffffffffffffff168273ffffffffffffffffffffffffffffffffffffffff16036200067a575f6040517fec442f0500000000000000000000000000000000000000000000000000000000815260040162000671919062000d0e565b60405180910390fd5b6200068d5f8383620006f560201b60201c565b5050565b5f60055f8481526020019081526020015f205f015f8373ffffffffffffffffffffffffffffffffffffffff1673ffffffffffffffffffffffffffffffffffffffff1681526020019081526020015f205f9054906101000a900460ff16905092915050565b60095f9054906101000a900460ff161562000747576040517f08c379a00000000000000000000000000000000000000000000000000000000081526004016200073e9062000fcb565b60405180910390fd5b6200075a8383836200075f60201b60201c565b505050565b5f73ffffffffffffffffffffffffffffffffffffffff168373ffffffffffffffffffffffffffffffffffffffff1603620007b3578060025f828254620007a6919062000feb565b9250508190555062000884565b5f805f8573ffffffffffffffffffffffffffffffffffffffff1673ffffffffffffffffffffffffffffffffffffffff1681526020019081526020015f20549050818110156200083f578381836040517fe450d38c000000000000000000000000000000000000000000000000000000008152600401620008369392919062001036565b60405180910390fd5b8181035f808673ffffffffffffffffffffffffffffffffffffffff1673ffffffffffffffffffffffffffffffffffffffff1681526020019081526020015f2081905550505b5f73ffffffffffffffffffffffffffffffffffffffff168273ffffffffffffffffffffffffffffffffffffffff1603620008cd578060025f828254039250508190555062000917565b805f808473ffffffffffffffffffffffffffffffffffffffff1673ffffffffffffffffffffffffffffffffffffffff1681526020019081526020015f205f82825401925050819055505b8173ffffffffffffffffffffffffffffffffffffffff168373ffffffffffffffffffffffffffffffffffffffff167fddf252ad1be2c89b69c2b068fc378daa952ba7f163c4a11628f55a4df523b3ef8360405162000976919062001071565b60405180910390a3505050565b5f81519050919050565b7f4e487b71000000000000000000000000000000000000000000000000000000005f52604160045260245ffd5b7f4e487b71000000000000000000000000000000000000000000000000000000005f52602260045260245ffd5b5f6002820490506001821680620009ff57607f821691505b60208210810362000a155762000a14620009ba565b5b50919050565b5f819050815f5260205f209050919050565b5f6020601f8301049050919050565b5f82821b905092915050565b5f6008830262000a797fffffffffffffffffffffffffffffffffffffffffffffffffffffffffffffffff8262000a3c565b62000a85868362000a3c565b95508019841693508086168417925050509392505050565b5f819050919050565b5f819050919050565b5f62000acf62000ac962000ac38462000a9d565b62000aa6565b62000a9d565b9050919050565b5f819050919050565b62000aea8362000aaf565b62000b0262000af98262000ad6565b84845462000a48565b825550505050565b5f90565b62000b1862000b0a565b62000b2581848462000adf565b505050565b5b8181101562000b4c5762000b405f8262000b0e565b60018101905062000b2b565b5050565b601f82111562000b9b5762000b658162000a1b565b62000b708462000a2d565b8101602085101562000b80578190505b62000b9862000b8f8562000a2d565b83018262000b2a565b50505b505050565b5f82821c905092915050565b5f62000bbd5f198460080262000ba0565b1980831691505092915050565b5f62000bd7838362000bac565b9150826002028217905092915050565b62000bf28262000983565b67ffffffffffffffff81111562000c0e5762000c0d6200098d565b5b62000c1a8254620009e7565b62000c2782828562000b50565b5f60209050601f83116001811462000c5d575f841562000c48578287015190505b62000c54858262000bca565b86555062000cc3565b601f19841662000c6d8662000a1b565b5f5b8281101562000c965784890151825560018201915060208501945060208101905062000c6f565b8683101562000cb6578489015162000cb2601f89168262000bac565b8355505b6001600288020188555050505b505050505050565b5f73ffffffffffffffffffffffffffffffffffffffff82169050919050565b5f62000cf68262000ccb565b9050919050565b62000d088162000cea565b82525050565b5f60208201905062000d235f83018462000cfd565b92915050565b7f4e487b71000000000000000000000000000000000000000000000000000000005f52601160045260245ffd5b5f8160011c9050919050565b5f808291508390505b600185111562000db35780860481111562000d8b5762000d8a62000d29565b5b600185161562000d9b5780820291505b808102905062000dab8562000d56565b945062000d6b565b94509492505050565b5f8262000dcd576001905062000e9f565b8162000ddc575f905062000e9f565b816001811462000df5576002811462000e005762000e36565b600191505062000e9f565b60ff84111562000e155762000e1462000d29565b5b8360020a91508482111562000e2f5762000e2e62000d29565b5b5062000e9f565b5060208310610133831016604e8410600b841016171562000e705782820a90508381111562000e6a5762000e6962000d29565b5b62000e9f565b62000e7f848484600162000d62565b9250905081840481111562000e995762000e9862000d29565b5b81810290505b9392505050565b5f62000eb28262000a9d565b915062000ebf8362000a9d565b925062000eee7fffffffffffffffffffffffffffffffffffffffffffffffffffffffffffffffff848462000dbc565b905092915050565b5f62000f028262000a9d565b915062000f0f8362000a9d565b925082820262000f1f8162000a9d565b9150828204841483151762000f395762000f3862000d29565b5b5092915050565b7f4e487b71000000000000000000000000000000000000000000000000000000005f52603260045260245ffd5b5f82825260208201905092915050565b7f544947473a20656d657267656e63792073746f707065640000000000000000005f82015250565b5f62000fb360178362000f6d565b915062000fc08262000f7d565b602082019050919050565b5f6020820190508181035f83015262000fe48162000fa5565b9050919050565b5f62000ff78262000a9d565b9150620010048362000a9d565b92508282019050808211156200101f576200101e62000d29565b5b92915050565b620010308162000a9d565b82525050565b5f6060820190506200104b5f83018662000cfd565b6200105a602083018562001025565b62001069604083018462001025565b949350505050565b5f602082019050620010865f83018462001025565b92915050565b6134f9806200109a5f395ff3fe608060405260043610610249575f3560e01c8063715018a611610138578063a9059cbb116100b5578063d2cd0cd811610079578063d2cd0cd81461083a578063d539139314610862578063d547741f1461088c578063dd62ed3e146108b4578063e2749c96146108f0578063f2fde38b1461091a57610250565b8063a9059cbb1461075c578063abaf211114610798578063b2118a8d146107c0578063b5bfddea146107e8578063c0a317b81461081257610250565b80638c2a993e116100fc5780638c2a993e1461067a5780638da5cb5b146106a257806391d14854146106cc57806395d89b4114610708578063a217fddf1461073257610250565b8063715018a6146105ac578063733d8665146105c257806374f4f547146105fe5780637b018e331461062657806383efcd391461065057610250565b8063313ce567116101c657806358b214ac1161018a57806358b214ac146104f45780636375952a1461051c5780636389a44d1461054457806363a599a41461055a57806370a082311461057057610250565b8063313ce5671461043a57806332cb6b0c1461046457806336568abe1461048e5780634d2f79ff146104b65780634d57382a146104de57610250565b806323b872dd1161020d57806323b872dd14610346578063248a9ca31461038257806328bcef04146103be5780632f2ff15d146103e85780632ff2e9dc1461041057610250565b806301ffc9a71461025257806306fdde031461028e578063095ea7b3146102b85780631291f79d146102f457806318160ddd1461031c57610250565b3661025057005b005b34801561025d575f80fd5b5061027860048036038101906102739190612884565b610942565b60405161028591906128c9565b60405180910390f35b348015610299575f80fd5b506102a26109bb565b6040516102af919061296c565b60405180910390f35b3480156102c3575f80fd5b506102de60048036038101906102d99190612a19565b610a4b565b6040516102eb91906128c9565b60405180910390f35b3480156102ff575f80fd5b5061031a60048036038101906103159190612a92565b610a6d565b005b348015610327575f80fd5b50610330610bbc565b60405161033d9190612adf565b60405180910390f35b348015610351575f80fd5b5061036c60048036038101906103679190612af8565b610bc5565b60405161037991906128c9565b60405180910390f35b34801561038d575f80fd5b506103a860048036038101906103a39190612b7b565b610bf3565b6040516103b59190612bb5565b60405180910390f35b3480156103c9575f80fd5b506103d2610c10565b6040516103df9190612adf565b60405180910390f35b3480156103f3575f80fd5b5061040e60048036038101906104099190612bce565b610c16565b005b34801561041b575f80fd5b50610424610c38565b6040516104319190612adf565b60405180910390f35b348015610445575f80fd5b5061044e610c5b565b60405161045b9190612c27565b60405180910390f35b34801561046f575f80fd5b50610478610c63565b6040516104859190612adf565b60405180910390f35b348015610499575f80fd5b506104b460048036038101906104af9190612bce565b610c87565b005b3480156104c1575f80fd5b506104dc60048036038101906104d79190612c40565b610d02565b005b3480156104e9575f80fd5b506104f2610d38565b005b3480156104ff575f80fd5b5061051a60048036038101906105159190612c40565b610fc4565b005b348015610527575f80fd5b50610542600480360381019061053d9190612c40565b610ffa565b005b34801561054f575f80fd5b5061055861102f565b005b348015610565575f80fd5b5061056e6110a7565b005b34801561057b575f80fd5b5061059660048036038101906105919190612c40565b611120565b6040516105a39190612adf565b60405180910390f35b3480156105b7575f80fd5b506105c0611165565b005b3480156105cd575f80fd5b506105e860048036038101906105e39190612c6b565b611178565b6040516105f59190612adf565b60405180910390f35b348015610609575f80fd5b50610624600480360381019061061f9190612a19565b611198565b005b348015610631575f80fd5b5061063a6112fa565b6040516106479190612adf565b60405180910390f35b34801561065b575f80fd5b5061066461132a565b6040516106719190612adf565b60405180910390f35b348015610685575f80fd5b506106a0600480360381019061069b9190612a19565b61134d565b005b3480156106ad575f80fd5b506106b6611524565b6040516106c39190612ca5565b60405180910390f35b3480156106d7575f80fd5b506106f260048036038101906106ed9190612bce565b61154c565b6040516106ff91906128c9565b60405180910390f35b348015610713575f80fd5b5061071c6115b0565b604051610729919061296c565b60405180910390f35b34801561073d575f80fd5b50610746611640565b6040516107539190612bb5565b60405180910390f35b348015610767575f80fd5b50610782600480360381019061077d9190612a19565b611646565b60405161078f91906128c9565b60405180910390f35b3480156107a3575f80fd5b506107be60048036038101906107b99190612c40565b611668565b005b3480156107cb575f80fd5b506107e660048036038101906107e19190612af8565b61169d565b005b3480156107f3575f80fd5b506107fc6117a8565b6040516108099190612bb5565b60405180910390f35b34801561081d575f80fd5b5061083860048036038101906108339190612cbe565b6117cc565b005b348015610845575f80fd5b50610860600480360381019061085b9190612ce9565b61191e565b005b34801561086d575f80fd5b50610876611ae6565b6040516108839190612bb5565b60405180910390f35b348015610897575f80fd5b506108b260048036038101906108ad9190612bce565b611b0a565b005b3480156108bf575f80fd5b506108da60048036038101906108d59190612ce9565b611b2c565b6040516108e79190612adf565b60405180910390f35b3480156108fb575f80fd5b50610904611bae565b60405161091191906128c9565b60405180910390f35b348015610925575f80fd5b50610940600480360381019061093b9190612c40565b611bc0565b005b5f7f7965db0b000000000000000000000000000000000000000000000000000000007bffffffffffffffffffffffffffffffffffffffffffffffffffffffff1916827bffffffffffffffffffffffffffffffffffffffffffffffffffffffff191614806109b457506109b382611c44565b5b9050919050565b6060600380546109ca90612d54565b80601f01602080910402602001604051908101604052809291908181526020018280546109f690612d54565b8015610a415780601f10610a1857610100808354040283529160200191610a41565b820191905f5260205f20905b815481529060010190602001808311610a2457829003601f168201915b5050505050905090565b5f80610a55611cad565b9050610a62818585611cb4565b600191505092915050565b610a75611cc6565b5f73ffffffffffffffffffffffffffffffffffffffff168273ffffffffffffffffffffffffffffffffffffffff1603610ae3576040517f08c379a0000000000000000000000000000000000000000000000000000000008152600401610ada90612dce565b60405180910390fd5b47811115610b26576040517f08c379a0000000000000000000000000000000000000000000000000000000008152600401610b1d90612e36565b60405180910390fd5b8173ffffffffffffffffffffffffffffffffffffffff166108fc8290811502906040515f60405180830381858888f19350505050158015610b69573d5f803e3d5ffd5b508173ffffffffffffffffffffffffffffffffffffffff167fe3eb98b7fe2a0c1d490b92af73eeae611e9b00ab3c3f70b20bd7bb43f67a0f4382604051610bb09190612adf565b60405180910390a25050565b5f600254905090565b5f80610bcf611cad565b9050610bdc858285611d4d565b610be7858585611de0565b60019150509392505050565b5f60055f8381526020019081526020015f20600101549050919050565b60085481565b610c1f82610bf3565b610c2881611ed0565b610c328383611ee4565b50505050565b601260ff16600a610c499190612fb0565b633b9aca00610c589190612ffa565b81565b5f6012905090565b601260ff16600a610c749190612fb0565b6402540be400610c849190612ffa565b81565b610c8f611cad565b73ffffffffffffffffffffffffffffffffffffffff168173ffffffffffffffffffffffffffffffffffffffff1614610cf3576040517f6697b23200000000000000000000000000000000000000000000000000000000815260040160405180910390fd5b610cfd8282611fce565b505050565b610d0a611cc6565b610d347f9f2df0fed2c77648de5860a4cc508cd0818c85b8b8a1ab4ceeef8d981c8956a682611ee4565b5050565b7f9f2df0fed2c77648de5860a4cc508cd0818c85b8b8a1ab4ceeef8d981c8956a6610d6281611ed0565b60095f9054906101000a900460ff1615610db1576040517f08c379a0000000000000000000000000000000000000000000000000000000008152600401610da890613085565b60405180910390fd5b60078054905060085410610dfa576040517f08c379a0000000000000000000000000000000000000000000000000000000008152600401610df1906130ed565b60405180910390fd5b5f600760085481548110610e1157610e1061310b565b5b905f5260205f200154905080421015610e5f576040517f08c379a0000000000000000000000000000000000000000000000000000000008152600401610e56906131a8565b60405180910390fd5b5f610e68610bbc565b9050601260ff16600a610e7b9190612fb0565b6402540be400610e8b9190612ffa565b601260ff16600a610e9c9190612fb0565b633b9aca00610eab9190612ffa565b82610eb691906131c6565b1115610ef7576040517f08c379a0000000000000000000000000000000000000000000000000000000008152600401610eee90613243565b60405180910390fd5b610f27610f02611524565b601260ff16600a610f139190612fb0565b633b9aca00610f229190612ffa565b6120b8565b610f2f611524565b73ffffffffffffffffffffffffffffffffffffffff167f0e8cced2832690b941c3b15ac00e7e0ce2d3aa09000cd7535508c9221c1060c7601260ff16600a610f779190612fb0565b633b9aca00610f869190612ffa565b42610f8f610bbc565b604051610f9e93929190613261565b60405180910390a2600160085f828254610fb891906131c6565b92505081905550505050565b610fcc611cc6565b610ff67f52ba824bfabc2bcfcdf7f0edbb486ebb05e1836c90e78047efeb949990f72e5f82611ee4565b5050565b611002611cc6565b61102c7f9f2df0fed2c77648de5860a4cc508cd0818c85b8b8a1ab4ceeef8d981c8956a682611b0a565b50565b611037611cc6565b5f60095f6101000a81548160ff021916908315150217905550611058611cad565b73ffffffffffffffffffffffffffffffffffffffff167ff036a640940749aa9c9995beee1b92af0e81c4146443ca049f1a71e9db3b97454260405161109d9190612adf565b60405180910390a2565b6110af611cc6565b600160095f6101000a81548160ff0219169083151502179055506110d1611cad565b73ffffffffffffffffffffffffffffffffffffffff167fcec7eb7d76573077d1643cfbea3f1e4da629bbd107e59871677e581159210056426040516111169190612adf565b60405180910390a2565b5f805f8373ffffffffffffffffffffffffffffffffffffffff1673ffffffffffffffffffffffffffffffffffffffff1681526020019081526020015f20549050919050565b61116d611cc6565b6111765f612137565b565b60078181548110611187575f80fd5b905f5260205f20015f915090505481565b7f52ba824bfabc2bcfcdf7f0edbb486ebb05e1836c90e78047efeb949990f72e5f6111c281611ed0565b60095f9054906101000a900460ff1615611211576040517f08c379a000000000000000000000000000000000000000000000000000000000815260040161120890613085565b60405180910390fd5b5f73ffffffffffffffffffffffffffffffffffffffff168373ffffffffffffffffffffffffffffffffffffffff160361127f576040517f08c379a0000000000000000000000000000000000000000000000000000000008152600401611276906132e0565b60405180910390fd5b61128983836121fa565b611291611cad565b73ffffffffffffffffffffffffffffffffffffffff168373ffffffffffffffffffffffffffffffffffffffff167f32f9b14980d51f40ba4119c33daf3d6700e0ed2820178703454e311da0c58a73846040516112ed9190612adf565b60405180910390a3505050565b5f60078054905060085410611311575f9050611327565b60085460078054905061132491906132fe565b90505b90565b601260ff16600a61133b9190612fb0565b633b9aca0061134a9190612ffa565b81565b7f52ba824bfabc2bcfcdf7f0edbb486ebb05e1836c90e78047efeb949990f72e5f61137781611ed0565b60095f9054906101000a900460ff16156113c6576040517f08c379a00000000000000000000000000000000000000000000000000000000081526004016113bd90613085565b60405180910390fd5b5f73ffffffffffffffffffffffffffffffffffffffff168373ffffffffffffffffffffffffffffffffffffffff1603611434576040517f08c379a000000000000000000000000000000000000000000000000000000000815260040161142b9061337b565b60405180910390fd5b601260ff16600a6114459190612fb0565b6402540be4006114559190612ffa565b8261145e610bbc565b61146891906131c6565b11156114a9576040517f08c379a00000000000000000000000000000000000000000000000000000000081526004016114a090613243565b60405180910390fd5b6114b383836120b8565b6114bb611cad565b73ffffffffffffffffffffffffffffffffffffffff168373ffffffffffffffffffffffffffffffffffffffff167f0c6c954b09524700ccc368d1fac1e0623fc58bb1b87083f807332fe19f667dbe846040516115179190612adf565b60405180910390a3505050565b5f60065f9054906101000a900473ffffffffffffffffffffffffffffffffffffffff16905090565b5f60055f8481526020019081526020015f205f015f8373ffffffffffffffffffffffffffffffffffffffff1673ffffffffffffffffffffffffffffffffffffffff1681526020019081526020015f205f9054906101000a900460ff16905092915050565b6060600480546115bf90612d54565b80601f01602080910402602001604051908101604052809291908181526020018280546115eb90612d54565b80156116365780601f1061160d57610100808354040283529160200191611636565b820191905f5260205f20905b81548152906001019060200180831161161957829003601f168201915b5050505050905090565b5f801b81565b5f80611650611cad565b905061165d818585611de0565b600191505092915050565b611670611cc6565b61169a7f52ba824bfabc2bcfcdf7f0edbb486ebb05e1836c90e78047efeb949990f72e5f82611b0a565b50565b6116a5611cc6565b5f73ffffffffffffffffffffffffffffffffffffffff168273ffffffffffffffffffffffffffffffffffffffff1603611713576040517f08c379a000000000000000000000000000000000000000000000000000000000815260040161170a90612dce565b60405180910390fd5b61173e82828573ffffffffffffffffffffffffffffffffffffffff166122799092919063ffffffff16565b8173ffffffffffffffffffffffffffffffffffffffff168373ffffffffffffffffffffffffffffffffffffffff167f4143f7b5cb6ea007914c32b8a3e64cebc051d7f493fa0755454da1e47701e1258360405161179b9190612adf565b60405180910390a3505050565b7f52ba824bfabc2bcfcdf7f0edbb486ebb05e1836c90e78047efeb949990f72e5f81565b6117d4611cc6565b5f73ffffffffffffffffffffffffffffffffffffffff168173ffffffffffffffffffffffffffffffffffffffff1603611842576040517f08c379a000000000000000000000000000000000000000000000000000000000815260040161183990612dce565b60405180910390fd5b5f4790505f8111611888576040517f08c379a000000000000000000000000000000000000000000000000000000000815260040161187f906133e3565b60405180910390fd5b8173ffffffffffffffffffffffffffffffffffffffff166108fc8290811502906040515f60405180830381858888f193505050501580156118cb573d5f803e3d5ffd5b508173ffffffffffffffffffffffffffffffffffffffff167fe3eb98b7fe2a0c1d490b92af73eeae611e9b00ab3c3f70b20bd7bb43f67a0f43826040516119129190612adf565b60405180910390a25050565b611926611cc6565b5f73ffffffffffffffffffffffffffffffffffffffff168173ffffffffffffffffffffffffffffffffffffffff1603611994576040517f08c379a000000000000000000000000000000000000000000000000000000000815260040161198b90612dce565b60405180910390fd5b5f8273ffffffffffffffffffffffffffffffffffffffff166370a08231306040518263ffffffff1660e01b81526004016119ce9190612ca5565b602060405180830381865afa1580156119e9573d5f803e3d5ffd5b505050506040513d601f19601f82011682018060405250810190611a0d9190613415565b90505f8111611a51576040517f08c379a0000000000000000000000000000000000000000000000000000000008152600401611a48906133e3565b60405180910390fd5b611a7c82828573ffffffffffffffffffffffffffffffffffffffff166122799092919063ffffffff16565b8173ffffffffffffffffffffffffffffffffffffffff168373ffffffffffffffffffffffffffffffffffffffff167f4143f7b5cb6ea007914c32b8a3e64cebc051d7f493fa0755454da1e47701e12583604051611ad99190612adf565b60405180910390a3505050565b7f9f2df0fed2c77648de5860a4cc508cd0818c85b8b8a1ab4ceeef8d981c8956a681565b611b1382610bf3565b611b1c81611ed0565b611b268383611fce565b50505050565b5f60015f8473ffffffffffffffffffffffffffffffffffffffff1673ffffffffffffffffffffffffffffffffffffffff1681526020019081526020015f205f8373ffffffffffffffffffffffffffffffffffffffff1673ffffffffffffffffffffffffffffffffffffffff1681526020019081526020015f2054905092915050565b60095f9054906101000a900460ff1681565b611bc8611cc6565b5f73ffffffffffffffffffffffffffffffffffffffff168173ffffffffffffffffffffffffffffffffffffffff1603611c38575f6040517f1e4fbdf7000000000000000000000000000000000000000000000000000000008152600401611c2f9190612ca5565b60405180910390fd5b611c4181612137565b50565b5f7f01ffc9a7000000000000000000000000000000000000000000000000000000007bffffffffffffffffffffffffffffffffffffffffffffffffffffffff1916827bffffffffffffffffffffffffffffffffffffffffffffffffffffffff1916149050919050565b5f33905090565b611cc183838360016122f8565b505050565b611cce611cad565b73ffffffffffffffffffffffffffffffffffffffff16611cec611524565b73ffffffffffffffffffffffffffffffffffffffff1614611d4b57611d0f611cad565b6040517f118cdaa7000000000000000000000000000000000000000000000000000000008152600401611d429190612ca5565b60405180910390fd5b565b5f611d588484611b2c565b90507fffffffffffffffffffffffffffffffffffffffffffffffffffffffffffffffff811015611dda5781811015611dcb578281836040517ffb8f41b2000000000000000000000000000000000000000000000000000000008152600401611dc293929190613440565b60405180910390fd5b611dd984848484035f6122f8565b5b50505050565b5f73ffffffffffffffffffffffffffffffffffffffff168373ffffffffffffffffffffffffffffffffffffffff1603611e50575f6040517f96c6fd1e000000000000000000000000000000000000000000000000000000008152600401611e479190612ca5565b60405180910390fd5b5f73ffffffffffffffffffffffffffffffffffffffff168273ffffffffffffffffffffffffffffffffffffffff1603611ec0575f6040517fec442f05000000000000000000000000000000000000000000000000000000008152600401611eb79190612ca5565b60405180910390fd5b611ecb8383836124c7565b505050565b611ee181611edc611cad565b612526565b50565b5f611eef838361154c565b611fc457600160055f8581526020019081526020015f205f015f8473ffffffffffffffffffffffffffffffffffffffff1673ffffffffffffffffffffffffffffffffffffffff1681526020019081526020015f205f6101000a81548160ff021916908315150217905550611f61611cad565b73ffffffffffffffffffffffffffffffffffffffff168273ffffffffffffffffffffffffffffffffffffffff16847f2f8788117e7eff1d82e926ec794901d17c78024a50270940304540a733656f0d60405160405180910390a460019050611fc8565b5f90505b92915050565b5f611fd9838361154c565b156120ae575f60055f8581526020019081526020015f205f015f8473ffffffffffffffffffffffffffffffffffffffff1673ffffffffffffffffffffffffffffffffffffffff1681526020019081526020015f205f6101000a81548160ff02191690831515021790555061204b611cad565b73ffffffffffffffffffffffffffffffffffffffff168273ffffffffffffffffffffffffffffffffffffffff16847ff6391f5c32d9c69d2a47ea670b442974b53935d1edc7fd64eb21e047a839171b60405160405180910390a4600190506120b2565b5f90505b92915050565b5f73ffffffffffffffffffffffffffffffffffffffff168273ffffffffffffffffffffffffffffffffffffffff1603612128575f6040517fec442f0500000000000000000000000000000000000000000000000000000000815260040161211f9190612ca5565b60405180910390fd5b6121335f83836124c7565b5050565b5f60065f9054906101000a900473ffffffffffffffffffffffffffffffffffffffff1690508160065f6101000a81548173ffffffffffffffffffffffffffffffffffffffff021916908373ffffffffffffffffffffffffffffffffffffffff1602179055508173ffffffffffffffffffffffffffffffffffffffff168173ffffffffffffffffffffffffffffffffffffffff167f8be0079c531659141344cd1fd0a4f28419497f9722a3daafe3b4186f6b6457e060405160405180910390a35050565b5f73ffffffffffffffffffffffffffffffffffffffff168273ffffffffffffffffffffffffffffffffffffffff160361226a575f6040517f96c6fd1e0000000000000000000000000000000000000000000000000000000081526004016122619190612ca5565b60405180910390fd5b612275825f836124c7565b5050565b6122f3838473ffffffffffffffffffffffffffffffffffffffff1663a9059cbb85856040516024016122ac929190613475565b604051602081830303815290604052915060e01b6020820180517bffffffffffffffffffffffffffffffffffffffffffffffffffffffff8381831617835250505050612577565b505050565b5f73ffffffffffffffffffffffffffffffffffffffff168473ffffffffffffffffffffffffffffffffffffffff1603612368575f6040517fe602df0500000000000000000000000000000000000000000000000000000000815260040161235f9190612ca5565b60405180910390fd5b5f73ffffffffffffffffffffffffffffffffffffffff168373ffffffffffffffffffffffffffffffffffffffff16036123d8575f6040517f94280d620000000000000000000000000000000000000000000000000000000081526004016123cf9190612ca5565b60405180910390fd5b8160015f8673ffffffffffffffffffffffffffffffffffffffff1673ffffffffffffffffffffffffffffffffffffffff1681526020019081526020015f205f8573ffffffffffffffffffffffffffffffffffffffff1673ffffffffffffffffffffffffffffffffffffffff1681526020019081526020015f208190555080156124c1578273ffffffffffffffffffffffffffffffffffffffff168473ffffffffffffffffffffffffffffffffffffffff167f8c5be1e5ebec7d5bd14f71427d1e84f3dd0314c0f7b2291e5b200ac8c7c3b925846040516124b89190612adf565b60405180910390a35b50505050565b60095f9054906101000a900460ff1615612516576040517f08c379a000000000000000000000000000000000000000000000000000000000815260040161250d90613085565b60405180910390fd5b612521838383612612565b505050565b612530828261154c565b6125735780826040517fe2517d3f00000000000000000000000000000000000000000000000000000000815260040161256a92919061349c565b60405180910390fd5b5050565b5f8060205f8451602086015f885af180612596576040513d5f823e3d81fd5b3d92505f519150505f82146125af5760018114156125ca565b5f8473ffffffffffffffffffffffffffffffffffffffff163b145b1561260c57836040517f5274afe70000000000000000000000000000000000000000000000000000000081526004016126039190612ca5565b60405180910390fd5b50505050565b5f73ffffffffffffffffffffffffffffffffffffffff168373ffffffffffffffffffffffffffffffffffffffff1603612662578060025f82825461265691906131c6565b92505081905550612730565b5f805f8573ffffffffffffffffffffffffffffffffffffffff1673ffffffffffffffffffffffffffffffffffffffff1681526020019081526020015f20549050818110156126eb578381836040517fe450d38c0000000000000000000000000000000000000000000000000000000081526004016126e293929190613440565b60405180910390fd5b8181035f808673ffffffffffffffffffffffffffffffffffffffff1673ffffffffffffffffffffffffffffffffffffffff1681526020019081526020015f2081905550505b5f73ffffffffffffffffffffffffffffffffffffffff168273ffffffffffffffffffffffffffffffffffffffff1603612777578060025f82825403925050819055506127c1565b805f808473ffffffffffffffffffffffffffffffffffffffff1673ffffffffffffffffffffffffffffffffffffffff1681526020019081526020015f205f82825401925050819055505b8173ffffffffffffffffffffffffffffffffffffffff168373ffffffffffffffffffffffffffffffffffffffff167fddf252ad1be2c89b69c2b068fc378daa952ba7f163c4a11628f55a4df523b3ef8360405161281e9190612adf565b60405180910390a3505050565b5f80fd5b5f7fffffffff0000000000000000000000000000000000000000000000000000000082169050919050565b6128638161282f565b811461286d575f80fd5b50565b5f8135905061287e8161285a565b92915050565b5f602082840312156128995761289861282b565b5b5f6128a684828501612870565b91505092915050565b5f8115159050919050565b6128c3816128af565b82525050565b5f6020820190506128dc5f8301846128ba565b92915050565b5f81519050919050565b5f82825260208201905092915050565b5f5b838110156129195780820151818401526020810190506128fe565b5f8484015250505050565b5f601f19601f8301169050919050565b5f61293e826128e2565b61294881856128ec565b93506129588185602086016128fc565b61296181612924565b840191505092915050565b5f6020820190508181035f8301526129848184612934565b905092915050565b5f73ffffffffffffffffffffffffffffffffffffffff82169050919050565b5f6129b58261298c565b9050919050565b6129c5816129ab565b81146129cf575f80fd5b50565b5f813590506129e0816129bc565b92915050565b5f819050919050565b6129f8816129e6565b8114612a02575f80fd5b50565b5f81359050612a13816129ef565b92915050565b5f8060408385031215612a2f57612a2e61282b565b5b5f612a3c858286016129d2565b9250506020612a4d85828601612a05565b9150509250929050565b5f612a618261298c565b9050919050565b612a7181612a57565b8114612a7b575f80fd5b50565b5f81359050612a8c81612a68565b92915050565b5f8060408385031215612aa857612aa761282b565b5b5f612ab585828601612a7e565b9250506020612ac685828601612a05565b9150509250929050565b612ad9816129e6565b82525050565b5f602082019050612af25f830184612ad0565b92915050565b5f805f60608486031215612b0f57612b0e61282b565b5b5f612b1c868287016129d2565b9350506020612b2d868287016129d2565b9250506040612b3e86828701612a05565b9150509250925092565b5f819050919050565b612b5a81612b48565b8114612b64575f80fd5b50565b5f81359050612b7581612b51565b92915050565b5f60208284031215612b9057612b8f61282b565b5b5f612b9d84828501612b67565b91505092915050565b612baf81612b48565b82525050565b5f602082019050612bc85f830184612ba6565b92915050565b5f8060408385031215612be457612be361282b565b5b5f612bf185828601612b67565b9250506020612c02858286016129d2565b9150509250929050565b5f60ff82169050919050565b612c2181612c0c565b82525050565b5f602082019050612c3a5f830184612c18565b92915050565b5f60208284031215612c5557612c5461282b565b5b5f612c62848285016129d2565b91505092915050565b5f60208284031215612c8057612c7f61282b565b5b5f612c8d84828501612a05565b91505092915050565b612c9f816129ab565b82525050565b5f602082019050612cb85f830184612c96565b92915050565b5f60208284031215612cd357612cd261282b565b5b5f612ce084828501612a7e565b91505092915050565b5f8060408385031215612cff57612cfe61282b565b5b5f612d0c858286016129d2565b9250506020612d1d858286016129d2565b9150509250929050565b7f4e487b71000000000000000000000000000000000000000000000000000000005f52602260045260245ffd5b5f6002820490506001821680612d6b57607f821691505b602082108103612d7e57612d7d612d27565b5b50919050565b7f544947473a20746f207a65726f000000000000000000000000000000000000005f82015250565b5f612db8600d836128ec565b9150612dc382612d84565b602082019050919050565b5f6020820190508181035f830152612de581612dac565b9050919050565b7f544947473a20696e73756666696369656e742062616c616e63650000000000005f82015250565b5f612e20601a836128ec565b9150612e2b82612dec565b602082019050919050565b5f6020820190508181035f830152612e4d81612e14565b9050919050565b7f4e487b71000000000000000000000000000000000000000000000000000000005f52601160045260245ffd5b5f8160011c9050919050565b5f808291508390505b6001851115612ed657808604811115612eb257612eb1612e54565b5b6001851615612ec15780820291505b8081029050612ecf85612e81565b9450612e96565b94509492505050565b5f82612eee5760019050612fa9565b81612efb575f9050612fa9565b8160018114612f115760028114612f1b57612f4a565b6001915050612fa9565b60ff841115612f2d57612f2c612e54565b5b8360020a915084821115612f4457612f43612e54565b5b50612fa9565b5060208310610133831016604e8410600b8410161715612f7f5782820a905083811115612f7a57612f79612e54565b5b612fa9565b612f8c8484846001612e8d565b92509050818404811115612fa357612fa2612e54565b5b81810290505b9392505050565b5f612fba826129e6565b9150612fc5836129e6565b9250612ff27fffffffffffffffffffffffffffffffffffffffffffffffffffffffffffffffff8484612edf565b905092915050565b5f613004826129e6565b915061300f836129e6565b925082820261301d816129e6565b9150828204841483151761303457613033612e54565b5b5092915050565b7f544947473a20656d657267656e63792073746f707065640000000000000000005f82015250565b5f61306f6017836128ec565b915061307a8261303b565b602082019050919050565b5f6020820190508181035f83015261309c81613063565b9050919050565b7f544947473a206e6f207363686564756c6564206d696e7473206c6566740000005f82015250565b5f6130d7601d836128ec565b91506130e2826130a3565b602082019050919050565b5f6020820190508181035f830152613104816130cb565b9050919050565b7f4e487b71000000000000000000000000000000000000000000000000000000005f52603260045260245ffd5b7f544947473a207363686564756c6564206d696e74206e6f7420796574206176615f8201527f696c61626c650000000000000000000000000000000000000000000000000000602082015250565b5f6131926026836128ec565b915061319d82613138565b604082019050919050565b5f6020820190508181035f8301526131bf81613186565b9050919050565b5f6131d0826129e6565b91506131db836129e6565b92508282019050808211156131f3576131f2612e54565b5b92915050565b7f544947473a206d617820737570706c79206578636565646564000000000000005f82015250565b5f61322d6019836128ec565b9150613238826131f9565b602082019050919050565b5f6020820190508181035f83015261325a81613221565b9050919050565b5f6060820190506132745f830186612ad0565b6132816020830185612ad0565b61328e6040830184612ad0565b949350505050565b7f544947473a206275726e2066726f6d207a65726f0000000000000000000000005f82015250565b5f6132ca6014836128ec565b91506132d582613296565b602082019050919050565b5f6020820190508181035f8301526132f7816132be565b9050919050565b5f613308826129e6565b9150613313836129e6565b925082820390508181111561332b5761332a612e54565b5b92915050565b7f544947473a206d696e7420746f207a65726f00000000000000000000000000005f82015250565b5f6133656012836128ec565b915061337082613331565b602082019050919050565b5f6020820190508181035f83015261339281613359565b9050919050565b7f544947473a207a65726f2062616c616e636500000000000000000000000000005f82015250565b5f6133cd6012836128ec565b91506133d882613399565b602082019050919050565b5f6020820190508181035f8301526133fa816133c1565b9050919050565b5f8151905061340f816129ef565b92915050565b5f6020828403121561342a5761342961282b565b5b5f61343784828501613401565b91505092915050565b5f6060820190506134535f830186612c96565b6134606020830185612ad0565b61346d6040830184612ad0565b949350505050565b5f6040820190506134885f830185612c96565b6134956020830184612ad0565b9392505050565b5f6040820190506134af5f830185612c96565b6134bc6020830184612ba6565b939250505056fea26469706673582212208615976ba76c49de2a54cd95e45f97ab4fc7a8c8abe4b92b29d10005f12dcf2564736f6c63430008180033",
		"opcodes": "PUSH1 0x80 PUSH1 0x40 MSTORE PUSH0 PUSH1 0x8 SSTORE PUSH0 PUSH1 0x9 PUSH0 PUSH2 0x100 EXP DUP2 SLOAD DUP2 PUSH1 0xFF MUL NOT AND SWAP1 DUP4 ISZERO ISZERO MUL OR SWAP1 SSTORE POP CALLVALUE DUP1 ISZERO PUSH3 0x2D JUMPI PUSH0 DUP1 REVERT JUMPDEST POP CALLER PUSH1 0x40 MLOAD DUP1 PUSH1 0x40 ADD PUSH1 0x40 MSTORE DUP1 PUSH1 0x8 DUP2 MSTORE PUSH1 0x20 ADD PUSH32 0x54494747434F494E000000000000000000000000000000000000000000000000 DUP2 MSTORE POP PUSH1 0x40 MLOAD DUP1 PUSH1 0x40 ADD PUSH1 0x40 MSTORE DUP1 PUSH1 0x4 DUP2 MSTORE PUSH1 0x20 ADD PUSH32 0x5449474700000000000000000000000000000000000000000000000000000000 DUP2 MSTORE POP DUP2 PUSH1 0x3 SWAP1 DUP2 PUSH3 0xAC SWAP2 SWAP1 PUSH3 0xBE7 JUMP JUMPDEST POP DUP1 PUSH1 0x4 SWAP1 DUP2 PUSH3 0xBE SWAP2 SWAP1 PUSH3 0xBE7 JUMP JUMPDEST POP POP POP PUSH0 PUSH20 0xFFFFFFFFFFFFFFFFFFFFFFFFFFFFFFFFFFFFFFFF AND DUP2 PUSH20 0xFFFFFFFFFFFFFFFFFFFFFFFFFFFFFFFFFFFFFFFF AND SUB PUSH3 0x134 JUMPI PUSH0 PUSH1 0x40 MLOAD PUSH32 0x1E4FBDF700000000000000000000000000000000000000000000000000000000 DUP2 MSTORE PUSH1 0x4 ADD PUSH3 0x12B SWAP2 SWAP1 PUSH3 0xD0E JUMP JUMPDEST PUSH1 0x40 MLOAD DUP1 SWAP2 SUB SWAP1 REVERT JUMPDEST PUSH3 0x145 DUP2 PUSH3 0x441 PUSH1 0x20 SHL PUSH1 0x20 SHR JUMP JUMPDEST POP PUSH3 0x169 PUSH0 DUP1 SHL PUSH3 0x15D PUSH3 0x504 PUSH1 0x20 SHL PUSH1 0x20 SHR JUMP JUMPDEST PUSH3 0x50B PUSH1 0x20 SHL PUSH1 0x20 SHR JUMP JUMPDEST POP PUSH3 0x1AB PUSH32 0x9F2DF0FED2C77648DE5860A4CC508CD0818C85B8B8A1AB4CEEEF8D981C8956A6 PUSH3 0x19F PUSH3 0x504 PUSH1 0x20 SHL PUSH1 0x20 SHR JUMP JUMPDEST PUSH3 0x50B PUSH1 0x20 SHL PUSH1 0x20 SHR JUMP JUMPDEST POP PUSH3 0x1ED PUSH32 0x52BA824BFABC2BCFCDF7F0EDBB486EBB05E1836C90E78047EFEB949990F72E5F PUSH3 0x1E1 PUSH3 0x504 PUSH1 0x20 SHL PUSH1 0x20 SHR JUMP JUMPDEST PUSH3 0x50B PUSH1 0x20 SHL PUSH1 0x20 SHR JUMP JUMPDEST POP PUSH3 0x232 PUSH3 0x202 PUSH3 0x504 PUSH1 0x20 SHL PUSH1 0x20 SHR JUMP JUMPDEST PUSH1 0x12 PUSH1 0xFF AND PUSH1 0xA PUSH3 0x215 SWAP2 SWAP1 PUSH3 0xEA6 JUMP JUMPDEST PUSH4 0x3B9ACA00 PUSH3 0x226 SWAP2 SWAP1 PUSH3 0xEF6 JUMP JUMPDEST PUSH3 0x607 PUSH1 0x20 SHL PUSH1 0x20 SHR JUMP JUMPDEST PUSH1 0x7 PUSH4 0x72427080 SWAP1 DUP1 PUSH1 0x1 DUP2 SLOAD ADD DUP1 DUP3 SSTORE DUP1 SWAP2 POP POP PUSH1 0x1 SWAP1 SUB SWAP1 PUSH0 MSTORE PUSH1 0x20 PUSH0 KECCAK256 ADD PUSH0 SWAP1 SWAP2 SWAP1 SWAP2 SWAP1 SWAP2 POP SSTORE PUSH1 0x7 PUSH4 0x7BA9C380 SWAP1 DUP1 PUSH1 0x1 DUP2 SLOAD ADD DUP1 DUP3 SSTORE DUP1 SWAP2 POP POP PUSH1 0x1 SWAP1 SUB SWAP1 PUSH0 MSTORE PUSH1 0x20 PUSH0 KECCAK256 ADD PUSH0 SWAP1 SWAP2 SWAP1 SWAP2 SWAP1 SWAP2 POP SSTORE PUSH1 0x7 PUSH4 0x85126800 SWAP1 DUP1 PUSH1 0x1 DUP2 SLOAD ADD DUP1 DUP3 SSTORE DUP1 SWAP2 POP POP PUSH1 0x1 SWAP1 SUB SWAP1 PUSH0 MSTORE PUSH1 0x20 PUSH0 KECCAK256 ADD PUSH0 SWAP1 SWAP2 SWAP1 SWAP2 SWAP1 SWAP2 POP SSTORE PUSH1 0x7 PUSH4 0x8E79BB00 SWAP1 DUP1 PUSH1 0x1 DUP2 SLOAD ADD DUP1 DUP3 SSTORE DUP1 SWAP2 POP POP PUSH1 0x1 SWAP1 SUB SWAP1 PUSH0 MSTORE PUSH1 0x20 PUSH0 KECCAK256 ADD PUSH0 SWAP1 SWAP2 SWAP1 SWAP2 SWAP1 SWAP2 POP SSTORE PUSH1 0x7 PUSH4 0x97E10E00 SWAP1 DUP1 PUSH1 0x1 DUP2 SLOAD ADD DUP1 DUP3 SSTORE DUP1 SWAP2 POP POP PUSH1 0x1 SWAP1 SUB SWAP1 PUSH0 MSTORE PUSH1 0x20 PUSH0 KECCAK256 ADD PUSH0 SWAP1 SWAP2 SWAP1 SWAP2 SWAP1 SWAP2 POP SSTORE PUSH1 0x7 PUSH4 0xA1486100 SWAP1 DUP1 PUSH1 0x1 DUP2 SLOAD ADD DUP1 DUP3 SSTORE DUP1 SWAP2 POP POP PUSH1 0x1 SWAP1 SUB SWAP1 PUSH0 MSTORE PUSH1 0x20 PUSH0 KECCAK256 ADD PUSH0 SWAP1 SWAP2 SWAP1 SWAP2 SWAP1 SWAP2 POP SSTORE PUSH1 0x7 PUSH4 0xAAB10580 SWAP1 DUP1 PUSH1 0x1 DUP2 SLOAD ADD DUP1 DUP3 SSTORE DUP1 SWAP2 POP POP PUSH1 0x1 SWAP1 SUB SWAP1 PUSH0 MSTORE PUSH1 0x20 PUSH0 KECCAK256 ADD PUSH0 SWAP1 SWAP2 SWAP1 SWAP2 SWAP1 SWAP2 POP SSTORE PUSH1 0x7 PUSH4 0xB4185880 SWAP1 DUP1 PUSH1 0x1 DUP2 SLOAD ADD DUP1 DUP3 SSTORE DUP1 SWAP2 POP POP PUSH1 0x1 SWAP1 SUB SWAP1 PUSH0 MSTORE PUSH1 0x20 PUSH0 KECCAK256 ADD PUSH0 SWAP1 SWAP2 SWAP1 SWAP2 SWAP1 SWAP2 POP SSTORE PUSH1 0x7 PUSH4 0xBD7FAB80 SWAP1 DUP1 PUSH1 0x1 DUP2 SLOAD ADD DUP1 DUP3 SSTORE DUP1 SWAP2 POP POP PUSH1 0x1 SWAP1 SUB SWAP1 PUSH0 MSTORE PUSH1 0x20 PUSH0 KECCAK256 ADD PUSH0 SWAP1 SWAP2 SWAP1 SWAP2 SWAP1 SWAP2 POP SSTORE PUSH0 JUMPDEST PUSH1 0x7 DUP1 SLOAD SWAP1 POP DUP2 LT ISZERO PUSH3 0x43A JUMPI PUSH1 0x7 DUP2 DUP2 SLOAD DUP2 LT PUSH3 0x3D3 JUMPI PUSH3 0x3D2 PUSH3 0xF40 JUMP JUMPDEST JUMPDEST SWAP1 PUSH0 MSTORE PUSH1 0x20 PUSH0 KECCAK256 ADD SLOAD PUSH1 0x12 PUSH1 0xFF AND PUSH1 0xA PUSH3 0x3EF SWAP2 SWAP1 PUSH3 0xEA6 JUMP JUMPDEST PUSH4 0x3B9ACA00 PUSH3 0x400 SWAP2 SWAP1 PUSH3 0xEF6 JUMP JUMPDEST PUSH32 0xEC75C0CDD7EFCD5139001FDFFDE4379B216BA5AEF028769704362FEE1EC2D1FB PUSH1 0x40 MLOAD PUSH1 0x40 MLOAD DUP1 SWAP2 SUB SWAP1 LOG3 DUP1 DUP1 PUSH1 0x1 ADD SWAP2 POP POP PUSH3 0x3AE JUMP JUMPDEST POP PUSH3 0x108C JUMP JUMPDEST PUSH0 PUSH1 0x6 PUSH0 SWAP1 SLOAD SWAP1 PUSH2 0x100 EXP SWAP1 DIV PUSH20 0xFFFFFFFFFFFFFFFFFFFFFFFFFFFFFFFFFFFFFFFF AND SWAP1 POP DUP2 PUSH1 0x6 PUSH0 PUSH2 0x100 EXP DUP2 SLOAD DUP2 PUSH20 0xFFFFFFFFFFFFFFFFFFFFFFFFFFFFFFFFFFFFFFFF MUL NOT AND SWAP1 DUP4 PUSH20 0xFFFFFFFFFFFFFFFFFFFFFFFFFFFFFFFFFFFFFFFF AND MUL OR SWAP1 SSTORE POP DUP2 PUSH20 0xFFFFFFFFFFFFFFFFFFFFFFFFFFFFFFFFFFFFFFFF AND DUP2 PUSH20 0xFFFFFFFFFFFFFFFFFFFFFFFFFFFFFFFFFFFFFFFF AND PUSH32 0x8BE0079C531659141344CD1FD0A4F28419497F9722A3DAAFE3B4186F6B6457E0 PUSH1 0x40 MLOAD PUSH1 0x40 MLOAD DUP1 SWAP2 SUB SWAP1 LOG3 POP POP JUMP JUMPDEST PUSH0 CALLER SWAP1 POP SWAP1 JUMP JUMPDEST PUSH0 PUSH3 0x51E DUP4 DUP4 PUSH3 0x691 PUSH1 0x20 SHL PUSH1 0x20 SHR JUMP JUMPDEST PUSH3 0x5FD JUMPI PUSH1 0x1 PUSH1 0x5 PUSH0 DUP6 DUP2 MSTORE PUSH1 0x20 ADD SWAP1 DUP2 MSTORE PUSH1 0x20 ADD PUSH0 KECCAK256 PUSH0 ADD PUSH0 DUP5 PUSH20 0xFFFFFFFFFFFFFFFFFFFFFFFFFFFFFFFFFFFFFFFF AND PUSH20 0xFFFFFFFFFFFFFFFFFFFFFFFFFFFFFFFFFFFFFFFF AND DUP2 MSTORE PUSH1 0x20 ADD SWAP1 DUP2 MSTORE PUSH1 0x20 ADD PUSH0 KECCAK256 PUSH0 PUSH2 0x100 EXP DUP2 SLOAD DUP2 PUSH1 0xFF MUL NOT AND SWAP1 DUP4 ISZERO ISZERO MUL OR SWAP1 SSTORE POP PUSH3 0x599 PUSH3 0x504 PUSH1 0x20 SHL PUSH1 0x20 SHR JUMP JUMPDEST PUSH20 0xFFFFFFFFFFFFFFFFFFFFFFFFFFFFFFFFFFFFFFFF AND DUP3 PUSH20 0xFFFFFFFFFFFFFFFFFFFFFFFFFFFFFFFFFFFFFFFF AND DUP5 PUSH32 0x2F8788117E7EFF1D82E926EC794901D17C78024A50270940304540A733656F0D PUSH1 0x40 MLOAD PUSH1 0x40 MLOAD DUP1 SWAP2 SUB SWAP1 LOG4 PUSH1 0x1 SWAP1 POP PUSH3 0x601 JUMP JUMPDEST PUSH0 SWAP1 POP JUMPDEST SWAP3 SWAP2 POP POP JUMP JUMPDEST PUSH0 PUSH20 0xFFFFFFFFFFFFFFFFFFFFFFFFFFFFFFFFFFFFFFFF AND DUP3 PUSH20 0xFFFFFFFFFFFFFFFFFFFFFFFFFFFFFFFFFFFFFFFF AND SUB PUSH3 0x67A JUMPI PUSH0 PUSH1 0x40 MLOAD PUSH32 0xEC442F0500000000000000000000000000000000000000000000000000000000 DUP2 MSTORE PUSH1 0x4 ADD PUSH3 0x671 SWAP2 SWAP1 PUSH3 0xD0E JUMP JUMPDEST PUSH1 0x40 MLOAD DUP1 SWAP2 SUB SWAP1 REVERT JUMPDEST PUSH3 0x68D PUSH0 DUP4 DUP4 PUSH3 0x6F5 PUSH1 0x20 SHL PUSH1 0x20 SHR JUMP JUMPDEST POP POP JUMP JUMPDEST PUSH0 PUSH1 0x5 PUSH0 DUP5 DUP2 MSTORE PUSH1 0x20 ADD SWAP1 DUP2 MSTORE PUSH1 0x20 ADD PUSH0 KECCAK256 PUSH0 ADD PUSH0 DUP4 PUSH20 0xFFFFFFFFFFFFFFFFFFFFFFFFFFFFFFFFFFFFFFFF AND PUSH20 0xFFFFFFFFFFFFFFFFFFFFFFFFFFFFFFFFFFFFFFFF AND DUP2 MSTORE PUSH1 0x20 ADD SWAP1 DUP2 MSTORE PUSH1 0x20 ADD PUSH0 KECCAK256 PUSH0 SWAP1 SLOAD SWAP1 PUSH2 0x100 EXP SWAP1 DIV PUSH1 0xFF AND SWAP1 POP SWAP3 SWAP2 POP POP JUMP JUMPDEST PUSH1 0x9 PUSH0 SWAP1 SLOAD SWAP1 PUSH2 0x100 EXP SWAP1 DIV PUSH1 0xFF AND ISZERO PUSH3 0x747 JUMPI PUSH1 0x40 MLOAD PUSH32 0x8C379A000000000000000000000000000000000000000000000000000000000 DUP2 MSTORE PUSH1 0x4 ADD PUSH3 0x73E SWAP1 PUSH3 0xFCB JUMP JUMPDEST PUSH1 0x40 MLOAD DUP1 SWAP2 SUB SWAP1 REVERT JUMPDEST PUSH3 0x75A DUP4 DUP4 DUP4 PUSH3 0x75F PUSH1 0x20 SHL PUSH1 0x20 SHR JUMP JUMPDEST POP POP POP JUMP JUMPDEST PUSH0 PUSH20 0xFFFFFFFFFFFFFFFFFFFFFFFFFFFFFFFFFFFFFFFF AND DUP4 PUSH20 0xFFFFFFFFFFFFFFFFFFFFFFFFFFFFFFFFFFFFFFFF AND SUB PUSH3 0x7B3 JUMPI DUP1 PUSH1 0x2 PUSH0 DUP3 DUP3 SLOAD PUSH3 0x7A6 SWAP2 SWAP1 PUSH3 0xFEB JUMP JUMPDEST SWAP3 POP POP DUP2 SWAP1 SSTORE POP PUSH3 0x884 JUMP JUMPDEST PUSH0 DUP1 PUSH0 DUP6 PUSH20 0xFFFFFFFFFFFFFFFFFFFFFFFFFFFFFFFFFFFFFFFF AND PUSH20 0xFFFFFFFFFFFFFFFFFFFFFFFFFFFFFFFFFFFFFFFF AND DUP2 MSTORE PUSH1 0x20 ADD SWAP1 DUP2 MSTORE PUSH1 0x20 ADD PUSH0 KECCAK256 SLOAD SWAP1 POP DUP2 DUP2 LT ISZERO PUSH3 0x83F JUMPI DUP4 DUP2 DUP4 PUSH1 0x40 MLOAD PUSH32 0xE450D38C00000000000000000000000000000000000000000000000000000000 DUP2 MSTORE PUSH1 0x4 ADD PUSH3 0x836 SWAP4 SWAP3 SWAP2 SWAP1 PUSH3 0x1036 JUMP JUMPDEST PUSH1 0x40 MLOAD DUP1 SWAP2 SUB SWAP1 REVERT JUMPDEST DUP2 DUP2 SUB PUSH0 DUP1 DUP7 PUSH20 0xFFFFFFFFFFFFFFFFFFFFFFFFFFFFFFFFFFFFFFFF AND PUSH20 0xFFFFFFFFFFFFFFFFFFFFFFFFFFFFFFFFFFFFFFFF AND DUP2 MSTORE PUSH1 0x20 ADD SWAP1 DUP2 MSTORE PUSH1 0x20 ADD PUSH0 KECCAK256 DUP2 SWAP1 SSTORE POP POP JUMPDEST PUSH0 PUSH20 0xFFFFFFFFFFFFFFFFFFFFFFFFFFFFFFFFFFFFFFFF AND DUP3 PUSH20 0xFFFFFFFFFFFFFFFFFFFFFFFFFFFFFFFFFFFFFFFF AND SUB PUSH3 0x8CD JUMPI DUP1 PUSH1 0x2 PUSH0 DUP3 DUP3 SLOAD SUB SWAP3 POP POP DUP2 SWAP1 SSTORE POP PUSH3 0x917 JUMP JUMPDEST DUP1 PUSH0 DUP1 DUP5 PUSH20 0xFFFFFFFFFFFFFFFFFFFFFFFFFFFFFFFFFFFFFFFF AND PUSH20 0xFFFFFFFFFFFFFFFFFFFFFFFFFFFFFFFFFFFFFFFF AND DUP2 MSTORE PUSH1 0x20 ADD SWAP1 DUP2 MSTORE PUSH1 0x20 ADD PUSH0 KECCAK256 PUSH0 DUP3 DUP3 SLOAD ADD SWAP3 POP POP DUP2 SWAP1 SSTORE POP JUMPDEST DUP2 PUSH20 0xFFFFFFFFFFFFFFFFFFFFFFFFFFFFFFFFFFFFFFFF AND DUP4 PUSH20 0xFFFFFFFFFFFFFFFFFFFFFFFFFFFFFFFFFFFFFFFF AND PUSH32 0xDDF252AD1BE2C89B69C2B068FC378DAA952BA7F163C4A11628F55A4DF523B3EF DUP4 PUSH1 0x40 MLOAD PUSH3 0x976 SWAP2 SWAP1 PUSH3 0x1071 JUMP JUMPDEST PUSH1 0x40 MLOAD DUP1 SWAP2 SUB SWAP1 LOG3 POP POP POP JUMP JUMPDEST PUSH0 DUP2 MLOAD SWAP1 POP SWAP2 SWAP1 POP JUMP JUMPDEST PUSH32 0x4E487B7100000000000000000000000000000000000000000000000000000000 PUSH0 MSTORE PUSH1 0x41 PUSH1 0x4 MSTORE PUSH1 0x24 PUSH0 REVERT JUMPDEST PUSH32 0x4E487B7100000000000000000000000000000000000000000000000000000000 PUSH0 MSTORE PUSH1 0x22 PUSH1 0x4 MSTORE PUSH1 0x24 PUSH0 REVERT JUMPDEST PUSH0 PUSH1 0x2 DUP3 DIV SWAP1 POP PUSH1 0x1 DUP3 AND DUP1 PUSH3 0x9FF JUMPI PUSH1 0x7F DUP3 AND SWAP2 POP JUMPDEST PUSH1 0x20 DUP3 LT DUP2 SUB PUSH3 0xA15 JUMPI PUSH3 0xA14 PUSH3 0x9BA JUMP JUMPDEST JUMPDEST POP SWAP2 SWAP1 POP JUMP JUMPDEST PUSH0 DUP2 SWAP1 POP DUP2 PUSH0 MSTORE PUSH1 0x20 PUSH0 KECCAK256 SWAP1 POP SWAP2 SWAP1 POP JUMP JUMPDEST PUSH0 PUSH1 0x20 PUSH1 0x1F DUP4 ADD DIV SWAP1 POP SWAP2 SWAP1 POP JUMP JUMPDEST PUSH0 DUP3 DUP3 SHL SWAP1 POP SWAP3 SWAP2 POP POP JUMP JUMPDEST PUSH0 PUSH1 0x8 DUP4 MUL PUSH3 0xA79 PUSH32 0xFFFFFFFFFFFFFFFFFFFFFFFFFFFFFFFFFFFFFFFFFFFFFFFFFFFFFFFFFFFFFFFF DUP3 PUSH3 0xA3C JUMP JUMPDEST PUSH3 0xA85 DUP7 DUP4 PUSH3 0xA3C JUMP JUMPDEST SWAP6 POP DUP1 NOT DUP5 AND SWAP4 POP DUP1 DUP7 AND DUP5 OR SWAP3 POP POP POP SWAP4 SWAP3 POP POP POP JUMP JUMPDEST PUSH0 DUP2 SWAP1 POP SWAP2 SWAP1 POP JUMP JUMPDEST PUSH0 DUP2 SWAP1 POP SWAP2 SWAP1 POP JUMP JUMPDEST PUSH0 PUSH3 0xACF PUSH3 0xAC9 PUSH3 0xAC3 DUP5 PUSH3 0xA9D JUMP JUMPDEST PUSH3 0xAA6 JUMP JUMPDEST PUSH3 0xA9D JUMP JUMPDEST SWAP1 POP SWAP2 SWAP1 POP JUMP JUMPDEST PUSH0 DUP2 SWAP1 POP SWAP2 SWAP1 POP JUMP JUMPDEST PUSH3 0xAEA DUP4 PUSH3 0xAAF JUMP JUMPDEST PUSH3 0xB02 PUSH3 0xAF9 DUP3 PUSH3 0xAD6 JUMP JUMPDEST DUP5 DUP5 SLOAD PUSH3 0xA48 JUMP JUMPDEST DUP3 SSTORE POP POP POP POP JUMP JUMPDEST PUSH0 SWAP1 JUMP JUMPDEST PUSH3 0xB18 PUSH3 0xB0A JUMP JUMPDEST PUSH3 0xB25 DUP2 DUP5 DUP5 PUSH3 0xADF JUMP JUMPDEST POP POP POP JUMP JUMPDEST JUMPDEST DUP2 DUP2 LT ISZERO PUSH3 0xB4C JUMPI PUSH3 0xB40 PUSH0 DUP3 PUSH3 0xB0E JUMP JUMPDEST PUSH1 0x1 DUP2 ADD SWAP1 POP PUSH3 0xB2B JUMP JUMPDEST POP POP JUMP JUMPDEST PUSH1 0x1F DUP3 GT ISZERO PUSH3 0xB9B JUMPI PUSH3 0xB65 DUP2 PUSH3 0xA1B JUMP JUMPDEST PUSH3 0xB70 DUP5 PUSH3 0xA2D JUMP JUMPDEST DUP2 ADD PUSH1 0x20 DUP6 LT ISZERO PUSH3 0xB80 JUMPI DUP2 SWAP1 POP JUMPDEST PUSH3 0xB98 PUSH3 0xB8F DUP6 PUSH3 0xA2D JUMP JUMPDEST DUP4 ADD DUP3 PUSH3 0xB2A JUMP JUMPDEST POP POP JUMPDEST POP POP POP JUMP JUMPDEST PUSH0 DUP3 DUP3 SHR SWAP1 POP SWAP3 SWAP2 POP POP JUMP JUMPDEST PUSH0 PUSH3 0xBBD PUSH0 NOT DUP5 PUSH1 0x8 MUL PUSH3 0xBA0 JUMP JUMPDEST NOT DUP1 DUP4 AND SWAP2 POP POP SWAP3 SWAP2 POP POP JUMP JUMPDEST PUSH0 PUSH3 0xBD7 DUP4 DUP4 PUSH3 0xBAC JUMP JUMPDEST SWAP2 POP DUP3 PUSH1 0x2 MUL DUP3 OR SWAP1 POP SWAP3 SWAP2 POP POP JUMP JUMPDEST PUSH3 0xBF2 DUP3 PUSH3 0x983 JUMP JUMPDEST PUSH8 0xFFFFFFFFFFFFFFFF DUP2 GT ISZERO PUSH3 0xC0E JUMPI PUSH3 0xC0D PUSH3 0x98D JUMP JUMPDEST JUMPDEST PUSH3 0xC1A DUP3 SLOAD PUSH3 0x9E7 JUMP JUMPDEST PUSH3 0xC27 DUP3 DUP3 DUP6 PUSH3 0xB50 JUMP JUMPDEST PUSH0 PUSH1 0x20 SWAP1 POP PUSH1 0x1F DUP4 GT PUSH1 0x1 DUP2 EQ PUSH3 0xC5D JUMPI PUSH0 DUP5 ISZERO PUSH3 0xC48 JUMPI DUP3 DUP8 ADD MLOAD SWAP1 POP JUMPDEST PUSH3 0xC54 DUP6 DUP3 PUSH3 0xBCA JUMP JUMPDEST DUP7 SSTORE POP PUSH3 0xCC3 JUMP JUMPDEST PUSH1 0x1F NOT DUP5 AND PUSH3 0xC6D DUP7 PUSH3 0xA1B JUMP JUMPDEST PUSH0 JUMPDEST DUP3 DUP2 LT ISZERO PUSH3 0xC96 JUMPI DUP5 DUP10 ADD MLOAD DUP3 SSTORE PUSH1 0x1 DUP3 ADD SWAP2 POP PUSH1 0x20 DUP6 ADD SWAP5 POP PUSH1 0x20 DUP2 ADD SWAP1 POP PUSH3 0xC6F JUMP JUMPDEST DUP7 DUP4 LT ISZERO PUSH3 0xCB6 JUMPI DUP5 DUP10 ADD MLOAD PUSH3 0xCB2 PUSH1 0x1F DUP10 AND DUP3 PUSH3 0xBAC JUMP JUMPDEST DUP4 SSTORE POP JUMPDEST PUSH1 0x1 PUSH1 0x2 DUP9 MUL ADD DUP9 SSTORE POP POP POP JUMPDEST POP POP POP POP POP POP JUMP JUMPDEST PUSH0 PUSH20 0xFFFFFFFFFFFFFFFFFFFFFFFFFFFFFFFFFFFFFFFF DUP3 AND SWAP1 POP SWAP2 SWAP1 POP JUMP JUMPDEST PUSH0 PUSH3 0xCF6 DUP3 PUSH3 0xCCB JUMP JUMPDEST SWAP1 POP SWAP2 SWAP1 POP JUMP JUMPDEST PUSH3 0xD08 DUP2 PUSH3 0xCEA JUMP JUMPDEST DUP3 MSTORE POP POP JUMP JUMPDEST PUSH0 PUSH1 0x20 DUP3 ADD SWAP1 POP PUSH3 0xD23 PUSH0 DUP4 ADD DUP5 PUSH3 0xCFD JUMP JUMPDEST SWAP3 SWAP2 POP POP JUMP JUMPDEST PUSH32 0x4E487B7100000000000000000000000000000000000000000000000000000000 PUSH0 MSTORE PUSH1 0x11 PUSH1 0x4 MSTORE PUSH1 0x24 PUSH0 REVERT JUMPDEST PUSH0 DUP2 PUSH1 0x1 SHR SWAP1 POP SWAP2 SWAP1 POP JUMP JUMPDEST PUSH0 DUP1 DUP3 SWAP2 POP DUP4 SWAP1 POP JUMPDEST PUSH1 0x1 DUP6 GT ISZERO PUSH3 0xDB3 JUMPI DUP1 DUP7 DIV DUP2 GT ISZERO PUSH3 0xD8B JUMPI PUSH3 0xD8A PUSH3 0xD29 JUMP JUMPDEST JUMPDEST PUSH1 0x1 DUP6 AND ISZERO PUSH3 0xD9B JUMPI DUP1 DUP3 MUL SWAP2 POP JUMPDEST DUP1 DUP2 MUL SWAP1 POP PUSH3 0xDAB DUP6 PUSH3 0xD56 JUMP JUMPDEST SWAP5 POP PUSH3 0xD6B JUMP JUMPDEST SWAP5 POP SWAP5 SWAP3 POP POP POP JUMP JUMPDEST PUSH0 DUP3 PUSH3 0xDCD JUMPI PUSH1 0x1 SWAP1 POP PUSH3 0xE9F JUMP JUMPDEST DUP2 PUSH3 0xDDC JUMPI PUSH0 SWAP1 POP PUSH3 0xE9F JUMP JUMPDEST DUP2 PUSH1 0x1 DUP2 EQ PUSH3 0xDF5 JUMPI PUSH1 0x2 DUP2 EQ PUSH3 0xE00 JUMPI PUSH3 0xE36 JUMP JUMPDEST PUSH1 0x1 SWAP2 POP POP PUSH3 0xE9F JUMP JUMPDEST PUSH1 0xFF DUP5 GT ISZERO PUSH3 0xE15 JUMPI PUSH3 0xE14 PUSH3 0xD29 JUMP JUMPDEST JUMPDEST DUP4 PUSH1 0x2 EXP SWAP2 POP DUP5 DUP3 GT ISZERO PUSH3 0xE2F JUMPI PUSH3 0xE2E PUSH3 0xD29 JUMP JUMPDEST JUMPDEST POP PUSH3 0xE9F JUMP JUMPDEST POP PUSH1 0x20 DUP4 LT PUSH2 0x133 DUP4 LT AND PUSH1 0x4E DUP5 LT PUSH1 0xB DUP5 LT AND OR ISZERO PUSH3 0xE70 JUMPI DUP3 DUP3 EXP SWAP1 POP DUP4 DUP2 GT ISZERO PUSH3 0xE6A JUMPI PUSH3 0xE69 PUSH3 0xD29 JUMP JUMPDEST JUMPDEST PUSH3 0xE9F JUMP JUMPDEST PUSH3 0xE7F DUP5 DUP5 DUP5 PUSH1 0x1 PUSH3 0xD62 JUMP JUMPDEST SWAP3 POP SWAP1 POP DUP2 DUP5 DIV DUP2 GT ISZERO PUSH3 0xE99 JUMPI PUSH3 0xE98 PUSH3 0xD29 JUMP JUMPDEST JUMPDEST DUP2 DUP2 MUL SWAP1 POP JUMPDEST SWAP4 SWAP3 POP POP POP JUMP JUMPDEST PUSH0 PUSH3 0xEB2 DUP3 PUSH3 0xA9D JUMP JUMPDEST SWAP2 POP PUSH3 0xEBF DUP4 PUSH3 0xA9D JUMP JUMPDEST SWAP3 POP PUSH3 0xEEE PUSH32 0xFFFFFFFFFFFFFFFFFFFFFFFFFFFFFFFFFFFFFFFFFFFFFFFFFFFFFFFFFFFFFFFF DUP5 DUP5 PUSH3 0xDBC JUMP JUMPDEST SWAP1 POP SWAP3 SWAP2 POP POP JUMP JUMPDEST PUSH0 PUSH3 0xF02 DUP3 PUSH3 0xA9D JUMP JUMPDEST SWAP2 POP PUSH3 0xF0F DUP4 PUSH3 0xA9D JUMP JUMPDEST SWAP3 POP DUP3 DUP3 MUL PUSH3 0xF1F DUP2 PUSH3 0xA9D JUMP JUMPDEST SWAP2 POP DUP3 DUP3 DIV DUP5 EQ DUP4 ISZERO OR PUSH3 0xF39 JUMPI PUSH3 0xF38 PUSH3 0xD29 JUMP JUMPDEST JUMPDEST POP SWAP3 SWAP2 POP POP JUMP JUMPDEST PUSH32 0x4E487B7100000000000000000000000000000000000000000000000000000000 PUSH0 MSTORE PUSH1 0x32 PUSH1 0x4 MSTORE PUSH1 0x24 PUSH0 REVERT JUMPDEST PUSH0 DUP3 DUP3 MSTORE PUSH1 0x20 DUP3 ADD SWAP1 POP SWAP3 SWAP2 POP POP JUMP JUMPDEST PUSH32 0x544947473A20656D657267656E63792073746F70706564000000000000000000 PUSH0 DUP3 ADD MSTORE POP JUMP JUMPDEST PUSH0 PUSH3 0xFB3 PUSH1 0x17 DUP4 PUSH3 0xF6D JUMP JUMPDEST SWAP2 POP PUSH3 0xFC0 DUP3 PUSH3 0xF7D JUMP JUMPDEST PUSH1 0x20 DUP3 ADD SWAP1 POP SWAP2 SWAP1 POP JUMP JUMPDEST PUSH0 PUSH1 0x20 DUP3 ADD SWAP1 POP DUP2 DUP2 SUB PUSH0 DUP4 ADD MSTORE PUSH3 0xFE4 DUP2 PUSH3 0xFA5 JUMP JUMPDEST SWAP1 POP SWAP2 SWAP1 POP JUMP JUMPDEST PUSH0 PUSH3 0xFF7 DUP3 PUSH3 0xA9D JUMP JUMPDEST SWAP2 POP PUSH3 0x1004 DUP4 PUSH3 0xA9D JUMP JUMPDEST SWAP3 POP DUP3 DUP3 ADD SWAP1 POP DUP1 DUP3 GT ISZERO PUSH3 0x101F JUMPI PUSH3 0x101E PUSH3 0xD29 JUMP JUMPDEST JUMPDEST SWAP3 SWAP2 POP POP JUMP JUMPDEST PUSH3 0x1030 DUP2 PUSH3 0xA9D JUMP JUMPDEST DUP3 MSTORE POP POP JUMP JUMPDEST PUSH0 PUSH1 0x60 DUP3 ADD SWAP1 POP PUSH3 0x104B PUSH0 DUP4 ADD DUP7 PUSH3 0xCFD JUMP JUMPDEST PUSH3 0x105A PUSH1 0x20 DUP4 ADD DUP6 PUSH3 0x1025 JUMP JUMPDEST PUSH3 0x1069 PUSH1 0x40 DUP4 ADD DUP5 PUSH3 0x1025 JUMP JUMPDEST SWAP5 SWAP4 POP POP POP POP JUMP JUMPDEST PUSH0 PUSH1 0x20 DUP3 ADD SWAP1 POP PUSH3 0x1086 PUSH0 DUP4 ADD DUP5 PUSH3 0x1025 JUMP JUMPDEST SWAP3 SWAP2 POP POP JUMP JUMPDEST PUSH2 0x34F9 DUP1 PUSH3 0x109A PUSH0 CODECOPY PUSH0 RETURN INVALID PUSH1 0x80 PUSH1 0x40 MSTORE PUSH1 0x4 CALLDATASIZE LT PUSH2 0x249 JUMPI PUSH0 CALLDATALOAD PUSH1 0xE0 SHR DUP1 PUSH4 0x715018A6 GT PUSH2 0x138 JUMPI DUP1 PUSH4 0xA9059CBB GT PUSH2 0xB5 JUMPI DUP1 PUSH4 0xD2CD0CD8 GT PUSH2 0x79 JUMPI DUP1 PUSH4 0xD2CD0CD8 EQ PUSH2 0x83A JUMPI DUP1 PUSH4 0xD5391393 EQ PUSH2 0x862 JUMPI DUP1 PUSH4 0xD547741F EQ PUSH2 0x88C JUMPI DUP1 PUSH4 0xDD62ED3E EQ PUSH2 0x8B4 JUMPI DUP1 PUSH4 0xE2749C96 EQ PUSH2 0x8F0 JUMPI DUP1 PUSH4 0xF2FDE38B EQ PUSH2 0x91A JUMPI PUSH2 0x250 JUMP JUMPDEST DUP1 PUSH4 0xA9059CBB EQ PUSH2 0x75C JUMPI DUP1 PUSH4 0xABAF2111 EQ PUSH2 0x798 JUMPI DUP1 PUSH4 0xB2118A8D EQ PUSH2 0x7C0 JUMPI DUP1 PUSH4 0xB5BFDDEA EQ PUSH2 0x7E8 JUMPI DUP1 PUSH4 0xC0A317B8 EQ PUSH2 0x812 JUMPI PUSH2 0x250 JUMP JUMPDEST DUP1 PUSH4 0x8C2A993E GT PUSH2 0xFC JUMPI DUP1 PUSH4 0x8C2A993E EQ PUSH2 0x67A JUMPI DUP1 PUSH4 0x8DA5CB5B EQ PUSH2 0x6A2 JUMPI DUP1 PUSH4 0x91D14854 EQ PUSH2 0x6CC JUMPI DUP1 PUSH4 0x95D89B41 EQ PUSH2 0x708 JUMPI DUP1 PUSH4 0xA217FDDF EQ PUSH2 0x732 JUMPI PUSH2 0x250 JUMP JUMPDEST DUP1 PUSH4 0x715018A6 EQ PUSH2 0x5AC JUMPI DUP1 PUSH4 0x733D8665 EQ PUSH2 0x5C2 JUMPI DUP1 PUSH4 0x74F4F547 EQ PUSH2 0x5FE JUMPI DUP1 PUSH4 0x7B018E33 EQ PUSH2 0x626 JUMPI DUP1 PUSH4 0x83EFCD39 EQ PUSH2 0x650 JUMPI PUSH2 0x250 JUMP JUMPDEST DUP1 PUSH4 0x313CE567 GT PUSH2 0x1C6 JUMPI DUP1 PUSH4 0x58B214AC GT PUSH2 0x18A JUMPI DUP1 PUSH4 0x58B214AC EQ PUSH2 0x4F4 JUMPI DUP1 PUSH4 0x6375952A EQ PUSH2 0x51C JUMPI DUP1 PUSH4 0x6389A44D EQ PUSH2 0x544 JUMPI DUP1 PUSH4 0x63A599A4 EQ PUSH2 0x55A JUMPI DUP1 PUSH4 0x70A08231 EQ PUSH2 0x570 JUMPI PUSH2 0x250 JUMP JUMPDEST DUP1 PUSH4 0x313CE567 EQ PUSH2 0x43A JUMPI DUP1 PUSH4 0x32CB6B0C EQ PUSH2 0x464 JUMPI DUP1 PUSH4 0x36568ABE EQ PUSH2 0x48E JUMPI DUP1 PUSH4 0x4D2F79FF EQ PUSH2 0x4B6 JUMPI DUP1 PUSH4 0x4D57382A EQ PUSH2 0x4DE JUMPI PUSH2 0x250 JUMP JUMPDEST DUP1 PUSH4 0x23B872DD GT PUSH2 0x20D JUMPI DUP1 PUSH4 0x23B872DD EQ PUSH2 0x346 JUMPI DUP1 PUSH4 0x248A9CA3 EQ PUSH2 0x382 JUMPI DUP1 PUSH4 0x28BCEF04 EQ PUSH2 0x3BE JUMPI DUP1 PUSH4 0x2F2FF15D EQ PUSH2 0x3E8 JUMPI DUP1 PUSH4 0x2FF2E9DC EQ PUSH2 0x410 JUMPI PUSH2 0x250 JUMP JUMPDEST DUP1 PUSH4 0x1FFC9A7 EQ PUSH2 0x252 JUMPI DUP1 PUSH4 0x6FDDE03 EQ PUSH2 0x28E JUMPI DUP1 PUSH4 0x95EA7B3 EQ PUSH2 0x2B8 JUMPI DUP1 PUSH4 0x1291F79D EQ PUSH2 0x2F4 JUMPI DUP1 PUSH4 0x18160DDD EQ PUSH2 0x31C JUMPI PUSH2 0x250 JUMP JUMPDEST CALLDATASIZE PUSH2 0x250 JUMPI STOP JUMPDEST STOP JUMPDEST CALLVALUE DUP1 ISZERO PUSH2 0x25D JUMPI PUSH0 DUP1 REVERT JUMPDEST POP PUSH2 0x278 PUSH1 0x4 DUP1 CALLDATASIZE SUB DUP2 ADD SWAP1 PUSH2 0x273 SWAP2 SWAP1 PUSH2 0x2884 JUMP JUMPDEST PUSH2 0x942 JUMP JUMPDEST PUSH1 0x40 MLOAD PUSH2 0x285 SWAP2 SWAP1 PUSH2 0x28C9 JUMP JUMPDEST PUSH1 0x40 MLOAD DUP1 SWAP2 SUB SWAP1 RETURN JUMPDEST CALLVALUE DUP1 ISZERO PUSH2 0x299 JUMPI PUSH0 DUP1 REVERT JUMPDEST POP PUSH2 0x2A2 PUSH2 0x9BB JUMP JUMPDEST PUSH1 0x40 MLOAD PUSH2 0x2AF SWAP2 SWAP1 PUSH2 0x296C JUMP JUMPDEST PUSH1 0x40 MLOAD DUP1 SWAP2 SUB SWAP1 RETURN JUMPDEST CALLVALUE DUP1 ISZERO PUSH2 0x2C3 JUMPI PUSH0 DUP1 REVERT JUMPDEST POP PUSH2 0x2DE PUSH1 0x4 DUP1 CALLDATASIZE SUB DUP2 ADD SWAP1 PUSH2 0x2D9 SWAP2 SWAP1 PUSH2 0x2A19 JUMP JUMPDEST PUSH2 0xA4B JUMP JUMPDEST PUSH1 0x40 MLOAD PUSH2 0x2EB SWAP2 SWAP1 PUSH2 0x28C9 JUMP JUMPDEST PUSH1 0x40 MLOAD DUP1 SWAP2 SUB SWAP1 RETURN JUMPDEST CALLVALUE DUP1 ISZERO PUSH2 0x2FF JUMPI PUSH0 DUP1 REVERT JUMPDEST POP PUSH2 0x31A PUSH1 0x4 DUP1 CALLDATASIZE SUB DUP2 ADD SWAP1 PUSH2 0x315 SWAP2 SWAP1 PUSH2 0x2A92 JUMP JUMPDEST PUSH2 0xA6D JUMP JUMPDEST STOP JUMPDEST CALLVALUE DUP1 ISZERO PUSH2 0x327 JUMPI PUSH0 DUP1 REVERT JUMPDEST POP PUSH2 0x330 PUSH2 0xBBC JUMP JUMPDEST PUSH1 0x40 MLOAD PUSH2 0x33D SWAP2 SWAP1 PUSH2 0x2ADF JUMP JUMPDEST PUSH1 0x40 MLOAD DUP1 SWAP2 SUB SWAP1 RETURN JUMPDEST CALLVALUE DUP1 ISZERO PUSH2 0x351 JUMPI PUSH0 DUP1 REVERT JUMPDEST POP PUSH2 0x36C PUSH1 0x4 DUP1 CALLDATASIZE SUB DUP2 ADD SWAP1 PUSH2 0x367 SWAP2 SWAP1 PUSH2 0x2AF8 JUMP JUMPDEST PUSH2 0xBC5 JUMP JUMPDEST PUSH1 0x40 MLOAD PUSH2 0x379 SWAP2 SWAP1 PUSH2 0x28C9 JUMP JUMPDEST PUSH1 0x40 MLOAD DUP1 SWAP2 SUB SWAP1 RETURN JUMPDEST CALLVALUE DUP1 ISZERO PUSH2 0x38D JUMPI PUSH0 DUP1 REVERT JUMPDEST POP PUSH2 0x3A8 PUSH1 0x4 DUP1 CALLDATASIZE SUB DUP2 ADD SWAP1 PUSH2 0x3A3 SWAP2 SWAP1 PUSH2 0x2B7B JUMP JUMPDEST PUSH2 0xBF3 JUMP JUMPDEST PUSH1 0x40 MLOAD PUSH2 0x3B5 SWAP2 SWAP1 PUSH2 0x2BB5 JUMP JUMPDEST PUSH1 0x40 MLOAD DUP1 SWAP2 SUB SWAP1 RETURN JUMPDEST CALLVALUE DUP1 ISZERO PUSH2 0x3C9 JUMPI PUSH0 DUP1 REVERT JUMPDEST POP PUSH2 0x3D2 PUSH2 0xC10 JUMP JUMPDEST PUSH1 0x40 MLOAD PUSH2 0x3DF SWAP2 SWAP1 PUSH2 0x2ADF JUMP JUMPDEST PUSH1 0x40 MLOAD DUP1 SWAP2 SUB SWAP1 RETURN JUMPDEST CALLVALUE DUP1 ISZERO PUSH2 0x3F3 JUMPI PUSH0 DUP1 REVERT JUMPDEST POP PUSH2 0x40E PUSH1 0x4 DUP1 CALLDATASIZE SUB DUP2 ADD SWAP1 PUSH2 0x409 SWAP2 SWAP1 PUSH2 0x2BCE JUMP JUMPDEST PUSH2 0xC16 JUMP JUMPDEST STOP JUMPDEST CALLVALUE DUP1 ISZERO PUSH2 0x41B JUMPI PUSH0 DUP1 REVERT JUMPDEST POP PUSH2 0x424 PUSH2 0xC38 JUMP JUMPDEST PUSH1 0x40 MLOAD PUSH2 0x431 SWAP2 SWAP1 PUSH2 0x2ADF JUMP JUMPDEST PUSH1 0x40 MLOAD DUP1 SWAP2 SUB SWAP1 RETURN JUMPDEST CALLVALUE DUP1 ISZERO PUSH2 0x445 JUMPI PUSH0 DUP1 REVERT JUMPDEST POP PUSH2 0x44E PUSH2 0xC5B JUMP JUMPDEST PUSH1 0x40 MLOAD PUSH2 0x45B SWAP2 SWAP1 PUSH2 0x2C27 JUMP JUMPDEST PUSH1 0x40 MLOAD DUP1 SWAP2 SUB SWAP1 RETURN JUMPDEST CALLVALUE DUP1 ISZERO PUSH2 0x46F JUMPI PUSH0 DUP1 REVERT JUMPDEST POP PUSH2 0x478 PUSH2 0xC63 JUMP JUMPDEST PUSH1 0x40 MLOAD PUSH2 0x485 SWAP2 SWAP1 PUSH2 0x2ADF JUMP JUMPDEST PUSH1 0x40 MLOAD DUP1 SWAP2 SUB SWAP1 RETURN JUMPDEST CALLVALUE DUP1 ISZERO PUSH2 0x499 JUMPI PUSH0 DUP1 REVERT JUMPDEST POP PUSH2 0x4B4 PUSH1 0x4 DUP1 CALLDATASIZE SUB DUP2 ADD SWAP1 PUSH2 0x4AF SWAP2 SWAP1 PUSH2 0x2BCE JUMP JUMPDEST PUSH2 0xC87 JUMP JUMPDEST STOP JUMPDEST CALLVALUE DUP1 ISZERO PUSH2 0x4C1 JUMPI PUSH0 DUP1 REVERT JUMPDEST POP PUSH2 0x4DC PUSH1 0x4 DUP1 CALLDATASIZE SUB DUP2 ADD SWAP1 PUSH2 0x4D7 SWAP2 SWAP1 PUSH2 0x2C40 JUMP JUMPDEST PUSH2 0xD02 JUMP JUMPDEST STOP JUMPDEST CALLVALUE DUP1 ISZERO PUSH2 0x4E9 JUMPI PUSH0 DUP1 REVERT JUMPDEST POP PUSH2 0x4F2 PUSH2 0xD38 JUMP JUMPDEST STOP JUMPDEST CALLVALUE DUP1 ISZERO PUSH2 0x4FF JUMPI PUSH0 DUP1 REVERT JUMPDEST POP PUSH2 0x51A PUSH1 0x4 DUP1 CALLDATASIZE SUB DUP2 ADD SWAP1 PUSH2 0x515 SWAP2 SWAP1 PUSH2 0x2C40 JUMP JUMPDEST PUSH2 0xFC4 JUMP JUMPDEST STOP JUMPDEST CALLVALUE DUP1 ISZERO PUSH2 0x527 JUMPI PUSH0 DUP1 REVERT JUMPDEST POP PUSH2 0x542 PUSH1 0x4 DUP1 CALLDATASIZE SUB DUP2 ADD SWAP1 PUSH2 0x53D SWAP2 SWAP1 PUSH2 0x2C40 JUMP JUMPDEST PUSH2 0xFFA JUMP JUMPDEST STOP JUMPDEST CALLVALUE DUP1 ISZERO PUSH2 0x54F JUMPI PUSH0 DUP1 REVERT JUMPDEST POP PUSH2 0x558 PUSH2 0x102F JUMP JUMPDEST STOP JUMPDEST CALLVALUE DUP1 ISZERO PUSH2 0x565 JUMPI PUSH0 DUP1 REVERT JUMPDEST POP PUSH2 0x56E PUSH2 0x10A7 JUMP JUMPDEST STOP JUMPDEST CALLVALUE DUP1 ISZERO PUSH2 0x57B JUMPI PUSH0 DUP1 REVERT JUMPDEST POP PUSH2 0x596 PUSH1 0x4 DUP1 CALLDATASIZE SUB DUP2 ADD SWAP1 PUSH2 0x591 SWAP2 SWAP1 PUSH2 0x2C40 JUMP JUMPDEST PUSH2 0x1120 JUMP JUMPDEST PUSH1 0x40 MLOAD PUSH2 0x5A3 SWAP2 SWAP1 PUSH2 0x2ADF JUMP JUMPDEST PUSH1 0x40 MLOAD DUP1 SWAP2 SUB SWAP1 RETURN JUMPDEST CALLVALUE DUP1 ISZERO PUSH2 0x5B7 JUMPI PUSH0 DUP1 REVERT JUMPDEST POP PUSH2 0x5C0 PUSH2 0x1165 JUMP JUMPDEST STOP JUMPDEST CALLVALUE DUP1 ISZERO PUSH2 0x5CD JUMPI PUSH0 DUP1 REVERT JUMPDEST POP PUSH2 0x5E8 PUSH1 0x4 DUP1 CALLDATASIZE SUB DUP2 ADD SWAP1 PUSH2 0x5E3 SWAP2 SWAP1 PUSH2 0x2C6B JUMP JUMPDEST PUSH2 0x1178 JUMP JUMPDEST PUSH1 0x40 MLOAD PUSH2 0x5F5 SWAP2 SWAP1 PUSH2 0x2ADF JUMP JUMPDEST PUSH1 0x40 MLOAD DUP1 SWAP2 SUB SWAP1 RETURN JUMPDEST CALLVALUE DUP1 ISZERO PUSH2 0x609 JUMPI PUSH0 DUP1 REVERT JUMPDEST POP PUSH2 0x624 PUSH1 0x4 DUP1 CALLDATASIZE SUB DUP2 ADD SWAP1 PUSH2 0x61F SWAP2 SWAP1 PUSH2 0x2A19 JUMP JUMPDEST PUSH2 0x1198 JUMP JUMPDEST STOP JUMPDEST CALLVALUE DUP1 ISZERO PUSH2 0x631 JUMPI PUSH0 DUP1 REVERT JUMPDEST POP PUSH2 0x63A PUSH2 0x12FA JUMP JUMPDEST PUSH1 0x40 MLOAD PUSH2 0x647 SWAP2 SWAP1 PUSH2 0x2ADF JUMP JUMPDEST PUSH1 0x40 MLOAD DUP1 SWAP2 SUB SWAP1 RETURN JUMPDEST CALLVALUE DUP1 ISZERO PUSH2 0x65B JUMPI PUSH0 DUP1 REVERT JUMPDEST POP PUSH2 0x664 PUSH2 0x132A JUMP JUMPDEST PUSH1 0x40 MLOAD PUSH2 0x671 SWAP2 SWAP1 PUSH2 0x2ADF JUMP JUMPDEST PUSH1 0x40 MLOAD DUP1 SWAP2 SUB SWAP1 RETURN JUMPDEST CALLVALUE DUP1 ISZERO PUSH2 0x685 JUMPI PUSH0 DUP1 REVERT JUMPDEST POP PUSH2 0x6A0 PUSH1 0x4 DUP1 CALLDATASIZE SUB DUP2 ADD SWAP1 PUSH2 0x69B SWAP2 SWAP1 PUSH2 0x2A19 JUMP JUMPDEST PUSH2 0x134D JUMP JUMPDEST STOP JUMPDEST CALLVALUE DUP1 ISZERO PUSH2 0x6AD JUMPI PUSH0 DUP1 REVERT JUMPDEST POP PUSH2 0x6B6 PUSH2 0x1524 JUMP JUMPDEST PUSH1 0x40 MLOAD PUSH2 0x6C3 SWAP2 SWAP1 PUSH2 0x2CA5 JUMP JUMPDEST PUSH1 0x40 MLOAD DUP1 SWAP2 SUB SWAP1 RETURN JUMPDEST CALLVALUE DUP1 ISZERO PUSH2 0x6D7 JUMPI PUSH0 DUP1 REVERT JUMPDEST POP PUSH2 0x6F2 PUSH1 0x4 DUP1 CALLDATASIZE SUB DUP2 ADD SWAP1 PUSH2 0x6ED SWAP2 SWAP1 PUSH2 0x2BCE JUMP JUMPDEST PUSH2 0x154C JUMP JUMPDEST PUSH1 0x40 MLOAD PUSH2 0x6FF SWAP2 SWAP1 PUSH2 0x28C9 JUMP JUMPDEST PUSH1 0x40 MLOAD DUP1 SWAP2 SUB SWAP1 RETURN JUMPDEST CALLVALUE DUP1 ISZERO PUSH2 0x713 JUMPI PUSH0 DUP1 REVERT JUMPDEST POP PUSH2 0x71C PUSH2 0x15B0 JUMP JUMPDEST PUSH1 0x40 MLOAD PUSH2 0x729 SWAP2 SWAP1 PUSH2 0x296C JUMP JUMPDEST PUSH1 0x40 MLOAD DUP1 SWAP2 SUB SWAP1 RETURN JUMPDEST CALLVALUE DUP1 ISZERO PUSH2 0x73D JUMPI PUSH0 DUP1 REVERT JUMPDEST POP PUSH2 0x746 PUSH2 0x1640 JUMP JUMPDEST PUSH1 0x40 MLOAD PUSH2 0x753 SWAP2 SWAP1 PUSH2 0x2BB5 JUMP JUMPDEST PUSH1 0x40 MLOAD DUP1 SWAP2 SUB SWAP1 RETURN JUMPDEST CALLVALUE DUP1 ISZERO PUSH2 0x767 JUMPI PUSH0 DUP1 REVERT JUMPDEST POP PUSH2 0x782 PUSH1 0x4 DUP1 CALLDATASIZE SUB DUP2 ADD SWAP1 PUSH2 0x77D SWAP2 SWAP1 PUSH2 0x2A19 JUMP JUMPDEST PUSH2 0x1646 JUMP JUMPDEST PUSH1 0x40 MLOAD PUSH2 0x78F SWAP2 SWAP1 PUSH2 0x28C9 JUMP JUMPDEST PUSH1 0x40 MLOAD DUP1 SWAP2 SUB SWAP1 RETURN JUMPDEST CALLVALUE DUP1 ISZERO PUSH2 0x7A3 JUMPI PUSH0 DUP1 REVERT JUMPDEST POP PUSH2 0x7BE PUSH1 0x4 DUP1 CALLDATASIZE SUB DUP2 ADD SWAP1 PUSH2 0x7B9 SWAP2 SWAP1 PUSH2 0x2C40 JUMP JUMPDEST PUSH2 0x1668 JUMP JUMPDEST STOP JUMPDEST CALLVALUE DUP1 ISZERO PUSH2 0x7CB JUMPI PUSH0 DUP1 REVERT JUMPDEST POP PUSH2 0x7E6 PUSH1 0x4 DUP1 CALLDATASIZE SUB DUP2 ADD SWAP1 PUSH2 0x7E1 SWAP2 SWAP1 PUSH2 0x2AF8 JUMP JUMPDEST PUSH2 0x169D JUMP JUMPDEST STOP JUMPDEST CALLVALUE DUP1 ISZERO PUSH2 0x7F3 JUMPI PUSH0 DUP1 REVERT JUMPDEST POP PUSH2 0x7FC PUSH2 0x17A8 JUMP JUMPDEST PUSH1 0x40 MLOAD PUSH2 0x809 SWAP2 SWAP1 PUSH2 0x2BB5 JUMP JUMPDEST PUSH1 0x40 MLOAD DUP1 SWAP2 SUB SWAP1 RETURN JUMPDEST CALLVALUE DUP1 ISZERO PUSH2 0x81D JUMPI PUSH0 DUP1 REVERT JUMPDEST POP PUSH2 0x838 PUSH1 0x4 DUP1 CALLDATASIZE SUB DUP2 ADD SWAP1 PUSH2 0x833 SWAP2 SWAP1 PUSH2 0x2CBE JUMP JUMPDEST PUSH2 0x17CC JUMP JUMPDEST STOP JUMPDEST CALLVALUE DUP1 ISZERO PUSH2 0x845 JUMPI PUSH0 DUP1 REVERT JUMPDEST POP PUSH2 0x860 PUSH1 0x4 DUP1 CALLDATASIZE SUB DUP2 ADD SWAP1 PUSH2 0x85B SWAP2 SWAP1 PUSH2 0x2CE9 JUMP JUMPDEST PUSH2 0x191E JUMP JUMPDEST STOP JUMPDEST CALLVALUE DUP1 ISZERO PUSH2 0x86D JUMPI PUSH0 DUP1 REVERT JUMPDEST POP PUSH2 0x876 PUSH2 0x1AE6 JUMP JUMPDEST PUSH1 0x40 MLOAD PUSH2 0x883 SWAP2 SWAP1 PUSH2 0x2BB5 JUMP JUMPDEST PUSH1 0x40 MLOAD DUP1 SWAP2 SUB SWAP1 RETURN JUMPDEST CALLVALUE DUP1 ISZERO PUSH2 0x897 JUMPI PUSH0 DUP1 REVERT JUMPDEST POP PUSH2 0x8B2 PUSH1 0x4 DUP1 CALLDATASIZE SUB DUP2 ADD SWAP1 PUSH2 0x8AD SWAP2 SWAP1 PUSH2 0x2BCE JUMP JUMPDEST PUSH2 0x1B0A JUMP JUMPDEST STOP JUMPDEST CALLVALUE DUP1 ISZERO PUSH2 0x8BF JUMPI PUSH0 DUP1 REVERT JUMPDEST POP PUSH2 0x8DA PUSH1 0x4 DUP1 CALLDATASIZE SUB DUP2 ADD SWAP1 PUSH2 0x8D5 SWAP2 SWAP1 PUSH2 0x2CE9 JUMP JUMPDEST PUSH2 0x1B2C JUMP JUMPDEST PUSH1 0x40 MLOAD PUSH2 0x8E7 SWAP2 SWAP1 PUSH2 0x2ADF JUMP JUMPDEST PUSH1 0x40 MLOAD DUP1 SWAP2 SUB SWAP1 RETURN JUMPDEST CALLVALUE DUP1 ISZERO PUSH2 0x8FB JUMPI PUSH0 DUP1 REVERT JUMPDEST POP PUSH2 0x904 PUSH2 0x1BAE JUMP JUMPDEST PUSH1 0x40 MLOAD PUSH2 0x911 SWAP2 SWAP1 PUSH2 0x28C9 JUMP JUMPDEST PUSH1 0x40 MLOAD DUP1 SWAP2 SUB SWAP1 RETURN JUMPDEST CALLVALUE DUP1 ISZERO PUSH2 0x925 JUMPI PUSH0 DUP1 REVERT JUMPDEST POP PUSH2 0x940 PUSH1 0x4 DUP1 CALLDATASIZE SUB DUP2 ADD SWAP1 PUSH2 0x93B SWAP2 SWAP1 PUSH2 0x2C40 JUMP JUMPDEST PUSH2 0x1BC0 JUMP JUMPDEST STOP JUMPDEST PUSH0 PUSH32 0x7965DB0B00000000000000000000000000000000000000000000000000000000 PUSH28 0xFFFFFFFFFFFFFFFFFFFFFFFFFFFFFFFFFFFFFFFFFFFFFFFFFFFFFFFF NOT AND DUP3 PUSH28 0xFFFFFFFFFFFFFFFFFFFFFFFFFFFFFFFFFFFFFFFFFFFFFFFFFFFFFFFF NOT AND EQ DUP1 PUSH2 0x9B4 JUMPI POP PUSH2 0x9B3 DUP3 PUSH2 0x1C44 JUMP JUMPDEST JUMPDEST SWAP1 POP SWAP2 SWAP1 POP JUMP JUMPDEST PUSH1 0x60 PUSH1 0x3 DUP1 SLOAD PUSH2 0x9CA SWAP1 PUSH2 0x2D54 JUMP JUMPDEST DUP1 PUSH1 0x1F ADD PUSH1 0x20 DUP1 SWAP2 DIV MUL PUSH1 0x20 ADD PUSH1 0x40 MLOAD SWAP1 DUP2 ADD PUSH1 0x40 MSTORE DUP1 SWAP3 SWAP2 SWAP1 DUP2 DUP2 MSTORE PUSH1 0x20 ADD DUP3 DUP1 SLOAD PUSH2 0x9F6 SWAP1 PUSH2 0x2D54 JUMP JUMPDEST DUP1 ISZERO PUSH2 0xA41 JUMPI DUP1 PUSH1 0x1F LT PUSH2 0xA18 JUMPI PUSH2 0x100 DUP1 DUP4 SLOAD DIV MUL DUP4 MSTORE SWAP2 PUSH1 0x20 ADD SWAP2 PUSH2 0xA41 JUMP JUMPDEST DUP3 ADD SWAP2 SWAP1 PUSH0 MSTORE PUSH1 0x20 PUSH0 KECCAK256 SWAP1 JUMPDEST DUP2 SLOAD DUP2 MSTORE SWAP1 PUSH1 0x1 ADD SWAP1 PUSH1 0x20 ADD DUP1 DUP4 GT PUSH2 0xA24 JUMPI DUP3 SWAP1 SUB PUSH1 0x1F AND DUP3 ADD SWAP2 JUMPDEST POP POP POP POP POP SWAP1 POP SWAP1 JUMP JUMPDEST PUSH0 DUP1 PUSH2 0xA55 PUSH2 0x1CAD JUMP JUMPDEST SWAP1 POP PUSH2 0xA62 DUP2 DUP6 DUP6 PUSH2 0x1CB4 JUMP JUMPDEST PUSH1 0x1 SWAP2 POP POP SWAP3 SWAP2 POP POP JUMP JUMPDEST PUSH2 0xA75 PUSH2 0x1CC6 JUMP JUMPDEST PUSH0 PUSH20 0xFFFFFFFFFFFFFFFFFFFFFFFFFFFFFFFFFFFFFFFF AND DUP3 PUSH20 0xFFFFFFFFFFFFFFFFFFFFFFFFFFFFFFFFFFFFFFFF AND SUB PUSH2 0xAE3 JUMPI PUSH1 0x40 MLOAD PUSH32 0x8C379A000000000000000000000000000000000000000000000000000000000 DUP2 MSTORE PUSH1 0x4 ADD PUSH2 0xADA SWAP1 PUSH2 0x2DCE JUMP JUMPDEST PUSH1 0x40 MLOAD DUP1 SWAP2 SUB SWAP1 REVERT JUMPDEST SELFBALANCE DUP2 GT ISZERO PUSH2 0xB26 JUMPI PUSH1 0x40 MLOAD PUSH32 0x8C379A000000000000000000000000000000000000000000000000000000000 DUP2 MSTORE PUSH1 0x4 ADD PUSH2 0xB1D SWAP1 PUSH2 0x2E36 JUMP JUMPDEST PUSH1 0x40 MLOAD DUP1 SWAP2 SUB SWAP1 REVERT JUMPDEST DUP2 PUSH20 0xFFFFFFFFFFFFFFFFFFFFFFFFFFFFFFFFFFFFFFFF AND PUSH2 0x8FC DUP3 SWAP1 DUP2 ISZERO MUL SWAP1 PUSH1 0x40 MLOAD PUSH0 PUSH1 0x40 MLOAD DUP1 DUP4 SUB DUP2 DUP6 DUP9 DUP9 CALL SWAP4 POP POP POP POP ISZERO DUP1 ISZERO PUSH2 0xB69 JUMPI RETURNDATASIZE PUSH0 DUP1 RETURNDATACOPY RETURNDATASIZE PUSH0 REVERT JUMPDEST POP DUP2 PUSH20 0xFFFFFFFFFFFFFFFFFFFFFFFFFFFFFFFFFFFFFFFF AND PUSH32 0xE3EB98B7FE2A0C1D490B92AF73EEAE611E9B00AB3C3F70B20BD7BB43F67A0F43 DUP3 PUSH1 0x40 MLOAD PUSH2 0xBB0 SWAP2 SWAP1 PUSH2 0x2ADF JUMP JUMPDEST PUSH1 0x40 MLOAD DUP1 SWAP2 SUB SWAP1 LOG2 POP POP JUMP JUMPDEST PUSH0 PUSH1 0x2 SLOAD SWAP1 POP SWAP1 JUMP JUMPDEST PUSH0 DUP1 PUSH2 0xBCF PUSH2 0x1CAD JUMP JUMPDEST SWAP1 POP PUSH2 0xBDC DUP6 DUP3 DUP6 PUSH2 0x1D4D JUMP JUMPDEST PUSH2 0xBE7 DUP6 DUP6 DUP6 PUSH2 0x1DE0 JUMP JUMPDEST PUSH1 0x1 SWAP2 POP POP SWAP4 SWAP3 POP POP POP JUMP JUMPDEST PUSH0 PUSH1 0x5 PUSH0 DUP4 DUP2 MSTORE PUSH1 0x20 ADD SWAP1 DUP2 MSTORE PUSH1 0x20 ADD PUSH0 KECCAK256 PUSH1 0x1 ADD SLOAD SWAP1 POP SWAP2 SWAP1 POP JUMP JUMPDEST PUSH1 0x8 SLOAD DUP2 JUMP JUMPDEST PUSH2 0xC1F DUP3 PUSH2 0xBF3 JUMP JUMPDEST PUSH2 0xC28 DUP2 PUSH2 0x1ED0 JUMP JUMPDEST PUSH2 0xC32 DUP4 DUP4 PUSH2 0x1EE4 JUMP JUMPDEST POP POP POP POP JUMP JUMPDEST PUSH1 0x12 PUSH1 0xFF AND PUSH1 0xA PUSH2 0xC49 SWAP2 SWAP1 PUSH2 0x2FB0 JUMP JUMPDEST PUSH4 0x3B9ACA00 PUSH2 0xC58 SWAP2 SWAP1 PUSH2 0x2FFA JUMP JUMPDEST DUP2 JUMP JUMPDEST PUSH0 PUSH1 0x12 SWAP1 POP SWAP1 JUMP JUMPDEST PUSH1 0x12 PUSH1 0xFF AND PUSH1 0xA PUSH2 0xC74 SWAP2 SWAP1 PUSH2 0x2FB0 JUMP JUMPDEST PUSH5 0x2540BE400 PUSH2 0xC84 SWAP2 SWAP1 PUSH2 0x2FFA JUMP JUMPDEST DUP2 JUMP JUMPDEST PUSH2 0xC8F PUSH2 0x1CAD JUMP JUMPDEST PUSH20 0xFFFFFFFFFFFFFFFFFFFFFFFFFFFFFFFFFFFFFFFF AND DUP2 PUSH20 0xFFFFFFFFFFFFFFFFFFFFFFFFFFFFFFFFFFFFFFFF AND EQ PUSH2 0xCF3 JUMPI PUSH1 0x40 MLOAD PUSH32 0x6697B23200000000000000000000000000000000000000000000000000000000 DUP2 MSTORE PUSH1 0x4 ADD PUSH1 0x40 MLOAD DUP1 SWAP2 SUB SWAP1 REVERT JUMPDEST PUSH2 0xCFD DUP3 DUP3 PUSH2 0x1FCE JUMP JUMPDEST POP POP POP JUMP JUMPDEST PUSH2 0xD0A PUSH2 0x1CC6 JUMP JUMPDEST PUSH2 0xD34 PUSH32 0x9F2DF0FED2C77648DE5860A4CC508CD0818C85B8B8A1AB4CEEEF8D981C8956A6 DUP3 PUSH2 0x1EE4 JUMP JUMPDEST POP POP JUMP JUMPDEST PUSH32 0x9F2DF0FED2C77648DE5860A4CC508CD0818C85B8B8A1AB4CEEEF8D981C8956A6 PUSH2 0xD62 DUP2 PUSH2 0x1ED0 JUMP JUMPDEST PUSH1 0x9 PUSH0 SWAP1 SLOAD SWAP1 PUSH2 0x100 EXP SWAP1 DIV PUSH1 0xFF AND ISZERO PUSH2 0xDB1 JUMPI PUSH1 0x40 MLOAD PUSH32 0x8C379A000000000000000000000000000000000000000000000000000000000 DUP2 MSTORE PUSH1 0x4 ADD PUSH2 0xDA8 SWAP1 PUSH2 0x3085 JUMP JUMPDEST PUSH1 0x40 MLOAD DUP1 SWAP2 SUB SWAP1 REVERT JUMPDEST PUSH1 0x7 DUP1 SLOAD SWAP1 POP PUSH1 0x8 SLOAD LT PUSH2 0xDFA JUMPI PUSH1 0x40 MLOAD PUSH32 0x8C379A000000000000000000000000000000000000000000000000000000000 DUP2 MSTORE PUSH1 0x4 ADD PUSH2 0xDF1 SWAP1 PUSH2 0x30ED JUMP JUMPDEST PUSH1 0x40 MLOAD DUP1 SWAP2 SUB SWAP1 REVERT JUMPDEST PUSH0 PUSH1 0x7 PUSH1 0x8 SLOAD DUP2 SLOAD DUP2 LT PUSH2 0xE11 JUMPI PUSH2 0xE10 PUSH2 0x310B JUMP JUMPDEST JUMPDEST SWAP1 PUSH0 MSTORE PUSH1 0x20 PUSH0 KECCAK256 ADD SLOAD SWAP1 POP DUP1 TIMESTAMP LT ISZERO PUSH2 0xE5F JUMPI PUSH1 0x40 MLOAD PUSH32 0x8C379A000000000000000000000000000000000000000000000000000000000 DUP2 MSTORE PUSH1 0x4 ADD PUSH2 0xE56 SWAP1 PUSH2 0x31A8 JUMP JUMPDEST PUSH1 0x40 MLOAD DUP1 SWAP2 SUB SWAP1 REVERT JUMPDEST PUSH0 PUSH2 0xE68 PUSH2 0xBBC JUMP JUMPDEST SWAP1 POP PUSH1 0x12 PUSH1 0xFF AND PUSH1 0xA PUSH2 0xE7B SWAP2 SWAP1 PUSH2 0x2FB0 JUMP JUMPDEST PUSH5 0x2540BE400 PUSH2 0xE8B SWAP2 SWAP1 PUSH2 0x2FFA JUMP JUMPDEST PUSH1 0x12 PUSH1 0xFF AND PUSH1 0xA PUSH2 0xE9C SWAP2 SWAP1 PUSH2 0x2FB0 JUMP JUMPDEST PUSH4 0x3B9ACA00 PUSH2 0xEAB SWAP2 SWAP1 PUSH2 0x2FFA JUMP JUMPDEST DUP3 PUSH2 0xEB6 SWAP2 SWAP1 PUSH2 0x31C6 JUMP JUMPDEST GT ISZERO PUSH2 0xEF7 JUMPI PUSH1 0x40 MLOAD PUSH32 0x8C379A000000000000000000000000000000000000000000000000000000000 DUP2 MSTORE PUSH1 0x4 ADD PUSH2 0xEEE SWAP1 PUSH2 0x3243 JUMP JUMPDEST PUSH1 0x40 MLOAD DUP1 SWAP2 SUB SWAP1 REVERT JUMPDEST PUSH2 0xF27 PUSH2 0xF02 PUSH2 0x1524 JUMP JUMPDEST PUSH1 0x12 PUSH1 0xFF AND PUSH1 0xA PUSH2 0xF13 SWAP2 SWAP1 PUSH2 0x2FB0 JUMP JUMPDEST PUSH4 0x3B9ACA00 PUSH2 0xF22 SWAP2 SWAP1 PUSH2 0x2FFA JUMP JUMPDEST PUSH2 0x20B8 JUMP JUMPDEST PUSH2 0xF2F PUSH2 0x1524 JUMP JUMPDEST PUSH20 0xFFFFFFFFFFFFFFFFFFFFFFFFFFFFFFFFFFFFFFFF AND PUSH32 0xE8CCED2832690B941C3B15AC00E7E0CE2D3AA09000CD7535508C9221C1060C7 PUSH1 0x12 PUSH1 0xFF AND PUSH1 0xA PUSH2 0xF77 SWAP2 SWAP1 PUSH2 0x2FB0 JUMP JUMPDEST PUSH4 0x3B9ACA00 PUSH2 0xF86 SWAP2 SWAP1 PUSH2 0x2FFA JUMP JUMPDEST TIMESTAMP PUSH2 0xF8F PUSH2 0xBBC JUMP JUMPDEST PUSH1 0x40 MLOAD PUSH2 0xF9E SWAP4 SWAP3 SWAP2 SWAP1 PUSH2 0x3261 JUMP JUMPDEST PUSH1 0x40 MLOAD DUP1 SWAP2 SUB SWAP1 LOG2 PUSH1 0x1 PUSH1 0x8 PUSH0 DUP3 DUP3 SLOAD PUSH2 0xFB8 SWAP2 SWAP1 PUSH2 0x31C6 JUMP JUMPDEST SWAP3 POP POP DUP2 SWAP1 SSTORE POP POP POP POP JUMP JUMPDEST PUSH2 0xFCC PUSH2 0x1CC6 JUMP JUMPDEST PUSH2 0xFF6 PUSH32 0x52BA824BFABC2BCFCDF7F0EDBB486EBB05E1836C90E78047EFEB949990F72E5F DUP3 PUSH2 0x1EE4 JUMP JUMPDEST POP POP JUMP JUMPDEST PUSH2 0x1002 PUSH2 0x1CC6 JUMP JUMPDEST PUSH2 0x102C PUSH32 0x9F2DF0FED2C77648DE5860A4CC508CD0818C85B8B8A1AB4CEEEF8D981C8956A6 DUP3 PUSH2 0x1B0A JUMP JUMPDEST POP JUMP JUMPDEST PUSH2 0x1037 PUSH2 0x1CC6 JUMP JUMPDEST PUSH0 PUSH1 0x9 PUSH0 PUSH2 0x100 EXP DUP2 SLOAD DUP2 PUSH1 0xFF MUL NOT AND SWAP1 DUP4 ISZERO ISZERO MUL OR SWAP1 SSTORE POP PUSH2 0x1058 PUSH2 0x1CAD JUMP JUMPDEST PUSH20 0xFFFFFFFFFFFFFFFFFFFFFFFFFFFFFFFFFFFFFFFF AND PUSH32 0xF036A640940749AA9C9995BEEE1B92AF0E81C4146443CA049F1A71E9DB3B9745 TIMESTAMP PUSH1 0x40 MLOAD PUSH2 0x109D SWAP2 SWAP1 PUSH2 0x2ADF JUMP JUMPDEST PUSH1 0x40 MLOAD DUP1 SWAP2 SUB SWAP1 LOG2 JUMP JUMPDEST PUSH2 0x10AF PUSH2 0x1CC6 JUMP JUMPDEST PUSH1 0x1 PUSH1 0x9 PUSH0 PUSH2 0x100 EXP DUP2 SLOAD DUP2 PUSH1 0xFF MUL NOT AND SWAP1 DUP4 ISZERO ISZERO MUL OR SWAP1 SSTORE POP PUSH2 0x10D1 PUSH2 0x1CAD JUMP JUMPDEST PUSH20 0xFFFFFFFFFFFFFFFFFFFFFFFFFFFFFFFFFFFFFFFF AND PUSH32 0xCEC7EB7D76573077D1643CFBEA3F1E4DA629BBD107E59871677E581159210056 TIMESTAMP PUSH1 0x40 MLOAD PUSH2 0x1116 SWAP2 SWAP1 PUSH2 0x2ADF JUMP JUMPDEST PUSH1 0x40 MLOAD DUP1 SWAP2 SUB SWAP1 LOG2 JUMP JUMPDEST PUSH0 DUP1 PUSH0 DUP4 PUSH20 0xFFFFFFFFFFFFFFFFFFFFFFFFFFFFFFFFFFFFFFFF AND PUSH20 0xFFFFFFFFFFFFFFFFFFFFFFFFFFFFFFFFFFFFFFFF AND DUP2 MSTORE PUSH1 0x20 ADD SWAP1 DUP2 MSTORE PUSH1 0x20 ADD PUSH0 KECCAK256 SLOAD SWAP1 POP SWAP2 SWAP1 POP JUMP JUMPDEST PUSH2 0x116D PUSH2 0x1CC6 JUMP JUMPDEST PUSH2 0x1176 PUSH0 PUSH2 0x2137 JUMP JUMPDEST JUMP JUMPDEST PUSH1 0x7 DUP2 DUP2 SLOAD DUP2 LT PUSH2 0x1187 JUMPI PUSH0 DUP1 REVERT JUMPDEST SWAP1 PUSH0 MSTORE PUSH1 0x20 PUSH0 KECCAK256 ADD PUSH0 SWAP2 POP SWAP1 POP SLOAD DUP2 JUMP JUMPDEST PUSH32 0x52BA824BFABC2BCFCDF7F0EDBB486EBB05E1836C90E78047EFEB949990F72E5F PUSH2 0x11C2 DUP2 PUSH2 0x1ED0 JUMP JUMPDEST PUSH1 0x9 PUSH0 SWAP1 SLOAD SWAP1 PUSH2 0x100 EXP SWAP1 DIV PUSH1 0xFF AND ISZERO PUSH2 0x1211 JUMPI PUSH1 0x40 MLOAD PUSH32 0x8C379A000000000000000000000000000000000000000000000000000000000 DUP2 MSTORE PUSH1 0x4 ADD PUSH2 0x1208 SWAP1 PUSH2 0x3085 JUMP JUMPDEST PUSH1 0x40 MLOAD DUP1 SWAP2 SUB SWAP1 REVERT JUMPDEST PUSH0 PUSH20 0xFFFFFFFFFFFFFFFFFFFFFFFFFFFFFFFFFFFFFFFF AND DUP4 PUSH20 0xFFFFFFFFFFFFFFFFFFFFFFFFFFFFFFFFFFFFFFFF AND SUB PUSH2 0x127F JUMPI PUSH1 0x40 MLOAD PUSH32 0x8C379A000000000000000000000000000000000000000000000000000000000 DUP2 MSTORE PUSH1 0x4 ADD PUSH2 0x1276 SWAP1 PUSH2 0x32E0 JUMP JUMPDEST PUSH1 0x40 MLOAD DUP1 SWAP2 SUB SWAP1 REVERT JUMPDEST PUSH2 0x1289 DUP4 DUP4 PUSH2 0x21FA JUMP JUMPDEST PUSH2 0x1291 PUSH2 0x1CAD JUMP JUMPDEST PUSH20 0xFFFFFFFFFFFFFFFFFFFFFFFFFFFFFFFFFFFFFFFF AND DUP4 PUSH20 0xFFFFFFFFFFFFFFFFFFFFFFFFFFFFFFFFFFFFFFFF AND PUSH32 0x32F9B14980D51F40BA4119C33DAF3D6700E0ED2820178703454E311DA0C58A73 DUP5 PUSH1 0x40 MLOAD PUSH2 0x12ED SWAP2 SWAP1 PUSH2 0x2ADF JUMP JUMPDEST PUSH1 0x40 MLOAD DUP1 SWAP2 SUB SWAP1 LOG3 POP POP POP JUMP JUMPDEST PUSH0 PUSH1 0x7 DUP1 SLOAD SWAP1 POP PUSH1 0x8 SLOAD LT PUSH2 0x1311 JUMPI PUSH0 SWAP1 POP PUSH2 0x1327 JUMP JUMPDEST PUSH1 0x8 SLOAD PUSH1 0x7 DUP1 SLOAD SWAP1 POP PUSH2 0x1324 SWAP2 SWAP1 PUSH2 0x32FE JUMP JUMPDEST SWAP1 POP JUMPDEST SWAP1 JUMP JUMPDEST PUSH1 0x12 PUSH1 0xFF AND PUSH1 0xA PUSH2 0x133B SWAP2 SWAP1 PUSH2 0x2FB0 JUMP JUMPDEST PUSH4 0x3B9ACA00 PUSH2 0x134A SWAP2 SWAP1 PUSH2 0x2FFA JUMP JUMPDEST DUP2 JUMP JUMPDEST PUSH32 0x52BA824BFABC2BCFCDF7F0EDBB486EBB05E1836C90E78047EFEB949990F72E5F PUSH2 0x1377 DUP2 PUSH2 0x1ED0 JUMP JUMPDEST PUSH1 0x9 PUSH0 SWAP1 SLOAD SWAP1 PUSH2 0x100 EXP SWAP1 DIV PUSH1 0xFF AND ISZERO PUSH2 0x13C6 JUMPI PUSH1 0x40 MLOAD PUSH32 0x8C379A000000000000000000000000000000000000000000000000000000000 DUP2 MSTORE PUSH1 0x4 ADD PUSH2 0x13BD SWAP1 PUSH2 0x3085 JUMP JUMPDEST PUSH1 0x40 MLOAD DUP1 SWAP2 SUB SWAP1 REVERT JUMPDEST PUSH0 PUSH20 0xFFFFFFFFFFFFFFFFFFFFFFFFFFFFFFFFFFFFFFFF AND DUP4 PUSH20 0xFFFFFFFFFFFFFFFFFFFFFFFFFFFFFFFFFFFFFFFF AND SUB PUSH2 0x1434 JUMPI PUSH1 0x40 MLOAD PUSH32 0x8C379A000000000000000000000000000000000000000000000000000000000 DUP2 MSTORE PUSH1 0x4 ADD PUSH2 0x142B SWAP1 PUSH2 0x337B JUMP JUMPDEST PUSH1 0x40 MLOAD DUP1 SWAP2 SUB SWAP1 REVERT JUMPDEST PUSH1 0x12 PUSH1 0xFF AND PUSH1 0xA PUSH2 0x1445 SWAP2 SWAP1 PUSH2 0x2FB0 JUMP JUMPDEST PUSH5 0x2540BE400 PUSH2 0x1455 SWAP2 SWAP1 PUSH2 0x2FFA JUMP JUMPDEST DUP3 PUSH2 0x145E PUSH2 0xBBC JUMP JUMPDEST PUSH2 0x1468 SWAP2 SWAP1 PUSH2 0x31C6 JUMP JUMPDEST GT ISZERO PUSH2 0x14A9 JUMPI PUSH1 0x40 MLOAD PUSH32 0x8C379A000000000000000000000000000000000000000000000000000000000 DUP2 MSTORE PUSH1 0x4 ADD PUSH2 0x14A0 SWAP1 PUSH2 0x3243 JUMP JUMPDEST PUSH1 0x40 MLOAD DUP1 SWAP2 SUB SWAP1 REVERT JUMPDEST PUSH2 0x14B3 DUP4 DUP4 PUSH2 0x20B8 JUMP JUMPDEST PUSH2 0x14BB PUSH2 0x1CAD JUMP JUMPDEST PUSH20 0xFFFFFFFFFFFFFFFFFFFFFFFFFFFFFFFFFFFFFFFF AND DUP4 PUSH20 0xFFFFFFFFFFFFFFFFFFFFFFFFFFFFFFFFFFFFFFFF AND PUSH32 0xC6C954B09524700CCC368D1FAC1E0623FC58BB1B87083F807332FE19F667DBE DUP5 PUSH1 0x40 MLOAD PUSH2 0x1517 SWAP2 SWAP1 PUSH2 0x2ADF JUMP JUMPDEST PUSH1 0x40 MLOAD DUP1 SWAP2 SUB SWAP1 LOG3 POP POP POP JUMP JUMPDEST PUSH0 PUSH1 0x6 PUSH0 SWAP1 SLOAD SWAP1 PUSH2 0x100 EXP SWAP1 DIV PUSH20 0xFFFFFFFFFFFFFFFFFFFFFFFFFFFFFFFFFFFFFFFF AND SWAP1 POP SWAP1 JUMP JUMPDEST PUSH0 PUSH1 0x5 PUSH0 DUP5 DUP2 MSTORE PUSH1 0x20 ADD SWAP1 DUP2 MSTORE PUSH1 0x20 ADD PUSH0 KECCAK256 PUSH0 ADD PUSH0 DUP4 PUSH20 0xFFFFFFFFFFFFFFFFFFFFFFFFFFFFFFFFFFFFFFFF AND PUSH20 0xFFFFFFFFFFFFFFFFFFFFFFFFFFFFFFFFFFFFFFFF AND DUP2 MSTORE PUSH1 0x20 ADD SWAP1 DUP2 MSTORE PUSH1 0x20 ADD PUSH0 KECCAK256 PUSH0 SWAP1 SLOAD SWAP1 PUSH2 0x100 EXP SWAP1 DIV PUSH1 0xFF AND SWAP1 POP SWAP3 SWAP2 POP POP JUMP JUMPDEST PUSH1 0x60 PUSH1 0x4 DUP1 SLOAD PUSH2 0x15BF SWAP1 PUSH2 0x2D54 JUMP JUMPDEST DUP1 PUSH1 0x1F ADD PUSH1 0x20 DUP1 SWAP2 DIV MUL PUSH1 0x20 ADD PUSH1 0x40 MLOAD SWAP1 DUP2 ADD PUSH1 0x40 MSTORE DUP1 SWAP3 SWAP2 SWAP1 DUP2 DUP2 MSTORE PUSH1 0x20 ADD DUP3 DUP1 SLOAD PUSH2 0x15EB SWAP1 PUSH2 0x2D54 JUMP JUMPDEST DUP1 ISZERO PUSH2 0x1636 JUMPI DUP1 PUSH1 0x1F LT PUSH2 0x160D JUMPI PUSH2 0x100 DUP1 DUP4 SLOAD DIV MUL DUP4 MSTORE SWAP2 PUSH1 0x20 ADD SWAP2 PUSH2 0x1636 JUMP JUMPDEST DUP3 ADD SWAP2 SWAP1 PUSH0 MSTORE PUSH1 0x20 PUSH0 KECCAK256 SWAP1 JUMPDEST DUP2 SLOAD DUP2 MSTORE SWAP1 PUSH1 0x1 ADD SWAP1 PUSH1 0x20 ADD DUP1 DUP4 GT PUSH2 0x1619 JUMPI DUP3 SWAP1 SUB PUSH1 0x1F AND DUP3 ADD SWAP2 JUMPDEST POP POP POP POP POP SWAP1 POP SWAP1 JUMP JUMPDEST PUSH0 DUP1 SHL DUP2 JUMP JUMPDEST PUSH0 DUP1 PUSH2 0x1650 PUSH2 0x1CAD JUMP JUMPDEST SWAP1 POP PUSH2 0x165D DUP2 DUP6 DUP6 PUSH2 0x1DE0 JUMP JUMPDEST PUSH1 0x1 SWAP2 POP POP SWAP3 SWAP2 POP POP JUMP JUMPDEST PUSH2 0x1670 PUSH2 0x1CC6 JUMP JUMPDEST PUSH2 0x169A PUSH32 0x52BA824BFABC2BCFCDF7F0EDBB486EBB05E1836C90E78047EFEB949990F72E5F DUP3 PUSH2 0x1B0A JUMP JUMPDEST POP JUMP JUMPDEST PUSH2 0x16A5 PUSH2 0x1CC6 JUMP JUMPDEST PUSH0 PUSH20 0xFFFFFFFFFFFFFFFFFFFFFFFFFFFFFFFFFFFFFFFF AND DUP3 PUSH20 0xFFFFFFFFFFFFFFFFFFFFFFFFFFFFFFFFFFFFFFFF AND SUB PUSH2 0x1713 JUMPI PUSH1 0x40 MLOAD PUSH32 0x8C379A000000000000000000000000000000000000000000000000000000000 DUP2 MSTORE PUSH1 0x4 ADD PUSH2 0x170A SWAP1 PUSH2 0x2DCE JUMP JUMPDEST PUSH1 0x40 MLOAD DUP1 SWAP2 SUB SWAP1 REVERT JUMPDEST PUSH2 0x173E DUP3 DUP3 DUP6 PUSH20 0xFFFFFFFFFFFFFFFFFFFFFFFFFFFFFFFFFFFFFFFF AND PUSH2 0x2279 SWAP1 SWAP3 SWAP2 SWAP1 PUSH4 0xFFFFFFFF AND JUMP JUMPDEST DUP2 PUSH20 0xFFFFFFFFFFFFFFFFFFFFFFFFFFFFFFFFFFFFFFFF AND DUP4 PUSH20 0xFFFFFFFFFFFFFFFFFFFFFFFFFFFFFFFFFFFFFFFF AND PUSH32 0x4143F7B5CB6EA007914C32B8A3E64CEBC051D7F493FA0755454DA1E47701E125 DUP4 PUSH1 0x40 MLOAD PUSH2 0x179B SWAP2 SWAP1 PUSH2 0x2ADF JUMP JUMPDEST PUSH1 0x40 MLOAD DUP1 SWAP2 SUB SWAP1 LOG3 POP POP POP JUMP JUMPDEST PUSH32 0x52BA824BFABC2BCFCDF7F0EDBB486EBB05E1836C90E78047EFEB949990F72E5F DUP2 JUMP JUMPDEST PUSH2 0x17D4 PUSH2 0x1CC6 JUMP JUMPDEST PUSH0 PUSH20 0xFFFFFFFFFFFFFFFFFFFFFFFFFFFFFFFFFFFFFFFF AND DUP2 PUSH20 0xFFFFFFFFFFFFFFFFFFFFFFFFFFFFFFFFFFFFFFFF AND SUB PUSH2 0x1842 JUMPI PUSH1 0x40 MLOAD PUSH32 0x8C379A000000000000000000000000000000000000000000000000000000000 DUP2 MSTORE PUSH1 0x4 ADD PUSH2 0x1839 SWAP1 PUSH2 0x2DCE JUMP JUMPDEST PUSH1 0x40 MLOAD DUP1 SWAP2 SUB SWAP1 REVERT JUMPDEST PUSH0 SELFBALANCE SWAP1 POP PUSH0 DUP2 GT PUSH2 0x1888 JUMPI PUSH1 0x40 MLOAD PUSH32 0x8C379A000000000000000000000000000000000000000000000000000000000 DUP2 MSTORE PUSH1 0x4 ADD PUSH2 0x187F SWAP1 PUSH2 0x33E3 JUMP JUMPDEST PUSH1 0x40 MLOAD DUP1 SWAP2 SUB SWAP1 REVERT JUMPDEST DUP2 PUSH20 0xFFFFFFFFFFFFFFFFFFFFFFFFFFFFFFFFFFFFFFFF AND PUSH2 0x8FC DUP3 SWAP1 DUP2 ISZERO MUL SWAP1 PUSH1 0x40 MLOAD PUSH0 PUSH1 0x40 MLOAD DUP1 DUP4 SUB DUP2 DUP6 DUP9 DUP9 CALL SWAP4 POP POP POP POP ISZERO DUP1 ISZERO PUSH2 0x18CB JUMPI RETURNDATASIZE PUSH0 DUP1 RETURNDATACOPY RETURNDATASIZE PUSH0 REVERT JUMPDEST POP DUP2 PUSH20 0xFFFFFFFFFFFFFFFFFFFFFFFFFFFFFFFFFFFFFFFF AND PUSH32 0xE3EB98B7FE2A0C1D490B92AF73EEAE611E9B00AB3C3F70B20BD7BB43F67A0F43 DUP3 PUSH1 0x40 MLOAD PUSH2 0x1912 SWAP2 SWAP1 PUSH2 0x2ADF JUMP JUMPDEST PUSH1 0x40 MLOAD DUP1 SWAP2 SUB SWAP1 LOG2 POP POP JUMP JUMPDEST PUSH2 0x1926 PUSH2 0x1CC6 JUMP JUMPDEST PUSH0 PUSH20 0xFFFFFFFFFFFFFFFFFFFFFFFFFFFFFFFFFFFFFFFF AND DUP2 PUSH20 0xFFFFFFFFFFFFFFFFFFFFFFFFFFFFFFFFFFFFFFFF AND SUB PUSH2 0x1994 JUMPI PUSH1 0x40 MLOAD PUSH32 0x8C379A000000000000000000000000000000000000000000000000000000000 DUP2 MSTORE PUSH1 0x4 ADD PUSH2 0x198B SWAP1 PUSH2 0x2DCE JUMP JUMPDEST PUSH1 0x40 MLOAD DUP1 SWAP2 SUB SWAP1 REVERT JUMPDEST PUSH0 DUP3 PUSH20 0xFFFFFFFFFFFFFFFFFFFFFFFFFFFFFFFFFFFFFFFF AND PUSH4 0x70A08231 ADDRESS PUSH1 0x40 MLOAD DUP3 PUSH4 0xFFFFFFFF AND PUSH1 0xE0 SHL DUP2 MSTORE PUSH1 0x4 ADD PUSH2 0x19CE SWAP2 SWAP1 PUSH2 0x2CA5 JUMP JUMPDEST PUSH1 0x20 PUSH1 0x40 MLOAD DUP1 DUP4 SUB DUP2 DUP7 GAS STATICCALL ISZERO DUP1 ISZERO PUSH2 0x19E9 JUMPI RETURNDATASIZE PUSH0 DUP1 RETURNDATACOPY RETURNDATASIZE PUSH0 REVERT JUMPDEST POP POP POP POP PUSH1 0x40 MLOAD RETURNDATASIZE PUSH1 0x1F NOT PUSH1 0x1F DUP3 ADD AND DUP3 ADD DUP1 PUSH1 0x40 MSTORE POP DUP2 ADD SWAP1 PUSH2 0x1A0D SWAP2 SWAP1 PUSH2 0x3415 JUMP JUMPDEST SWAP1 POP PUSH0 DUP2 GT PUSH2 0x1A51 JUMPI PUSH1 0x40 MLOAD PUSH32 0x8C379A000000000000000000000000000000000000000000000000000000000 DUP2 MSTORE PUSH1 0x4 ADD PUSH2 0x1A48 SWAP1 PUSH2 0x33E3 JUMP JUMPDEST PUSH1 0x40 MLOAD DUP1 SWAP2 SUB SWAP1 REVERT JUMPDEST PUSH2 0x1A7C DUP3 DUP3 DUP6 PUSH20 0xFFFFFFFFFFFFFFFFFFFFFFFFFFFFFFFFFFFFFFFF AND PUSH2 0x2279 SWAP1 SWAP3 SWAP2 SWAP1 PUSH4 0xFFFFFFFF AND JUMP JUMPDEST DUP2 PUSH20 0xFFFFFFFFFFFFFFFFFFFFFFFFFFFFFFFFFFFFFFFF AND DUP4 PUSH20 0xFFFFFFFFFFFFFFFFFFFFFFFFFFFFFFFFFFFFFFFF AND PUSH32 0x4143F7B5CB6EA007914C32B8A3E64CEBC051D7F493FA0755454DA1E47701E125 DUP4 PUSH1 0x40 MLOAD PUSH2 0x1AD9 SWAP2 SWAP1 PUSH2 0x2ADF JUMP JUMPDEST PUSH1 0x40 MLOAD DUP1 SWAP2 SUB SWAP1 LOG3 POP POP POP JUMP JUMPDEST PUSH32 0x9F2DF0FED2C77648DE5860A4CC508CD0818C85B8B8A1AB4CEEEF8D981C8956A6 DUP2 JUMP JUMPDEST PUSH2 0x1B13 DUP3 PUSH2 0xBF3 JUMP JUMPDEST PUSH2 0x1B1C DUP2 PUSH2 0x1ED0 JUMP JUMPDEST PUSH2 0x1B26 DUP4 DUP4 PUSH2 0x1FCE JUMP JUMPDEST POP POP POP POP JUMP JUMPDEST PUSH0 PUSH1 0x1 PUSH0 DUP5 PUSH20 0xFFFFFFFFFFFFFFFFFFFFFFFFFFFFFFFFFFFFFFFF AND PUSH20 0xFFFFFFFFFFFFFFFFFFFFFFFFFFFFFFFFFFFFFFFF AND DUP2 MSTORE PUSH1 0x20 ADD SWAP1 DUP2 MSTORE PUSH1 0x20 ADD PUSH0 KECCAK256 PUSH0 DUP4 PUSH20 0xFFFFFFFFFFFFFFFFFFFFFFFFFFFFFFFFFFFFFFFF AND PUSH20 0xFFFFFFFFFFFFFFFFFFFFFFFFFFFFFFFFFFFFFFFF AND DUP2 MSTORE PUSH1 0x20 ADD SWAP1 DUP2 MSTORE PUSH1 0x20 ADD PUSH0 KECCAK256 SLOAD SWAP1 POP SWAP3 SWAP2 POP POP JUMP JUMPDEST PUSH1 0x9 PUSH0 SWAP1 SLOAD SWAP1 PUSH2 0x100 EXP SWAP1 DIV PUSH1 0xFF AND DUP2 JUMP JUMPDEST PUSH2 0x1BC8 PUSH2 0x1CC6 JUMP JUMPDEST PUSH0 PUSH20 0xFFFFFFFFFFFFFFFFFFFFFFFFFFFFFFFFFFFFFFFF AND DUP2 PUSH20 0xFFFFFFFFFFFFFFFFFFFFFFFFFFFFFFFFFFFFFFFF AND SUB PUSH2 0x1C38 JUMPI PUSH0 PUSH1 0x40 MLOAD PUSH32 0x1E4FBDF700000000000000000000000000000000000000000000000000000000 DUP2 MSTORE PUSH1 0x4 ADD PUSH2 0x1C2F SWAP2 SWAP1 PUSH2 0x2CA5 JUMP JUMPDEST PUSH1 0x40 MLOAD DUP1 SWAP2 SUB SWAP1 REVERT JUMPDEST PUSH2 0x1C41 DUP2 PUSH2 0x2137 JUMP JUMPDEST POP JUMP JUMPDEST PUSH0 PUSH32 0x1FFC9A700000000000000000000000000000000000000000000000000000000 PUSH28 0xFFFFFFFFFFFFFFFFFFFFFFFFFFFFFFFFFFFFFFFFFFFFFFFFFFFFFFFF NOT AND DUP3 PUSH28 0xFFFFFFFFFFFFFFFFFFFFFFFFFFFFFFFFFFFFFFFFFFFFFFFFFFFFFFFF NOT AND EQ SWAP1 POP SWAP2 SWAP1 POP JUMP JUMPDEST PUSH0 CALLER SWAP1 POP SWAP1 JUMP JUMPDEST PUSH2 0x1CC1 DUP4 DUP4 DUP4 PUSH1 0x1 PUSH2 0x22F8 JUMP JUMPDEST POP POP POP JUMP JUMPDEST PUSH2 0x1CCE PUSH2 0x1CAD JUMP JUMPDEST PUSH20 0xFFFFFFFFFFFFFFFFFFFFFFFFFFFFFFFFFFFFFFFF AND PUSH2 0x1CEC PUSH2 0x1524 JUMP JUMPDEST PUSH20 0xFFFFFFFFFFFFFFFFFFFFFFFFFFFFFFFFFFFFFFFF AND EQ PUSH2 0x1D4B JUMPI PUSH2 0x1D0F PUSH2 0x1CAD JUMP JUMPDEST PUSH1 0x40 MLOAD PUSH32 0x118CDAA700000000000000000000000000000000000000000000000000000000 DUP2 MSTORE PUSH1 0x4 ADD PUSH2 0x1D42 SWAP2 SWAP1 PUSH2 0x2CA5 JUMP JUMPDEST PUSH1 0x40 MLOAD DUP1 SWAP2 SUB SWAP1 REVERT JUMPDEST JUMP JUMPDEST PUSH0 PUSH2 0x1D58 DUP5 DUP5 PUSH2 0x1B2C JUMP JUMPDEST SWAP1 POP PUSH32 0xFFFFFFFFFFFFFFFFFFFFFFFFFFFFFFFFFFFFFFFFFFFFFFFFFFFFFFFFFFFFFFFF DUP2 LT ISZERO PUSH2 0x1DDA JUMPI DUP2 DUP2 LT ISZERO PUSH2 0x1DCB JUMPI DUP3 DUP2 DUP4 PUSH1 0x40 MLOAD PUSH32 0xFB8F41B200000000000000000000000000000000000000000000000000000000 DUP2 MSTORE PUSH1 0x4 ADD PUSH2 0x1DC2 SWAP4 SWAP3 SWAP2 SWAP1 PUSH2 0x3440 JUMP JUMPDEST PUSH1 0x40 MLOAD DUP1 SWAP2 SUB SWAP1 REVERT JUMPDEST PUSH2 0x1DD9 DUP5 DUP5 DUP5 DUP5 SUB PUSH0 PUSH2 0x22F8 JUMP JUMPDEST JUMPDEST POP POP POP POP JUMP JUMPDEST PUSH0 PUSH20 0xFFFFFFFFFFFFFFFFFFFFFFFFFFFFFFFFFFFFFFFF AND DUP4 PUSH20 0xFFFFFFFFFFFFFFFFFFFFFFFFFFFFFFFFFFFFFFFF AND SUB PUSH2 0x1E50 JUMPI PUSH0 PUSH1 0x40 MLOAD PUSH32 0x96C6FD1E00000000000000000000000000000000000000000000000000000000 DUP2 MSTORE PUSH1 0x4 ADD PUSH2 0x1E47 SWAP2 SWAP1 PUSH2 0x2CA5 JUMP JUMPDEST PUSH1 0x40 MLOAD DUP1 SWAP2 SUB SWAP1 REVERT JUMPDEST PUSH0 PUSH20 0xFFFFFFFFFFFFFFFFFFFFFFFFFFFFFFFFFFFFFFFF AND DUP3 PUSH20 0xFFFFFFFFFFFFFFFFFFFFFFFFFFFFFFFFFFFFFFFF AND SUB PUSH2 0x1EC0 JUMPI PUSH0 PUSH1 0x40 MLOAD PUSH32 0xEC442F0500000000000000000000000000000000000000000000000000000000 DUP2 MSTORE PUSH1 0x4 ADD PUSH2 0x1EB7 SWAP2 SWAP1 PUSH2 0x2CA5 JUMP JUMPDEST PUSH1 0x40 MLOAD DUP1 SWAP2 SUB SWAP1 REVERT JUMPDEST PUSH2 0x1ECB DUP4 DUP4 DUP4 PUSH2 0x24C7 JUMP JUMPDEST POP POP POP JUMP JUMPDEST PUSH2 0x1EE1 DUP2 PUSH2 0x1EDC PUSH2 0x1CAD JUMP JUMPDEST PUSH2 0x2526 JUMP JUMPDEST POP JUMP JUMPDEST PUSH0 PUSH2 0x1EEF DUP4 DUP4 PUSH2 0x154C JUMP JUMPDEST PUSH2 0x1FC4 JUMPI PUSH1 0x1 PUSH1 0x5 PUSH0 DUP6 DUP2 MSTORE PUSH1 0x20 ADD SWAP1 DUP2 MSTORE PUSH1 0x20 ADD PUSH0 KECCAK256 PUSH0 ADD PUSH0 DUP5 PUSH20 0xFFFFFFFFFFFFFFFFFFFFFFFFFFFFFFFFFFFFFFFF AND PUSH20 0xFFFFFFFFFFFFFFFFFFFFFFFFFFFFFFFFFFFFFFFF AND DUP2 MSTORE PUSH1 0x20 ADD SWAP1 DUP2 MSTORE PUSH1 0x20 ADD PUSH0 KECCAK256 PUSH0 PUSH2 0x100 EXP DUP2 SLOAD DUP2 PUSH1 0xFF MUL NOT AND SWAP1 DUP4 ISZERO ISZERO MUL OR SWAP1 SSTORE POP PUSH2 0x1F61 PUSH2 0x1CAD JUMP JUMPDEST PUSH20 0xFFFFFFFFFFFFFFFFFFFFFFFFFFFFFFFFFFFFFFFF AND DUP3 PUSH20 0xFFFFFFFFFFFFFFFFFFFFFFFFFFFFFFFFFFFFFFFF AND DUP5 PUSH32 0x2F8788117E7EFF1D82E926EC794901D17C78024A50270940304540A733656F0D PUSH1 0x40 MLOAD PUSH1 0x40 MLOAD DUP1 SWAP2 SUB SWAP1 LOG4 PUSH1 0x1 SWAP1 POP PUSH2 0x1FC8 JUMP JUMPDEST PUSH0 SWAP1 POP JUMPDEST SWAP3 SWAP2 POP POP JUMP JUMPDEST PUSH0 PUSH2 0x1FD9 DUP4 DUP4 PUSH2 0x154C JUMP JUMPDEST ISZERO PUSH2 0x20AE JUMPI PUSH0 PUSH1 0x5 PUSH0 DUP6 DUP2 MSTORE PUSH1 0x20 ADD SWAP1 DUP2 MSTORE PUSH1 0x20 ADD PUSH0 KECCAK256 PUSH0 ADD PUSH0 DUP5 PUSH20 0xFFFFFFFFFFFFFFFFFFFFFFFFFFFFFFFFFFFFFFFF AND PUSH20 0xFFFFFFFFFFFFFFFFFFFFFFFFFFFFFFFFFFFFFFFF AND DUP2 MSTORE PUSH1 0x20 ADD SWAP1 DUP2 MSTORE PUSH1 0x20 ADD PUSH0 KECCAK256 PUSH0 PUSH2 0x100 EXP DUP2 SLOAD DUP2 PUSH1 0xFF MUL NOT AND SWAP1 DUP4 ISZERO ISZERO MUL OR SWAP1 SSTORE POP PUSH2 0x204B PUSH2 0x1CAD JUMP JUMPDEST PUSH20 0xFFFFFFFFFFFFFFFFFFFFFFFFFFFFFFFFFFFFFFFF AND DUP3 PUSH20 0xFFFFFFFFFFFFFFFFFFFFFFFFFFFFFFFFFFFFFFFF AND DUP5 PUSH32 0xF6391F5C32D9C69D2A47EA670B442974B53935D1EDC7FD64EB21E047A839171B PUSH1 0x40 MLOAD PUSH1 0x40 MLOAD DUP1 SWAP2 SUB SWAP1 LOG4 PUSH1 0x1 SWAP1 POP PUSH2 0x20B2 JUMP JUMPDEST PUSH0 SWAP1 POP JUMPDEST SWAP3 SWAP2 POP POP JUMP JUMPDEST PUSH0 PUSH20 0xFFFFFFFFFFFFFFFFFFFFFFFFFFFFFFFFFFFFFFFF AND DUP3 PUSH20 0xFFFFFFFFFFFFFFFFFFFFFFFFFFFFFFFFFFFFFFFF AND SUB PUSH2 0x2128 JUMPI PUSH0 PUSH1 0x40 MLOAD PUSH32 0xEC442F0500000000000000000000000000000000000000000000000000000000 DUP2 MSTORE PUSH1 0x4 ADD PUSH2 0x211F SWAP2 SWAP1 PUSH2 0x2CA5 JUMP JUMPDEST PUSH1 0x40 MLOAD DUP1 SWAP2 SUB SWAP1 REVERT JUMPDEST PUSH2 0x2133 PUSH0 DUP4 DUP4 PUSH2 0x24C7 JUMP JUMPDEST POP POP JUMP JUMPDEST PUSH0 PUSH1 0x6 PUSH0 SWAP1 SLOAD SWAP1 PUSH2 0x100 EXP SWAP1 DIV PUSH20 0xFFFFFFFFFFFFFFFFFFFFFFFFFFFFFFFFFFFFFFFF AND SWAP1 POP DUP2 PUSH1 0x6 PUSH0 PUSH2 0x100 EXP DUP2 SLOAD DUP2 PUSH20 0xFFFFFFFFFFFFFFFFFFFFFFFFFFFFFFFFFFFFFFFF MUL NOT AND SWAP1 DUP4 PUSH20 0xFFFFFFFFFFFFFFFFFFFFFFFFFFFFFFFFFFFFFFFF AND MUL OR SWAP1 SSTORE POP DUP2 PUSH20 0xFFFFFFFFFFFFFFFFFFFFFFFFFFFFFFFFFFFFFFFF AND DUP2 PUSH20 0xFFFFFFFFFFFFFFFFFFFFFFFFFFFFFFFFFFFFFFFF AND PUSH32 0x8BE0079C531659141344CD1FD0A4F28419497F9722A3DAAFE3B4186F6B6457E0 PUSH1 0x40 MLOAD PUSH1 0x40 MLOAD DUP1 SWAP2 SUB SWAP1 LOG3 POP POP JUMP JUMPDEST PUSH0 PUSH20 0xFFFFFFFFFFFFFFFFFFFFFFFFFFFFFFFFFFFFFFFF AND DUP3 PUSH20 0xFFFFFFFFFFFFFFFFFFFFFFFFFFFFFFFFFFFFFFFF AND SUB PUSH2 0x226A JUMPI PUSH0 PUSH1 0x40 MLOAD PUSH32 0x96C6FD1E00000000000000000000000000000000000000000000000000000000 DUP2 MSTORE PUSH1 0x4 ADD PUSH2 0x2261 SWAP2 SWAP1 PUSH2 0x2CA5 JUMP JUMPDEST PUSH1 0x40 MLOAD DUP1 SWAP2 SUB SWAP1 REVERT JUMPDEST PUSH2 0x2275 DUP3 PUSH0 DUP4 PUSH2 0x24C7 JUMP JUMPDEST POP POP JUMP JUMPDEST PUSH2 0x22F3 DUP4 DUP5 PUSH20 0xFFFFFFFFFFFFFFFFFFFFFFFFFFFFFFFFFFFFFFFF AND PUSH4 0xA9059CBB DUP6 DUP6 PUSH1 0x40 MLOAD PUSH1 0x24 ADD PUSH2 0x22AC SWAP3 SWAP2 SWAP1 PUSH2 0x3475 JUMP JUMPDEST PUSH1 0x40 MLOAD PUSH1 0x20 DUP2 DUP4 SUB SUB DUP2 MSTORE SWAP1 PUSH1 0x40 MSTORE SWAP2 POP PUSH1 0xE0 SHL PUSH1 0x20 DUP3 ADD DUP1 MLOAD PUSH28 0xFFFFFFFFFFFFFFFFFFFFFFFFFFFFFFFFFFFFFFFFFFFFFFFFFFFFFFFF DUP4 DUP2 DUP4 AND OR DUP4 MSTORE POP POP POP POP PUSH2 0x2577 JUMP JUMPDEST POP POP POP JUMP JUMPDEST PUSH0 PUSH20 0xFFFFFFFFFFFFFFFFFFFFFFFFFFFFFFFFFFFFFFFF AND DUP5 PUSH20 0xFFFFFFFFFFFFFFFFFFFFFFFFFFFFFFFFFFFFFFFF AND SUB PUSH2 0x2368 JUMPI PUSH0 PUSH1 0x40 MLOAD PUSH32 0xE602DF0500000000000000000000000000000000000000000000000000000000 DUP2 MSTORE PUSH1 0x4 ADD PUSH2 0x235F SWAP2 SWAP1 PUSH2 0x2CA5 JUMP JUMPDEST PUSH1 0x40 MLOAD DUP1 SWAP2 SUB SWAP1 REVERT JUMPDEST PUSH0 PUSH20 0xFFFFFFFFFFFFFFFFFFFFFFFFFFFFFFFFFFFFFFFF AND DUP4 PUSH20 0xFFFFFFFFFFFFFFFFFFFFFFFFFFFFFFFFFFFFFFFF AND SUB PUSH2 0x23D8 JUMPI PUSH0 PUSH1 0x40 MLOAD PUSH32 0x94280D6200000000000000000000000000000000000000000000000000000000 DUP2 MSTORE PUSH1 0x4 ADD PUSH2 0x23CF SWAP2 SWAP1 PUSH2 0x2CA5 JUMP JUMPDEST PUSH1 0x40 MLOAD DUP1 SWAP2 SUB SWAP1 REVERT JUMPDEST DUP2 PUSH1 0x1 PUSH0 DUP7 PUSH20 0xFFFFFFFFFFFFFFFFFFFFFFFFFFFFFFFFFFFFFFFF AND PUSH20 0xFFFFFFFFFFFFFFFFFFFFFFFFFFFFFFFFFFFFFFFF AND DUP2 MSTORE PUSH1 0x20 ADD SWAP1 DUP2 MSTORE PUSH1 0x20 ADD PUSH0 KECCAK256 PUSH0 DUP6 PUSH20 0xFFFFFFFFFFFFFFFFFFFFFFFFFFFFFFFFFFFFFFFF AND PUSH20 0xFFFFFFFFFFFFFFFFFFFFFFFFFFFFFFFFFFFFFFFF AND DUP2 MSTORE PUSH1 0x20 ADD SWAP1 DUP2 MSTORE PUSH1 0x20 ADD PUSH0 KECCAK256 DUP2 SWAP1 SSTORE POP DUP1 ISZERO PUSH2 0x24C1 JUMPI DUP3 PUSH20 0xFFFFFFFFFFFFFFFFFFFFFFFFFFFFFFFFFFFFFFFF AND DUP5 PUSH20 0xFFFFFFFFFFFFFFFFFFFFFFFFFFFFFFFFFFFFFFFF AND PUSH32 0x8C5BE1E5EBEC7D5BD14F71427D1E84F3DD0314C0F7B2291E5B200AC8C7C3B925 DUP5 PUSH1 0x40 MLOAD PUSH2 0x24B8 SWAP2 SWAP1 PUSH2 0x2ADF JUMP JUMPDEST PUSH1 0x40 MLOAD DUP1 SWAP2 SUB SWAP1 LOG3 JUMPDEST POP POP POP POP JUMP JUMPDEST PUSH1 0x9 PUSH0 SWAP1 SLOAD SWAP1 PUSH2 0x100 EXP SWAP1 DIV PUSH1 0xFF AND ISZERO PUSH2 0x2516 JUMPI PUSH1 0x40 MLOAD PUSH32 0x8C379A000000000000000000000000000000000000000000000000000000000 DUP2 MSTORE PUSH1 0x4 ADD PUSH2 0x250D SWAP1 PUSH2 0x3085 JUMP JUMPDEST PUSH1 0x40 MLOAD DUP1 SWAP2 SUB SWAP1 REVERT JUMPDEST PUSH2 0x2521 DUP4 DUP4 DUP4 PUSH2 0x2612 JUMP JUMPDEST POP POP POP JUMP JUMPDEST PUSH2 0x2530 DUP3 DUP3 PUSH2 0x154C JUMP JUMPDEST PUSH2 0x2573 JUMPI DUP1 DUP3 PUSH1 0x40 MLOAD PUSH32 0xE2517D3F00000000000000000000000000000000000000000000000000000000 DUP2 MSTORE PUSH1 0x4 ADD PUSH2 0x256A SWAP3 SWAP2 SWAP1 PUSH2 0x349C JUMP JUMPDEST PUSH1 0x40 MLOAD DUP1 SWAP2 SUB SWAP1 REVERT JUMPDEST POP POP JUMP JUMPDEST PUSH0 DUP1 PUSH1 0x20 PUSH0 DUP5 MLOAD PUSH1 0x20 DUP7 ADD PUSH0 DUP9 GAS CALL DUP1 PUSH2 0x2596 JUMPI PUSH1 0x40 MLOAD RETURNDATASIZE PUSH0 DUP3 RETURNDATACOPY RETURNDATASIZE DUP2 REVERT JUMPDEST RETURNDATASIZE SWAP3 POP PUSH0 MLOAD SWAP2 POP POP PUSH0 DUP3 EQ PUSH2 0x25AF JUMPI PUSH1 0x1 DUP2 EQ ISZERO PUSH2 0x25CA JUMP JUMPDEST PUSH0 DUP5 PUSH20 0xFFFFFFFFFFFFFFFFFFFFFFFFFFFFFFFFFFFFFFFF AND EXTCODESIZE EQ JUMPDEST ISZERO PUSH2 0x260C JUMPI DUP4 PUSH1 0x40 MLOAD PUSH32 0x5274AFE700000000000000000000000000000000000000000000000000000000 DUP2 MSTORE PUSH1 0x4 ADD PUSH2 0x2603 SWAP2 SWAP1 PUSH2 0x2CA5 JUMP JUMPDEST PUSH1 0x40 MLOAD DUP1 SWAP2 SUB SWAP1 REVERT JUMPDEST POP POP POP POP JUMP JUMPDEST PUSH0 PUSH20 0xFFFFFFFFFFFFFFFFFFFFFFFFFFFFFFFFFFFFFFFF AND DUP4 PUSH20 0xFFFFFFFFFFFFFFFFFFFFFFFFFFFFFFFFFFFFFFFF AND SUB PUSH2 0x2662 JUMPI DUP1 PUSH1 0x2 PUSH0 DUP3 DUP3 SLOAD PUSH2 0x2656 SWAP2 SWAP1 PUSH2 0x31C6 JUMP JUMPDEST SWAP3 POP POP DUP2 SWAP1 SSTORE POP PUSH2 0x2730 JUMP JUMPDEST PUSH0 DUP1 PUSH0 DUP6 PUSH20 0xFFFFFFFFFFFFFFFFFFFFFFFFFFFFFFFFFFFFFFFF AND PUSH20 0xFFFFFFFFFFFFFFFFFFFFFFFFFFFFFFFFFFFFFFFF AND DUP2 MSTORE PUSH1 0x20 ADD SWAP1 DUP2 MSTORE PUSH1 0x20 ADD PUSH0 KECCAK256 SLOAD SWAP1 POP DUP2 DUP2 LT ISZERO PUSH2 0x26EB JUMPI DUP4 DUP2 DUP4 PUSH1 0x40 MLOAD PUSH32 0xE450D38C00000000000000000000000000000000000000000000000000000000 DUP2 MSTORE PUSH1 0x4 ADD PUSH2 0x26E2 SWAP4 SWAP3 SWAP2 SWAP1 PUSH2 0x3440 JUMP JUMPDEST PUSH1 0x40 MLOAD DUP1 SWAP2 SUB SWAP1 REVERT JUMPDEST DUP2 DUP2 SUB PUSH0 DUP1 DUP7 PUSH20 0xFFFFFFFFFFFFFFFFFFFFFFFFFFFFFFFFFFFFFFFF AND PUSH20 0xFFFFFFFFFFFFFFFFFFFFFFFFFFFFFFFFFFFFFFFF AND DUP2 MSTORE PUSH1 0x20 ADD SWAP1 DUP2 MSTORE PUSH1 0x20 ADD PUSH0 KECCAK256 DUP2 SWAP1 SSTORE POP POP JUMPDEST PUSH0 PUSH20 0xFFFFFFFFFFFFFFFFFFFFFFFFFFFFFFFFFFFFFFFF AND DUP3 PUSH20 0xFFFFFFFFFFFFFFFFFFFFFFFFFFFFFFFFFFFFFFFF AND SUB PUSH2 0x2777 JUMPI DUP1 PUSH1 0x2 PUSH0 DUP3 DUP3 SLOAD SUB SWAP3 POP POP DUP2 SWAP1 SSTORE POP PUSH2 0x27C1 JUMP JUMPDEST DUP1 PUSH0 DUP1 DUP5 PUSH20 0xFFFFFFFFFFFFFFFFFFFFFFFFFFFFFFFFFFFFFFFF AND PUSH20 0xFFFFFFFFFFFFFFFFFFFFFFFFFFFFFFFFFFFFFFFF AND DUP2 MSTORE PUSH1 0x20 ADD SWAP1 DUP2 MSTORE PUSH1 0x20 ADD PUSH0 KECCAK256 PUSH0 DUP3 DUP3 SLOAD ADD SWAP3 POP POP DUP2 SWAP1 SSTORE POP JUMPDEST DUP2 PUSH20 0xFFFFFFFFFFFFFFFFFFFFFFFFFFFFFFFFFFFFFFFF AND DUP4 PUSH20 0xFFFFFFFFFFFFFFFFFFFFFFFFFFFFFFFFFFFFFFFF AND PUSH32 0xDDF252AD1BE2C89B69C2B068FC378DAA952BA7F163C4A11628F55A4DF523B3EF DUP4 PUSH1 0x40 MLOAD PUSH2 0x281E SWAP2 SWAP1 PUSH2 0x2ADF JUMP JUMPDEST PUSH1 0x40 MLOAD DUP1 SWAP2 SUB SWAP1 LOG3 POP POP POP JUMP JUMPDEST PUSH0 DUP1 REVERT JUMPDEST PUSH0 PUSH32 0xFFFFFFFF00000000000000000000000000000000000000000000000000000000 DUP3 AND SWAP1 POP SWAP2 SWAP1 POP JUMP JUMPDEST PUSH2 0x2863 DUP2 PUSH2 0x282F JUMP JUMPDEST DUP2 EQ PUSH2 0x286D JUMPI PUSH0 DUP1 REVERT JUMPDEST POP JUMP JUMPDEST PUSH0 DUP2 CALLDATALOAD SWAP1 POP PUSH2 0x287E DUP2 PUSH2 0x285A JUMP JUMPDEST SWAP3 SWAP2 POP POP JUMP JUMPDEST PUSH0 PUSH1 0x20 DUP3 DUP5 SUB SLT ISZERO PUSH2 0x2899 JUMPI PUSH2 0x2898 PUSH2 0x282B JUMP JUMPDEST JUMPDEST PUSH0 PUSH2 0x28A6 DUP5 DUP3 DUP6 ADD PUSH2 0x2870 JUMP JUMPDEST SWAP2 POP POP SWAP3 SWAP2 POP POP JUMP JUMPDEST PUSH0 DUP2 ISZERO ISZERO SWAP1 POP SWAP2 SWAP1 POP JUMP JUMPDEST PUSH2 0x28C3 DUP2 PUSH2 0x28AF JUMP JUMPDEST DUP3 MSTORE POP POP JUMP JUMPDEST PUSH0 PUSH1 0x20 DUP3 ADD SWAP1 POP PUSH2 0x28DC PUSH0 DUP4 ADD DUP5 PUSH2 0x28BA JUMP JUMPDEST SWAP3 SWAP2 POP POP JUMP JUMPDEST PUSH0 DUP2 MLOAD SWAP1 POP SWAP2 SWAP1 POP JUMP JUMPDEST PUSH0 DUP3 DUP3 MSTORE PUSH1 0x20 DUP3 ADD SWAP1 POP SWAP3 SWAP2 POP POP JUMP JUMPDEST PUSH0 JUMPDEST DUP4 DUP2 LT ISZERO PUSH2 0x2919 JUMPI DUP1 DUP3 ADD MLOAD DUP2 DUP5 ADD MSTORE PUSH1 0x20 DUP2 ADD SWAP1 POP PUSH2 0x28FE JUMP JUMPDEST PUSH0 DUP5 DUP5 ADD MSTORE POP POP POP POP JUMP JUMPDEST PUSH0 PUSH1 0x1F NOT PUSH1 0x1F DUP4 ADD AND SWAP1 POP SWAP2 SWAP1 POP JUMP JUMPDEST PUSH0 PUSH2 0x293E DUP3 PUSH2 0x28E2 JUMP JUMPDEST PUSH2 0x2948 DUP2 DUP6 PUSH2 0x28EC JUMP JUMPDEST SWAP4 POP PUSH2 0x2958 DUP2 DUP6 PUSH1 0x20 DUP7 ADD PUSH2 0x28FC JUMP JUMPDEST PUSH2 0x2961 DUP2 PUSH2 0x2924 JUMP JUMPDEST DUP5 ADD SWAP2 POP POP SWAP3 SWAP2 POP POP JUMP JUMPDEST PUSH0 PUSH1 0x20 DUP3 ADD SWAP1 POP DUP2 DUP2 SUB PUSH0 DUP4 ADD MSTORE PUSH2 0x2984 DUP2 DUP5 PUSH2 0x2934 JUMP JUMPDEST SWAP1 POP SWAP3 SWAP2 POP POP JUMP JUMPDEST PUSH0 PUSH20 0xFFFFFFFFFFFFFFFFFFFFFFFFFFFFFFFFFFFFFFFF DUP3 AND SWAP1 POP SWAP2 SWAP1 POP JUMP JUMPDEST PUSH0 PUSH2 0x29B5 DUP3 PUSH2 0x298C JUMP JUMPDEST SWAP1 POP SWAP2 SWAP1 POP JUMP JUMPDEST PUSH2 0x29C5 DUP2 PUSH2 0x29AB JUMP JUMPDEST DUP2 EQ PUSH2 0x29CF JUMPI PUSH0 DUP1 REVERT JUMPDEST POP JUMP JUMPDEST PUSH0 DUP2 CALLDATALOAD SWAP1 POP PUSH2 0x29E0 DUP2 PUSH2 0x29BC JUMP JUMPDEST SWAP3 SWAP2 POP POP JUMP JUMPDEST PUSH0 DUP2 SWAP1 POP SWAP2 SWAP1 POP JUMP JUMPDEST PUSH2 0x29F8 DUP2 PUSH2 0x29E6 JUMP JUMPDEST DUP2 EQ PUSH2 0x2A02 JUMPI PUSH0 DUP1 REVERT JUMPDEST POP JUMP JUMPDEST PUSH0 DUP2 CALLDATALOAD SWAP1 POP PUSH2 0x2A13 DUP2 PUSH2 0x29EF JUMP JUMPDEST SWAP3 SWAP2 POP POP JUMP JUMPDEST PUSH0 DUP1 PUSH1 0x40 DUP4 DUP6 SUB SLT ISZERO PUSH2 0x2A2F JUMPI PUSH2 0x2A2E PUSH2 0x282B JUMP JUMPDEST JUMPDEST PUSH0 PUSH2 0x2A3C DUP6 DUP3 DUP7 ADD PUSH2 0x29D2 JUMP JUMPDEST SWAP3 POP POP PUSH1 0x20 PUSH2 0x2A4D DUP6 DUP3 DUP7 ADD PUSH2 0x2A05 JUMP JUMPDEST SWAP2 POP POP SWAP3 POP SWAP3 SWAP1 POP JUMP JUMPDEST PUSH0 PUSH2 0x2A61 DUP3 PUSH2 0x298C JUMP JUMPDEST SWAP1 POP SWAP2 SWAP1 POP JUMP JUMPDEST PUSH2 0x2A71 DUP2 PUSH2 0x2A57 JUMP JUMPDEST DUP2 EQ PUSH2 0x2A7B JUMPI PUSH0 DUP1 REVERT JUMPDEST POP JUMP JUMPDEST PUSH0 DUP2 CALLDATALOAD SWAP1 POP PUSH2 0x2A8C DUP2 PUSH2 0x2A68 JUMP JUMPDEST SWAP3 SWAP2 POP POP JUMP JUMPDEST PUSH0 DUP1 PUSH1 0x40 DUP4 DUP6 SUB SLT ISZERO PUSH2 0x2AA8 JUMPI PUSH2 0x2AA7 PUSH2 0x282B JUMP JUMPDEST JUMPDEST PUSH0 PUSH2 0x2AB5 DUP6 DUP3 DUP7 ADD PUSH2 0x2A7E JUMP JUMPDEST SWAP3 POP POP PUSH1 0x20 PUSH2 0x2AC6 DUP6 DUP3 DUP7 ADD PUSH2 0x2A05 JUMP JUMPDEST SWAP2 POP POP SWAP3 POP SWAP3 SWAP1 POP JUMP JUMPDEST PUSH2 0x2AD9 DUP2 PUSH2 0x29E6 JUMP JUMPDEST DUP3 MSTORE POP POP JUMP JUMPDEST PUSH0 PUSH1 0x20 DUP3 ADD SWAP1 POP PUSH2 0x2AF2 PUSH0 DUP4 ADD DUP5 PUSH2 0x2AD0 JUMP JUMPDEST SWAP3 SWAP2 POP POP JUMP JUMPDEST PUSH0 DUP1 PUSH0 PUSH1 0x60 DUP5 DUP7 SUB SLT ISZERO PUSH2 0x2B0F JUMPI PUSH2 0x2B0E PUSH2 0x282B JUMP JUMPDEST JUMPDEST PUSH0 PUSH2 0x2B1C DUP7 DUP3 DUP8 ADD PUSH2 0x29D2 JUMP JUMPDEST SWAP4 POP POP PUSH1 0x20 PUSH2 0x2B2D DUP7 DUP3 DUP8 ADD PUSH2 0x29D2 JUMP JUMPDEST SWAP3 POP POP PUSH1 0x40 PUSH2 0x2B3E DUP7 DUP3 DUP8 ADD PUSH2 0x2A05 JUMP JUMPDEST SWAP2 POP POP SWAP3 POP SWAP3 POP SWAP3 JUMP JUMPDEST PUSH0 DUP2 SWAP1 POP SWAP2 SWAP1 POP JUMP JUMPDEST PUSH2 0x2B5A DUP2 PUSH2 0x2B48 JUMP JUMPDEST DUP2 EQ PUSH2 0x2B64 JUMPI PUSH0 DUP1 REVERT JUMPDEST POP JUMP JUMPDEST PUSH0 DUP2 CALLDATALOAD SWAP1 POP PUSH2 0x2B75 DUP2 PUSH2 0x2B51 JUMP JUMPDEST SWAP3 SWAP2 POP POP JUMP JUMPDEST PUSH0 PUSH1 0x20 DUP3 DUP5 SUB SLT ISZERO PUSH2 0x2B90 JUMPI PUSH2 0x2B8F PUSH2 0x282B JUMP JUMPDEST JUMPDEST PUSH0 PUSH2 0x2B9D DUP5 DUP3 DUP6 ADD PUSH2 0x2B67 JUMP JUMPDEST SWAP2 POP POP SWAP3 SWAP2 POP POP JUMP JUMPDEST PUSH2 0x2BAF DUP2 PUSH2 0x2B48 JUMP JUMPDEST DUP3 MSTORE POP POP JUMP JUMPDEST PUSH0 PUSH1 0x20 DUP3 ADD SWAP1 POP PUSH2 0x2BC8 PUSH0 DUP4 ADD DUP5 PUSH2 0x2BA6 JUMP JUMPDEST SWAP3 SWAP2 POP POP JUMP JUMPDEST PUSH0 DUP1 PUSH1 0x40 DUP4 DUP6 SUB SLT ISZERO PUSH2 0x2BE4 JUMPI PUSH2 0x2BE3 PUSH2 0x282B JUMP JUMPDEST JUMPDEST PUSH0 PUSH2 0x2BF1 DUP6 DUP3 DUP7 ADD PUSH2 0x2B67 JUMP JUMPDEST SWAP3 POP POP PUSH1 0x20 PUSH2 0x2C02 DUP6 DUP3 DUP7 ADD PUSH2 0x29D2 JUMP JUMPDEST SWAP2 POP POP SWAP3 POP SWAP3 SWAP1 POP JUMP JUMPDEST PUSH0 PUSH1 0xFF DUP3 AND SWAP1 POP SWAP2 SWAP1 POP JUMP JUMPDEST PUSH2 0x2C21 DUP2 PUSH2 0x2C0C JUMP JUMPDEST DUP3 MSTORE POP POP JUMP JUMPDEST PUSH0 PUSH1 0x20 DUP3 ADD SWAP1 POP PUSH2 0x2C3A PUSH0 DUP4 ADD DUP5 PUSH2 0x2C18 JUMP JUMPDEST SWAP3 SWAP2 POP POP JUMP JUMPDEST PUSH0 PUSH1 0x20 DUP3 DUP5 SUB SLT ISZERO PUSH2 0x2C55 JUMPI PUSH2 0x2C54 PUSH2 0x282B JUMP JUMPDEST JUMPDEST PUSH0 PUSH2 0x2C62 DUP5 DUP3 DUP6 ADD PUSH2 0x29D2 JUMP JUMPDEST SWAP2 POP POP SWAP3 SWAP2 POP POP JUMP JUMPDEST PUSH0 PUSH1 0x20 DUP3 DUP5 SUB SLT ISZERO PUSH2 0x2C80 JUMPI PUSH2 0x2C7F PUSH2 0x282B JUMP JUMPDEST JUMPDEST PUSH0 PUSH2 0x2C8D DUP5 DUP3 DUP6 ADD PUSH2 0x2A05 JUMP JUMPDEST SWAP2 POP POP SWAP3 SWAP2 POP POP JUMP JUMPDEST PUSH2 0x2C9F DUP2 PUSH2 0x29AB JUMP JUMPDEST DUP3 MSTORE POP POP JUMP JUMPDEST PUSH0 PUSH1 0x20 DUP3 ADD SWAP1 POP PUSH2 0x2CB8 PUSH0 DUP4 ADD DUP5 PUSH2 0x2C96 JUMP JUMPDEST SWAP3 SWAP2 POP POP JUMP JUMPDEST PUSH0 PUSH1 0x20 DUP3 DUP5 SUB SLT ISZERO PUSH2 0x2CD3 JUMPI PUSH2 0x2CD2 PUSH2 0x282B JUMP JUMPDEST JUMPDEST PUSH0 PUSH2 0x2CE0 DUP5 DUP3 DUP6 ADD PUSH2 0x2A7E JUMP JUMPDEST SWAP2 POP POP SWAP3 SWAP2 POP POP JUMP JUMPDEST PUSH0 DUP1 PUSH1 0x40 DUP4 DUP6 SUB SLT ISZERO PUSH2 0x2CFF JUMPI PUSH2 0x2CFE PUSH2 0x282B JUMP JUMPDEST JUMPDEST PUSH0 PUSH2 0x2D0C DUP6 DUP3 DUP7 ADD PUSH2 0x29D2 JUMP JUMPDEST SWAP3 POP POP PUSH1 0x20 PUSH2 0x2D1D DUP6 DUP3 DUP7 ADD PUSH2 0x29D2 JUMP JUMPDEST SWAP2 POP POP SWAP3 POP SWAP3 SWAP1 POP JUMP JUMPDEST PUSH32 0x4E487B7100000000000000000000000000000000000000000000000000000000 PUSH0 MSTORE PUSH1 0x22 PUSH1 0x4 MSTORE PUSH1 0x24 PUSH0 REVERT JUMPDEST PUSH0 PUSH1 0x2 DUP3 DIV SWAP1 POP PUSH1 0x1 DUP3 AND DUP1 PUSH2 0x2D6B JUMPI PUSH1 0x7F DUP3 AND SWAP2 POP JUMPDEST PUSH1 0x20 DUP3 LT DUP2 SUB PUSH2 0x2D7E JUMPI PUSH2 0x2D7D PUSH2 0x2D27 JUMP JUMPDEST JUMPDEST POP SWAP2 SWAP1 POP JUMP JUMPDEST PUSH32 0x544947473A20746F207A65726F00000000000000000000000000000000000000 PUSH0 DUP3 ADD MSTORE POP JUMP JUMPDEST PUSH0 PUSH2 0x2DB8 PUSH1 0xD DUP4 PUSH2 0x28EC JUMP JUMPDEST SWAP2 POP PUSH2 0x2DC3 DUP3 PUSH2 0x2D84 JUMP JUMPDEST PUSH1 0x20 DUP3 ADD SWAP1 POP SWAP2 SWAP1 POP JUMP JUMPDEST PUSH0 PUSH1 0x20 DUP3 ADD SWAP1 POP DUP2 DUP2 SUB PUSH0 DUP4 ADD MSTORE PUSH2 0x2DE5 DUP2 PUSH2 0x2DAC JUMP JUMPDEST SWAP1 POP SWAP2 SWAP1 POP JUMP JUMPDEST PUSH32 0x544947473A20696E73756666696369656E742062616C616E6365000000000000 PUSH0 DUP3 ADD MSTORE POP JUMP JUMPDEST PUSH0 PUSH2 0x2E20 PUSH1 0x1A DUP4 PUSH2 0x28EC JUMP JUMPDEST SWAP2 POP PUSH2 0x2E2B DUP3 PUSH2 0x2DEC JUMP JUMPDEST PUSH1 0x20 DUP3 ADD SWAP1 POP SWAP2 SWAP1 POP JUMP JUMPDEST PUSH0 PUSH1 0x20 DUP3 ADD SWAP1 POP DUP2 DUP2 SUB PUSH0 DUP4 ADD MSTORE PUSH2 0x2E4D DUP2 PUSH2 0x2E14 JUMP JUMPDEST SWAP1 POP SWAP2 SWAP1 POP JUMP JUMPDEST PUSH32 0x4E487B7100000000000000000000000000000000000000000000000000000000 PUSH0 MSTORE PUSH1 0x11 PUSH1 0x4 MSTORE PUSH1 0x24 PUSH0 REVERT JUMPDEST PUSH0 DUP2 PUSH1 0x1 SHR SWAP1 POP SWAP2 SWAP1 POP JUMP JUMPDEST PUSH0 DUP1 DUP3 SWAP2 POP DUP4 SWAP1 POP JUMPDEST PUSH1 0x1 DUP6 GT ISZERO PUSH2 0x2ED6 JUMPI DUP1 DUP7 DIV DUP2 GT ISZERO PUSH2 0x2EB2 JUMPI PUSH2 0x2EB1 PUSH2 0x2E54 JUMP JUMPDEST JUMPDEST PUSH1 0x1 DUP6 AND ISZERO PUSH2 0x2EC1 JUMPI DUP1 DUP3 MUL SWAP2 POP JUMPDEST DUP1 DUP2 MUL SWAP1 POP PUSH2 0x2ECF DUP6 PUSH2 0x2E81 JUMP JUMPDEST SWAP5 POP PUSH2 0x2E96 JUMP JUMPDEST SWAP5 POP SWAP5 SWAP3 POP POP POP JUMP JUMPDEST PUSH0 DUP3 PUSH2 0x2EEE JUMPI PUSH1 0x1 SWAP1 POP PUSH2 0x2FA9 JUMP JUMPDEST DUP2 PUSH2 0x2EFB JUMPI PUSH0 SWAP1 POP PUSH2 0x2FA9 JUMP JUMPDEST DUP2 PUSH1 0x1 DUP2 EQ PUSH2 0x2F11 JUMPI PUSH1 0x2 DUP2 EQ PUSH2 0x2F1B JUMPI PUSH2 0x2F4A JUMP JUMPDEST PUSH1 0x1 SWAP2 POP POP PUSH2 0x2FA9 JUMP JUMPDEST PUSH1 0xFF DUP5 GT ISZERO PUSH2 0x2F2D JUMPI PUSH2 0x2F2C PUSH2 0x2E54 JUMP JUMPDEST JUMPDEST DUP4 PUSH1 0x2 EXP SWAP2 POP DUP5 DUP3 GT ISZERO PUSH2 0x2F44 JUMPI PUSH2 0x2F43 PUSH2 0x2E54 JUMP JUMPDEST JUMPDEST POP PUSH2 0x2FA9 JUMP JUMPDEST POP PUSH1 0x20 DUP4 LT PUSH2 0x133 DUP4 LT AND PUSH1 0x4E DUP5 LT PUSH1 0xB DUP5 LT AND OR ISZERO PUSH2 0x2F7F JUMPI DUP3 DUP3 EXP SWAP1 POP DUP4 DUP2 GT ISZERO PUSH2 0x2F7A JUMPI PUSH2 0x2F79 PUSH2 0x2E54 JUMP JUMPDEST JUMPDEST PUSH2 0x2FA9 JUMP JUMPDEST PUSH2 0x2F8C DUP5 DUP5 DUP5 PUSH1 0x1 PUSH2 0x2E8D JUMP JUMPDEST SWAP3 POP SWAP1 POP DUP2 DUP5 DIV DUP2 GT ISZERO PUSH2 0x2FA3 JUMPI PUSH2 0x2FA2 PUSH2 0x2E54 JUMP JUMPDEST JUMPDEST DUP2 DUP2 MUL SWAP1 POP JUMPDEST SWAP4 SWAP3 POP POP POP JUMP JUMPDEST PUSH0 PUSH2 0x2FBA DUP3 PUSH2 0x29E6 JUMP JUMPDEST SWAP2 POP PUSH2 0x2FC5 DUP4 PUSH2 0x29E6 JUMP JUMPDEST SWAP3 POP PUSH2 0x2FF2 PUSH32 0xFFFFFFFFFFFFFFFFFFFFFFFFFFFFFFFFFFFFFFFFFFFFFFFFFFFFFFFFFFFFFFFF DUP5 DUP5 PUSH2 0x2EDF JUMP JUMPDEST SWAP1 POP SWAP3 SWAP2 POP POP JUMP JUMPDEST PUSH0 PUSH2 0x3004 DUP3 PUSH2 0x29E6 JUMP JUMPDEST SWAP2 POP PUSH2 0x300F DUP4 PUSH2 0x29E6 JUMP JUMPDEST SWAP3 POP DUP3 DUP3 MUL PUSH2 0x301D DUP2 PUSH2 0x29E6 JUMP JUMPDEST SWAP2 POP DUP3 DUP3 DIV DUP5 EQ DUP4 ISZERO OR PUSH2 0x3034 JUMPI PUSH2 0x3033 PUSH2 0x2E54 JUMP JUMPDEST JUMPDEST POP SWAP3 SWAP2 POP POP JUMP JUMPDEST PUSH32 0x544947473A20656D657267656E63792073746F70706564000000000000000000 PUSH0 DUP3 ADD MSTORE POP JUMP JUMPDEST PUSH0 PUSH2 0x306F PUSH1 0x17 DUP4 PUSH2 0x28EC JUMP JUMPDEST SWAP2 POP PUSH2 0x307A DUP3 PUSH2 0x303B JUMP JUMPDEST PUSH1 0x20 DUP3 ADD SWAP1 POP SWAP2 SWAP1 POP JUMP JUMPDEST PUSH0 PUSH1 0x20 DUP3 ADD SWAP1 POP DUP2 DUP2 SUB PUSH0 DUP4 ADD MSTORE PUSH2 0x309C DUP2 PUSH2 0x3063 JUMP JUMPDEST SWAP1 POP SWAP2 SWAP1 POP JUMP JUMPDEST PUSH32 0x544947473A206E6F207363686564756C6564206D696E7473206C656674000000 PUSH0 DUP3 ADD MSTORE POP JUMP JUMPDEST PUSH0 PUSH2 0x30D7 PUSH1 0x1D DUP4 PUSH2 0x28EC JUMP JUMPDEST SWAP2 POP PUSH2 0x30E2 DUP3 PUSH2 0x30A3 JUMP JUMPDEST PUSH1 0x20 DUP3 ADD SWAP1 POP SWAP2 SWAP1 POP JUMP JUMPDEST PUSH0 PUSH1 0x20 DUP3 ADD SWAP1 POP DUP2 DUP2 SUB PUSH0 DUP4 ADD MSTORE PUSH2 0x3104 DUP2 PUSH2 0x30CB JUMP JUMPDEST SWAP1 POP SWAP2 SWAP1 POP JUMP JUMPDEST PUSH32 0x4E487B7100000000000000000000000000000000000000000000000000000000 PUSH0 MSTORE PUSH1 0x32 PUSH1 0x4 MSTORE PUSH1 0x24 PUSH0 REVERT JUMPDEST PUSH32 0x544947473A207363686564756C6564206D696E74206E6F742079657420617661 PUSH0 DUP3 ADD MSTORE PUSH32 0x696C61626C650000000000000000000000000000000000000000000000000000 PUSH1 0x20 DUP3 ADD MSTORE POP JUMP JUMPDEST PUSH0 PUSH2 0x3192 PUSH1 0x26 DUP4 PUSH2 0x28EC JUMP JUMPDEST SWAP2 POP PUSH2 0x319D DUP3 PUSH2 0x3138 JUMP JUMPDEST PUSH1 0x40 DUP3 ADD SWAP1 POP SWAP2 SWAP1 POP JUMP JUMPDEST PUSH0 PUSH1 0x20 DUP3 ADD SWAP1 POP DUP2 DUP2 SUB PUSH0 DUP4 ADD MSTORE PUSH2 0x31BF DUP2 PUSH2 0x3186 JUMP JUMPDEST SWAP1 POP SWAP2 SWAP1 POP JUMP JUMPDEST PUSH0 PUSH2 0x31D0 DUP3 PUSH2 0x29E6 JUMP JUMPDEST SWAP2 POP PUSH2 0x31DB DUP4 PUSH2 0x29E6 JUMP JUMPDEST SWAP3 POP DUP3 DUP3 ADD SWAP1 POP DUP1 DUP3 GT ISZERO PUSH2 0x31F3 JUMPI PUSH2 0x31F2 PUSH2 0x2E54 JUMP JUMPDEST JUMPDEST SWAP3 SWAP2 POP POP JUMP JUMPDEST PUSH32 0x544947473A206D617820737570706C7920657863656564656400000000000000 PUSH0 DUP3 ADD MSTORE POP JUMP JUMPDEST PUSH0 PUSH2 0x322D PUSH1 0x19 DUP4 PUSH2 0x28EC JUMP JUMPDEST SWAP2 POP PUSH2 0x3238 DUP3 PUSH2 0x31F9 JUMP JUMPDEST PUSH1 0x20 DUP3 ADD SWAP1 POP SWAP2 SWAP1 POP JUMP JUMPDEST PUSH0 PUSH1 0x20 DUP3 ADD SWAP1 POP DUP2 DUP2 SUB PUSH0 DUP4 ADD MSTORE PUSH2 0x325A DUP2 PUSH2 0x3221 JUMP JUMPDEST SWAP1 POP SWAP2 SWAP1 POP JUMP JUMPDEST PUSH0 PUSH1 0x60 DUP3 ADD SWAP1 POP PUSH2 0x3274 PUSH0 DUP4 ADD DUP7 PUSH2 0x2AD0 JUMP JUMPDEST PUSH2 0x3281 PUSH1 0x20 DUP4 ADD DUP6 PUSH2 0x2AD0 JUMP JUMPDEST PUSH2 0x328E PUSH1 0x40 DUP4 ADD DUP5 PUSH2 0x2AD0 JUMP JUMPDEST SWAP5 SWAP4 POP POP POP POP JUMP JUMPDEST PUSH32 0x544947473A206275726E2066726F6D207A65726F000000000000000000000000 PUSH0 DUP3 ADD MSTORE POP JUMP JUMPDEST PUSH0 PUSH2 0x32CA PUSH1 0x14 DUP4 PUSH2 0x28EC JUMP JUMPDEST SWAP2 POP PUSH2 0x32D5 DUP3 PUSH2 0x3296 JUMP JUMPDEST PUSH1 0x20 DUP3 ADD SWAP1 POP SWAP2 SWAP1 POP JUMP JUMPDEST PUSH0 PUSH1 0x20 DUP3 ADD SWAP1 POP DUP2 DUP2 SUB PUSH0 DUP4 ADD MSTORE PUSH2 0x32F7 DUP2 PUSH2 0x32BE JUMP JUMPDEST SWAP1 POP SWAP2 SWAP1 POP JUMP JUMPDEST PUSH0 PUSH2 0x3308 DUP3 PUSH2 0x29E6 JUMP JUMPDEST SWAP2 POP PUSH2 0x3313 DUP4 PUSH2 0x29E6 JUMP JUMPDEST SWAP3 POP DUP3 DUP3 SUB SWAP1 POP DUP2 DUP2 GT ISZERO PUSH2 0x332B JUMPI PUSH2 0x332A PUSH2 0x2E54 JUMP JUMPDEST JUMPDEST SWAP3 SWAP2 POP POP JUMP JUMPDEST PUSH32 0x544947473A206D696E7420746F207A65726F0000000000000000000000000000 PUSH0 DUP3 ADD MSTORE POP JUMP JUMPDEST PUSH0 PUSH2 0x3365 PUSH1 0x12 DUP4 PUSH2 0x28EC JUMP JUMPDEST SWAP2 POP PUSH2 0x3370 DUP3 PUSH2 0x3331 JUMP JUMPDEST PUSH1 0x20 DUP3 ADD SWAP1 POP SWAP2 SWAP1 POP JUMP JUMPDEST PUSH0 PUSH1 0x20 DUP3 ADD SWAP1 POP DUP2 DUP2 SUB PUSH0 DUP4 ADD MSTORE PUSH2 0x3392 DUP2 PUSH2 0x3359 JUMP JUMPDEST SWAP1 POP SWAP2 SWAP1 POP JUMP JUMPDEST PUSH32 0x544947473A207A65726F2062616C616E63650000000000000000000000000000 PUSH0 DUP3 ADD MSTORE POP JUMP JUMPDEST PUSH0 PUSH2 0x33CD PUSH1 0x12 DUP4 PUSH2 0x28EC JUMP JUMPDEST SWAP2 POP PUSH2 0x33D8 DUP3 PUSH2 0x3399 JUMP JUMPDEST PUSH1 0x20 DUP3 ADD SWAP1 POP SWAP2 SWAP1 POP JUMP JUMPDEST PUSH0 PUSH1 0x20 DUP3 ADD SWAP1 POP DUP2 DUP2 SUB PUSH0 DUP4 ADD MSTORE PUSH2 0x33FA DUP2 PUSH2 0x33C1 JUMP JUMPDEST SWAP1 POP SWAP2 SWAP1 POP JUMP JUMPDEST PUSH0 DUP2 MLOAD SWAP1 POP PUSH2 0x340F DUP2 PUSH2 0x29EF JUMP JUMPDEST SWAP3 SWAP2 POP POP JUMP JUMPDEST PUSH0 PUSH1 0x20 DUP3 DUP5 SUB SLT ISZERO PUSH2 0x342A JUMPI PUSH2 0x3429 PUSH2 0x282B JUMP JUMPDEST JUMPDEST PUSH0 PUSH2 0x3437 DUP5 DUP3 DUP6 ADD PUSH2 0x3401 JUMP JUMPDEST SWAP2 POP POP SWAP3 SWAP2 POP POP JUMP JUMPDEST PUSH0 PUSH1 0x60 DUP3 ADD SWAP1 POP PUSH2 0x3453 PUSH0 DUP4 ADD DUP7 PUSH2 0x2C96 JUMP JUMPDEST PUSH2 0x3460 PUSH1 0x20 DUP4 ADD DUP6 PUSH2 0x2AD0 JUMP JUMPDEST PUSH2 0x346D PUSH1 0x40 DUP4 ADD DUP5 PUSH2 0x2AD0 JUMP JUMPDEST SWAP5 SWAP4 POP POP POP POP JUMP JUMPDEST PUSH0 PUSH1 0x40 DUP3 ADD SWAP1 POP PUSH2 0x3488 PUSH0 DUP4 ADD DUP6 PUSH2 0x2C96 JUMP JUMPDEST PUSH2 0x3495 PUSH1 0x20 DUP4 ADD DUP5 PUSH2 0x2AD0 JUMP JUMPDEST SWAP4 SWAP3 POP POP POP JUMP JUMPDEST PUSH0 PUSH1 0x40 DUP3 ADD SWAP1 POP PUSH2 0x34AF PUSH0 DUP4 ADD DUP6 PUSH2 0x2C96 JUMP JUMPDEST PUSH2 0x34BC PUSH1 0x20 DUP4 ADD DUP5 PUSH2 0x2BA6 JUMP JUMPDEST SWAP4 SWAP3 POP POP POP JUMP INVALID LOG2 PUSH5 0x6970667358 0x22 SLT KECCAK256 DUP7 ISZERO SWAP8 PUSH12 0xA76C49DE2A54CD95E45F97AB 0x4F 0xC7 0xA8 0xC8 0xAB 0xE4 0xB9 0x2B 0x29 0xD1 STOP SDIV CALL 0x2D 0xCF 0x25 PUSH5 0x736F6C6343 STOP ADDMOD XOR STOP CALLER "
	},
	"abi": [
		{
			"inputs": [],
			"stateMutability": "nonpayable",
			"type": "constructor"
		},
		{
			"inputs": [],
			"name": "AccessControlBadConfirmation",
			"type": "error"
		},
		{
			"inputs": [
				{
					"internalType": "address",
					"name": "account",
					"type": "address"
				},
				{
					"internalType": "bytes32",
					"name": "neededRole",
					"type": "bytes32"
				}
			],
			"name": "AccessControlUnauthorizedAccount",
			"type": "error"
		},
		{
			"inputs": [
				{
					"internalType": "address",
					"name": "spender",
					"type": "address"
				},
				{
					"internalType": "uint256",
					"name": "allowance",
					"type": "uint256"
				},
				{
					"internalType": "uint256",
					"name": "needed",
					"type": "uint256"
				}
			],
			"name": "ERC20InsufficientAllowance",
			"type": "error"
		},
		{
			"inputs": [
				{
					"internalType": "address",
					"name": "sender",
					"type": "address"
				},
				{
					"internalType": "uint256",
					"name": "balance",
					"type": "uint256"
				},
				{
					"internalType": "uint256",
					"name": "needed",
					"type": "uint256"
				}
			],
			"name": "ERC20InsufficientBalance",
			"type": "error"
		},
		{
			"inputs": [
				{
					"internalType": "address",
					"name": "approver",
					"type": "address"
				}
			],
			"name": "ERC20InvalidApprover",
			"type": "error"
		},
		{
			"inputs": [
				{
					"internalType": "address",
					"name": "receiver",
					"type": "address"
				}
			],
			"name": "ERC20InvalidReceiver",
			"type": "error"
		},
		{
			"inputs": [
				{
					"internalType": "address",
					"name": "sender",
					"type": "address"
				}
			],
			"name": "ERC20InvalidSender",
			"type": "error"
		},
		{
			"inputs": [
				{
					"internalType": "address",
					"name": "spender",
					"type": "address"
				}
			],
			"name": "ERC20InvalidSpender",
			"type": "error"
		},
		{
			"inputs": [
				{
					"internalType": "address",
					"name": "owner",
					"type": "address"
				}
			],
			"name": "OwnableInvalidOwner",
			"type": "error"
		},
		{
			"inputs": [
				{
					"internalType": "address",
					"name": "account",
					"type": "address"
				}
			],
			"name": "OwnableUnauthorizedAccount",
			"type": "error"
		},
		{
			"inputs": [
				{
					"internalType": "address",
					"name": "token",
					"type": "address"
				}
			],
			"name": "SafeERC20FailedOperation",
			"type": "error"
		},
		{
			"anonymous": false,
			"inputs": [
				{
					"indexed": true,
					"internalType": "address",
					"name": "owner",
					"type": "address"
				},
				{
					"indexed": true,
					"internalType": "address",
					"name": "spender",
					"type": "address"
				},
				{
					"indexed": false,
					"internalType": "uint256",
					"name": "value",
					"type": "uint256"
				}
			],
			"name": "Approval",
			"type": "event"
		},
		{
			"anonymous": false,
			"inputs": [
				{
					"indexed": true,
					"internalType": "address",
					"name": "from",
					"type": "address"
				},
				{
					"indexed": false,
					"internalType": "uint256",
					"name": "amount",
					"type": "uint256"
				},
				{
					"indexed": true,
					"internalType": "address",
					"name": "bridge",
					"type": "address"
				}
			],
			"name": "BridgeBurn",
			"type": "event"
		},
		{
			"anonymous": false,
			"inputs": [
				{
					"indexed": true,
					"internalType": "address",
					"name": "to",
					"type": "address"
				},
				{
					"indexed": false,
					"internalType": "uint256",
					"name": "amount",
					"type": "uint256"
				},
				{
					"indexed": true,
					"internalType": "address",
					"name": "bridge",
					"type": "address"
				}
			],
			"name": "BridgeMint",
			"type": "event"
		},
		{
			"anonymous": false,
			"inputs": [
				{
					"indexed": true,
					"internalType": "address",
					"name": "by",
					"type": "address"
				},
				{
					"indexed": false,
					"internalType": "uint256",
					"name": "timestamp",
					"type": "uint256"
				}
			],
			"name": "EmergencyLifted",
			"type": "event"
		},
		{
			"anonymous": false,
			"inputs": [
				{
					"indexed": true,
					"internalType": "address",
					"name": "by",
					"type": "address"
				},
				{
					"indexed": false,
					"internalType": "uint256",
					"name": "timestamp",
					"type": "uint256"
				}
			],
			"name": "EmergencyStopped",
			"type": "event"
		},
		{
			"anonymous": false,
			"inputs": [
				{
					"indexed": true,
					"internalType": "address",
					"name": "to",
					"type": "address"
				},
				{
					"indexed": false,
					"internalType": "uint256",
					"name": "amount",
					"type": "uint256"
				},
				{
					"indexed": false,
					"internalType": "uint256",
					"name": "timestamp",
					"type": "uint256"
				},
				{
					"indexed": false,
					"internalType": "uint256",
					"name": "newTotalSupply",
					"type": "uint256"
				}
			],
			"name": "MintExecuted",
			"type": "event"
		},
		{
			"anonymous": false,
			"inputs": [
				{
					"indexed": true,
					"internalType": "uint256",
					"name": "amount",
					"type": "uint256"
				},
				{
					"indexed": true,
					"internalType": "uint256",
					"name": "unlockTime",
					"type": "uint256"
				}
			],
			"name": "MintScheduled",
			"type": "event"
		},
		{
			"anonymous": false,
			"inputs": [
				{
					"indexed": true,
					"internalType": "address",
					"name": "to",
					"type": "address"
				},
				{
					"indexed": false,
					"internalType": "uint256",
					"name": "amount",
					"type": "uint256"
				}
			],
			"name": "NativeRescued",
			"type": "event"
		},
		{
			"anonymous": false,
			"inputs": [
				{
					"indexed": true,
					"internalType": "address",
					"name": "previousOwner",
					"type": "address"
				},
				{
					"indexed": true,
					"internalType": "address",
					"name": "newOwner",
					"type": "address"
				}
			],
			"name": "OwnershipTransferred",
			"type": "event"
		},
		{
			"anonymous": false,
			"inputs": [
				{
					"indexed": true,
					"internalType": "bytes32",
					"name": "role",
					"type": "bytes32"
				},
				{
					"indexed": true,
					"internalType": "bytes32",
					"name": "previousAdminRole",
					"type": "bytes32"
				},
				{
					"indexed": true,
					"internalType": "bytes32",
					"name": "newAdminRole",
					"type": "bytes32"
				}
			],
			"name": "RoleAdminChanged",
			"type": "event"
		},
		{
			"anonymous": false,
			"inputs": [
				{
					"indexed": true,
					"internalType": "bytes32",
					"name": "role",
					"type": "bytes32"
				},
				{
					"indexed": true,
					"internalType": "address",
					"name": "account",
					"type": "address"
				},
				{
					"indexed": true,
					"internalType": "address",
					"name": "sender",
					"type": "address"
				}
			],
			"name": "RoleGranted",
			"type": "event"
		},
		{
			"anonymous": false,
			"inputs": [
				{
					"indexed": true,
					"internalType": "bytes32",
					"name": "role",
					"type": "bytes32"
				},
				{
					"indexed": true,
					"internalType": "address",
					"name": "account",
					"type": "address"
				},
				{
					"indexed": true,
					"internalType": "address",
					"name": "sender",
					"type": "address"
				}
			],
			"name": "RoleRevoked",
			"type": "event"
		},
		{
			"anonymous": false,
			"inputs": [
				{
					"indexed": true,
					"internalType": "address",
					"name": "token",
					"type": "address"
				},
				{
					"indexed": true,
					"internalType": "address",
					"name": "to",
					"type": "address"
				},
				{
					"indexed": false,
					"internalType": "uint256",
					"name": "amount",
					"type": "uint256"
				}
			],
			"name": "TokenRescued",
			"type": "event"
		},
		{
			"anonymous": false,
			"inputs": [
				{
					"indexed": true,
					"internalType": "address",
					"name": "from",
					"type": "address"
				},
				{
					"indexed": true,
					"internalType": "address",
					"name": "to",
					"type": "address"
				},
				{
					"indexed": false,
					"internalType": "uint256",
					"name": "value",
					"type": "uint256"
				}
			],
			"name": "Transfer",
			"type": "event"
		},
		{
			"stateMutability": "payable",
			"type": "fallback"
		},
		{
			"inputs": [],
			"name": "BRIDGE_ROLE",
			"outputs": [
				{
					"internalType": "bytes32",
					"name": "",
					"type": "bytes32"
				}
			],
			"stateMutability": "view",
			"type": "function"
		},
		{
			"inputs": [],
			"name": "DEFAULT_ADMIN_ROLE",
			"outputs": [
				{
					"internalType": "bytes32",
					"name": "",
					"type": "bytes32"
				}
			],
			"stateMutability": "view",
			"type": "function"
		},
		{
			"inputs": [],
			"name": "INITIAL_SUPPLY",
			"outputs": [
				{
					"internalType": "uint256",
					"name": "",
					"type": "uint256"
				}
			],
			"stateMutability": "view",
			"type": "function"
		},
		{
			"inputs": [],
			"name": "MAX_SUPPLY",
			"outputs": [
				{
					"internalType": "uint256",
					"name": "",
					"type": "uint256"
				}
			],
			"stateMutability": "view",
			"type": "function"
		},
		{
			"inputs": [],
			"name": "MINTER_ROLE",
			"outputs": [
				{
					"internalType": "bytes32",
					"name": "",
					"type": "bytes32"
				}
			],
			"stateMutability": "view",
			"type": "function"
		},
		{
			"inputs": [],
			"name": "TRANCHE_AMOUNT",
			"outputs": [
				{
					"internalType": "uint256",
					"name": "",
					"type": "uint256"
				}
			],
			"stateMutability": "view",
			"type": "function"
		},
		{
			"inputs": [
				{
					"internalType": "address",
					"name": "owner",
					"type": "address"
				},
				{
					"internalType": "address",
					"name": "spender",
					"type": "address"
				}
			],
			"name": "allowance",
			"outputs": [
				{
					"internalType": "uint256",
					"name": "",
					"type": "uint256"
				}
			],
			"stateMutability": "view",
			"type": "function"
		},
		{
			"inputs": [
				{
					"internalType": "address",
					"name": "spender",
					"type": "address"
				},
				{
					"internalType": "uint256",
					"name": "value",
					"type": "uint256"
				}
			],
			"name": "approve",
			"outputs": [
				{
					"internalType": "bool",
					"name": "",
					"type": "bool"
				}
			],
			"stateMutability": "nonpayable",
			"type": "function"
		},
		{
			"inputs": [
				{
					"internalType": "address",
					"name": "account",
					"type": "address"
				}
			],
			"name": "balanceOf",
			"outputs": [
				{
					"internalType": "uint256",
					"name": "",
					"type": "uint256"
				}
			],
			"stateMutability": "view",
			"type": "function"
		},
		{
			"inputs": [
				{
					"internalType": "address",
					"name": "from",
					"type": "address"
				},
				{
					"internalType": "uint256",
					"name": "amount",
					"type": "uint256"
				}
			],
			"name": "bridgeBurn",
			"outputs": [],
			"stateMutability": "nonpayable",
			"type": "function"
		},
		{
			"inputs": [
				{
					"internalType": "address",
					"name": "to",
					"type": "address"
				},
				{
					"internalType": "uint256",
					"name": "amount",
					"type": "uint256"
				}
			],
			"name": "bridgeMint",
			"outputs": [],
			"stateMutability": "nonpayable",
			"type": "function"
		},
		{
			"inputs": [],
			"name": "decimals",
			"outputs": [
				{
					"internalType": "uint8",
					"name": "",
					"type": "uint8"
				}
			],
			"stateMutability": "pure",
			"type": "function"
		},
		{
			"inputs": [],
			"name": "emergencyStop",
			"outputs": [],
			"stateMutability": "nonpayable",
			"type": "function"
		},
		{
			"inputs": [],
			"name": "emergencyStopped",
			"outputs": [
				{
					"internalType": "bool",
					"name": "",
					"type": "bool"
				}
			],
			"stateMutability": "view",
			"type": "function"
		},
		{
			"inputs": [],
			"name": "executeScheduledMint",
			"outputs": [],
			"stateMutability": "nonpayable",
			"type": "function"
		},
		{
			"inputs": [
				{
					"internalType": "bytes32",
					"name": "role",
					"type": "bytes32"
				}
			],
			"name": "getRoleAdmin",
			"outputs": [
				{
					"internalType": "bytes32",
					"name": "",
					"type": "bytes32"
				}
			],
			"stateMutability": "view",
			"type": "function"
		},
		{
			"inputs": [
				{
					"internalType": "bytes32",
					"name": "role",
					"type": "bytes32"
				},
				{
					"internalType": "address",
					"name": "account",
					"type": "address"
				}
			],
			"name": "grantRole",
			"outputs": [],
			"stateMutability": "nonpayable",
			"type": "function"
		},
		{
			"inputs": [
				{
					"internalType": "bytes32",
					"name": "role",
					"type": "bytes32"
				},
				{
					"internalType": "address",
					"name": "account",
					"type": "address"
				}
			],
			"name": "hasRole",
			"outputs": [
				{
					"internalType": "bool",
					"name": "",
					"type": "bool"
				}
			],
			"stateMutability": "view",
			"type": "function"
		},
		{
			"inputs": [],
			"name": "liftEmergencyStop",
			"outputs": [],
			"stateMutability": "nonpayable",
			"type": "function"
		},
		{
			"inputs": [],
			"name": "name",
			"outputs": [
				{
					"internalType": "string",
					"name": "",
					"type": "string"
				}
			],
			"stateMutability": "view",
			"type": "function"
		},
		{
			"inputs": [],
			"name": "nextMintIndex",
			"outputs": [
				{
					"internalType": "uint256",
					"name": "",
					"type": "uint256"
				}
			],
			"stateMutability": "view",
			"type": "function"
		},
		{
			"inputs": [],
			"name": "owner",
			"outputs": [
				{
					"internalType": "address",
					"name": "",
					"type": "address"
				}
			],
			"stateMutability": "view",
			"type": "function"
		},
		{
			"inputs": [
				{
					"internalType": "address",
					"name": "account",
					"type": "address"
				}
			],
			"name": "ownerGrantBridge",
			"outputs": [],
			"stateMutability": "nonpayable",
			"type": "function"
		},
		{
			"inputs": [
				{
					"internalType": "address",
					"name": "account",
					"type": "address"
				}
			],
			"name": "ownerGrantMinter",
			"outputs": [],
			"stateMutability": "nonpayable",
			"type": "function"
		},
		{
			"inputs": [
				{
					"internalType": "address",
					"name": "account",
					"type": "address"
				}
			],
			"name": "ownerRevokeBridge",
			"outputs": [],
			"stateMutability": "nonpayable",
			"type": "function"
		},
		{
			"inputs": [
				{
					"internalType": "address",
					"name": "account",
					"type": "address"
				}
			],
			"name": "ownerRevokeMinter",
			"outputs": [],
			"stateMutability": "nonpayable",
			"type": "function"
		},
		{
			"inputs": [],
			"name": "renounceOwnership",
			"outputs": [],
			"stateMutability": "nonpayable",
			"type": "function"
		},
		{
			"inputs": [
				{
					"internalType": "bytes32",
					"name": "role",
					"type": "bytes32"
				},
				{
					"internalType": "address",
					"name": "callerConfirmation",
					"type": "address"
				}
			],
			"name": "renounceRole",
			"outputs": [],
			"stateMutability": "nonpayable",
			"type": "function"
		},
		{
			"inputs": [
				{
					"internalType": "address",
					"name": "token",
					"type": "address"
				},
				{
					"internalType": "address",
					"name": "to",
					"type": "address"
				}
			],
			"name": "rescueAllERC20",
			"outputs": [],
			"stateMutability": "nonpayable",
			"type": "function"
		},
		{
			"inputs": [
				{
					"internalType": "address payable",
					"name": "to",
					"type": "address"
				}
			],
			"name": "rescueAllNative",
			"outputs": [],
			"stateMutability": "nonpayable",
			"type": "function"
		},
		{
			"inputs": [
				{
					"internalType": "address",
					"name": "token",
					"type": "address"
				},
				{
					"internalType": "address",
					"name": "to",
					"type": "address"
				},
				{
					"internalType": "uint256",
					"name": "amount",
					"type": "uint256"
				}
			],
			"name": "rescueERC20",
			"outputs": [],
			"stateMutability": "nonpayable",
			"type": "function"
		},
		{
			"inputs": [
				{
					"internalType": "address payable",
					"name": "to",
					"type": "address"
				},
				{
					"internalType": "uint256",
					"name": "amount",
					"type": "uint256"
				}
			],
			"name": "rescueNative",
			"outputs": [],
			"stateMutability": "nonpayable",
			"type": "function"
		},
		{
			"inputs": [
				{
					"internalType": "bytes32",
					"name": "role",
					"type": "bytes32"
				},
				{
					"internalType": "address",
					"name": "account",
					"type": "address"
				}
			],
			"name": "revokeRole",
			"outputs": [],
			"stateMutability": "nonpayable",
			"type": "function"
		},
		{
			"inputs": [
				{
					"internalType": "uint256",
					"name": "",
					"type": "uint256"
				}
			],
			"name": "scheduledMints",
			"outputs": [
				{
					"internalType": "uint256",
					"name": "",
					"type": "uint256"
				}
			],
			"stateMutability": "view",
			"type": "function"
		},
		{
			"inputs": [],
			"name": "scheduledMintsRemaining",
			"outputs": [
				{
					"internalType": "uint256",
					"name": "",
					"type": "uint256"
				}
			],
			"stateMutability": "view",
			"type": "function"
		},
		{
			"inputs": [
				{
					"internalType": "bytes4",
					"name": "interfaceId",
					"type": "bytes4"
				}
			],
			"name": "supportsInterface",
			"outputs": [
				{
					"internalType": "bool",
					"name": "",
					"type": "bool"
				}
			],
			"stateMutability": "view",
			"type": "function"
		},
		{
			"inputs": [],
			"name": "symbol",
			"outputs": [
				{
					"internalType": "string",
					"name": "",
					"type": "string"
				}
			],
			"stateMutability": "view",
			"type": "function"
		},
		{
			"inputs": [],
			"name": "totalSupply",
			"outputs": [
				{
					"internalType": "uint256",
					"name": "",
					"type": "uint256"
				}
			],
			"stateMutability": "view",
			"type": "function"
		},
		{
			"inputs": [
				{
					"internalType": "address",
					"name": "to",
					"type": "address"
				},
				{
					"internalType": "uint256",
					"name": "value",
					"type": "uint256"
				}
			],
			"name": "transfer",
			"outputs": [
				{
					"internalType": "bool",
					"name": "",
					"type": "bool"
				}
			],
			"stateMutability": "nonpayable",
			"type": "function"
		},
		{
			"inputs": [
				{
					"internalType": "address",
					"name": "from",
					"type": "address"
				},
				{
					"internalType": "address",
					"name": "to",
					"type": "address"
				},
				{
					"internalType": "uint256",
					"name": "value",
					"type": "uint256"
				}
			],
			"name": "transferFrom",
			"outputs": [
				{
					"internalType": "bool",
					"name": "",
					"type": "bool"
				}
			],
			"stateMutability": "nonpayable",
			"type": "function"
		},
		{
			"inputs": [
				{
					"internalType": "address",
					"name": "newOwner",
					"type": "address"
				}
			],
			"name": "transferOwnership",
			"outputs": [],
			"stateMutability": "nonpayable",
			"type": "function"
		},
		{
			"stateMutability": "payable",
			"type": "receive"
		}
	],
	"storageLayout": {
		"storage": [
			{
				"astId": 777,
				"contract": "contracts/TIGGCOIN.sol:TIGGCOIN",
				"label": "_balances",
				"offset": 0,
				"slot": "0",
				"type": "t_mapping(t_address,t_uint256)"
			},
			{
				"astId": 783,
				"contract": "contracts/TIGGCOIN.sol:TIGGCOIN",
				"label": "_allowances",
				"offset": 0,
				"slot": "1",
				"type": "t_mapping(t_address,t_mapping(t_address,t_uint256))"
			},
			{
				"astId": 785,
				"contract": "contracts/TIGGCOIN.sol:TIGGCOIN",
				"label": "_totalSupply",
				"offset": 0,
				"slot": "2",
				"type": "t_uint256"
			},
			{
				"astId": 787,
				"contract": "contracts/TIGGCOIN.sol:TIGGCOIN",
				"label": "_name",
				"offset": 0,
				"slot": "3",
				"type": "t_string_storage"
			},
			{
				"astId": 789,
				"contract": "contracts/TIGGCOIN.sol:TIGGCOIN",
				"label": "_symbol",
				"offset": 0,
				"slot": "4",
				"type": "t_string_storage"
			},
			{
				"astId": 27,
				"contract": "contracts/TIGGCOIN.sol:TIGGCOIN",
				"label": "_roles",
				"offset": 0,
				"slot": "5",
				"type": "t_mapping(t_bytes32,t_struct(RoleData)22_storage)"
			},
			{
				"astId": 388,
				"contract": "contracts/TIGGCOIN.sol:TIGGCOIN",
				"label": "_owner",
				"offset": 0,
				"slot": "6",
				"type": "t_address"
			},
			{
				"astId": 1969,
				"contract": "contracts/TIGGCOIN.sol:TIGGCOIN",
				"label": "scheduledMints",
				"offset": 0,
				"slot": "7",
				"type": "t_array(t_uint256)dyn_storage"
			},
			{
				"astId": 1972,
				"contract": "contracts/TIGGCOIN.sol:TIGGCOIN",
				"label": "nextMintIndex",
				"offset": 0,
				"slot": "8",
				"type": "t_uint256"
			},
			{
				"astId": 1975,
				"contract": "contracts/TIGGCOIN.sol:TIGGCOIN",
				"label": "emergencyStopped",
				"offset": 0,
				"slot": "9",
				"type": "t_bool"
			}
		],
		"types": {
			"t_address": {
				"encoding": "inplace",
				"label": "address",
				"numberOfBytes": "20"
			},
			"t_array(t_uint256)dyn_storage": {
				"base": "t_uint256",
				"encoding": "dynamic_array",
				"label": "uint256[]",
				"numberOfBytes": "32"
			},
			"t_bool": {
				"encoding": "inplace",
				"label": "bool",
				"numberOfBytes": "1"
			},
			"t_bytes32": {
				"encoding": "inplace",
				"label": "bytes32",
				"numberOfBytes": "32"
			},
			"t_mapping(t_address,t_bool)": {
				"encoding": "mapping",
				"key": "t_address",
				"label": "mapping(address => bool)",
				"numberOfBytes": "32",
				"value": "t_bool"
			},
			"t_mapping(t_address,t_mapping(t_address,t_uint256))": {
				"encoding": "mapping",
				"key": "t_address",
				"label": "mapping(address => mapping(address => uint256))",
				"numberOfBytes": "32",
				"value": "t_mapping(t_address,t_uint256)"
			},
			"t_mapping(t_address,t_uint256)": {
				"encoding": "mapping",
				"key": "t_address",
				"label": "mapping(address => uint256)",
				"numberOfBytes": "32",
				"value": "t_uint256"
			},
			"t_mapping(t_bytes32,t_struct(RoleData)22_storage)": {
				"encoding": "mapping",
				"key": "t_bytes32",
				"label": "mapping(bytes32 => struct AccessControl.RoleData)",
				"numberOfBytes": "32",
				"value": "t_struct(RoleData)22_storage"
			},
			"t_string_storage": {
				"encoding": "bytes",
				"label": "string",
				"numberOfBytes": "32"
			},
			"t_struct(RoleData)22_storage": {
				"encoding": "inplace",
				"label": "struct AccessControl.RoleData",
				"members": [
					{
						"astId": 19,
						"contract": "contracts/TIGGCOIN.sol:TIGGCOIN",
						"label": "hasRole",
						"offset": 0,
						"slot": "0",
						"type": "t_mapping(t_address,t_bool)"
					},
					{
						"astId": 21,
						"contract": "contracts/TIGGCOIN.sol:TIGGCOIN",
						"label": "adminRole",
						"offset": 0,
						"slot": "1",
						"type": "t_bytes32"
					}
				],
				"numberOfBytes": "64"
			},
			"t_uint256": {
				"encoding": "inplace",
				"label": "uint256",
				"numberOfBytes": "32"
			}
		}
	},
	"web3Deploy": "var tiggcoinContract = new web3.eth.Contract([{\"inputs\":[],\"stateMutability\":\"nonpayable\",\"type\":\"constructor\"},{\"inputs\":[],\"name\":\"AccessControlBadConfirmation\",\"type\":\"error\"},{\"inputs\":[{\"internalType\":\"address\",\"name\":\"account\",\"type\":\"address\"},{\"internalType\":\"bytes32\",\"name\":\"neededRole\",\"type\":\"bytes32\"}],\"name\":\"AccessControlUnauthorizedAccount\",\"type\":\"error\"},{\"inputs\":[{\"internalType\":\"address\",\"name\":\"spender\",\"type\":\"address\"},{\"internalType\":\"uint256\",\"name\":\"allowance\",\"type\":\"uint256\"},{\"internalType\":\"uint256\",\"name\":\"needed\",\"type\":\"uint256\"}],\"name\":\"ERC20InsufficientAllowance\",\"type\":\"error\"},{\"inputs\":[{\"internalType\":\"address\",\"name\":\"sender\",\"type\":\"address\"},{\"internalType\":\"uint256\",\"name\":\"balance\",\"type\":\"uint256\"},{\"internalType\":\"uint256\",\"name\":\"needed\",\"type\":\"uint256\"}],\"name\":\"ERC20InsufficientBalance\",\"type\":\"error\"},{\"inputs\":[{\"internalType\":\"address\",\"name\":\"approver\",\"type\":\"address\"}],\"name\":\"ERC20InvalidApprover\",\"type\":\"error\"},{\"inputs\":[{\"internalType\":\"address\",\"name\":\"receiver\",\"type\":\"address\"}],\"name\":\"ERC20InvalidReceiver\",\"type\":\"error\"},{\"inputs\":[{\"internalType\":\"address\",\"name\":\"sender\",\"type\":\"address\"}],\"name\":\"ERC20InvalidSender\",\"type\":\"error\"},{\"inputs\":[{\"internalType\":\"address\",\"name\":\"spender\",\"type\":\"address\"}],\"name\":\"ERC20InvalidSpender\",\"type\":\"error\"},{\"inputs\":[{\"internalType\":\"address\",\"name\":\"owner\",\"type\":\"address\"}],\"name\":\"OwnableInvalidOwner\",\"type\":\"error\"},{\"inputs\":[{\"internalType\":\"address\",\"name\":\"account\",\"type\":\"address\"}],\"name\":\"OwnableUnauthorizedAccount\",\"type\":\"error\"},{\"inputs\":[{\"internalType\":\"address\",\"name\":\"token\",\"type\":\"address\"}],\"name\":\"SafeERC20FailedOperation\",\"type\":\"error\"},{\"anonymous\":false,\"inputs\":[{\"indexed\":true,\"internalType\":\"address\",\"name\":\"owner\",\"type\":\"address\"},{\"indexed\":true,\"internalType\":\"address\",\"name\":\"spender\",\"type\":\"address\"},{\"indexed\":false,\"internalType\":\"uint256\",\"name\":\"value\",\"type\":\"uint256\"}],\"name\":\"Approval\",\"type\":\"event\"},{\"anonymous\":false,\"inputs\":[{\"indexed\":true,\"internalType\":\"address\",\"name\":\"from\",\"type\":\"address\"},{\"indexed\":false,\"internalType\":\"uint256\",\"name\":\"amount\",\"type\":\"uint256\"},{\"indexed\":true,\"internalType\":\"address\",\"name\":\"bridge\",\"type\":\"address\"}],\"name\":\"BridgeBurn\",\"type\":\"event\"},{\"anonymous\":false,\"inputs\":[{\"indexed\":true,\"internalType\":\"address\",\"name\":\"to\",\"type\":\"address\"},{\"indexed\":false,\"internalType\":\"uint256\",\"name\":\"amount\",\"type\":\"uint256\"},{\"indexed\":true,\"internalType\":\"address\",\"name\":\"bridge\",\"type\":\"address\"}],\"name\":\"BridgeMint\",\"type\":\"event\"},{\"anonymous\":false,\"inputs\":[{\"indexed\":true,\"internalType\":\"address\",\"name\":\"by\",\"type\":\"address\"},{\"indexed\":false,\"internalType\":\"uint256\",\"name\":\"timestamp\",\"type\":\"uint256\"}],\"name\":\"EmergencyLifted\",\"type\":\"event\"},{\"anonymous\":false,\"inputs\":[{\"indexed\":true,\"internalType\":\"address\",\"name\":\"by\",\"type\":\"address\"},{\"indexed\":false,\"internalType\":\"uint256\",\"name\":\"timestamp\",\"type\":\"uint256\"}],\"name\":\"EmergencyStopped\",\"type\":\"event\"},{\"anonymous\":false,\"inputs\":[{\"indexed\":true,\"internalType\":\"address\",\"name\":\"to\",\"type\":\"address\"},{\"indexed\":false,\"internalType\":\"uint256\",\"name\":\"amount\",\"type\":\"uint256\"},{\"indexed\":false,\"internalType\":\"uint256\",\"name\":\"timestamp\",\"type\":\"uint256\"},{\"indexed\":false,\"internalType\":\"uint256\",\"name\":\"newTotalSupply\",\"type\":\"uint256\"}],\"name\":\"MintExecuted\",\"type\":\"event\"},{\"anonymous\":false,\"inputs\":[{\"indexed\":true,\"internalType\":\"uint256\",\"name\":\"amount\",\"type\":\"uint256\"},{\"indexed\":true,\"internalType\":\"uint256\",\"name\":\"unlockTime\",\"type\":\"uint256\"}],\"name\":\"MintScheduled\",\"type\":\"event\"},{\"anonymous\":false,\"inputs\":[{\"indexed\":true,\"internalType\":\"address\",\"name\":\"to\",\"type\":\"address\"},{\"indexed\":false,\"internalType\":\"uint256\",\"name\":\"amount\",\"type\":\"uint256\"}],\"name\":\"NativeRescued\",\"type\":\"event\"},{\"anonymous\":false,\"inputs\":[{\"indexed\":true,\"internalType\":\"address\",\"name\":\"previousOwner\",\"type\":\"address\"},{\"indexed\":true,\"internalType\":\"address\",\"name\":\"newOwner\",\"type\":\"address\"}],\"name\":\"OwnershipTransferred\",\"type\":\"event\"},{\"anonymous\":false,\"inputs\":[{\"indexed\":true,\"internalType\":\"bytes32\",\"name\":\"role\",\"type\":\"bytes32\"},{\"indexed\":true,\"internalType\":\"bytes32\",\"name\":\"previousAdminRole\",\"type\":\"bytes32\"},{\"indexed\":true,\"internalType\":\"bytes32\",\"name\":\"newAdminRole\",\"type\":\"bytes32\"}],\"name\":\"RoleAdminChanged\",\"type\":\"event\"},{\"anonymous\":false,\"inputs\":[{\"indexed\":true,\"internalType\":\"bytes32\",\"name\":\"role\",\"type\":\"bytes32\"},{\"indexed\":true,\"internalType\":\"address\",\"name\":\"account\",\"type\":\"address\"},{\"indexed\":true,\"internalType\":\"address\",\"name\":\"sender\",\"type\":\"address\"}],\"name\":\"RoleGranted\",\"type\":\"event\"},{\"anonymous\":false,\"inputs\":[{\"indexed\":true,\"internalType\":\"bytes32\",\"name\":\"role\",\"type\":\"bytes32\"},{\"indexed\":true,\"internalType\":\"address\",\"name\":\"account\",\"type\":\"address\"},{\"indexed\":true,\"internalType\":\"address\",\"name\":\"sender\",\"type\":\"address\"}],\"name\":\"RoleRevoked\",\"type\":\"event\"},{\"anonymous\":false,\"inputs\":[{\"indexed\":true,\"internalType\":\"address\",\"name\":\"token\",\"type\":\"address\"},{\"indexed\":true,\"internalType\":\"address\",\"name\":\"to\",\"type\":\"address\"},{\"indexed\":false,\"internalType\":\"uint256\",\"name\":\"amount\",\"type\":\"uint256\"}],\"name\":\"TokenRescued\",\"type\":\"event\"},{\"anonymous\":false,\"inputs\":[{\"indexed\":true,\"internalType\":\"address\",\"name\":\"from\",\"type\":\"address\"},{\"indexed\":true,\"internalType\":\"address\",\"name\":\"to\",\"type\":\"address\"},{\"indexed\":false,\"internalType\":\"uint256\",\"name\":\"value\",\"type\":\"uint256\"}],\"name\":\"Transfer\",\"type\":\"event\"},{\"stateMutability\":\"payable\",\"type\":\"fallback\"},{\"inputs\":[],\"name\":\"BRIDGE_ROLE\",\"outputs\":[{\"internalType\":\"bytes32\",\"name\":\"\",\"type\":\"bytes32\"}],\"stateMutability\":\"view\",\"type\":\"function\"},{\"inputs\":[],\"name\":\"DEFAULT_ADMIN_ROLE\",\"outputs\":[{\"internalType\":\"bytes32\",\"name\":\"\",\"type\":\"bytes32\"}],\"stateMutability\":\"view\",\"type\":\"function\"},{\"inputs\":[],\"name\":\"INITIAL_SUPPLY\",\"outputs\":[{\"internalType\":\"uint256\",\"name\":\"\",\"type\":\"uint256\"}],\"stateMutability\":\"view\",\"type\":\"function\"},{\"inputs\":[],\"name\":\"MAX_SUPPLY\",\"outputs\":[{\"internalType\":\"uint256\",\"name\":\"\",\"type\":\"uint256\"}],\"stateMutability\":\"view\",\"type\":\"function\"},{\"inputs\":[],\"name\":\"MINTER_ROLE\",\"outputs\":[{\"internalType\":\"bytes32\",\"name\":\"\",\"type\":\"bytes32\"}],\"stateMutability\":\"view\",\"type\":\"function\"},{\"inputs\":[],\"name\":\"TRANCHE_AMOUNT\",\"outputs\":[{\"internalType\":\"uint256\",\"name\":\"\",\"type\":\"uint256\"}],\"stateMutability\":\"view\",\"type\":\"function\"},{\"inputs\":[{\"internalType\":\"address\",\"name\":\"owner\",\"type\":\"address\"},{\"internalType\":\"address\",\"name\":\"spender\",\"type\":\"address\"}],\"name\":\"allowance\",\"outputs\":[{\"internalType\":\"uint256\",\"name\":\"\",\"type\":\"uint256\"}],\"stateMutability\":\"view\",\"type\":\"function\"},{\"inputs\":[{\"internalType\":\"address\",\"name\":\"spender\",\"type\":\"address\"},{\"internalType\":\"uint256\",\"name\":\"value\",\"type\":\"uint256\"}],\"name\":\"approve\",\"outputs\":[{\"internalType\":\"bool\",\"name\":\"\",\"type\":\"bool\"}],\"stateMutability\":\"nonpayable\",\"type\":\"function\"},{\"inputs\":[{\"internalType\":\"address\",\"name\":\"account\",\"type\":\"address\"}],\"name\":\"balanceOf\",\"outputs\":[{\"internalType\":\"uint256\",\"name\":\"\",\"type\":\"uint256\"}],\"stateMutability\":\"view\",\"type\":\"function\"},{\"inputs\":[{\"internalType\":\"address\",\"name\":\"from\",\"type\":\"address\"},{\"internalType\":\"uint256\",\"name\":\"amount\",\"type\":\"uint256\"}],\"name\":\"bridgeBurn\",\"outputs\":[],\"stateMutability\":\"nonpayable\",\"type\":\"function\"},{\"inputs\":[{\"internalType\":\"address\",\"name\":\"to\",\"type\":\"address\"},{\"internalType\":\"uint256\",\"name\":\"amount\",\"type\":\"uint256\"}],\"name\":\"bridgeMint\",\"outputs\":[],\"stateMutability\":\"nonpayable\",\"type\":\"function\"},{\"inputs\":[],\"name\":\"decimals\",\"outputs\":[{\"internalType\":\"uint8\",\"name\":\"\",\"type\":\"uint8\"}],\"stateMutability\":\"pure\",\"type\":\"function\"},{\"inputs\":[],\"name\":\"emergencyStop\",\"outputs\":[],\"stateMutability\":\"nonpayable\",\"type\":\"function\"},{\"inputs\":[],\"name\":\"emergencyStopped\",\"outputs\":[{\"internalType\":\"bool\",\"name\":\"\",\"type\":\"bool\"}],\"stateMutability\":\"view\",\"type\":\"function\"},{\"inputs\":[],\"name\":\"executeScheduledMint\",\"outputs\":[],\"stateMutability\":\"nonpayable\",\"type\":\"function\"},{\"inputs\":[{\"internalType\":\"bytes32\",\"name\":\"role\",\"type\":\"bytes32\"}],\"name\":\"getRoleAdmin\",\"outputs\":[{\"internalType\":\"bytes32\",\"name\":\"\",\"type\":\"bytes32\"}],\"stateMutability\":\"view\",\"type\":\"function\"},{\"inputs\":[{\"internalType\":\"bytes32\",\"name\":\"role\",\"type\":\"bytes32\"},{\"internalType\":\"address\",\"name\":\"account\",\"type\":\"address\"}],\"name\":\"grantRole\",\"outputs\":[],\"stateMutability\":\"nonpayable\",\"type\":\"function\"},{\"inputs\":[{\"internalType\":\"bytes32\",\"name\":\"role\",\"type\":\"bytes32\"},{\"internalType\":\"address\",\"name\":\"account\",\"type\":\"address\"}],\"name\":\"hasRole\",\"outputs\":[{\"internalType\":\"bool\",\"name\":\"\",\"type\":\"bool\"}],\"stateMutability\":\"view\",\"type\":\"function\"},{\"inputs\":[],\"name\":\"liftEmergencyStop\",\"outputs\":[],\"stateMutability\":\"nonpayable\",\"type\":\"function\"},{\"inputs\":[],\"name\":\"name\",\"outputs\":[{\"internalType\":\"string\",\"name\":\"\",\"type\":\"string\"}],\"stateMutability\":\"view\",\"type\":\"function\"},{\"inputs\":[],\"name\":\"nextMintIndex\",\"outputs\":[{\"internalType\":\"uint256\",\"name\":\"\",\"type\":\"uint256\"}],\"stateMutability\":\"view\",\"type\":\"function\"},{\"inputs\":[],\"name\":\"owner\",\"outputs\":[{\"internalType\":\"address\",\"name\":\"\",\"type\":\"address\"}],\"stateMutability\":\"view\",\"type\":\"function\"},{\"inputs\":[{\"internalType\":\"address\",\"name\":\"account\",\"type\":\"address\"}],\"name\":\"ownerGrantBridge\",\"outputs\":[],\"stateMutability\":\"nonpayable\",\"type\":\"function\"},{\"inputs\":[{\"internalType\":\"address\",\"name\":\"account\",\"type\":\"address\"}],\"name\":\"ownerGrantMinter\",\"outputs\":[],\"stateMutability\":\"nonpayable\",\"type\":\"function\"},{\"inputs\":[{\"internalType\":\"address\",\"name\":\"account\",\"type\":\"address\"}],\"name\":\"ownerRevokeBridge\",\"outputs\":[],\"stateMutability\":\"nonpayable\",\"type\":\"function\"},{\"inputs\":[{\"internalType\":\"address\",\"name\":\"account\",\"type\":\"address\"}],\"name\":\"ownerRevokeMinter\",\"outputs\":[],\"stateMutability\":\"nonpayable\",\"type\":\"function\"},{\"inputs\":[],\"name\":\"renounceOwnership\",\"outputs\":[],\"stateMutability\":\"nonpayable\",\"type\":\"function\"},{\"inputs\":[{\"internalType\":\"bytes32\",\"name\":\"role\",\"type\":\"bytes32\"},{\"internalType\":\"address\",\"name\":\"callerConfirmation\",\"type\":\"address\"}],\"name\":\"renounceRole\",\"outputs\":[],\"stateMutability\":\"nonpayable\",\"type\":\"function\"},{\"inputs\":[{\"internalType\":\"address\",\"name\":\"token\",\"type\":\"address\"},{\"internalType\":\"address\",\"name\":\"to\",\"type\":\"address\"}],\"name\":\"rescueAllERC20\",\"outputs\":[],\"stateMutability\":\"nonpayable\",\"type\":\"function\"},{\"inputs\":[{\"internalType\":\"address payable\",\"name\":\"to\",\"type\":\"address\"}],\"name\":\"rescueAllNative\",\"outputs\":[],\"stateMutability\":\"nonpayable\",\"type\":\"function\"},{\"inputs\":[{\"internalType\":\"address\",\"name\":\"token\",\"type\":\"address\"},{\"internalType\":\"address\",\"name\":\"to\",\"type\":\"address\"},{\"internalType\":\"uint256\",\"name\":\"amount\",\"type\":\"uint256\"}],\"name\":\"rescueERC20\",\"outputs\":[],\"stateMutability\":\"nonpayable\",\"type\":\"function\"},{\"inputs\":[{\"internalType\":\"address payable\",\"name\":\"to\",\"type\":\"address\"},{\"internalType\":\"uint256\",\"name\":\"amount\",\"type\":\"uint256\"}],\"name\":\"rescueNative\",\"outputs\":[],\"stateMutability\":\"nonpayable\",\"type\":\"function\"},{\"inputs\":[{\"internalType\":\"bytes32\",\"name\":\"role\",\"type\":\"bytes32\"},{\"internalType\":\"address\",\"name\":\"account\",\"type\":\"address\"}],\"name\":\"revokeRole\",\"outputs\":[],\"stateMutability\":\"nonpayable\",\"type\":\"function\"},{\"inputs\":[{\"internalType\":\"uint256\",\"name\":\"\",\"type\":\"uint256\"}],\"name\":\"scheduledMints\",\"outputs\":[{\"internalType\":\"uint256\",\"name\":\"\",\"type\":\"uint256\"}],\"stateMutability\":\"view\",\"type\":\"function\"},{\"inputs\":[],\"name\":\"scheduledMintsRemaining\",\"outputs\":[{\"internalType\":\"uint256\",\"name\":\"\",\"type\":\"uint256\"}],\"stateMutability\":\"view\",\"type\":\"function\"},{\"inputs\":[{\"internalType\":\"bytes4\",\"name\":\"interfaceId\",\"type\":\"bytes4\"}],\"name\":\"supportsInterface\",\"outputs\":[{\"internalType\":\"bool\",\"name\":\"\",\"type\":\"bool\"}],\"stateMutability\":\"view\",\"type\":\"function\"},{\"inputs\":[],\"name\":\"symbol\",\"outputs\":[{\"internalType\":\"string\",\"name\":\"\",\"type\":\"string\"}],\"stateMutability\":\"view\",\"type\":\"function\"},{\"inputs\":[],\"name\":\"totalSupply\",\"outputs\":[{\"internalType\":\"uint256\",\"name\":\"\",\"type\":\"uint256\"}],\"stateMutability\":\"view\",\"type\":\"function\"},{\"inputs\":[{\"internalType\":\"address\",\"name\":\"to\",\"type\":\"address\"},{\"internalType\":\"uint256\",\"name\":\"value\",\"type\":\"uint256\"}],\"name\":\"transfer\",\"outputs\":[{\"internalType\":\"bool\",\"name\":\"\",\"type\":\"bool\"}],\"stateMutability\":\"nonpayable\",\"type\":\"function\"},{\"inputs\":[{\"internalType\":\"address\",\"name\":\"from\",\"type\":\"address\"},{\"internalType\":\"address\",\"name\":\"to\",\"type\":\"address\"},{\"internalType\":\"uint256\",\"name\":\"value\",\"type\":\"uint256\"}],\"name\":\"transferFrom\",\"outputs\":[{\"internalType\":\"bool\",\"name\":\"\",\"type\":\"bool\"}],\"stateMutability\":\"nonpayable\",\"type\":\"function\"},{\"inputs\":[{\"internalType\":\"address\",\"name\":\"newOwner\",\"type\":\"address\"}],\"name\":\"transferOwnership\",\"outputs\":[],\"stateMutability\":\"nonpayable\",\"type\":\"function\"},{\"stateMutability\":\"payable\",\"type\":\"receive\"}]);\nvar tiggcoin = tiggcoinContract.deploy({\n     data: '0x60806040525f6008555f60095f6101000a81548160ff0219169083151502179055503480156200002d575f80fd5b50336040518060400160405280600881526020017f54494747434f494e0000000000000000000000000000000000000000000000008152506040518060400160405280600481526020017f54494747000000000000000000000000000000000000000000000000000000008152508160039081620000ac919062000be7565b508060049081620000be919062000be7565b5050505f73ffffffffffffffffffffffffffffffffffffffff168173ffffffffffffffffffffffffffffffffffffffff160362000134575f6040517f1e4fbdf70000000000000000000000000000000000000000000000000000000081526004016200012b919062000d0e565b60405180910390fd5b62000145816200044160201b60201c565b50620001695f801b6200015d6200050460201b60201c565b6200050b60201b60201c565b50620001ab7f9f2df0fed2c77648de5860a4cc508cd0818c85b8b8a1ab4ceeef8d981c8956a66200019f6200050460201b60201c565b6200050b60201b60201c565b50620001ed7f52ba824bfabc2bcfcdf7f0edbb486ebb05e1836c90e78047efeb949990f72e5f620001e16200050460201b60201c565b6200050b60201b60201c565b5062000232620002026200050460201b60201c565b601260ff16600a62000215919062000ea6565b633b9aca0062000226919062000ef6565b6200060760201b60201c565b60076372427080908060018154018082558091505060019003905f5260205f20015f90919091909150556007637ba9c380908060018154018082558091505060019003905f5260205f20015f909190919091505560076385126800908060018154018082558091505060019003905f5260205f20015f90919091909150556007638e79bb00908060018154018082558091505060019003905f5260205f20015f909190919091505560076397e10e00908060018154018082558091505060019003905f5260205f20015f9091909190915055600763a1486100908060018154018082558091505060019003905f5260205f20015f9091909190915055600763aab10580908060018154018082558091505060019003905f5260205f20015f9091909190915055600763b4185880908060018154018082558091505060019003905f5260205f20015f9091909190915055600763bd7fab80908060018154018082558091505060019003905f5260205f20015f90919091909150555f5b6007805490508110156200043a5760078181548110620003d357620003d262000f40565b5b905f5260205f200154601260ff16600a620003ef919062000ea6565b633b9aca0062000400919062000ef6565b7fec75c0cdd7efcd5139001fdffde4379b216ba5aef028769704362fee1ec2d1fb60405160405180910390a38080600101915050620003ae565b506200108c565b5f60065f9054906101000a900473ffffffffffffffffffffffffffffffffffffffff1690508160065f6101000a81548173ffffffffffffffffffffffffffffffffffffffff021916908373ffffffffffffffffffffffffffffffffffffffff1602179055508173ffffffffffffffffffffffffffffffffffffffff168173ffffffffffffffffffffffffffffffffffffffff167f8be0079c531659141344cd1fd0a4f28419497f9722a3daafe3b4186f6b6457e060405160405180910390a35050565b5f33905090565b5f6200051e83836200069160201b60201c565b620005fd57600160055f8581526020019081526020015f205f015f8473ffffffffffffffffffffffffffffffffffffffff1673ffffffffffffffffffffffffffffffffffffffff1681526020019081526020015f205f6101000a81548160ff021916908315150217905550620005996200050460201b60201c565b73ffffffffffffffffffffffffffffffffffffffff168273ffffffffffffffffffffffffffffffffffffffff16847f2f8788117e7eff1d82e926ec794901d17c78024a50270940304540a733656f0d60405160405180910390a46001905062000601565b5f90505b92915050565b5f73ffffffffffffffffffffffffffffffffffffffff168273ffffffffffffffffffffffffffffffffffffffff16036200067a575f6040517fec442f0500000000000000000000000000000000000000000000000000000000815260040162000671919062000d0e565b60405180910390fd5b6200068d5f8383620006f560201b60201c565b5050565b5f60055f8481526020019081526020015f205f015f8373ffffffffffffffffffffffffffffffffffffffff1673ffffffffffffffffffffffffffffffffffffffff1681526020019081526020015f205f9054906101000a900460ff16905092915050565b60095f9054906101000a900460ff161562000747576040517f08c379a00000000000000000000000000000000000000000000000000000000081526004016200073e9062000fcb565b60405180910390fd5b6200075a8383836200075f60201b60201c565b505050565b5f73ffffffffffffffffffffffffffffffffffffffff168373ffffffffffffffffffffffffffffffffffffffff1603620007b3578060025f828254620007a6919062000feb565b9250508190555062000884565b5f805f8573ffffffffffffffffffffffffffffffffffffffff1673ffffffffffffffffffffffffffffffffffffffff1681526020019081526020015f20549050818110156200083f578381836040517fe450d38c000000000000000000000000000000000000000000000000000000008152600401620008369392919062001036565b60405180910390fd5b8181035f808673ffffffffffffffffffffffffffffffffffffffff1673ffffffffffffffffffffffffffffffffffffffff1681526020019081526020015f2081905550505b5f73ffffffffffffffffffffffffffffffffffffffff168273ffffffffffffffffffffffffffffffffffffffff1603620008cd578060025f828254039250508190555062000917565b805f808473ffffffffffffffffffffffffffffffffffffffff1673ffffffffffffffffffffffffffffffffffffffff1681526020019081526020015f205f82825401925050819055505b8173ffffffffffffffffffffffffffffffffffffffff168373ffffffffffffffffffffffffffffffffffffffff167fddf252ad1be2c89b69c2b068fc378daa952ba7f163c4a11628f55a4df523b3ef8360405162000976919062001071565b60405180910390a3505050565b5f81519050919050565b7f4e487b71000000000000000000000000000000000000000000000000000000005f52604160045260245ffd5b7f4e487b71000000000000000000000000000000000000000000000000000000005f52602260045260245ffd5b5f6002820490506001821680620009ff57607f821691505b60208210810362000a155762000a14620009ba565b5b50919050565b5f819050815f5260205f209050919050565b5f6020601f8301049050919050565b5f82821b905092915050565b5f6008830262000a797fffffffffffffffffffffffffffffffffffffffffffffffffffffffffffffffff8262000a3c565b62000a85868362000a3c565b95508019841693508086168417925050509392505050565b5f819050919050565b5f819050919050565b5f62000acf62000ac962000ac38462000a9d565b62000aa6565b62000a9d565b9050919050565b5f819050919050565b62000aea8362000aaf565b62000b0262000af98262000ad6565b84845462000a48565b825550505050565b5f90565b62000b1862000b0a565b62000b2581848462000adf565b505050565b5b8181101562000b4c5762000b405f8262000b0e565b60018101905062000b2b565b5050565b601f82111562000b9b5762000b658162000a1b565b62000b708462000a2d565b8101602085101562000b80578190505b62000b9862000b8f8562000a2d565b83018262000b2a565b50505b505050565b5f82821c905092915050565b5f62000bbd5f198460080262000ba0565b1980831691505092915050565b5f62000bd7838362000bac565b9150826002028217905092915050565b62000bf28262000983565b67ffffffffffffffff81111562000c0e5762000c0d6200098d565b5b62000c1a8254620009e7565b62000c2782828562000b50565b5f60209050601f83116001811462000c5d575f841562000c48578287015190505b62000c54858262000bca565b86555062000cc3565b601f19841662000c6d8662000a1b565b5f5b8281101562000c965784890151825560018201915060208501945060208101905062000c6f565b8683101562000cb6578489015162000cb2601f89168262000bac565b8355505b6001600288020188555050505b505050505050565b5f73ffffffffffffffffffffffffffffffffffffffff82169050919050565b5f62000cf68262000ccb565b9050919050565b62000d088162000cea565b82525050565b5f60208201905062000d235f83018462000cfd565b92915050565b7f4e487b71000000000000000000000000000000000000000000000000000000005f52601160045260245ffd5b5f8160011c9050919050565b5f808291508390505b600185111562000db35780860481111562000d8b5762000d8a62000d29565b5b600185161562000d9b5780820291505b808102905062000dab8562000d56565b945062000d6b565b94509492505050565b5f8262000dcd576001905062000e9f565b8162000ddc575f905062000e9f565b816001811462000df5576002811462000e005762000e36565b600191505062000e9f565b60ff84111562000e155762000e1462000d29565b5b8360020a91508482111562000e2f5762000e2e62000d29565b5b5062000e9f565b5060208310610133831016604e8410600b841016171562000e705782820a90508381111562000e6a5762000e6962000d29565b5b62000e9f565b62000e7f848484600162000d62565b9250905081840481111562000e995762000e9862000d29565b5b81810290505b9392505050565b5f62000eb28262000a9d565b915062000ebf8362000a9d565b925062000eee7fffffffffffffffffffffffffffffffffffffffffffffffffffffffffffffffff848462000dbc565b905092915050565b5f62000f028262000a9d565b915062000f0f8362000a9d565b925082820262000f1f8162000a9d565b9150828204841483151762000f395762000f3862000d29565b5b5092915050565b7f4e487b71000000000000000000000000000000000000000000000000000000005f52603260045260245ffd5b5f82825260208201905092915050565b7f544947473a20656d657267656e63792073746f707065640000000000000000005f82015250565b5f62000fb360178362000f6d565b915062000fc08262000f7d565b602082019050919050565b5f6020820190508181035f83015262000fe48162000fa5565b9050919050565b5f62000ff78262000a9d565b9150620010048362000a9d565b92508282019050808211156200101f576200101e62000d29565b5b92915050565b620010308162000a9d565b82525050565b5f6060820190506200104b5f83018662000cfd565b6200105a602083018562001025565b62001069604083018462001025565b949350505050565b5f602082019050620010865f83018462001025565b92915050565b6134f9806200109a5f395ff3fe608060405260043610610249575f3560e01c8063715018a611610138578063a9059cbb116100b5578063d2cd0cd811610079578063d2cd0cd81461083a578063d539139314610862578063d547741f1461088c578063dd62ed3e146108b4578063e2749c96146108f0578063f2fde38b1461091a57610250565b8063a9059cbb1461075c578063abaf211114610798578063b2118a8d146107c0578063b5bfddea146107e8578063c0a317b81461081257610250565b80638c2a993e116100fc5780638c2a993e1461067a5780638da5cb5b146106a257806391d14854146106cc57806395d89b4114610708578063a217fddf1461073257610250565b8063715018a6146105ac578063733d8665146105c257806374f4f547146105fe5780637b018e331461062657806383efcd391461065057610250565b8063313ce567116101c657806358b214ac1161018a57806358b214ac146104f45780636375952a1461051c5780636389a44d1461054457806363a599a41461055a57806370a082311461057057610250565b8063313ce5671461043a57806332cb6b0c1461046457806336568abe1461048e5780634d2f79ff146104b65780634d57382a146104de57610250565b806323b872dd1161020d57806323b872dd14610346578063248a9ca31461038257806328bcef04146103be5780632f2ff15d146103e85780632ff2e9dc1461041057610250565b806301ffc9a71461025257806306fdde031461028e578063095ea7b3146102b85780631291f79d146102f457806318160ddd1461031c57610250565b3661025057005b005b34801561025d575f80fd5b5061027860048036038101906102739190612884565b610942565b60405161028591906128c9565b60405180910390f35b348015610299575f80fd5b506102a26109bb565b6040516102af919061296c565b60405180910390f35b3480156102c3575f80fd5b506102de60048036038101906102d99190612a19565b610a4b565b6040516102eb91906128c9565b60405180910390f35b3480156102ff575f80fd5b5061031a60048036038101906103159190612a92565b610a6d565b005b348015610327575f80fd5b50610330610bbc565b60405161033d9190612adf565b60405180910390f35b348015610351575f80fd5b5061036c60048036038101906103679190612af8565b610bc5565b60405161037991906128c9565b60405180910390f35b34801561038d575f80fd5b506103a860048036038101906103a39190612b7b565b610bf3565b6040516103b59190612bb5565b60405180910390f35b3480156103c9575f80fd5b506103d2610c10565b6040516103df9190612adf565b60405180910390f35b3480156103f3575f80fd5b5061040e60048036038101906104099190612bce565b610c16565b005b34801561041b575f80fd5b50610424610c38565b6040516104319190612adf565b60405180910390f35b348015610445575f80fd5b5061044e610c5b565b60405161045b9190612c27565b60405180910390f35b34801561046f575f80fd5b50610478610c63565b6040516104859190612adf565b60405180910390f35b348015610499575f80fd5b506104b460048036038101906104af9190612bce565b610c87565b005b3480156104c1575f80fd5b506104dc60048036038101906104d79190612c40565b610d02565b005b3480156104e9575f80fd5b506104f2610d38565b005b3480156104ff575f80fd5b5061051a60048036038101906105159190612c40565b610fc4565b005b348015610527575f80fd5b50610542600480360381019061053d9190612c40565b610ffa565b005b34801561054f575f80fd5b5061055861102f565b005b348015610565575f80fd5b5061056e6110a7565b005b34801561057b575f80fd5b5061059660048036038101906105919190612c40565b611120565b6040516105a39190612adf565b60405180910390f35b3480156105b7575f80fd5b506105c0611165565b005b3480156105cd575f80fd5b506105e860048036038101906105e39190612c6b565b611178565b6040516105f59190612adf565b60405180910390f35b348015610609575f80fd5b50610624600480360381019061061f9190612a19565b611198565b005b348015610631575f80fd5b5061063a6112fa565b6040516106479190612adf565b60405180910390f35b34801561065b575f80fd5b5061066461132a565b6040516106719190612adf565b60405180910390f35b348015610685575f80fd5b506106a0600480360381019061069b9190612a19565b61134d565b005b3480156106ad575f80fd5b506106b6611524565b6040516106c39190612ca5565b60405180910390f35b3480156106d7575f80fd5b506106f260048036038101906106ed9190612bce565b61154c565b6040516106ff91906128c9565b60405180910390f35b348015610713575f80fd5b5061071c6115b0565b604051610729919061296c565b60405180910390f35b34801561073d575f80fd5b50610746611640565b6040516107539190612bb5565b60405180910390f35b348015610767575f80fd5b50610782600480360381019061077d9190612a19565b611646565b60405161078f91906128c9565b60405180910390f35b3480156107a3575f80fd5b506107be60048036038101906107b99190612c40565b611668565b005b3480156107cb575f80fd5b506107e660048036038101906107e19190612af8565b61169d565b005b3480156107f3575f80fd5b506107fc6117a8565b6040516108099190612bb5565b60405180910390f35b34801561081d575f80fd5b5061083860048036038101906108339190612cbe565b6117cc565b005b348015610845575f80fd5b50610860600480360381019061085b9190612ce9565b61191e565b005b34801561086d575f80fd5b50610876611ae6565b6040516108839190612bb5565b60405180910390f35b348015610897575f80fd5b506108b260048036038101906108ad9190612bce565b611b0a565b005b3480156108bf575f80fd5b506108da60048036038101906108d59190612ce9565b611b2c565b6040516108e79190612adf565b60405180910390f35b3480156108fb575f80fd5b50610904611bae565b60405161091191906128c9565b60405180910390f35b348015610925575f80fd5b50610940600480360381019061093b9190612c40565b611bc0565b005b5f7f7965db0b000000000000000000000000000000000000000000000000000000007bffffffffffffffffffffffffffffffffffffffffffffffffffffffff1916827bffffffffffffffffffffffffffffffffffffffffffffffffffffffff191614806109b457506109b382611c44565b5b9050919050565b6060600380546109ca90612d54565b80601f01602080910402602001604051908101604052809291908181526020018280546109f690612d54565b8015610a415780601f10610a1857610100808354040283529160200191610a41565b820191905f5260205f20905b815481529060010190602001808311610a2457829003601f168201915b5050505050905090565b5f80610a55611cad565b9050610a62818585611cb4565b600191505092915050565b610a75611cc6565b5f73ffffffffffffffffffffffffffffffffffffffff168273ffffffffffffffffffffffffffffffffffffffff1603610ae3576040517f08c379a0000000000000000000000000000000000000000000000000000000008152600401610ada90612dce565b60405180910390fd5b47811115610b26576040517f08c379a0000000000000000000000000000000000000000000000000000000008152600401610b1d90612e36565b60405180910390fd5b8173ffffffffffffffffffffffffffffffffffffffff166108fc8290811502906040515f60405180830381858888f19350505050158015610b69573d5f803e3d5ffd5b508173ffffffffffffffffffffffffffffffffffffffff167fe3eb98b7fe2a0c1d490b92af73eeae611e9b00ab3c3f70b20bd7bb43f67a0f4382604051610bb09190612adf565b60405180910390a25050565b5f600254905090565b5f80610bcf611cad565b9050610bdc858285611d4d565b610be7858585611de0565b60019150509392505050565b5f60055f8381526020019081526020015f20600101549050919050565b60085481565b610c1f82610bf3565b610c2881611ed0565b610c328383611ee4565b50505050565b601260ff16600a610c499190612fb0565b633b9aca00610c589190612ffa565b81565b5f6012905090565b601260ff16600a610c749190612fb0565b6402540be400610c849190612ffa565b81565b610c8f611cad565b73ffffffffffffffffffffffffffffffffffffffff168173ffffffffffffffffffffffffffffffffffffffff1614610cf3576040517f6697b23200000000000000000000000000000000000000000000000000000000815260040160405180910390fd5b610cfd8282611fce565b505050565b610d0a611cc6565b610d347f9f2df0fed2c77648de5860a4cc508cd0818c85b8b8a1ab4ceeef8d981c8956a682611ee4565b5050565b7f9f2df0fed2c77648de5860a4cc508cd0818c85b8b8a1ab4ceeef8d981c8956a6610d6281611ed0565b60095f9054906101000a900460ff1615610db1576040517f08c379a0000000000000000000000000000000000000000000000000000000008152600401610da890613085565b60405180910390fd5b60078054905060085410610dfa576040517f08c379a0000000000000000000000000000000000000000000000000000000008152600401610df1906130ed565b60405180910390fd5b5f600760085481548110610e1157610e1061310b565b5b905f5260205f200154905080421015610e5f576040517f08c379a0000000000000000000000000000000000000000000000000000000008152600401610e56906131a8565b60405180910390fd5b5f610e68610bbc565b9050601260ff16600a610e7b9190612fb0565b6402540be400610e8b9190612ffa565b601260ff16600a610e9c9190612fb0565b633b9aca00610eab9190612ffa565b82610eb691906131c6565b1115610ef7576040517f08c379a0000000000000000000000000000000000000000000000000000000008152600401610eee90613243565b60405180910390fd5b610f27610f02611524565b601260ff16600a610f139190612fb0565b633b9aca00610f229190612ffa565b6120b8565b610f2f611524565b73ffffffffffffffffffffffffffffffffffffffff167f0e8cced2832690b941c3b15ac00e7e0ce2d3aa09000cd7535508c9221c1060c7601260ff16600a610f779190612fb0565b633b9aca00610f869190612ffa565b42610f8f610bbc565b604051610f9e93929190613261565b60405180910390a2600160085f828254610fb891906131c6565b92505081905550505050565b610fcc611cc6565b610ff67f52ba824bfabc2bcfcdf7f0edbb486ebb05e1836c90e78047efeb949990f72e5f82611ee4565b5050565b611002611cc6565b61102c7f9f2df0fed2c77648de5860a4cc508cd0818c85b8b8a1ab4ceeef8d981c8956a682611b0a565b50565b611037611cc6565b5f60095f6101000a81548160ff021916908315150217905550611058611cad565b73ffffffffffffffffffffffffffffffffffffffff167ff036a640940749aa9c9995beee1b92af0e81c4146443ca049f1a71e9db3b97454260405161109d9190612adf565b60405180910390a2565b6110af611cc6565b600160095f6101000a81548160ff0219169083151502179055506110d1611cad565b73ffffffffffffffffffffffffffffffffffffffff167fcec7eb7d76573077d1643cfbea3f1e4da629bbd107e59871677e581159210056426040516111169190612adf565b60405180910390a2565b5f805f8373ffffffffffffffffffffffffffffffffffffffff1673ffffffffffffffffffffffffffffffffffffffff1681526020019081526020015f20549050919050565b61116d611cc6565b6111765f612137565b565b60078181548110611187575f80fd5b905f5260205f20015f915090505481565b7f52ba824bfabc2bcfcdf7f0edbb486ebb05e1836c90e78047efeb949990f72e5f6111c281611ed0565b60095f9054906101000a900460ff1615611211576040517f08c379a000000000000000000000000000000000000000000000000000000000815260040161120890613085565b60405180910390fd5b5f73ffffffffffffffffffffffffffffffffffffffff168373ffffffffffffffffffffffffffffffffffffffff160361127f576040517f08c379a0000000000000000000000000000000000000000000000000000000008152600401611276906132e0565b60405180910390fd5b61128983836121fa565b611291611cad565b73ffffffffffffffffffffffffffffffffffffffff168373ffffffffffffffffffffffffffffffffffffffff167f32f9b14980d51f40ba4119c33daf3d6700e0ed2820178703454e311da0c58a73846040516112ed9190612adf565b60405180910390a3505050565b5f60078054905060085410611311575f9050611327565b60085460078054905061132491906132fe565b90505b90565b601260ff16600a61133b9190612fb0565b633b9aca0061134a9190612ffa565b81565b7f52ba824bfabc2bcfcdf7f0edbb486ebb05e1836c90e78047efeb949990f72e5f61137781611ed0565b60095f9054906101000a900460ff16156113c6576040517f08c379a00000000000000000000000000000000000000000000000000000000081526004016113bd90613085565b60405180910390fd5b5f73ffffffffffffffffffffffffffffffffffffffff168373ffffffffffffffffffffffffffffffffffffffff1603611434576040517f08c379a000000000000000000000000000000000000000000000000000000000815260040161142b9061337b565b60405180910390fd5b601260ff16600a6114459190612fb0565b6402540be4006114559190612ffa565b8261145e610bbc565b61146891906131c6565b11156114a9576040517f08c379a00000000000000000000000000000000000000000000000000000000081526004016114a090613243565b60405180910390fd5b6114b383836120b8565b6114bb611cad565b73ffffffffffffffffffffffffffffffffffffffff168373ffffffffffffffffffffffffffffffffffffffff167f0c6c954b09524700ccc368d1fac1e0623fc58bb1b87083f807332fe19f667dbe846040516115179190612adf565b60405180910390a3505050565b5f60065f9054906101000a900473ffffffffffffffffffffffffffffffffffffffff16905090565b5f60055f8481526020019081526020015f205f015f8373ffffffffffffffffffffffffffffffffffffffff1673ffffffffffffffffffffffffffffffffffffffff1681526020019081526020015f205f9054906101000a900460ff16905092915050565b6060600480546115bf90612d54565b80601f01602080910402602001604051908101604052809291908181526020018280546115eb90612d54565b80156116365780601f1061160d57610100808354040283529160200191611636565b820191905f5260205f20905b81548152906001019060200180831161161957829003601f168201915b5050505050905090565b5f801b81565b5f80611650611cad565b905061165d818585611de0565b600191505092915050565b611670611cc6565b61169a7f52ba824bfabc2bcfcdf7f0edbb486ebb05e1836c90e78047efeb949990f72e5f82611b0a565b50565b6116a5611cc6565b5f73ffffffffffffffffffffffffffffffffffffffff168273ffffffffffffffffffffffffffffffffffffffff1603611713576040517f08c379a000000000000000000000000000000000000000000000000000000000815260040161170a90612dce565b60405180910390fd5b61173e82828573ffffffffffffffffffffffffffffffffffffffff166122799092919063ffffffff16565b8173ffffffffffffffffffffffffffffffffffffffff168373ffffffffffffffffffffffffffffffffffffffff167f4143f7b5cb6ea007914c32b8a3e64cebc051d7f493fa0755454da1e47701e1258360405161179b9190612adf565b60405180910390a3505050565b7f52ba824bfabc2bcfcdf7f0edbb486ebb05e1836c90e78047efeb949990f72e5f81565b6117d4611cc6565b5f73ffffffffffffffffffffffffffffffffffffffff168173ffffffffffffffffffffffffffffffffffffffff1603611842576040517f08c379a000000000000000000000000000000000000000000000000000000000815260040161183990612dce565b60405180910390fd5b5f4790505f8111611888576040517f08c379a000000000000000000000000000000000000000000000000000000000815260040161187f906133e3565b60405180910390fd5b8173ffffffffffffffffffffffffffffffffffffffff166108fc8290811502906040515f60405180830381858888f193505050501580156118cb573d5f803e3d5ffd5b508173ffffffffffffffffffffffffffffffffffffffff167fe3eb98b7fe2a0c1d490b92af73eeae611e9b00ab3c3f70b20bd7bb43f67a0f43826040516119129190612adf565b60405180910390a25050565b611926611cc6565b5f73ffffffffffffffffffffffffffffffffffffffff168173ffffffffffffffffffffffffffffffffffffffff1603611994576040517f08c379a000000000000000000000000000000000000000000000000000000000815260040161198b90612dce565b60405180910390fd5b5f8273ffffffffffffffffffffffffffffffffffffffff166370a08231306040518263ffffffff1660e01b81526004016119ce9190612ca5565b602060405180830381865afa1580156119e9573d5f803e3d5ffd5b505050506040513d601f19601f82011682018060405250810190611a0d9190613415565b90505f8111611a51576040517f08c379a0000000000000000000000000000000000000000000000000000000008152600401611a48906133e3565b60405180910390fd5b611a7c82828573ffffffffffffffffffffffffffffffffffffffff166122799092919063ffffffff16565b8173ffffffffffffffffffffffffffffffffffffffff168373ffffffffffffffffffffffffffffffffffffffff167f4143f7b5cb6ea007914c32b8a3e64cebc051d7f493fa0755454da1e47701e12583604051611ad99190612adf565b60405180910390a3505050565b7f9f2df0fed2c77648de5860a4cc508cd0818c85b8b8a1ab4ceeef8d981c8956a681565b611b1382610bf3565b611b1c81611ed0565b611b268383611fce565b50505050565b5f60015f8473ffffffffffffffffffffffffffffffffffffffff1673ffffffffffffffffffffffffffffffffffffffff1681526020019081526020015f205f8373ffffffffffffffffffffffffffffffffffffffff1673ffffffffffffffffffffffffffffffffffffffff1681526020019081526020015f2054905092915050565b60095f9054906101000a900460ff1681565b611bc8611cc6565b5f73ffffffffffffffffffffffffffffffffffffffff168173ffffffffffffffffffffffffffffffffffffffff1603611c38575f6040517f1e4fbdf7000000000000000000000000000000000000000000000000000000008152600401611c2f9190612ca5565b60405180910390fd5b611c4181612137565b50565b5f7f01ffc9a7000000000000000000000000000000000000000000000000000000007bffffffffffffffffffffffffffffffffffffffffffffffffffffffff1916827bffffffffffffffffffffffffffffffffffffffffffffffffffffffff1916149050919050565b5f33905090565b611cc183838360016122f8565b505050565b611cce611cad565b73ffffffffffffffffffffffffffffffffffffffff16611cec611524565b73ffffffffffffffffffffffffffffffffffffffff1614611d4b57611d0f611cad565b6040517f118cdaa7000000000000000000000000000000000000000000000000000000008152600401611d429190612ca5565b60405180910390fd5b565b5f611d588484611b2c565b90507fffffffffffffffffffffffffffffffffffffffffffffffffffffffffffffffff811015611dda5781811015611dcb578281836040517ffb8f41b2000000000000000000000000000000000000000000000000000000008152600401611dc293929190613440565b60405180910390fd5b611dd984848484035f6122f8565b5b50505050565b5f73ffffffffffffffffffffffffffffffffffffffff168373ffffffffffffffffffffffffffffffffffffffff1603611e50575f6040517f96c6fd1e000000000000000000000000000000000000000000000000000000008152600401611e479190612ca5565b60405180910390fd5b5f73ffffffffffffffffffffffffffffffffffffffff168273ffffffffffffffffffffffffffffffffffffffff1603611ec0575f6040517fec442f05000000000000000000000000000000000000000000000000000000008152600401611eb79190612ca5565b60405180910390fd5b611ecb8383836124c7565b505050565b611ee181611edc611cad565b612526565b50565b5f611eef838361154c565b611fc457600160055f8581526020019081526020015f205f015f8473ffffffffffffffffffffffffffffffffffffffff1673ffffffffffffffffffffffffffffffffffffffff1681526020019081526020015f205f6101000a81548160ff021916908315150217905550611f61611cad565b73ffffffffffffffffffffffffffffffffffffffff168273ffffffffffffffffffffffffffffffffffffffff16847f2f8788117e7eff1d82e926ec794901d17c78024a50270940304540a733656f0d60405160405180910390a460019050611fc8565b5f90505b92915050565b5f611fd9838361154c565b156120ae575f60055f8581526020019081526020015f205f015f8473ffffffffffffffffffffffffffffffffffffffff1673ffffffffffffffffffffffffffffffffffffffff1681526020019081526020015f205f6101000a81548160ff02191690831515021790555061204b611cad565b73ffffffffffffffffffffffffffffffffffffffff168273ffffffffffffffffffffffffffffffffffffffff16847ff6391f5c32d9c69d2a47ea670b442974b53935d1edc7fd64eb21e047a839171b60405160405180910390a4600190506120b2565b5f90505b92915050565b5f73ffffffffffffffffffffffffffffffffffffffff168273ffffffffffffffffffffffffffffffffffffffff1603612128575f6040517fec442f0500000000000000000000000000000000000000000000000000000000815260040161211f9190612ca5565b60405180910390fd5b6121335f83836124c7565b5050565b5f60065f9054906101000a900473ffffffffffffffffffffffffffffffffffffffff1690508160065f6101000a81548173ffffffffffffffffffffffffffffffffffffffff021916908373ffffffffffffffffffffffffffffffffffffffff1602179055508173ffffffffffffffffffffffffffffffffffffffff168173ffffffffffffffffffffffffffffffffffffffff167f8be0079c531659141344cd1fd0a4f28419497f9722a3daafe3b4186f6b6457e060405160405180910390a35050565b5f73ffffffffffffffffffffffffffffffffffffffff168273ffffffffffffffffffffffffffffffffffffffff160361226a575f6040517f96c6fd1e0000000000000000000000000000000000000000000000000000000081526004016122619190612ca5565b60405180910390fd5b612275825f836124c7565b5050565b6122f3838473ffffffffffffffffffffffffffffffffffffffff1663a9059cbb85856040516024016122ac929190613475565b604051602081830303815290604052915060e01b6020820180517bffffffffffffffffffffffffffffffffffffffffffffffffffffffff8381831617835250505050612577565b505050565b5f73ffffffffffffffffffffffffffffffffffffffff168473ffffffffffffffffffffffffffffffffffffffff1603612368575f6040517fe602df0500000000000000000000000000000000000000000000000000000000815260040161235f9190612ca5565b60405180910390fd5b5f73ffffffffffffffffffffffffffffffffffffffff168373ffffffffffffffffffffffffffffffffffffffff16036123d8575f6040517f94280d620000000000000000000000000000000000000000000000000000000081526004016123cf9190612ca5565b60405180910390fd5b8160015f8673ffffffffffffffffffffffffffffffffffffffff1673ffffffffffffffffffffffffffffffffffffffff1681526020019081526020015f205f8573ffffffffffffffffffffffffffffffffffffffff1673ffffffffffffffffffffffffffffffffffffffff1681526020019081526020015f208190555080156124c1578273ffffffffffffffffffffffffffffffffffffffff168473ffffffffffffffffffffffffffffffffffffffff167f8c5be1e5ebec7d5bd14f71427d1e84f3dd0314c0f7b2291e5b200ac8c7c3b925846040516124b89190612adf565b60405180910390a35b50505050565b60095f9054906101000a900460ff1615612516576040517f08c379a000000000000000000000000000000000000000000000000000000000815260040161250d90613085565b60405180910390fd5b612521838383612612565b505050565b612530828261154c565b6125735780826040517fe2517d3f00000000000000000000000000000000000000000000000000000000815260040161256a92919061349c565b60405180910390fd5b5050565b5f8060205f8451602086015f885af180612596576040513d5f823e3d81fd5b3d92505f519150505f82146125af5760018114156125ca565b5f8473ffffffffffffffffffffffffffffffffffffffff163b145b1561260c57836040517f5274afe70000000000000000000000000000000000000000000000000000000081526004016126039190612ca5565b60405180910390fd5b50505050565b5f73ffffffffffffffffffffffffffffffffffffffff168373ffffffffffffffffffffffffffffffffffffffff1603612662578060025f82825461265691906131c6565b92505081905550612730565b5f805f8573ffffffffffffffffffffffffffffffffffffffff1673ffffffffffffffffffffffffffffffffffffffff1681526020019081526020015f20549050818110156126eb578381836040517fe450d38c0000000000000000000000000000000000000000000000000000000081526004016126e293929190613440565b60405180910390fd5b8181035f808673ffffffffffffffffffffffffffffffffffffffff1673ffffffffffffffffffffffffffffffffffffffff1681526020019081526020015f2081905550505b5f73ffffffffffffffffffffffffffffffffffffffff168273ffffffffffffffffffffffffffffffffffffffff1603612777578060025f82825403925050819055506127c1565b805f808473ffffffffffffffffffffffffffffffffffffffff1673ffffffffffffffffffffffffffffffffffffffff1681526020019081526020015f205f82825401925050819055505b8173ffffffffffffffffffffffffffffffffffffffff168373ffffffffffffffffffffffffffffffffffffffff167fddf252ad1be2c89b69c2b068fc378daa952ba7f163c4a11628f55a4df523b3ef8360405161281e9190612adf565b60405180910390a3505050565b5f80fd5b5f7fffffffff0000000000000000000000000000000000000000000000000000000082169050919050565b6128638161282f565b811461286d575f80fd5b50565b5f8135905061287e8161285a565b92915050565b5f602082840312156128995761289861282b565b5b5f6128a684828501612870565b91505092915050565b5f8115159050919050565b6128c3816128af565b82525050565b5f6020820190506128dc5f8301846128ba565b92915050565b5f81519050919050565b5f82825260208201905092915050565b5f5b838110156129195780820151818401526020810190506128fe565b5f8484015250505050565b5f601f19601f8301169050919050565b5f61293e826128e2565b61294881856128ec565b93506129588185602086016128fc565b61296181612924565b840191505092915050565b5f6020820190508181035f8301526129848184612934565b905092915050565b5f73ffffffffffffffffffffffffffffffffffffffff82169050919050565b5f6129b58261298c565b9050919050565b6129c5816129ab565b81146129cf575f80fd5b50565b5f813590506129e0816129bc565b92915050565b5f819050919050565b6129f8816129e6565b8114612a02575f80fd5b50565b5f81359050612a13816129ef565b92915050565b5f8060408385031215612a2f57612a2e61282b565b5b5f612a3c858286016129d2565b9250506020612a4d85828601612a05565b9150509250929050565b5f612a618261298c565b9050919050565b612a7181612a57565b8114612a7b575f80fd5b50565b5f81359050612a8c81612a68565b92915050565b5f8060408385031215612aa857612aa761282b565b5b5f612ab585828601612a7e565b9250506020612ac685828601612a05565b9150509250929050565b612ad9816129e6565b82525050565b5f602082019050612af25f830184612ad0565b92915050565b5f805f60608486031215612b0f57612b0e61282b565b5b5f612b1c868287016129d2565b9350506020612b2d868287016129d2565b9250506040612b3e86828701612a05565b9150509250925092565b5f819050919050565b612b5a81612b48565b8114612b64575f80fd5b50565b5f81359050612b7581612b51565b92915050565b5f60208284031215612b9057612b8f61282b565b5b5f612b9d84828501612b67565b91505092915050565b612baf81612b48565b82525050565b5f602082019050612bc85f830184612ba6565b92915050565b5f8060408385031215612be457612be361282b565b5b5f612bf185828601612b67565b9250506020612c02858286016129d2565b9150509250929050565b5f60ff82169050919050565b612c2181612c0c565b82525050565b5f602082019050612c3a5f830184612c18565b92915050565b5f60208284031215612c5557612c5461282b565b5b5f612c62848285016129d2565b91505092915050565b5f60208284031215612c8057612c7f61282b565b5b5f612c8d84828501612a05565b91505092915050565b612c9f816129ab565b82525050565b5f602082019050612cb85f830184612c96565b92915050565b5f60208284031215612cd357612cd261282b565b5b5f612ce084828501612a7e565b91505092915050565b5f8060408385031215612cff57612cfe61282b565b5b5f612d0c858286016129d2565b9250506020612d1d858286016129d2565b9150509250929050565b7f4e487b71000000000000000000000000000000000000000000000000000000005f52602260045260245ffd5b5f6002820490506001821680612d6b57607f821691505b602082108103612d7e57612d7d612d27565b5b50919050565b7f544947473a20746f207a65726f000000000000000000000000000000000000005f82015250565b5f612db8600d836128ec565b9150612dc382612d84565b602082019050919050565b5f6020820190508181035f830152612de581612dac565b9050919050565b7f544947473a20696e73756666696369656e742062616c616e63650000000000005f82015250565b5f612e20601a836128ec565b9150612e2b82612dec565b602082019050919050565b5f6020820190508181035f830152612e4d81612e14565b9050919050565b7f4e487b71000000000000000000000000000000000000000000000000000000005f52601160045260245ffd5b5f8160011c9050919050565b5f808291508390505b6001851115612ed657808604811115612eb257612eb1612e54565b5b6001851615612ec15780820291505b8081029050612ecf85612e81565b9450612e96565b94509492505050565b5f82612eee5760019050612fa9565b81612efb575f9050612fa9565b8160018114612f115760028114612f1b57612f4a565b6001915050612fa9565b60ff841115612f2d57612f2c612e54565b5b8360020a915084821115612f4457612f43612e54565b5b50612fa9565b5060208310610133831016604e8410600b8410161715612f7f5782820a905083811115612f7a57612f79612e54565b5b612fa9565b612f8c8484846001612e8d565b92509050818404811115612fa357612fa2612e54565b5b81810290505b9392505050565b5f612fba826129e6565b9150612fc5836129e6565b9250612ff27fffffffffffffffffffffffffffffffffffffffffffffffffffffffffffffffff8484612edf565b905092915050565b5f613004826129e6565b915061300f836129e6565b925082820261301d816129e6565b9150828204841483151761303457613033612e54565b5b5092915050565b7f544947473a20656d657267656e63792073746f707065640000000000000000005f82015250565b5f61306f6017836128ec565b915061307a8261303b565b602082019050919050565b5f6020820190508181035f83015261309c81613063565b9050919050565b7f544947473a206e6f207363686564756c6564206d696e7473206c6566740000005f82015250565b5f6130d7601d836128ec565b91506130e2826130a3565b602082019050919050565b5f6020820190508181035f830152613104816130cb565b9050919050565b7f4e487b71000000000000000000000000000000000000000000000000000000005f52603260045260245ffd5b7f544947473a207363686564756c6564206d696e74206e6f7420796574206176615f8201527f696c61626c650000000000000000000000000000000000000000000000000000602082015250565b5f6131926026836128ec565b915061319d82613138565b604082019050919050565b5f6020820190508181035f8301526131bf81613186565b9050919050565b5f6131d0826129e6565b91506131db836129e6565b92508282019050808211156131f3576131f2612e54565b5b92915050565b7f544947473a206d617820737570706c79206578636565646564000000000000005f82015250565b5f61322d6019836128ec565b9150613238826131f9565b602082019050919050565b5f6020820190508181035f83015261325a81613221565b9050919050565b5f6060820190506132745f830186612ad0565b6132816020830185612ad0565b61328e6040830184612ad0565b949350505050565b7f544947473a206275726e2066726f6d207a65726f0000000000000000000000005f82015250565b5f6132ca6014836128ec565b91506132d582613296565b602082019050919050565b5f6020820190508181035f8301526132f7816132be565b9050919050565b5f613308826129e6565b9150613313836129e6565b925082820390508181111561332b5761332a612e54565b5b92915050565b7f544947473a206d696e7420746f207a65726f00000000000000000000000000005f82015250565b5f6133656012836128ec565b915061337082613331565b602082019050919050565b5f6020820190508181035f83015261339281613359565b9050919050565b7f544947473a207a65726f2062616c616e636500000000000000000000000000005f82015250565b5f6133cd6012836128ec565b91506133d882613399565b602082019050919050565b5f6020820190508181035f8301526133fa816133c1565b9050919050565b5f8151905061340f816129ef565b92915050565b5f6020828403121561342a5761342961282b565b5b5f61343784828501613401565b91505092915050565b5f6060820190506134535f830186612c96565b6134606020830185612ad0565b61346d6040830184612ad0565b949350505050565b5f6040820190506134885f830185612c96565b6134956020830184612ad0565b9392505050565b5f6040820190506134af5f830185612c96565b6134bc6020830184612ba6565b939250505056fea26469706673582212208615976ba76c49de2a54cd95e45f97ab4fc7a8c8abe4b92b29d10005f12dcf2564736f6c63430008180033', \n     arguments: [\n     ]\n}).send({\n     from: web3.eth.accounts[0], \n     gas: '4700000'\n   }, function (e, contract){\n    console.log(e, contract);\n    if (typeof contract.address !== 'undefined') {\n         console.log('Contract mined! address: ' + contract.address + ' transactionHash: ' + contract.transactionHash);\n    }\n })",
	"functionHashes": {
		"b5bfddea": "BRIDGE_ROLE()",
		"a217fddf": "DEFAULT_ADMIN_ROLE()",
		"2ff2e9dc": "INITIAL_SUPPLY()",
		"32cb6b0c": "MAX_SUPPLY()",
		"d5391393": "MINTER_ROLE()",
		"83efcd39": "TRANCHE_AMOUNT()",
		"dd62ed3e": "allowance(address,address)",
		"095ea7b3": "approve(address,uint256)",
		"70a08231": "balanceOf(address)",
		"74f4f547": "bridgeBurn(address,uint256)",
		"8c2a993e": "bridgeMint(address,uint256)",
		"313ce567": "decimals()",
		"63a599a4": "emergencyStop()",
		"e2749c96": "emergencyStopped()",
		"4d57382a": "executeScheduledMint()",
		"248a9ca3": "getRoleAdmin(bytes32)",
		"2f2ff15d": "grantRole(bytes32,address)",
		"91d14854": "hasRole(bytes32,address)",
		"6389a44d": "liftEmergencyStop()",
		"06fdde03": "name()",
		"28bcef04": "nextMintIndex()",
		"8da5cb5b": "owner()",
		"58b214ac": "ownerGrantBridge(address)",
		"4d2f79ff": "ownerGrantMinter(address)",
		"abaf2111": "ownerRevokeBridge(address)",
		"6375952a": "ownerRevokeMinter(address)",
		"715018a6": "renounceOwnership()",
		"36568abe": "renounceRole(bytes32,address)",
		"d2cd0cd8": "rescueAllERC20(address,address)",
		"c0a317b8": "rescueAllNative(address)",
		"b2118a8d": "rescueERC20(address,address,uint256)",
		"1291f79d": "rescueNative(address,uint256)",
		"d547741f": "revokeRole(bytes32,address)",
		"733d8665": "scheduledMints(uint256)",
		"7b018e33": "scheduledMintsRemaining()",
		"01ffc9a7": "supportsInterface(bytes4)",
		"95d89b41": "symbol()",
		"18160ddd": "totalSupply()",
		"a9059cbb": "transfer(address,uint256)",
		"23b872dd": "transferFrom(address,address,uint256)",
		"f2fde38b": "transferOwnership(address)"
	},
	"gasEstimates": {
		"Creation": {
			"codeDepositCost": "2712200",
			"executionCost": "infinite",
			"totalCost": "infinite"
		},
		"External": {
			"": "241",
			"BRIDGE_ROLE()": "436",
			"DEFAULT_ADMIN_ROLE()": "463",
			"INITIAL_SUPPLY()": "infinite",
			"MAX_SUPPLY()": "infinite",
			"MINTER_ROLE()": "391",
			"TRANCHE_AMOUNT()": "infinite",
			"allowance(address,address)": "infinite",
			"approve(address,uint256)": "infinite",
			"balanceOf(address)": "2962",
			"bridgeBurn(address,uint256)": "infinite",
			"bridgeMint(address,uint256)": "infinite",
			"decimals()": "384",
			"emergencyStop()": "infinite",
			"emergencyStopped()": "2598",
			"executeScheduledMint()": "infinite",
			"getRoleAdmin(bytes32)": "infinite",
			"grantRole(bytes32,address)": "infinite",
			"hasRole(bytes32,address)": "3211",
			"liftEmergencyStop()": "infinite",
			"name()": "infinite",
			"nextMintIndex()": "2515",
			"owner()": "2582",
			"ownerGrantBridge(address)": "infinite",
			"ownerGrantMinter(address)": "infinite",
			"ownerRevokeBridge(address)": "infinite",
			"ownerRevokeMinter(address)": "infinite",
			"renounceOwnership()": "infinite",
			"renounceRole(bytes32,address)": "infinite",
			"rescueAllERC20(address,address)": "infinite",
			"rescueAllNative(address)": "infinite",
			"rescueERC20(address,address,uint256)": "infinite",
			"rescueNative(address,uint256)": "infinite",
			"revokeRole(bytes32,address)": "infinite",
			"scheduledMints(uint256)": "infinite",
			"scheduledMintsRemaining()": "infinite",
			"supportsInterface(bytes4)": "764",
			"symbol()": "infinite",
			"totalSupply()": "2567",
			"transfer(address,uint256)": "infinite",
			"transferFrom(address,address,uint256)": "infinite",
			"transferOwnership(address)": "infinite"
		},
		"Internal": {
			"_update(address,address,uint256)": "infinite"
		}
	},
	"devdoc": {
		"errors": {
			"AccessControlBadConfirmation()": [
				{
					"details": "The caller of a function is not the expected one. NOTE: Don't confuse with {AccessControlUnauthorizedAccount}."
				}
			],
			"AccessControlUnauthorizedAccount(address,bytes32)": [
				{
					"details": "The `account` is missing a role."
				}
			],
			"ERC20InsufficientAllowance(address,uint256,uint256)": [
				{
					"details": "Indicates a failure with the `spender`’s `allowance`. Used in transfers.",
					"params": {
						"allowance": "Amount of tokens a `spender` is allowed to operate with.",
						"needed": "Minimum amount required to perform a transfer.",
						"spender": "Address that may be allowed to operate on tokens without being their owner."
					}
				}
			],
			"ERC20InsufficientBalance(address,uint256,uint256)": [
				{
					"details": "Indicates an error related to the current `balance` of a `sender`. Used in transfers.",
					"params": {
						"balance": "Current balance for the interacting account.",
						"needed": "Minimum amount required to perform a transfer.",
						"sender": "Address whose tokens are being transferred."
					}
				}
			],
			"ERC20InvalidApprover(address)": [
				{
					"details": "Indicates a failure with the `approver` of a token to be approved. Used in approvals.",
					"params": {
						"approver": "Address initiating an approval operation."
					}
				}
			],
			"ERC20InvalidReceiver(address)": [
				{
					"details": "Indicates a failure with the token `receiver`. Used in transfers.",
					"params": {
						"receiver": "Address to which tokens are being transferred."
					}
				}
			],
			"ERC20InvalidSender(address)": [
				{
					"details": "Indicates a failure with the token `sender`. Used in transfers.",
					"params": {
						"sender": "Address whose tokens are being transferred."
					}
				}
			],
			"ERC20InvalidSpender(address)": [
				{
					"details": "Indicates a failure with the `spender` to be approved. Used in approvals.",
					"params": {
						"spender": "Address that may be allowed to operate on tokens without being their owner."
					}
				}
			],
			"OwnableInvalidOwner(address)": [
				{
					"details": "The owner is not a valid owner account. (eg. `address(0)`)"
				}
			],
			"OwnableUnauthorizedAccount(address)": [
				{
					"details": "The caller account is not authorized to perform an operation."
				}
			],
			"SafeERC20FailedOperation(address)": [
				{
					"details": "An operation with an ERC-20 token failed."
				}
			]
		},
		"events": {
			"Approval(address,address,uint256)": {
				"details": "Emitted when the allowance of a `spender` for an `owner` is set by a call to {approve}. `value` is the new allowance."
			},
			"RoleAdminChanged(bytes32,bytes32,bytes32)": {
				"details": "Emitted when `newAdminRole` is set as ``role``'s admin role, replacing `previousAdminRole` `DEFAULT_ADMIN_ROLE` is the starting admin for all roles, despite {RoleAdminChanged} not being emitted to signal this."
			},
			"RoleGranted(bytes32,address,address)": {
				"details": "Emitted when `account` is granted `role`. `sender` is the account that originated the contract call. This account bears the admin role (for the granted role). Expected in cases where the role was granted using the internal {AccessControl-_grantRole}."
			},
			"RoleRevoked(bytes32,address,address)": {
				"details": "Emitted when `account` is revoked `role`. `sender` is the account that originated the contract call:   - if using `revokeRole`, it is the admin role bearer   - if using `renounceRole`, it is the role bearer (i.e. `account`)"
			},
			"Transfer(address,address,uint256)": {
				"details": "Emitted when `value` tokens are moved from one account (`from`) to another (`to`). Note that `value` may be zero."
			}
		},
		"kind": "dev",
		"methods": {
			"allowance(address,address)": {
				"details": "Returns the remaining number of tokens that `spender` will be allowed to spend on behalf of `owner` through {transferFrom}. This is zero by default. This value changes when {approve} or {transferFrom} are called."
			},
			"approve(address,uint256)": {
				"details": "See {IERC20-approve}. NOTE: If `value` is the maximum `uint256`, the allowance is not updated on `transferFrom`. This is semantically equivalent to an infinite approval. Requirements: - `spender` cannot be the zero address."
			},
			"balanceOf(address)": {
				"details": "Returns the value of tokens owned by `account`."
			},
			"decimals()": {
				"details": "Returns the number of decimals used to get its user representation. For example, if `decimals` equals `2`, a balance of `505` tokens should be displayed to a user as `5.05` (`505 / 10 ** 2`). Tokens usually opt for a value of 18, imitating the relationship between Ether and Wei. This is the default value returned by this function, unless it's overridden. NOTE: This information is only used for _display_ purposes: it in no way affects any of the arithmetic of the contract, including {IERC20-balanceOf} and {IERC20-transfer}."
			},
			"getRoleAdmin(bytes32)": {
				"details": "Returns the admin role that controls `role`. See {grantRole} and {revokeRole}. To change a role's admin, use {_setRoleAdmin}."
			},
			"grantRole(bytes32,address)": {
				"details": "Grants `role` to `account`. If `account` had not been already granted `role`, emits a {RoleGranted} event. Requirements: - the caller must have ``role``'s admin role. May emit a {RoleGranted} event."
			},
			"hasRole(bytes32,address)": {
				"details": "Returns `true` if `account` has been granted `role`."
			},
			"name()": {
				"details": "Returns the name of the token."
			},
			"owner()": {
				"details": "Returns the address of the current owner."
			},
			"renounceOwnership()": {
				"details": "Leaves the contract without owner. It will not be possible to call `onlyOwner` functions. Can only be called by the current owner. NOTE: Renouncing ownership will leave the contract without an owner, thereby disabling any functionality that is only available to the owner."
			},
			"renounceRole(bytes32,address)": {
				"details": "Revokes `role` from the calling account. Roles are often managed via {grantRole} and {revokeRole}: this function's purpose is to provide a mechanism for accounts to lose their privileges if they are compromised (such as when a trusted device is misplaced). If the calling account had been revoked `role`, emits a {RoleRevoked} event. Requirements: - the caller must be `callerConfirmation`. May emit a {RoleRevoked} event."
			},
			"revokeRole(bytes32,address)": {
				"details": "Revokes `role` from `account`. If `account` had been granted `role`, emits a {RoleRevoked} event. Requirements: - the caller must have ``role``'s admin role. May emit a {RoleRevoked} event."
			},
			"supportsInterface(bytes4)": {
				"details": "Returns true if this contract implements the interface defined by `interfaceId`. See the corresponding https://eips.ethereum.org/EIPS/eip-165#how-interfaces-are-identified[ERC section] to learn more about how these ids are created. This function call must use less than 30 000 gas."
			},
			"symbol()": {
				"details": "Returns the symbol of the token, usually a shorter version of the name."
			},
			"totalSupply()": {
				"details": "Returns the value of tokens in existence."
			},
			"transfer(address,uint256)": {
				"details": "See {IERC20-transfer}. Requirements: - `to` cannot be the zero address. - the caller must have a balance of at least `value`."
			},
			"transferFrom(address,address,uint256)": {
				"details": "See {IERC20-transferFrom}. Skips emitting an {Approval} event indicating an allowance update. This is not required by the ERC. See {xref-ERC20-_approve-address-address-uint256-bool-}[_approve]. NOTE: Does not update the allowance if the current allowance is the maximum `uint256`. Requirements: - `from` and `to` cannot be the zero address. - `from` must have a balance of at least `value`. - the caller must have allowance for ``from``'s tokens of at least `value`."
			},
			"transferOwnership(address)": {
				"details": "Transfers ownership of the contract to a new account (`newOwner`). Can only be called by the current owner."
			}
		},
		"version": 1
	},
	"userdoc": {
		"kind": "user",
		"methods": {},
		"version": 1
	},
	"Runtime Bytecode": {
		"immutableReferences": {},
		"linkReferences": {},
		"object": "608060405260043610610249575f3560e01c8063715018a611610138578063a9059cbb116100b5578063d2cd0cd811610079578063d2cd0cd81461083a578063d539139314610862578063d547741f1461088c578063dd62ed3e146108b4578063e2749c96146108f0578063f2fde38b1461091a57610250565b8063a9059cbb1461075c578063abaf211114610798578063b2118a8d146107c0578063b5bfddea146107e8578063c0a317b81461081257610250565b80638c2a993e116100fc5780638c2a993e1461067a5780638da5cb5b146106a257806391d14854146106cc57806395d89b4114610708578063a217fddf1461073257610250565b8063715018a6146105ac578063733d8665146105c257806374f4f547146105fe5780637b018e331461062657806383efcd391461065057610250565b8063313ce567116101c657806358b214ac1161018a57806358b214ac146104f45780636375952a1461051c5780636389a44d1461054457806363a599a41461055a57806370a082311461057057610250565b8063313ce5671461043a57806332cb6b0c1461046457806336568abe1461048e5780634d2f79ff146104b65780634d57382a146104de57610250565b806323b872dd1161020d57806323b872dd14610346578063248a9ca31461038257806328bcef04146103be5780632f2ff15d146103e85780632ff2e9dc1461041057610250565b806301ffc9a71461025257806306fdde031461028e578063095ea7b3146102b85780631291f79d146102f457806318160ddd1461031c57610250565b3661025057005b005b34801561025d575f80fd5b5061027860048036038101906102739190612884565b610942565b60405161028591906128c9565b60405180910390f35b348015610299575f80fd5b506102a26109bb565b6040516102af919061296c565b60405180910390f35b3480156102c3575f80fd5b506102de60048036038101906102d99190612a19565b610a4b565b6040516102eb91906128c9565b60405180910390f35b3480156102ff575f80fd5b5061031a60048036038101906103159190612a92565b610a6d565b005b348015610327575f80fd5b50610330610bbc565b60405161033d9190612adf565b60405180910390f35b348015610351575f80fd5b5061036c60048036038101906103679190612af8565b610bc5565b60405161037991906128c9565b60405180910390f35b34801561038d575f80fd5b506103a860048036038101906103a39190612b7b565b610bf3565b6040516103b59190612bb5565b60405180910390f35b3480156103c9575f80fd5b506103d2610c10565b6040516103df9190612adf565b60405180910390f35b3480156103f3575f80fd5b5061040e60048036038101906104099190612bce565b610c16565b005b34801561041b575f80fd5b50610424610c38565b6040516104319190612adf565b60405180910390f35b348015610445575f80fd5b5061044e610c5b565b60405161045b9190612c27565b60405180910390f35b34801561046f575f80fd5b50610478610c63565b6040516104859190612adf565b60405180910390f35b348015610499575f80fd5b506104b460048036038101906104af9190612bce565b610c87565b005b3480156104c1575f80fd5b506104dc60048036038101906104d79190612c40565b610d02565b005b3480156104e9575f80fd5b506104f2610d38565b005b3480156104ff575f80fd5b5061051a60048036038101906105159190612c40565b610fc4565b005b348015610527575f80fd5b50610542600480360381019061053d9190612c40565b610ffa565b005b34801561054f575f80fd5b5061055861102f565b005b348015610565575f80fd5b5061056e6110a7565b005b34801561057b575f80fd5b5061059660048036038101906105919190612c40565b611120565b6040516105a39190612adf565b60405180910390f35b3480156105b7575f80fd5b506105c0611165565b005b3480156105cd575f80fd5b506105e860048036038101906105e39190612c6b565b611178565b6040516105f59190612adf565b60405180910390f35b348015610609575f80fd5b50610624600480360381019061061f9190612a19565b611198565b005b348015610631575f80fd5b5061063a6112fa565b6040516106479190612adf565b60405180910390f35b34801561065b575f80fd5b5061066461132a565b6040516106719190612adf565b60405180910390f35b348015610685575f80fd5b506106a0600480360381019061069b9190612a19565b61134d565b005b3480156106ad575f80fd5b506106b6611524565b6040516106c39190612ca5565b60405180910390f35b3480156106d7575f80fd5b506106f260048036038101906106ed9190612bce565b61154c565b6040516106ff91906128c9565b60405180910390f35b348015610713575f80fd5b5061071c6115b0565b604051610729919061296c565b60405180910390f35b34801561073d575f80fd5b50610746611640565b6040516107539190612bb5565b60405180910390f35b348015610767575f80fd5b50610782600480360381019061077d9190612a19565b611646565b60405161078f91906128c9565b60405180910390f35b3480156107a3575f80fd5b506107be60048036038101906107b99190612c40565b611668565b005b3480156107cb575f80fd5b506107e660048036038101906107e19190612af8565b61169d565b005b3480156107f3575f80fd5b506107fc6117a8565b6040516108099190612bb5565b60405180910390f35b34801561081d575f80fd5b5061083860048036038101906108339190612cbe565b6117cc565b005b348015610845575f80fd5b50610860600480360381019061085b9190612ce9565b61191e565b005b34801561086d575f80fd5b50610876611ae6565b6040516108839190612bb5565b60405180910390f35b348015610897575f80fd5b506108b260048036038101906108ad9190612bce565b611b0a565b005b3480156108bf575f80fd5b506108da60048036038101906108d59190612ce9565b611b2c565b6040516108e79190612adf565b60405180910390f35b3480156108fb575f80fd5b50610904611bae565b60405161091191906128c9565b60405180910390f35b348015610925575f80fd5b50610940600480360381019061093b9190612c40565b611bc0565b005b5f7f7965db0b000000000000000000000000000000000000000000000000000000007bffffffffffffffffffffffffffffffffffffffffffffffffffffffff1916827bffffffffffffffffffffffffffffffffffffffffffffffffffffffff191614806109b457506109b382611c44565b5b9050919050565b6060600380546109ca90612d54565b80601f01602080910402602001604051908101604052809291908181526020018280546109f690612d54565b8015610a415780601f10610a1857610100808354040283529160200191610a41565b820191905f5260205f20905b815481529060010190602001808311610a2457829003601f168201915b5050505050905090565b5f80610a55611cad565b9050610a62818585611cb4565b600191505092915050565b610a75611cc6565b5f73ffffffffffffffffffffffffffffffffffffffff168273ffffffffffffffffffffffffffffffffffffffff1603610ae3576040517f08c379a0000000000000000000000000000000000000000000000000000000008152600401610ada90612dce565b60405180910390fd5b47811115610b26576040517f08c379a0000000000000000000000000000000000000000000000000000000008152600401610b1d90612e36565b60405180910390fd5b8173ffffffffffffffffffffffffffffffffffffffff166108fc8290811502906040515f60405180830381858888f19350505050158015610b69573d5f803e3d5ffd5b508173ffffffffffffffffffffffffffffffffffffffff167fe3eb98b7fe2a0c1d490b92af73eeae611e9b00ab3c3f70b20bd7bb43f67a0f4382604051610bb09190612adf565b60405180910390a25050565b5f600254905090565b5f80610bcf611cad565b9050610bdc858285611d4d565b610be7858585611de0565b60019150509392505050565b5f60055f8381526020019081526020015f20600101549050919050565b60085481565b610c1f82610bf3565b610c2881611ed0565b610c328383611ee4565b50505050565b601260ff16600a610c499190612fb0565b633b9aca00610c589190612ffa565b81565b5f6012905090565b601260ff16600a610c749190612fb0565b6402540be400610c849190612ffa565b81565b610c8f611cad565b73ffffffffffffffffffffffffffffffffffffffff168173ffffffffffffffffffffffffffffffffffffffff1614610cf3576040517f6697b23200000000000000000000000000000000000000000000000000000000815260040160405180910390fd5b610cfd8282611fce565b505050565b610d0a611cc6565b610d347f9f2df0fed2c77648de5860a4cc508cd0818c85b8b8a1ab4ceeef8d981c8956a682611ee4565b5050565b7f9f2df0fed2c77648de5860a4cc508cd0818c85b8b8a1ab4ceeef8d981c8956a6610d6281611ed0565b60095f9054906101000a900460ff1615610db1576040517f08c379a0000000000000000000000000000000000000000000000000000000008152600401610da890613085565b60405180910390fd5b60078054905060085410610dfa576040517f08c379a0000000000000000000000000000000000000000000000000000000008152600401610df1906130ed565b60405180910390fd5b5f600760085481548110610e1157610e1061310b565b5b905f5260205f200154905080421015610e5f576040517f08c379a0000000000000000000000000000000000000000000000000000000008152600401610e56906131a8565b60405180910390fd5b5f610e68610bbc565b9050601260ff16600a610e7b9190612fb0565b6402540be400610e8b9190612ffa565b601260ff16600a610e9c9190612fb0565b633b9aca00610eab9190612ffa565b82610eb691906131c6565b1115610ef7576040517f08c379a0000000000000000000000000000000000000000000000000000000008152600401610eee90613243565b60405180910390fd5b610f27610f02611524565b601260ff16600a610f139190612fb0565b633b9aca00610f229190612ffa565b6120b8565b610f2f611524565b73ffffffffffffffffffffffffffffffffffffffff167f0e8cced2832690b941c3b15ac00e7e0ce2d3aa09000cd7535508c9221c1060c7601260ff16600a610f779190612fb0565b633b9aca00610f869190612ffa565b42610f8f610bbc565b604051610f9e93929190613261565b60405180910390a2600160085f828254610fb891906131c6565b92505081905550505050565b610fcc611cc6565b610ff67f52ba824bfabc2bcfcdf7f0edbb486ebb05e1836c90e78047efeb949990f72e5f82611ee4565b5050565b611002611cc6565b61102c7f9f2df0fed2c77648de5860a4cc508cd0818c85b8b8a1ab4ceeef8d981c8956a682611b0a565b50565b611037611cc6565b5f60095f6101000a81548160ff021916908315150217905550611058611cad565b73ffffffffffffffffffffffffffffffffffffffff167ff036a640940749aa9c9995beee1b92af0e81c4146443ca049f1a71e9db3b97454260405161109d9190612adf565b60405180910390a2565b6110af611cc6565b600160095f6101000a81548160ff0219169083151502179055506110d1611cad565b73ffffffffffffffffffffffffffffffffffffffff167fcec7eb7d76573077d1643cfbea3f1e4da629bbd107e59871677e581159210056426040516111169190612adf565b60405180910390a2565b5f805f8373ffffffffffffffffffffffffffffffffffffffff1673ffffffffffffffffffffffffffffffffffffffff1681526020019081526020015f20549050919050565b61116d611cc6565b6111765f612137565b565b60078181548110611187575f80fd5b905f5260205f20015f915090505481565b7f52ba824bfabc2bcfcdf7f0edbb486ebb05e1836c90e78047efeb949990f72e5f6111c281611ed0565b60095f9054906101000a900460ff1615611211576040517f08c379a000000000000000000000000000000000000000000000000000000000815260040161120890613085565b60405180910390fd5b5f73ffffffffffffffffffffffffffffffffffffffff168373ffffffffffffffffffffffffffffffffffffffff160361127f576040517f08c379a0000000000000000000000000000000000000000000000000000000008152600401611276906132e0565b60405180910390fd5b61128983836121fa565b611291611cad565b73ffffffffffffffffffffffffffffffffffffffff168373ffffffffffffffffffffffffffffffffffffffff167f32f9b14980d51f40ba4119c33daf3d6700e0ed2820178703454e311da0c58a73846040516112ed9190612adf565b60405180910390a3505050565b5f60078054905060085410611311575f9050611327565b60085460078054905061132491906132fe565b90505b90565b601260ff16600a61133b9190612fb0565b633b9aca0061134a9190612ffa565b81565b7f52ba824bfabc2bcfcdf7f0edbb486ebb05e1836c90e78047efeb949990f72e5f61137781611ed0565b60095f9054906101000a900460ff16156113c6576040517f08c379a00000000000000000000000000000000000000000000000000000000081526004016113bd90613085565b60405180910390fd5b5f73ffffffffffffffffffffffffffffffffffffffff168373ffffffffffffffffffffffffffffffffffffffff1603611434576040517f08c379a000000000000000000000000000000000000000000000000000000000815260040161142b9061337b565b60405180910390fd5b601260ff16600a6114459190612fb0565b6402540be4006114559190612ffa565b8261145e610bbc565b61146891906131c6565b11156114a9576040517f08c379a00000000000000000000000000000000000000000000000000000000081526004016114a090613243565b60405180910390fd5b6114b383836120b8565b6114bb611cad565b73ffffffffffffffffffffffffffffffffffffffff168373ffffffffffffffffffffffffffffffffffffffff167f0c6c954b09524700ccc368d1fac1e0623fc58bb1b87083f807332fe19f667dbe846040516115179190612adf565b60405180910390a3505050565b5f60065f9054906101000a900473ffffffffffffffffffffffffffffffffffffffff16905090565b5f60055f8481526020019081526020015f205f015f8373ffffffffffffffffffffffffffffffffffffffff1673ffffffffffffffffffffffffffffffffffffffff1681526020019081526020015f205f9054906101000a900460ff16905092915050565b6060600480546115bf90612d54565b80601f01602080910402602001604051908101604052809291908181526020018280546115eb90612d54565b80156116365780601f1061160d57610100808354040283529160200191611636565b820191905f5260205f20905b81548152906001019060200180831161161957829003601f168201915b5050505050905090565b5f801b81565b5f80611650611cad565b905061165d818585611de0565b600191505092915050565b611670611cc6565b61169a7f52ba824bfabc2bcfcdf7f0edbb486ebb05e1836c90e78047efeb949990f72e5f82611b0a565b50565b6116a5611cc6565b5f73ffffffffffffffffffffffffffffffffffffffff168273ffffffffffffffffffffffffffffffffffffffff1603611713576040517f08c379a000000000000000000000000000000000000000000000000000000000815260040161170a90612dce565b60405180910390fd5b61173e82828573ffffffffffffffffffffffffffffffffffffffff166122799092919063ffffffff16565b8173ffffffffffffffffffffffffffffffffffffffff168373ffffffffffffffffffffffffffffffffffffffff167f4143f7b5cb6ea007914c32b8a3e64cebc051d7f493fa0755454da1e47701e1258360405161179b9190612adf565b60405180910390a3505050565b7f52ba824bfabc2bcfcdf7f0edbb486ebb05e1836c90e78047efeb949990f72e5f81565b6117d4611cc6565b5f73ffffffffffffffffffffffffffffffffffffffff168173ffffffffffffffffffffffffffffffffffffffff1603611842576040517f08c379a000000000000000000000000000000000000000000000000000000000815260040161183990612dce565b60405180910390fd5b5f4790505f8111611888576040517f08c379a000000000000000000000000000000000000000000000000000000000815260040161187f906133e3565b60405180910390fd5b8173ffffffffffffffffffffffffffffffffffffffff166108fc8290811502906040515f60405180830381858888f193505050501580156118cb573d5f803e3d5ffd5b508173ffffffffffffffffffffffffffffffffffffffff167fe3eb98b7fe2a0c1d490b92af73eeae611e9b00ab3c3f70b20bd7bb43f67a0f43826040516119129190612adf565b60405180910390a25050565b611926611cc6565b5f73ffffffffffffffffffffffffffffffffffffffff168173ffffffffffffffffffffffffffffffffffffffff1603611994576040517f08c379a000000000000000000000000000000000000000000000000000000000815260040161198b90612dce565b60405180910390fd5b5f8273ffffffffffffffffffffffffffffffffffffffff166370a08231306040518263ffffffff1660e01b81526004016119ce9190612ca5565b602060405180830381865afa1580156119e9573d5f803e3d5ffd5b505050506040513d601f19601f82011682018060405250810190611a0d9190613415565b90505f8111611a51576040517f08c379a0000000000000000000000000000000000000000000000000000000008152600401611a48906133e3565b60405180910390fd5b611a7c82828573ffffffffffffffffffffffffffffffffffffffff166122799092919063ffffffff16565b8173ffffffffffffffffffffffffffffffffffffffff168373ffffffffffffffffffffffffffffffffffffffff167f4143f7b5cb6ea007914c32b8a3e64cebc051d7f493fa0755454da1e47701e12583604051611ad99190612adf565b60405180910390a3505050565b7f9f2df0fed2c77648de5860a4cc508cd0818c85b8b8a1ab4ceeef8d981c8956a681565b611b1382610bf3565b611b1c81611ed0565b611b268383611fce565b50505050565b5f60015f8473ffffffffffffffffffffffffffffffffffffffff1673ffffffffffffffffffffffffffffffffffffffff1681526020019081526020015f205f8373ffffffffffffffffffffffffffffffffffffffff1673ffffffffffffffffffffffffffffffffffffffff1681526020019081526020015f2054905092915050565b60095f9054906101000a900460ff1681565b611bc8611cc6565b5f73ffffffffffffffffffffffffffffffffffffffff168173ffffffffffffffffffffffffffffffffffffffff1603611c38575f6040517f1e4fbdf7000000000000000000000000000000000000000000000000000000008152600401611c2f9190612ca5565b60405180910390fd5b611c4181612137565b50565b5f7f01ffc9a7000000000000000000000000000000000000000000000000000000007bffffffffffffffffffffffffffffffffffffffffffffffffffffffff1916827bffffffffffffffffffffffffffffffffffffffffffffffffffffffff1916149050919050565b5f33905090565b611cc183838360016122f8565b505050565b611cce611cad565b73ffffffffffffffffffffffffffffffffffffffff16611cec611524565b73ffffffffffffffffffffffffffffffffffffffff1614611d4b57611d0f611cad565b6040517f118cdaa7000000000000000000000000000000000000000000000000000000008152600401611d429190612ca5565b60405180910390fd5b565b5f611d588484611b2c565b90507fffffffffffffffffffffffffffffffffffffffffffffffffffffffffffffffff811015611dda5781811015611dcb578281836040517ffb8f41b2000000000000000000000000000000000000000000000000000000008152600401611dc293929190613440565b60405180910390fd5b611dd984848484035f6122f8565b5b50505050565b5f73ffffffffffffffffffffffffffffffffffffffff168373ffffffffffffffffffffffffffffffffffffffff1603611e50575f6040517f96c6fd1e000000000000000000000000000000000000000000000000000000008152600401611e479190612ca5565b60405180910390fd5b5f73ffffffffffffffffffffffffffffffffffffffff168273ffffffffffffffffffffffffffffffffffffffff1603611ec0575f6040517fec442f05000000000000000000000000000000000000000000000000000000008152600401611eb79190612ca5565b60405180910390fd5b611ecb8383836124c7565b505050565b611ee181611edc611cad565b612526565b50565b5f611eef838361154c565b611fc457600160055f8581526020019081526020015f205f015f8473ffffffffffffffffffffffffffffffffffffffff1673ffffffffffffffffffffffffffffffffffffffff1681526020019081526020015f205f6101000a81548160ff021916908315150217905550611f61611cad565b73ffffffffffffffffffffffffffffffffffffffff168273ffffffffffffffffffffffffffffffffffffffff16847f2f8788117e7eff1d82e926ec794901d17c78024a50270940304540a733656f0d60405160405180910390a460019050611fc8565b5f90505b92915050565b5f611fd9838361154c565b156120ae575f60055f8581526020019081526020015f205f015f8473ffffffffffffffffffffffffffffffffffffffff1673ffffffffffffffffffffffffffffffffffffffff1681526020019081526020015f205f6101000a81548160ff02191690831515021790555061204b611cad565b73ffffffffffffffffffffffffffffffffffffffff168273ffffffffffffffffffffffffffffffffffffffff16847ff6391f5c32d9c69d2a47ea670b442974b53935d1edc7fd64eb21e047a839171b60405160405180910390a4600190506120b2565b5f90505b92915050565b5f73ffffffffffffffffffffffffffffffffffffffff168273ffffffffffffffffffffffffffffffffffffffff1603612128575f6040517fec442f0500000000000000000000000000000000000000000000000000000000815260040161211f9190612ca5565b60405180910390fd5b6121335f83836124c7565b5050565b5f60065f9054906101000a900473ffffffffffffffffffffffffffffffffffffffff1690508160065f6101000a81548173ffffffffffffffffffffffffffffffffffffffff021916908373ffffffffffffffffffffffffffffffffffffffff1602179055508173ffffffffffffffffffffffffffffffffffffffff168173ffffffffffffffffffffffffffffffffffffffff167f8be0079c531659141344cd1fd0a4f28419497f9722a3daafe3b4186f6b6457e060405160405180910390a35050565b5f73ffffffffffffffffffffffffffffffffffffffff168273ffffffffffffffffffffffffffffffffffffffff160361226a575f6040517f96c6fd1e0000000000000000000000000000000000000000000000000000000081526004016122619190612ca5565b60405180910390fd5b612275825f836124c7565b5050565b6122f3838473ffffffffffffffffffffffffffffffffffffffff1663a9059cbb85856040516024016122ac929190613475565b604051602081830303815290604052915060e01b6020820180517bffffffffffffffffffffffffffffffffffffffffffffffffffffffff8381831617835250505050612577565b505050565b5f73ffffffffffffffffffffffffffffffffffffffff168473ffffffffffffffffffffffffffffffffffffffff1603612368575f6040517fe602df0500000000000000000000000000000000000000000000000000000000815260040161235f9190612ca5565b60405180910390fd5b5f73ffffffffffffffffffffffffffffffffffffffff168373ffffffffffffffffffffffffffffffffffffffff16036123d8575f6040517f94280d620000000000000000000000000000000000000000000000000000000081526004016123cf9190612ca5565b60405180910390fd5b8160015f8673ffffffffffffffffffffffffffffffffffffffff1673ffffffffffffffffffffffffffffffffffffffff1681526020019081526020015f205f8573ffffffffffffffffffffffffffffffffffffffff1673ffffffffffffffffffffffffffffffffffffffff1681526020019081526020015f208190555080156124c1578273ffffffffffffffffffffffffffffffffffffffff168473ffffffffffffffffffffffffffffffffffffffff167f8c5be1e5ebec7d5bd14f71427d1e84f3dd0314c0f7b2291e5b200ac8c7c3b925846040516124b89190612adf565b60405180910390a35b50505050565b60095f9054906101000a900460ff1615612516576040517f08c379a000000000000000000000000000000000000000000000000000000000815260040161250d90613085565b60405180910390fd5b612521838383612612565b505050565b612530828261154c565b6125735780826040517fe2517d3f00000000000000000000000000000000000000000000000000000000815260040161256a92919061349c565b60405180910390fd5b5050565b5f8060205f8451602086015f885af180612596576040513d5f823e3d81fd5b3d92505f519150505f82146125af5760018114156125ca565b5f8473ffffffffffffffffffffffffffffffffffffffff163b145b1561260c57836040517f5274afe70000000000000000000000000000000000000000000000000000000081526004016126039190612ca5565b60405180910390fd5b50505050565b5f73ffffffffffffffffffffffffffffffffffffffff168373ffffffffffffffffffffffffffffffffffffffff1603612662578060025f82825461265691906131c6565b92505081905550612730565b5f805f8573ffffffffffffffffffffffffffffffffffffffff1673ffffffffffffffffffffffffffffffffffffffff1681526020019081526020015f20549050818110156126eb578381836040517fe450d38c0000000000000000000000000000000000000000000000000000000081526004016126e293929190613440565b60405180910390fd5b8181035f808673ffffffffffffffffffffffffffffffffffffffff1673ffffffffffffffffffffffffffffffffffffffff1681526020019081526020015f2081905550505b5f73ffffffffffffffffffffffffffffffffffffffff168273ffffffffffffffffffffffffffffffffffffffff1603612777578060025f82825403925050819055506127c1565b805f808473ffffffffffffffffffffffffffffffffffffffff1673ffffffffffffffffffffffffffffffffffffffff1681526020019081526020015f205f82825401925050819055505b8173ffffffffffffffffffffffffffffffffffffffff168373ffffffffffffffffffffffffffffffffffffffff167fddf252ad1be2c89b69c2b068fc378daa952ba7f163c4a11628f55a4df523b3ef8360405161281e9190612adf565b60405180910390a3505050565b5f80fd5b5f7fffffffff0000000000000000000000000000000000000000000000000000000082169050919050565b6128638161282f565b811461286d575f80fd5b50565b5f8135905061287e8161285a565b92915050565b5f602082840312156128995761289861282b565b5b5f6128a684828501612870565b91505092915050565b5f8115159050919050565b6128c3816128af565b82525050565b5f6020820190506128dc5f8301846128ba565b92915050565b5f81519050919050565b5f82825260208201905092915050565b5f5b838110156129195780820151818401526020810190506128fe565b5f8484015250505050565b5f601f19601f8301169050919050565b5f61293e826128e2565b61294881856128ec565b93506129588185602086016128fc565b61296181612924565b840191505092915050565b5f6020820190508181035f8301526129848184612934565b905092915050565b5f73ffffffffffffffffffffffffffffffffffffffff82169050919050565b5f6129b58261298c565b9050919050565b6129c5816129ab565b81146129cf575f80fd5b50565b5f813590506129e0816129bc565b92915050565b5f819050919050565b6129f8816129e6565b8114612a02575f80fd5b50565b5f81359050612a13816129ef565b92915050565b5f8060408385031215612a2f57612a2e61282b565b5b5f612a3c858286016129d2565b9250506020612a4d85828601612a05565b9150509250929050565b5f612a618261298c565b9050919050565b612a7181612a57565b8114612a7b575f80fd5b50565b5f81359050612a8c81612a68565b92915050565b5f8060408385031215612aa857612aa761282b565b5b5f612ab585828601612a7e565b9250506020612ac685828601612a05565b9150509250929050565b612ad9816129e6565b82525050565b5f602082019050612af25f830184612ad0565b92915050565b5f805f60608486031215612b0f57612b0e61282b565b5b5f612b1c868287016129d2565b9350506020612b2d868287016129d2565b9250506040612b3e86828701612a05565b9150509250925092565b5f819050919050565b612b5a81612b48565b8114612b64575f80fd5b50565b5f81359050612b7581612b51565b92915050565b5f60208284031215612b9057612b8f61282b565b5b5f612b9d84828501612b67565b91505092915050565b612baf81612b48565b82525050565b5f602082019050612bc85f830184612ba6565b92915050565b5f8060408385031215612be457612be361282b565b5b5f612bf185828601612b67565b9250506020612c02858286016129d2565b9150509250929050565b5f60ff82169050919050565b612c2181612c0c565b82525050565b5f602082019050612c3a5f830184612c18565b92915050565b5f60208284031215612c5557612c5461282b565b5b5f612c62848285016129d2565b91505092915050565b5f60208284031215612c8057612c7f61282b565b5b5f612c8d84828501612a05565b91505092915050565b612c9f816129ab565b82525050565b5f602082019050612cb85f830184612c96565b92915050565b5f60208284031215612cd357612cd261282b565b5b5f612ce084828501612a7e565b91505092915050565b5f8060408385031215612cff57612cfe61282b565b5b5f612d0c858286016129d2565b9250506020612d1d858286016129d2565b9150509250929050565b7f4e487b71000000000000000000000000000000000000000000000000000000005f52602260045260245ffd5b5f6002820490506001821680612d6b57607f821691505b602082108103612d7e57612d7d612d27565b5b50919050565b7f544947473a20746f207a65726f000000000000000000000000000000000000005f82015250565b5f612db8600d836128ec565b9150612dc382612d84565b602082019050919050565b5f6020820190508181035f830152612de581612dac565b9050919050565b7f544947473a20696e73756666696369656e742062616c616e63650000000000005f82015250565b5f612e20601a836128ec565b9150612e2b82612dec565b602082019050919050565b5f6020820190508181035f830152612e4d81612e14565b9050919050565b7f4e487b71000000000000000000000000000000000000000000000000000000005f52601160045260245ffd5b5f8160011c9050919050565b5f808291508390505b6001851115612ed657808604811115612eb257612eb1612e54565b5b6001851615612ec15780820291505b8081029050612ecf85612e81565b9450612e96565b94509492505050565b5f82612eee5760019050612fa9565b81612efb575f9050612fa9565b8160018114612f115760028114612f1b57612f4a565b6001915050612fa9565b60ff841115612f2d57612f2c612e54565b5b8360020a915084821115612f4457612f43612e54565b5b50612fa9565b5060208310610133831016604e8410600b8410161715612f7f5782820a905083811115612f7a57612f79612e54565b5b612fa9565b612f8c8484846001612e8d565b92509050818404811115612fa357612fa2612e54565b5b81810290505b9392505050565b5f612fba826129e6565b9150612fc5836129e6565b9250612ff27fffffffffffffffffffffffffffffffffffffffffffffffffffffffffffffffff8484612edf565b905092915050565b5f613004826129e6565b915061300f836129e6565b925082820261301d816129e6565b9150828204841483151761303457613033612e54565b5b5092915050565b7f544947473a20656d657267656e63792073746f707065640000000000000000005f82015250565b5f61306f6017836128ec565b915061307a8261303b565b602082019050919050565b5f6020820190508181035f83015261309c81613063565b9050919050565b7f544947473a206e6f207363686564756c6564206d696e7473206c6566740000005f82015250565b5f6130d7601d836128ec565b91506130e2826130a3565b602082019050919050565b5f6020820190508181035f830152613104816130cb565b9050919050565b7f4e487b71000000000000000000000000000000000000000000000000000000005f52603260045260245ffd5b7f544947473a207363686564756c6564206d696e74206e6f7420796574206176615f8201527f696c61626c650000000000000000000000000000000000000000000000000000602082015250565b5f6131926026836128ec565b915061319d82613138565b604082019050919050565b5f6020820190508181035f8301526131bf81613186565b9050919050565b5f6131d0826129e6565b91506131db836129e6565b92508282019050808211156131f3576131f2612e54565b5b92915050565b7f544947473a206d617820737570706c79206578636565646564000000000000005f82015250565b5f61322d6019836128ec565b9150613238826131f9565b602082019050919050565b5f6020820190508181035f83015261325a81613221565b9050919050565b5f6060820190506132745f830186612ad0565b6132816020830185612ad0565b61328e6040830184612ad0565b949350505050565b7f544947473a206275726e2066726f6d207a65726f0000000000000000000000005f82015250565b5f6132ca6014836128ec565b91506132d582613296565b602082019050919050565b5f6020820190508181035f8301526132f7816132be565b9050919050565b5f613308826129e6565b9150613313836129e6565b925082820390508181111561332b5761332a612e54565b5b92915050565b7f544947473a206d696e7420746f207a65726f00000000000000000000000000005f82015250565b5f6133656012836128ec565b915061337082613331565b602082019050919050565b5f6020820190508181035f83015261339281613359565b9050919050565b7f544947473a207a65726f2062616c616e636500000000000000000000000000005f82015250565b5f6133cd6012836128ec565b91506133d882613399565b602082019050919050565b5f6020820190508181035f8301526133fa816133c1565b9050919050565b5f8151905061340f816129ef565b92915050565b5f6020828403121561342a5761342961282b565b5b5f61343784828501613401565b91505092915050565b5f6060820190506134535f830186612c96565b6134606020830185612ad0565b61346d6040830184612ad0565b949350505050565b5f6040820190506134885f830185612c96565b6134956020830184612ad0565b9392505050565b5f6040820190506134af5f830185612c96565b6134bc6020830184612ba6565b939250505056fea26469706673582212208615976ba76c49de2a54cd95e45f97ab4fc7a8c8abe4b92b29d10005f12dcf2564736f6c63430008180033",
		"opcodes": "PUSH1 0x80 PUSH1 0x40 MSTORE PUSH1 0x4 CALLDATASIZE LT PUSH2 0x249 JUMPI PUSH0 CALLDATALOAD PUSH1 0xE0 SHR DUP1 PUSH4 0x715018A6 GT PUSH2 0x138 JUMPI DUP1 PUSH4 0xA9059CBB GT PUSH2 0xB5 JUMPI DUP1 PUSH4 0xD2CD0CD8 GT PUSH2 0x79 JUMPI DUP1 PUSH4 0xD2CD0CD8 EQ PUSH2 0x83A JUMPI DUP1 PUSH4 0xD5391393 EQ PUSH2 0x862 JUMPI DUP1 PUSH4 0xD547741F EQ PUSH2 0x88C JUMPI DUP1 PUSH4 0xDD62ED3E EQ PUSH2 0x8B4 JUMPI DUP1 PUSH4 0xE2749C96 EQ PUSH2 0x8F0 JUMPI DUP1 PUSH4 0xF2FDE38B EQ PUSH2 0x91A JUMPI PUSH2 0x250 JUMP JUMPDEST DUP1 PUSH4 0xA9059CBB EQ PUSH2 0x75C JUMPI DUP1 PUSH4 0xABAF2111 EQ PUSH2 0x798 JUMPI DUP1 PUSH4 0xB2118A8D EQ PUSH2 0x7C0 JUMPI DUP1 PUSH4 0xB5BFDDEA EQ PUSH2 0x7E8 JUMPI DUP1 PUSH4 0xC0A317B8 EQ PUSH2 0x812 JUMPI PUSH2 0x250 JUMP JUMPDEST DUP1 PUSH4 0x8C2A993E GT PUSH2 0xFC JUMPI DUP1 PUSH4 0x8C2A993E EQ PUSH2 0x67A JUMPI DUP1 PUSH4 0x8DA5CB5B EQ PUSH2 0x6A2 JUMPI DUP1 PUSH4 0x91D14854 EQ PUSH2 0x6CC JUMPI DUP1 PUSH4 0x95D89B41 EQ PUSH2 0x708 JUMPI DUP1 PUSH4 0xA217FDDF EQ PUSH2 0x732 JUMPI PUSH2 0x250 JUMP JUMPDEST DUP1 PUSH4 0x715018A6 EQ PUSH2 0x5AC JUMPI DUP1 PUSH4 0x733D8665 EQ PUSH2 0x5C2 JUMPI DUP1 PUSH4 0x74F4F547 EQ PUSH2 0x5FE JUMPI DUP1 PUSH4 0x7B018E33 EQ PUSH2 0x626 JUMPI DUP1 PUSH4 0x83EFCD39 EQ PUSH2 0x650 JUMPI PUSH2 0x250 JUMP JUMPDEST DUP1 PUSH4 0x313CE567 GT PUSH2 0x1C6 JUMPI DUP1 PUSH4 0x58B214AC GT PUSH2 0x18A JUMPI DUP1 PUSH4 0x58B214AC EQ PUSH2 0x4F4 JUMPI DUP1 PUSH4 0x6375952A EQ PUSH2 0x51C JUMPI DUP1 PUSH4 0x6389A44D EQ PUSH2 0x544 JUMPI DUP1 PUSH4 0x63A599A4 EQ PUSH2 0x55A JUMPI DUP1 PUSH4 0x70A08231 EQ PUSH2 0x570 JUMPI PUSH2 0x250 JUMP JUMPDEST DUP1 PUSH4 0x313CE567 EQ PUSH2 0x43A JUMPI DUP1 PUSH4 0x32CB6B0C EQ PUSH2 0x464 JUMPI DUP1 PUSH4 0x36568ABE EQ PUSH2 0x48E JUMPI DUP1 PUSH4 0x4D2F79FF EQ PUSH2 0x4B6 JUMPI DUP1 PUSH4 0x4D57382A EQ PUSH2 0x4DE JUMPI PUSH2 0x250 JUMP JUMPDEST DUP1 PUSH4 0x23B872DD GT PUSH2 0x20D JUMPI DUP1 PUSH4 0x23B872DD EQ PUSH2 0x346 JUMPI DUP1 PUSH4 0x248A9CA3 EQ PUSH2 0x382 JUMPI DUP1 PUSH4 0x28BCEF04 EQ PUSH2 0x3BE JUMPI DUP1 PUSH4 0x2F2FF15D EQ PUSH2 0x3E8 JUMPI DUP1 PUSH4 0x2FF2E9DC EQ PUSH2 0x410 JUMPI PUSH2 0x250 JUMP JUMPDEST DUP1 PUSH4 0x1FFC9A7 EQ PUSH2 0x252 JUMPI DUP1 PUSH4 0x6FDDE03 EQ PUSH2 0x28E JUMPI DUP1 PUSH4 0x95EA7B3 EQ PUSH2 0x2B8 JUMPI DUP1 PUSH4 0x1291F79D EQ PUSH2 0x2F4 JUMPI DUP1 PUSH4 0x18160DDD EQ PUSH2 0x31C JUMPI PUSH2 0x250 JUMP JUMPDEST CALLDATASIZE PUSH2 0x250 JUMPI STOP JUMPDEST STOP JUMPDEST CALLVALUE DUP1 ISZERO PUSH2 0x25D JUMPI PUSH0 DUP1 REVERT JUMPDEST POP PUSH2 0x278 PUSH1 0x4 DUP1 CALLDATASIZE SUB DUP2 ADD SWAP1 PUSH2 0x273 SWAP2 SWAP1 PUSH2 0x2884 JUMP JUMPDEST PUSH2 0x942 JUMP JUMPDEST PUSH1 0x40 MLOAD PUSH2 0x285 SWAP2 SWAP1 PUSH2 0x28C9 JUMP JUMPDEST PUSH1 0x40 MLOAD DUP1 SWAP2 SUB SWAP1 RETURN JUMPDEST CALLVALUE DUP1 ISZERO PUSH2 0x299 JUMPI PUSH0 DUP1 REVERT JUMPDEST POP PUSH2 0x2A2 PUSH2 0x9BB JUMP JUMPDEST PUSH1 0x40 MLOAD PUSH2 0x2AF SWAP2 SWAP1 PUSH2 0x296C JUMP JUMPDEST PUSH1 0x40 MLOAD DUP1 SWAP2 SUB SWAP1 RETURN JUMPDEST CALLVALUE DUP1 ISZERO PUSH2 0x2C3 JUMPI PUSH0 DUP1 REVERT JUMPDEST POP PUSH2 0x2DE PUSH1 0x4 DUP1 CALLDATASIZE SUB DUP2 ADD SWAP1 PUSH2 0x2D9 SWAP2 SWAP1 PUSH2 0x2A19 JUMP JUMPDEST PUSH2 0xA4B JUMP JUMPDEST PUSH1 0x40 MLOAD PUSH2 0x2EB SWAP2 SWAP1 PUSH2 0x28C9 JUMP JUMPDEST PUSH1 0x40 MLOAD DUP1 SWAP2 SUB SWAP1 RETURN JUMPDEST CALLVALUE DUP1 ISZERO PUSH2 0x2FF JUMPI PUSH0 DUP1 REVERT JUMPDEST POP PUSH2 0x31A PUSH1 0x4 DUP1 CALLDATASIZE SUB DUP2 ADD SWAP1 PUSH2 0x315 SWAP2 SWAP1 PUSH2 0x2A92 JUMP JUMPDEST PUSH2 0xA6D JUMP JUMPDEST STOP JUMPDEST CALLVALUE DUP1 ISZERO PUSH2 0x327 JUMPI PUSH0 DUP1 REVERT JUMPDEST POP PUSH2 0x330 PUSH2 0xBBC JUMP JUMPDEST PUSH1 0x40 MLOAD PUSH2 0x33D SWAP2 SWAP1 PUSH2 0x2ADF JUMP JUMPDEST PUSH1 0x40 MLOAD DUP1 SWAP2 SUB SWAP1 RETURN JUMPDEST CALLVALUE DUP1 ISZERO PUSH2 0x351 JUMPI PUSH0 DUP1 REVERT JUMPDEST POP PUSH2 0x36C PUSH1 0x4 DUP1 CALLDATASIZE SUB DUP2 ADD SWAP1 PUSH2 0x367 SWAP2 SWAP1 PUSH2 0x2AF8 JUMP JUMPDEST PUSH2 0xBC5 JUMP JUMPDEST PUSH1 0x40 MLOAD PUSH2 0x379 SWAP2 SWAP1 PUSH2 0x28C9 JUMP JUMPDEST PUSH1 0x40 MLOAD DUP1 SWAP2 SUB SWAP1 RETURN JUMPDEST CALLVALUE DUP1 ISZERO PUSH2 0x38D JUMPI PUSH0 DUP1 REVERT JUMPDEST POP PUSH2 0x3A8 PUSH1 0x4 DUP1 CALLDATASIZE SUB DUP2 ADD SWAP1 PUSH2 0x3A3 SWAP2 SWAP1 PUSH2 0x2B7B JUMP JUMPDEST PUSH2 0xBF3 JUMP JUMPDEST PUSH1 0x40 MLOAD PUSH2 0x3B5 SWAP2 SWAP1 PUSH2 0x2BB5 JUMP JUMPDEST PUSH1 0x40 MLOAD DUP1 SWAP2 SUB SWAP1 RETURN JUMPDEST CALLVALUE DUP1 ISZERO PUSH2 0x3C9 JUMPI PUSH0 DUP1 REVERT JUMPDEST POP PUSH2 0x3D2 PUSH2 0xC10 JUMP JUMPDEST PUSH1 0x40 MLOAD PUSH2 0x3DF SWAP2 SWAP1 PUSH2 0x2ADF JUMP JUMPDEST PUSH1 0x40 MLOAD DUP1 SWAP2 SUB SWAP1 RETURN JUMPDEST CALLVALUE DUP1 ISZERO PUSH2 0x3F3 JUMPI PUSH0 DUP1 REVERT JUMPDEST POP PUSH2 0x40E PUSH1 0x4 DUP1 CALLDATASIZE SUB DUP2 ADD SWAP1 PUSH2 0x409 SWAP2 SWAP1 PUSH2 0x2BCE JUMP JUMPDEST PUSH2 0xC16 JUMP JUMPDEST STOP JUMPDEST CALLVALUE DUP1 ISZERO PUSH2 0x41B JUMPI PUSH0 DUP1 REVERT JUMPDEST POP PUSH2 0x424 PUSH2 0xC38 JUMP JUMPDEST PUSH1 0x40 MLOAD PUSH2 0x431 SWAP2 SWAP1 PUSH2 0x2ADF JUMP JUMPDEST PUSH1 0x40 MLOAD DUP1 SWAP2 SUB SWAP1 RETURN JUMPDEST CALLVALUE DUP1 ISZERO PUSH2 0x445 JUMPI PUSH0 DUP1 REVERT JUMPDEST POP PUSH2 0x44E PUSH2 0xC5B JUMP JUMPDEST PUSH1 0x40 MLOAD PUSH2 0x45B SWAP2 SWAP1 PUSH2 0x2C27 JUMP JUMPDEST PUSH1 0x40 MLOAD DUP1 SWAP2 SUB SWAP1 RETURN JUMPDEST CALLVALUE DUP1 ISZERO PUSH2 0x46F JUMPI PUSH0 DUP1 REVERT JUMPDEST POP PUSH2 0x478 PUSH2 0xC63 JUMP JUMPDEST PUSH1 0x40 MLOAD PUSH2 0x485 SWAP2 SWAP1 PUSH2 0x2ADF JUMP JUMPDEST PUSH1 0x40 MLOAD DUP1 SWAP2 SUB SWAP1 RETURN JUMPDEST CALLVALUE DUP1 ISZERO PUSH2 0x499 JUMPI PUSH0 DUP1 REVERT JUMPDEST POP PUSH2 0x4B4 PUSH1 0x4 DUP1 CALLDATASIZE SUB DUP2 ADD SWAP1 PUSH2 0x4AF SWAP2 SWAP1 PUSH2 0x2BCE JUMP JUMPDEST PUSH2 0xC87 JUMP JUMPDEST STOP JUMPDEST CALLVALUE DUP1 ISZERO PUSH2 0x4C1 JUMPI PUSH0 DUP1 REVERT JUMPDEST POP PUSH2 0x4DC PUSH1 0x4 DUP1 CALLDATASIZE SUB DUP2 ADD SWAP1 PUSH2 0x4D7 SWAP2 SWAP1 PUSH2 0x2C40 JUMP JUMPDEST PUSH2 0xD02 JUMP JUMPDEST STOP JUMPDEST CALLVALUE DUP1 ISZERO PUSH2 0x4E9 JUMPI PUSH0 DUP1 REVERT JUMPDEST POP PUSH2 0x4F2 PUSH2 0xD38 JUMP JUMPDEST STOP JUMPDEST CALLVALUE DUP1 ISZERO PUSH2 0x4FF JUMPI PUSH0 DUP1 REVERT JUMPDEST POP PUSH2 0x51A PUSH1 0x4 DUP1 CALLDATASIZE SUB DUP2 ADD SWAP1 PUSH2 0x515 SWAP2 SWAP1 PUSH2 0x2C40 JUMP JUMPDEST PUSH2 0xFC4 JUMP JUMPDEST STOP JUMPDEST CALLVALUE DUP1 ISZERO PUSH2 0x527 JUMPI PUSH0 DUP1 REVERT JUMPDEST POP PUSH2 0x542 PUSH1 0x4 DUP1 CALLDATASIZE SUB DUP2 ADD SWAP1 PUSH2 0x53D SWAP2 SWAP1 PUSH2 0x2C40 JUMP JUMPDEST PUSH2 0xFFA JUMP JUMPDEST STOP JUMPDEST CALLVALUE DUP1 ISZERO PUSH2 0x54F JUMPI PUSH0 DUP1 REVERT JUMPDEST POP PUSH2 0x558 PUSH2 0x102F JUMP JUMPDEST STOP JUMPDEST CALLVALUE DUP1 ISZERO PUSH2 0x565 JUMPI PUSH0 DUP1 REVERT JUMPDEST POP PUSH2 0x56E PUSH2 0x10A7 JUMP JUMPDEST STOP JUMPDEST CALLVALUE DUP1 ISZERO PUSH2 0x57B JUMPI PUSH0 DUP1 REVERT JUMPDEST POP PUSH2 0x596 PUSH1 0x4 DUP1 CALLDATASIZE SUB DUP2 ADD SWAP1 PUSH2 0x591 SWAP2 SWAP1 PUSH2 0x2C40 JUMP JUMPDEST PUSH2 0x1120 JUMP JUMPDEST PUSH1 0x40 MLOAD PUSH2 0x5A3 SWAP2 SWAP1 PUSH2 0x2ADF JUMP JUMPDEST PUSH1 0x40 MLOAD DUP1 SWAP2 SUB SWAP1 RETURN JUMPDEST CALLVALUE DUP1 ISZERO PUSH2 0x5B7 JUMPI PUSH0 DUP1 REVERT JUMPDEST POP PUSH2 0x5C0 PUSH2 0x1165 JUMP JUMPDEST STOP JUMPDEST CALLVALUE DUP1 ISZERO PUSH2 0x5CD JUMPI PUSH0 DUP1 REVERT JUMPDEST POP PUSH2 0x5E8 PUSH1 0x4 DUP1 CALLDATASIZE SUB DUP2 ADD SWAP1 PUSH2 0x5E3 SWAP2 SWAP1 PUSH2 0x2C6B JUMP JUMPDEST PUSH2 0x1178 JUMP JUMPDEST PUSH1 0x40 MLOAD PUSH2 0x5F5 SWAP2 SWAP1 PUSH2 0x2ADF JUMP JUMPDEST PUSH1 0x40 MLOAD DUP1 SWAP2 SUB SWAP1 RETURN JUMPDEST CALLVALUE DUP1 ISZERO PUSH2 0x609 JUMPI PUSH0 DUP1 REVERT JUMPDEST POP PUSH2 0x624 PUSH1 0x4 DUP1 CALLDATASIZE SUB DUP2 ADD SWAP1 PUSH2 0x61F SWAP2 SWAP1 PUSH2 0x2A19 JUMP JUMPDEST PUSH2 0x1198 JUMP JUMPDEST STOP JUMPDEST CALLVALUE DUP1 ISZERO PUSH2 0x631 JUMPI PUSH0 DUP1 REVERT JUMPDEST POP PUSH2 0x63A PUSH2 0x12FA JUMP JUMPDEST PUSH1 0x40 MLOAD PUSH2 0x647 SWAP2 SWAP1 PUSH2 0x2ADF JUMP JUMPDEST PUSH1 0x40 MLOAD DUP1 SWAP2 SUB SWAP1 RETURN JUMPDEST CALLVALUE DUP1 ISZERO PUSH2 0x65B JUMPI PUSH0 DUP1 REVERT JUMPDEST POP PUSH2 0x664 PUSH2 0x132A JUMP JUMPDEST PUSH1 0x40 MLOAD PUSH2 0x671 SWAP2 SWAP1 PUSH2 0x2ADF JUMP JUMPDEST PUSH1 0x40 MLOAD DUP1 SWAP2 SUB SWAP1 RETURN JUMPDEST CALLVALUE DUP1 ISZERO PUSH2 0x685 JUMPI PUSH0 DUP1 REVERT JUMPDEST POP PUSH2 0x6A0 PUSH1 0x4 DUP1 CALLDATASIZE SUB DUP2 ADD SWAP1 PUSH2 0x69B SWAP2 SWAP1 PUSH2 0x2A19 JUMP JUMPDEST PUSH2 0x134D JUMP JUMPDEST STOP JUMPDEST CALLVALUE DUP1 ISZERO PUSH2 0x6AD JUMPI PUSH0 DUP1 REVERT JUMPDEST POP PUSH2 0x6B6 PUSH2 0x1524 JUMP JUMPDEST PUSH1 0x40 MLOAD PUSH2 0x6C3 SWAP2 SWAP1 PUSH2 0x2CA5 JUMP JUMPDEST PUSH1 0x40 MLOAD DUP1 SWAP2 SUB SWAP1 RETURN JUMPDEST CALLVALUE DUP1 ISZERO PUSH2 0x6D7 JUMPI PUSH0 DUP1 REVERT JUMPDEST POP PUSH2 0x6F2 PUSH1 0x4 DUP1 CALLDATASIZE SUB DUP2 ADD SWAP1 PUSH2 0x6ED SWAP2 SWAP1 PUSH2 0x2BCE JUMP JUMPDEST PUSH2 0x154C JUMP JUMPDEST PUSH1 0x40 MLOAD PUSH2 0x6FF SWAP2 SWAP1 PUSH2 0x28C9 JUMP JUMPDEST PUSH1 0x40 MLOAD DUP1 SWAP2 SUB SWAP1 RETURN JUMPDEST CALLVALUE DUP1 ISZERO PUSH2 0x713 JUMPI PUSH0 DUP1 REVERT JUMPDEST POP PUSH2 0x71C PUSH2 0x15B0 JUMP JUMPDEST PUSH1 0x40 MLOAD PUSH2 0x729 SWAP2 SWAP1 PUSH2 0x296C JUMP JUMPDEST PUSH1 0x40 MLOAD DUP1 SWAP2 SUB SWAP1 RETURN JUMPDEST CALLVALUE DUP1 ISZERO PUSH2 0x73D JUMPI PUSH0 DUP1 REVERT JUMPDEST POP PUSH2 0x746 PUSH2 0x1640 JUMP JUMPDEST PUSH1 0x40 MLOAD PUSH2 0x753 SWAP2 SWAP1 PUSH2 0x2BB5 JUMP JUMPDEST PUSH1 0x40 MLOAD DUP1 SWAP2 SUB SWAP1 RETURN JUMPDEST CALLVALUE DUP1 ISZERO PUSH2 0x767 JUMPI PUSH0 DUP1 REVERT JUMPDEST POP PUSH2 0x782 PUSH1 0x4 DUP1 CALLDATASIZE SUB DUP2 ADD SWAP1 PUSH2 0x77D SWAP2 SWAP1 PUSH2 0x2A19 JUMP JUMPDEST PUSH2 0x1646 JUMP JUMPDEST PUSH1 0x40 MLOAD PUSH2 0x78F SWAP2 SWAP1 PUSH2 0x28C9 JUMP JUMPDEST PUSH1 0x40 MLOAD DUP1 SWAP2 SUB SWAP1 RETURN JUMPDEST CALLVALUE DUP1 ISZERO PUSH2 0x7A3 JUMPI PUSH0 DUP1 REVERT JUMPDEST POP PUSH2 0x7BE PUSH1 0x4 DUP1 CALLDATASIZE SUB DUP2 ADD SWAP1 PUSH2 0x7B9 SWAP2 SWAP1 PUSH2 0x2C40 JUMP JUMPDEST PUSH2 0x1668 JUMP JUMPDEST STOP JUMPDEST CALLVALUE DUP1 ISZERO PUSH2 0x7CB JUMPI PUSH0 DUP1 REVERT JUMPDEST POP PUSH2 0x7E6 PUSH1 0x4 DUP1 CALLDATASIZE SUB DUP2 ADD SWAP1 PUSH2 0x7E1 SWAP2 SWAP1 PUSH2 0x2AF8 JUMP JUMPDEST PUSH2 0x169D JUMP JUMPDEST STOP JUMPDEST CALLVALUE DUP1 ISZERO PUSH2 0x7F3 JUMPI PUSH0 DUP1 REVERT JUMPDEST POP PUSH2 0x7FC PUSH2 0x17A8 JUMP JUMPDEST PUSH1 0x40 MLOAD PUSH2 0x809 SWAP2 SWAP1 PUSH2 0x2BB5 JUMP JUMPDEST PUSH1 0x40 MLOAD DUP1 SWAP2 SUB SWAP1 RETURN JUMPDEST CALLVALUE DUP1 ISZERO PUSH2 0x81D JUMPI PUSH0 DUP1 REVERT JUMPDEST POP PUSH2 0x838 PUSH1 0x4 DUP1 CALLDATASIZE SUB DUP2 ADD SWAP1 PUSH2 0x833 SWAP2 SWAP1 PUSH2 0x2CBE JUMP JUMPDEST PUSH2 0x17CC JUMP JUMPDEST STOP JUMPDEST CALLVALUE DUP1 ISZERO PUSH2 0x845 JUMPI PUSH0 DUP1 REVERT JUMPDEST POP PUSH2 0x860 PUSH1 0x4 DUP1 CALLDATASIZE SUB DUP2 ADD SWAP1 PUSH2 0x85B SWAP2 SWAP1 PUSH2 0x2CE9 JUMP JUMPDEST PUSH2 0x191E JUMP JUMPDEST STOP JUMPDEST CALLVALUE DUP1 ISZERO PUSH2 0x86D JUMPI PUSH0 DUP1 REVERT JUMPDEST POP PUSH2 0x876 PUSH2 0x1AE6 JUMP JUMPDEST PUSH1 0x40 MLOAD PUSH2 0x883 SWAP2 SWAP1 PUSH2 0x2BB5 JUMP JUMPDEST PUSH1 0x40 MLOAD DUP1 SWAP2 SUB SWAP1 RETURN JUMPDEST CALLVALUE DUP1 ISZERO PUSH2 0x897 JUMPI PUSH0 DUP1 REVERT JUMPDEST POP PUSH2 0x8B2 PUSH1 0x4 DUP1 CALLDATASIZE SUB DUP2 ADD SWAP1 PUSH2 0x8AD SWAP2 SWAP1 PUSH2 0x2BCE JUMP JUMPDEST PUSH2 0x1B0A JUMP JUMPDEST STOP JUMPDEST CALLVALUE DUP1 ISZERO PUSH2 0x8BF JUMPI PUSH0 DUP1 REVERT JUMPDEST POP PUSH2 0x8DA PUSH1 0x4 DUP1 CALLDATASIZE SUB DUP2 ADD SWAP1 PUSH2 0x8D5 SWAP2 SWAP1 PUSH2 0x2CE9 JUMP JUMPDEST PUSH2 0x1B2C JUMP JUMPDEST PUSH1 0x40 MLOAD PUSH2 0x8E7 SWAP2 SWAP1 PUSH2 0x2ADF JUMP JUMPDEST PUSH1 0x40 MLOAD DUP1 SWAP2 SUB SWAP1 RETURN JUMPDEST CALLVALUE DUP1 ISZERO PUSH2 0x8FB JUMPI PUSH0 DUP1 REVERT JUMPDEST POP PUSH2 0x904 PUSH2 0x1BAE JUMP JUMPDEST PUSH1 0x40 MLOAD PUSH2 0x911 SWAP2 SWAP1 PUSH2 0x28C9 JUMP JUMPDEST PUSH1 0x40 MLOAD DUP1 SWAP2 SUB SWAP1 RETURN JUMPDEST CALLVALUE DUP1 ISZERO PUSH2 0x925 JUMPI PUSH0 DUP1 REVERT JUMPDEST POP PUSH2 0x940 PUSH1 0x4 DUP1 CALLDATASIZE SUB DUP2 ADD SWAP1 PUSH2 0x93B SWAP2 SWAP1 PUSH2 0x2C40 JUMP JUMPDEST PUSH2 0x1BC0 JUMP JUMPDEST STOP JUMPDEST PUSH0 PUSH32 0x7965DB0B00000000000000000000000000000000000000000000000000000000 PUSH28 0xFFFFFFFFFFFFFFFFFFFFFFFFFFFFFFFFFFFFFFFFFFFFFFFFFFFFFFFF NOT AND DUP3 PUSH28 0xFFFFFFFFFFFFFFFFFFFFFFFFFFFFFFFFFFFFFFFFFFFFFFFFFFFFFFFF NOT AND EQ DUP1 PUSH2 0x9B4 JUMPI POP PUSH2 0x9B3 DUP3 PUSH2 0x1C44 JUMP JUMPDEST JUMPDEST SWAP1 POP SWAP2 SWAP1 POP JUMP JUMPDEST PUSH1 0x60 PUSH1 0x3 DUP1 SLOAD PUSH2 0x9CA SWAP1 PUSH2 0x2D54 JUMP JUMPDEST DUP1 PUSH1 0x1F ADD PUSH1 0x20 DUP1 SWAP2 DIV MUL PUSH1 0x20 ADD PUSH1 0x40 MLOAD SWAP1 DUP2 ADD PUSH1 0x40 MSTORE DUP1 SWAP3 SWAP2 SWAP1 DUP2 DUP2 MSTORE PUSH1 0x20 ADD DUP3 DUP1 SLOAD PUSH2 0x9F6 SWAP1 PUSH2 0x2D54 JUMP JUMPDEST DUP1 ISZERO PUSH2 0xA41 JUMPI DUP1 PUSH1 0x1F LT PUSH2 0xA18 JUMPI PUSH2 0x100 DUP1 DUP4 SLOAD DIV MUL DUP4 MSTORE SWAP2 PUSH1 0x20 ADD SWAP2 PUSH2 0xA41 JUMP JUMPDEST DUP3 ADD SWAP2 SWAP1 PUSH0 MSTORE PUSH1 0x20 PUSH0 KECCAK256 SWAP1 JUMPDEST DUP2 SLOAD DUP2 MSTORE SWAP1 PUSH1 0x1 ADD SWAP1 PUSH1 0x20 ADD DUP1 DUP4 GT PUSH2 0xA24 JUMPI DUP3 SWAP1 SUB PUSH1 0x1F AND DUP3 ADD SWAP2 JUMPDEST POP POP POP POP POP SWAP1 POP SWAP1 JUMP JUMPDEST PUSH0 DUP1 PUSH2 0xA55 PUSH2 0x1CAD JUMP JUMPDEST SWAP1 POP PUSH2 0xA62 DUP2 DUP6 DUP6 PUSH2 0x1CB4 JUMP JUMPDEST PUSH1 0x1 SWAP2 POP POP SWAP3 SWAP2 POP POP JUMP JUMPDEST PUSH2 0xA75 PUSH2 0x1CC6 JUMP JUMPDEST PUSH0 PUSH20 0xFFFFFFFFFFFFFFFFFFFFFFFFFFFFFFFFFFFFFFFF AND DUP3 PUSH20 0xFFFFFFFFFFFFFFFFFFFFFFFFFFFFFFFFFFFFFFFF AND SUB PUSH2 0xAE3 JUMPI PUSH1 0x40 MLOAD PUSH32 0x8C379A000000000000000000000000000000000000000000000000000000000 DUP2 MSTORE PUSH1 0x4 ADD PUSH2 0xADA SWAP1 PUSH2 0x2DCE JUMP JUMPDEST PUSH1 0x40 MLOAD DUP1 SWAP2 SUB SWAP1 REVERT JUMPDEST SELFBALANCE DUP2 GT ISZERO PUSH2 0xB26 JUMPI PUSH1 0x40 MLOAD PUSH32 0x8C379A000000000000000000000000000000000000000000000000000000000 DUP2 MSTORE PUSH1 0x4 ADD PUSH2 0xB1D SWAP1 PUSH2 0x2E36 JUMP JUMPDEST PUSH1 0x40 MLOAD DUP1 SWAP2 SUB SWAP1 REVERT JUMPDEST DUP2 PUSH20 0xFFFFFFFFFFFFFFFFFFFFFFFFFFFFFFFFFFFFFFFF AND PUSH2 0x8FC DUP3 SWAP1 DUP2 ISZERO MUL SWAP1 PUSH1 0x40 MLOAD PUSH0 PUSH1 0x40 MLOAD DUP1 DUP4 SUB DUP2 DUP6 DUP9 DUP9 CALL SWAP4 POP POP POP POP ISZERO DUP1 ISZERO PUSH2 0xB69 JUMPI RETURNDATASIZE PUSH0 DUP1 RETURNDATACOPY RETURNDATASIZE PUSH0 REVERT JUMPDEST POP DUP2 PUSH20 0xFFFFFFFFFFFFFFFFFFFFFFFFFFFFFFFFFFFFFFFF AND PUSH32 0xE3EB98B7FE2A0C1D490B92AF73EEAE611E9B00AB3C3F70B20BD7BB43F67A0F43 DUP3 PUSH1 0x40 MLOAD PUSH2 0xBB0 SWAP2 SWAP1 PUSH2 0x2ADF JUMP JUMPDEST PUSH1 0x40 MLOAD DUP1 SWAP2 SUB SWAP1 LOG2 POP POP JUMP JUMPDEST PUSH0 PUSH1 0x2 SLOAD SWAP1 POP SWAP1 JUMP JUMPDEST PUSH0 DUP1 PUSH2 0xBCF PUSH2 0x1CAD JUMP JUMPDEST SWAP1 POP PUSH2 0xBDC DUP6 DUP3 DUP6 PUSH2 0x1D4D JUMP JUMPDEST PUSH2 0xBE7 DUP6 DUP6 DUP6 PUSH2 0x1DE0 JUMP JUMPDEST PUSH1 0x1 SWAP2 POP POP SWAP4 SWAP3 POP POP POP JUMP JUMPDEST PUSH0 PUSH1 0x5 PUSH0 DUP4 DUP2 MSTORE PUSH1 0x20 ADD SWAP1 DUP2 MSTORE PUSH1 0x20 ADD PUSH0 KECCAK256 PUSH1 0x1 ADD SLOAD SWAP1 POP SWAP2 SWAP1 POP JUMP JUMPDEST PUSH1 0x8 SLOAD DUP2 JUMP JUMPDEST PUSH2 0xC1F DUP3 PUSH2 0xBF3 JUMP JUMPDEST PUSH2 0xC28 DUP2 PUSH2 0x1ED0 JUMP JUMPDEST PUSH2 0xC32 DUP4 DUP4 PUSH2 0x1EE4 JUMP JUMPDEST POP POP POP POP JUMP JUMPDEST PUSH1 0x12 PUSH1 0xFF AND PUSH1 0xA PUSH2 0xC49 SWAP2 SWAP1 PUSH2 0x2FB0 JUMP JUMPDEST PUSH4 0x3B9ACA00 PUSH2 0xC58 SWAP2 SWAP1 PUSH2 0x2FFA JUMP JUMPDEST DUP2 JUMP JUMPDEST PUSH0 PUSH1 0x12 SWAP1 POP SWAP1 JUMP JUMPDEST PUSH1 0x12 PUSH1 0xFF AND PUSH1 0xA PUSH2 0xC74 SWAP2 SWAP1 PUSH2 0x2FB0 JUMP JUMPDEST PUSH5 0x2540BE400 PUSH2 0xC84 SWAP2 SWAP1 PUSH2 0x2FFA JUMP JUMPDEST DUP2 JUMP JUMPDEST PUSH2 0xC8F PUSH2 0x1CAD JUMP JUMPDEST PUSH20 0xFFFFFFFFFFFFFFFFFFFFFFFFFFFFFFFFFFFFFFFF AND DUP2 PUSH20 0xFFFFFFFFFFFFFFFFFFFFFFFFFFFFFFFFFFFFFFFF AND EQ PUSH2 0xCF3 JUMPI PUSH1 0x40 MLOAD PUSH32 0x6697B23200000000000000000000000000000000000000000000000000000000 DUP2 MSTORE PUSH1 0x4 ADD PUSH1 0x40 MLOAD DUP1 SWAP2 SUB SWAP1 REVERT JUMPDEST PUSH2 0xCFD DUP3 DUP3 PUSH2 0x1FCE JUMP JUMPDEST POP POP POP JUMP JUMPDEST PUSH2 0xD0A PUSH2 0x1CC6 JUMP JUMPDEST PUSH2 0xD34 PUSH32 0x9F2DF0FED2C77648DE5860A4CC508CD0818C85B8B8A1AB4CEEEF8D981C8956A6 DUP3 PUSH2 0x1EE4 JUMP JUMPDEST POP POP JUMP JUMPDEST PUSH32 0x9F2DF0FED2C77648DE5860A4CC508CD0818C85B8B8A1AB4CEEEF8D981C8956A6 PUSH2 0xD62 DUP2 PUSH2 0x1ED0 JUMP JUMPDEST PUSH1 0x9 PUSH0 SWAP1 SLOAD SWAP1 PUSH2 0x100 EXP SWAP1 DIV PUSH1 0xFF AND ISZERO PUSH2 0xDB1 JUMPI PUSH1 0x40 MLOAD PUSH32 0x8C379A000000000000000000000000000000000000000000000000000000000 DUP2 MSTORE PUSH1 0x4 ADD PUSH2 0xDA8 SWAP1 PUSH2 0x3085 JUMP JUMPDEST PUSH1 0x40 MLOAD DUP1 SWAP2 SUB SWAP1 REVERT JUMPDEST PUSH1 0x7 DUP1 SLOAD SWAP1 POP PUSH1 0x8 SLOAD LT PUSH2 0xDFA JUMPI PUSH1 0x40 MLOAD PUSH32 0x8C379A000000000000000000000000000000000000000000000000000000000 DUP2 MSTORE PUSH1 0x4 ADD PUSH2 0xDF1 SWAP1 PUSH2 0x30ED JUMP JUMPDEST PUSH1 0x40 MLOAD DUP1 SWAP2 SUB SWAP1 REVERT JUMPDEST PUSH0 PUSH1 0x7 PUSH1 0x8 SLOAD DUP2 SLOAD DUP2 LT PUSH2 0xE11 JUMPI PUSH2 0xE10 PUSH2 0x310B JUMP JUMPDEST JUMPDEST SWAP1 PUSH0 MSTORE PUSH1 0x20 PUSH0 KECCAK256 ADD SLOAD SWAP1 POP DUP1 TIMESTAMP LT ISZERO PUSH2 0xE5F JUMPI PUSH1 0x40 MLOAD PUSH32 0x8C379A000000000000000000000000000000000000000000000000000000000 DUP2 MSTORE PUSH1 0x4 ADD PUSH2 0xE56 SWAP1 PUSH2 0x31A8 JUMP JUMPDEST PUSH1 0x40 MLOAD DUP1 SWAP2 SUB SWAP1 REVERT JUMPDEST PUSH0 PUSH2 0xE68 PUSH2 0xBBC JUMP JUMPDEST SWAP1 POP PUSH1 0x12 PUSH1 0xFF AND PUSH1 0xA PUSH2 0xE7B SWAP2 SWAP1 PUSH2 0x2FB0 JUMP JUMPDEST PUSH5 0x2540BE400 PUSH2 0xE8B SWAP2 SWAP1 PUSH2 0x2FFA JUMP JUMPDEST PUSH1 0x12 PUSH1 0xFF AND PUSH1 0xA PUSH2 0xE9C SWAP2 SWAP1 PUSH2 0x2FB0 JUMP JUMPDEST PUSH4 0x3B9ACA00 PUSH2 0xEAB SWAP2 SWAP1 PUSH2 0x2FFA JUMP JUMPDEST DUP3 PUSH2 0xEB6 SWAP2 SWAP1 PUSH2 0x31C6 JUMP JUMPDEST GT ISZERO PUSH2 0xEF7 JUMPI PUSH1 0x40 MLOAD PUSH32 0x8C379A000000000000000000000000000000000000000000000000000000000 DUP2 MSTORE PUSH1 0x4 ADD PUSH2 0xEEE SWAP1 PUSH2 0x3243 JUMP JUMPDEST PUSH1 0x40 MLOAD DUP1 SWAP2 SUB SWAP1 REVERT JUMPDEST PUSH2 0xF27 PUSH2 0xF02 PUSH2 0x1524 JUMP JUMPDEST PUSH1 0x12 PUSH1 0xFF AND PUSH1 0xA PUSH2 0xF13 SWAP2 SWAP1 PUSH2 0x2FB0 JUMP JUMPDEST PUSH4 0x3B9ACA00 PUSH2 0xF22 SWAP2 SWAP1 PUSH2 0x2FFA JUMP JUMPDEST PUSH2 0x20B8 JUMP JUMPDEST PUSH2 0xF2F PUSH2 0x1524 JUMP JUMPDEST PUSH20 0xFFFFFFFFFFFFFFFFFFFFFFFFFFFFFFFFFFFFFFFF AND PUSH32 0xE8CCED2832690B941C3B15AC00E7E0CE2D3AA09000CD7535508C9221C1060C7 PUSH1 0x12 PUSH1 0xFF AND PUSH1 0xA PUSH2 0xF77 SWAP2 SWAP1 PUSH2 0x2FB0 JUMP JUMPDEST PUSH4 0x3B9ACA00 PUSH2 0xF86 SWAP2 SWAP1 PUSH2 0x2FFA JUMP JUMPDEST TIMESTAMP PUSH2 0xF8F PUSH2 0xBBC JUMP JUMPDEST PUSH1 0x40 MLOAD PUSH2 0xF9E SWAP4 SWAP3 SWAP2 SWAP1 PUSH2 0x3261 JUMP JUMPDEST PUSH1 0x40 MLOAD DUP1 SWAP2 SUB SWAP1 LOG2 PUSH1 0x1 PUSH1 0x8 PUSH0 DUP3 DUP3 SLOAD PUSH2 0xFB8 SWAP2 SWAP1 PUSH2 0x31C6 JUMP JUMPDEST SWAP3 POP POP DUP2 SWAP1 SSTORE POP POP POP POP JUMP JUMPDEST PUSH2 0xFCC PUSH2 0x1CC6 JUMP JUMPDEST PUSH2 0xFF6 PUSH32 0x52BA824BFABC2BCFCDF7F0EDBB486EBB05E1836C90E78047EFEB949990F72E5F DUP3 PUSH2 0x1EE4 JUMP JUMPDEST POP POP JUMP JUMPDEST PUSH2 0x1002 PUSH2 0x1CC6 JUMP JUMPDEST PUSH2 0x102C PUSH32 0x9F2DF0FED2C77648DE5860A4CC508CD0818C85B8B8A1AB4CEEEF8D981C8956A6 DUP3 PUSH2 0x1B0A JUMP JUMPDEST POP JUMP JUMPDEST PUSH2 0x1037 PUSH2 0x1CC6 JUMP JUMPDEST PUSH0 PUSH1 0x9 PUSH0 PUSH2 0x100 EXP DUP2 SLOAD DUP2 PUSH1 0xFF MUL NOT AND SWAP1 DUP4 ISZERO ISZERO MUL OR SWAP1 SSTORE POP PUSH2 0x1058 PUSH2 0x1CAD JUMP JUMPDEST PUSH20 0xFFFFFFFFFFFFFFFFFFFFFFFFFFFFFFFFFFFFFFFF AND PUSH32 0xF036A640940749AA9C9995BEEE1B92AF0E81C4146443CA049F1A71E9DB3B9745 TIMESTAMP PUSH1 0x40 MLOAD PUSH2 0x109D SWAP2 SWAP1 PUSH2 0x2ADF JUMP JUMPDEST PUSH1 0x40 MLOAD DUP1 SWAP2 SUB SWAP1 LOG2 JUMP JUMPDEST PUSH2 0x10AF PUSH2 0x1CC6 JUMP JUMPDEST PUSH1 0x1 PUSH1 0x9 PUSH0 PUSH2 0x100 EXP DUP2 SLOAD DUP2 PUSH1 0xFF MUL NOT AND SWAP1 DUP4 ISZERO ISZERO MUL OR SWAP1 SSTORE POP PUSH2 0x10D1 PUSH2 0x1CAD JUMP JUMPDEST PUSH20 0xFFFFFFFFFFFFFFFFFFFFFFFFFFFFFFFFFFFFFFFF AND PUSH32 0xCEC7EB7D76573077D1643CFBEA3F1E4DA629BBD107E59871677E581159210056 TIMESTAMP PUSH1 0x40 MLOAD PUSH2 0x1116 SWAP2 SWAP1 PUSH2 0x2ADF JUMP JUMPDEST PUSH1 0x40 MLOAD DUP1 SWAP2 SUB SWAP1 LOG2 JUMP JUMPDEST PUSH0 DUP1 PUSH0 DUP4 PUSH20 0xFFFFFFFFFFFFFFFFFFFFFFFFFFFFFFFFFFFFFFFF AND PUSH20 0xFFFFFFFFFFFFFFFFFFFFFFFFFFFFFFFFFFFFFFFF AND DUP2 MSTORE PUSH1 0x20 ADD SWAP1 DUP2 MSTORE PUSH1 0x20 ADD PUSH0 KECCAK256 SLOAD SWAP1 POP SWAP2 SWAP1 POP JUMP JUMPDEST PUSH2 0x116D PUSH2 0x1CC6 JUMP JUMPDEST PUSH2 0x1176 PUSH0 PUSH2 0x2137 JUMP JUMPDEST JUMP JUMPDEST PUSH1 0x7 DUP2 DUP2 SLOAD DUP2 LT PUSH2 0x1187 JUMPI PUSH0 DUP1 REVERT JUMPDEST SWAP1 PUSH0 MSTORE PUSH1 0x20 PUSH0 KECCAK256 ADD PUSH0 SWAP2 POP SWAP1 POP SLOAD DUP2 JUMP JUMPDEST PUSH32 0x52BA824BFABC2BCFCDF7F0EDBB486EBB05E1836C90E78047EFEB949990F72E5F PUSH2 0x11C2 DUP2 PUSH2 0x1ED0 JUMP JUMPDEST PUSH1 0x9 PUSH0 SWAP1 SLOAD SWAP1 PUSH2 0x100 EXP SWAP1 DIV PUSH1 0xFF AND ISZERO PUSH2 0x1211 JUMPI PUSH1 0x40 MLOAD PUSH32 0x8C379A000000000000000000000000000000000000000000000000000000000 DUP2 MSTORE PUSH1 0x4 ADD PUSH2 0x1208 SWAP1 PUSH2 0x3085 JUMP JUMPDEST PUSH1 0x40 MLOAD DUP1 SWAP2 SUB SWAP1 REVERT JUMPDEST PUSH0 PUSH20 0xFFFFFFFFFFFFFFFFFFFFFFFFFFFFFFFFFFFFFFFF AND DUP4 PUSH20 0xFFFFFFFFFFFFFFFFFFFFFFFFFFFFFFFFFFFFFFFF AND SUB PUSH2 0x127F JUMPI PUSH1 0x40 MLOAD PUSH32 0x8C379A000000000000000000000000000000000000000000000000000000000 DUP2 MSTORE PUSH1 0x4 ADD PUSH2 0x1276 SWAP1 PUSH2 0x32E0 JUMP JUMPDEST PUSH1 0x40 MLOAD DUP1 SWAP2 SUB SWAP1 REVERT JUMPDEST PUSH2 0x1289 DUP4 DUP4 PUSH2 0x21FA JUMP JUMPDEST PUSH2 0x1291 PUSH2 0x1CAD JUMP JUMPDEST PUSH20 0xFFFFFFFFFFFFFFFFFFFFFFFFFFFFFFFFFFFFFFFF AND DUP4 PUSH20 0xFFFFFFFFFFFFFFFFFFFFFFFFFFFFFFFFFFFFFFFF AND PUSH32 0x32F9B14980D51F40BA4119C33DAF3D6700E0ED2820178703454E311DA0C58A73 DUP5 PUSH1 0x40 MLOAD PUSH2 0x12ED SWAP2 SWAP1 PUSH2 0x2ADF JUMP JUMPDEST PUSH1 0x40 MLOAD DUP1 SWAP2 SUB SWAP1 LOG3 POP POP POP JUMP JUMPDEST PUSH0 PUSH1 0x7 DUP1 SLOAD SWAP1 POP PUSH1 0x8 SLOAD LT PUSH2 0x1311 JUMPI PUSH0 SWAP1 POP PUSH2 0x1327 JUMP JUMPDEST PUSH1 0x8 SLOAD PUSH1 0x7 DUP1 SLOAD SWAP1 POP PUSH2 0x1324 SWAP2 SWAP1 PUSH2 0x32FE JUMP JUMPDEST SWAP1 POP JUMPDEST SWAP1 JUMP JUMPDEST PUSH1 0x12 PUSH1 0xFF AND PUSH1 0xA PUSH2 0x133B SWAP2 SWAP1 PUSH2 0x2FB0 JUMP JUMPDEST PUSH4 0x3B9ACA00 PUSH2 0x134A SWAP2 SWAP1 PUSH2 0x2FFA JUMP JUMPDEST DUP2 JUMP JUMPDEST PUSH32 0x52BA824BFABC2BCFCDF7F0EDBB486EBB05E1836C90E78047EFEB949990F72E5F PUSH2 0x1377 DUP2 PUSH2 0x1ED0 JUMP JUMPDEST PUSH1 0x9 PUSH0 SWAP1 SLOAD SWAP1 PUSH2 0x100 EXP SWAP1 DIV PUSH1 0xFF AND ISZERO PUSH2 0x13C6 JUMPI PUSH1 0x40 MLOAD PUSH32 0x8C379A000000000000000000000000000000000000000000000000000000000 DUP2 MSTORE PUSH1 0x4 ADD PUSH2 0x13BD SWAP1 PUSH2 0x3085 JUMP JUMPDEST PUSH1 0x40 MLOAD DUP1 SWAP2 SUB SWAP1 REVERT JUMPDEST PUSH0 PUSH20 0xFFFFFFFFFFFFFFFFFFFFFFFFFFFFFFFFFFFFFFFF AND DUP4 PUSH20 0xFFFFFFFFFFFFFFFFFFFFFFFFFFFFFFFFFFFFFFFF AND SUB PUSH2 0x1434 JUMPI PUSH1 0x40 MLOAD PUSH32 0x8C379A000000000000000000000000000000000000000000000000000000000 DUP2 MSTORE PUSH1 0x4 ADD PUSH2 0x142B SWAP1 PUSH2 0x337B JUMP JUMPDEST PUSH1 0x40 MLOAD DUP1 SWAP2 SUB SWAP1 REVERT JUMPDEST PUSH1 0x12 PUSH1 0xFF AND PUSH1 0xA PUSH2 0x1445 SWAP2 SWAP1 PUSH2 0x2FB0 JUMP JUMPDEST PUSH5 0x2540BE400 PUSH2 0x1455 SWAP2 SWAP1 PUSH2 0x2FFA JUMP JUMPDEST DUP3 PUSH2 0x145E PUSH2 0xBBC JUMP JUMPDEST PUSH2 0x1468 SWAP2 SWAP1 PUSH2 0x31C6 JUMP JUMPDEST GT ISZERO PUSH2 0x14A9 JUMPI PUSH1 0x40 MLOAD PUSH32 0x8C379A000000000000000000000000000000000000000000000000000000000 DUP2 MSTORE PUSH1 0x4 ADD PUSH2 0x14A0 SWAP1 PUSH2 0x3243 JUMP JUMPDEST PUSH1 0x40 MLOAD DUP1 SWAP2 SUB SWAP1 REVERT JUMPDEST PUSH2 0x14B3 DUP4 DUP4 PUSH2 0x20B8 JUMP JUMPDEST PUSH2 0x14BB PUSH2 0x1CAD JUMP JUMPDEST PUSH20 0xFFFFFFFFFFFFFFFFFFFFFFFFFFFFFFFFFFFFFFFF AND DUP4 PUSH20 0xFFFFFFFFFFFFFFFFFFFFFFFFFFFFFFFFFFFFFFFF AND PUSH32 0xC6C954B09524700CCC368D1FAC1E0623FC58BB1B87083F807332FE19F667DBE DUP5 PUSH1 0x40 MLOAD PUSH2 0x1517 SWAP2 SWAP1 PUSH2 0x2ADF JUMP JUMPDEST PUSH1 0x40 MLOAD DUP1 SWAP2 SUB SWAP1 LOG3 POP POP POP JUMP JUMPDEST PUSH0 PUSH1 0x6 PUSH0 SWAP1 SLOAD SWAP1 PUSH2 0x100 EXP SWAP1 DIV PUSH20 0xFFFFFFFFFFFFFFFFFFFFFFFFFFFFFFFFFFFFFFFF AND SWAP1 POP SWAP1 JUMP JUMPDEST PUSH0 PUSH1 0x5 PUSH0 DUP5 DUP2 MSTORE PUSH1 0x20 ADD SWAP1 DUP2 MSTORE PUSH1 0x20 ADD PUSH0 KECCAK256 PUSH0 ADD PUSH0 DUP4 PUSH20 0xFFFFFFFFFFFFFFFFFFFFFFFFFFFFFFFFFFFFFFFF AND PUSH20 0xFFFFFFFFFFFFFFFFFFFFFFFFFFFFFFFFFFFFFFFF AND DUP2 MSTORE PUSH1 0x20 ADD SWAP1 DUP2 MSTORE PUSH1 0x20 ADD PUSH0 KECCAK256 PUSH0 SWAP1 SLOAD SWAP1 PUSH2 0x100 EXP SWAP1 DIV PUSH1 0xFF AND SWAP1 POP SWAP3 SWAP2 POP POP JUMP JUMPDEST PUSH1 0x60 PUSH1 0x4 DUP1 SLOAD PUSH2 0x15BF SWAP1 PUSH2 0x2D54 JUMP JUMPDEST DUP1 PUSH1 0x1F ADD PUSH1 0x20 DUP1 SWAP2 DIV MUL PUSH1 0x20 ADD PUSH1 0x40 MLOAD SWAP1 DUP2 ADD PUSH1 0x40 MSTORE DUP1 SWAP3 SWAP2 SWAP1 DUP2 DUP2 MSTORE PUSH1 0x20 ADD DUP3 DUP1 SLOAD PUSH2 0x15EB SWAP1 PUSH2 0x2D54 JUMP JUMPDEST DUP1 ISZERO PUSH2 0x1636 JUMPI DUP1 PUSH1 0x1F LT PUSH2 0x160D JUMPI PUSH2 0x100 DUP1 DUP4 SLOAD DIV MUL DUP4 MSTORE SWAP2 PUSH1 0x20 ADD SWAP2 PUSH2 0x1636 JUMP JUMPDEST DUP3 ADD SWAP2 SWAP1 PUSH0 MSTORE PUSH1 0x20 PUSH0 KECCAK256 SWAP1 JUMPDEST DUP2 SLOAD DUP2 MSTORE SWAP1 PUSH1 0x1 ADD SWAP1 PUSH1 0x20 ADD DUP1 DUP4 GT PUSH2 0x1619 JUMPI DUP3 SWAP1 SUB PUSH1 0x1F AND DUP3 ADD SWAP2 JUMPDEST POP POP POP POP POP SWAP1 POP SWAP1 JUMP JUMPDEST PUSH0 DUP1 SHL DUP2 JUMP JUMPDEST PUSH0 DUP1 PUSH2 0x1650 PUSH2 0x1CAD JUMP JUMPDEST SWAP1 POP PUSH2 0x165D DUP2 DUP6 DUP6 PUSH2 0x1DE0 JUMP JUMPDEST PUSH1 0x1 SWAP2 POP POP SWAP3 SWAP2 POP POP JUMP JUMPDEST PUSH2 0x1670 PUSH2 0x1CC6 JUMP JUMPDEST PUSH2 0x169A PUSH32 0x52BA824BFABC2BCFCDF7F0EDBB486EBB05E1836C90E78047EFEB949990F72E5F DUP3 PUSH2 0x1B0A JUMP JUMPDEST POP JUMP JUMPDEST PUSH2 0x16A5 PUSH2 0x1CC6 JUMP JUMPDEST PUSH0 PUSH20 0xFFFFFFFFFFFFFFFFFFFFFFFFFFFFFFFFFFFFFFFF AND DUP3 PUSH20 0xFFFFFFFFFFFFFFFFFFFFFFFFFFFFFFFFFFFFFFFF AND SUB PUSH2 0x1713 JUMPI PUSH1 0x40 MLOAD PUSH32 0x8C379A000000000000000000000000000000000000000000000000000000000 DUP2 MSTORE PUSH1 0x4 ADD PUSH2 0x170A SWAP1 PUSH2 0x2DCE JUMP JUMPDEST PUSH1 0x40 MLOAD DUP1 SWAP2 SUB SWAP1 REVERT JUMPDEST PUSH2 0x173E DUP3 DUP3 DUP6 PUSH20 0xFFFFFFFFFFFFFFFFFFFFFFFFFFFFFFFFFFFFFFFF AND PUSH2 0x2279 SWAP1 SWAP3 SWAP2 SWAP1 PUSH4 0xFFFFFFFF AND JUMP JUMPDEST DUP2 PUSH20 0xFFFFFFFFFFFFFFFFFFFFFFFFFFFFFFFFFFFFFFFF AND DUP4 PUSH20 0xFFFFFFFFFFFFFFFFFFFFFFFFFFFFFFFFFFFFFFFF AND PUSH32 0x4143F7B5CB6EA007914C32B8A3E64CEBC051D7F493FA0755454DA1E47701E125 DUP4 PUSH1 0x40 MLOAD PUSH2 0x179B SWAP2 SWAP1 PUSH2 0x2ADF JUMP JUMPDEST PUSH1 0x40 MLOAD DUP1 SWAP2 SUB SWAP1 LOG3 POP POP POP JUMP JUMPDEST PUSH32 0x52BA824BFABC2BCFCDF7F0EDBB486EBB05E1836C90E78047EFEB949990F72E5F DUP2 JUMP JUMPDEST PUSH2 0x17D4 PUSH2 0x1CC6 JUMP JUMPDEST PUSH0 PUSH20 0xFFFFFFFFFFFFFFFFFFFFFFFFFFFFFFFFFFFFFFFF AND DUP2 PUSH20 0xFFFFFFFFFFFFFFFFFFFFFFFFFFFFFFFFFFFFFFFF AND SUB PUSH2 0x1842 JUMPI PUSH1 0x40 MLOAD PUSH32 0x8C379A000000000000000000000000000000000000000000000000000000000 DUP2 MSTORE PUSH1 0x4 ADD PUSH2 0x1839 SWAP1 PUSH2 0x2DCE JUMP JUMPDEST PUSH1 0x40 MLOAD DUP1 SWAP2 SUB SWAP1 REVERT JUMPDEST PUSH0 SELFBALANCE SWAP1 POP PUSH0 DUP2 GT PUSH2 0x1888 JUMPI PUSH1 0x40 MLOAD PUSH32 0x8C379A000000000000000000000000000000000000000000000000000000000 DUP2 MSTORE PUSH1 0x4 ADD PUSH2 0x187F SWAP1 PUSH2 0x33E3 JUMP JUMPDEST PUSH1 0x40 MLOAD DUP1 SWAP2 SUB SWAP1 REVERT JUMPDEST DUP2 PUSH20 0xFFFFFFFFFFFFFFFFFFFFFFFFFFFFFFFFFFFFFFFF AND PUSH2 0x8FC DUP3 SWAP1 DUP2 ISZERO MUL SWAP1 PUSH1 0x40 MLOAD PUSH0 PUSH1 0x40 MLOAD DUP1 DUP4 SUB DUP2 DUP6 DUP9 DUP9 CALL SWAP4 POP POP POP POP ISZERO DUP1 ISZERO PUSH2 0x18CB JUMPI RETURNDATASIZE PUSH0 DUP1 RETURNDATACOPY RETURNDATASIZE PUSH0 REVERT JUMPDEST POP DUP2 PUSH20 0xFFFFFFFFFFFFFFFFFFFFFFFFFFFFFFFFFFFFFFFF AND PUSH32 0xE3EB98B7FE2A0C1D490B92AF73EEAE611E9B00AB3C3F70B20BD7BB43F67A0F43 DUP3 PUSH1 0x40 MLOAD PUSH2 0x1912 SWAP2 SWAP1 PUSH2 0x2ADF JUMP JUMPDEST PUSH1 0x40 MLOAD DUP1 SWAP2 SUB SWAP1 LOG2 POP POP JUMP JUMPDEST PUSH2 0x1926 PUSH2 0x1CC6 JUMP JUMPDEST PUSH0 PUSH20 0xFFFFFFFFFFFFFFFFFFFFFFFFFFFFFFFFFFFFFFFF AND DUP2 PUSH20 0xFFFFFFFFFFFFFFFFFFFFFFFFFFFFFFFFFFFFFFFF AND SUB PUSH2 0x1994 JUMPI PUSH1 0x40 MLOAD PUSH32 0x8C379A000000000000000000000000000000000000000000000000000000000 DUP2 MSTORE PUSH1 0x4 ADD PUSH2 0x198B SWAP1 PUSH2 0x2DCE JUMP JUMPDEST PUSH1 0x40 MLOAD DUP1 SWAP2 SUB SWAP1 REVERT JUMPDEST PUSH0 DUP3 PUSH20 0xFFFFFFFFFFFFFFFFFFFFFFFFFFFFFFFFFFFFFFFF AND PUSH4 0x70A08231 ADDRESS PUSH1 0x40 MLOAD DUP3 PUSH4 0xFFFFFFFF AND PUSH1 0xE0 SHL DUP2 MSTORE PUSH1 0x4 ADD PUSH2 0x19CE SWAP2 SWAP1 PUSH2 0x2CA5 JUMP JUMPDEST PUSH1 0x20 PUSH1 0x40 MLOAD DUP1 DUP4 SUB DUP2 DUP7 GAS STATICCALL ISZERO DUP1 ISZERO PUSH2 0x19E9 JUMPI RETURNDATASIZE PUSH0 DUP1 RETURNDATACOPY RETURNDATASIZE PUSH0 REVERT JUMPDEST POP POP POP POP PUSH1 0x40 MLOAD RETURNDATASIZE PUSH1 0x1F NOT PUSH1 0x1F DUP3 ADD AND DUP3 ADD DUP1 PUSH1 0x40 MSTORE POP DUP2 ADD SWAP1 PUSH2 0x1A0D SWAP2 SWAP1 PUSH2 0x3415 JUMP JUMPDEST SWAP1 POP PUSH0 DUP2 GT PUSH2 0x1A51 JUMPI PUSH1 0x40 MLOAD PUSH32 0x8C379A000000000000000000000000000000000000000000000000000000000 DUP2 MSTORE PUSH1 0x4 ADD PUSH2 0x1A48 SWAP1 PUSH2 0x33E3 JUMP JUMPDEST PUSH1 0x40 MLOAD DUP1 SWAP2 SUB SWAP1 REVERT JUMPDEST PUSH2 0x1A7C DUP3 DUP3 DUP6 PUSH20 0xFFFFFFFFFFFFFFFFFFFFFFFFFFFFFFFFFFFFFFFF AND PUSH2 0x2279 SWAP1 SWAP3 SWAP2 SWAP1 PUSH4 0xFFFFFFFF AND JUMP JUMPDEST DUP2 PUSH20 0xFFFFFFFFFFFFFFFFFFFFFFFFFFFFFFFFFFFFFFFF AND DUP4 PUSH20 0xFFFFFFFFFFFFFFFFFFFFFFFFFFFFFFFFFFFFFFFF AND PUSH32 0x4143F7B5CB6EA007914C32B8A3E64CEBC051D7F493FA0755454DA1E47701E125 DUP4 PUSH1 0x40 MLOAD PUSH2 0x1AD9 SWAP2 SWAP1 PUSH2 0x2ADF JUMP JUMPDEST PUSH1 0x40 MLOAD DUP1 SWAP2 SUB SWAP1 LOG3 POP POP POP JUMP JUMPDEST PUSH32 0x9F2DF0FED2C77648DE5860A4CC508CD0818C85B8B8A1AB4CEEEF8D981C8956A6 DUP2 JUMP JUMPDEST PUSH2 0x1B13 DUP3 PUSH2 0xBF3 JUMP JUMPDEST PUSH2 0x1B1C DUP2 PUSH2 0x1ED0 JUMP JUMPDEST PUSH2 0x1B26 DUP4 DUP4 PUSH2 0x1FCE JUMP JUMPDEST POP POP POP POP JUMP JUMPDEST PUSH0 PUSH1 0x1 PUSH0 DUP5 PUSH20 0xFFFFFFFFFFFFFFFFFFFFFFFFFFFFFFFFFFFFFFFF AND PUSH20 0xFFFFFFFFFFFFFFFFFFFFFFFFFFFFFFFFFFFFFFFF AND DUP2 MSTORE PUSH1 0x20 ADD SWAP1 DUP2 MSTORE PUSH1 0x20 ADD PUSH0 KECCAK256 PUSH0 DUP4 PUSH20 0xFFFFFFFFFFFFFFFFFFFFFFFFFFFFFFFFFFFFFFFF AND PUSH20 0xFFFFFFFFFFFFFFFFFFFFFFFFFFFFFFFFFFFFFFFF AND DUP2 MSTORE PUSH1 0x20 ADD SWAP1 DUP2 MSTORE PUSH1 0x20 ADD PUSH0 KECCAK256 SLOAD SWAP1 POP SWAP3 SWAP2 POP POP JUMP JUMPDEST PUSH1 0x9 PUSH0 SWAP1 SLOAD SWAP1 PUSH2 0x100 EXP SWAP1 DIV PUSH1 0xFF AND DUP2 JUMP JUMPDEST PUSH2 0x1BC8 PUSH2 0x1CC6 JUMP JUMPDEST PUSH0 PUSH20 0xFFFFFFFFFFFFFFFFFFFFFFFFFFFFFFFFFFFFFFFF AND DUP2 PUSH20 0xFFFFFFFFFFFFFFFFFFFFFFFFFFFFFFFFFFFFFFFF AND SUB PUSH2 0x1C38 JUMPI PUSH0 PUSH1 0x40 MLOAD PUSH32 0x1E4FBDF700000000000000000000000000000000000000000000000000000000 DUP2 MSTORE PUSH1 0x4 ADD PUSH2 0x1C2F SWAP2 SWAP1 PUSH2 0x2CA5 JUMP JUMPDEST PUSH1 0x40 MLOAD DUP1 SWAP2 SUB SWAP1 REVERT JUMPDEST PUSH2 0x1C41 DUP2 PUSH2 0x2137 JUMP JUMPDEST POP JUMP JUMPDEST PUSH0 PUSH32 0x1FFC9A700000000000000000000000000000000000000000000000000000000 PUSH28 0xFFFFFFFFFFFFFFFFFFFFFFFFFFFFFFFFFFFFFFFFFFFFFFFFFFFFFFFF NOT AND DUP3 PUSH28 0xFFFFFFFFFFFFFFFFFFFFFFFFFFFFFFFFFFFFFFFFFFFFFFFFFFFFFFFF NOT AND EQ SWAP1 POP SWAP2 SWAP1 POP JUMP JUMPDEST PUSH0 CALLER SWAP1 POP SWAP1 JUMP JUMPDEST PUSH2 0x1CC1 DUP4 DUP4 DUP4 PUSH1 0x1 PUSH2 0x22F8 JUMP JUMPDEST POP POP POP JUMP JUMPDEST PUSH2 0x1CCE PUSH2 0x1CAD JUMP JUMPDEST PUSH20 0xFFFFFFFFFFFFFFFFFFFFFFFFFFFFFFFFFFFFFFFF AND PUSH2 0x1CEC PUSH2 0x1524 JUMP JUMPDEST PUSH20 0xFFFFFFFFFFFFFFFFFFFFFFFFFFFFFFFFFFFFFFFF AND EQ PUSH2 0x1D4B JUMPI PUSH2 0x1D0F PUSH2 0x1CAD JUMP JUMPDEST PUSH1 0x40 MLOAD PUSH32 0x118CDAA700000000000000000000000000000000000000000000000000000000 DUP2 MSTORE PUSH1 0x4 ADD PUSH2 0x1D42 SWAP2 SWAP1 PUSH2 0x2CA5 JUMP JUMPDEST PUSH1 0x40 MLOAD DUP1 SWAP2 SUB SWAP1 REVERT JUMPDEST JUMP JUMPDEST PUSH0 PUSH2 0x1D58 DUP5 DUP5 PUSH2 0x1B2C JUMP JUMPDEST SWAP1 POP PUSH32 0xFFFFFFFFFFFFFFFFFFFFFFFFFFFFFFFFFFFFFFFFFFFFFFFFFFFFFFFFFFFFFFFF DUP2 LT ISZERO PUSH2 0x1DDA JUMPI DUP2 DUP2 LT ISZERO PUSH2 0x1DCB JUMPI DUP3 DUP2 DUP4 PUSH1 0x40 MLOAD PUSH32 0xFB8F41B200000000000000000000000000000000000000000000000000000000 DUP2 MSTORE PUSH1 0x4 ADD PUSH2 0x1DC2 SWAP4 SWAP3 SWAP2 SWAP1 PUSH2 0x3440 JUMP JUMPDEST PUSH1 0x40 MLOAD DUP1 SWAP2 SUB SWAP1 REVERT JUMPDEST PUSH2 0x1DD9 DUP5 DUP5 DUP5 DUP5 SUB PUSH0 PUSH2 0x22F8 JUMP JUMPDEST JUMPDEST POP POP POP POP JUMP JUMPDEST PUSH0 PUSH20 0xFFFFFFFFFFFFFFFFFFFFFFFFFFFFFFFFFFFFFFFF AND DUP4 PUSH20 0xFFFFFFFFFFFFFFFFFFFFFFFFFFFFFFFFFFFFFFFF AND SUB PUSH2 0x1E50 JUMPI PUSH0 PUSH1 0x40 MLOAD PUSH32 0x96C6FD1E00000000000000000000000000000000000000000000000000000000 DUP2 MSTORE PUSH1 0x4 ADD PUSH2 0x1E47 SWAP2 SWAP1 PUSH2 0x2CA5 JUMP JUMPDEST PUSH1 0x40 MLOAD DUP1 SWAP2 SUB SWAP1 REVERT JUMPDEST PUSH0 PUSH20 0xFFFFFFFFFFFFFFFFFFFFFFFFFFFFFFFFFFFFFFFF AND DUP3 PUSH20 0xFFFFFFFFFFFFFFFFFFFFFFFFFFFFFFFFFFFFFFFF AND SUB PUSH2 0x1EC0 JUMPI PUSH0 PUSH1 0x40 MLOAD PUSH32 0xEC442F0500000000000000000000000000000000000000000000000000000000 DUP2 MSTORE PUSH1 0x4 ADD PUSH2 0x1EB7 SWAP2 SWAP1 PUSH2 0x2CA5 JUMP JUMPDEST PUSH1 0x40 MLOAD DUP1 SWAP2 SUB SWAP1 REVERT JUMPDEST PUSH2 0x1ECB DUP4 DUP4 DUP4 PUSH2 0x24C7 JUMP JUMPDEST POP POP POP JUMP JUMPDEST PUSH2 0x1EE1 DUP2 PUSH2 0x1EDC PUSH2 0x1CAD JUMP JUMPDEST PUSH2 0x2526 JUMP JUMPDEST POP JUMP JUMPDEST PUSH0 PUSH2 0x1EEF DUP4 DUP4 PUSH2 0x154C JUMP JUMPDEST PUSH2 0x1FC4 JUMPI PUSH1 0x1 PUSH1 0x5 PUSH0 DUP6 DUP2 MSTORE PUSH1 0x20 ADD SWAP1 DUP2 MSTORE PUSH1 0x20 ADD PUSH0 KECCAK256 PUSH0 ADD PUSH0 DUP5 PUSH20 0xFFFFFFFFFFFFFFFFFFFFFFFFFFFFFFFFFFFFFFFF AND PUSH20 0xFFFFFFFFFFFFFFFFFFFFFFFFFFFFFFFFFFFFFFFF AND DUP2 MSTORE PUSH1 0x20 ADD SWAP1 DUP2 MSTORE PUSH1 0x20 ADD PUSH0 KECCAK256 PUSH0 PUSH2 0x100 EXP DUP2 SLOAD DUP2 PUSH1 0xFF MUL NOT AND SWAP1 DUP4 ISZERO ISZERO MUL OR SWAP1 SSTORE POP PUSH2 0x1F61 PUSH2 0x1CAD JUMP JUMPDEST PUSH20 0xFFFFFFFFFFFFFFFFFFFFFFFFFFFFFFFFFFFFFFFF AND DUP3 PUSH20 0xFFFFFFFFFFFFFFFFFFFFFFFFFFFFFFFFFFFFFFFF AND DUP5 PUSH32 0x2F8788117E7EFF1D82E926EC794901D17C78024A50270940304540A733656F0D PUSH1 0x40 MLOAD PUSH1 0x40 MLOAD DUP1 SWAP2 SUB SWAP1 LOG4 PUSH1 0x1 SWAP1 POP PUSH2 0x1FC8 JUMP JUMPDEST PUSH0 SWAP1 POP JUMPDEST SWAP3 SWAP2 POP POP JUMP JUMPDEST PUSH0 PUSH2 0x1FD9 DUP4 DUP4 PUSH2 0x154C JUMP JUMPDEST ISZERO PUSH2 0x20AE JUMPI PUSH0 PUSH1 0x5 PUSH0 DUP6 DUP2 MSTORE PUSH1 0x20 ADD SWAP1 DUP2 MSTORE PUSH1 0x20 ADD PUSH0 KECCAK256 PUSH0 ADD PUSH0 DUP5 PUSH20 0xFFFFFFFFFFFFFFFFFFFFFFFFFFFFFFFFFFFFFFFF AND PUSH20 0xFFFFFFFFFFFFFFFFFFFFFFFFFFFFFFFFFFFFFFFF AND DUP2 MSTORE PUSH1 0x20 ADD SWAP1 DUP2 MSTORE PUSH1 0x20 ADD PUSH0 KECCAK256 PUSH0 PUSH2 0x100 EXP DUP2 SLOAD DUP2 PUSH1 0xFF MUL NOT AND SWAP1 DUP4 ISZERO ISZERO MUL OR SWAP1 SSTORE POP PUSH2 0x204B PUSH2 0x1CAD JUMP JUMPDEST PUSH20 0xFFFFFFFFFFFFFFFFFFFFFFFFFFFFFFFFFFFFFFFF AND DUP3 PUSH20 0xFFFFFFFFFFFFFFFFFFFFFFFFFFFFFFFFFFFFFFFF AND DUP5 PUSH32 0xF6391F5C32D9C69D2A47EA670B442974B53935D1EDC7FD64EB21E047A839171B PUSH1 0x40 MLOAD PUSH1 0x40 MLOAD DUP1 SWAP2 SUB SWAP1 LOG4 PUSH1 0x1 SWAP1 POP PUSH2 0x20B2 JUMP JUMPDEST PUSH0 SWAP1 POP JUMPDEST SWAP3 SWAP2 POP POP JUMP JUMPDEST PUSH0 PUSH20 0xFFFFFFFFFFFFFFFFFFFFFFFFFFFFFFFFFFFFFFFF AND DUP3 PUSH20 0xFFFFFFFFFFFFFFFFFFFFFFFFFFFFFFFFFFFFFFFF AND SUB PUSH2 0x2128 JUMPI PUSH0 PUSH1 0x40 MLOAD PUSH32 0xEC442F0500000000000000000000000000000000000000000000000000000000 DUP2 MSTORE PUSH1 0x4 ADD PUSH2 0x211F SWAP2 SWAP1 PUSH2 0x2CA5 JUMP JUMPDEST PUSH1 0x40 MLOAD DUP1 SWAP2 SUB SWAP1 REVERT JUMPDEST PUSH2 0x2133 PUSH0 DUP4 DUP4 PUSH2 0x24C7 JUMP JUMPDEST POP POP JUMP JUMPDEST PUSH0 PUSH1 0x6 PUSH0 SWAP1 SLOAD SWAP1 PUSH2 0x100 EXP SWAP1 DIV PUSH20 0xFFFFFFFFFFFFFFFFFFFFFFFFFFFFFFFFFFFFFFFF AND SWAP1 POP DUP2 PUSH1 0x6 PUSH0 PUSH2 0x100 EXP DUP2 SLOAD DUP2 PUSH20 0xFFFFFFFFFFFFFFFFFFFFFFFFFFFFFFFFFFFFFFFF MUL NOT AND SWAP1 DUP4 PUSH20 0xFFFFFFFFFFFFFFFFFFFFFFFFFFFFFFFFFFFFFFFF AND MUL OR SWAP1 SSTORE POP DUP2 PUSH20 0xFFFFFFFFFFFFFFFFFFFFFFFFFFFFFFFFFFFFFFFF AND DUP2 PUSH20 0xFFFFFFFFFFFFFFFFFFFFFFFFFFFFFFFFFFFFFFFF AND PUSH32 0x8BE0079C531659141344CD1FD0A4F28419497F9722A3DAAFE3B4186F6B6457E0 PUSH1 0x40 MLOAD PUSH1 0x40 MLOAD DUP1 SWAP2 SUB SWAP1 LOG3 POP POP JUMP JUMPDEST PUSH0 PUSH20 0xFFFFFFFFFFFFFFFFFFFFFFFFFFFFFFFFFFFFFFFF AND DUP3 PUSH20 0xFFFFFFFFFFFFFFFFFFFFFFFFFFFFFFFFFFFFFFFF AND SUB PUSH2 0x226A JUMPI PUSH0 PUSH1 0x40 MLOAD PUSH32 0x96C6FD1E00000000000000000000000000000000000000000000000000000000 DUP2 MSTORE PUSH1 0x4 ADD PUSH2 0x2261 SWAP2 SWAP1 PUSH2 0x2CA5 JUMP JUMPDEST PUSH1 0x40 MLOAD DUP1 SWAP2 SUB SWAP1 REVERT JUMPDEST PUSH2 0x2275 DUP3 PUSH0 DUP4 PUSH2 0x24C7 JUMP JUMPDEST POP POP JUMP JUMPDEST PUSH2 0x22F3 DUP4 DUP5 PUSH20 0xFFFFFFFFFFFFFFFFFFFFFFFFFFFFFFFFFFFFFFFF AND PUSH4 0xA9059CBB DUP6 DUP6 PUSH1 0x40 MLOAD PUSH1 0x24 ADD PUSH2 0x22AC SWAP3 SWAP2 SWAP1 PUSH2 0x3475 JUMP JUMPDEST PUSH1 0x40 MLOAD PUSH1 0x20 DUP2 DUP4 SUB SUB DUP2 MSTORE SWAP1 PUSH1 0x40 MSTORE SWAP2 POP PUSH1 0xE0 SHL PUSH1 0x20 DUP3 ADD DUP1 MLOAD PUSH28 0xFFFFFFFFFFFFFFFFFFFFFFFFFFFFFFFFFFFFFFFFFFFFFFFFFFFFFFFF DUP4 DUP2 DUP4 AND OR DUP4 MSTORE POP POP POP POP PUSH2 0x2577 JUMP JUMPDEST POP POP POP JUMP JUMPDEST PUSH0 PUSH20 0xFFFFFFFFFFFFFFFFFFFFFFFFFFFFFFFFFFFFFFFF AND DUP5 PUSH20 0xFFFFFFFFFFFFFFFFFFFFFFFFFFFFFFFFFFFFFFFF AND SUB PUSH2 0x2368 JUMPI PUSH0 PUSH1 0x40 MLOAD PUSH32 0xE602DF0500000000000000000000000000000000000000000000000000000000 DUP2 MSTORE PUSH1 0x4 ADD PUSH2 0x235F SWAP2 SWAP1 PUSH2 0x2CA5 JUMP JUMPDEST PUSH1 0x40 MLOAD DUP1 SWAP2 SUB SWAP1 REVERT JUMPDEST PUSH0 PUSH20 0xFFFFFFFFFFFFFFFFFFFFFFFFFFFFFFFFFFFFFFFF AND DUP4 PUSH20 0xFFFFFFFFFFFFFFFFFFFFFFFFFFFFFFFFFFFFFFFF AND SUB PUSH2 0x23D8 JUMPI PUSH0 PUSH1 0x40 MLOAD PUSH32 0x94280D6200000000000000000000000000000000000000000000000000000000 DUP2 MSTORE PUSH1 0x4 ADD PUSH2 0x23CF SWAP2 SWAP1 PUSH2 0x2CA5 JUMP JUMPDEST PUSH1 0x40 MLOAD DUP1 SWAP2 SUB SWAP1 REVERT JUMPDEST DUP2 PUSH1 0x1 PUSH0 DUP7 PUSH20 0xFFFFFFFFFFFFFFFFFFFFFFFFFFFFFFFFFFFFFFFF AND PUSH20 0xFFFFFFFFFFFFFFFFFFFFFFFFFFFFFFFFFFFFFFFF AND DUP2 MSTORE PUSH1 0x20 ADD SWAP1 DUP2 MSTORE PUSH1 0x20 ADD PUSH0 KECCAK256 PUSH0 DUP6 PUSH20 0xFFFFFFFFFFFFFFFFFFFFFFFFFFFFFFFFFFFFFFFF AND PUSH20 0xFFFFFFFFFFFFFFFFFFFFFFFFFFFFFFFFFFFFFFFF AND DUP2 MSTORE PUSH1 0x20 ADD SWAP1 DUP2 MSTORE PUSH1 0x20 ADD PUSH0 KECCAK256 DUP2 SWAP1 SSTORE POP DUP1 ISZERO PUSH2 0x24C1 JUMPI DUP3 PUSH20 0xFFFFFFFFFFFFFFFFFFFFFFFFFFFFFFFFFFFFFFFF AND DUP5 PUSH20 0xFFFFFFFFFFFFFFFFFFFFFFFFFFFFFFFFFFFFFFFF AND PUSH32 0x8C5BE1E5EBEC7D5BD14F71427D1E84F3DD0314C0F7B2291E5B200AC8C7C3B925 DUP5 PUSH1 0x40 MLOAD PUSH2 0x24B8 SWAP2 SWAP1 PUSH2 0x2ADF JUMP JUMPDEST PUSH1 0x40 MLOAD DUP1 SWAP2 SUB SWAP1 LOG3 JUMPDEST POP POP POP POP JUMP JUMPDEST PUSH1 0x9 PUSH0 SWAP1 SLOAD SWAP1 PUSH2 0x100 EXP SWAP1 DIV PUSH1 0xFF AND ISZERO PUSH2 0x2516 JUMPI PUSH1 0x40 MLOAD PUSH32 0x8C379A000000000000000000000000000000000000000000000000000000000 DUP2 MSTORE PUSH1 0x4 ADD PUSH2 0x250D SWAP1 PUSH2 0x3085 JUMP JUMPDEST PUSH1 0x40 MLOAD DUP1 SWAP2 SUB SWAP1 REVERT JUMPDEST PUSH2 0x2521 DUP4 DUP4 DUP4 PUSH2 0x2612 JUMP JUMPDEST POP POP POP JUMP JUMPDEST PUSH2 0x2530 DUP3 DUP3 PUSH2 0x154C JUMP JUMPDEST PUSH2 0x2573 JUMPI DUP1 DUP3 PUSH1 0x40 MLOAD PUSH32 0xE2517D3F00000000000000000000000000000000000000000000000000000000 DUP2 MSTORE PUSH1 0x4 ADD PUSH2 0x256A SWAP3 SWAP2 SWAP1 PUSH2 0x349C JUMP JUMPDEST PUSH1 0x40 MLOAD DUP1 SWAP2 SUB SWAP1 REVERT JUMPDEST POP POP JUMP JUMPDEST PUSH0 DUP1 PUSH1 0x20 PUSH0 DUP5 MLOAD PUSH1 0x20 DUP7 ADD PUSH0 DUP9 GAS CALL DUP1 PUSH2 0x2596 JUMPI PUSH1 0x40 MLOAD RETURNDATASIZE PUSH0 DUP3 RETURNDATACOPY RETURNDATASIZE DUP2 REVERT JUMPDEST RETURNDATASIZE SWAP3 POP PUSH0 MLOAD SWAP2 POP POP PUSH0 DUP3 EQ PUSH2 0x25AF JUMPI PUSH1 0x1 DUP2 EQ ISZERO PUSH2 0x25CA JUMP JUMPDEST PUSH0 DUP5 PUSH20 0xFFFFFFFFFFFFFFFFFFFFFFFFFFFFFFFFFFFFFFFF AND EXTCODESIZE EQ JUMPDEST ISZERO PUSH2 0x260C JUMPI DUP4 PUSH1 0x40 MLOAD PUSH32 0x5274AFE700000000000000000000000000000000000000000000000000000000 DUP2 MSTORE PUSH1 0x4 ADD PUSH2 0x2603 SWAP2 SWAP1 PUSH2 0x2CA5 JUMP JUMPDEST PUSH1 0x40 MLOAD DUP1 SWAP2 SUB SWAP1 REVERT JUMPDEST POP POP POP POP JUMP JUMPDEST PUSH0 PUSH20 0xFFFFFFFFFFFFFFFFFFFFFFFFFFFFFFFFFFFFFFFF AND DUP4 PUSH20 0xFFFFFFFFFFFFFFFFFFFFFFFFFFFFFFFFFFFFFFFF AND SUB PUSH2 0x2662 JUMPI DUP1 PUSH1 0x2 PUSH0 DUP3 DUP3 SLOAD PUSH2 0x2656 SWAP2 SWAP1 PUSH2 0x31C6 JUMP JUMPDEST SWAP3 POP POP DUP2 SWAP1 SSTORE POP PUSH2 0x2730 JUMP JUMPDEST PUSH0 DUP1 PUSH0 DUP6 PUSH20 0xFFFFFFFFFFFFFFFFFFFFFFFFFFFFFFFFFFFFFFFF AND PUSH20 0xFFFFFFFFFFFFFFFFFFFFFFFFFFFFFFFFFFFFFFFF AND DUP2 MSTORE PUSH1 0x20 ADD SWAP1 DUP2 MSTORE PUSH1 0x20 ADD PUSH0 KECCAK256 SLOAD SWAP1 POP DUP2 DUP2 LT ISZERO PUSH2 0x26EB JUMPI DUP4 DUP2 DUP4 PUSH1 0x40 MLOAD PUSH32 0xE450D38C00000000000000000000000000000000000000000000000000000000 DUP2 MSTORE PUSH1 0x4 ADD PUSH2 0x26E2 SWAP4 SWAP3 SWAP2 SWAP1 PUSH2 0x3440 JUMP JUMPDEST PUSH1 0x40 MLOAD DUP1 SWAP2 SUB SWAP1 REVERT JUMPDEST DUP2 DUP2 SUB PUSH0 DUP1 DUP7 PUSH20 0xFFFFFFFFFFFFFFFFFFFFFFFFFFFFFFFFFFFFFFFF AND PUSH20 0xFFFFFFFFFFFFFFFFFFFFFFFFFFFFFFFFFFFFFFFF AND DUP2 MSTORE PUSH1 0x20 ADD SWAP1 DUP2 MSTORE PUSH1 0x20 ADD PUSH0 KECCAK256 DUP2 SWAP1 SSTORE POP POP JUMPDEST PUSH0 PUSH20 0xFFFFFFFFFFFFFFFFFFFFFFFFFFFFFFFFFFFFFFFF AND DUP3 PUSH20 0xFFFFFFFFFFFFFFFFFFFFFFFFFFFFFFFFFFFFFFFF AND SUB PUSH2 0x2777 JUMPI DUP1 PUSH1 0x2 PUSH0 DUP3 DUP3 SLOAD SUB SWAP3 POP POP DUP2 SWAP1 SSTORE POP PUSH2 0x27C1 JUMP JUMPDEST DUP1 PUSH0 DUP1 DUP5 PUSH20 0xFFFFFFFFFFFFFFFFFFFFFFFFFFFFFFFFFFFFFFFF AND PUSH20 0xFFFFFFFFFFFFFFFFFFFFFFFFFFFFFFFFFFFFFFFF AND DUP2 MSTORE PUSH1 0x20 ADD SWAP1 DUP2 MSTORE PUSH1 0x20 ADD PUSH0 KECCAK256 PUSH0 DUP3 DUP3 SLOAD ADD SWAP3 POP POP DUP2 SWAP1 SSTORE POP JUMPDEST DUP2 PUSH20 0xFFFFFFFFFFFFFFFFFFFFFFFFFFFFFFFFFFFFFFFF AND DUP4 PUSH20 0xFFFFFFFFFFFFFFFFFFFFFFFFFFFFFFFFFFFFFFFF AND PUSH32 0xDDF252AD1BE2C89B69C2B068FC378DAA952BA7F163C4A11628F55A4DF523B3EF DUP4 PUSH1 0x40 MLOAD PUSH2 0x281E SWAP2 SWAP1 PUSH2 0x2ADF JUMP JUMPDEST PUSH1 0x40 MLOAD DUP1 SWAP2 SUB SWAP1 LOG3 POP POP POP JUMP JUMPDEST PUSH0 DUP1 REVERT JUMPDEST PUSH0 PUSH32 0xFFFFFFFF00000000000000000000000000000000000000000000000000000000 DUP3 AND SWAP1 POP SWAP2 SWAP1 POP JUMP JUMPDEST PUSH2 0x2863 DUP2 PUSH2 0x282F JUMP JUMPDEST DUP2 EQ PUSH2 0x286D JUMPI PUSH0 DUP1 REVERT JUMPDEST POP JUMP JUMPDEST PUSH0 DUP2 CALLDATALOAD SWAP1 POP PUSH2 0x287E DUP2 PUSH2 0x285A JUMP JUMPDEST SWAP3 SWAP2 POP POP JUMP JUMPDEST PUSH0 PUSH1 0x20 DUP3 DUP5 SUB SLT ISZERO PUSH2 0x2899 JUMPI PUSH2 0x2898 PUSH2 0x282B JUMP JUMPDEST JUMPDEST PUSH0 PUSH2 0x28A6 DUP5 DUP3 DUP6 ADD PUSH2 0x2870 JUMP JUMPDEST SWAP2 POP POP SWAP3 SWAP2 POP POP JUMP JUMPDEST PUSH0 DUP2 ISZERO ISZERO SWAP1 POP SWAP2 SWAP1 POP JUMP JUMPDEST PUSH2 0x28C3 DUP2 PUSH2 0x28AF JUMP JUMPDEST DUP3 MSTORE POP POP JUMP JUMPDEST PUSH0 PUSH1 0x20 DUP3 ADD SWAP1 POP PUSH2 0x28DC PUSH0 DUP4 ADD DUP5 PUSH2 0x28BA JUMP JUMPDEST SWAP3 SWAP2 POP POP JUMP JUMPDEST PUSH0 DUP2 MLOAD SWAP1 POP SWAP2 SWAP1 POP JUMP JUMPDEST PUSH0 DUP3 DUP3 MSTORE PUSH1 0x20 DUP3 ADD SWAP1 POP SWAP3 SWAP2 POP POP JUMP JUMPDEST PUSH0 JUMPDEST DUP4 DUP2 LT ISZERO PUSH2 0x2919 JUMPI DUP1 DUP3 ADD MLOAD DUP2 DUP5 ADD MSTORE PUSH1 0x20 DUP2 ADD SWAP1 POP PUSH2 0x28FE JUMP JUMPDEST PUSH0 DUP5 DUP5 ADD MSTORE POP POP POP POP JUMP JUMPDEST PUSH0 PUSH1 0x1F NOT PUSH1 0x1F DUP4 ADD AND SWAP1 POP SWAP2 SWAP1 POP JUMP JUMPDEST PUSH0 PUSH2 0x293E DUP3 PUSH2 0x28E2 JUMP JUMPDEST PUSH2 0x2948 DUP2 DUP6 PUSH2 0x28EC JUMP JUMPDEST SWAP4 POP PUSH2 0x2958 DUP2 DUP6 PUSH1 0x20 DUP7 ADD PUSH2 0x28FC JUMP JUMPDEST PUSH2 0x2961 DUP2 PUSH2 0x2924 JUMP JUMPDEST DUP5 ADD SWAP2 POP POP SWAP3 SWAP2 POP POP JUMP JUMPDEST PUSH0 PUSH1 0x20 DUP3 ADD SWAP1 POP DUP2 DUP2 SUB PUSH0 DUP4 ADD MSTORE PUSH2 0x2984 DUP2 DUP5 PUSH2 0x2934 JUMP JUMPDEST SWAP1 POP SWAP3 SWAP2 POP POP JUMP JUMPDEST PUSH0 PUSH20 0xFFFFFFFFFFFFFFFFFFFFFFFFFFFFFFFFFFFFFFFF DUP3 AND SWAP1 POP SWAP2 SWAP1 POP JUMP JUMPDEST PUSH0 PUSH2 0x29B5 DUP3 PUSH2 0x298C JUMP JUMPDEST SWAP1 POP SWAP2 SWAP1 POP JUMP JUMPDEST PUSH2 0x29C5 DUP2 PUSH2 0x29AB JUMP JUMPDEST DUP2 EQ PUSH2 0x29CF JUMPI PUSH0 DUP1 REVERT JUMPDEST POP JUMP JUMPDEST PUSH0 DUP2 CALLDATALOAD SWAP1 POP PUSH2 0x29E0 DUP2 PUSH2 0x29BC JUMP JUMPDEST SWAP3 SWAP2 POP POP JUMP JUMPDEST PUSH0 DUP2 SWAP1 POP SWAP2 SWAP1 POP JUMP JUMPDEST PUSH2 0x29F8 DUP2 PUSH2 0x29E6 JUMP JUMPDEST DUP2 EQ PUSH2 0x2A02 JUMPI PUSH0 DUP1 REVERT JUMPDEST POP JUMP JUMPDEST PUSH0 DUP2 CALLDATALOAD SWAP1 POP PUSH2 0x2A13 DUP2 PUSH2 0x29EF JUMP JUMPDEST SWAP3 SWAP2 POP POP JUMP JUMPDEST PUSH0 DUP1 PUSH1 0x40 DUP4 DUP6 SUB SLT ISZERO PUSH2 0x2A2F JUMPI PUSH2 0x2A2E PUSH2 0x282B JUMP JUMPDEST JUMPDEST PUSH0 PUSH2 0x2A3C DUP6 DUP3 DUP7 ADD PUSH2 0x29D2 JUMP JUMPDEST SWAP3 POP POP PUSH1 0x20 PUSH2 0x2A4D DUP6 DUP3 DUP7 ADD PUSH2 0x2A05 JUMP JUMPDEST SWAP2 POP POP SWAP3 POP SWAP3 SWAP1 POP JUMP JUMPDEST PUSH0 PUSH2 0x2A61 DUP3 PUSH2 0x298C JUMP JUMPDEST SWAP1 POP SWAP2 SWAP1 POP JUMP JUMPDEST PUSH2 0x2A71 DUP2 PUSH2 0x2A57 JUMP JUMPDEST DUP2 EQ PUSH2 0x2A7B JUMPI PUSH0 DUP1 REVERT JUMPDEST POP JUMP JUMPDEST PUSH0 DUP2 CALLDATALOAD SWAP1 POP PUSH2 0x2A8C DUP2 PUSH2 0x2A68 JUMP JUMPDEST SWAP3 SWAP2 POP POP JUMP JUMPDEST PUSH0 DUP1 PUSH1 0x40 DUP4 DUP6 SUB SLT ISZERO PUSH2 0x2AA8 JUMPI PUSH2 0x2AA7 PUSH2 0x282B JUMP JUMPDEST JUMPDEST PUSH0 PUSH2 0x2AB5 DUP6 DUP3 DUP7 ADD PUSH2 0x2A7E JUMP JUMPDEST SWAP3 POP POP PUSH1 0x20 PUSH2 0x2AC6 DUP6 DUP3 DUP7 ADD PUSH2 0x2A05 JUMP JUMPDEST SWAP2 POP POP SWAP3 POP SWAP3 SWAP1 POP JUMP JUMPDEST PUSH2 0x2AD9 DUP2 PUSH2 0x29E6 JUMP JUMPDEST DUP3 MSTORE POP POP JUMP JUMPDEST PUSH0 PUSH1 0x20 DUP3 ADD SWAP1 POP PUSH2 0x2AF2 PUSH0 DUP4 ADD DUP5 PUSH2 0x2AD0 JUMP JUMPDEST SWAP3 SWAP2 POP POP JUMP JUMPDEST PUSH0 DUP1 PUSH0 PUSH1 0x60 DUP5 DUP7 SUB SLT ISZERO PUSH2 0x2B0F JUMPI PUSH2 0x2B0E PUSH2 0x282B JUMP JUMPDEST JUMPDEST PUSH0 PUSH2 0x2B1C DUP7 DUP3 DUP8 ADD PUSH2 0x29D2 JUMP JUMPDEST SWAP4 POP POP PUSH1 0x20 PUSH2 0x2B2D DUP7 DUP3 DUP8 ADD PUSH2 0x29D2 JUMP JUMPDEST SWAP3 POP POP PUSH1 0x40 PUSH2 0x2B3E DUP7 DUP3 DUP8 ADD PUSH2 0x2A05 JUMP JUMPDEST SWAP2 POP POP SWAP3 POP SWAP3 POP SWAP3 JUMP JUMPDEST PUSH0 DUP2 SWAP1 POP SWAP2 SWAP1 POP JUMP JUMPDEST PUSH2 0x2B5A DUP2 PUSH2 0x2B48 JUMP JUMPDEST DUP2 EQ PUSH2 0x2B64 JUMPI PUSH0 DUP1 REVERT JUMPDEST POP JUMP JUMPDEST PUSH0 DUP2 CALLDATALOAD SWAP1 POP PUSH2 0x2B75 DUP2 PUSH2 0x2B51 JUMP JUMPDEST SWAP3 SWAP2 POP POP JUMP JUMPDEST PUSH0 PUSH1 0x20 DUP3 DUP5 SUB SLT ISZERO PUSH2 0x2B90 JUMPI PUSH2 0x2B8F PUSH2 0x282B JUMP JUMPDEST JUMPDEST PUSH0 PUSH2 0x2B9D DUP5 DUP3 DUP6 ADD PUSH2 0x2B67 JUMP JUMPDEST SWAP2 POP POP SWAP3 SWAP2 POP POP JUMP JUMPDEST PUSH2 0x2BAF DUP2 PUSH2 0x2B48 JUMP JUMPDEST DUP3 MSTORE POP POP JUMP JUMPDEST PUSH0 PUSH1 0x20 DUP3 ADD SWAP1 POP PUSH2 0x2BC8 PUSH0 DUP4 ADD DUP5 PUSH2 0x2BA6 JUMP JUMPDEST SWAP3 SWAP2 POP POP JUMP JUMPDEST PUSH0 DUP1 PUSH1 0x40 DUP4 DUP6 SUB SLT ISZERO PUSH2 0x2BE4 JUMPI PUSH2 0x2BE3 PUSH2 0x282B JUMP JUMPDEST JUMPDEST PUSH0 PUSH2 0x2BF1 DUP6 DUP3 DUP7 ADD PUSH2 0x2B67 JUMP JUMPDEST SWAP3 POP POP PUSH1 0x20 PUSH2 0x2C02 DUP6 DUP3 DUP7 ADD PUSH2 0x29D2 JUMP JUMPDEST SWAP2 POP POP SWAP3 POP SWAP3 SWAP1 POP JUMP JUMPDEST PUSH0 PUSH1 0xFF DUP3 AND SWAP1 POP SWAP2 SWAP1 POP JUMP JUMPDEST PUSH2 0x2C21 DUP2 PUSH2 0x2C0C JUMP JUMPDEST DUP3 MSTORE POP POP JUMP JUMPDEST PUSH0 PUSH1 0x20 DUP3 ADD SWAP1 POP PUSH2 0x2C3A PUSH0 DUP4 ADD DUP5 PUSH2 0x2C18 JUMP JUMPDEST SWAP3 SWAP2 POP POP JUMP JUMPDEST PUSH0 PUSH1 0x20 DUP3 DUP5 SUB SLT ISZERO PUSH2 0x2C55 JUMPI PUSH2 0x2C54 PUSH2 0x282B JUMP JUMPDEST JUMPDEST PUSH0 PUSH2 0x2C62 DUP5 DUP3 DUP6 ADD PUSH2 0x29D2 JUMP JUMPDEST SWAP2 POP POP SWAP3 SWAP2 POP POP JUMP JUMPDEST PUSH0 PUSH1 0x20 DUP3 DUP5 SUB SLT ISZERO PUSH2 0x2C80 JUMPI PUSH2 0x2C7F PUSH2 0x282B JUMP JUMPDEST JUMPDEST PUSH0 PUSH2 0x2C8D DUP5 DUP3 DUP6 ADD PUSH2 0x2A05 JUMP JUMPDEST SWAP2 POP POP SWAP3 SWAP2 POP POP JUMP JUMPDEST PUSH2 0x2C9F DUP2 PUSH2 0x29AB JUMP JUMPDEST DUP3 MSTORE POP POP JUMP JUMPDEST PUSH0 PUSH1 0x20 DUP3 ADD SWAP1 POP PUSH2 0x2CB8 PUSH0 DUP4 ADD DUP5 PUSH2 0x2C96 JUMP JUMPDEST SWAP3 SWAP2 POP POP JUMP JUMPDEST PUSH0 PUSH1 0x20 DUP3 DUP5 SUB SLT ISZERO PUSH2 0x2CD3 JUMPI PUSH2 0x2CD2 PUSH2 0x282B JUMP JUMPDEST JUMPDEST PUSH0 PUSH2 0x2CE0 DUP5 DUP3 DUP6 ADD PUSH2 0x2A7E JUMP JUMPDEST SWAP2 POP POP SWAP3 SWAP2 POP POP JUMP JUMPDEST PUSH0 DUP1 PUSH1 0x40 DUP4 DUP6 SUB SLT ISZERO PUSH2 0x2CFF JUMPI PUSH2 0x2CFE PUSH2 0x282B JUMP JUMPDEST JUMPDEST PUSH0 PUSH2 0x2D0C DUP6 DUP3 DUP7 ADD PUSH2 0x29D2 JUMP JUMPDEST SWAP3 POP POP PUSH1 0x20 PUSH2 0x2D1D DUP6 DUP3 DUP7 ADD PUSH2 0x29D2 JUMP JUMPDEST SWAP2 POP POP SWAP3 POP SWAP3 SWAP1 POP JUMP JUMPDEST PUSH32 0x4E487B7100000000000000000000000000000000000000000000000000000000 PUSH0 MSTORE PUSH1 0x22 PUSH1 0x4 MSTORE PUSH1 0x24 PUSH0 REVERT JUMPDEST PUSH0 PUSH1 0x2 DUP3 DIV SWAP1 POP PUSH1 0x1 DUP3 AND DUP1 PUSH2 0x2D6B JUMPI PUSH1 0x7F DUP3 AND SWAP2 POP JUMPDEST PUSH1 0x20 DUP3 LT DUP2 SUB PUSH2 0x2D7E JUMPI PUSH2 0x2D7D PUSH2 0x2D27 JUMP JUMPDEST JUMPDEST POP SWAP2 SWAP1 POP JUMP JUMPDEST PUSH32 0x544947473A20746F207A65726F00000000000000000000000000000000000000 PUSH0 DUP3 ADD MSTORE POP JUMP JUMPDEST PUSH0 PUSH2 0x2DB8 PUSH1 0xD DUP4 PUSH2 0x28EC JUMP JUMPDEST SWAP2 POP PUSH2 0x2DC3 DUP3 PUSH2 0x2D84 JUMP JUMPDEST PUSH1 0x20 DUP3 ADD SWAP1 POP SWAP2 SWAP1 POP JUMP JUMPDEST PUSH0 PUSH1 0x20 DUP3 ADD SWAP1 POP DUP2 DUP2 SUB PUSH0 DUP4 ADD MSTORE PUSH2 0x2DE5 DUP2 PUSH2 0x2DAC JUMP JUMPDEST SWAP1 POP SWAP2 SWAP1 POP JUMP JUMPDEST PUSH32 0x544947473A20696E73756666696369656E742062616C616E6365000000000000 PUSH0 DUP3 ADD MSTORE POP JUMP JUMPDEST PUSH0 PUSH2 0x2E20 PUSH1 0x1A DUP4 PUSH2 0x28EC JUMP JUMPDEST SWAP2 POP PUSH2 0x2E2B DUP3 PUSH2 0x2DEC JUMP JUMPDEST PUSH1 0x20 DUP3 ADD SWAP1 POP SWAP2 SWAP1 POP JUMP JUMPDEST PUSH0 PUSH1 0x20 DUP3 ADD SWAP1 POP DUP2 DUP2 SUB PUSH0 DUP4 ADD MSTORE PUSH2 0x2E4D DUP2 PUSH2 0x2E14 JUMP JUMPDEST SWAP1 POP SWAP2 SWAP1 POP JUMP JUMPDEST PUSH32 0x4E487B7100000000000000000000000000000000000000000000000000000000 PUSH0 MSTORE PUSH1 0x11 PUSH1 0x4 MSTORE PUSH1 0x24 PUSH0 REVERT JUMPDEST PUSH0 DUP2 PUSH1 0x1 SHR SWAP1 POP SWAP2 SWAP1 POP JUMP JUMPDEST PUSH0 DUP1 DUP3 SWAP2 POP DUP4 SWAP1 POP JUMPDEST PUSH1 0x1 DUP6 GT ISZERO PUSH2 0x2ED6 JUMPI DUP1 DUP7 DIV DUP2 GT ISZERO PUSH2 0x2EB2 JUMPI PUSH2 0x2EB1 PUSH2 0x2E54 JUMP JUMPDEST JUMPDEST PUSH1 0x1 DUP6 AND ISZERO PUSH2 0x2EC1 JUMPI DUP1 DUP3 MUL SWAP2 POP JUMPDEST DUP1 DUP2 MUL SWAP1 POP PUSH2 0x2ECF DUP6 PUSH2 0x2E81 JUMP JUMPDEST SWAP5 POP PUSH2 0x2E96 JUMP JUMPDEST SWAP5 POP SWAP5 SWAP3 POP POP POP JUMP JUMPDEST PUSH0 DUP3 PUSH2 0x2EEE JUMPI PUSH1 0x1 SWAP1 POP PUSH2 0x2FA9 JUMP JUMPDEST DUP2 PUSH2 0x2EFB JUMPI PUSH0 SWAP1 POP PUSH2 0x2FA9 JUMP JUMPDEST DUP2 PUSH1 0x1 DUP2 EQ PUSH2 0x2F11 JUMPI PUSH1 0x2 DUP2 EQ PUSH2 0x2F1B JUMPI PUSH2 0x2F4A JUMP JUMPDEST PUSH1 0x1 SWAP2 POP POP PUSH2 0x2FA9 JUMP JUMPDEST PUSH1 0xFF DUP5 GT ISZERO PUSH2 0x2F2D JUMPI PUSH2 0x2F2C PUSH2 0x2E54 JUMP JUMPDEST JUMPDEST DUP4 PUSH1 0x2 EXP SWAP2 POP DUP5 DUP3 GT ISZERO PUSH2 0x2F44 JUMPI PUSH2 0x2F43 PUSH2 0x2E54 JUMP JUMPDEST JUMPDEST POP PUSH2 0x2FA9 JUMP JUMPDEST POP PUSH1 0x20 DUP4 LT PUSH2 0x133 DUP4 LT AND PUSH1 0x4E DUP5 LT PUSH1 0xB DUP5 LT AND OR ISZERO PUSH2 0x2F7F JUMPI DUP3 DUP3 EXP SWAP1 POP DUP4 DUP2 GT ISZERO PUSH2 0x2F7A JUMPI PUSH2 0x2F79 PUSH2 0x2E54 JUMP JUMPDEST JUMPDEST PUSH2 0x2FA9 JUMP JUMPDEST PUSH2 0x2F8C DUP5 DUP5 DUP5 PUSH1 0x1 PUSH2 0x2E8D JUMP JUMPDEST SWAP3 POP SWAP1 POP DUP2 DUP5 DIV DUP2 GT ISZERO PUSH2 0x2FA3 JUMPI PUSH2 0x2FA2 PUSH2 0x2E54 JUMP JUMPDEST JUMPDEST DUP2 DUP2 MUL SWAP1 POP JUMPDEST SWAP4 SWAP3 POP POP POP JUMP JUMPDEST PUSH0 PUSH2 0x2FBA DUP3 PUSH2 0x29E6 JUMP JUMPDEST SWAP2 POP PUSH2 0x2FC5 DUP4 PUSH2 0x29E6 JUMP JUMPDEST SWAP3 POP PUSH2 0x2FF2 PUSH32 0xFFFFFFFFFFFFFFFFFFFFFFFFFFFFFFFFFFFFFFFFFFFFFFFFFFFFFFFFFFFFFFFF DUP5 DUP5 PUSH2 0x2EDF JUMP JUMPDEST SWAP1 POP SWAP3 SWAP2 POP POP JUMP JUMPDEST PUSH0 PUSH2 0x3004 DUP3 PUSH2 0x29E6 JUMP JUMPDEST SWAP2 POP PUSH2 0x300F DUP4 PUSH2 0x29E6 JUMP JUMPDEST SWAP3 POP DUP3 DUP3 MUL PUSH2 0x301D DUP2 PUSH2 0x29E6 JUMP JUMPDEST SWAP2 POP DUP3 DUP3 DIV DUP5 EQ DUP4 ISZERO OR PUSH2 0x3034 JUMPI PUSH2 0x3033 PUSH2 0x2E54 JUMP JUMPDEST JUMPDEST POP SWAP3 SWAP2 POP POP JUMP JUMPDEST PUSH32 0x544947473A20656D657267656E63792073746F70706564000000000000000000 PUSH0 DUP3 ADD MSTORE POP JUMP JUMPDEST PUSH0 PUSH2 0x306F PUSH1 0x17 DUP4 PUSH2 0x28EC JUMP JUMPDEST SWAP2 POP PUSH2 0x307A DUP3 PUSH2 0x303B JUMP JUMPDEST PUSH1 0x20 DUP3 ADD SWAP1 POP SWAP2 SWAP1 POP JUMP JUMPDEST PUSH0 PUSH1 0x20 DUP3 ADD SWAP1 POP DUP2 DUP2 SUB PUSH0 DUP4 ADD MSTORE PUSH2 0x309C DUP2 PUSH2 0x3063 JUMP JUMPDEST SWAP1 POP SWAP2 SWAP1 POP JUMP JUMPDEST PUSH32 0x544947473A206E6F207363686564756C6564206D696E7473206C656674000000 PUSH0 DUP3 ADD MSTORE POP JUMP JUMPDEST PUSH0 PUSH2 0x30D7 PUSH1 0x1D DUP4 PUSH2 0x28EC JUMP JUMPDEST SWAP2 POP PUSH2 0x30E2 DUP3 PUSH2 0x30A3 JUMP JUMPDEST PUSH1 0x20 DUP3 ADD SWAP1 POP SWAP2 SWAP1 POP JUMP JUMPDEST PUSH0 PUSH1 0x20 DUP3 ADD SWAP1 POP DUP2 DUP2 SUB PUSH0 DUP4 ADD MSTORE PUSH2 0x3104 DUP2 PUSH2 0x30CB JUMP JUMPDEST SWAP1 POP SWAP2 SWAP1 POP JUMP JUMPDEST PUSH32 0x4E487B7100000000000000000000000000000000000000000000000000000000 PUSH0 MSTORE PUSH1 0x32 PUSH1 0x4 MSTORE PUSH1 0x24 PUSH0 REVERT JUMPDEST PUSH32 0x544947473A207363686564756C6564206D696E74206E6F742079657420617661 PUSH0 DUP3 ADD MSTORE PUSH32 0x696C61626C650000000000000000000000000000000000000000000000000000 PUSH1 0x20 DUP3 ADD MSTORE POP JUMP JUMPDEST PUSH0 PUSH2 0x3192 PUSH1 0x26 DUP4 PUSH2 0x28EC JUMP JUMPDEST SWAP2 POP PUSH2 0x319D DUP3 PUSH2 0x3138 JUMP JUMPDEST PUSH1 0x40 DUP3 ADD SWAP1 POP SWAP2 SWAP1 POP JUMP JUMPDEST PUSH0 PUSH1 0x20 DUP3 ADD SWAP1 POP DUP2 DUP2 SUB PUSH0 DUP4 ADD MSTORE PUSH2 0x31BF DUP2 PUSH2 0x3186 JUMP JUMPDEST SWAP1 POP SWAP2 SWAP1 POP JUMP JUMPDEST PUSH0 PUSH2 0x31D0 DUP3 PUSH2 0x29E6 JUMP JUMPDEST SWAP2 POP PUSH2 0x31DB DUP4 PUSH2 0x29E6 JUMP JUMPDEST SWAP3 POP DUP3 DUP3 ADD SWAP1 POP DUP1 DUP3 GT ISZERO PUSH2 0x31F3 JUMPI PUSH2 0x31F2 PUSH2 0x2E54 JUMP JUMPDEST JUMPDEST SWAP3 SWAP2 POP POP JUMP JUMPDEST PUSH32 0x544947473A206D617820737570706C7920657863656564656400000000000000 PUSH0 DUP3 ADD MSTORE POP JUMP JUMPDEST PUSH0 PUSH2 0x322D PUSH1 0x19 DUP4 PUSH2 0x28EC JUMP JUMPDEST SWAP2 POP PUSH2 0x3238 DUP3 PUSH2 0x31F9 JUMP JUMPDEST PUSH1 0x20 DUP3 ADD SWAP1 POP SWAP2 SWAP1 POP JUMP JUMPDEST PUSH0 PUSH1 0x20 DUP3 ADD SWAP1 POP DUP2 DUP2 SUB PUSH0 DUP4 ADD MSTORE PUSH2 0x325A DUP2 PUSH2 0x3221 JUMP JUMPDEST SWAP1 POP SWAP2 SWAP1 POP JUMP JUMPDEST PUSH0 PUSH1 0x60 DUP3 ADD SWAP1 POP PUSH2 0x3274 PUSH0 DUP4 ADD DUP7 PUSH2 0x2AD0 JUMP JUMPDEST PUSH2 0x3281 PUSH1 0x20 DUP4 ADD DUP6 PUSH2 0x2AD0 JUMP JUMPDEST PUSH2 0x328E PUSH1 0x40 DUP4 ADD DUP5 PUSH2 0x2AD0 JUMP JUMPDEST SWAP5 SWAP4 POP POP POP POP JUMP JUMPDEST PUSH32 0x544947473A206275726E2066726F6D207A65726F000000000000000000000000 PUSH0 DUP3 ADD MSTORE POP JUMP JUMPDEST PUSH0 PUSH2 0x32CA PUSH1 0x14 DUP4 PUSH2 0x28EC JUMP JUMPDEST SWAP2 POP PUSH2 0x32D5 DUP3 PUSH2 0x3296 JUMP JUMPDEST PUSH1 0x20 DUP3 ADD SWAP1 POP SWAP2 SWAP1 POP JUMP JUMPDEST PUSH0 PUSH1 0x20 DUP3 ADD SWAP1 POP DUP2 DUP2 SUB PUSH0 DUP4 ADD MSTORE PUSH2 0x32F7 DUP2 PUSH2 0x32BE JUMP JUMPDEST SWAP1 POP SWAP2 SWAP1 POP JUMP JUMPDEST PUSH0 PUSH2 0x3308 DUP3 PUSH2 0x29E6 JUMP JUMPDEST SWAP2 POP PUSH2 0x3313 DUP4 PUSH2 0x29E6 JUMP JUMPDEST SWAP3 POP DUP3 DUP3 SUB SWAP1 POP DUP2 DUP2 GT ISZERO PUSH2 0x332B JUMPI PUSH2 0x332A PUSH2 0x2E54 JUMP JUMPDEST JUMPDEST SWAP3 SWAP2 POP POP JUMP JUMPDEST PUSH32 0x544947473A206D696E7420746F207A65726F0000000000000000000000000000 PUSH0 DUP3 ADD MSTORE POP JUMP JUMPDEST PUSH0 PUSH2 0x3365 PUSH1 0x12 DUP4 PUSH2 0x28EC JUMP JUMPDEST SWAP2 POP PUSH2 0x3370 DUP3 PUSH2 0x3331 JUMP JUMPDEST PUSH1 0x20 DUP3 ADD SWAP1 POP SWAP2 SWAP1 POP JUMP JUMPDEST PUSH0 PUSH1 0x20 DUP3 ADD SWAP1 POP DUP2 DUP2 SUB PUSH0 DUP4 ADD MSTORE PUSH2 0x3392 DUP2 PUSH2 0x3359 JUMP JUMPDEST SWAP1 POP SWAP2 SWAP1 POP JUMP JUMPDEST PUSH32 0x544947473A207A65726F2062616C616E63650000000000000000000000000000 PUSH0 DUP3 ADD MSTORE POP JUMP JUMPDEST PUSH0 PUSH2 0x33CD PUSH1 0x12 DUP4 PUSH2 0x28EC JUMP JUMPDEST SWAP2 POP PUSH2 0x33D8 DUP3 PUSH2 0x3399 JUMP JUMPDEST PUSH1 0x20 DUP3 ADD SWAP1 POP SWAP2 SWAP1 POP JUMP JUMPDEST PUSH0 PUSH1 0x20 DUP3 ADD SWAP1 POP DUP2 DUP2 SUB PUSH0 DUP4 ADD MSTORE PUSH2 0x33FA DUP2 PUSH2 0x33C1 JUMP JUMPDEST SWAP1 POP SWAP2 SWAP1 POP JUMP JUMPDEST PUSH0 DUP2 MLOAD SWAP1 POP PUSH2 0x340F DUP2 PUSH2 0x29EF JUMP JUMPDEST SWAP3 SWAP2 POP POP JUMP JUMPDEST PUSH0 PUSH1 0x20 DUP3 DUP5 SUB SLT ISZERO PUSH2 0x342A JUMPI PUSH2 0x3429 PUSH2 0x282B JUMP JUMPDEST JUMPDEST PUSH0 PUSH2 0x3437 DUP5 DUP3 DUP6 ADD PUSH2 0x3401 JUMP JUMPDEST SWAP2 POP POP SWAP3 SWAP2 POP POP JUMP JUMPDEST PUSH0 PUSH1 0x60 DUP3 ADD SWAP1 POP PUSH2 0x3453 PUSH0 DUP4 ADD DUP7 PUSH2 0x2C96 JUMP JUMPDEST PUSH2 0x3460 PUSH1 0x20 DUP4 ADD DUP6 PUSH2 0x2AD0 JUMP JUMPDEST PUSH2 0x346D PUSH1 0x40 DUP4 ADD DUP5 PUSH2 0x2AD0 JUMP JUMPDEST SWAP5 SWAP4 POP POP POP POP JUMP JUMPDEST PUSH0 PUSH1 0x40 DUP3 ADD SWAP1 POP PUSH2 0x3488 PUSH0 DUP4 ADD DUP6 PUSH2 0x2C96 JUMP JUMPDEST PUSH2 0x3495 PUSH1 0x20 DUP4 ADD DUP5 PUSH2 0x2AD0 JUMP JUMPDEST SWAP4 SWAP3 POP POP POP JUMP JUMPDEST PUSH0 PUSH1 0x40 DUP3 ADD SWAP1 POP PUSH2 0x34AF PUSH0 DUP4 ADD DUP6 PUSH2 0x2C96 JUMP JUMPDEST PUSH2 0x34BC PUSH1 0x20 DUP4 ADD DUP5 PUSH2 0x2BA6 JUMP JUMPDEST SWAP4 SWAP3 POP POP POP JUMP INVALID LOG2 PUSH5 0x6970667358 0x22 SLT KECCAK256 DUP7 ISZERO SWAP8 PUSH12 0xA76C49DE2A54CD95E45F97AB 0x4F 0xC7 0xA8 0xC8 0xAB 0xE4 0xB9 0x2B 0x29 0xD1 STOP SDIV CALL 0x2D 0xCF 0x25 PUSH5 0x736F6C6343 STOP ADDMOD XOR STOP CALLER "
	},
	"Assembly": ".code\n  PUSH 80\t\t\tntract TIGGCOIN is ERC20, Acce...\n  PUSH 40\t\t\tntract TIGGCOIN is ERC20, Acce...\n  MSTORE \t\t\tntract TIGGCOIN is ERC20, Acce...\n  PUSH 0\t\t\t \n  PUSH 8\t\t\tnt256 public nextMintIndex = 0...\n  SSTORE \t\t\tnt256 public nextMintIndex = 0...\n  PUSH 0\t\t\tlse;\\r\n  PUSH 9\t\t\tol public emergencyStopped = f...\n  PUSH 0\t\t\tol public emergencyStopped = f...\n  PUSH 100\t\t\tol public emergencyStopped = f...\n  EXP \t\t\tol public emergencyStopped = f...\n  DUP2 \t\t\tol public emergencyStopped = f...\n  SLOAD \t\t\tol public emergencyStopped = f...\n  DUP2 \t\t\tol public emergencyStopped = f...\n  PUSH FF\t\t\tol public emergencyStopped = f...\n  MUL \t\t\tol public emergencyStopped = f...\n  NOT \t\t\tol public emergencyStopped = f...\n  AND \t\t\tol public emergencyStopped = f...\n  SWAP1 \t\t\tol public emergencyStopped = f...\n  DUP4 \t\t\tol public emergencyStopped = f...\n  ISZERO \t\t\tol public emergencyStopped = f...\n  ISZERO \t\t\tol public emergencyStopped = f...\n  MUL \t\t\tol public emergencyStopped = f...\n  OR \t\t\tol public emergencyStopped = f...\n  SWAP1 \t\t\tol public emergencyStopped = f...\n  SSTORE \t\t\tol public emergencyStopped = f...\n  POP \t\t\tol public emergencyStopped = f...\n  CALLVALUE \t\t\tnstructor() ERC20(\"TIGGCOIN\", ...\n  DUP1 \t\t\tnstructor() ERC20(\"TIGGCOIN\", ...\n  ISZERO \t\t\tnstructor() ERC20(\"TIGGCOIN\", ...\n  PUSH [tag] 1\t\t\tnstructor() ERC20(\"TIGGCOIN\", ...\n  JUMPI \t\t\tnstructor() ERC20(\"TIGGCOIN\", ...\n  PUSH 0\t\t\tnstructor() ERC20(\"TIGGCOIN\", ...\n  DUP1 \t\t\tnstructor() ERC20(\"TIGGCOIN\", ...\n  REVERT \t\t\tnstructor() ERC20(\"TIGGCOIN\", ...\ntag 1\t\t\tnstructor() ERC20(\"TIGGCOIN\", ...\n  JUMPDEST \t\t\tnstructor() ERC20(\"TIGGCOIN\", ...\n  POP \t\t\tnstructor() ERC20(\"TIGGCOIN\", ...\n  CALLER \t\t\tg.sender) \n  PUSH 40\t\t\tuled mint timestamps (30 Sep 0...\n  MLOAD \t\t\tuled mint timestamps (30 Sep 0...\n  DUP1 \t\t\tuled mint timestamps (30 Sep 0...\n  PUSH 40\t\t\tuled mint timestamps (30 Sep 0...\n  ADD \t\t\tuled mint timestamps (30 Sep 0...\n  PUSH 40\t\t\tuled mint timestamps (30 Sep 0...\n  MSTORE \t\t\tuled mint timestamps (30 Sep 0...\n  DUP1 \t\t\tuled mint timestamps (30 Sep 0...\n  PUSH 8\t\t\tuled mint timestamps (30 Sep 0...\n  DUP2 \t\t\tuled mint timestamps (30 Sep 0...\n  MSTORE \t\t\tuled mint timestamps (30 Sep 0...\n  PUSH 20\t\t\tuled mint timestamps (30 Sep 0...\n  ADD \t\t\tuled mint timestamps (30 Sep 0...\n  PUSH 54494747434F494E000000000000000000000000000000000000000000000000\t\t\tuled mint timestamps (30 Sep 0...\n  DUP2 \t\t\tuled mint timestamps (30 Sep 0...\n  MSTORE \t\t\tuled mint timestamps (30 Sep 0...\n  POP \t\t\tuled mint timestamps (30 Sep 0...\n  PUSH 40\t\t\tuled mint timestamps (30 Sep 0...\n  MLOAD \t\t\tuled mint timestamps (30 Sep 0...\n  DUP1 \t\t\tuled mint timestamps (30 Sep 0...\n  PUSH 40\t\t\tuled mint timestamps (30 Sep 0...\n  ADD \t\t\tuled mint timestamps (30 Sep 0...\n  PUSH 40\t\t\tuled mint timestamps (30 Sep 0...\n  MSTORE \t\t\tuled mint timestamps (30 Sep 0...\n  DUP1 \t\t\tuled mint timestamps (30 Sep 0...\n  PUSH 4\t\t\tuled mint timestamps (30 Sep 0...\n  DUP2 \t\t\tuled mint timestamps (30 Sep 0...\n  MSTORE \t\t\tuled mint timestamps (30 Sep 0...\n  PUSH 20\t\t\tuled mint timestamps (30 Sep 0...\n  ADD \t\t\tuled mint timestamps (30 Sep 0...\n  PUSH 5449474700000000000000000000000000000000000000000000000000000000\t\t\tuled mint timestamps (30 Sep 0...\n  DUP2 \t\t\tuled mint timestamps (30 Sep 0...\n  MSTORE \t\t\tuled mint timestamps (30 Sep 0...\n  POP \t\t\tuled mint timestamps (30 Sep 0...\n  DUP2 \t\t\t  // \n  PUSH 3\t\t\t030)\\r\n  SWAP1 \t\t\t030)\\r\\n    // \n  DUP2 \t\t\t030)\\r\\n    // \n  PUSH [tag] 6\t\t\t030)\\r\\n    // \n  SWAP2 \t\t\t030)\\r\\n    // \n  SWAP1 \t\t\t030)\\r\\n    // \n  PUSH [tag] 7\t\t\t030)\\r\\n    // \n  JUMP \t\t\t030)\\r\\n    // \ntag 6\t\t\t030)\\r\\n    // \n  JUMPDEST \t\t\t030)\\r\\n    // \n  POP \t\t\t030)\\r\\n    // \n  DUP1 \t\t\ttamps (\n  PUSH 4\t\t\tUNIX ti\n  SWAP1 \t\t\tUNIX timestamps (\n  DUP2 \t\t\tUNIX timestamps (\n  PUSH [tag] 8\t\t\tUNIX timestamps (\n  SWAP2 \t\t\tUNIX timestamps (\n  SWAP1 \t\t\tUNIX timestamps (\n  PUSH [tag] 7\t\t\tUNIX timestamps (\n  JUMP \t\t\tUNIX timestamps (\ntag 8\t\t\tUNIX timestamps (\n  JUMPDEST \t\t\tUNIX timestamps (\n  POP \t\t\tUNIX timestamps (\n  POP \t\t\tuled mint timestamps (30 Sep 0...\n  POP \t\t\tuled mint timestamps (30 Sep 0...\n  PUSH 0\t\t\tP\n  PUSH FFFFFFFFFFFFFFFFFFFFFFFFFFFFFFFFFFFFFFFF\t\t\tblic constant INITIAL_SUPP\n  AND \t\t\tblic constant INITIAL_SUPP\n  DUP2 \t\t\tblic constan\n  PUSH FFFFFFFFFFFFFFFFFFFFFFFFFFFFFFFFFFFFFFFF\t\t\tblic constant INITIAL_SUPP\n  AND \t\t\tblic constant INITIAL_SUPP\n  SUB \t\t\tblic constant INITIAL_SUPP\n  PUSH [tag] 10\t\t\t6 public constant INITIAL_SUPP...\n  JUMPI \t\t\t6 public constant INITIAL_SUPP...\n  PUSH 0\t\t\t \n  PUSH 40\t\t\t0 ** uint256(_DECIMALS)); // 1...\n  MLOAD \t\t\t0 ** uint256(_DECIMALS)); // 1...\n  PUSH 1E4FBDF700000000000000000000000000000000000000000000000000000000\t\t\t0 ** uint256(_DECIMALS)); // 1...\n  DUP2 \t\t\t0 ** uint256(_DECIMALS)); // 1...\n  MSTORE \t\t\t0 ** uint256(_DECIMALS)); // 1...\n  PUSH 4\t\t\t0 ** uint256(_DECIMALS)); // 1...\n  ADD \t\t\t0 ** uint256(_DECIMALS)); // 1...\n  PUSH [tag] 11\t\t\t0 ** uint256(_DECIMALS)); // 1...\n  SWAP2 \t\t\t0 ** uint256(_DECIMALS)); // 1...\n  SWAP1 \t\t\t0 ** uint256(_DECIMALS)); // 1...\n  PUSH [tag] 12\t\t\t0 ** uint256(_DECIMALS)); // 1...\n  JUMP \t\t\t0 ** uint256(_DECIMALS)); // 1...\ntag 11\t\t\t0 ** uint256(_DECIMALS)); // 1...\n  JUMPDEST \t\t\t0 ** uint256(_DECIMALS)); // 1...\n  PUSH 40\t\t\t0 ** uint256(_DECIMALS)); // 1...\n  MLOAD \t\t\t0 ** uint256(_DECIMALS)); // 1...\n  DUP1 \t\t\t0 ** uint256(_DECIMALS)); // 1...\n  SWAP2 \t\t\t0 ** uint256(_DECIMALS)); // 1...\n  SUB \t\t\t0 ** uint256(_DECIMALS)); // 1...\n  SWAP1 \t\t\t0 ** uint256(_DECIMALS)); // 1...\n  REVERT \t\t\t0 ** uint256(_DECIMALS)); // 1...\ntag 10\t\t\t6 public constant INITIAL_SUPP...\n  JUMPDEST \t\t\t6 public constant INITIAL_SUPP...\n  PUSH [tag] 13\t\t\t constant TRANCHE_AMOUNT = 1_0...\n  DUP2 \t\t\tMOUNT = 1_00\n  PUSH [tag] 14\t\t\t constant TRANCHE_\n  PUSH 20\t\t\t constant TRANCHE_\n  SHL \t\t\t constant TRANCHE_\n  PUSH 20\t\t\t constant TRANCHE_AMOUNT = 1_0...\n  SHR \t\t\t constant TRANCHE_AMOUNT = 1_0...\n  JUMP \t\t\t constant TRANCHE_AMOUNT = 1_0...\ntag 13\t\t\t constant TRANCHE_AMOUNT = 1_0...\n  JUMPDEST \t\t\t constant TRANCHE_AMOUNT = 1_0...\n  POP \t\t\tivate constant _DECIMALS = 18;...\n  PUSH [tag] 16\t\t\trantRole(DEFAULT_ADMIN_ROLE, _...\n  PUSH 0\t\t\tamou\n  DUP1 \t\t\tFAULT_ADMIN_ROLE, \n  SHL \t\t\tFAULT_ADMIN_ROLE, \n  PUSH [tag] 17\t\t\tsgSender());\n  PUSH [tag] 18\t\t\tsgSender()\n  PUSH 20\t\t\tsgSender()\n  SHL \t\t\tsgSender()\n  PUSH 20\t\t\tsgSender());\n  SHR \t\t\tsgSender());\n  JUMP \t\t\tsgSender());\ntag 17\t\t\tsgSender());\n  JUMPDEST \t\t\tsgSender());\n  PUSH [tag] 19\t\t\trantRole(D\n  PUSH 20\t\t\trantRole(D\n  SHL \t\t\trantRole(D\n  PUSH 20\t\t\trantRole(DEFAULT_ADMIN_ROLE, _...\n  SHR \t\t\trantRole(DEFAULT_ADMIN_ROLE, _...\n  JUMP \t\t\trantRole(DEFAULT_ADMIN_ROLE, _...\ntag 16\t\t\trantRole(DEFAULT_ADMIN_ROLE, _...\n  JUMPDEST \t\t\trantRole(DEFAULT_ADMIN_ROLE, _...\n  POP \t\t\trantRole(DEFAULT_ADMIN_ROLE, _...\n  PUSH [tag] 20\t\t\trantRole(MINTER_ROLE, _msgSend...\n  PUSH 9F2DF0FED2C77648DE5860A4CC508CD0818C85B8B8A1AB4CEEEF8D981C8956A6\t\t\tccak256(\"MINTER_ROLE\");\\r\n  PUSH [tag] 21\t\t\tsgSender());\n  PUSH [tag] 18\t\t\tsgSender()\n  PUSH 20\t\t\tsgSender()\n  SHL \t\t\tsgSender()\n  PUSH 20\t\t\tsgSender());\n  SHR \t\t\tsgSender());\n  JUMP \t\t\tsgSender());\ntag 21\t\t\tsgSender());\n  JUMPDEST \t\t\tsgSender());\n  PUSH [tag] 19\t\t\trantRole(M\n  PUSH 20\t\t\trantRole(M\n  SHL \t\t\trantRole(M\n  PUSH 20\t\t\trantRole(MINTER_ROLE, _msgSend...\n  SHR \t\t\trantRole(MINTER_ROLE, _msgSend...\n  JUMP \t\t\trantRole(MINTER_ROLE, _msgSend...\ntag 20\t\t\trantRole(MINTER_ROLE, _msgSend...\n  JUMPDEST \t\t\trantRole(MINTER_ROLE, _msgSend...\n  POP \t\t\trantRole(MINTER_ROLE, _msgSend...\n  PUSH [tag] 22\t\t\trantRole(BRIDGE_ROLE, _msgSend...\n  PUSH 52BA824BFABC2BCFCDF7F0EDBB486EBB05E1836C90E78047EFEB949990F72E5F\t\t\tccak256(\"BRIDGE_ROLE\");\\r\n  PUSH [tag] 23\t\t\tsgSender());\n  PUSH [tag] 18\t\t\tsgSender()\n  PUSH 20\t\t\tsgSender()\n  SHL \t\t\tsgSender()\n  PUSH 20\t\t\tsgSender());\n  SHR \t\t\tsgSender());\n  JUMP \t\t\tsgSender());\ntag 23\t\t\tsgSender());\n  JUMPDEST \t\t\tsgSender());\n  PUSH [tag] 19\t\t\trantRole(B\n  PUSH 20\t\t\trantRole(B\n  SHL \t\t\trantRole(B\n  PUSH 20\t\t\trantRole(BRIDGE_ROLE, _msgSend...\n  SHR \t\t\trantRole(BRIDGE_ROLE, _msgSend...\n  JUMP \t\t\trantRole(BRIDGE_ROLE, _msgSend...\ntag 22\t\t\trantRole(BRIDGE_ROLE, _msgSend...\n  JUMPDEST \t\t\trantRole(BRIDGE_ROLE, _msgSend...\n  POP \t\t\trantRole(BRIDGE_ROLE, _msgSend...\n  PUSH [tag] 24\t\t\tint(_msgSender(), INITIAL_SUPP...\n  PUSH [tag] 25\t\t\tsgSender(), \n  PUSH [tag] 18\t\t\tsgSender()\n  PUSH 20\t\t\tsgSender()\n  SHL \t\t\tsgSender()\n  PUSH 20\t\t\tsgSender(), \n  SHR \t\t\tsgSender(), \n  JUMP \t\t\tsgSender(), \ntag 25\t\t\tsgSender(), \n  JUMPDEST \t\t\tsgSender(), \n  PUSH 12\t\t\t;\\r\n  PUSH FF\t\t\tnt256(_DECIMALS));\n  AND \t\t\tnt256(_DECIMALS));\n  PUSH A\t\t\t *\n  PUSH [tag] 26\t\t\t ** uint256(_DECIMALS));\n  SWAP2 \t\t\t ** uint256(_DECIMALS));\n  SWAP1 \t\t\t ** uint256(_DECIMALS));\n  PUSH [tag] 27\t\t\t ** uint256(_DECIMALS));\n  JUMP \t\t\t ** uint256(_DECIMALS));\ntag 26\t\t\t ** uint256(_DECIMALS));\n  JUMPDEST \t\t\t ** uint256(_DECIMALS));\n  PUSH 3B9ACA00\t\t\t000_000_000 *\n  PUSH [tag] 28\t\t\t000_000_000 * (10 ** uint256(_...\n  SWAP2 \t\t\t000_000_000 * (10 ** uint256(_...\n  SWAP1 \t\t\t000_000_000 * (10 ** uint256(_...\n  PUSH [tag] 29\t\t\t000_000_000 * (10 ** uint256(_...\n  JUMP \t\t\t000_000_000 * (10 ** uint256(_...\ntag 28\t\t\t000_000_000 * (10 ** uint256(_...\n  JUMPDEST \t\t\t000_000_000 * (10 ** uint256(_...\n  PUSH [tag] 30\t\t\tint(_\n  PUSH 20\t\t\tint(_\n  SHL \t\t\tint(_\n  PUSH 20\t\t\tint(_msgSender(), INITIAL_SUPP...\n  SHR \t\t\tint(_msgSender(), INITIAL_SUPP...\n  JUMP \t\t\tint(_msgSender(), INITIAL_SUPP...\ntag 24\t\t\tint(_msgSender(), INITIAL_SUPP...\n  JUMPDEST \t\t\tint(_msgSender(), INITIAL_SUPP...\n  PUSH 7\t\t\theduledMints.p\n  PUSH 72427080\t\t\t16956800);\n  SWAP1 \t\t\theduledMints.push(1916956800);...\n  DUP1 \t\t\theduledMints.push(1916956800);...\n  PUSH 1\t\t\theduledMints.push(1916956800);...\n  DUP2 \t\t\theduledMints.push(1916956800);...\n  SLOAD \t\t\theduledMints.push(1916956800);...\n  ADD \t\t\theduledMints.push(1916956800);...\n  DUP1 \t\t\theduledMints.push(1916956800);...\n  DUP3 \t\t\theduledMints.push(1916956800);...\n  SSTORE \t\t\theduledMints.push(1916956800);...\n  DUP1 \t\t\theduledMints.push(1916956800);...\n  SWAP2 \t\t\theduledMints.push(1916956800);...\n  POP \t\t\theduledMints.push(1916956800);...\n  POP \t\t\theduledMints.push(1916956800);...\n  PUSH 1\t\t\theduledMints.push(1916956800);...\n  SWAP1 \t\t\theduledMints.push(1916956800);...\n  SUB \t\t\theduledMints.push(1916956800);...\n  SWAP1 \t\t\theduledMints.push(1916956800);...\n  PUSH 0\t\t\theduledMints.push(1916956800);...\n  MSTORE \t\t\theduledMints.push(1916956800);...\n  PUSH 20\t\t\theduledMints.push(1916956800);...\n  PUSH 0\t\t\theduledMints.push(1916956800);...\n  KECCAK256 \t\t\theduledMints.push(1916956800);...\n  ADD \t\t\theduledMints.push(1916956800);...\n  PUSH 0\t\t\theduledMints.push(1916956800);...\n  SWAP1 \t\t\theduledMints.push(1916956800);...\n  SWAP2 \t\t\theduledMints.push(1916956800);...\n  SWAP1 \t\t\theduledMints.push(1916956800);...\n  SWAP2 \t\t\theduledMints.push(1916956800);...\n  SWAP1 \t\t\theduledMints.push(1916956800);...\n  SWAP2 \t\t\theduledMints.push(1916956800);...\n  POP \t\t\theduledMints.push(1916956800);...\n  SSTORE \t\t\theduledMints.push(1916956800);...\n  PUSH 7\t\t\theduledMints.p\n  PUSH 7BA9C380\t\t\t74723200);\n  SWAP1 \t\t\theduledMints.push(2074723200);...\n  DUP1 \t\t\theduledMints.push(2074723200);...\n  PUSH 1\t\t\theduledMints.push(2074723200);...\n  DUP2 \t\t\theduledMints.push(2074723200);...\n  SLOAD \t\t\theduledMints.push(2074723200);...\n  ADD \t\t\theduledMints.push(2074723200);...\n  DUP1 \t\t\theduledMints.push(2074723200);...\n  DUP3 \t\t\theduledMints.push(2074723200);...\n  SSTORE \t\t\theduledMints.push(2074723200);...\n  DUP1 \t\t\theduledMints.push(2074723200);...\n  SWAP2 \t\t\theduledMints.push(2074723200);...\n  POP \t\t\theduledMints.push(2074723200);...\n  POP \t\t\theduledMints.push(2074723200);...\n  PUSH 1\t\t\theduledMints.push(2074723200);...\n  SWAP1 \t\t\theduledMints.push(2074723200);...\n  SUB \t\t\theduledMints.push(2074723200);...\n  SWAP1 \t\t\theduledMints.push(2074723200);...\n  PUSH 0\t\t\theduledMints.push(2074723200);...\n  MSTORE \t\t\theduledMints.push(2074723200);...\n  PUSH 20\t\t\theduledMints.push(2074723200);...\n  PUSH 0\t\t\theduledMints.push(2074723200);...\n  KECCAK256 \t\t\theduledMints.push(2074723200);...\n  ADD \t\t\theduledMints.push(2074723200);...\n  PUSH 0\t\t\theduledMints.push(2074723200);...\n  SWAP1 \t\t\theduledMints.push(2074723200);...\n  SWAP2 \t\t\theduledMints.push(2074723200);...\n  SWAP1 \t\t\theduledMints.push(2074723200);...\n  SWAP2 \t\t\theduledMints.push(2074723200);...\n  SWAP1 \t\t\theduledMints.push(2074723200);...\n  SWAP2 \t\t\theduledMints.push(2074723200);...\n  POP \t\t\theduledMints.push(2074723200);...\n  SSTORE \t\t\theduledMints.push(2074723200);...\n  PUSH 7\t\t\theduledMints.p\n  PUSH 85126800\t\t\t32576000);\n  SWAP1 \t\t\theduledMints.push(2232576000);...\n  DUP1 \t\t\theduledMints.push(2232576000);...\n  PUSH 1\t\t\theduledMints.push(2232576000);...\n  DUP2 \t\t\theduledMints.push(2232576000);...\n  SLOAD \t\t\theduledMints.push(2232576000);...\n  ADD \t\t\theduledMints.push(2232576000);...\n  DUP1 \t\t\theduledMints.push(2232576000);...\n  DUP3 \t\t\theduledMints.push(2232576000);...\n  SSTORE \t\t\theduledMints.push(2232576000);...\n  DUP1 \t\t\theduledMints.push(2232576000);...\n  SWAP2 \t\t\theduledMints.push(2232576000);...\n  POP \t\t\theduledMints.push(2232576000);...\n  POP \t\t\theduledMints.push(2232576000);...\n  PUSH 1\t\t\theduledMints.push(2232576000);...\n  SWAP1 \t\t\theduledMints.push(2232576000);...\n  SUB \t\t\theduledMints.push(2232576000);...\n  SWAP1 \t\t\theduledMints.push(2232576000);...\n  PUSH 0\t\t\theduledMints.push(2232576000);...\n  MSTORE \t\t\theduledMints.push(2232576000);...\n  PUSH 20\t\t\theduledMints.push(2232576000);...\n  PUSH 0\t\t\theduledMints.push(2232576000);...\n  KECCAK256 \t\t\theduledMints.push(2232576000);...\n  ADD \t\t\theduledMints.push(2232576000);...\n  PUSH 0\t\t\theduledMints.push(2232576000);...\n  SWAP1 \t\t\theduledMints.push(2232576000);...\n  SWAP2 \t\t\theduledMints.push(2232576000);...\n  SWAP1 \t\t\theduledMints.push(2232576000);...\n  SWAP2 \t\t\theduledMints.push(2232576000);...\n  SWAP1 \t\t\theduledMints.push(2232576000);...\n  SWAP2 \t\t\theduledMints.push(2232576000);...\n  POP \t\t\theduledMints.push(2232576000);...\n  SSTORE \t\t\theduledMints.push(2232576000);...\n  PUSH 7\t\t\theduledMints.p\n  PUSH 8E79BB00\t\t\t90342400);\n  SWAP1 \t\t\theduledMints.push(2390342400);...\n  DUP1 \t\t\theduledMints.push(2390342400);...\n  PUSH 1\t\t\theduledMints.push(2390342400);...\n  DUP2 \t\t\theduledMints.push(2390342400);...\n  SLOAD \t\t\theduledMints.push(2390342400);...\n  ADD \t\t\theduledMints.push(2390342400);...\n  DUP1 \t\t\theduledMints.push(2390342400);...\n  DUP3 \t\t\theduledMints.push(2390342400);...\n  SSTORE \t\t\theduledMints.push(2390342400);...\n  DUP1 \t\t\theduledMints.push(2390342400);...\n  SWAP2 \t\t\theduledMints.push(2390342400);...\n  POP \t\t\theduledMints.push(2390342400);...\n  POP \t\t\theduledMints.push(2390342400);...\n  PUSH 1\t\t\theduledMints.push(2390342400);...\n  SWAP1 \t\t\theduledMints.push(2390342400);...\n  SUB \t\t\theduledMints.push(2390342400);...\n  SWAP1 \t\t\theduledMints.push(2390342400);...\n  PUSH 0\t\t\theduledMints.push(2390342400);...\n  MSTORE \t\t\theduledMints.push(2390342400);...\n  PUSH 20\t\t\theduledMints.push(2390342400);...\n  PUSH 0\t\t\theduledMints.push(2390342400);...\n  KECCAK256 \t\t\theduledMints.push(2390342400);...\n  ADD \t\t\theduledMints.push(2390342400);...\n  PUSH 0\t\t\theduledMints.push(2390342400);...\n  SWAP1 \t\t\theduledMints.push(2390342400);...\n  SWAP2 \t\t\theduledMints.push(2390342400);...\n  SWAP1 \t\t\theduledMints.push(2390342400);...\n  SWAP2 \t\t\theduledMints.push(2390342400);...\n  SWAP1 \t\t\theduledMints.push(2390342400);...\n  SWAP2 \t\t\theduledMints.push(2390342400);...\n  POP \t\t\theduledMints.push(2390342400);...\n  SSTORE \t\t\theduledMints.push(2390342400);...\n  PUSH 7\t\t\theduledMints.p\n  PUSH 97E10E00\t\t\t48108800);\n  SWAP1 \t\t\theduledMints.push(2548108800);...\n  DUP1 \t\t\theduledMints.push(2548108800);...\n  PUSH 1\t\t\theduledMints.push(2548108800);...\n  DUP2 \t\t\theduledMints.push(2548108800);...\n  SLOAD \t\t\theduledMints.push(2548108800);...\n  ADD \t\t\theduledMints.push(2548108800);...\n  DUP1 \t\t\theduledMints.push(2548108800);...\n  DUP3 \t\t\theduledMints.push(2548108800);...\n  SSTORE \t\t\theduledMints.push(2548108800);...\n  DUP1 \t\t\theduledMints.push(2548108800);...\n  SWAP2 \t\t\theduledMints.push(2548108800);...\n  POP \t\t\theduledMints.push(2548108800);...\n  POP \t\t\theduledMints.push(2548108800);...\n  PUSH 1\t\t\theduledMints.push(2548108800);...\n  SWAP1 \t\t\theduledMints.push(2548108800);...\n  SUB \t\t\theduledMints.push(2548108800);...\n  SWAP1 \t\t\theduledMints.push(2548108800);...\n  PUSH 0\t\t\theduledMints.push(2548108800);...\n  MSTORE \t\t\theduledMints.push(2548108800);...\n  PUSH 20\t\t\theduledMints.push(2548108800);...\n  PUSH 0\t\t\theduledMints.push(2548108800);...\n  KECCAK256 \t\t\theduledMints.push(2548108800);...\n  ADD \t\t\theduledMints.push(2548108800);...\n  PUSH 0\t\t\theduledMints.push(2548108800);...\n  SWAP1 \t\t\theduledMints.push(2548108800);...\n  SWAP2 \t\t\theduledMints.push(2548108800);...\n  SWAP1 \t\t\theduledMints.push(2548108800);...\n  SWAP2 \t\t\theduledMints.push(2548108800);...\n  SWAP1 \t\t\theduledMints.push(2548108800);...\n  SWAP2 \t\t\theduledMints.push(2548108800);...\n  POP \t\t\theduledMints.push(2548108800);...\n  SSTORE \t\t\theduledMints.push(2548108800);...\n  PUSH 7\t\t\theduledMints.p\n  PUSH A1486100\t\t\t05875200);\n  SWAP1 \t\t\theduledMints.push(2705875200);...\n  DUP1 \t\t\theduledMints.push(2705875200);...\n  PUSH 1\t\t\theduledMints.push(2705875200);...\n  DUP2 \t\t\theduledMints.push(2705875200);...\n  SLOAD \t\t\theduledMints.push(2705875200);...\n  ADD \t\t\theduledMints.push(2705875200);...\n  DUP1 \t\t\theduledMints.push(2705875200);...\n  DUP3 \t\t\theduledMints.push(2705875200);...\n  SSTORE \t\t\theduledMints.push(2705875200);...\n  DUP1 \t\t\theduledMints.push(2705875200);...\n  SWAP2 \t\t\theduledMints.push(2705875200);...\n  POP \t\t\theduledMints.push(2705875200);...\n  POP \t\t\theduledMints.push(2705875200);...\n  PUSH 1\t\t\theduledMints.push(2705875200);...\n  SWAP1 \t\t\theduledMints.push(2705875200);...\n  SUB \t\t\theduledMints.push(2705875200);...\n  SWAP1 \t\t\theduledMints.push(2705875200);...\n  PUSH 0\t\t\theduledMints.push(2705875200);...\n  MSTORE \t\t\theduledMints.push(2705875200);...\n  PUSH 20\t\t\theduledMints.push(2705875200);...\n  PUSH 0\t\t\theduledMints.push(2705875200);...\n  KECCAK256 \t\t\theduledMints.push(2705875200);...\n  ADD \t\t\theduledMints.push(2705875200);...\n  PUSH 0\t\t\theduledMints.push(2705875200);...\n  SWAP1 \t\t\theduledMints.push(2705875200);...\n  SWAP2 \t\t\theduledMints.push(2705875200);...\n  SWAP1 \t\t\theduledMints.push(2705875200);...\n  SWAP2 \t\t\theduledMints.push(2705875200);...\n  SWAP1 \t\t\theduledMints.push(2705875200);...\n  SWAP2 \t\t\theduledMints.push(2705875200);...\n  POP \t\t\theduledMints.push(2705875200);...\n  SSTORE \t\t\theduledMints.push(2705875200);...\n  PUSH 7\t\t\theduledMints.p\n  PUSH AAB10580\t\t\t63728000);\n  SWAP1 \t\t\theduledMints.push(2863728000);...\n  DUP1 \t\t\theduledMints.push(2863728000);...\n  PUSH 1\t\t\theduledMints.push(2863728000);...\n  DUP2 \t\t\theduledMints.push(2863728000);...\n  SLOAD \t\t\theduledMints.push(2863728000);...\n  ADD \t\t\theduledMints.push(2863728000);...\n  DUP1 \t\t\theduledMints.push(2863728000);...\n  DUP3 \t\t\theduledMints.push(2863728000);...\n  SSTORE \t\t\theduledMints.push(2863728000);...\n  DUP1 \t\t\theduledMints.push(2863728000);...\n  SWAP2 \t\t\theduledMints.push(2863728000);...\n  POP \t\t\theduledMints.push(2863728000);...\n  POP \t\t\theduledMints.push(2863728000);...\n  PUSH 1\t\t\theduledMints.push(2863728000);...\n  SWAP1 \t\t\theduledMints.push(2863728000);...\n  SUB \t\t\theduledMints.push(2863728000);...\n  SWAP1 \t\t\theduledMints.push(2863728000);...\n  PUSH 0\t\t\theduledMints.push(2863728000);...\n  MSTORE \t\t\theduledMints.push(2863728000);...\n  PUSH 20\t\t\theduledMints.push(2863728000);...\n  PUSH 0\t\t\theduledMints.push(2863728000);...\n  KECCAK256 \t\t\theduledMints.push(2863728000);...\n  ADD \t\t\theduledMints.push(2863728000);...\n  PUSH 0\t\t\theduledMints.push(2863728000);...\n  SWAP1 \t\t\theduledMints.push(2863728000);...\n  SWAP2 \t\t\theduledMints.push(2863728000);...\n  SWAP1 \t\t\theduledMints.push(2863728000);...\n  SWAP2 \t\t\theduledMints.push(2863728000);...\n  SWAP1 \t\t\theduledMints.push(2863728000);...\n  SWAP2 \t\t\theduledMints.push(2863728000);...\n  POP \t\t\theduledMints.push(2863728000);...\n  SSTORE \t\t\theduledMints.push(2863728000);...\n  PUSH 7\t\t\theduledMints.p\n  PUSH B4185880\t\t\t21494400);\n  SWAP1 \t\t\theduledMints.push(3021494400);...\n  DUP1 \t\t\theduledMints.push(3021494400);...\n  PUSH 1\t\t\theduledMints.push(3021494400);...\n  DUP2 \t\t\theduledMints.push(3021494400);...\n  SLOAD \t\t\theduledMints.push(3021494400);...\n  ADD \t\t\theduledMints.push(3021494400);...\n  DUP1 \t\t\theduledMints.push(3021494400);...\n  DUP3 \t\t\theduledMints.push(3021494400);...\n  SSTORE \t\t\theduledMints.push(3021494400);...\n  DUP1 \t\t\theduledMints.push(3021494400);...\n  SWAP2 \t\t\theduledMints.push(3021494400);...\n  POP \t\t\theduledMints.push(3021494400);...\n  POP \t\t\theduledMints.push(3021494400);...\n  PUSH 1\t\t\theduledMints.push(3021494400);...\n  SWAP1 \t\t\theduledMints.push(3021494400);...\n  SUB \t\t\theduledMints.push(3021494400);...\n  SWAP1 \t\t\theduledMints.push(3021494400);...\n  PUSH 0\t\t\theduledMints.push(3021494400);...\n  MSTORE \t\t\theduledMints.push(3021494400);...\n  PUSH 20\t\t\theduledMints.push(3021494400);...\n  PUSH 0\t\t\theduledMints.push(3021494400);...\n  KECCAK256 \t\t\theduledMints.push(3021494400);...\n  ADD \t\t\theduledMints.push(3021494400);...\n  PUSH 0\t\t\theduledMints.push(3021494400);...\n  SWAP1 \t\t\theduledMints.push(3021494400);...\n  SWAP2 \t\t\theduledMints.push(3021494400);...\n  SWAP1 \t\t\theduledMints.push(3021494400);...\n  SWAP2 \t\t\theduledMints.push(3021494400);...\n  SWAP1 \t\t\theduledMints.push(3021494400);...\n  SWAP2 \t\t\theduledMints.push(3021494400);...\n  POP \t\t\theduledMints.push(3021494400);...\n  SSTORE \t\t\theduledMints.push(3021494400);...\n  PUSH 7\t\t\theduledMints.p\n  PUSH BD7FAB80\t\t\t79260800);\n  SWAP1 \t\t\theduledMints.push(3179260800);...\n  DUP1 \t\t\theduledMints.push(3179260800);...\n  PUSH 1\t\t\theduledMints.push(3179260800);...\n  DUP2 \t\t\theduledMints.push(3179260800);...\n  SLOAD \t\t\theduledMints.push(3179260800);...\n  ADD \t\t\theduledMints.push(3179260800);...\n  DUP1 \t\t\theduledMints.push(3179260800);...\n  DUP3 \t\t\theduledMints.push(3179260800);...\n  SSTORE \t\t\theduledMints.push(3179260800);...\n  DUP1 \t\t\theduledMints.push(3179260800);...\n  SWAP2 \t\t\theduledMints.push(3179260800);...\n  POP \t\t\theduledMints.push(3179260800);...\n  POP \t\t\theduledMints.push(3179260800);...\n  PUSH 1\t\t\theduledMints.push(3179260800);...\n  SWAP1 \t\t\theduledMints.push(3179260800);...\n  SUB \t\t\theduledMints.push(3179260800);...\n  SWAP1 \t\t\theduledMints.push(3179260800);...\n  PUSH 0\t\t\theduledMints.push(3179260800);...\n  MSTORE \t\t\theduledMints.push(3179260800);...\n  PUSH 20\t\t\theduledMints.push(3179260800);...\n  PUSH 0\t\t\theduledMints.push(3179260800);...\n  KECCAK256 \t\t\theduledMints.push(3179260800);...\n  ADD \t\t\theduledMints.push(3179260800);...\n  PUSH 0\t\t\theduledMints.push(3179260800);...\n  SWAP1 \t\t\theduledMints.push(3179260800);...\n  SWAP2 \t\t\theduledMints.push(3179260800);...\n  SWAP1 \t\t\theduledMints.push(3179260800);...\n  SWAP2 \t\t\theduledMints.push(3179260800);...\n  SWAP1 \t\t\theduledMints.push(3179260800);...\n  SWAP2 \t\t\theduledMints.push(3179260800);...\n  POP \t\t\theduledMints.push(3179260800);...\n  SSTORE \t\t\theduledMints.push(3179260800);...\n  PUSH 0\t\t\tnt256 i =\ntag 40\t\t\tr (uint256 i = 0; i < schedule...\n  JUMPDEST \t\t\tr (uint256 i = 0; i < schedule...\n  PUSH 7\t\t\theduledMints.l\n  DUP1 \t\t\theduledMints.length; \n  SLOAD \t\t\theduledMints.length; \n  SWAP1 \t\t\theduledMints.length; \n  POP \t\t\theduledMints.length; \n  DUP2 \t\t\t<\n  LT \t\t\t< scheduledMints.length; \n  ISZERO \t\t\tr (uint256 i = 0; i < schedule...\n  PUSH [tag] 41\t\t\tr (uint256 i = 0; i < schedule...\n  JUMPI \t\t\tr (uint256 i = 0; i < schedule...\n  PUSH 7\t\t\theduledMints[i\n  DUP2 \t\t\t)\n  DUP2 \t\t\theduledMints[i]);\n  SLOAD \t\t\theduledMints[i]);\n  DUP2 \t\t\theduledMints[i]);\n  LT \t\t\theduledMints[i]);\n  PUSH [tag] 43\t\t\theduledMints[i]);\n  JUMPI \t\t\theduledMints[i]);\n  PUSH [tag] 44\t\t\theduledMints[i]);\n  PUSH [tag] 45\t\t\theduledMints[i]);\n  JUMP \t\t\theduledMints[i]);\ntag 44\t\t\theduledMints[i]);\n  JUMPDEST \t\t\theduledMints[i]);\ntag 43\t\t\theduledMints[i]);\n  JUMPDEST \t\t\theduledMints[i]);\n  SWAP1 \t\t\theduledMints[i]);\n  PUSH 0\t\t\theduledMints[i]);\n  MSTORE \t\t\theduledMints[i]);\n  PUSH 20\t\t\theduledMints[i]);\n  PUSH 0\t\t\theduledMints[i]);\n  KECCAK256 \t\t\theduledMints[i]);\n  ADD \t\t\theduledMints[i]);\n  SLOAD \t\t\theduledMints[i]);\n  PUSH 12\t\t\t;\\r\n  PUSH FF\t\t\tnt256(_DECIMALS));\n  AND \t\t\tnt256(_DECIMALS));\n  PUSH A\t\t\t *\n  PUSH [tag] 47\t\t\t ** uint256(_DECIMALS));\n  SWAP2 \t\t\t ** uint256(_DECIMALS));\n  SWAP1 \t\t\t ** uint256(_DECIMALS));\n  PUSH [tag] 27\t\t\t ** uint256(_DECIMALS));\n  JUMP \t\t\t ** uint256(_DECIMALS));\ntag 47\t\t\t ** uint256(_DECIMALS));\n  JUMPDEST \t\t\t ** uint256(_DECIMALS));\n  PUSH 3B9ACA00\t\t\t000_000_000 *\n  PUSH [tag] 48\t\t\t000_000_000 * (10 ** uint256(_...\n  SWAP2 \t\t\t000_000_000 * (10 ** uint256(_...\n  SWAP1 \t\t\t000_000_000 * (10 ** uint256(_...\n  PUSH [tag] 29\t\t\t000_000_000 * (10 ** uint256(_...\n  JUMP \t\t\t000_000_000 * (10 ** uint256(_...\ntag 48\t\t\t000_000_000 * (10 ** uint256(_...\n  JUMPDEST \t\t\t000_000_000 * (10 ** uint256(_...\n  PUSH EC75C0CDD7EFCD5139001FDFFDE4379B216BA5AEF028769704362FEE1EC2D1FB\t\t\tntScheduled(TRANCHE_AMOUNT, sc...\n  PUSH 40\t\t\tntScheduled(TRANCHE_AMOUNT, sc...\n  MLOAD \t\t\tntScheduled(TRANCHE_AMOUNT, sc...\n  PUSH 40\t\t\tntScheduled(TRANCHE_AMOUNT, sc...\n  MLOAD \t\t\tntScheduled(TRANCHE_AMOUNT, sc...\n  DUP1 \t\t\tntScheduled(TRANCHE_AMOUNT, sc...\n  SWAP2 \t\t\tntScheduled(TRANCHE_AMOUNT, sc...\n  SUB \t\t\tntScheduled(TRANCHE_AMOUNT, sc...\n  SWAP1 \t\t\tntScheduled(TRANCHE_AMOUNT, sc...\n  LOG3 \t\t\tntScheduled(TRANCHE_AMOUNT, sc...\n  DUP1 \t\t\t+) \n  DUP1 \t\t\t+) \n  PUSH 1\t\t\t+) \n  ADD \t\t\t+) \n  SWAP2 \t\t\t+) \n  POP \t\t\t+) \n  POP \t\t\t+) \n  PUSH [tag] 40\t\t\tr (uint256 i = 0; i < schedule...\n  JUMP \t\t\tr (uint256 i = 0; i < schedule...\ntag 41\t\t\tr (uint256 i = 0; i < schedule...\n  JUMPDEST \t\t\tr (uint256 i = 0; i < schedule...\n  POP \t\t\tr (uint256 i = 0; i < schedule...\n  PUSH [tag] 49\t\t\tntract TIGGCOIN is ERC20, Acce...\n  JUMP \t\t\tntract TIGGCOIN is ERC20, Acce...\ntag 14\t\t\tITIAL_SUPPLY);\\r\\n\\r\\n        ...\n  JUMPDEST \t\t\tITIAL_SUPPLY);\\r\\n\\r\\n        ...\n  PUSH 0\t\t\t0:00:00 UTC ever\n  PUSH 6\t\t\t years\n  PUSH 0\t\t\t years\n  SWAP1 \t\t\t years\n  SLOAD \t\t\t years\n  SWAP1 \t\t\t years\n  PUSH 100\t\t\t years\n  EXP \t\t\t years\n  SWAP1 \t\t\t years\n  DIV \t\t\t years\n  PUSH FFFFFFFFFFFFFFFFFFFFFFFFFFFFFFFFFFFFFFFF\t\t\t years\n  AND \t\t\t years\n  SWAP1 \t\t\t0:00:00 UTC every 5 years\n  POP \t\t\t0:00:00 UTC every 5 years\n  DUP2 \t\t\t      //\n  PUSH 6\t\t\t2030)\\r\n  PUSH 0\t\t\t2030)\\r\n  PUSH 100\t\t\t2030)\\r\\n        //\n  EXP \t\t\t2030)\\r\\n        //\n  DUP2 \t\t\t2030)\\r\\n        //\n  SLOAD \t\t\t2030)\\r\\n        //\n  DUP2 \t\t\t2030)\\r\\n        //\n  PUSH FFFFFFFFFFFFFFFFFFFFFFFFFFFFFFFFFFFFFFFF\t\t\t2030)\\r\\n        //\n  MUL \t\t\t2030)\\r\\n        //\n  NOT \t\t\t2030)\\r\\n        //\n  AND \t\t\t2030)\\r\\n        //\n  SWAP1 \t\t\t2030)\\r\\n        //\n  DUP4 \t\t\t2030)\\r\\n        //\n  PUSH FFFFFFFFFFFFFFFFFFFFFFFFFFFFFFFFFFFFFFFF\t\t\t2030)\\r\\n        //\n  AND \t\t\t2030)\\r\\n        //\n  MUL \t\t\t2030)\\r\\n        //\n  OR \t\t\t2030)\\r\\n        //\n  SWAP1 \t\t\t2030)\\r\\n        //\n  SSTORE \t\t\t2030)\\r\\n        //\n  POP \t\t\t2030)\\r\\n        //\n  DUP2 \t\t\t// 2030-\n  PUSH FFFFFFFFFFFFFFFFFFFFFFFFFFFFFFFFFFFFFFFF\t\t\tps are in seconds UTC\\r\\n     ...\n  AND \t\t\tps are in seconds UTC\\r\\n     ...\n  DUP2 \t\t\t\\r\\n      \n  PUSH FFFFFFFFFFFFFFFFFFFFFFFFFFFFFFFFFFFFFFFF\t\t\tps are in seconds UTC\\r\\n     ...\n  AND \t\t\tps are in seconds UTC\\r\\n     ...\n  PUSH 8BE0079C531659141344CD1FD0A4F28419497F9722A3DAAFE3B4186F6B6457E0\t\t\tps are in seconds UTC\\r\\n     ...\n  PUSH 40\t\t\tps are in seconds UTC\\r\\n     ...\n  MLOAD \t\t\tps are in seconds UTC\\r\\n     ...\n  PUSH 40\t\t\tps are in seconds UTC\\r\\n     ...\n  MLOAD \t\t\tps are in seconds UTC\\r\\n     ...\n  DUP1 \t\t\tps are in seconds UTC\\r\\n     ...\n  SWAP2 \t\t\tps are in seconds UTC\\r\\n     ...\n  SUB \t\t\tps are in seconds UTC\\r\\n     ...\n  SWAP1 \t\t\tps are in seconds UTC\\r\\n     ...\n  LOG3 \t\t\tps are in seconds UTC\\r\\n     ...\n  POP \t\t\t (30 Sep 00:00:00 UTC every 5 ...\n  POP \t\t\tITIAL_SUPPLY);\\r\\n\\r\\n        ...\n  JUMP \t\t\tITIAL_SUPPLY);\\r\\n\\r\\n        ...\ntag 18\t\t\tder), and _update hook\\r\\n*/\\r...\n  JUMPDEST \t\t\tder), and _update hook\\r\\n*/\\r...\n  PUSH 0\t\t\tontract\n  CALLER \t\t\t.sol\";\\r\\nim\n  SWAP1 \t\t\t0/ERC20.sol\";\\r\\nim\n  POP \t\t\t0/ERC20.sol\";\\r\\nim\n  SWAP1 \t\t\tder), and _update hook\\r\\n*/\\r...\n  JUMP \t\t\tder), and _update hook\\r\\n*/\\r...\ntag 19\t\t\t\\r\\n        require(!emergency...\n  JUMPDEST \t\t\t\\r\\n        require(!emergency...\n  PUSH 0\t\t\tuire\n  PUSH [tag] 53\t\t\t0), \"TIGG: burn from z\n  DUP4 \t\t\tG: b\n  DUP4 \t\t\tn from \n  PUSH [tag] 54\t\t\t0), \"TI\n  PUSH 20\t\t\t0), \"TI\n  SHL \t\t\t0), \"TI\n  PUSH 20\t\t\t0), \"TIGG: burn from z\n  SHR \t\t\t0), \"TIGG: burn from z\n  JUMP \t\t\t0), \"TIGG: burn from z\ntag 53\t\t\t0), \"TIGG: burn from z\n  JUMPDEST \t\t\t0), \"TIGG: burn from z\n  PUSH [tag] 55\t\t\tress(0), \"TIGG: burn from zero...\n  JUMPI \t\t\tress(0), \"TIGG: burn from zero...\n  PUSH 1\t\t\temit\n  PUSH 5\t\t\t  _bur\n  PUSH 0\t\t\t  _burn(from\n  DUP6 \t\t\t(fro\n  DUP2 \t\t\t  _burn(from\n  MSTORE \t\t\t  _burn(from\n  PUSH 20\t\t\t  _burn(from\n  ADD \t\t\t  _burn(from\n  SWAP1 \t\t\t  _burn(from\n  DUP2 \t\t\t  _burn(from\n  MSTORE \t\t\t  _burn(from\n  PUSH 20\t\t\t  _burn(from\n  ADD \t\t\t  _burn(from\n  PUSH 0\t\t\t  _burn(from\n  KECCAK256 \t\t\t  _burn(from\n  PUSH 0\t\t\t  _burn(from, amount\n  ADD \t\t\t  _burn(from, amount\n  PUSH 0\t\t\t  _burn(from, amount);\\r\\n    ...\n  DUP5 \t\t\t;\\r\\n    \n  PUSH FFFFFFFFFFFFFFFFFFFFFFFFFFFFFFFFFFFFFFFF\t\t\t  _burn(from, amount);\\r\\n    ...\n  AND \t\t\t  _burn(from, amount);\\r\\n    ...\n  PUSH FFFFFFFFFFFFFFFFFFFFFFFFFFFFFFFFFFFFFFFF\t\t\t  _burn(from, amount);\\r\\n    ...\n  AND \t\t\t  _burn(from, amount);\\r\\n    ...\n  DUP2 \t\t\t  _burn(from, amount);\\r\\n    ...\n  MSTORE \t\t\t  _burn(from, amount);\\r\\n    ...\n  PUSH 20\t\t\t  _burn(from, amount);\\r\\n    ...\n  ADD \t\t\t  _burn(from, amount);\\r\\n    ...\n  SWAP1 \t\t\t  _burn(from, amount);\\r\\n    ...\n  DUP2 \t\t\t  _burn(from, amount);\\r\\n    ...\n  MSTORE \t\t\t  _burn(from, amount);\\r\\n    ...\n  PUSH 20\t\t\t  _burn(from, amount);\\r\\n    ...\n  ADD \t\t\t  _burn(from, amount);\\r\\n    ...\n  PUSH 0\t\t\t  _burn(from, amount);\\r\\n    ...\n  KECCAK256 \t\t\t  _burn(from, amount);\\r\\n    ...\n  PUSH 0\t\t\t  _burn(from, amount);\\r\\n    ...\n  PUSH 100\t\t\t  _burn(from, amount);\\r\\n    ...\n  EXP \t\t\t  _burn(from, amount);\\r\\n    ...\n  DUP2 \t\t\t  _burn(from, amount);\\r\\n    ...\n  SLOAD \t\t\t  _burn(from, amount);\\r\\n    ...\n  DUP2 \t\t\t  _burn(from, amount);\\r\\n    ...\n  PUSH FF\t\t\t  _burn(from, amount);\\r\\n    ...\n  MUL \t\t\t  _burn(from, amount);\\r\\n    ...\n  NOT \t\t\t  _burn(from, amount);\\r\\n    ...\n  AND \t\t\t  _burn(from, amount);\\r\\n    ...\n  SWAP1 \t\t\t  _burn(from, amount);\\r\\n    ...\n  DUP4 \t\t\t  _burn(from, amount);\\r\\n    ...\n  ISZERO \t\t\t  _burn(from, amount);\\r\\n    ...\n  ISZERO \t\t\t  _burn(from, amount);\\r\\n    ...\n  MUL \t\t\t  _burn(from, amount);\\r\\n    ...\n  OR \t\t\t  _burn(from, amount);\\r\\n    ...\n  SWAP1 \t\t\t  _burn(from, amount);\\r\\n    ...\n  SSTORE \t\t\t  _burn(from, amount);\\r\\n    ...\n  POP \t\t\t  _burn(from, amount);\\r\\n    ...\n  PUSH [tag] 56\t\t\t}\\r\\n\\r\\n    // \n  PUSH [tag] 18\t\t\t}\\r\\n\\r\\n    /\n  PUSH 20\t\t\t}\\r\\n\\r\\n    /\n  SHL \t\t\t}\\r\\n\\r\\n    /\n  PUSH 20\t\t\t}\\r\\n\\r\\n    // \n  SHR \t\t\t}\\r\\n\\r\\n    // \n  JUMP \t\t\t}\\r\\n\\r\\n    // \ntag 56\t\t\t}\\r\\n\\r\\n    // \n  JUMPDEST \t\t\t}\\r\\n\\r\\n    // \n  PUSH FFFFFFFFFFFFFFFFFFFFFFFFFFFFFFFFFFFFFFFF\t\t\tmount, _msgSender());\\r\\n    }...\n  AND \t\t\tmount, _msgSender());\\r\\n    }...\n  DUP3 \t\t\t));\\r\\n  \n  PUSH FFFFFFFFFFFFFFFFFFFFFFFFFFFFFFFFFFFFFFFF\t\t\tmount, _msgSender());\\r\\n    }...\n  AND \t\t\tmount, _msgSender());\\r\\n    }...\n  DUP5 \t\t\tende\n  PUSH 2F8788117E7EFF1D82E926EC794901D17C78024A50270940304540A733656F0D\t\t\tmount, _msgSender());\\r\\n    }...\n  PUSH 40\t\t\tmount, _msgSender());\\r\\n    }...\n  MLOAD \t\t\tmount, _msgSender());\\r\\n    }...\n  PUSH 40\t\t\tmount, _msgSender());\\r\\n    }...\n  MLOAD \t\t\tmount, _msgSender());\\r\\n    }...\n  DUP1 \t\t\tmount, _msgSender());\\r\\n    }...\n  SWAP2 \t\t\tmount, _msgSender());\\r\\n    }...\n  SUB \t\t\tmount, _msgSender());\\r\\n    }...\n  SWAP1 \t\t\tmount, _msgSender());\\r\\n    }...\n  LOG4 \t\t\tmount, _msgSender());\\r\\n    }...\n  PUSH 1\t\t\t\\r\\n  \n  SWAP1 \t\t\t-------\\r\\n  \n  POP \t\t\t-------\\r\\n  \n  PUSH [tag] 52\t\t\t-------\\r\\n  \n  JUMP \t\t\t-------\\r\\n  \ntag 55\t\t\tress(0), \"TIGG: burn from zero...\n  JUMPDEST \t\t\tress(0), \"TIGG: burn from zero...\n  PUSH 0\t\t\tfallb\n  SWAP1 \t\t\tB) and fallb\n  POP \t\t\tB) and fallb\ntag 52\t\t\t\\r\\n        require(!emergency...\n  JUMPDEST \t\t\t\\r\\n        require(!emergency...\n  SWAP3 \t\t\t\\r\\n        require(!emergency...\n  SWAP2 \t\t\t\\r\\n        require(!emergency...\n  POP \t\t\t\\r\\n        require(!emergency...\n  POP \t\t\t\\r\\n        require(!emergency...\n  JUMP \t\t\t\\r\\n        require(!emergency...\ntag 30\t\t\t != address(0), \"TIGG: to zero...\n  JUMPDEST \t\t\t != address(0), \"TIGG: to zero...\n  PUSH 0\t\t\t:\n  PUSH FFFFFFFFFFFFFFFFFFFFFFFFFFFFFFFFFFFFFFFF\t\t\this).balance, \"TIGG: \n  AND \t\t\this).balance, \"TIGG: \n  DUP3 \t\t\this).ba\n  PUSH FFFFFFFFFFFFFFFFFFFFFFFFFFFFFFFFFFFFFFFF\t\t\this).balance, \"TIGG: \n  AND \t\t\this).balance, \"TIGG: \n  SUB \t\t\this).balance, \"TIGG: \n  PUSH [tag] 59\t\t\tss(this).balance, \"TIGG: insuf...\n  JUMPI \t\t\tss(this).balance, \"TIGG: insuf...\n  PUSH 0\t\t\t;\n  PUSH 40\t\t\t\\r\\n        to.transfer(amount...\n  MLOAD \t\t\t\\r\\n        to.transfer(amount...\n  PUSH EC442F0500000000000000000000000000000000000000000000000000000000\t\t\t\\r\\n        to.transfer(amount...\n  DUP2 \t\t\t\\r\\n        to.transfer(amount...\n  MSTORE \t\t\t\\r\\n        to.transfer(amount...\n  PUSH 4\t\t\t\\r\\n        to.transfer(amount...\n  ADD \t\t\t\\r\\n        to.transfer(amount...\n  PUSH [tag] 60\t\t\t\\r\\n        to.transfer(amount...\n  SWAP2 \t\t\t\\r\\n        to.transfer(amount...\n  SWAP1 \t\t\t\\r\\n        to.transfer(amount...\n  PUSH [tag] 12\t\t\t\\r\\n        to.transfer(amount...\n  JUMP \t\t\t\\r\\n        to.transfer(amount...\ntag 60\t\t\t\\r\\n        to.transfer(amount...\n  JUMPDEST \t\t\t\\r\\n        to.transfer(amount...\n  PUSH 40\t\t\t\\r\\n        to.transfer(amount...\n  MLOAD \t\t\t\\r\\n        to.transfer(amount...\n  DUP1 \t\t\t\\r\\n        to.transfer(amount...\n  SWAP2 \t\t\t\\r\\n        to.transfer(amount...\n  SUB \t\t\t\\r\\n        to.transfer(amount...\n  SWAP1 \t\t\t\\r\\n        to.transfer(amount...\n  REVERT \t\t\t\\r\\n        to.transfer(amount...\ntag 59\t\t\tss(this).balance, \"TIGG: insuf...\n  JUMPDEST \t\t\tss(this).balance, \"TIGG: insuf...\n  PUSH [tag] 61\t\t\tescued(to, amount);\\r\\n    }\\r...\n  PUSH 0\t\t\tt\n  DUP4 \t\t\t\\n    }\\r\n  DUP4 \t\t\t\\n    \n  PUSH [tag] 62\t\t\tescued(\n  PUSH 20\t\t\tescued(\n  SHL \t\t\tescued(\n  PUSH 20\t\t\tescued(to, amount);\\r\\n    }\\r...\n  SHR \t\t\tescued(to, amount);\\r\\n    }\\r...\n  JUMP \t\t\tescued(to, amount);\\r\\n    }\\r...\ntag 61\t\t\tescued(to, amount);\\r\\n    }\\r...\n  JUMPDEST \t\t\tescued(to, amount);\\r\\n    }\\r...\n  POP \t\t\t != address(0), \"TIGG: to zero...\n  POP \t\t\t != address(0), \"TIGG: to zero...\n  JUMP \t\t\t != address(0), \"TIGG: to zero...\ntag 54\t\t\t());\\r\\n\\r\\n        // Mint in...\n  JUMPDEST \t\t\t());\\r\\n\\r\\n        // Mint in...\n  PUSH 0\t\t\t), I\n  PUSH 5\t\t\t      \n  PUSH 0\t\t\t        // P\n  DUP5 \t\t\t // \n  DUP2 \t\t\t        // P\n  MSTORE \t\t\t        // P\n  PUSH 20\t\t\t        // P\n  ADD \t\t\t        // P\n  SWAP1 \t\t\t        // P\n  DUP2 \t\t\t        // P\n  MSTORE \t\t\t        // P\n  PUSH 20\t\t\t        // P\n  ADD \t\t\t        // P\n  PUSH 0\t\t\t        // P\n  KECCAK256 \t\t\t        // P\n  PUSH 0\t\t\t        // Populate \n  ADD \t\t\t        // Populate \n  PUSH 0\t\t\t        // Populate scheduled\n  DUP4 \t\t\tchedule\n  PUSH FFFFFFFFFFFFFFFFFFFFFFFFFFFFFFFFFFFFFFFF\t\t\t        // Populate scheduled\n  AND \t\t\t        // Populate scheduled\n  PUSH FFFFFFFFFFFFFFFFFFFFFFFFFFFFFFFFFFFFFFFF\t\t\t        // Populate scheduled\n  AND \t\t\t        // Populate scheduled\n  DUP2 \t\t\t        // Populate scheduled\n  MSTORE \t\t\t        // Populate scheduled\n  PUSH 20\t\t\t        // Populate scheduled\n  ADD \t\t\t        // Populate scheduled\n  SWAP1 \t\t\t        // Populate scheduled\n  DUP2 \t\t\t        // Populate scheduled\n  MSTORE \t\t\t        // Populate scheduled\n  PUSH 20\t\t\t        // Populate scheduled\n  ADD \t\t\t        // Populate scheduled\n  PUSH 0\t\t\t        // Populate scheduled\n  KECCAK256 \t\t\t        // Populate scheduled\n  PUSH 0\t\t\t        // Populate scheduled\n  SWAP1 \t\t\t        // Populate scheduled\n  SLOAD \t\t\t        // Populate scheduled\n  SWAP1 \t\t\t        // Populate scheduled\n  PUSH 100\t\t\t        // Populate scheduled\n  EXP \t\t\t        // Populate scheduled\n  SWAP1 \t\t\t        // Populate scheduled\n  DIV \t\t\t        // Populate scheduled\n  PUSH FF\t\t\t        // Populate scheduled\n  AND \t\t\t        // Populate scheduled\n  SWAP1 \t\t\tY);\\r\\n\\r\\n        // Populate...\n  POP \t\t\tY);\\r\\n\\r\\n        // Populate...\n  SWAP3 \t\t\t());\\r\\n\\r\\n        // Mint in...\n  SWAP2 \t\t\t());\\r\\n\\r\\n        // Mint in...\n  POP \t\t\t());\\r\\n\\r\\n        // Mint in...\n  POP \t\t\t());\\r\\n\\r\\n        // Mint in...\n  JUMP \t\t\t());\\r\\n\\r\\n        // Mint in...\ntag 62\t\t\tnction _update(address from, a...\n  JUMPDEST \t\t\tnction _update(address from, a...\n  PUSH 9\t\t\tergencyStopped, \n  PUSH 0\t\t\tergencyStopped, \n  SWAP1 \t\t\tergencyStopped, \n  SLOAD \t\t\tergencyStopped, \n  SWAP1 \t\t\tergencyStopped, \n  PUSH 100\t\t\tergencyStopped, \n  EXP \t\t\tergencyStopped, \n  SWAP1 \t\t\tergencyStopped, \n  DIV \t\t\tergencyStopped, \n  PUSH FF\t\t\tergencyStopped, \n  AND \t\t\tergencyStopped, \n  ISZERO \t\t\tmergencyStopped, \n  PUSH [tag] 65\t\t\tquire(!emergencyStopped, \"TIGG...\n  JUMPI \t\t\tquire(!emergencyStopped, \"TIGG...\n  PUSH 40\t\t\tquire(!emergencyStopped, \"TIGG...\n  MLOAD \t\t\tquire(!emergencyStopped, \"TIGG...\n  PUSH 8C379A000000000000000000000000000000000000000000000000000000000\t\t\tquire(!emergencyStopped, \"TIGG...\n  DUP2 \t\t\tquire(!emergencyStopped, \"TIGG...\n  MSTORE \t\t\tquire(!emergencyStopped, \"TIGG...\n  PUSH 4\t\t\tquire(!emergencyStopped, \"TIGG...\n  ADD \t\t\tquire(!emergencyStopped, \"TIGG...\n  PUSH [tag] 66\t\t\tquire(!emergencyStopped, \"TIGG...\n  SWAP1 \t\t\tquire(!emergencyStopped, \"TIGG...\n  PUSH [tag] 67\t\t\tquire(!emergencyStopped, \"TIGG...\n  JUMP \t\t\tquire(!emergencyStopped, \"TIGG...\ntag 66\t\t\tquire(!emergencyStopped, \"TIGG...\n  JUMPDEST \t\t\tquire(!emergencyStopped, \"TIGG...\n  PUSH 40\t\t\tquire(!emergencyStopped, \"TIGG...\n  MLOAD \t\t\tquire(!emergencyStopped, \"TIGG...\n  DUP1 \t\t\tquire(!emergencyStopped, \"TIGG...\n  SWAP2 \t\t\tquire(!emergencyStopped, \"TIGG...\n  SUB \t\t\tquire(!emergencyStopped, \"TIGG...\n  SWAP1 \t\t\tquire(!emergencyStopped, \"TIGG...\n  REVERT \t\t\tquire(!emergencyStopped, \"TIGG...\ntag 65\t\t\tquire(!emergencyStopped, \"TIGG...\n  JUMPDEST \t\t\tquire(!emergencyStopped, \"TIGG...\n  PUSH [tag] 68\t\t\tper._update(from, to, amount);...\n  DUP4 \t\t\tom, \n  DUP4 \t\t\t, \n  DUP4 \t\t\tount);\n  PUSH [tag] 69\t\t\tper._update(f\n  PUSH 20\t\t\tper._update(f\n  SHL \t\t\tper._update(f\n  PUSH 20\t\t\tper._update(from, to, amount);...\n  SHR \t\t\tper._update(from, to, amount);...\n  JUMP \t\t\tper._update(from, to, amount);...\ntag 68\t\t\tper._update(from, to, amount);...\n  JUMPDEST \t\t\tper._update(from, to, amount);...\n  POP \t\t\tnction _update(address from, a...\n  POP \t\t\tnction _update(address from, a...\n  POP \t\t\tnction _update(address from, a...\n  JUMP \t\t\tnction _update(address from, a...\ntag 69\t\t\talSupply() + amount <= MAX_SUP...\n  JUMPDEST \t\t\talSupply() + amount <= MAX_SUP...\n  PUSH 0\t\t\tm\n  PUSH FFFFFFFFFFFFFFFFFFFFFFFFFFFFFFFFFFFFFFFF\t\t\tunt);\\r\\n        emi\n  AND \t\t\tunt);\\r\\n        emi\n  DUP4 \t\t\tunt)\n  PUSH FFFFFFFFFFFFFFFFFFFFFFFFFFFFFFFFFFFFFFFF\t\t\tunt);\\r\\n        emi\n  AND \t\t\tunt);\\r\\n        emi\n  SUB \t\t\tunt);\\r\\n        emi\n  PUSH [tag] 71\t\t\t amount);\\r\\n        emit Brid...\n  JUMPI \t\t\t amount);\\r\\n        emit Brid...\n  DUP1 \t\t\t {\\r\\n \n  PUSH 2\t\t\tole(BRIDGE_R\n  PUSH 0\t\t\tole(BRIDGE_R\n  DUP3 \t\t\tole(BRIDGE_ROLE) {\\r\\n \n  DUP3 \t\t\tole(BRIDGE_ROLE) {\\r\\n \n  SLOAD \t\t\tole(BRIDGE_ROLE) {\\r\\n \n  PUSH [tag] 72\t\t\tole(BRIDGE_ROLE) {\\r\\n \n  SWAP2 \t\t\tole(BRIDGE_ROLE) {\\r\\n \n  SWAP1 \t\t\tole(BRIDGE_ROLE) {\\r\\n \n  PUSH [tag] 73\t\t\tole(BRIDGE_ROLE) {\\r\\n \n  JUMP \t\t\tole(BRIDGE_ROLE) {\\r\\n \ntag 72\t\t\tole(BRIDGE_ROLE) {\\r\\n \n  JUMPDEST \t\t\tole(BRIDGE_ROLE) {\\r\\n \n  SWAP3 \t\t\tole(BRIDGE_ROLE) {\\r\\n \n  POP \t\t\tole(BRIDGE_ROLE) {\\r\\n \n  POP \t\t\tole(BRIDGE_ROLE) {\\r\\n \n  DUP2 \t\t\tole(BRIDGE_ROLE) {\\r\\n \n  SWAP1 \t\t\tole(BRIDGE_ROLE) {\\r\\n \n  SSTORE \t\t\tole(BRIDGE_ROLE) {\\r\\n \n  POP \t\t\tole(BRIDGE_ROLE) {\\r\\n \n  PUSH [tag] 74\t\t\t amount);\\r\\n        emit Brid...\n  JUMP \t\t\t amount);\\r\\n        emit Brid...\ntag 71\t\t\t amount);\\r\\n        emit Brid...\n  JUMPDEST \t\t\t amount);\\r\\n        emit Brid...\n  PUSH 0\t\t\td, \"TIGG: emergency\n  DUP1 \t\t\topped\");\\r\n  PUSH 0\t\t\topped\");\\r\\n     \n  DUP6 \t\t\t    \n  PUSH FFFFFFFFFFFFFFFFFFFFFFFFFFFFFFFFFFFFFFFF\t\t\topped\");\\r\\n     \n  AND \t\t\topped\");\\r\\n     \n  PUSH FFFFFFFFFFFFFFFFFFFFFFFFFFFFFFFFFFFFFFFF\t\t\topped\");\\r\\n     \n  AND \t\t\topped\");\\r\\n     \n  DUP2 \t\t\topped\");\\r\\n     \n  MSTORE \t\t\topped\");\\r\\n     \n  PUSH 20\t\t\topped\");\\r\\n     \n  ADD \t\t\topped\");\\r\\n     \n  SWAP1 \t\t\topped\");\\r\\n     \n  DUP2 \t\t\topped\");\\r\\n     \n  MSTORE \t\t\topped\");\\r\\n     \n  PUSH 20\t\t\topped\");\\r\\n     \n  ADD \t\t\topped\");\\r\\n     \n  PUSH 0\t\t\topped\");\\r\\n     \n  KECCAK256 \t\t\topped\");\\r\\n     \n  SLOAD \t\t\topped\");\\r\\n     \n  SWAP1 \t\t\td, \"TIGG: emergency stopped\");...\n  POP \t\t\td, \"TIGG: emergency stopped\");...\n  DUP2 \t\t\tTIGG:\n  DUP2 \t\t\t address(0)\n  LT \t\t\t address(0), \"TIGG:\n  ISZERO \t\t\tm != address(0), \"TIGG: burn f...\n  PUSH [tag] 75\t\t\tm != address(0), \"TIGG: burn f...\n  JUMPI \t\t\tm != address(0), \"TIGG: burn f...\n  DUP4 \t\t\t    \n  DUP2 \t\t\t  emit Brid\n  DUP4 \t\t\tBurn(\n  PUSH 40\t\t\t   _burn(from, amount);\\r\\n   ...\n  MLOAD \t\t\t   _burn(from, amount);\\r\\n   ...\n  PUSH E450D38C00000000000000000000000000000000000000000000000000000000\t\t\t   _burn(from, amount);\\r\\n   ...\n  DUP2 \t\t\t   _burn(from, amount);\\r\\n   ...\n  MSTORE \t\t\t   _burn(from, amount);\\r\\n   ...\n  PUSH 4\t\t\t   _burn(from, amount);\\r\\n   ...\n  ADD \t\t\t   _burn(from, amount);\\r\\n   ...\n  PUSH [tag] 76\t\t\t   _burn(from, amount);\\r\\n   ...\n  SWAP4 \t\t\t   _burn(from, amount);\\r\\n   ...\n  SWAP3 \t\t\t   _burn(from, amount);\\r\\n   ...\n  SWAP2 \t\t\t   _burn(from, amount);\\r\\n   ...\n  SWAP1 \t\t\t   _burn(from, amount);\\r\\n   ...\n  PUSH [tag] 77\t\t\t   _burn(from, amount);\\r\\n   ...\n  JUMP \t\t\t   _burn(from, amount);\\r\\n   ...\ntag 76\t\t\t   _burn(from, amount);\\r\\n   ...\n  JUMPDEST \t\t\t   _burn(from, amount);\\r\\n   ...\n  PUSH 40\t\t\t   _burn(from, amount);\\r\\n   ...\n  MLOAD \t\t\t   _burn(from, amount);\\r\\n   ...\n  DUP1 \t\t\t   _burn(from, amount);\\r\\n   ...\n  SWAP2 \t\t\t   _burn(from, amount);\\r\\n   ...\n  SUB \t\t\t   _burn(from, amount);\\r\\n   ...\n  SWAP1 \t\t\t   _burn(from, amount);\\r\\n   ...\n  REVERT \t\t\t   _burn(from, amount);\\r\\n   ...\ntag 75\t\t\tm != address(0), \"TIGG: burn f...\n  JUMPDEST \t\t\tm != address(0), \"TIGG: burn f...\n  DUP2 \t\t\ternal\n  DUP2 \t\t\t receive() \n  SUB \t\t\t receive() external\n  PUSH 0\t\t\t---------\n  DUP1 \t\t\t-------------\\r\\n\n  DUP7 \t\t\t---\\r\n  PUSH FFFFFFFFFFFFFFFFFFFFFFFFFFFFFFFFFFFFFFFF\t\t\t-------------\\r\\n\n  AND \t\t\t-------------\\r\\n\n  PUSH FFFFFFFFFFFFFFFFFFFFFFFFFFFFFFFFFFFFFFFF\t\t\t-------------\\r\\n\n  AND \t\t\t-------------\\r\\n\n  DUP2 \t\t\t-------------\\r\\n\n  MSTORE \t\t\t-------------\\r\\n\n  PUSH 20\t\t\t-------------\\r\\n\n  ADD \t\t\t-------------\\r\\n\n  SWAP1 \t\t\t-------------\\r\\n\n  DUP2 \t\t\t-------------\\r\\n\n  MSTORE \t\t\t-------------\\r\\n\n  PUSH 20\t\t\t-------------\\r\\n\n  ADD \t\t\t-------------\\r\\n\n  PUSH 0\t\t\t-------------\\r\\n\n  KECCAK256 \t\t\t-------------\\r\\n\n  DUP2 \t\t\t-------------\\r\\n    receive()...\n  SWAP1 \t\t\t-------------\\r\\n    receive()...\n  SSTORE \t\t\t-------------\\r\\n    receive()...\n  POP \t\t\t-------------\\r\\n    receive()...\n  POP \t\t\tmergencyStopped, \"TIGG: emerge...\ntag 74\t\t\t amount);\\r\\n        emit Brid...\n  JUMPDEST \t\t\t amount);\\r\\n        emit Brid...\n  PUSH 0\t\t\t \n  PUSH FFFFFFFFFFFFFFFFFFFFFFFFFFFFFFFFFFFFFFFF\t\t\tyable {}\\r\\n\\r\\n    \n  AND \t\t\tyable {}\\r\\n\\r\\n    \n  DUP3 \t\t\tya\n  PUSH FFFFFFFFFFFFFFFFFFFFFFFFFFFFFFFFFFFFFFFF\t\t\tyable {}\\r\\n\\r\\n    \n  AND \t\t\tyable {}\\r\\n\\r\\n    \n  SUB \t\t\tyable {}\\r\\n\\r\\n    \n  PUSH [tag] 78\t\t\tl payable {}\\r\\n\\r\\n    // ---...\n  JUMPI \t\t\tl payable {}\\r\\n\\r\\n    // ---...\n  DUP1 \t\t\t amou\n  PUSH 2\t\t\tress to, uin\n  PUSH 0\t\t\tress to, uin\n  DUP3 \t\t\tress to, uint256 amou\n  DUP3 \t\t\tress to, uint256 amou\n  SLOAD \t\t\tress to, uint256 amou\n  SUB \t\t\tress to, uint256 amou\n  SWAP3 \t\t\tress to, uint256 amou\n  POP \t\t\tress to, uint256 amou\n  POP \t\t\tress to, uint256 amou\n  DUP2 \t\t\tress to, uint256 amou\n  SWAP1 \t\t\tress to, uint256 amou\n  SSTORE \t\t\tress to, uint256 amou\n  POP \t\t\tress to, uint256 amou\n  PUSH [tag] 79\t\t\tl payable {}\\r\\n\\r\\n    // ---...\n  JUMP \t\t\tl payable {}\\r\\n\\r\\n    // ---...\ntag 78\t\t\tl payable {}\\r\\n\\r\\n    // ---...\n  JUMPDEST \t\t\tl payable {}\\r\\n\\r\\n    // ---...\n  DUP1 \t\t\tRC20(\n  PUSH 0\t\t\tnction re\n  DUP1 \t\t\tnction rescue\n  DUP5 \t\t\tcu\n  PUSH FFFFFFFFFFFFFFFFFFFFFFFFFFFFFFFFFFFFFFFF\t\t\tnction rescue\n  AND \t\t\tnction rescue\n  PUSH FFFFFFFFFFFFFFFFFFFFFFFFFFFFFFFFFFFFFFFF\t\t\tnction rescue\n  AND \t\t\tnction rescue\n  DUP2 \t\t\tnction rescue\n  MSTORE \t\t\tnction rescue\n  PUSH 20\t\t\tnction rescue\n  ADD \t\t\tnction rescue\n  SWAP1 \t\t\tnction rescue\n  DUP2 \t\t\tnction rescue\n  MSTORE \t\t\tnction rescue\n  PUSH 20\t\t\tnction rescue\n  ADD \t\t\tnction rescue\n  PUSH 0\t\t\tnction rescue\n  KECCAK256 \t\t\tnction rescue\n  PUSH 0\t\t\tnction rescue\n  DUP3 \t\t\tnction rescueAllERC20(\n  DUP3 \t\t\tnction rescueAllERC20(\n  SLOAD \t\t\tnction rescueAllERC20(\n  ADD \t\t\tnction rescueAllERC20(\n  SWAP3 \t\t\tnction rescueAllERC20(\n  POP \t\t\tnction rescueAllERC20(\n  POP \t\t\tnction rescueAllERC20(\n  DUP2 \t\t\tnction rescueAllERC20(\n  SWAP1 \t\t\tnction rescueAllERC20(\n  SSTORE \t\t\tnction rescueAllERC20(\n  POP \t\t\tnction rescueAllERC20(\ntag 79\t\t\tl payable {}\\r\\n\\r\\n    // ---...\n  JUMPDEST \t\t\tl payable {}\\r\\n\\r\\n    // ---...\n  DUP2 \t\t\t  \n  PUSH FFFFFFFFFFFFFFFFFFFFFFFFFFFFFFFFFFFFFFFF\t\t\tOwner {\\r\\n        require(\n  AND \t\t\tOwner {\\r\\n        require(\n  DUP4 \t\t\t    \n  PUSH FFFFFFFFFFFFFFFFFFFFFFFFFFFFFFFFFFFFFFFF\t\t\tOwner {\\r\\n        require(\n  AND \t\t\tOwner {\\r\\n        require(\n  PUSH DDF252AD1BE2C89B69C2B068FC378DAA952BA7F163C4A11628F55A4DF523B3EF\t\t\tOwner {\\r\\n        require(\n  DUP4 \t\t\tquire\n  PUSH 40\t\t\tOwner {\\r\\n        require(\n  MLOAD \t\t\tOwner {\\r\\n        require(\n  PUSH [tag] 80\t\t\tOwner {\\r\\n        require(\n  SWAP2 \t\t\tOwner {\\r\\n        require(\n  SWAP1 \t\t\tOwner {\\r\\n        require(\n  PUSH [tag] 81\t\t\tOwner {\\r\\n        require(\n  JUMP \t\t\tOwner {\\r\\n        require(\ntag 80\t\t\tOwner {\\r\\n        require(\n  JUMPDEST \t\t\tOwner {\\r\\n        require(\n  PUSH 40\t\t\tOwner {\\r\\n        require(\n  MLOAD \t\t\tOwner {\\r\\n        require(\n  DUP1 \t\t\tOwner {\\r\\n        require(\n  SWAP2 \t\t\tOwner {\\r\\n        require(\n  SUB \t\t\tOwner {\\r\\n        require(\n  SWAP1 \t\t\tOwner {\\r\\n        require(\n  LOG3 \t\t\tOwner {\\r\\n        require(\n  POP \t\t\talSupply() + amount <= MAX_SUP...\n  POP \t\t\talSupply() + amount <= MAX_SUP...\n  POP \t\t\talSupply() + amount <= MAX_SUP...\n  JUMP \t\t\talSupply() + amount <= MAX_SUP...\ntag 82\t\t\t-License-Identifier: MIT\\r\\npr...\n  JUMPDEST \t\t\t-License-Identifier: MIT\\r\\npr...\n  PUSH 0\t\t\t\\r\\n/*\\r\\n\n  DUP2 \t\t\tOpenZ\n  MLOAD \t\t\tINAL (OpenZe\n  SWAP1 \t\t\t$TIGG) — FINAL (OpenZe\n  POP \t\t\t$TIGG) — FINAL (OpenZe\n  SWAP2 \t\t\t-License-Identifier: MIT\\r\\npr...\n  SWAP1 \t\t\t-License-Identifier: MIT\\r\\npr...\n  POP \t\t\t-License-Identifier: MIT\\r\\npr...\n  JUMP \t\t\t-License-Identifier: MIT\\r\\npr...\ntag 83\t\t\tatterns)\\r\\n  - Chain: Binance...\n  JUMPDEST \t\t\tatterns)\\r\\n  - Chain: Binance...\n  PUSH 4E487B7100000000000000000000000000000000000000000000000000000000\t\t\tmpatible)\\r\\n  - Initial suppl...\n  PUSH 0\t\t\t \n  MSTORE \t\t\tin (EVM compatible)\\r\\n  - Ini...\n  PUSH 41\t\t\t: 10\n  PUSH 4\t\t\tp\n  MSTORE \t\t\tMax supply: 10,\n  PUSH 24\t\t\t  - \n  PUSH 0\t\t\t)\n  REVERT \t\t\t00 (10B)\\r\\n  - D\ntag 84\t\t\t\\n  - Scheduled mint: +1B on 3...\n  JUMPDEST \t\t\t\\n  - Scheduled mint: +1B on 3...\n  PUSH 4E487B7100000000000000000000000000000000000000000000000000000000\t\t\tTC every 5 years (first at 203...\n  PUSH 0\t\t\t0\n  MSTORE \t\t\t00:00:00 UTC every 5 years (fi...\n  PUSH 22\t\t\tsfer\n  PUSH 4\t\t\tr\n  MSTORE \t\t\ttart (transfers\n  PUSH 24\t\t\twhil\n  PUSH 0\t\t\te\n  REVERT \t\t\tg blocked while\ntag 85\t\t\t\\n  - Bridge mint/burn hooks r...\n  JUMPDEST \t\t\t\\n  - Bridge mint/burn hooks r...\n  PUSH 0\t\t\tIDGE_R\n  PUSH 2\t\t\to\n  DUP3 \t\t\t for\n  DIV \t\t\tions for tok\n  SWAP1 \t\t\tscue functions for tok\n  POP \t\t\tscue functions for tok\n  PUSH 1\t\t\te\n  DUP3 \t\t\t Ope\n  AND \t\t\t\\n  - OpenZep\n  DUP1 \t\t\tntRole, Ownable(ms\n  PUSH [tag] 118\t\t\t uses _grantRole, Ownable(msg....\n  JUMPI \t\t\t uses _grantRole, Ownable(msg....\n  PUSH 7F\t\t\tort \n  DUP3 \t\t\t/\\r\\n\\r\\ni\n  AND \t\t\tk\\r\\n*/\\r\\n\\r\\nimport \"\n  SWAP2 \t\t\tupdate hook\\r\\n*/\\r\\n\\r\\nimpor...\n  POP \t\t\tupdate hook\\r\\n*/\\r\\n\\r\\nimpor...\ntag 118\t\t\t uses _grantRole, Ownable(msg....\n  JUMPDEST \t\t\t uses _grantRole, Ownable(msg....\n  PUSH 20\t\t\t@o\n  DUP3 \t\t\timport\n  LT \t\t\t;\\r\\nimport \"@op\n  DUP2 \t\t\tken/ERC20/ERC20.so\n  SUB \t\t\t/token/ERC20/ERC20.sol\";\\r\\nim...\n  PUSH [tag] 119\t\t\tcts/token/ERC20/ERC20.sol\";\\r\\...\n  JUMPI \t\t\tcts/token/ERC20/ERC20.sol\";\\r\\...\n  PUSH [tag] 120\t\t\tacts/token/ERC20/I\n  PUSH [tag] 84\t\t\tacts/token/ERC20/I\n  JUMP \t\t\tacts/token/ERC20/I\ntag 120\t\t\tacts/token/ERC20/I\n  JUMPDEST \t\t\tacts/token/ERC20/I\ntag 119\t\t\tcts/token/ERC20/ERC20.sol\";\\r\\...\n  JUMPDEST \t\t\tcts/token/ERC20/ERC20.sol\";\\r\\...\n  POP \t\t\tLE\\r\\n  - Rescue functions for...\n  SWAP2 \t\t\t\\n  - Bridge mint/burn hooks r...\n  SWAP1 \t\t\t\\n  - Bridge mint/burn hooks r...\n  POP \t\t\t\\n  - Bridge mint/burn hooks r...\n  JUMP \t\t\t\\n  - Bridge mint/burn hooks r...\ntag 86\t\t\topenzeppelin/contracts/token/E...\n  JUMPDEST \t\t\topenzeppelin/contracts/token/E...\n  PUSH 0\t\t\t0.so\n  DUP2 \t\t\tepp\n  SWAP1 \t\t\t \"@openzepp\n  POP \t\t\t \"@openzepp\n  DUP2 \t\t\ts/A\n  PUSH 0\t\t\tc\n  MSTORE \t\t\tacts/access/Ac\n  PUSH 20\t\t\tenze\n  PUSH 0\t\t\t@\n  KECCAK256 \t\t\t\\r\\nimport \"@openzep\n  SWAP1 \t\t\tol.sol\";\\r\\nimport \"@openzep\n  POP \t\t\tol.sol\";\\r\\nimport \"@openzep\n  SWAP2 \t\t\topenzeppelin/contracts/token/E...\n  SWAP1 \t\t\topenzeppelin/contracts/token/E...\n  POP \t\t\topenzeppelin/contracts/token/E...\n  JUMP \t\t\topenzeppelin/contracts/token/E...\ntag 87\t\t\tts/access/Ownable.sol\";\\r\\n\\r\\...\n  JUMPDEST \t\t\tts/access/Ownable.sol\";\\r\\n\\r\\...\n  PUSH 0\t\t\tIGGCOI\n  PUSH 20\t\t\t u\n  PUSH 1F\t\t\t\\r\\n\n  DUP4 \t\t\tnable\n  ADD \t\t\t, Ownable {\\r\\n \n  DIV \t\t\ttrol, Ownable {\\r\\n    us\n  SWAP1 \t\t\t AccessControl, Ownable {\\r\\n ...\n  POP \t\t\t AccessControl, Ownable {\\r\\n ...\n  SWAP2 \t\t\tts/access/Ownable.sol\";\\r\\n\\r\\...\n  SWAP1 \t\t\tts/access/Ownable.sol\";\\r\\n\\r\\...\n  POP \t\t\tts/access/Ownable.sol\";\\r\\n\\r\\...\n  JUMP \t\t\tts/access/Ownable.sol\";\\r\\n\\r\\...\ntag 88\t\t\t0 for IERC20;\\r\\n\\r\\n    bytes...\n  JUMPDEST \t\t\t0 for IERC20;\\r\\n\\r\\n    bytes...\n  PUSH 0\t\t\t MINTER_\n  DUP3 \t\t\ts32 p\n  DUP3 \t\t\t  by\n  SHL \t\t\t\\r\\n    bytes32 pu\n  SWAP1 \t\t\tak256(\"MINTER_ROLE\");\\r\\n    b...\n  POP \t\t\tak256(\"MINTER_ROLE\");\\r\\n    b...\n  SWAP3 \t\t\t0 for IERC20;\\r\\n\\r\\n    bytes...\n  SWAP2 \t\t\t0 for IERC20;\\r\\n\\r\\n    bytes...\n  POP \t\t\t0 for IERC20;\\r\\n\\r\\n    bytes...\n  POP \t\t\t0 for IERC20;\\r\\n\\r\\n    bytes...\n  JUMP \t\t\t0 for IERC20;\\r\\n\\r\\n    bytes...\ntag 89\t\t\t BRIDGE_ROLE = keccak256(\"BRID...\n  JUMPDEST \t\t\t BRIDGE_ROLE = keccak256(\"BRID...\n  PUSH 0\t\t\tt _DEC\n  PUSH 8\t\t\tN\n  DUP4 \t\t\tc constant\n  MUL \t\t\tublic constant INI\n  PUSH [tag] 125\t\t\t00_000 * (10 ** uint256(_DECIM...\n  PUSH FFFFFFFFFFFFFFFFFFFFFFFFFFFFFFFFFFFFFFFFFFFFFFFFFFFFFFFFFFFFFFFF\t\t\tALS)); // 1B\\r\\n    uint256 pu...\n  DUP3 \t\t\tt256(_DEC\n  PUSH [tag] 88\t\t\t00_000 * (10 ** uint256(_DECIM...\n  JUMP \t\t\t00_000 * (10 ** uint256(_DECIM...\ntag 125\t\t\t00_000 * (10 ** uint256(_DECIM...\n  JUMPDEST \t\t\t00_000 * (10 ** uint256(_DECIM...\n  PUSH [tag] 126\t\t\t6(_DECIMALS)); // 1B each tran...\n  DUP7 \t\t\tche\\r\\n   \n  DUP4 \t\t\tB each tr\n  PUSH [tag] 88\t\t\t6(_DECIMALS)); // 1B each tran...\n  JUMP \t\t\t6(_DECIMALS)); // 1B each tran...\ntag 126\t\t\t6(_DECIMALS)); // 1B each tran...\n  JUMPDEST \t\t\t6(_DECIMALS)); // 1B each tran...\n  SWAP6 \t\t\t10 ** uint256(_DECIMALS)); // ...\n  POP \t\t\t10 ** uint256(_DECIMALS)); // ...\n  DUP1 \t\t\tY = \n  NOT \t\t\tUPPLY = 1\n  DUP5 \t\t\tt MAX\n  AND \t\t\tstant MAX_SUPPLY = 10\n  SWAP4 \t\t\tublic constant MAX_SUPPLY = 10\n  POP \t\t\tublic constant MAX_SUPPLY = 10\n  DUP1 \t\t\t// 1\n  DUP7 \t\t\tCIMALS))\n  AND \t\t\t(_DECIMALS)); // 10\n  DUP5 \t\t\tuint2\n  OR \t\t\t** uint256(_DECIMALS)); // 10B\n  SWAP3 \t\t\t000 * (10 ** uint256(_DECIMALS...\n  POP \t\t\t000 * (10 ** uint256(_DECIMALS...\n  POP \t\t\tMALS = 18;\\r\\n\\r\\n    uint256 ...\n  POP \t\t\tMALS = 18;\\r\\n\\r\\n    uint256 ...\n  SWAP4 \t\t\t BRIDGE_ROLE = keccak256(\"BRID...\n  SWAP3 \t\t\t BRIDGE_ROLE = keccak256(\"BRID...\n  POP \t\t\t BRIDGE_ROLE = keccak256(\"BRID...\n  POP \t\t\t BRIDGE_ROLE = keccak256(\"BRID...\n  POP \t\t\t BRIDGE_ROLE = keccak256(\"BRID...\n  JUMP \t\t\t BRIDGE_ROLE = keccak256(\"BRID...\ntag 90\t\t\tardcoded scheduled mint timest...\n  JUMPDEST \t\t\tardcoded scheduled mint timest...\n  PUSH 0\t\t\t0 Sep 0\n  DUP2 \t\t\tars s\n  SWAP1 \t\t\t every 5 years s\n  POP \t\t\t every 5 years s\n  SWAP2 \t\t\tardcoded scheduled mint timest...\n  SWAP1 \t\t\tardcoded scheduled mint timest...\n  POP \t\t\tardcoded scheduled mint timest...\n  JUMP \t\t\tardcoded scheduled mint timest...\ntag 91\t\t\t)\\r\\n    // These are UNIX tim...\n  JUMPDEST \t\t\t)\\r\\n    // These are UNIX tim...\n  PUSH 0\t\t\test\n  DUP2 \t\t\te 197\n  SWAP1 \t\t\tds since 197\n  POP \t\t\tds since 197\n  SWAP2 \t\t\t)\\r\\n    // These are UNIX tim...\n  SWAP1 \t\t\t)\\r\\n    // These are UNIX tim...\n  POP \t\t\t)\\r\\n    // These are UNIX tim...\n  JUMP \t\t\t)\\r\\n    // These are UNIX tim...\ntag 92\t\t\t\\r\\n    uint256[] public sched...\n  JUMPDEST \t\t\t\\r\\n    uint256[] public sched...\n  PUSH 0\t\t\t6 public \n  PUSH [tag] 130\t\t\tdex for next scheduled mint\\r\\...\n  PUSH [tag] 131\t\t\tuled mint\\r\\n\\r\\n    // Emerge...\n  PUSH [tag] 132\t\t\t\\r\\n\\r\\n    // Emergency cir\n  DUP5 \t\t\tcy ci\n  PUSH [tag] 90\t\t\t\\r\\n\\r\\n    // Emergency cir\n  JUMP \t\t\t\\r\\n\\r\\n    // Emergency cir\ntag 132\t\t\t\\r\\n\\r\\n    // Emergency cir\n  JUMPDEST \t\t\t\\r\\n\\r\\n    // Emergency cir\n  PUSH [tag] 91\t\t\tuled mint\\r\\n\\r\\n    // Emerge...\n  JUMP \t\t\tuled mint\\r\\n\\r\\n    // Emerge...\ntag 131\t\t\tuled mint\\r\\n\\r\\n    // Emerge...\n  JUMPDEST \t\t\tuled mint\\r\\n\\r\\n    // Emerge...\n  PUSH [tag] 90\t\t\tdex for next scheduled mint\\r\\...\n  JUMP \t\t\tdex for next scheduled mint\\r\\...\ntag 130\t\t\tdex for next scheduled mint\\r\\...\n  JUMPDEST \t\t\tdex for next scheduled mint\\r\\...\n  SWAP1 \t\t\tex = 0; // index for next sche...\n  POP \t\t\tex = 0; // index for next sche...\n  SWAP2 \t\t\t\\r\\n    uint256[] public sched...\n  SWAP1 \t\t\t\\r\\n    uint256[] public sched...\n  POP \t\t\t\\r\\n    uint256[] public sched...\n  JUMP \t\t\t\\r\\n    uint256[] public sched...\ntag 93\t\t\t    bool public emergencyStopp...\n  JUMPDEST \t\t\t    bool public emergencyStopp...\n  PUSH 0\t\t\t\\r\\n \n  DUP2 \t\t\tevent\n  SWAP1 \t\t\ts\\r\\n    event\n  POP \t\t\ts\\r\\n    event\n  SWAP2 \t\t\t    bool public emergencyStopp...\n  SWAP1 \t\t\t    bool public emergencyStopp...\n  POP \t\t\t    bool public emergencyStopp...\n  JUMP \t\t\t    bool public emergencyStopp...\ntag 94\t\t\ted(uint256 indexed amount, uin...\n  JUMPDEST \t\t\ted(uint256 indexed amount, uin...\n  PUSH [tag] 135\t\t\tount, uint256 timestamp, uint2...\n  DUP4 \t\t\t6 newTo\n  PUSH [tag] 92\t\t\tount, uint256 timestamp, uint2...\n  JUMP \t\t\tount, uint256 timestamp, uint2...\ntag 135\t\t\tount, uint256 timestamp, uint2...\n  JUMPDEST \t\t\tount, uint256 timestamp, uint2...\n  PUSH [tag] 136\t\t\tBridgeMint(address indexed to,...\n  PUSH [tag] 137\t\t\tdress indexed bridge);\\r\\n    ...\n  DUP3 \t\t\t    event Bridge\n  PUSH [tag] 93\t\t\tdress indexed bridge);\\r\\n    ...\n  JUMP \t\t\tdress indexed bridge);\\r\\n    ...\ntag 137\t\t\tdress indexed bridge);\\r\\n    ...\n  JUMPDEST \t\t\tdress indexed bridge);\\r\\n    ...\n  DUP5 \t\t\tount, \n  DUP5 \t\t\tt256\n  SLOAD \t\t\to, uint256 \n  PUSH [tag] 89\t\t\tBridgeMint(address indexed to,...\n  JUMP \t\t\tBridgeMint(address indexed to,...\ntag 136\t\t\tBridgeMint(address indexed to,...\n  JUMPDEST \t\t\tBridgeMint(address indexed to,...\n  DUP3 \t\t\teven\n  SSTORE \t\t\t;\\r\\n    event BridgeMint(addr...\n  POP \t\t\tted(address indexed to, uint25...\n  POP \t\t\ted(uint256 indexed amount, uin...\n  POP \t\t\ted(uint256 indexed amount, uin...\n  POP \t\t\ted(uint256 indexed amount, uin...\n  JUMP \t\t\ted(uint256 indexed amount, uin...\ntag 95\t\t\tdexed from, uint256 amount, ad...\n  JUMPDEST \t\t\tdexed from, uint256 amount, ad...\n  PUSH 0\t\t\trid\n  SWAP1 \t\t\tdexed from, uint256 amount, ad...\n  JUMP \t\t\tdexed from, uint256 amount, ad...\ntag 96\t\t\tdress indexed token, address i...\n  JUMPDEST \t\t\tdress indexed token, address i...\n  PUSH [tag] 140\t\t\tscued(address indexed to, uint...\n  PUSH [tag] 95\t\t\tscued(address indexed to, uint...\n  JUMP \t\t\tscued(address indexed to, uint...\ntag 140\t\t\tscued(address indexed to, uint...\n  JUMPDEST \t\t\tscued(address indexed to, uint...\n  PUSH [tag] 141\t\t\t;\\r\\n    event EmergencyStoppe...\n  DUP2 \t\t\ttimest\n  DUP5 \t\t\tuint25\n  DUP5 \t\t\td by\n  PUSH [tag] 94\t\t\t;\\r\\n    event EmergencyStoppe...\n  JUMP \t\t\t;\\r\\n    event EmergencyStoppe...\ntag 141\t\t\t;\\r\\n    event EmergencyStoppe...\n  JUMPDEST \t\t\t;\\r\\n    event EmergencyStoppe...\n  POP \t\t\tnt);\\r\\n    event NativeRescue...\n  POP \t\t\tdress indexed token, address i...\n  POP \t\t\tdress indexed token, address i...\n  JUMP \t\t\tdress indexed token, address i...\ntag 97\t\t\tent EmergencyLifted(address in...\n  JUMPDEST \t\t\tent EmergencyLifted(address in...\ntag 143\t\t\t\\n\\r\\n    constructor() ERC20(...\n  JUMPDEST \t\t\t\\n\\r\\n    constructor() ERC20(...\n  DUP2 \t\t\tr()\n  DUP2 \t\t\tstruc\n  LT \t\t\tconstructor() \n  ISZERO \t\t\t\\n\\r\\n    constructor() ERC20(...\n  PUSH [tag] 145\t\t\t\\n\\r\\n    constructor() ERC20(...\n  JUMPI \t\t\t\\n\\r\\n    constructor() ERC20(...\n  PUSH [tag] 146\t\t\t       // Grant roles to deplo...\n  PUSH 0\t\t\te\n  DUP3 \t\t\tyer (\n  PUSH [tag] 96\t\t\t       // Grant roles to deplo...\n  JUMP \t\t\t       // Grant roles to deplo...\ntag 146\t\t\t       // Grant roles to deplo...\n  JUMPDEST \t\t\t       // Grant roles to deplo...\n  PUSH 1\t\t\t\"\n  DUP2 \t\t\t, \"TI\n  ADD \t\t\tOIN\", \"TIGG\")\n  SWAP1 \t\t\t20(\"TIGGCOIN\", \"TIGG\")\n  POP \t\t\t20(\"TIGGCOIN\", \"TIGG\")\n  PUSH [tag] 143\t\t\t\\n\\r\\n    constructor() ERC20(...\n  JUMP \t\t\t\\n\\r\\n    constructor() ERC20(...\ntag 145\t\t\t\\n\\r\\n    constructor() ERC20(...\n  JUMPDEST \t\t\t\\n\\r\\n    constructor() ERC20(...\n  POP \t\t\tent EmergencyLifted(address in...\n  POP \t\t\tent EmergencyLifted(address in...\n  JUMP \t\t\tent EmergencyLifted(address in...\ntag 98\t\t\t      _grantRole(DEFAULT_ADMIN...\n  JUMPDEST \t\t\t      _grantRole(DEFAULT_ADMIN...\n  PUSH 1F\t\t\t  \n  DUP3 \t\t\t));\n  GT \t\t\ter());\\r\\n   \n  ISZERO \t\t\tender());\\r\\n        _grantRol...\n  PUSH [tag] 148\t\t\tender());\\r\\n        _grantRol...\n  JUMPI \t\t\tender());\\r\\n        _grantRol...\n  PUSH [tag] 149\t\t\tsgSender());\\r\\n\\r\\n        //...\n  DUP2 \t\t\tiniti\n  PUSH [tag] 86\t\t\tsgSender());\\r\\n\\r\\n        //...\n  JUMP \t\t\tsgSender());\\r\\n\\r\\n        //...\ntag 149\t\t\tsgSender());\\r\\n\\r\\n        //...\n  JUMPDEST \t\t\tsgSender());\\r\\n\\r\\n        //...\n  PUSH [tag] 150\t\t\t(), INITIAL_SUPPLY);\\r\\n\\r\\n  ...\n  DUP5 \t\t\t);\\r\\n\\r\\n    \n  PUSH [tag] 87\t\t\t(), INITIAL_SUPPLY);\\r\\n\\r\\n  ...\n  JUMP \t\t\t(), INITIAL_SUPPLY);\\r\\n\\r\\n  ...\ntag 150\t\t\t(), INITIAL_SUPPLY);\\r\\n\\r\\n  ...\n  JUMPDEST \t\t\t(), INITIAL_SUPPLY);\\r\\n\\r\\n  ...\n  DUP2 \t\t\t_msgSend\n  ADD \t\t\tint(_msgSender(), INITIAL_SUPP...\n  PUSH 20\t\t\t0-\n  DUP6 \t\t\t      // 2\n  LT \t\t\t\\n        // 2030-0\n  ISZERO \t\t\tTC\\r\\n        // 2030-09-30 00...\n  PUSH [tag] 151\t\t\tTC\\r\\n        // 2030-09-30 00...\n  JUMPI \t\t\tTC\\r\\n        // 2030-09-30 00...\n  DUP2 \t\t\t\\n       \n  SWAP1 \t\t\t0 00:00:00 UTC\\r\\n       \n  POP \t\t\t0 00:00:00 UTC\\r\\n       \ntag 151\t\t\tTC\\r\\n        // 2030-09-30 00...\n  JUMPDEST \t\t\tTC\\r\\n        // 2030-09-30 00...\n  PUSH [tag] 152\t\t\t.push(1916956800);\\r\\n        ...\n  PUSH [tag] 153\t\t\tuledMints.push(2074723\n  DUP6 \t\t\t472\n  PUSH [tag] 87\t\t\tuledMints.push(2074723\n  JUMP \t\t\tuledMints.push(2074723\ntag 153\t\t\tuledMints.push(2074723\n  JUMPDEST \t\t\tuledMints.push(2074723\n  DUP4 \t\t\t     sch\n  ADD \t\t\t\\n        scheduledMints.push(...\n  DUP3 \t\t\t/ 2035-09-3\n  PUSH [tag] 97\t\t\t.push(1916956800);\\r\\n        ...\n  JUMP \t\t\t.push(1916956800);\\r\\n        ...\ntag 152\t\t\t.push(1916956800);\\r\\n        ...\n  JUMPDEST \t\t\t.push(1916956800);\\r\\n        ...\n  POP \t\t\t    _grantRole(BRIDGE_ROLE, _m...\n  POP \t\t\t    _grantRole(BRIDGE_ROLE, _m...\ntag 148\t\t\tender());\\r\\n        _grantRol...\n  JUMPDEST \t\t\tender());\\r\\n        _grantRol...\n  POP \t\t\t      _grantRole(DEFAULT_ADMIN...\n  POP \t\t\t      _grantRole(DEFAULT_ADMIN...\n  POP \t\t\t      _grantRole(DEFAULT_ADMIN...\n  JUMP \t\t\t      _grantRole(DEFAULT_ADMIN...\ntag 99\t\t\t-30\\r\\n        scheduledMints....\n  JUMPDEST \t\t\t-30\\r\\n        scheduledMints....\n  PUSH 0\t\t\t // 2045\n  DUP3 \t\t\t2400)\n  DUP3 \t\t\t2390\n  SHR \t\t\tush(2390342400);\n  SWAP1 \t\t\t     scheduledMints.push(23903...\n  POP \t\t\t     scheduledMints.push(23903...\n  SWAP3 \t\t\t-30\\r\\n        scheduledMints....\n  SWAP2 \t\t\t-30\\r\\n        scheduledMints....\n  POP \t\t\t-30\\r\\n        scheduledMints....\n  POP \t\t\t-30\\r\\n        scheduledMints....\n  JUMP \t\t\t-30\\r\\n        scheduledMints....\ntag 100\t\t\t2050-09-30\\r\\n        schedule...\n  JUMPDEST \t\t\t2050-09-30\\r\\n        schedule...\n  PUSH 0\t\t\t108800\n  PUSH [tag] 156\t\t\t        scheduledMints.push(27...\n  PUSH 0\t\t\t \n  NOT \t\t\t      \n  DUP5 \t\t\t00);\\r\n  PUSH 8\t\t\t7\n  MUL \t\t\t705875200);\\r\\n\n  PUSH [tag] 99\t\t\t        scheduledMints.push(27...\n  JUMP \t\t\t        scheduledMints.push(27...\ntag 156\t\t\t        scheduledMints.push(27...\n  JUMPDEST \t\t\t        scheduledMints.push(27...\n  NOT \t\t\t30\\r\\n        scheduledMints.p...\n  DUP1 \t\t\tdMin\n  DUP4 \t\t\thedu\n  AND \t\t\t  scheduledMint\n  SWAP2 \t\t\t30\\r\\n        scheduledMint\n  POP \t\t\t30\\r\\n        scheduledMint\n  POP \t\t\t;\\r\\n        // 2055-09-30\\r\\n...\n  SWAP3 \t\t\t2050-09-30\\r\\n        schedule...\n  SWAP2 \t\t\t2050-09-30\\r\\n        schedule...\n  POP \t\t\t2050-09-30\\r\\n        schedule...\n  POP \t\t\t2050-09-30\\r\\n        schedule...\n  JUMP \t\t\t2050-09-30\\r\\n        schedule...\ntag 101\t\t\t728000);\\r\\n        // 2065-09...\n  JUMPDEST \t\t\t728000);\\r\\n        // 2065-09...\n  PUSH 0\t\t\t    \n  PUSH [tag] 158\t\t\ti = 0; i < scheduledMints.len\n  DUP4 \t\t\t.le\n  DUP4 \t\t\tdMin\n  PUSH [tag] 100\t\t\ti = 0; i < scheduledMints.len\n  JUMP \t\t\ti = 0; i < scheduledMints.len\ntag 158\t\t\ti = 0; i < scheduledMints.len\n  JUMPDEST \t\t\ti = 0; i < scheduledMints.len\n  SWAP2 \t\t\tuint256 i = 0; i < scheduledMi...\n  POP \t\t\tuint256 i = 0; i < scheduledMi...\n  DUP3 \t\t\ttSc\n  PUSH 2\t\t\tM\n  MUL \t\t\tmit MintSch\n  DUP3 \t\t\t    \n  OR \t\t\t        emit MintSche\n  SWAP1 \t\t\t {\\r\\n            emit MintSch...\n  POP \t\t\t {\\r\\n            emit MintSch...\n  SWAP3 \t\t\t728000);\\r\\n        // 2065-09...\n  SWAP2 \t\t\t728000);\\r\\n        // 2065-09...\n  POP \t\t\t728000);\\r\\n        // 2065-09...\n  POP \t\t\t728000);\\r\\n        // 2065-09...\n  JUMP \t\t\t728000);\\r\\n        // 2065-09...\ntag 7\t\t\tHE_AMOUNT, scheduledMints[i]);...\n  JUMPDEST \t\t\tHE_AMOUNT, scheduledMints[i]);...\n  PUSH [tag] 160\t\t\trride returns (uint8) {\\r\\n   ...\n  DUP3 \t\t\tret\n  PUSH [tag] 82\t\t\trride returns (uint8) {\\r\\n   ...\n  JUMP \t\t\trride returns (uint8) {\\r\\n   ...\ntag 160\t\t\trride returns (uint8) {\\r\\n   ...\n  JUMPDEST \t\t\trride returns (uint8) {\\r\\n   ...\n  PUSH FFFFFFFFFFFFFFFF\t\t\trgency controls\\r\\n \n  DUP2 \t\t\t  // E\n  GT \t\t\t\\n    // Emergency controls\\r\\...\n  ISZERO \t\t\t--\\r\\n    // Emergency control...\n  PUSH [tag] 161\t\t\t--\\r\\n    // Emergency control...\n  JUMPI \t\t\t--\\r\\n    // Emergency control...\n  PUSH [tag] 162\t\t\t/ ----------------\n  PUSH [tag] 83\t\t\t/ ----------------\n  JUMP \t\t\t/ ----------------\ntag 162\t\t\t/ ----------------\n  JUMPDEST \t\t\t/ ----------------\ntag 161\t\t\t--\\r\\n    // Emergency control...\n  JUMPDEST \t\t\t--\\r\\n    // Emergency control...\n  PUSH [tag] 163\t\t\tencyStop() external onlyOwner ...\n  DUP3 \t\t\t\\n   \n  SLOAD \t\t\tner {\\r\\n    \n  PUSH [tag] 85\t\t\tencyStop() external onlyOwner ...\n  JUMP \t\t\tencyStop() external onlyOwner ...\ntag 163\t\t\tencyStop() external onlyOwner ...\n  JUMPDEST \t\t\tencyStop() external onlyOwner ...\n  PUSH [tag] 164\t\t\tencyStopped(_msgSender(), bloc...\n  DUP3 \t\t\tnction\n  DUP3 \t\t\t\\r\\n    \n  DUP6 \t\t\t   }\n  PUSH [tag] 98\t\t\tencyStopped(_msgSender(), bloc...\n  JUMP \t\t\tencyStopped(_msgSender(), bloc...\ntag 164\t\t\tencyStopped(_msgSender(), bloc...\n  JUMPDEST \t\t\tencyStopped(_msgSender(), bloc...\n  PUSH 0\t\t\tl\n  PUSH 20\t\t\tmerg\n  SWAP1 \t\t\t {\\r\\n        emerg\n  POP \t\t\t {\\r\\n        emerg\n  PUSH 1F\t\t\t  \n  DUP4 \t\t\t\\r\\n    \n  GT \t\t\tse;\\r\\n        e\n  PUSH 1\t\t\ti\n  DUP2 \t\t\tencyLifted(_msgSender(), block...\n  EQ \t\t\tencyLifted(_msgSender(), block...\n  PUSH [tag] 166\t\t\tencyLifted(_msgSender(), block...\n  JUMPI \t\t\tencyLifted(_msgSender(), block...\n  PUSH 0\t\t\t \n  DUP5 \t\t\tSupply\n  ISZERO \t\t\tentSupply + TRANCHE_AMOUNT <= ...\n  PUSH [tag] 167\t\t\tentSupply + TRANCHE_AMOUNT <= ...\n  JUMPI \t\t\tentSupply + TRANCHE_AMOUNT <= ...\n  DUP3 \t\t\t supply e\n  DUP8 \t\t\t: m\n  ADD \t\t\tTIGG: max supply ex\n  MLOAD \t\t\tPLY, \"TIGG: max supply exc\n  SWAP1 \t\t\t= MAX_SUPPLY, \"TIGG: max suppl...\n  POP \t\t\t= MAX_SUPPLY, \"TIGG: max suppl...\ntag 167\t\t\tentSupply + TRANCHE_AMOUNT <= ...\n  JUMPDEST \t\t\tentSupply + TRANCHE_AMOUNT <= ...\n  PUSH [tag] 168\t\t\twner for distribution/treasury...\n  DUP6 \t\t\t), TRA\n  DUP3 \t\t\t(owne\n  PUSH [tag] 101\t\t\twner for distribution/treasury...\n  JUMP \t\t\twner for distribution/treasury...\ntag 168\t\t\twner for distribution/treasury...\n  JUMPDEST \t\t\twner for distribution/treasury...\n  DUP7 \t\t\te to\n  SSTORE \t\t\t tranche to owner for distribu...\n  POP \t\t\tly = totalSupply();\\r\\n       ...\n  PUSH [tag] 165\t\t\td = false;\\r\\n        emit Eme...\n  JUMP \t\t\td = false;\\r\\n        emit Eme...\ntag 166\t\t\tencyLifted(_msgSender(), block...\n  JUMPDEST \t\t\tencyLifted(_msgSender(), block...\n  PUSH 1F\t\t\t\\n   \n  NOT \t\t\t}\\r\\n\\r\\n    \n  DUP5 \t\t\t);\\r\\n  \n  AND \t\t\ttamp);\\r\\n    }\\r\\n\\r\\n    /\n  PUSH [tag] 169\t\t\t  // Scheduled mint: execute n...\n  DUP7 \t\t\tt tr\n  PUSH [tag] 86\t\t\t  // Scheduled mint: execute n...\n  JUMP \t\t\t  // Scheduled mint: execute n...\ntag 169\t\t\t  // Scheduled mint: execute n...\n  JUMPDEST \t\t\t  // Scheduled mint: execute n...\n  PUSH 0\t\t\ta\ntag 170\t\t\t_ROLE, and blocked during emer...\n  JUMPDEST \t\t\t_ROLE, and blocked during emer...\n  DUP3 \t\t\tcked du\n  DUP2 \t\t\tb\n  LT \t\t\tnd blocked dur\n  ISZERO \t\t\t_ROLE, and blocked during emer...\n  PUSH [tag] 172\t\t\t_ROLE, and blocked during emer...\n  JUMPI \t\t\t_ROLE, and blocked during emer...\n  DUP5 \t\t\tduledMint\n  DUP10 \t\t\teSc\n  ADD \t\t\tecuteScheduledMint(\n  MLOAD \t\t\tion executeScheduledMint()\n  DUP3 \t\t\t   fun\n  SSTORE \t\t\t----\\r\\n    function executeSc...\n  PUSH 1\t\t\t \n  DUP3 \t\t\t{\\r\\n   \n  ADD \t\t\tLE) {\\r\\n       \n  SWAP2 \t\t\t(MINTER_ROLE) {\\r\\n       \n  POP \t\t\t(MINTER_ROLE) {\\r\\n       \n  PUSH 20\t\t\tst\n  DUP6 \t\t\t emergenc\n  ADD \t\t\tIGG: emergency sto\n  SWAP5 \t\t\tcyStopped, \"TIGG: emergency st...\n  POP \t\t\tcyStopped, \"TIGG: emergency st...\n  PUSH 20\t\t\t\\n   \n  DUP2 \t\t\ty\n  ADD \t\t\tgency.\\r\\n    \n  SWAP1 \t\t\t emergency.\\r\\n    \n  POP \t\t\t emergency.\\r\\n    \n  PUSH [tag] 170\t\t\t_ROLE, and blocked during emer...\n  JUMP \t\t\t_ROLE, and blocked during emer...\ntag 172\t\t\t_ROLE, and blocked during emer...\n  JUMPDEST \t\t\t_ROLE, and blocked during emer...\n  DUP7 \t\t\tchedul\n  DUP4 \t\t\tIndex <\n  LT \t\t\tintIndex < schedule\n  ISZERO \t\t\txtMintIndex < scheduledMints.l...\n  PUSH [tag] 173\t\t\txtMintIndex < scheduledMints.l...\n  JUMPI \t\t\txtMintIndex < scheduledMints.l...\n  DUP5 \t\t\t\\n        \n  DUP10 \t\t\t);\\r\n  ADD \t\t\teft\");\\r\\n\\r\\n        u\n  MLOAD \t\t\tints left\");\\r\\n\\r\\n        ui\n  PUSH [tag] 174\t\t\ts[nextMintIndex];\\r\\n        r...\n  PUSH 1F\t\t\times\n  DUP10 \t\t\t(block\n  AND \t\t\tuire(block.timest\n  DUP3 \t\t\t        r\n  PUSH [tag] 100\t\t\ts[nextMintIndex];\\r\\n        r...\n  JUMP \t\t\ts[nextMintIndex];\\r\\n        r...\ntag 174\t\t\ts[nextMintIndex];\\r\\n        r...\n  JUMPDEST \t\t\ts[nextMintIndex];\\r\\n        r...\n  DUP4 \t\t\tuledMi\n  SSTORE \t\t\t= scheduledMints[nextMintIndex...\n  POP \t\t\tMints.length, \"TIGG: no schedu...\ntag 173\t\t\txtMintIndex < scheduledMints.l...\n  JUMPDEST \t\t\txtMintIndex < scheduledMints.l...\n  PUSH 1\t\t\t\\n\n  PUSH 2\t\t\t\"\n  DUP9 \t\t\tvailab\n  MUL \t\t\tet available\")\n  ADD \t\t\tot yet available\");\\r\\n\\r\n  DUP9 \t\t\tmint\n  SSTORE \t\t\teduled mint not yet available\"...\n  POP \t\t\tted(_msgSender(), block.timest...\n  POP \t\t\tted(_msgSender(), block.timest...\n  POP \t\t\tted(_msgSender(), block.timest...\ntag 165\t\t\td = false;\\r\\n        emit Eme...\n  JUMPDEST \t\t\td = false;\\r\\n        emit Eme...\n  POP \t\t\td = false;\\r\\n        emit Eme...\n  POP \t\t\tecimals() public pure override...\n  POP \t\t\tecimals() public pure override...\n  POP \t\t\tecimals() public pure override...\n  POP \t\t\tHE_AMOUNT, scheduledMints[i]);...\n  POP \t\t\tHE_AMOUNT, scheduledMints[i]);...\n  JUMP \t\t\tHE_AMOUNT, scheduledMints[i]);...\ntag 102\t\t\t emit MintExecuted(owner(), TR...\n  JUMPDEST \t\t\t emit MintExecuted(owner(), TR...\n  PUSH 0\t\t\tMOUNT, \n  PUSH FFFFFFFFFFFFFFFFFFFFFFFFFFFFFFFFFFFFFFFF\t\t\t\\n\\r\\n        // advance index...\n  DUP3 \t\t\tly())\n  AND \t\t\tSupply());\\r\\n\\r\\n        // a...\n  SWAP1 \t\t\ttamp, totalSupply());\\r\\n\\r\\n ...\n  POP \t\t\ttamp, totalSupply());\\r\\n\\r\\n ...\n  SWAP2 \t\t\t emit MintExecuted(owner(), TR...\n  SWAP1 \t\t\t emit MintExecuted(owner(), TR...\n  POP \t\t\t emit MintExecuted(owner(), TR...\n  JUMP \t\t\t emit MintExecuted(owner(), TR...\ntag 103\t\t\t;\\r\\n    }\\r\\n\\r\\n    function...\n  JUMPDEST \t\t\t;\\r\\n    }\\r\\n\\r\\n    function...\n  PUSH 0\t\t\ttsRemai\n  PUSH [tag] 177\t\t\teturns (uint256) {\\r\\n    \n  DUP3 \t\t\t\\r\\n   \n  PUSH [tag] 102\t\t\teturns (uint256) {\\r\\n    \n  JUMP \t\t\teturns (uint256) {\\r\\n    \ntag 177\t\t\teturns (uint256) {\\r\\n    \n  JUMPDEST \t\t\teturns (uint256) {\\r\\n    \n  SWAP1 \t\t\trnal view returns (uint256) {\\...\n  POP \t\t\trnal view returns (uint256) {\\...\n  SWAP2 \t\t\t;\\r\\n    }\\r\\n\\r\\n    function...\n  SWAP1 \t\t\t;\\r\\n    }\\r\\n\\r\\n    function...\n  POP \t\t\t;\\r\\n    }\\r\\n\\r\\n    function...\n  JUMP \t\t\t;\\r\\n    }\\r\\n\\r\\n    function...\ntag 104\t\t\tMintIndex >= scheduledMints.le...\n  JUMPDEST \t\t\tMintIndex >= scheduledMints.le...\n  PUSH [tag] 179\t\t\textMintIndex;\\r\\n    }\\r\\n\\r\\n\n  DUP2 \t\t\t }\\r\\n\\r\n  PUSH [tag] 103\t\t\textMintIndex;\\r\\n    }\\r\\n\\r\\n\n  JUMP \t\t\textMintIndex;\\r\\n    }\\r\\n\\r\\n\ntag 179\t\t\textMintIndex;\\r\\n    }\\r\\n\\r\\n\n  JUMPDEST \t\t\textMintIndex;\\r\\n    }\\r\\n\\r\\n\n  DUP3 \t\t\th -\n  MSTORE \t\t\ts.length - nextMintIndex;\\r\\n ...\n  POP \t\t\tMintIndex >= scheduledMints.le...\n  POP \t\t\tMintIndex >= scheduledMints.le...\n  JUMP \t\t\tMintIndex >= scheduledMints.le...\ntag 12\t\t\t----------------\\r\\n    // Bri...\n  JUMPDEST \t\t\t----------------\\r\\n    // Bri...\n  PUSH 0\t\t\t    \n  PUSH 20\t\t\tnt\n  DUP3 \t\t\tress to, \n  ADD \t\t\t(address to, uint2\n  SWAP1 \t\t\tidgeMint(address to, uint2\n  POP \t\t\tidgeMint(address to, uint2\n  PUSH [tag] 181\t\t\t external onlyRole(BRIDGE_ROLE...\n  PUSH 0\t\t\t,\n  DUP4 \t\t\tencyStopp\n  ADD \t\t\tmergencyStopped, \n  DUP5 \t\t\tequire\n  PUSH [tag] 104\t\t\t external onlyRole(BRIDGE_ROLE...\n  JUMP \t\t\t external onlyRole(BRIDGE_ROLE...\ntag 181\t\t\t external onlyRole(BRIDGE_ROLE...\n  JUMPDEST \t\t\t external onlyRole(BRIDGE_ROLE...\n  SWAP3 \t\t\t----------------\\r\\n    // Bri...\n  SWAP2 \t\t\t----------------\\r\\n    // Bri...\n  POP \t\t\t----------------\\r\\n    // Bri...\n  POP \t\t\t----------------\\r\\n    // Bri...\n  JUMP \t\t\t----------------\\r\\n    // Bri...\ntag 105\t\t\tcy stopped\");\\r\\n        requi...\n  JUMPDEST \t\t\tcy stopped\");\\r\\n        requi...\n  PUSH 4E487B7100000000000000000000000000000000000000000000000000000000\t\t\t \"TIGG: mint to zero\");\\r\\n   ...\n  PUSH 0\t\t\t0\n  MSTORE \t\t\tddress(0), \"TIGG: mint to zero...\n  PUSH 11\t\t\texce\n  PUSH 4\t\t\tl\n  MSTORE \t\t\tax supply excee\n  PUSH 24\t\t\tmint\n  PUSH 0\t\t\t \n  REVERT \t\t\t\\n        _mint(\ntag 106\t\t\t\\r\\n        emit BridgeMint(to...\n  JUMPDEST \t\t\t\\r\\n        emit BridgeMint(to...\n  PUSH 0\t\t\tSender()\n  DUP2 \t\t\tdress\n  PUSH 1\t\t\t(\n  SHR \t\t\tBurn(address \n  SWAP1 \t\t\t\\r\\n    function bridgeBurn(ad...\n  POP \t\t\t\\r\\n    function bridgeBurn(ad...\n  SWAP2 \t\t\t\\r\\n        emit BridgeMint(to...\n  SWAP1 \t\t\t\\r\\n        emit BridgeMint(to...\n  POP \t\t\t\\r\\n        emit BridgeMint(to...\n  JUMP \t\t\t\\r\\n        emit BridgeMint(to...\ntag 107\t\t\t amount) external onlyRole(BRI...\n  JUMPDEST \t\t\t amount) external onlyRole(BRI...\n  PUSH 0\t\t\tmerge\n  DUP1 \t\t\tySto\n  DUP3 \t\t\tcy sto\n  SWAP2 \t\t\t: emergency sto\n  POP \t\t\t: emergency sto\n  DUP4 \t\t\tequir\n  SWAP1 \t\t\t        requir\n  POP \t\t\t        requir\ntag 185\t\t\t address(0), \"TIGG: burn from ...\n  JUMPDEST \t\t\t address(0), \"TIGG: burn from ...\n  PUSH 1\t\t\tu\n  DUP6 \t\t\t, \"TIGG:\n  GT \t\t\t(0), \"TIGG: bur\n  ISZERO \t\t\t address(0), \"TIGG: burn from ...\n  PUSH [tag] 187\t\t\t address(0), \"TIGG: burn from ...\n  JUMPI \t\t\t address(0), \"TIGG: burn from ...\n  DUP1 \t\t\tder(\n  DUP7 \t\t\tsgS\n  DIV \t\t\t, _msgSender()\n  DUP2 \t\t\tamou\n  GT \t\t\tm, amount, _msgSender())\n  ISZERO \t\t\tfrom, amount, _msgSender());\\r...\n  PUSH [tag] 188\t\t\tfrom, amount, _msgSender());\\r...\n  JUMPI \t\t\tfrom, amount, _msgSender());\\r...\n  PUSH [tag] 189\t\t\t    }\\r\\n\\r\\n    // --\n  PUSH [tag] 105\t\t\t    }\\r\\n\\r\\n    // --\n  JUMP \t\t\t    }\\r\\n\\r\\n    // --\ntag 189\t\t\t    }\\r\\n\\r\\n    // --\n  JUMPDEST \t\t\t    }\\r\\n\\r\\n    // --\ntag 188\t\t\tfrom, amount, _msgSender());\\r...\n  JUMPDEST \t\t\tfrom, amount, _msgSender());\\r...\n  PUSH 1\t\t\te\n  DUP6 \t\t\t    // A\n  AND \t\t\t--\\r\\n    // Accep\n  ISZERO \t\t\t-----\\r\\n    // Accept native ...\n  PUSH [tag] 190\t\t\t-----\\r\\n    // Accept native ...\n  JUMPI \t\t\t-----\\r\\n    // Accept native ...\n  DUP1 \t\t\t).sa\n  DUP3 \t\t\t0(tok\n  MUL \t\t\tERC20(token).saf\n  SWAP2 \t\t\t        IERC20(token).saf\n  POP \t\t\t        IERC20(token).saf\ntag 190\t\t\t-----\\r\\n    // Accept native ...\n  JUMPDEST \t\t\t-----\\r\\n    // Accept native ...\n  DUP1 \t\t\tcued\n  DUP2 \t\t\tkenR\n  MUL \t\t\tt TokenRescued(\n  SWAP1 \t\t\t     emit TokenRescued(\n  POP \t\t\t     emit TokenRescued(\n  PUSH [tag] 191\t\t\t}\\r\\n\\r\\n    function rescueAl...\n  DUP6 \t\t\teAllERC2\n  PUSH [tag] 106\t\t\t}\\r\\n\\r\\n    function rescueAl...\n  JUMP \t\t\t}\\r\\n\\r\\n    function rescueAl...\ntag 191\t\t\t}\\r\\n\\r\\n    function rescueAl...\n  JUMPDEST \t\t\t}\\r\\n\\r\\n    function rescueAl...\n  SWAP5 \t\t\tount);\\r\\n    }\\r\\n\\r\\n    fun...\n  POP \t\t\tount);\\r\\n    }\\r\\n\\r\\n    fun...\n  PUSH [tag] 185\t\t\t address(0), \"TIGG: burn from ...\n  JUMP \t\t\t address(0), \"TIGG: burn from ...\ntag 187\t\t\t address(0), \"TIGG: burn from ...\n  JUMPDEST \t\t\t address(0), \"TIGG: burn from ...\n  SWAP5 \t\t\t amount) external onlyRole(BRI...\n  POP \t\t\t amount) external onlyRole(BRI...\n  SWAP5 \t\t\t amount) external onlyRole(BRI...\n  SWAP3 \t\t\t amount) external onlyRole(BRI...\n  POP \t\t\t amount) external onlyRole(BRI...\n  POP \t\t\t amount) external onlyRole(BRI...\n  POP \t\t\t amount) external onlyRole(BRI...\n  JUMP \t\t\t amount) external onlyRole(BRI...\ntag 108\t\t\ts to) external onlyOwner {\\r\\n...\n  JUMPDEST \t\t\ts to) external onlyOwner {\\r\\n...\n  PUSH 0\t\t\tess(0\n  DUP3 \t\t\t  emit T\n  PUSH [tag] 193\t\t\t);\\r\\n        emit TokenRescue...\n  JUMPI \t\t\t);\\r\\n        emit TokenRescue...\n  PUSH 1\t\t\to\n  SWAP1 \t\t\tRescued(to\n  POP \t\t\tRescued(to\n  PUSH [tag] 192\t\t\ten, t\n  JUMP \t\t\ten, t\ntag 193\t\t\t);\\r\\n        emit TokenRescue...\n  JUMPDEST \t\t\t);\\r\\n        emit TokenRescue...\n  DUP2 \t\t\t  fu\n  PUSH [tag] 194\t\t\t   }\\r\\n\\r\\n    function rescu...\n  JUMPI \t\t\t   }\\r\\n\\r\\n    function rescu...\n  PUSH 0\t\t\tN\n  SWAP1 \t\t\ton rescueN\n  POP \t\t\ton rescueN\n  PUSH [tag] 192\t\t\ttive(\n  JUMP \t\t\ttive(\ntag 194\t\t\t   }\\r\\n\\r\\n    function rescu...\n  JUMPDEST \t\t\t   }\\r\\n\\r\\n    function rescu...\n  DUP2 \t\t\t    \n  PUSH 1\t\t\t\\n\n  DUP2 \t\t\to\");\\r\\n        require(amoun\n  EQ \t\t\to\");\\r\\n        require(amoun\n  PUSH [tag] 196\t\t\to\");\\r\\n        require(amoun\n  JUMPI \t\t\to\");\\r\\n        require(amoun\n  PUSH 2\t\t\th\n  DUP2 \t\t\tess(this).balance, \"TIGG: insu...\n  EQ \t\t\tess(this).balance, \"TIGG: insu...\n  PUSH [tag] 197\t\t\tess(this).balance, \"TIGG: insu...\n  JUMPI \t\t\tess(this).balance, \"TIGG: insu...\n  PUSH [tag] 195\t\t\t{\\r\\n        require(to != add...\n  JUMP \t\t\t{\\r\\n        require(to != add...\ntag 196\t\t\to\");\\r\\n        require(amoun\n  JUMPDEST \t\t\to\");\\r\\n        require(amoun\n  PUSH 1\t\t\ti\n  SWAP2 \t\t\t     requi\n  POP \t\t\t     requi\n  POP \t\t\te(amo\n  PUSH [tag] 192\t\t\te(amo\n  JUMP \t\t\te(amo\ntag 197\t\t\tess(this).balance, \"TIGG: insu...\n  JUMPDEST \t\t\tess(this).balance, \"TIGG: insu...\n  PUSH FF\t\t\te\")\n  DUP5 \t\t\tent bala\n  GT \t\t\ticient balance\");\n  ISZERO \t\t\tufficient balance\");\\r\\n      ...\n  PUSH [tag] 198\t\t\tufficient balance\");\\r\\n      ...\n  JUMPI \t\t\tufficient balance\");\\r\\n      ...\n  PUSH [tag] 199\t\t\t       to.transfer\n  PUSH [tag] 105\t\t\t       to.transfer\n  JUMP \t\t\t       to.transfer\ntag 199\t\t\t       to.transfer\n  JUMPDEST \t\t\t       to.transfer\ntag 198\t\t\tufficient balance\");\\r\\n      ...\n  JUMPDEST \t\t\tufficient balance\");\\r\\n      ...\n  DUP4 \t\t\tescued(t\n  PUSH 2\t\t\tv\n  EXP \t\t\tNativeRescued(to\n  SWAP2 \t\t\t    emit NativeRescued(to\n  POP \t\t\t    emit NativeRescued(to\n  DUP5 \t\t\tunc\n  DUP3 \t\t\t\\r\\n   \n  GT \t\t\t}\\r\\n\\r\\n    funct\n  ISZERO \t\t\t   }\\r\\n\\r\\n    function rescu...\n  PUSH [tag] 200\t\t\t   }\\r\\n\\r\\n    function rescu...\n  JUMPI \t\t\t   }\\r\\n\\r\\n    function rescu...\n  PUSH [tag] 201\t\t\t rescueAllNative(a\n  PUSH [tag] 105\t\t\t rescueAllNative(a\n  JUMP \t\t\t rescueAllNative(a\ntag 201\t\t\t rescueAllNative(a\n  JUMPDEST \t\t\t rescueAllNative(a\ntag 200\t\t\t   }\\r\\n\\r\\n    function rescu...\n  JUMPDEST \t\t\t   }\\r\\n\\r\\n    function rescu...\n  POP \t\t\tto) e\n  PUSH [tag] 192\t\t\tto) e\n  JUMP \t\t\tto) e\ntag 195\t\t\t{\\r\\n        require(to != add...\n  JUMPDEST \t\t\t{\\r\\n        require(to != add...\n  POP \t\t\t{\\r\\n        require(to != add...\n  PUSH 20\t\t\t\\n \n  DUP4 \t\t\t.balance\n  LT \t\t\tis).balance;\\r\\n  \n  PUSH 133\t\t\tess\n  DUP4 \t\t\t= ad\n  LT \t\t\tal = address(\n  AND \t\t\t56 bal = address(this).balance...\n  PUSH 4E\t\t\t\")\n  DUP5 \t\t\tG: to ze\n  LT \t\t\tTIGG: to zero\");\n  PUSH B\t\t\t0)\n  DUP5 \t\t\tdres\n  LT \t\t\t address(0),\n  AND \t\t\to != address(0), \"TIGG: to zer...\n  OR \t\t\t       require(to != address(0...\n  ISZERO \t\t\t\\r\\n        require(to != addr...\n  PUSH [tag] 202\t\t\t\\r\\n        require(to != addr...\n  JUMPI \t\t\t\\r\\n        require(to != addr...\n  DUP3 \t\t\t  to.tra\n  DUP3 \t\t\t    \n  EXP \t\t\t);\\r\\n        to.tran\n  SWAP1 \t\t\t balance\");\\r\\n        to.tran\n  POP \t\t\t balance\");\\r\\n        to.tran\n  DUP4 \t\t\tati\n  DUP2 \t\t\t emit\n  GT \t\t\t    emit Nativ\n  ISZERO \t\t\t       emit NativeRescued(to, ...\n  PUSH [tag] 203\t\t\t       emit NativeRescued(to, ...\n  JUMPI \t\t\t       emit NativeRescued(to, ...\n  PUSH [tag] 204\t\t\tscued(to, bal);\\r\\n \n  PUSH [tag] 105\t\t\tscued(to, bal);\\r\\n \n  JUMP \t\t\tscued(to, bal);\\r\\n \ntag 204\t\t\tscued(to, bal);\\r\\n \n  JUMPDEST \t\t\tscued(to, bal);\\r\\n \ntag 203\t\t\t       emit NativeRescued(to, ...\n  JUMPDEST \t\t\t       emit NativeRescued(to, ...\n  PUSH [tag] 192\t\t\t-----\n  JUMP \t\t\t-----\ntag 202\t\t\t\\r\\n        require(to != addr...\n  JUMPDEST \t\t\t\\r\\n        require(to != addr...\n  PUSH [tag] 205\t\t\tlin v5 transfer hook: block tr...\n  DUP5 \t\t\tdur\n  DUP5 \t\t\ttransfer\n  DUP5 \t\t\tbloc\n  PUSH 1\t\t\tk\n  PUSH [tag] 107\t\t\tlin v5 transfer hook: block tr...\n  JUMP \t\t\tlin v5 transfer hook: block tr...\ntag 205\t\t\tlin v5 transfer hook: block tr...\n  JUMPDEST \t\t\tlin v5 transfer hook: block tr...\n  SWAP3 \t\t\t   // OpenZeppelin v5 transfer...\n  POP \t\t\t   // OpenZeppelin v5 transfer...\n  SWAP1 \t\t\t   // OpenZeppelin v5 transfer...\n  POP \t\t\t   // OpenZeppelin v5 transfer...\n  DUP2 \t\t\t----\n  DUP5 \t\t\t---\n  DIV \t\t\t--------------\n  DUP2 \t\t\t  // \n  GT \t\t\t\\n    // -----------------\n  ISZERO \t\t\tcy\\r\\n    // -----------------...\n  PUSH [tag] 206\t\t\tcy\\r\\n    // -----------------...\n  JUMPI \t\t\tcy\\r\\n    // -----------------...\n  PUSH [tag] 207\t\t\t--\\r\\n    function _\n  PUSH [tag] 105\t\t\t--\\r\\n    function _\n  JUMP \t\t\t--\\r\\n    function _\ntag 207\t\t\t--\\r\\n    function _\n  JUMPDEST \t\t\t--\\r\\n    function _\ntag 206\t\t\tcy\\r\\n    // -----------------...\n  JUMPDEST \t\t\tcy\\r\\n    // -----------------...\n  DUP2 \t\t\t, ui\n  DUP2 \t\t\tress \n  MUL \t\t\t address to, uin\n  SWAP1 \t\t\tess from, address to, uin\n  POP \t\t\tess from, address to, uin\ntag 192\t\t\ts to) external onlyOwner {\\r\\n...\n  JUMPDEST \t\t\ts to) external onlyOwner {\\r\\n...\n  SWAP4 \t\t\ts to) external onlyOwner {\\r\\n...\n  SWAP3 \t\t\ts to) external onlyOwner {\\r\\n...\n  POP \t\t\ts to) external onlyOwner {\\r\\n...\n  POP \t\t\ts to) external onlyOwner {\\r\\n...\n  POP \t\t\ts to) external onlyOwner {\\r\\n...\n  JUMP \t\t\ts to) external onlyOwner {\\r\\n...\ntag 27\t\t\t internal override {\\r\\n      ...\n  JUMPDEST \t\t\t internal override {\\r\\n      ...\n  PUSH 0\t\t\tGG: e\n  PUSH [tag] 209\t\t\t\\r\\n        super._update\n  DUP3 \t\t\tpdat\n  PUSH [tag] 90\t\t\t\\r\\n        super._update\n  JUMP \t\t\t\\r\\n        super._update\ntag 209\t\t\t\\r\\n        super._update\n  JUMPDEST \t\t\t\\r\\n        super._update\n  SWAP2 \t\t\topped\");\\r\\n        super._upd...\n  POP \t\t\topped\");\\r\\n        super._upd...\n  PUSH [tag] 210\t\t\t    }\\r\\n\\r\\n    // ----------...\n  DUP4 \t\t\t--------\n  PUSH [tag] 90\t\t\t    }\\r\\n\\r\\n    // ----------...\n  JUMP \t\t\t    }\\r\\n\\r\\n    // ----------...\ntag 210\t\t\t    }\\r\\n\\r\\n    // ----------...\n  JUMPDEST \t\t\t    }\\r\\n\\r\\n    // ----------...\n  SWAP3 \t\t\t, amount);\\r\\n    }\\r\\n\\r\\n   ...\n  POP \t\t\t, amount);\\r\\n    }\\r\\n\\r\\n   ...\n  PUSH [tag] 211\t\t\t Owner convenience role helper...\n  PUSH FFFFFFFFFFFFFFFFFFFFFFFFFFFFFFFFFFFFFFFFFFFFFFFFFFFFFFFFFFFFFFFF\t\t\t// ----------------------\\r\\n ...\n  DUP5 \t\t\tpers\\r\\n  \n  DUP5 \t\t\tle h\n  PUSH [tag] 108\t\t\t Owner convenience role helper...\n  JUMP \t\t\t Owner convenience role helper...\ntag 211\t\t\t Owner convenience role helper...\n  JUMPDEST \t\t\t Owner convenience role helper...\n  SWAP1 \t\t\t-\\r\\n    // Owner convenience ...\n  POP \t\t\t-\\r\\n    // Owner convenience ...\n  SWAP3 \t\t\t internal override {\\r\\n      ...\n  SWAP2 \t\t\t internal override {\\r\\n      ...\n  POP \t\t\t internal override {\\r\\n      ...\n  POP \t\t\t internal override {\\r\\n      ...\n  JUMP \t\t\t internal override {\\r\\n      ...\ntag 29\t\t\tal onlyOwner { _grantRole(MINT...\n  JUMPDEST \t\t\tal onlyOwner { _grantRole(MINT...\n  PUSH 0\t\t\tccount)\n  PUSH [tag] 213\t\t\tn ownerRevokeMinter(\n  DUP3 \t\t\tr\n  PUSH [tag] 90\t\t\tn ownerRevokeMinter(\n  JUMP \t\t\tn ownerRevokeMinter(\ntag 213\t\t\tn ownerRevokeMinter(\n  JUMPDEST \t\t\tn ownerRevokeMinter(\n  SWAP2 \t\t\tnction ownerRevokeMinter(\n  POP \t\t\tnction ownerRevokeMinter(\n  PUSH [tag] 214\t\t\tt) external onlyOwne\n  DUP4 \t\t\tn\n  PUSH [tag] 90\t\t\tt) external onlyOwne\n  JUMP \t\t\tt) external onlyOwne\ntag 214\t\t\tt) external onlyOwne\n  JUMPDEST \t\t\tt) external onlyOwne\n  SWAP3 \t\t\tccount) external onlyOwne\n  POP \t\t\tccount) external onlyOwne\n  DUP3 \t\t\t)\n  DUP3 \t\t\tu\n  MUL \t\t\taccount);\n  PUSH [tag] 215\t\t\terGrantBridge(address account)\n  DUP2 \t\t\tess account\n  PUSH [tag] 90\t\t\terGrantBridge(address account)\n  JUMP \t\t\terGrantBridge(address account)\ntag 215\t\t\terGrantBridge(address account)\n  JUMPDEST \t\t\terGrantBridge(address account)\n  SWAP2 \t\t\tunction ownerGrantBridge(addre...\n  POP \t\t\tunction ownerGrantBridge(addre...\n  DUP3 \t\t\tE\n  DUP3 \t\t\tRIDGE_R\n  DIV \t\t\tle(BRIDGE_ROLE,\n  DUP5 \t\t\te\n  EQ \t\t\tvokeRole(BRIDGE_ROLE, \n  DUP4 \t\t\te\n  ISZERO \t\t\tnt) exter\n  OR \t\t\tBridge(address account) extern...\n  PUSH [tag] 216\t\t\t   function ownerRevokeBridge(...\n  JUMPI \t\t\t   function ownerRevokeBridge(...\n  PUSH [tag] 217\t\t\t\n  PUSH [tag] 105\t\t\t\n  JUMP \t\t\t\ntag 217\t\t\t\n  JUMPDEST \t\t\t\ntag 216\t\t\t   function ownerRevokeBridge(...\n  JUMPDEST \t\t\t   function ownerRevokeBridge(...\n  POP \t\t\t }\\r\\n    function ownerRevoke...\n  SWAP3 \t\t\tal onlyOwner { _grantRole(MINT...\n  SWAP2 \t\t\tal onlyOwner { _grantRole(MINT...\n  POP \t\t\tal onlyOwner { _grantRole(MINT...\n  POP \t\t\tal onlyOwner { _grantRole(MINT...\n  JUMP \t\t\tal onlyOwner { _grantRole(MINT...\ntag 45\t\t\t\n  JUMPDEST \t\t\t\n  PUSH 4E487B7100000000000000000000000000000000000000000000000000000000\t\t\t\n  PUSH 0\t\t\t\n  MSTORE \t\t\t\n  PUSH 32\t\t\t\n  PUSH 4\t\t\t\n  MSTORE \t\t\t\n  PUSH 24\t\t\t\n  PUSH 0\t\t\t\n  REVERT \t\t\t\ntag 109\t\t\t\n  JUMPDEST \t\t\t\n  PUSH 0\t\t\t\n  DUP3 \t\t\t\n  DUP3 \t\t\t\n  MSTORE \t\t\t\n  PUSH 20\t\t\t\n  DUP3 \t\t\t\n  ADD \t\t\t\n  SWAP1 \t\t\t\n  POP \t\t\t\n  SWAP3 \t\t\t\n  SWAP2 \t\t\t\n  POP \t\t\t\n  POP \t\t\t\n  JUMP \t\t\t\ntag 110\t\t\t\n  JUMPDEST \t\t\t\n  PUSH 544947473A20656D657267656E63792073746F70706564000000000000000000\t\t\t\n  PUSH 0\t\t\t\n  DUP3 \t\t\t\n  ADD \t\t\t\n  MSTORE \t\t\t\n  POP \t\t\t\n  JUMP \t\t\t\ntag 111\t\t\t\n  JUMPDEST \t\t\t\n  PUSH 0\t\t\t\n  PUSH [tag] 222\t\t\t\n  PUSH 17\t\t\t\n  DUP4 \t\t\t\n  PUSH [tag] 109\t\t\t\n  JUMP \t\t\t\ntag 222\t\t\t\n  JUMPDEST \t\t\t\n  SWAP2 \t\t\t\n  POP \t\t\t\n  PUSH [tag] 223\t\t\t\n  DUP3 \t\t\t\n  PUSH [tag] 110\t\t\t\n  JUMP \t\t\t\ntag 223\t\t\t\n  JUMPDEST \t\t\t\n  PUSH 20\t\t\t\n  DUP3 \t\t\t\n  ADD \t\t\t\n  SWAP1 \t\t\t\n  POP \t\t\t\n  SWAP2 \t\t\t\n  SWAP1 \t\t\t\n  POP \t\t\t\n  JUMP \t\t\t\ntag 67\t\t\t\n  JUMPDEST \t\t\t\n  PUSH 0\t\t\t\n  PUSH 20\t\t\t\n  DUP3 \t\t\t\n  ADD \t\t\t\n  SWAP1 \t\t\t\n  POP \t\t\t\n  DUP2 \t\t\t\n  DUP2 \t\t\t\n  SUB \t\t\t\n  PUSH 0\t\t\t\n  DUP4 \t\t\t\n  ADD \t\t\t\n  MSTORE \t\t\t\n  PUSH [tag] 225\t\t\t\n  DUP2 \t\t\t\n  PUSH [tag] 111\t\t\t\n  JUMP \t\t\t\ntag 225\t\t\t\n  JUMPDEST \t\t\t\n  SWAP1 \t\t\t\n  POP \t\t\t\n  SWAP2 \t\t\t\n  SWAP1 \t\t\t\n  POP \t\t\t\n  JUMP \t\t\t\ntag 73\t\t\t\n  JUMPDEST \t\t\t\n  PUSH 0\t\t\t\n  PUSH [tag] 227\t\t\t\n  DUP3 \t\t\t\n  PUSH [tag] 90\t\t\t\n  JUMP \t\t\t\ntag 227\t\t\t\n  JUMPDEST \t\t\t\n  SWAP2 \t\t\t\n  POP \t\t\t\n  PUSH [tag] 228\t\t\t\n  DUP4 \t\t\t\n  PUSH [tag] 90\t\t\t\n  JUMP \t\t\t\ntag 228\t\t\t\n  JUMPDEST \t\t\t\n  SWAP3 \t\t\t\n  POP \t\t\t\n  DUP3 \t\t\t\n  DUP3 \t\t\t\n  ADD \t\t\t\n  SWAP1 \t\t\t\n  POP \t\t\t\n  DUP1 \t\t\t\n  DUP3 \t\t\t\n  GT \t\t\t\n  ISZERO \t\t\t\n  PUSH [tag] 229\t\t\t\n  JUMPI \t\t\t\n  PUSH [tag] 230\t\t\t\n  PUSH [tag] 105\t\t\t\n  JUMP \t\t\t\ntag 230\t\t\t\n  JUMPDEST \t\t\t\ntag 229\t\t\t\n  JUMPDEST \t\t\t\n  SWAP3 \t\t\t\n  SWAP2 \t\t\t\n  POP \t\t\t\n  POP \t\t\t\n  JUMP \t\t\t\ntag 112\t\t\t\n  JUMPDEST \t\t\t\n  PUSH [tag] 232\t\t\t\n  DUP2 \t\t\t\n  PUSH [tag] 90\t\t\t\n  JUMP \t\t\t\ntag 232\t\t\t\n  JUMPDEST \t\t\t\n  DUP3 \t\t\t\n  MSTORE \t\t\t\n  POP \t\t\t\n  POP \t\t\t\n  JUMP \t\t\t\ntag 77\t\t\t\n  JUMPDEST \t\t\t\n  PUSH 0\t\t\t\n  PUSH 60\t\t\t\n  DUP3 \t\t\t\n  ADD \t\t\t\n  SWAP1 \t\t\t\n  POP \t\t\t\n  PUSH [tag] 234\t\t\t\n  PUSH 0\t\t\t\n  DUP4 \t\t\t\n  ADD \t\t\t\n  DUP7 \t\t\t\n  PUSH [tag] 104\t\t\t\n  JUMP \t\t\t\ntag 234\t\t\t\n  JUMPDEST \t\t\t\n  PUSH [tag] 235\t\t\t\n  PUSH 20\t\t\t\n  DUP4 \t\t\t\n  ADD \t\t\t\n  DUP6 \t\t\t\n  PUSH [tag] 112\t\t\t\n  JUMP \t\t\t\ntag 235\t\t\t\n  JUMPDEST \t\t\t\n  PUSH [tag] 236\t\t\t\n  PUSH 40\t\t\t\n  DUP4 \t\t\t\n  ADD \t\t\t\n  DUP5 \t\t\t\n  PUSH [tag] 112\t\t\t\n  JUMP \t\t\t\ntag 236\t\t\t\n  JUMPDEST \t\t\t\n  SWAP5 \t\t\t\n  SWAP4 \t\t\t\n  POP \t\t\t\n  POP \t\t\t\n  POP \t\t\t\n  POP \t\t\t\n  JUMP \t\t\t\ntag 81\t\t\t\n  JUMPDEST \t\t\t\n  PUSH 0\t\t\t\n  PUSH 20\t\t\t\n  DUP3 \t\t\t\n  ADD \t\t\t\n  SWAP1 \t\t\t\n  POP \t\t\t\n  PUSH [tag] 238\t\t\t\n  PUSH 0\t\t\t\n  DUP4 \t\t\t\n  ADD \t\t\t\n  DUP5 \t\t\t\n  PUSH [tag] 112\t\t\t\n  JUMP \t\t\t\ntag 238\t\t\t\n  JUMPDEST \t\t\t\n  SWAP3 \t\t\t\n  SWAP2 \t\t\t\n  POP \t\t\t\n  POP \t\t\t\n  JUMP \t\t\t\ntag 49\t\t\tntract TIGGCOIN is ERC20, Acce...\n  JUMPDEST \t\t\tntract TIGGCOIN is ERC20, Acce...\n  PUSH #[$] 0000000000000000000000000000000000000000000000000000000000000000\t\t\tntract TIGGCOIN is ERC20, Acce...\n  DUP1 \t\t\tntract TIGGCOIN is ERC20, Acce...\n  PUSH [$] 0000000000000000000000000000000000000000000000000000000000000000\t\t\tntract TIGGCOIN is ERC20, Acce...\n  PUSH 0\t\t\tntract TIGGCOIN is ERC20, Acce...\n  CODECOPY \t\t\tntract TIGGCOIN is ERC20, Acce...\n  PUSH 0\t\t\tntract TIGGCOIN is ERC20, Acce...\n  RETURN \t\t\tntract TIGGCOIN is ERC20, Acce...\n.data\n  0:\n    .code\n      PUSH 80\t\t\tntract TIGGCOIN is ERC20, Acce...\n      PUSH 40\t\t\tntract TIGGCOIN is ERC20, Acce...\n      MSTORE \t\t\tntract TIGGCOIN is ERC20, Acce...\n      PUSH 4\t\t\tntract TIGGCOIN is ERC20, Acce...\n      CALLDATASIZE \t\t\tntract TIGGCOIN is ERC20, Acce...\n      LT \t\t\tntract TIGGCOIN is ERC20, Acce...\n      PUSH [tag] 1\t\t\tntract TIGGCOIN is ERC20, Acce...\n      JUMPI \t\t\tntract TIGGCOIN is ERC20, Acce...\n      PUSH 0\t\t\tntract TIGGCOIN is ERC20, Acce...\n      CALLDATALOAD \t\t\tntract TIGGCOIN is ERC20, Acce...\n      PUSH E0\t\t\tntract TIGGCOIN is ERC20, Acce...\n      SHR \t\t\tntract TIGGCOIN is ERC20, Acce...\n      DUP1 \t\t\tntract TIGGCOIN is ERC20, Acce...\n      PUSH 715018A6\t\t\tntract TIGGCOIN is ERC20, Acce...\n      GT \t\t\tntract TIGGCOIN is ERC20, Acce...\n      PUSH [tag] 44\t\t\tntract TIGGCOIN is ERC20, Acce...\n      JUMPI \t\t\tntract TIGGCOIN is ERC20, Acce...\n      DUP1 \t\t\tntract TIGGCOIN is ERC20, Acce...\n      PUSH A9059CBB\t\t\tntract TIGGCOIN is ERC20, Acce...\n      GT \t\t\tntract TIGGCOIN is ERC20, Acce...\n      PUSH [tag] 45\t\t\tntract TIGGCOIN is ERC20, Acce...\n      JUMPI \t\t\tntract TIGGCOIN is ERC20, Acce...\n      DUP1 \t\t\tntract TIGGCOIN is ERC20, Acce...\n      PUSH D2CD0CD8\t\t\tntract TIGGCOIN is ERC20, Acce...\n      GT \t\t\tntract TIGGCOIN is ERC20, Acce...\n      PUSH [tag] 46\t\t\tntract TIGGCOIN is ERC20, Acce...\n      JUMPI \t\t\tntract TIGGCOIN is ERC20, Acce...\n      DUP1 \t\t\tntract TIGGCOIN is ERC20, Acce...\n      PUSH D2CD0CD8\t\t\tntract TIGGCOIN is ERC20, Acce...\n      EQ \t\t\tntract TIGGCOIN is ERC20, Acce...\n      PUSH [tag] 38\t\t\tntract TIGGCOIN is ERC20, Acce...\n      JUMPI \t\t\tntract TIGGCOIN is ERC20, Acce...\n      DUP1 \t\t\tntract TIGGCOIN is ERC20, Acce...\n      PUSH D5391393\t\t\tntract TIGGCOIN is ERC20, Acce...\n      EQ \t\t\tntract TIGGCOIN is ERC20, Acce...\n      PUSH [tag] 39\t\t\tntract TIGGCOIN is ERC20, Acce...\n      JUMPI \t\t\tntract TIGGCOIN is ERC20, Acce...\n      DUP1 \t\t\tntract TIGGCOIN is ERC20, Acce...\n      PUSH D547741F\t\t\tntract TIGGCOIN is ERC20, Acce...\n      EQ \t\t\tntract TIGGCOIN is ERC20, Acce...\n      PUSH [tag] 40\t\t\tntract TIGGCOIN is ERC20, Acce...\n      JUMPI \t\t\tntract TIGGCOIN is ERC20, Acce...\n      DUP1 \t\t\tntract TIGGCOIN is ERC20, Acce...\n      PUSH DD62ED3E\t\t\tntract TIGGCOIN is ERC20, Acce...\n      EQ \t\t\tntract TIGGCOIN is ERC20, Acce...\n      PUSH [tag] 41\t\t\tntract TIGGCOIN is ERC20, Acce...\n      JUMPI \t\t\tntract TIGGCOIN is ERC20, Acce...\n      DUP1 \t\t\tntract TIGGCOIN is ERC20, Acce...\n      PUSH E2749C96\t\t\tntract TIGGCOIN is ERC20, Acce...\n      EQ \t\t\tntract TIGGCOIN is ERC20, Acce...\n      PUSH [tag] 42\t\t\tntract TIGGCOIN is ERC20, Acce...\n      JUMPI \t\t\tntract TIGGCOIN is ERC20, Acce...\n      DUP1 \t\t\tntract TIGGCOIN is ERC20, Acce...\n      PUSH F2FDE38B\t\t\tntract TIGGCOIN is ERC20, Acce...\n      EQ \t\t\tntract TIGGCOIN is ERC20, Acce...\n      PUSH [tag] 43\t\t\tntract TIGGCOIN is ERC20, Acce...\n      JUMPI \t\t\tntract TIGGCOIN is ERC20, Acce...\n      PUSH [tag] 2\t\t\tntract TIGGCOIN is ERC20, Acce...\n      JUMP \t\t\tntract TIGGCOIN is ERC20, Acce...\n    tag 46\t\t\tntract TIGGCOIN is ERC20, Acce...\n      JUMPDEST \t\t\tntract TIGGCOIN is ERC20, Acce...\n      DUP1 \t\t\tntract TIGGCOIN is ERC20, Acce...\n      PUSH A9059CBB\t\t\tntract TIGGCOIN is ERC20, Acce...\n      EQ \t\t\tntract TIGGCOIN is ERC20, Acce...\n      PUSH [tag] 33\t\t\tntract TIGGCOIN is ERC20, Acce...\n      JUMPI \t\t\tntract TIGGCOIN is ERC20, Acce...\n      DUP1 \t\t\tntract TIGGCOIN is ERC20, Acce...\n      PUSH ABAF2111\t\t\tntract TIGGCOIN is ERC20, Acce...\n      EQ \t\t\tntract TIGGCOIN is ERC20, Acce...\n      PUSH [tag] 34\t\t\tntract TIGGCOIN is ERC20, Acce...\n      JUMPI \t\t\tntract TIGGCOIN is ERC20, Acce...\n      DUP1 \t\t\tntract TIGGCOIN is ERC20, Acce...\n      PUSH B2118A8D\t\t\tntract TIGGCOIN is ERC20, Acce...\n      EQ \t\t\tntract TIGGCOIN is ERC20, Acce...\n      PUSH [tag] 35\t\t\tntract TIGGCOIN is ERC20, Acce...\n      JUMPI \t\t\tntract TIGGCOIN is ERC20, Acce...\n      DUP1 \t\t\tntract TIGGCOIN is ERC20, Acce...\n      PUSH B5BFDDEA\t\t\tntract TIGGCOIN is ERC20, Acce...\n      EQ \t\t\tntract TIGGCOIN is ERC20, Acce...\n      PUSH [tag] 36\t\t\tntract TIGGCOIN is ERC20, Acce...\n      JUMPI \t\t\tntract TIGGCOIN is ERC20, Acce...\n      DUP1 \t\t\tntract TIGGCOIN is ERC20, Acce...\n      PUSH C0A317B8\t\t\tntract TIGGCOIN is ERC20, Acce...\n      EQ \t\t\tntract TIGGCOIN is ERC20, Acce...\n      PUSH [tag] 37\t\t\tntract TIGGCOIN is ERC20, Acce...\n      JUMPI \t\t\tntract TIGGCOIN is ERC20, Acce...\n      PUSH [tag] 2\t\t\tntract TIGGCOIN is ERC20, Acce...\n      JUMP \t\t\tntract TIGGCOIN is ERC20, Acce...\n    tag 45\t\t\tntract TIGGCOIN is ERC20, Acce...\n      JUMPDEST \t\t\tntract TIGGCOIN is ERC20, Acce...\n      DUP1 \t\t\tntract TIGGCOIN is ERC20, Acce...\n      PUSH 8C2A993E\t\t\tntract TIGGCOIN is ERC20, Acce...\n      GT \t\t\tntract TIGGCOIN is ERC20, Acce...\n      PUSH [tag] 47\t\t\tntract TIGGCOIN is ERC20, Acce...\n      JUMPI \t\t\tntract TIGGCOIN is ERC20, Acce...\n      DUP1 \t\t\tntract TIGGCOIN is ERC20, Acce...\n      PUSH 8C2A993E\t\t\tntract TIGGCOIN is ERC20, Acce...\n      EQ \t\t\tntract TIGGCOIN is ERC20, Acce...\n      PUSH [tag] 28\t\t\tntract TIGGCOIN is ERC20, Acce...\n      JUMPI \t\t\tntract TIGGCOIN is ERC20, Acce...\n      DUP1 \t\t\tntract TIGGCOIN is ERC20, Acce...\n      PUSH 8DA5CB5B\t\t\tntract TIGGCOIN is ERC20, Acce...\n      EQ \t\t\tntract TIGGCOIN is ERC20, Acce...\n      PUSH [tag] 29\t\t\tntract TIGGCOIN is ERC20, Acce...\n      JUMPI \t\t\tntract TIGGCOIN is ERC20, Acce...\n      DUP1 \t\t\tntract TIGGCOIN is ERC20, Acce...\n      PUSH 91D14854\t\t\tntract TIGGCOIN is ERC20, Acce...\n      EQ \t\t\tntract TIGGCOIN is ERC20, Acce...\n      PUSH [tag] 30\t\t\tntract TIGGCOIN is ERC20, Acce...\n      JUMPI \t\t\tntract TIGGCOIN is ERC20, Acce...\n      DUP1 \t\t\tntract TIGGCOIN is ERC20, Acce...\n      PUSH 95D89B41\t\t\tntract TIGGCOIN is ERC20, Acce...\n      EQ \t\t\tntract TIGGCOIN is ERC20, Acce...\n      PUSH [tag] 31\t\t\tntract TIGGCOIN is ERC20, Acce...\n      JUMPI \t\t\tntract TIGGCOIN is ERC20, Acce...\n      DUP1 \t\t\tntract TIGGCOIN is ERC20, Acce...\n      PUSH A217FDDF\t\t\tntract TIGGCOIN is ERC20, Acce...\n      EQ \t\t\tntract TIGGCOIN is ERC20, Acce...\n      PUSH [tag] 32\t\t\tntract TIGGCOIN is ERC20, Acce...\n      JUMPI \t\t\tntract TIGGCOIN is ERC20, Acce...\n      PUSH [tag] 2\t\t\tntract TIGGCOIN is ERC20, Acce...\n      JUMP \t\t\tntract TIGGCOIN is ERC20, Acce...\n    tag 47\t\t\tntract TIGGCOIN is ERC20, Acce...\n      JUMPDEST \t\t\tntract TIGGCOIN is ERC20, Acce...\n      DUP1 \t\t\tntract TIGGCOIN is ERC20, Acce...\n      PUSH 715018A6\t\t\tntract TIGGCOIN is ERC20, Acce...\n      EQ \t\t\tntract TIGGCOIN is ERC20, Acce...\n      PUSH [tag] 23\t\t\tntract TIGGCOIN is ERC20, Acce...\n      JUMPI \t\t\tntract TIGGCOIN is ERC20, Acce...\n      DUP1 \t\t\tntract TIGGCOIN is ERC20, Acce...\n      PUSH 733D8665\t\t\tntract TIGGCOIN is ERC20, Acce...\n      EQ \t\t\tntract TIGGCOIN is ERC20, Acce...\n      PUSH [tag] 24\t\t\tntract TIGGCOIN is ERC20, Acce...\n      JUMPI \t\t\tntract TIGGCOIN is ERC20, Acce...\n      DUP1 \t\t\tntract TIGGCOIN is ERC20, Acce...\n      PUSH 74F4F547\t\t\tntract TIGGCOIN is ERC20, Acce...\n      EQ \t\t\tntract TIGGCOIN is ERC20, Acce...\n      PUSH [tag] 25\t\t\tntract TIGGCOIN is ERC20, Acce...\n      JUMPI \t\t\tntract TIGGCOIN is ERC20, Acce...\n      DUP1 \t\t\tntract TIGGCOIN is ERC20, Acce...\n      PUSH 7B018E33\t\t\tntract TIGGCOIN is ERC20, Acce...\n      EQ \t\t\tntract TIGGCOIN is ERC20, Acce...\n      PUSH [tag] 26\t\t\tntract TIGGCOIN is ERC20, Acce...\n      JUMPI \t\t\tntract TIGGCOIN is ERC20, Acce...\n      DUP1 \t\t\tntract TIGGCOIN is ERC20, Acce...\n      PUSH 83EFCD39\t\t\tntract TIGGCOIN is ERC20, Acce...\n      EQ \t\t\tntract TIGGCOIN is ERC20, Acce...\n      PUSH [tag] 27\t\t\tntract TIGGCOIN is ERC20, Acce...\n      JUMPI \t\t\tntract TIGGCOIN is ERC20, Acce...\n      PUSH [tag] 2\t\t\tntract TIGGCOIN is ERC20, Acce...\n      JUMP \t\t\tntract TIGGCOIN is ERC20, Acce...\n    tag 44\t\t\tntract TIGGCOIN is ERC20, Acce...\n      JUMPDEST \t\t\tntract TIGGCOIN is ERC20, Acce...\n      DUP1 \t\t\tntract TIGGCOIN is ERC20, Acce...\n      PUSH 313CE567\t\t\tntract TIGGCOIN is ERC20, Acce...\n      GT \t\t\tntract TIGGCOIN is ERC20, Acce...\n      PUSH [tag] 48\t\t\tntract TIGGCOIN is ERC20, Acce...\n      JUMPI \t\t\tntract TIGGCOIN is ERC20, Acce...\n      DUP1 \t\t\tntract TIGGCOIN is ERC20, Acce...\n      PUSH 58B214AC\t\t\tntract TIGGCOIN is ERC20, Acce...\n      GT \t\t\tntract TIGGCOIN is ERC20, Acce...\n      PUSH [tag] 49\t\t\tntract TIGGCOIN is ERC20, Acce...\n      JUMPI \t\t\tntract TIGGCOIN is ERC20, Acce...\n      DUP1 \t\t\tntract TIGGCOIN is ERC20, Acce...\n      PUSH 58B214AC\t\t\tntract TIGGCOIN is ERC20, Acce...\n      EQ \t\t\tntract TIGGCOIN is ERC20, Acce...\n      PUSH [tag] 18\t\t\tntract TIGGCOIN is ERC20, Acce...\n      JUMPI \t\t\tntract TIGGCOIN is ERC20, Acce...\n      DUP1 \t\t\tntract TIGGCOIN is ERC20, Acce...\n      PUSH 6375952A\t\t\tntract TIGGCOIN is ERC20, Acce...\n      EQ \t\t\tntract TIGGCOIN is ERC20, Acce...\n      PUSH [tag] 19\t\t\tntract TIGGCOIN is ERC20, Acce...\n      JUMPI \t\t\tntract TIGGCOIN is ERC20, Acce...\n      DUP1 \t\t\tntract TIGGCOIN is ERC20, Acce...\n      PUSH 6389A44D\t\t\tntract TIGGCOIN is ERC20, Acce...\n      EQ \t\t\tntract TIGGCOIN is ERC20, Acce...\n      PUSH [tag] 20\t\t\tntract TIGGCOIN is ERC20, Acce...\n      JUMPI \t\t\tntract TIGGCOIN is ERC20, Acce...\n      DUP1 \t\t\tntract TIGGCOIN is ERC20, Acce...\n      PUSH 63A599A4\t\t\tntract TIGGCOIN is ERC20, Acce...\n      EQ \t\t\tntract TIGGCOIN is ERC20, Acce...\n      PUSH [tag] 21\t\t\tntract TIGGCOIN is ERC20, Acce...\n      JUMPI \t\t\tntract TIGGCOIN is ERC20, Acce...\n      DUP1 \t\t\tntract TIGGCOIN is ERC20, Acce...\n      PUSH 70A08231\t\t\tntract TIGGCOIN is ERC20, Acce...\n      EQ \t\t\tntract TIGGCOIN is ERC20, Acce...\n      PUSH [tag] 22\t\t\tntract TIGGCOIN is ERC20, Acce...\n      JUMPI \t\t\tntract TIGGCOIN is ERC20, Acce...\n      PUSH [tag] 2\t\t\tntract TIGGCOIN is ERC20, Acce...\n      JUMP \t\t\tntract TIGGCOIN is ERC20, Acce...\n    tag 49\t\t\tntract TIGGCOIN is ERC20, Acce...\n      JUMPDEST \t\t\tntract TIGGCOIN is ERC20, Acce...\n      DUP1 \t\t\tntract TIGGCOIN is ERC20, Acce...\n      PUSH 313CE567\t\t\tntract TIGGCOIN is ERC20, Acce...\n      EQ \t\t\tntract TIGGCOIN is ERC20, Acce...\n      PUSH [tag] 13\t\t\tntract TIGGCOIN is ERC20, Acce...\n      JUMPI \t\t\tntract TIGGCOIN is ERC20, Acce...\n      DUP1 \t\t\tntract TIGGCOIN is ERC20, Acce...\n      PUSH 32CB6B0C\t\t\tntract TIGGCOIN is ERC20, Acce...\n      EQ \t\t\tntract TIGGCOIN is ERC20, Acce...\n      PUSH [tag] 14\t\t\tntract TIGGCOIN is ERC20, Acce...\n      JUMPI \t\t\tntract TIGGCOIN is ERC20, Acce...\n      DUP1 \t\t\tntract TIGGCOIN is ERC20, Acce...\n      PUSH 36568ABE\t\t\tntract TIGGCOIN is ERC20, Acce...\n      EQ \t\t\tntract TIGGCOIN is ERC20, Acce...\n      PUSH [tag] 15\t\t\tntract TIGGCOIN is ERC20, Acce...\n      JUMPI \t\t\tntract TIGGCOIN is ERC20, Acce...\n      DUP1 \t\t\tntract TIGGCOIN is ERC20, Acce...\n      PUSH 4D2F79FF\t\t\tntract TIGGCOIN is ERC20, Acce...\n      EQ \t\t\tntract TIGGCOIN is ERC20, Acce...\n      PUSH [tag] 16\t\t\tntract TIGGCOIN is ERC20, Acce...\n      JUMPI \t\t\tntract TIGGCOIN is ERC20, Acce...\n      DUP1 \t\t\tntract TIGGCOIN is ERC20, Acce...\n      PUSH 4D57382A\t\t\tntract TIGGCOIN is ERC20, Acce...\n      EQ \t\t\tntract TIGGCOIN is ERC20, Acce...\n      PUSH [tag] 17\t\t\tntract TIGGCOIN is ERC20, Acce...\n      JUMPI \t\t\tntract TIGGCOIN is ERC20, Acce...\n      PUSH [tag] 2\t\t\tntract TIGGCOIN is ERC20, Acce...\n      JUMP \t\t\tntract TIGGCOIN is ERC20, Acce...\n    tag 48\t\t\tntract TIGGCOIN is ERC20, Acce...\n      JUMPDEST \t\t\tntract TIGGCOIN is ERC20, Acce...\n      DUP1 \t\t\tntract TIGGCOIN is ERC20, Acce...\n      PUSH 23B872DD\t\t\tntract TIGGCOIN is ERC20, Acce...\n      GT \t\t\tntract TIGGCOIN is ERC20, Acce...\n      PUSH [tag] 50\t\t\tntract TIGGCOIN is ERC20, Acce...\n      JUMPI \t\t\tntract TIGGCOIN is ERC20, Acce...\n      DUP1 \t\t\tntract TIGGCOIN is ERC20, Acce...\n      PUSH 23B872DD\t\t\tntract TIGGCOIN is ERC20, Acce...\n      EQ \t\t\tntract TIGGCOIN is ERC20, Acce...\n      PUSH [tag] 8\t\t\tntract TIGGCOIN is ERC20, Acce...\n      JUMPI \t\t\tntract TIGGCOIN is ERC20, Acce...\n      DUP1 \t\t\tntract TIGGCOIN is ERC20, Acce...\n      PUSH 248A9CA3\t\t\tntract TIGGCOIN is ERC20, Acce...\n      EQ \t\t\tntract TIGGCOIN is ERC20, Acce...\n      PUSH [tag] 9\t\t\tntract TIGGCOIN is ERC20, Acce...\n      JUMPI \t\t\tntract TIGGCOIN is ERC20, Acce...\n      DUP1 \t\t\tntract TIGGCOIN is ERC20, Acce...\n      PUSH 28BCEF04\t\t\tntract TIGGCOIN is ERC20, Acce...\n      EQ \t\t\tntract TIGGCOIN is ERC20, Acce...\n      PUSH [tag] 10\t\t\tntract TIGGCOIN is ERC20, Acce...\n      JUMPI \t\t\tntract TIGGCOIN is ERC20, Acce...\n      DUP1 \t\t\tntract TIGGCOIN is ERC20, Acce...\n      PUSH 2F2FF15D\t\t\tntract TIGGCOIN is ERC20, Acce...\n      EQ \t\t\tntract TIGGCOIN is ERC20, Acce...\n      PUSH [tag] 11\t\t\tntract TIGGCOIN is ERC20, Acce...\n      JUMPI \t\t\tntract TIGGCOIN is ERC20, Acce...\n      DUP1 \t\t\tntract TIGGCOIN is ERC20, Acce...\n      PUSH 2FF2E9DC\t\t\tntract TIGGCOIN is ERC20, Acce...\n      EQ \t\t\tntract TIGGCOIN is ERC20, Acce...\n      PUSH [tag] 12\t\t\tntract TIGGCOIN is ERC20, Acce...\n      JUMPI \t\t\tntract TIGGCOIN is ERC20, Acce...\n      PUSH [tag] 2\t\t\tntract TIGGCOIN is ERC20, Acce...\n      JUMP \t\t\tntract TIGGCOIN is ERC20, Acce...\n    tag 50\t\t\tntract TIGGCOIN is ERC20, Acce...\n      JUMPDEST \t\t\tntract TIGGCOIN is ERC20, Acce...\n      DUP1 \t\t\tntract TIGGCOIN is ERC20, Acce...\n      PUSH 1FFC9A7\t\t\tntract TIGGCOIN is ERC20, Acce...\n      EQ \t\t\tntract TIGGCOIN is ERC20, Acce...\n      PUSH [tag] 3\t\t\tntract TIGGCOIN is ERC20, Acce...\n      JUMPI \t\t\tntract TIGGCOIN is ERC20, Acce...\n      DUP1 \t\t\tntract TIGGCOIN is ERC20, Acce...\n      PUSH 6FDDE03\t\t\tntract TIGGCOIN is ERC20, Acce...\n      EQ \t\t\tntract TIGGCOIN is ERC20, Acce...\n      PUSH [tag] 4\t\t\tntract TIGGCOIN is ERC20, Acce...\n      JUMPI \t\t\tntract TIGGCOIN is ERC20, Acce...\n      DUP1 \t\t\tntract TIGGCOIN is ERC20, Acce...\n      PUSH 95EA7B3\t\t\tntract TIGGCOIN is ERC20, Acce...\n      EQ \t\t\tntract TIGGCOIN is ERC20, Acce...\n      PUSH [tag] 5\t\t\tntract TIGGCOIN is ERC20, Acce...\n      JUMPI \t\t\tntract TIGGCOIN is ERC20, Acce...\n      DUP1 \t\t\tntract TIGGCOIN is ERC20, Acce...\n      PUSH 1291F79D\t\t\tntract TIGGCOIN is ERC20, Acce...\n      EQ \t\t\tntract TIGGCOIN is ERC20, Acce...\n      PUSH [tag] 6\t\t\tntract TIGGCOIN is ERC20, Acce...\n      JUMPI \t\t\tntract TIGGCOIN is ERC20, Acce...\n      DUP1 \t\t\tntract TIGGCOIN is ERC20, Acce...\n      PUSH 18160DDD\t\t\tntract TIGGCOIN is ERC20, Acce...\n      EQ \t\t\tntract TIGGCOIN is ERC20, Acce...\n      PUSH [tag] 7\t\t\tntract TIGGCOIN is ERC20, Acce...\n      JUMPI \t\t\tntract TIGGCOIN is ERC20, Acce...\n      PUSH [tag] 2\t\t\tntract TIGGCOIN is ERC20, Acce...\n      JUMP \t\t\tntract TIGGCOIN is ERC20, Acce...\n    tag 1\t\t\tntract TIGGCOIN is ERC20, Acce...\n      JUMPDEST \t\t\tntract TIGGCOIN is ERC20, Acce...\n      CALLDATASIZE \t\t\tntract TIGGCOIN is ERC20, Acce...\n      PUSH [tag] 2\t\t\tntract TIGGCOIN is ERC20, Acce...\n      JUMPI \t\t\tntract TIGGCOIN is ERC20, Acce...\n      STOP \t\t\tntract TIGGCOIN is ERC20, Acce...\n    tag 2\t\t\tntract TIGGCOIN is ERC20, Acce...\n      JUMPDEST \t\t\tntract TIGGCOIN is ERC20, Acce...\n      STOP \t\t\tntract TIGGCOIN is ERC20, Acce...\n    tag 3\t\t\t6 timestamp);\\r\\n\\r\\n    const...\n      JUMPDEST \t\t\t6 timestamp);\\r\\n\\r\\n    const...\n      CALLVALUE \t\t\t6 timestamp);\\r\\n\\r\\n    const...\n      DUP1 \t\t\t6 timestamp);\\r\\n\\r\\n    const...\n      ISZERO \t\t\t6 timestamp);\\r\\n\\r\\n    const...\n      PUSH [tag] 55\t\t\t6 timestamp);\\r\\n\\r\\n    const...\n      JUMPI \t\t\t6 timestamp);\\r\\n\\r\\n    const...\n      PUSH 0\t\t\t6 timestamp);\\r\\n\\r\\n    const...\n      DUP1 \t\t\t6 timestamp);\\r\\n\\r\\n    const...\n      REVERT \t\t\t6 timestamp);\\r\\n\\r\\n    const...\n    tag 55\t\t\t6 timestamp);\\r\\n\\r\\n    const...\n      JUMPDEST \t\t\t6 timestamp);\\r\\n\\r\\n    const...\n      POP \t\t\t6 timestamp);\\r\\n\\r\\n    const...\n      PUSH [tag] 56\t\t\t6 timestamp);\\r\\n\\r\\n    const...\n      PUSH 4\t\t\t6 timestamp);\\r\\n\\r\\n    const...\n      DUP1 \t\t\t6 timestamp);\\r\\n\\r\\n    const...\n      CALLDATASIZE \t\t\t6 timestamp);\\r\\n\\r\\n    const...\n      SUB \t\t\t6 timestamp);\\r\\n\\r\\n    const...\n      DUP2 \t\t\t6 timestamp);\\r\\n\\r\\n    const...\n      ADD \t\t\t6 timestamp);\\r\\n\\r\\n    const...\n      SWAP1 \t\t\t6 timestamp);\\r\\n\\r\\n    const...\n      PUSH [tag] 57\t\t\t6 timestamp);\\r\\n\\r\\n    const...\n      SWAP2 \t\t\t6 timestamp);\\r\\n\\r\\n    const...\n      SWAP1 \t\t\t6 timestamp);\\r\\n\\r\\n    const...\n      PUSH [tag] 58\t\t\t6 timestamp);\\r\\n\\r\\n    const...\n      JUMP \t\t\t6 timestamp);\\r\\n\\r\\n    const...\n    tag 57\t\t\t6 timestamp);\\r\\n\\r\\n    const...\n      JUMPDEST \t\t\t6 timestamp);\\r\\n\\r\\n    const...\n      PUSH [tag] 59\t\t\t6 timestamp);\\r\\n\\r\\n    const...\n      JUMP \t\t\t6 timestamp);\\r\\n\\r\\n    const...\n    tag 56\t\t\t6 timestamp);\\r\\n\\r\\n    const...\n      JUMPDEST \t\t\t6 timestamp);\\r\\n\\r\\n    const...\n      PUSH 40\t\t\t6 timestamp);\\r\\n\\r\\n    const...\n      MLOAD \t\t\t6 timestamp);\\r\\n\\r\\n    const...\n      PUSH [tag] 60\t\t\t6 timestamp);\\r\\n\\r\\n    const...\n      SWAP2 \t\t\t6 timestamp);\\r\\n\\r\\n    const...\n      SWAP1 \t\t\t6 timestamp);\\r\\n\\r\\n    const...\n      PUSH [tag] 61\t\t\t6 timestamp);\\r\\n\\r\\n    const...\n      JUMP \t\t\t6 timestamp);\\r\\n\\r\\n    const...\n    tag 60\t\t\t6 timestamp);\\r\\n\\r\\n    const...\n      JUMPDEST \t\t\t6 timestamp);\\r\\n\\r\\n    const...\n      PUSH 40\t\t\t6 timestamp);\\r\\n\\r\\n    const...\n      MLOAD \t\t\t6 timestamp);\\r\\n\\r\\n    const...\n      DUP1 \t\t\t6 timestamp);\\r\\n\\r\\n    const...\n      SWAP2 \t\t\t6 timestamp);\\r\\n\\r\\n    const...\n      SUB \t\t\t6 timestamp);\\r\\n\\r\\n    const...\n      SWAP1 \t\t\t6 timestamp);\\r\\n\\r\\n    const...\n      RETURN \t\t\t6 timestamp);\\r\\n\\r\\n    const...\n    tag 4\t\t\t uint256 public nextMintIndex ...\n      JUMPDEST \t\t\t uint256 public nextMintIndex ...\n      CALLVALUE \t\t\t uint256 public nextMintIndex ...\n      DUP1 \t\t\t uint256 public nextMintIndex ...\n      ISZERO \t\t\t uint256 public nextMintIndex ...\n      PUSH [tag] 62\t\t\t uint256 public nextMintIndex ...\n      JUMPI \t\t\t uint256 public nextMintIndex ...\n      PUSH 0\t\t\t uint256 public nextMintIndex ...\n      DUP1 \t\t\t uint256 public nextMintIndex ...\n      REVERT \t\t\t uint256 public nextMintIndex ...\n    tag 62\t\t\t uint256 public nextMintIndex ...\n      JUMPDEST \t\t\t uint256 public nextMintIndex ...\n      POP \t\t\t uint256 public nextMintIndex ...\n      PUSH [tag] 63\t\t\t uint256 public nextMintIndex ...\n      PUSH [tag] 64\t\t\t uint256 public nextMintIndex ...\n      JUMP \t\t\t uint256 public nextMintIndex ...\n    tag 63\t\t\t uint256 public nextMintIndex ...\n      JUMPDEST \t\t\t uint256 public nextMintIndex ...\n      PUSH 40\t\t\t uint256 public nextMintIndex ...\n      MLOAD \t\t\t uint256 public nextMintIndex ...\n      PUSH [tag] 65\t\t\t uint256 public nextMintIndex ...\n      SWAP2 \t\t\t uint256 public nextMintIndex ...\n      SWAP1 \t\t\t uint256 public nextMintIndex ...\n      PUSH [tag] 66\t\t\t uint256 public nextMintIndex ...\n      JUMP \t\t\t uint256 public nextMintIndex ...\n    tag 65\t\t\t uint256 public nextMintIndex ...\n      JUMPDEST \t\t\t uint256 public nextMintIndex ...\n      PUSH 40\t\t\t uint256 public nextMintIndex ...\n      MLOAD \t\t\t uint256 public nextMintIndex ...\n      DUP1 \t\t\t uint256 public nextMintIndex ...\n      SWAP2 \t\t\t uint256 public nextMintIndex ...\n      SUB \t\t\t uint256 public nextMintIndex ...\n      SWAP1 \t\t\t uint256 public nextMintIndex ...\n      RETURN \t\t\t uint256 public nextMintIndex ...\n    tag 5\t\t\tecimals\\r\\n    function decima...\n      JUMPDEST \t\t\tecimals\\r\\n    function decima...\n      CALLVALUE \t\t\tecimals\\r\\n    function decima...\n      DUP1 \t\t\tecimals\\r\\n    function decima...\n      ISZERO \t\t\tecimals\\r\\n    function decima...\n      PUSH [tag] 67\t\t\tecimals\\r\\n    function decima...\n      JUMPI \t\t\tecimals\\r\\n    function decima...\n      PUSH 0\t\t\tecimals\\r\\n    function decima...\n      DUP1 \t\t\tecimals\\r\\n    function decima...\n      REVERT \t\t\tecimals\\r\\n    function decima...\n    tag 67\t\t\tecimals\\r\\n    function decima...\n      JUMPDEST \t\t\tecimals\\r\\n    function decima...\n      POP \t\t\tecimals\\r\\n    function decima...\n      PUSH [tag] 68\t\t\tecimals\\r\\n    function decima...\n      PUSH 4\t\t\tecimals\\r\\n    function decima...\n      DUP1 \t\t\tecimals\\r\\n    function decima...\n      CALLDATASIZE \t\t\tecimals\\r\\n    function decima...\n      SUB \t\t\tecimals\\r\\n    function decima...\n      DUP2 \t\t\tecimals\\r\\n    function decima...\n      ADD \t\t\tecimals\\r\\n    function decima...\n      SWAP1 \t\t\tecimals\\r\\n    function decima...\n      PUSH [tag] 69\t\t\tecimals\\r\\n    function decima...\n      SWAP2 \t\t\tecimals\\r\\n    function decima...\n      SWAP1 \t\t\tecimals\\r\\n    function decima...\n      PUSH [tag] 70\t\t\tecimals\\r\\n    function decima...\n      JUMP \t\t\tecimals\\r\\n    function decima...\n    tag 69\t\t\tecimals\\r\\n    function decima...\n      JUMPDEST \t\t\tecimals\\r\\n    function decima...\n      PUSH [tag] 71\t\t\tecimals\\r\\n    function decima...\n      JUMP \t\t\tecimals\\r\\n    function decima...\n    tag 68\t\t\tecimals\\r\\n    function decima...\n      JUMPDEST \t\t\tecimals\\r\\n    function decima...\n      PUSH 40\t\t\tecimals\\r\\n    function decima...\n      MLOAD \t\t\tecimals\\r\\n    function decima...\n      PUSH [tag] 72\t\t\tecimals\\r\\n    function decima...\n      SWAP2 \t\t\tecimals\\r\\n    function decima...\n      SWAP1 \t\t\tecimals\\r\\n    function decima...\n      PUSH [tag] 61\t\t\tecimals\\r\\n    function decima...\n      JUMP \t\t\tecimals\\r\\n    function decima...\n    tag 72\t\t\tecimals\\r\\n    function decima...\n      JUMPDEST \t\t\tecimals\\r\\n    function decima...\n      PUSH 40\t\t\tecimals\\r\\n    function decima...\n      MLOAD \t\t\tecimals\\r\\n    function decima...\n      DUP1 \t\t\tecimals\\r\\n    function decima...\n      SWAP2 \t\t\tecimals\\r\\n    function decima...\n      SUB \t\t\tecimals\\r\\n    function decima...\n      SWAP1 \t\t\tecimals\\r\\n    function decima...\n      RETURN \t\t\tecimals\\r\\n    function decima...\n    tag 6\t\t\tnction rescueNative(address pa...\n      JUMPDEST \t\t\tnction rescueNative(address pa...\n      CALLVALUE \t\t\tnction rescueNative(address pa...\n      DUP1 \t\t\tnction rescueNative(address pa...\n      ISZERO \t\t\tnction rescueNative(address pa...\n      PUSH [tag] 73\t\t\tnction rescueNative(address pa...\n      JUMPI \t\t\tnction rescueNative(address pa...\n      PUSH 0\t\t\tnction rescueNative(address pa...\n      DUP1 \t\t\tnction rescueNative(address pa...\n      REVERT \t\t\tnction rescueNative(address pa...\n    tag 73\t\t\tnction rescueNative(address pa...\n      JUMPDEST \t\t\tnction rescueNative(address pa...\n      POP \t\t\tnction rescueNative(address pa...\n      PUSH [tag] 74\t\t\tnction rescueNative(address pa...\n      PUSH 4\t\t\tnction rescueNative(address pa...\n      DUP1 \t\t\tnction rescueNative(address pa...\n      CALLDATASIZE \t\t\tnction rescueNative(address pa...\n      SUB \t\t\tnction rescueNative(address pa...\n      DUP2 \t\t\tnction rescueNative(address pa...\n      ADD \t\t\tnction rescueNative(address pa...\n      SWAP1 \t\t\tnction rescueNative(address pa...\n      PUSH [tag] 75\t\t\tnction rescueNative(address pa...\n      SWAP2 \t\t\tnction rescueNative(address pa...\n      SWAP1 \t\t\tnction rescueNative(address pa...\n      PUSH [tag] 76\t\t\tnction rescueNative(address pa...\n      JUMP \t\t\tnction rescueNative(address pa...\n    tag 75\t\t\tnction rescueNative(address pa...\n      JUMPDEST \t\t\tnction rescueNative(address pa...\n      PUSH [tag] 77\t\t\tnction rescueNative(address pa...\n      JUMP \t\t\tnction rescueNative(address pa...\n    tag 74\t\t\tnction rescueNative(address pa...\n      JUMPDEST \t\t\tnction rescueNative(address pa...\n      STOP \t\t\tnction rescueNative(address pa...\n    tag 7\t\t\tole(BRIDGE_ROLE, _msgSender())...\n      JUMPDEST \t\t\tole(BRIDGE_ROLE, _msgSender())...\n      CALLVALUE \t\t\tole(BRIDGE_ROLE, _msgSender())...\n      DUP1 \t\t\tole(BRIDGE_ROLE, _msgSender())...\n      ISZERO \t\t\tole(BRIDGE_ROLE, _msgSender())...\n      PUSH [tag] 78\t\t\tole(BRIDGE_ROLE, _msgSender())...\n      JUMPI \t\t\tole(BRIDGE_ROLE, _msgSender())...\n      PUSH 0\t\t\tole(BRIDGE_ROLE, _msgSender())...\n      DUP1 \t\t\tole(BRIDGE_ROLE, _msgSender())...\n      REVERT \t\t\tole(BRIDGE_ROLE, _msgSender())...\n    tag 78\t\t\tole(BRIDGE_ROLE, _msgSender())...\n      JUMPDEST \t\t\tole(BRIDGE_ROLE, _msgSender())...\n      POP \t\t\tole(BRIDGE_ROLE, _msgSender())...\n      PUSH [tag] 79\t\t\tole(BRIDGE_ROLE, _msgSender())...\n      PUSH [tag] 80\t\t\tole(BRIDGE_ROLE, _msgSender())...\n      JUMP \t\t\tole(BRIDGE_ROLE, _msgSender())...\n    tag 79\t\t\tole(BRIDGE_ROLE, _msgSender())...\n      JUMPDEST \t\t\tole(BRIDGE_ROLE, _msgSender())...\n      PUSH 40\t\t\tole(BRIDGE_ROLE, _msgSender())...\n      MLOAD \t\t\tole(BRIDGE_ROLE, _msgSender())...\n      PUSH [tag] 81\t\t\tole(BRIDGE_ROLE, _msgSender())...\n      SWAP2 \t\t\tole(BRIDGE_ROLE, _msgSender())...\n      SWAP1 \t\t\tole(BRIDGE_ROLE, _msgSender())...\n      PUSH [tag] 82\t\t\tole(BRIDGE_ROLE, _msgSender())...\n      JUMP \t\t\tole(BRIDGE_ROLE, _msgSender())...\n    tag 81\t\t\tole(BRIDGE_ROLE, _msgSender())...\n      JUMPDEST \t\t\tole(BRIDGE_ROLE, _msgSender())...\n      PUSH 40\t\t\tole(BRIDGE_ROLE, _msgSender())...\n      MLOAD \t\t\tole(BRIDGE_ROLE, _msgSender())...\n      DUP1 \t\t\tole(BRIDGE_ROLE, _msgSender())...\n      SWAP2 \t\t\tole(BRIDGE_ROLE, _msgSender())...\n      SUB \t\t\tole(BRIDGE_ROLE, _msgSender())...\n      SWAP1 \t\t\tole(BRIDGE_ROLE, _msgSender())...\n      RETURN \t\t\tole(BRIDGE_ROLE, _msgSender())...\n    tag 8\t\t\temergencyStopped, \"TIGG: emerg...\n      JUMPDEST \t\t\temergencyStopped, \"TIGG: emerg...\n      CALLVALUE \t\t\temergencyStopped, \"TIGG: emerg...\n      DUP1 \t\t\temergencyStopped, \"TIGG: emerg...\n      ISZERO \t\t\temergencyStopped, \"TIGG: emerg...\n      PUSH [tag] 83\t\t\temergencyStopped, \"TIGG: emerg...\n      JUMPI \t\t\temergencyStopped, \"TIGG: emerg...\n      PUSH 0\t\t\temergencyStopped, \"TIGG: emerg...\n      DUP1 \t\t\temergencyStopped, \"TIGG: emerg...\n      REVERT \t\t\temergencyStopped, \"TIGG: emerg...\n    tag 83\t\t\temergencyStopped, \"TIGG: emerg...\n      JUMPDEST \t\t\temergencyStopped, \"TIGG: emerg...\n      POP \t\t\temergencyStopped, \"TIGG: emerg...\n      PUSH [tag] 84\t\t\temergencyStopped, \"TIGG: emerg...\n      PUSH 4\t\t\temergencyStopped, \"TIGG: emerg...\n      DUP1 \t\t\temergencyStopped, \"TIGG: emerg...\n      CALLDATASIZE \t\t\temergencyStopped, \"TIGG: emerg...\n      SUB \t\t\temergencyStopped, \"TIGG: emerg...\n      DUP2 \t\t\temergencyStopped, \"TIGG: emerg...\n      ADD \t\t\temergencyStopped, \"TIGG: emerg...\n      SWAP1 \t\t\temergencyStopped, \"TIGG: emerg...\n      PUSH [tag] 85\t\t\temergencyStopped, \"TIGG: emerg...\n      SWAP2 \t\t\temergencyStopped, \"TIGG: emerg...\n      SWAP1 \t\t\temergencyStopped, \"TIGG: emerg...\n      PUSH [tag] 86\t\t\temergencyStopped, \"TIGG: emerg...\n      JUMP \t\t\temergencyStopped, \"TIGG: emerg...\n    tag 85\t\t\temergencyStopped, \"TIGG: emerg...\n      JUMPDEST \t\t\temergencyStopped, \"TIGG: emerg...\n      PUSH [tag] 87\t\t\temergencyStopped, \"TIGG: emerg...\n      JUMP \t\t\temergencyStopped, \"TIGG: emerg...\n    tag 84\t\t\temergencyStopped, \"TIGG: emerg...\n      JUMPDEST \t\t\temergencyStopped, \"TIGG: emerg...\n      PUSH 40\t\t\temergencyStopped, \"TIGG: emerg...\n      MLOAD \t\t\temergencyStopped, \"TIGG: emerg...\n      PUSH [tag] 88\t\t\temergencyStopped, \"TIGG: emerg...\n      SWAP2 \t\t\temergencyStopped, \"TIGG: emerg...\n      SWAP1 \t\t\temergencyStopped, \"TIGG: emerg...\n      PUSH [tag] 61\t\t\temergencyStopped, \"TIGG: emerg...\n      JUMP \t\t\temergencyStopped, \"TIGG: emerg...\n    tag 88\t\t\temergencyStopped, \"TIGG: emerg...\n      JUMPDEST \t\t\temergencyStopped, \"TIGG: emerg...\n      PUSH 40\t\t\temergencyStopped, \"TIGG: emerg...\n      MLOAD \t\t\temergencyStopped, \"TIGG: emerg...\n      DUP1 \t\t\temergencyStopped, \"TIGG: emerg...\n      SWAP2 \t\t\temergencyStopped, \"TIGG: emerg...\n      SUB \t\t\temergencyStopped, \"TIGG: emerg...\n      SWAP1 \t\t\temergencyStopped, \"TIGG: emerg...\n      RETURN \t\t\temergencyStopped, \"TIGG: emerg...\n    tag 9\t\t\th; i++) {\\r\\n            emit ...\n      JUMPDEST \t\t\th; i++) {\\r\\n            emit ...\n      CALLVALUE \t\t\th; i++) {\\r\\n            emit ...\n      DUP1 \t\t\th; i++) {\\r\\n            emit ...\n      ISZERO \t\t\th; i++) {\\r\\n            emit ...\n      PUSH [tag] 89\t\t\th; i++) {\\r\\n            emit ...\n      JUMPI \t\t\th; i++) {\\r\\n            emit ...\n      PUSH 0\t\t\th; i++) {\\r\\n            emit ...\n      DUP1 \t\t\th; i++) {\\r\\n            emit ...\n      REVERT \t\t\th; i++) {\\r\\n            emit ...\n    tag 89\t\t\th; i++) {\\r\\n            emit ...\n      JUMPDEST \t\t\th; i++) {\\r\\n            emit ...\n      POP \t\t\th; i++) {\\r\\n            emit ...\n      PUSH [tag] 90\t\t\th; i++) {\\r\\n            emit ...\n      PUSH 4\t\t\th; i++) {\\r\\n            emit ...\n      DUP1 \t\t\th; i++) {\\r\\n            emit ...\n      CALLDATASIZE \t\t\th; i++) {\\r\\n            emit ...\n      SUB \t\t\th; i++) {\\r\\n            emit ...\n      DUP2 \t\t\th; i++) {\\r\\n            emit ...\n      ADD \t\t\th; i++) {\\r\\n            emit ...\n      SWAP1 \t\t\th; i++) {\\r\\n            emit ...\n      PUSH [tag] 91\t\t\th; i++) {\\r\\n            emit ...\n      SWAP2 \t\t\th; i++) {\\r\\n            emit ...\n      SWAP1 \t\t\th; i++) {\\r\\n            emit ...\n      PUSH [tag] 92\t\t\th; i++) {\\r\\n            emit ...\n      JUMP \t\t\th; i++) {\\r\\n            emit ...\n    tag 91\t\t\th; i++) {\\r\\n            emit ...\n      JUMPDEST \t\t\th; i++) {\\r\\n            emit ...\n      PUSH [tag] 93\t\t\th; i++) {\\r\\n            emit ...\n      JUMP \t\t\th; i++) {\\r\\n            emit ...\n    tag 90\t\t\th; i++) {\\r\\n            emit ...\n      JUMPDEST \t\t\th; i++) {\\r\\n            emit ...\n      PUSH 40\t\t\th; i++) {\\r\\n            emit ...\n      MLOAD \t\t\th; i++) {\\r\\n            emit ...\n      PUSH [tag] 94\t\t\th; i++) {\\r\\n            emit ...\n      SWAP2 \t\t\th; i++) {\\r\\n            emit ...\n      SWAP1 \t\t\th; i++) {\\r\\n            emit ...\n      PUSH [tag] 95\t\t\th; i++) {\\r\\n            emit ...\n      JUMP \t\t\th; i++) {\\r\\n            emit ...\n    tag 94\t\t\th; i++) {\\r\\n            emit ...\n      JUMPDEST \t\t\th; i++) {\\r\\n            emit ...\n      PUSH 40\t\t\th; i++) {\\r\\n            emit ...\n      MLOAD \t\t\th; i++) {\\r\\n            emit ...\n      DUP1 \t\t\th; i++) {\\r\\n            emit ...\n      SWAP2 \t\t\th; i++) {\\r\\n            emit ...\n      SUB \t\t\th; i++) {\\r\\n            emit ...\n      SWAP1 \t\t\th; i++) {\\r\\n            emit ...\n      RETURN \t\t\th; i++) {\\r\\n            emit ...\n    tag 10\t\t\tnt256 public nextMintIndex = 0...\n      JUMPDEST \t\t\tnt256 public nextMintIndex = 0...\n      CALLVALUE \t\t\tnt256 public nextMintIndex = 0...\n      DUP1 \t\t\tnt256 public nextMintIndex = 0...\n      ISZERO \t\t\tnt256 public nextMintIndex = 0...\n      PUSH [tag] 96\t\t\tnt256 public nextMintIndex = 0...\n      JUMPI \t\t\tnt256 public nextMintIndex = 0...\n      PUSH 0\t\t\tnt256 public nextMintIndex = 0...\n      DUP1 \t\t\tnt256 public nextMintIndex = 0...\n      REVERT \t\t\tnt256 public nextMintIndex = 0...\n    tag 96\t\t\tnt256 public nextMintIndex = 0...\n      JUMPDEST \t\t\tnt256 public nextMintIndex = 0...\n      POP \t\t\tnt256 public nextMintIndex = 0...\n      PUSH [tag] 97\t\t\tnt256 public nextMintIndex = 0...\n      PUSH [tag] 98\t\t\tnt256 public nextMintIndex = 0...\n      JUMP \t\t\tnt256 public nextMintIndex = 0...\n    tag 97\t\t\tnt256 public nextMintIndex = 0...\n      JUMPDEST \t\t\tnt256 public nextMintIndex = 0...\n      PUSH 40\t\t\tnt256 public nextMintIndex = 0...\n      MLOAD \t\t\tnt256 public nextMintIndex = 0...\n      PUSH [tag] 99\t\t\tnt256 public nextMintIndex = 0...\n      SWAP2 \t\t\tnt256 public nextMintIndex = 0...\n      SWAP1 \t\t\tnt256 public nextMintIndex = 0...\n      PUSH [tag] 82\t\t\tnt256 public nextMintIndex = 0...\n      JUMP \t\t\tnt256 public nextMintIndex = 0...\n    tag 99\t\t\tnt256 public nextMintIndex = 0...\n      JUMPDEST \t\t\tnt256 public nextMintIndex = 0...\n      PUSH 40\t\t\tnt256 public nextMintIndex = 0...\n      MLOAD \t\t\tnt256 public nextMintIndex = 0...\n      DUP1 \t\t\tnt256 public nextMintIndex = 0...\n      SWAP2 \t\t\tnt256 public nextMintIndex = 0...\n      SUB \t\t\tnt256 public nextMintIndex = 0...\n      SWAP1 \t\t\tnt256 public nextMintIndex = 0...\n      RETURN \t\t\tnt256 public nextMintIndex = 0...\n    tag 11\t\t\tgencyStopped(_msgSender(), blo...\n      JUMPDEST \t\t\tgencyStopped(_msgSender(), blo...\n      CALLVALUE \t\t\tgencyStopped(_msgSender(), blo...\n      DUP1 \t\t\tgencyStopped(_msgSender(), blo...\n      ISZERO \t\t\tgencyStopped(_msgSender(), blo...\n      PUSH [tag] 100\t\t\tgencyStopped(_msgSender(), blo...\n      JUMPI \t\t\tgencyStopped(_msgSender(), blo...\n      PUSH 0\t\t\tgencyStopped(_msgSender(), blo...\n      DUP1 \t\t\tgencyStopped(_msgSender(), blo...\n      REVERT \t\t\tgencyStopped(_msgSender(), blo...\n    tag 100\t\t\tgencyStopped(_msgSender(), blo...\n      JUMPDEST \t\t\tgencyStopped(_msgSender(), blo...\n      POP \t\t\tgencyStopped(_msgSender(), blo...\n      PUSH [tag] 101\t\t\tgencyStopped(_msgSender(), blo...\n      PUSH 4\t\t\tgencyStopped(_msgSender(), blo...\n      DUP1 \t\t\tgencyStopped(_msgSender(), blo...\n      CALLDATASIZE \t\t\tgencyStopped(_msgSender(), blo...\n      SUB \t\t\tgencyStopped(_msgSender(), blo...\n      DUP2 \t\t\tgencyStopped(_msgSender(), blo...\n      ADD \t\t\tgencyStopped(_msgSender(), blo...\n      SWAP1 \t\t\tgencyStopped(_msgSender(), blo...\n      PUSH [tag] 102\t\t\tgencyStopped(_msgSender(), blo...\n      SWAP2 \t\t\tgencyStopped(_msgSender(), blo...\n      SWAP1 \t\t\tgencyStopped(_msgSender(), blo...\n      PUSH [tag] 103\t\t\tgencyStopped(_msgSender(), blo...\n      JUMP \t\t\tgencyStopped(_msgSender(), blo...\n    tag 102\t\t\tgencyStopped(_msgSender(), blo...\n      JUMPDEST \t\t\tgencyStopped(_msgSender(), blo...\n      PUSH [tag] 104\t\t\tgencyStopped(_msgSender(), blo...\n      JUMP \t\t\tgencyStopped(_msgSender(), blo...\n    tag 101\t\t\tgencyStopped(_msgSender(), blo...\n      JUMPDEST \t\t\tgencyStopped(_msgSender(), blo...\n      STOP \t\t\tgencyStopped(_msgSender(), blo...\n    tag 12\t\t\tnt256 public constant INITIAL_...\n      JUMPDEST \t\t\tnt256 public constant INITIAL_...\n      CALLVALUE \t\t\tnt256 public constant INITIAL_...\n      DUP1 \t\t\tnt256 public constant INITIAL_...\n      ISZERO \t\t\tnt256 public constant INITIAL_...\n      PUSH [tag] 105\t\t\tnt256 public constant INITIAL_...\n      JUMPI \t\t\tnt256 public constant INITIAL_...\n      PUSH 0\t\t\tnt256 public constant INITIAL_...\n      DUP1 \t\t\tnt256 public constant INITIAL_...\n      REVERT \t\t\tnt256 public constant INITIAL_...\n    tag 105\t\t\tnt256 public constant INITIAL_...\n      JUMPDEST \t\t\tnt256 public constant INITIAL_...\n      POP \t\t\tnt256 public constant INITIAL_...\n      PUSH [tag] 106\t\t\tnt256 public constant INITIAL_...\n      PUSH [tag] 107\t\t\tnt256 public constant INITIAL_...\n      JUMP \t\t\tnt256 public constant INITIAL_...\n    tag 106\t\t\tnt256 public constant INITIAL_...\n      JUMPDEST \t\t\tnt256 public constant INITIAL_...\n      PUSH 40\t\t\tnt256 public constant INITIAL_...\n      MLOAD \t\t\tnt256 public constant INITIAL_...\n      PUSH [tag] 108\t\t\tnt256 public constant INITIAL_...\n      SWAP2 \t\t\tnt256 public constant INITIAL_...\n      SWAP1 \t\t\tnt256 public constant INITIAL_...\n      PUSH [tag] 82\t\t\tnt256 public constant INITIAL_...\n      JUMP \t\t\tnt256 public constant INITIAL_...\n    tag 108\t\t\tnt256 public constant INITIAL_...\n      JUMPDEST \t\t\tnt256 public constant INITIAL_...\n      PUSH 40\t\t\tnt256 public constant INITIAL_...\n      MLOAD \t\t\tnt256 public constant INITIAL_...\n      DUP1 \t\t\tnt256 public constant INITIAL_...\n      SWAP2 \t\t\tnt256 public constant INITIAL_...\n      SUB \t\t\tnt256 public constant INITIAL_...\n      SWAP1 \t\t\tnt256 public constant INITIAL_...\n      RETURN \t\t\tnt256 public constant INITIAL_...\n    tag 13\t\t\tnction decimals() public pure ...\n      JUMPDEST \t\t\tnction decimals() public pure ...\n      CALLVALUE \t\t\tnction decimals() public pure ...\n      DUP1 \t\t\tnction decimals() public pure ...\n      ISZERO \t\t\tnction decimals() public pure ...\n      PUSH [tag] 109\t\t\tnction decimals() public pure ...\n      JUMPI \t\t\tnction decimals() public pure ...\n      PUSH 0\t\t\tnction decimals() public pure ...\n      DUP1 \t\t\tnction decimals() public pure ...\n      REVERT \t\t\tnction decimals() public pure ...\n    tag 109\t\t\tnction decimals() public pure ...\n      JUMPDEST \t\t\tnction decimals() public pure ...\n      POP \t\t\tnction decimals() public pure ...\n      PUSH [tag] 110\t\t\tnction decimals() public pure ...\n      PUSH [tag] 111\t\t\tnction decimals() public pure ...\n      JUMP \t\t\tnction decimals() public pure ...\n    tag 110\t\t\tnction decimals() public pure ...\n      JUMPDEST \t\t\tnction decimals() public pure ...\n      PUSH 40\t\t\tnction decimals() public pure ...\n      MLOAD \t\t\tnction decimals() public pure ...\n      PUSH [tag] 112\t\t\tnction decimals() public pure ...\n      SWAP2 \t\t\tnction decimals() public pure ...\n      SWAP1 \t\t\tnction decimals() public pure ...\n      PUSH [tag] 113\t\t\tnction decimals() public pure ...\n      JUMP \t\t\tnction decimals() public pure ...\n    tag 112\t\t\tnction decimals() public pure ...\n      JUMPDEST \t\t\tnction decimals() public pure ...\n      PUSH 40\t\t\tnction decimals() public pure ...\n      MLOAD \t\t\tnction decimals() public pure ...\n      DUP1 \t\t\tnction decimals() public pure ...\n      SWAP2 \t\t\tnction decimals() public pure ...\n      SUB \t\t\tnction decimals() public pure ...\n      SWAP1 \t\t\tnction decimals() public pure ...\n      RETURN \t\t\tnction decimals() public pure ...\n    tag 14\t\t\tnt256 public constant MAX_SUPP...\n      JUMPDEST \t\t\tnt256 public constant MAX_SUPP...\n      CALLVALUE \t\t\tnt256 public constant MAX_SUPP...\n      DUP1 \t\t\tnt256 public constant MAX_SUPP...\n      ISZERO \t\t\tnt256 public constant MAX_SUPP...\n      PUSH [tag] 114\t\t\tnt256 public constant MAX_SUPP...\n      JUMPI \t\t\tnt256 public constant MAX_SUPP...\n      PUSH 0\t\t\tnt256 public constant MAX_SUPP...\n      DUP1 \t\t\tnt256 public constant MAX_SUPP...\n      REVERT \t\t\tnt256 public constant MAX_SUPP...\n    tag 114\t\t\tnt256 public constant MAX_SUPP...\n      JUMPDEST \t\t\tnt256 public constant MAX_SUPP...\n      POP \t\t\tnt256 public constant MAX_SUPP...\n      PUSH [tag] 115\t\t\tnt256 public constant MAX_SUPP...\n      PUSH [tag] 116\t\t\tnt256 public constant MAX_SUPP...\n      JUMP \t\t\tnt256 public constant MAX_SUPP...\n    tag 115\t\t\tnt256 public constant MAX_SUPP...\n      JUMPDEST \t\t\tnt256 public constant MAX_SUPP...\n      PUSH 40\t\t\tnt256 public constant MAX_SUPP...\n      MLOAD \t\t\tnt256 public constant MAX_SUPP...\n      PUSH [tag] 117\t\t\tnt256 public constant MAX_SUPP...\n      SWAP2 \t\t\tnt256 public constant MAX_SUPP...\n      SWAP1 \t\t\tnt256 public constant MAX_SUPP...\n      PUSH [tag] 82\t\t\tnt256 public constant MAX_SUPP...\n      JUMP \t\t\tnt256 public constant MAX_SUPP...\n    tag 117\t\t\tnt256 public constant MAX_SUPP...\n      JUMPDEST \t\t\tnt256 public constant MAX_SUPP...\n      PUSH 40\t\t\tnt256 public constant MAX_SUPP...\n      MLOAD \t\t\tnt256 public constant MAX_SUPP...\n      DUP1 \t\t\tnt256 public constant MAX_SUPP...\n      SWAP2 \t\t\tnt256 public constant MAX_SUPP...\n      SUB \t\t\tnt256 public constant MAX_SUPP...\n      SWAP1 \t\t\tnt256 public constant MAX_SUPP...\n      RETURN \t\t\tnt256 public constant MAX_SUPP...\n    tag 15\t\t\tly());\\r\\n\\r\\n        // advan...\n      JUMPDEST \t\t\tly());\\r\\n\\r\\n        // advan...\n      CALLVALUE \t\t\tly());\\r\\n\\r\\n        // advan...\n      DUP1 \t\t\tly());\\r\\n\\r\\n        // advan...\n      ISZERO \t\t\tly());\\r\\n\\r\\n        // advan...\n      PUSH [tag] 118\t\t\tly());\\r\\n\\r\\n        // advan...\n      JUMPI \t\t\tly());\\r\\n\\r\\n        // advan...\n      PUSH 0\t\t\tly());\\r\\n\\r\\n        // advan...\n      DUP1 \t\t\tly());\\r\\n\\r\\n        // advan...\n      REVERT \t\t\tly());\\r\\n\\r\\n        // advan...\n    tag 118\t\t\tly());\\r\\n\\r\\n        // advan...\n      JUMPDEST \t\t\tly());\\r\\n\\r\\n        // advan...\n      POP \t\t\tly());\\r\\n\\r\\n        // advan...\n      PUSH [tag] 119\t\t\tly());\\r\\n\\r\\n        // advan...\n      PUSH 4\t\t\tly());\\r\\n\\r\\n        // advan...\n      DUP1 \t\t\tly());\\r\\n\\r\\n        // advan...\n      CALLDATASIZE \t\t\tly());\\r\\n\\r\\n        // advan...\n      SUB \t\t\tly());\\r\\n\\r\\n        // advan...\n      DUP2 \t\t\tly());\\r\\n\\r\\n        // advan...\n      ADD \t\t\tly());\\r\\n\\r\\n        // advan...\n      SWAP1 \t\t\tly());\\r\\n\\r\\n        // advan...\n      PUSH [tag] 120\t\t\tly());\\r\\n\\r\\n        // advan...\n      SWAP2 \t\t\tly());\\r\\n\\r\\n        // advan...\n      SWAP1 \t\t\tly());\\r\\n\\r\\n        // advan...\n      PUSH [tag] 103\t\t\tly());\\r\\n\\r\\n        // advan...\n      JUMP \t\t\tly());\\r\\n\\r\\n        // advan...\n    tag 120\t\t\tly());\\r\\n\\r\\n        // advan...\n      JUMPDEST \t\t\tly());\\r\\n\\r\\n        // advan...\n      PUSH [tag] 121\t\t\tly());\\r\\n\\r\\n        // advan...\n      JUMP \t\t\tly());\\r\\n\\r\\n        // advan...\n    tag 119\t\t\tly());\\r\\n\\r\\n        // advan...\n      JUMPDEST \t\t\tly());\\r\\n\\r\\n        // advan...\n      STOP \t\t\tly());\\r\\n\\r\\n        // advan...\n    tag 16\t\t\tnction ownerGrantMinter(addres...\n      JUMPDEST \t\t\tnction ownerGrantMinter(addres...\n      CALLVALUE \t\t\tnction ownerGrantMinter(addres...\n      DUP1 \t\t\tnction ownerGrantMinter(addres...\n      ISZERO \t\t\tnction ownerGrantMinter(addres...\n      PUSH [tag] 122\t\t\tnction ownerGrantMinter(addres...\n      JUMPI \t\t\tnction ownerGrantMinter(addres...\n      PUSH 0\t\t\tnction ownerGrantMinter(addres...\n      DUP1 \t\t\tnction ownerGrantMinter(addres...\n      REVERT \t\t\tnction ownerGrantMinter(addres...\n    tag 122\t\t\tnction ownerGrantMinter(addres...\n      JUMPDEST \t\t\tnction ownerGrantMinter(addres...\n      POP \t\t\tnction ownerGrantMinter(addres...\n      PUSH [tag] 123\t\t\tnction ownerGrantMinter(addres...\n      PUSH 4\t\t\tnction ownerGrantMinter(addres...\n      DUP1 \t\t\tnction ownerGrantMinter(addres...\n      CALLDATASIZE \t\t\tnction ownerGrantMinter(addres...\n      SUB \t\t\tnction ownerGrantMinter(addres...\n      DUP2 \t\t\tnction ownerGrantMinter(addres...\n      ADD \t\t\tnction ownerGrantMinter(addres...\n      SWAP1 \t\t\tnction ownerGrantMinter(addres...\n      PUSH [tag] 124\t\t\tnction ownerGrantMinter(addres...\n      SWAP2 \t\t\tnction ownerGrantMinter(addres...\n      SWAP1 \t\t\tnction ownerGrantMinter(addres...\n      PUSH [tag] 125\t\t\tnction ownerGrantMinter(addres...\n      JUMP \t\t\tnction ownerGrantMinter(addres...\n    tag 124\t\t\tnction ownerGrantMinter(addres...\n      JUMPDEST \t\t\tnction ownerGrantMinter(addres...\n      PUSH [tag] 126\t\t\tnction ownerGrantMinter(addres...\n      JUMP \t\t\tnction ownerGrantMinter(addres...\n    tag 123\t\t\tnction ownerGrantMinter(addres...\n      JUMPDEST \t\t\tnction ownerGrantMinter(addres...\n      STOP \t\t\tnction ownerGrantMinter(addres...\n    tag 17\t\t\tnction executeScheduledMint() ...\n      JUMPDEST \t\t\tnction executeScheduledMint() ...\n      CALLVALUE \t\t\tnction executeScheduledMint() ...\n      DUP1 \t\t\tnction executeScheduledMint() ...\n      ISZERO \t\t\tnction executeScheduledMint() ...\n      PUSH [tag] 127\t\t\tnction executeScheduledMint() ...\n      JUMPI \t\t\tnction executeScheduledMint() ...\n      PUSH 0\t\t\tnction executeScheduledMint() ...\n      DUP1 \t\t\tnction executeScheduledMint() ...\n      REVERT \t\t\tnction executeScheduledMint() ...\n    tag 127\t\t\tnction executeScheduledMint() ...\n      JUMPDEST \t\t\tnction executeScheduledMint() ...\n      POP \t\t\tnction executeScheduledMint() ...\n      PUSH [tag] 128\t\t\tnction executeScheduledMint() ...\n      PUSH [tag] 129\t\t\tnction executeScheduledMint() ...\n      JUMP \t\t\tnction executeScheduledMint() ...\n    tag 128\t\t\tnction executeScheduledMint() ...\n      JUMPDEST \t\t\tnction executeScheduledMint() ...\n      STOP \t\t\tnction executeScheduledMint() ...\n    tag 18\t\t\tnction ownerGrantBridge(addres...\n      JUMPDEST \t\t\tnction ownerGrantBridge(addres...\n      CALLVALUE \t\t\tnction ownerGrantBridge(addres...\n      DUP1 \t\t\tnction ownerGrantBridge(addres...\n      ISZERO \t\t\tnction ownerGrantBridge(addres...\n      PUSH [tag] 130\t\t\tnction ownerGrantBridge(addres...\n      JUMPI \t\t\tnction ownerGrantBridge(addres...\n      PUSH 0\t\t\tnction ownerGrantBridge(addres...\n      DUP1 \t\t\tnction ownerGrantBridge(addres...\n      REVERT \t\t\tnction ownerGrantBridge(addres...\n    tag 130\t\t\tnction ownerGrantBridge(addres...\n      JUMPDEST \t\t\tnction ownerGrantBridge(addres...\n      POP \t\t\tnction ownerGrantBridge(addres...\n      PUSH [tag] 131\t\t\tnction ownerGrantBridge(addres...\n      PUSH 4\t\t\tnction ownerGrantBridge(addres...\n      DUP1 \t\t\tnction ownerGrantBridge(addres...\n      CALLDATASIZE \t\t\tnction ownerGrantBridge(addres...\n      SUB \t\t\tnction ownerGrantBridge(addres...\n      DUP2 \t\t\tnction ownerGrantBridge(addres...\n      ADD \t\t\tnction ownerGrantBridge(addres...\n      SWAP1 \t\t\tnction ownerGrantBridge(addres...\n      PUSH [tag] 132\t\t\tnction ownerGrantBridge(addres...\n      SWAP2 \t\t\tnction ownerGrantBridge(addres...\n      SWAP1 \t\t\tnction ownerGrantBridge(addres...\n      PUSH [tag] 125\t\t\tnction ownerGrantBridge(addres...\n      JUMP \t\t\tnction ownerGrantBridge(addres...\n    tag 132\t\t\tnction ownerGrantBridge(addres...\n      JUMPDEST \t\t\tnction ownerGrantBridge(addres...\n      PUSH [tag] 133\t\t\tnction ownerGrantBridge(addres...\n      JUMP \t\t\tnction ownerGrantBridge(addres...\n    tag 131\t\t\tnction ownerGrantBridge(addres...\n      JUMPDEST \t\t\tnction ownerGrantBridge(addres...\n      STOP \t\t\tnction ownerGrantBridge(addres...\n    tag 19\t\t\tnction ownerRevokeMinter(addre...\n      JUMPDEST \t\t\tnction ownerRevokeMinter(addre...\n      CALLVALUE \t\t\tnction ownerRevokeMinter(addre...\n      DUP1 \t\t\tnction ownerRevokeMinter(addre...\n      ISZERO \t\t\tnction ownerRevokeMinter(addre...\n      PUSH [tag] 134\t\t\tnction ownerRevokeMinter(addre...\n      JUMPI \t\t\tnction ownerRevokeMinter(addre...\n      PUSH 0\t\t\tnction ownerRevokeMinter(addre...\n      DUP1 \t\t\tnction ownerRevokeMinter(addre...\n      REVERT \t\t\tnction ownerRevokeMinter(addre...\n    tag 134\t\t\tnction ownerRevokeMinter(addre...\n      JUMPDEST \t\t\tnction ownerRevokeMinter(addre...\n      POP \t\t\tnction ownerRevokeMinter(addre...\n      PUSH [tag] 135\t\t\tnction ownerRevokeMinter(addre...\n      PUSH 4\t\t\tnction ownerRevokeMinter(addre...\n      DUP1 \t\t\tnction ownerRevokeMinter(addre...\n      CALLDATASIZE \t\t\tnction ownerRevokeMinter(addre...\n      SUB \t\t\tnction ownerRevokeMinter(addre...\n      DUP2 \t\t\tnction ownerRevokeMinter(addre...\n      ADD \t\t\tnction ownerRevokeMinter(addre...\n      SWAP1 \t\t\tnction ownerRevokeMinter(addre...\n      PUSH [tag] 136\t\t\tnction ownerRevokeMinter(addre...\n      SWAP2 \t\t\tnction ownerRevokeMinter(addre...\n      SWAP1 \t\t\tnction ownerRevokeMinter(addre...\n      PUSH [tag] 125\t\t\tnction ownerRevokeMinter(addre...\n      JUMP \t\t\tnction ownerRevokeMinter(addre...\n    tag 136\t\t\tnction ownerRevokeMinter(addre...\n      JUMPDEST \t\t\tnction ownerRevokeMinter(addre...\n      PUSH [tag] 137\t\t\tnction ownerRevokeMinter(addre...\n      JUMP \t\t\tnction ownerRevokeMinter(addre...\n    tag 135\t\t\tnction ownerRevokeMinter(addre...\n      JUMPDEST \t\t\tnction ownerRevokeMinter(addre...\n      STOP \t\t\tnction ownerRevokeMinter(addre...\n    tag 20\t\t\tnction liftEmergencyStop() ext...\n      JUMPDEST \t\t\tnction liftEmergencyStop() ext...\n      CALLVALUE \t\t\tnction liftEmergencyStop() ext...\n      DUP1 \t\t\tnction liftEmergencyStop() ext...\n      ISZERO \t\t\tnction liftEmergencyStop() ext...\n      PUSH [tag] 138\t\t\tnction liftEmergencyStop() ext...\n      JUMPI \t\t\tnction liftEmergencyStop() ext...\n      PUSH 0\t\t\tnction liftEmergencyStop() ext...\n      DUP1 \t\t\tnction liftEmergencyStop() ext...\n      REVERT \t\t\tnction liftEmergencyStop() ext...\n    tag 138\t\t\tnction liftEmergencyStop() ext...\n      JUMPDEST \t\t\tnction liftEmergencyStop() ext...\n      POP \t\t\tnction liftEmergencyStop() ext...\n      PUSH [tag] 139\t\t\tnction liftEmergencyStop() ext...\n      PUSH [tag] 140\t\t\tnction liftEmergencyStop() ext...\n      JUMP \t\t\tnction liftEmergencyStop() ext...\n    tag 139\t\t\tnction liftEmergencyStop() ext...\n      JUMPDEST \t\t\tnction liftEmergencyStop() ext...\n      STOP \t\t\tnction liftEmergencyStop() ext...\n    tag 21\t\t\tnction emergencyStop() externa...\n      JUMPDEST \t\t\tnction emergencyStop() externa...\n      CALLVALUE \t\t\tnction emergencyStop() externa...\n      DUP1 \t\t\tnction emergencyStop() externa...\n      ISZERO \t\t\tnction emergencyStop() externa...\n      PUSH [tag] 141\t\t\tnction emergencyStop() externa...\n      JUMPI \t\t\tnction emergencyStop() externa...\n      PUSH 0\t\t\tnction emergencyStop() externa...\n      DUP1 \t\t\tnction emergencyStop() externa...\n      REVERT \t\t\tnction emergencyStop() externa...\n    tag 141\t\t\tnction emergencyStop() externa...\n      JUMPDEST \t\t\tnction emergencyStop() externa...\n      POP \t\t\tnction emergencyStop() externa...\n      PUSH [tag] 142\t\t\tnction emergencyStop() externa...\n      PUSH [tag] 143\t\t\tnction emergencyStop() externa...\n      JUMP \t\t\tnction emergencyStop() externa...\n    tag 142\t\t\tnction emergencyStop() externa...\n      JUMPDEST \t\t\tnction emergencyStop() externa...\n      STOP \t\t\tnction emergencyStop() externa...\n    tag 22\t\t\t     // Populate scheduled min...\n      JUMPDEST \t\t\t     // Populate scheduled min...\n      CALLVALUE \t\t\t     // Populate scheduled min...\n      DUP1 \t\t\t     // Populate scheduled min...\n      ISZERO \t\t\t     // Populate scheduled min...\n      PUSH [tag] 144\t\t\t     // Populate scheduled min...\n      JUMPI \t\t\t     // Populate scheduled min...\n      PUSH 0\t\t\t     // Populate scheduled min...\n      DUP1 \t\t\t     // Populate scheduled min...\n      REVERT \t\t\t     // Populate scheduled min...\n    tag 144\t\t\t     // Populate scheduled min...\n      JUMPDEST \t\t\t     // Populate scheduled min...\n      POP \t\t\t     // Populate scheduled min...\n      PUSH [tag] 145\t\t\t     // Populate scheduled min...\n      PUSH 4\t\t\t     // Populate scheduled min...\n      DUP1 \t\t\t     // Populate scheduled min...\n      CALLDATASIZE \t\t\t     // Populate scheduled min...\n      SUB \t\t\t     // Populate scheduled min...\n      DUP2 \t\t\t     // Populate scheduled min...\n      ADD \t\t\t     // Populate scheduled min...\n      SWAP1 \t\t\t     // Populate scheduled min...\n      PUSH [tag] 146\t\t\t     // Populate scheduled min...\n      SWAP2 \t\t\t     // Populate scheduled min...\n      SWAP1 \t\t\t     // Populate scheduled min...\n      PUSH [tag] 125\t\t\t     // Populate scheduled min...\n      JUMP \t\t\t     // Populate scheduled min...\n    tag 146\t\t\t     // Populate scheduled min...\n      JUMPDEST \t\t\t     // Populate scheduled min...\n      PUSH [tag] 147\t\t\t     // Populate scheduled min...\n      JUMP \t\t\t     // Populate scheduled min...\n    tag 145\t\t\t     // Populate scheduled min...\n      JUMPDEST \t\t\t     // Populate scheduled min...\n      PUSH 40\t\t\t     // Populate scheduled min...\n      MLOAD \t\t\t     // Populate scheduled min...\n      PUSH [tag] 148\t\t\t     // Populate scheduled min...\n      SWAP2 \t\t\t     // Populate scheduled min...\n      SWAP1 \t\t\t     // Populate scheduled min...\n      PUSH [tag] 82\t\t\t     // Populate scheduled min...\n      JUMP \t\t\t     // Populate scheduled min...\n    tag 148\t\t\t     // Populate scheduled min...\n      JUMPDEST \t\t\t     // Populate scheduled min...\n      PUSH 40\t\t\t     // Populate scheduled min...\n      MLOAD \t\t\t     // Populate scheduled min...\n      DUP1 \t\t\t     // Populate scheduled min...\n      SWAP2 \t\t\t     // Populate scheduled min...\n      SUB \t\t\t     // Populate scheduled min...\n      SWAP1 \t\t\t     // Populate scheduled min...\n      RETURN \t\t\t     // Populate scheduled min...\n    tag 23\t\t\tcued(address indexed token, ad...\n      JUMPDEST \t\t\tcued(address indexed token, ad...\n      CALLVALUE \t\t\tcued(address indexed token, ad...\n      DUP1 \t\t\tcued(address indexed token, ad...\n      ISZERO \t\t\tcued(address indexed token, ad...\n      PUSH [tag] 149\t\t\tcued(address indexed token, ad...\n      JUMPI \t\t\tcued(address indexed token, ad...\n      PUSH 0\t\t\tcued(address indexed token, ad...\n      DUP1 \t\t\tcued(address indexed token, ad...\n      REVERT \t\t\tcued(address indexed token, ad...\n    tag 149\t\t\tcued(address indexed token, ad...\n      JUMPDEST \t\t\tcued(address indexed token, ad...\n      POP \t\t\tcued(address indexed token, ad...\n      PUSH [tag] 150\t\t\tcued(address indexed token, ad...\n      PUSH [tag] 151\t\t\tcued(address indexed token, ad...\n      JUMP \t\t\tcued(address indexed token, ad...\n    tag 150\t\t\tcued(address indexed token, ad...\n      JUMPDEST \t\t\tcued(address indexed token, ad...\n      STOP \t\t\tcued(address indexed token, ad...\n    tag 24\t\t\tnt256[] public scheduledMints;...\n      JUMPDEST \t\t\tnt256[] public scheduledMints;...\n      CALLVALUE \t\t\tnt256[] public scheduledMints;...\n      DUP1 \t\t\tnt256[] public scheduledMints;...\n      ISZERO \t\t\tnt256[] public scheduledMints;...\n      PUSH [tag] 152\t\t\tnt256[] public scheduledMints;...\n      JUMPI \t\t\tnt256[] public scheduledMints;...\n      PUSH 0\t\t\tnt256[] public scheduledMints;...\n      DUP1 \t\t\tnt256[] public scheduledMints;...\n      REVERT \t\t\tnt256[] public scheduledMints;...\n    tag 152\t\t\tnt256[] public scheduledMints;...\n      JUMPDEST \t\t\tnt256[] public scheduledMints;...\n      POP \t\t\tnt256[] public scheduledMints;...\n      PUSH [tag] 153\t\t\tnt256[] public scheduledMints;...\n      PUSH 4\t\t\tnt256[] public scheduledMints;...\n      DUP1 \t\t\tnt256[] public scheduledMints;...\n      CALLDATASIZE \t\t\tnt256[] public scheduledMints;...\n      SUB \t\t\tnt256[] public scheduledMints;...\n      DUP2 \t\t\tnt256[] public scheduledMints;...\n      ADD \t\t\tnt256[] public scheduledMints;...\n      SWAP1 \t\t\tnt256[] public scheduledMints;...\n      PUSH [tag] 154\t\t\tnt256[] public scheduledMints;...\n      SWAP2 \t\t\tnt256[] public scheduledMints;...\n      SWAP1 \t\t\tnt256[] public scheduledMints;...\n      PUSH [tag] 155\t\t\tnt256[] public scheduledMints;...\n      JUMP \t\t\tnt256[] public scheduledMints;...\n    tag 154\t\t\tnt256[] public scheduledMints;...\n      JUMPDEST \t\t\tnt256[] public scheduledMints;...\n      PUSH [tag] 156\t\t\tnt256[] public scheduledMints;...\n      JUMP \t\t\tnt256[] public scheduledMints;...\n    tag 153\t\t\tnt256[] public scheduledMints;...\n      JUMPDEST \t\t\tnt256[] public scheduledMints;...\n      PUSH 40\t\t\tnt256[] public scheduledMints;...\n      MLOAD \t\t\tnt256[] public scheduledMints;...\n      PUSH [tag] 157\t\t\tnt256[] public scheduledMints;...\n      SWAP2 \t\t\tnt256[] public scheduledMints;...\n      SWAP1 \t\t\tnt256[] public scheduledMints;...\n      PUSH [tag] 82\t\t\tnt256[] public scheduledMints;...\n      JUMP \t\t\tnt256[] public scheduledMints;...\n    tag 157\t\t\tnt256[] public scheduledMints;...\n      JUMPDEST \t\t\tnt256[] public scheduledMints;...\n      PUSH 40\t\t\tnt256[] public scheduledMints;...\n      MLOAD \t\t\tnt256[] public scheduledMints;...\n      DUP1 \t\t\tnt256[] public scheduledMints;...\n      SWAP2 \t\t\tnt256[] public scheduledMints;...\n      SUB \t\t\tnt256[] public scheduledMints;...\n      SWAP1 \t\t\tnt256[] public scheduledMints;...\n      RETURN \t\t\tnt256[] public scheduledMints;...\n    tag 25\t\t\tnction bridgeBurn(address from...\n      JUMPDEST \t\t\tnction bridgeBurn(address from...\n      CALLVALUE \t\t\tnction bridgeBurn(address from...\n      DUP1 \t\t\tnction bridgeBurn(address from...\n      ISZERO \t\t\tnction bridgeBurn(address from...\n      PUSH [tag] 158\t\t\tnction bridgeBurn(address from...\n      JUMPI \t\t\tnction bridgeBurn(address from...\n      PUSH 0\t\t\tnction bridgeBurn(address from...\n      DUP1 \t\t\tnction bridgeBurn(address from...\n      REVERT \t\t\tnction bridgeBurn(address from...\n    tag 158\t\t\tnction bridgeBurn(address from...\n      JUMPDEST \t\t\tnction bridgeBurn(address from...\n      POP \t\t\tnction bridgeBurn(address from...\n      PUSH [tag] 159\t\t\tnction bridgeBurn(address from...\n      PUSH 4\t\t\tnction bridgeBurn(address from...\n      DUP1 \t\t\tnction bridgeBurn(address from...\n      CALLDATASIZE \t\t\tnction bridgeBurn(address from...\n      SUB \t\t\tnction bridgeBurn(address from...\n      DUP2 \t\t\tnction bridgeBurn(address from...\n      ADD \t\t\tnction bridgeBurn(address from...\n      SWAP1 \t\t\tnction bridgeBurn(address from...\n      PUSH [tag] 160\t\t\tnction bridgeBurn(address from...\n      SWAP2 \t\t\tnction bridgeBurn(address from...\n      SWAP1 \t\t\tnction bridgeBurn(address from...\n      PUSH [tag] 70\t\t\tnction bridgeBurn(address from...\n      JUMP \t\t\tnction bridgeBurn(address from...\n    tag 160\t\t\tnction bridgeBurn(address from...\n      JUMPDEST \t\t\tnction bridgeBurn(address from...\n      PUSH [tag] 161\t\t\tnction bridgeBurn(address from...\n      JUMP \t\t\tnction bridgeBurn(address from...\n    tag 159\t\t\tnction bridgeBurn(address from...\n      JUMPDEST \t\t\tnction bridgeBurn(address from...\n      STOP \t\t\tnction bridgeBurn(address from...\n    tag 26\t\t\tnction scheduledMintsRemaining...\n      JUMPDEST \t\t\tnction scheduledMintsRemaining...\n      CALLVALUE \t\t\tnction scheduledMintsRemaining...\n      DUP1 \t\t\tnction scheduledMintsRemaining...\n      ISZERO \t\t\tnction scheduledMintsRemaining...\n      PUSH [tag] 162\t\t\tnction scheduledMintsRemaining...\n      JUMPI \t\t\tnction scheduledMintsRemaining...\n      PUSH 0\t\t\tnction scheduledMintsRemaining...\n      DUP1 \t\t\tnction scheduledMintsRemaining...\n      REVERT \t\t\tnction scheduledMintsRemaining...\n    tag 162\t\t\tnction scheduledMintsRemaining...\n      JUMPDEST \t\t\tnction scheduledMintsRemaining...\n      POP \t\t\tnction scheduledMintsRemaining...\n      PUSH [tag] 163\t\t\tnction scheduledMintsRemaining...\n      PUSH [tag] 164\t\t\tnction scheduledMintsRemaining...\n      JUMP \t\t\tnction scheduledMintsRemaining...\n    tag 163\t\t\tnction scheduledMintsRemaining...\n      JUMPDEST \t\t\tnction scheduledMintsRemaining...\n      PUSH 40\t\t\tnction scheduledMintsRemaining...\n      MLOAD \t\t\tnction scheduledMintsRemaining...\n      PUSH [tag] 165\t\t\tnction scheduledMintsRemaining...\n      SWAP2 \t\t\tnction scheduledMintsRemaining...\n      SWAP1 \t\t\tnction scheduledMintsRemaining...\n      PUSH [tag] 82\t\t\tnction scheduledMintsRemaining...\n      JUMP \t\t\tnction scheduledMintsRemaining...\n    tag 165\t\t\tnction scheduledMintsRemaining...\n      JUMPDEST \t\t\tnction scheduledMintsRemaining...\n      PUSH 40\t\t\tnction scheduledMintsRemaining...\n      MLOAD \t\t\tnction scheduledMintsRemaining...\n      DUP1 \t\t\tnction scheduledMintsRemaining...\n      SWAP2 \t\t\tnction scheduledMintsRemaining...\n      SUB \t\t\tnction scheduledMintsRemaining...\n      SWAP1 \t\t\tnction scheduledMintsRemaining...\n      RETURN \t\t\tnction scheduledMintsRemaining...\n    tag 27\t\t\tnt256 public constant TRANCHE_...\n      JUMPDEST \t\t\tnt256 public constant TRANCHE_...\n      CALLVALUE \t\t\tnt256 public constant TRANCHE_...\n      DUP1 \t\t\tnt256 public constant TRANCHE_...\n      ISZERO \t\t\tnt256 public constant TRANCHE_...\n      PUSH [tag] 166\t\t\tnt256 public constant TRANCHE_...\n      JUMPI \t\t\tnt256 public constant TRANCHE_...\n      PUSH 0\t\t\tnt256 public constant TRANCHE_...\n      DUP1 \t\t\tnt256 public constant TRANCHE_...\n      REVERT \t\t\tnt256 public constant TRANCHE_...\n    tag 166\t\t\tnt256 public constant TRANCHE_...\n      JUMPDEST \t\t\tnt256 public constant TRANCHE_...\n      POP \t\t\tnt256 public constant TRANCHE_...\n      PUSH [tag] 167\t\t\tnt256 public constant TRANCHE_...\n      PUSH [tag] 168\t\t\tnt256 public constant TRANCHE_...\n      JUMP \t\t\tnt256 public constant TRANCHE_...\n    tag 167\t\t\tnt256 public constant TRANCHE_...\n      JUMPDEST \t\t\tnt256 public constant TRANCHE_...\n      PUSH 40\t\t\tnt256 public constant TRANCHE_...\n      MLOAD \t\t\tnt256 public constant TRANCHE_...\n      PUSH [tag] 169\t\t\tnt256 public constant TRANCHE_...\n      SWAP2 \t\t\tnt256 public constant TRANCHE_...\n      SWAP1 \t\t\tnt256 public constant TRANCHE_...\n      PUSH [tag] 82\t\t\tnt256 public constant TRANCHE_...\n      JUMP \t\t\tnt256 public constant TRANCHE_...\n    tag 169\t\t\tnt256 public constant TRANCHE_...\n      JUMPDEST \t\t\tnt256 public constant TRANCHE_...\n      PUSH 40\t\t\tnt256 public constant TRANCHE_...\n      MLOAD \t\t\tnt256 public constant TRANCHE_...\n      DUP1 \t\t\tnt256 public constant TRANCHE_...\n      SWAP2 \t\t\tnt256 public constant TRANCHE_...\n      SUB \t\t\tnt256 public constant TRANCHE_...\n      SWAP1 \t\t\tnt256 public constant TRANCHE_...\n      RETURN \t\t\tnt256 public constant TRANCHE_...\n    tag 28\t\t\tnction bridgeMint(address to, ...\n      JUMPDEST \t\t\tnction bridgeMint(address to, ...\n      CALLVALUE \t\t\tnction bridgeMint(address to, ...\n      DUP1 \t\t\tnction bridgeMint(address to, ...\n      ISZERO \t\t\tnction bridgeMint(address to, ...\n      PUSH [tag] 170\t\t\tnction bridgeMint(address to, ...\n      JUMPI \t\t\tnction bridgeMint(address to, ...\n      PUSH 0\t\t\tnction bridgeMint(address to, ...\n      DUP1 \t\t\tnction bridgeMint(address to, ...\n      REVERT \t\t\tnction bridgeMint(address to, ...\n    tag 170\t\t\tnction bridgeMint(address to, ...\n      JUMPDEST \t\t\tnction bridgeMint(address to, ...\n      POP \t\t\tnction bridgeMint(address to, ...\n      PUSH [tag] 171\t\t\tnction bridgeMint(address to, ...\n      PUSH 4\t\t\tnction bridgeMint(address to, ...\n      DUP1 \t\t\tnction bridgeMint(address to, ...\n      CALLDATASIZE \t\t\tnction bridgeMint(address to, ...\n      SUB \t\t\tnction bridgeMint(address to, ...\n      DUP2 \t\t\tnction bridgeMint(address to, ...\n      ADD \t\t\tnction bridgeMint(address to, ...\n      SWAP1 \t\t\tnction bridgeMint(address to, ...\n      PUSH [tag] 172\t\t\tnction bridgeMint(address to, ...\n      SWAP2 \t\t\tnction bridgeMint(address to, ...\n      SWAP1 \t\t\tnction bridgeMint(address to, ...\n      PUSH [tag] 70\t\t\tnction bridgeMint(address to, ...\n      JUMP \t\t\tnction bridgeMint(address to, ...\n    tag 172\t\t\tnction bridgeMint(address to, ...\n      JUMPDEST \t\t\tnction bridgeMint(address to, ...\n      PUSH [tag] 173\t\t\tnction bridgeMint(address to, ...\n      JUMP \t\t\tnction bridgeMint(address to, ...\n    tag 171\t\t\tnction bridgeMint(address to, ...\n      JUMPDEST \t\t\tnction bridgeMint(address to, ...\n      STOP \t\t\tnction bridgeMint(address to, ...\n    tag 29\t\t\tstarting 2030)\\r\\n    // These...\n      JUMPDEST \t\t\tstarting 2030)\\r\\n    // These...\n      CALLVALUE \t\t\tstarting 2030)\\r\\n    // These...\n      DUP1 \t\t\tstarting 2030)\\r\\n    // These...\n      ISZERO \t\t\tstarting 2030)\\r\\n    // These...\n      PUSH [tag] 174\t\t\tstarting 2030)\\r\\n    // These...\n      JUMPI \t\t\tstarting 2030)\\r\\n    // These...\n      PUSH 0\t\t\tstarting 2030)\\r\\n    // These...\n      DUP1 \t\t\tstarting 2030)\\r\\n    // These...\n      REVERT \t\t\tstarting 2030)\\r\\n    // These...\n    tag 174\t\t\tstarting 2030)\\r\\n    // These...\n      JUMPDEST \t\t\tstarting 2030)\\r\\n    // These...\n      POP \t\t\tstarting 2030)\\r\\n    // These...\n      PUSH [tag] 175\t\t\tstarting 2030)\\r\\n    // These...\n      PUSH [tag] 176\t\t\tstarting 2030)\\r\\n    // These...\n      JUMP \t\t\tstarting 2030)\\r\\n    // These...\n    tag 175\t\t\tstarting 2030)\\r\\n    // These...\n      JUMPDEST \t\t\tstarting 2030)\\r\\n    // These...\n      PUSH 40\t\t\tstarting 2030)\\r\\n    // These...\n      MLOAD \t\t\tstarting 2030)\\r\\n    // These...\n      PUSH [tag] 177\t\t\tstarting 2030)\\r\\n    // These...\n      SWAP2 \t\t\tstarting 2030)\\r\\n    // These...\n      SWAP1 \t\t\tstarting 2030)\\r\\n    // These...\n      PUSH [tag] 178\t\t\tstarting 2030)\\r\\n    // These...\n      JUMP \t\t\tstarting 2030)\\r\\n    // These...\n    tag 177\t\t\tstarting 2030)\\r\\n    // These...\n      JUMPDEST \t\t\tstarting 2030)\\r\\n    // These...\n      PUSH 40\t\t\tstarting 2030)\\r\\n    // These...\n      MLOAD \t\t\tstarting 2030)\\r\\n    // These...\n      DUP1 \t\t\tstarting 2030)\\r\\n    // These...\n      SWAP2 \t\t\tstarting 2030)\\r\\n    // These...\n      SUB \t\t\tstarting 2030)\\r\\n    // These...\n      SWAP1 \t\t\tstarting 2030)\\r\\n    // These...\n      RETURN \t\t\tstarting 2030)\\r\\n    // These...\n    tag 30\t\t\t());\\r\\n\\r\\n        // Mint in...\n      JUMPDEST \t\t\t());\\r\\n\\r\\n        // Mint in...\n      CALLVALUE \t\t\t());\\r\\n\\r\\n        // Mint in...\n      DUP1 \t\t\t());\\r\\n\\r\\n        // Mint in...\n      ISZERO \t\t\t());\\r\\n\\r\\n        // Mint in...\n      PUSH [tag] 179\t\t\t());\\r\\n\\r\\n        // Mint in...\n      JUMPI \t\t\t());\\r\\n\\r\\n        // Mint in...\n      PUSH 0\t\t\t());\\r\\n\\r\\n        // Mint in...\n      DUP1 \t\t\t());\\r\\n\\r\\n        // Mint in...\n      REVERT \t\t\t());\\r\\n\\r\\n        // Mint in...\n    tag 179\t\t\t());\\r\\n\\r\\n        // Mint in...\n      JUMPDEST \t\t\t());\\r\\n\\r\\n        // Mint in...\n      POP \t\t\t());\\r\\n\\r\\n        // Mint in...\n      PUSH [tag] 180\t\t\t());\\r\\n\\r\\n        // Mint in...\n      PUSH 4\t\t\t());\\r\\n\\r\\n        // Mint in...\n      DUP1 \t\t\t());\\r\\n\\r\\n        // Mint in...\n      CALLDATASIZE \t\t\t());\\r\\n\\r\\n        // Mint in...\n      SUB \t\t\t());\\r\\n\\r\\n        // Mint in...\n      DUP2 \t\t\t());\\r\\n\\r\\n        // Mint in...\n      ADD \t\t\t());\\r\\n\\r\\n        // Mint in...\n      SWAP1 \t\t\t());\\r\\n\\r\\n        // Mint in...\n      PUSH [tag] 181\t\t\t());\\r\\n\\r\\n        // Mint in...\n      SWAP2 \t\t\t());\\r\\n\\r\\n        // Mint in...\n      SWAP1 \t\t\t());\\r\\n\\r\\n        // Mint in...\n      PUSH [tag] 103\t\t\t());\\r\\n\\r\\n        // Mint in...\n      JUMP \t\t\t());\\r\\n\\r\\n        // Mint in...\n    tag 181\t\t\t());\\r\\n\\r\\n        // Mint in...\n      JUMPDEST \t\t\t());\\r\\n\\r\\n        // Mint in...\n      PUSH [tag] 182\t\t\t());\\r\\n\\r\\n        // Mint in...\n      JUMP \t\t\t());\\r\\n\\r\\n        // Mint in...\n    tag 180\t\t\t());\\r\\n\\r\\n        // Mint in...\n      JUMPDEST \t\t\t());\\r\\n\\r\\n        // Mint in...\n      PUSH 40\t\t\t());\\r\\n\\r\\n        // Mint in...\n      MLOAD \t\t\t());\\r\\n\\r\\n        // Mint in...\n      PUSH [tag] 183\t\t\t());\\r\\n\\r\\n        // Mint in...\n      SWAP2 \t\t\t());\\r\\n\\r\\n        // Mint in...\n      SWAP1 \t\t\t());\\r\\n\\r\\n        // Mint in...\n      PUSH [tag] 61\t\t\t());\\r\\n\\r\\n        // Mint in...\n      JUMP \t\t\t());\\r\\n\\r\\n        // Mint in...\n    tag 183\t\t\t());\\r\\n\\r\\n        // Mint in...\n      JUMPDEST \t\t\t());\\r\\n\\r\\n        // Mint in...\n      PUSH 40\t\t\t());\\r\\n\\r\\n        // Mint in...\n      MLOAD \t\t\t());\\r\\n\\r\\n        // Mint in...\n      DUP1 \t\t\t());\\r\\n\\r\\n        // Mint in...\n      SWAP2 \t\t\t());\\r\\n\\r\\n        // Mint in...\n      SUB \t\t\t());\\r\\n\\r\\n        // Mint in...\n      SWAP1 \t\t\t());\\r\\n\\r\\n        // Mint in...\n      RETURN \t\t\t());\\r\\n\\r\\n        // Mint in...\n    tag 31\t\t\ted amount, uint256 indexed unl...\n      JUMPDEST \t\t\ted amount, uint256 indexed unl...\n      CALLVALUE \t\t\ted amount, uint256 indexed unl...\n      DUP1 \t\t\ted amount, uint256 indexed unl...\n      ISZERO \t\t\ted amount, uint256 indexed unl...\n      PUSH [tag] 184\t\t\ted amount, uint256 indexed unl...\n      JUMPI \t\t\ted amount, uint256 indexed unl...\n      PUSH 0\t\t\ted amount, uint256 indexed unl...\n      DUP1 \t\t\ted amount, uint256 indexed unl...\n      REVERT \t\t\ted amount, uint256 indexed unl...\n    tag 184\t\t\ted amount, uint256 indexed unl...\n      JUMPDEST \t\t\ted amount, uint256 indexed unl...\n      POP \t\t\ted amount, uint256 indexed unl...\n      PUSH [tag] 185\t\t\ted amount, uint256 indexed unl...\n      PUSH [tag] 186\t\t\ted amount, uint256 indexed unl...\n      JUMP \t\t\ted amount, uint256 indexed unl...\n    tag 185\t\t\ted amount, uint256 indexed unl...\n      JUMPDEST \t\t\ted amount, uint256 indexed unl...\n      PUSH 40\t\t\ted amount, uint256 indexed unl...\n      MLOAD \t\t\ted amount, uint256 indexed unl...\n      PUSH [tag] 187\t\t\ted amount, uint256 indexed unl...\n      SWAP2 \t\t\ted amount, uint256 indexed unl...\n      SWAP1 \t\t\ted amount, uint256 indexed unl...\n      PUSH [tag] 66\t\t\ted amount, uint256 indexed unl...\n      JUMP \t\t\ted amount, uint256 indexed unl...\n    tag 187\t\t\ted amount, uint256 indexed unl...\n      JUMPDEST \t\t\ted amount, uint256 indexed unl...\n      PUSH 40\t\t\ted amount, uint256 indexed unl...\n      MLOAD \t\t\ted amount, uint256 indexed unl...\n      DUP1 \t\t\ted amount, uint256 indexed unl...\n      SWAP2 \t\t\ted amount, uint256 indexed unl...\n      SUB \t\t\ted amount, uint256 indexed unl...\n      SWAP1 \t\t\ted amount, uint256 indexed unl...\n      RETURN \t\t\ted amount, uint256 indexed unl...\n    tag 32\t\t\tent BridgeBurn(address indexed...\n      JUMPDEST \t\t\tent BridgeBurn(address indexed...\n      CALLVALUE \t\t\tent BridgeBurn(address indexed...\n      DUP1 \t\t\tent BridgeBurn(address indexed...\n      ISZERO \t\t\tent BridgeBurn(address indexed...\n      PUSH [tag] 188\t\t\tent BridgeBurn(address indexed...\n      JUMPI \t\t\tent BridgeBurn(address indexed...\n      PUSH 0\t\t\tent BridgeBurn(address indexed...\n      DUP1 \t\t\tent BridgeBurn(address indexed...\n      REVERT \t\t\tent BridgeBurn(address indexed...\n    tag 188\t\t\tent BridgeBurn(address indexed...\n      JUMPDEST \t\t\tent BridgeBurn(address indexed...\n      POP \t\t\tent BridgeBurn(address indexed...\n      PUSH [tag] 189\t\t\tent BridgeBurn(address indexed...\n      PUSH [tag] 190\t\t\tent BridgeBurn(address indexed...\n      JUMP \t\t\tent BridgeBurn(address indexed...\n    tag 189\t\t\tent BridgeBurn(address indexed...\n      JUMPDEST \t\t\tent BridgeBurn(address indexed...\n      PUSH 40\t\t\tent BridgeBurn(address indexed...\n      MLOAD \t\t\tent BridgeBurn(address indexed...\n      PUSH [tag] 191\t\t\tent BridgeBurn(address indexed...\n      SWAP2 \t\t\tent BridgeBurn(address indexed...\n      SWAP1 \t\t\tent BridgeBurn(address indexed...\n      PUSH [tag] 95\t\t\tent BridgeBurn(address indexed...\n      JUMP \t\t\tent BridgeBurn(address indexed...\n    tag 191\t\t\tent BridgeBurn(address indexed...\n      JUMPDEST \t\t\tent BridgeBurn(address indexed...\n      PUSH 40\t\t\tent BridgeBurn(address indexed...\n      MLOAD \t\t\tent BridgeBurn(address indexed...\n      DUP1 \t\t\tent BridgeBurn(address indexed...\n      SWAP2 \t\t\tent BridgeBurn(address indexed...\n      SUB \t\t\tent BridgeBurn(address indexed...\n      SWAP1 \t\t\tent BridgeBurn(address indexed...\n      RETURN \t\t\tent BridgeBurn(address indexed...\n    tag 33\t\t\t     scheduledMints.push(22325...\n      JUMPDEST \t\t\t     scheduledMints.push(22325...\n      CALLVALUE \t\t\t     scheduledMints.push(22325...\n      DUP1 \t\t\t     scheduledMints.push(22325...\n      ISZERO \t\t\t     scheduledMints.push(22325...\n      PUSH [tag] 192\t\t\t     scheduledMints.push(22325...\n      JUMPI \t\t\t     scheduledMints.push(22325...\n      PUSH 0\t\t\t     scheduledMints.push(22325...\n      DUP1 \t\t\t     scheduledMints.push(22325...\n      REVERT \t\t\t     scheduledMints.push(22325...\n    tag 192\t\t\t     scheduledMints.push(22325...\n      JUMPDEST \t\t\t     scheduledMints.push(22325...\n      POP \t\t\t     scheduledMints.push(22325...\n      PUSH [tag] 193\t\t\t     scheduledMints.push(22325...\n      PUSH 4\t\t\t     scheduledMints.push(22325...\n      DUP1 \t\t\t     scheduledMints.push(22325...\n      CALLDATASIZE \t\t\t     scheduledMints.push(22325...\n      SUB \t\t\t     scheduledMints.push(22325...\n      DUP2 \t\t\t     scheduledMints.push(22325...\n      ADD \t\t\t     scheduledMints.push(22325...\n      SWAP1 \t\t\t     scheduledMints.push(22325...\n      PUSH [tag] 194\t\t\t     scheduledMints.push(22325...\n      SWAP2 \t\t\t     scheduledMints.push(22325...\n      SWAP1 \t\t\t     scheduledMints.push(22325...\n      PUSH [tag] 70\t\t\t     scheduledMints.push(22325...\n      JUMP \t\t\t     scheduledMints.push(22325...\n    tag 194\t\t\t     scheduledMints.push(22325...\n      JUMPDEST \t\t\t     scheduledMints.push(22325...\n      PUSH [tag] 195\t\t\t     scheduledMints.push(22325...\n      JUMP \t\t\t     scheduledMints.push(22325...\n    tag 193\t\t\t     scheduledMints.push(22325...\n      JUMPDEST \t\t\t     scheduledMints.push(22325...\n      PUSH 40\t\t\t     scheduledMints.push(22325...\n      MLOAD \t\t\t     scheduledMints.push(22325...\n      PUSH [tag] 196\t\t\t     scheduledMints.push(22325...\n      SWAP2 \t\t\t     scheduledMints.push(22325...\n      SWAP1 \t\t\t     scheduledMints.push(22325...\n      PUSH [tag] 61\t\t\t     scheduledMints.push(22325...\n      JUMP \t\t\t     scheduledMints.push(22325...\n    tag 196\t\t\t     scheduledMints.push(22325...\n      JUMPDEST \t\t\t     scheduledMints.push(22325...\n      PUSH 40\t\t\t     scheduledMints.push(22325...\n      MLOAD \t\t\t     scheduledMints.push(22325...\n      DUP1 \t\t\t     scheduledMints.push(22325...\n      SWAP2 \t\t\t     scheduledMints.push(22325...\n      SUB \t\t\t     scheduledMints.push(22325...\n      SWAP1 \t\t\t     scheduledMints.push(22325...\n      RETURN \t\t\t     scheduledMints.push(22325...\n    tag 34\t\t\tnction ownerRevokeBridge(addre...\n      JUMPDEST \t\t\tnction ownerRevokeBridge(addre...\n      CALLVALUE \t\t\tnction ownerRevokeBridge(addre...\n      DUP1 \t\t\tnction ownerRevokeBridge(addre...\n      ISZERO \t\t\tnction ownerRevokeBridge(addre...\n      PUSH [tag] 197\t\t\tnction ownerRevokeBridge(addre...\n      JUMPI \t\t\tnction ownerRevokeBridge(addre...\n      PUSH 0\t\t\tnction ownerRevokeBridge(addre...\n      DUP1 \t\t\tnction ownerRevokeBridge(addre...\n      REVERT \t\t\tnction ownerRevokeBridge(addre...\n    tag 197\t\t\tnction ownerRevokeBridge(addre...\n      JUMPDEST \t\t\tnction ownerRevokeBridge(addre...\n      POP \t\t\tnction ownerRevokeBridge(addre...\n      PUSH [tag] 198\t\t\tnction ownerRevokeBridge(addre...\n      PUSH 4\t\t\tnction ownerRevokeBridge(addre...\n      DUP1 \t\t\tnction ownerRevokeBridge(addre...\n      CALLDATASIZE \t\t\tnction ownerRevokeBridge(addre...\n      SUB \t\t\tnction ownerRevokeBridge(addre...\n      DUP2 \t\t\tnction ownerRevokeBridge(addre...\n      ADD \t\t\tnction ownerRevokeBridge(addre...\n      SWAP1 \t\t\tnction ownerRevokeBridge(addre...\n      PUSH [tag] 199\t\t\tnction ownerRevokeBridge(addre...\n      SWAP2 \t\t\tnction ownerRevokeBridge(addre...\n      SWAP1 \t\t\tnction ownerRevokeBridge(addre...\n      PUSH [tag] 125\t\t\tnction ownerRevokeBridge(addre...\n      JUMP \t\t\tnction ownerRevokeBridge(addre...\n    tag 199\t\t\tnction ownerRevokeBridge(addre...\n      JUMPDEST \t\t\tnction ownerRevokeBridge(addre...\n      PUSH [tag] 200\t\t\tnction ownerRevokeBridge(addre...\n      JUMP \t\t\tnction ownerRevokeBridge(addre...\n    tag 198\t\t\tnction ownerRevokeBridge(addre...\n      JUMPDEST \t\t\tnction ownerRevokeBridge(addre...\n      STOP \t\t\tnction ownerRevokeBridge(addre...\n    tag 35\t\t\tnction rescueERC20(address tok...\n      JUMPDEST \t\t\tnction rescueERC20(address tok...\n      CALLVALUE \t\t\tnction rescueERC20(address tok...\n      DUP1 \t\t\tnction rescueERC20(address tok...\n      ISZERO \t\t\tnction rescueERC20(address tok...\n      PUSH [tag] 201\t\t\tnction rescueERC20(address tok...\n      JUMPI \t\t\tnction rescueERC20(address tok...\n      PUSH 0\t\t\tnction rescueERC20(address tok...\n      DUP1 \t\t\tnction rescueERC20(address tok...\n      REVERT \t\t\tnction rescueERC20(address tok...\n    tag 201\t\t\tnction rescueERC20(address tok...\n      JUMPDEST \t\t\tnction rescueERC20(address tok...\n      POP \t\t\tnction rescueERC20(address tok...\n      PUSH [tag] 202\t\t\tnction rescueERC20(address tok...\n      PUSH 4\t\t\tnction rescueERC20(address tok...\n      DUP1 \t\t\tnction rescueERC20(address tok...\n      CALLDATASIZE \t\t\tnction rescueERC20(address tok...\n      SUB \t\t\tnction rescueERC20(address tok...\n      DUP2 \t\t\tnction rescueERC20(address tok...\n      ADD \t\t\tnction rescueERC20(address tok...\n      SWAP1 \t\t\tnction rescueERC20(address tok...\n      PUSH [tag] 203\t\t\tnction rescueERC20(address tok...\n      SWAP2 \t\t\tnction rescueERC20(address tok...\n      SWAP1 \t\t\tnction rescueERC20(address tok...\n      PUSH [tag] 86\t\t\tnction rescueERC20(address tok...\n      JUMP \t\t\tnction rescueERC20(address tok...\n    tag 203\t\t\tnction rescueERC20(address tok...\n      JUMPDEST \t\t\tnction rescueERC20(address tok...\n      PUSH [tag] 204\t\t\tnction rescueERC20(address tok...\n      JUMP \t\t\tnction rescueERC20(address tok...\n    tag 202\t\t\tnction rescueERC20(address tok...\n      JUMPDEST \t\t\tnction rescueERC20(address tok...\n      STOP \t\t\tnction rescueERC20(address tok...\n    tag 36\t\t\ttes32 public constant BRIDGE_R...\n      JUMPDEST \t\t\ttes32 public constant BRIDGE_R...\n      CALLVALUE \t\t\ttes32 public constant BRIDGE_R...\n      DUP1 \t\t\ttes32 public constant BRIDGE_R...\n      ISZERO \t\t\ttes32 public constant BRIDGE_R...\n      PUSH [tag] 205\t\t\ttes32 public constant BRIDGE_R...\n      JUMPI \t\t\ttes32 public constant BRIDGE_R...\n      PUSH 0\t\t\ttes32 public constant BRIDGE_R...\n      DUP1 \t\t\ttes32 public constant BRIDGE_R...\n      REVERT \t\t\ttes32 public constant BRIDGE_R...\n    tag 205\t\t\ttes32 public constant BRIDGE_R...\n      JUMPDEST \t\t\ttes32 public constant BRIDGE_R...\n      POP \t\t\ttes32 public constant BRIDGE_R...\n      PUSH [tag] 206\t\t\ttes32 public constant BRIDGE_R...\n      PUSH [tag] 207\t\t\ttes32 public constant BRIDGE_R...\n      JUMP \t\t\ttes32 public constant BRIDGE_R...\n    tag 206\t\t\ttes32 public constant BRIDGE_R...\n      JUMPDEST \t\t\ttes32 public constant BRIDGE_R...\n      PUSH 40\t\t\ttes32 public constant BRIDGE_R...\n      MLOAD \t\t\ttes32 public constant BRIDGE_R...\n      PUSH [tag] 208\t\t\ttes32 public constant BRIDGE_R...\n      SWAP2 \t\t\ttes32 public constant BRIDGE_R...\n      SWAP1 \t\t\ttes32 public constant BRIDGE_R...\n      PUSH [tag] 95\t\t\ttes32 public constant BRIDGE_R...\n      JUMP \t\t\ttes32 public constant BRIDGE_R...\n    tag 208\t\t\ttes32 public constant BRIDGE_R...\n      JUMPDEST \t\t\ttes32 public constant BRIDGE_R...\n      PUSH 40\t\t\ttes32 public constant BRIDGE_R...\n      MLOAD \t\t\ttes32 public constant BRIDGE_R...\n      DUP1 \t\t\ttes32 public constant BRIDGE_R...\n      SWAP2 \t\t\ttes32 public constant BRIDGE_R...\n      SUB \t\t\ttes32 public constant BRIDGE_R...\n      SWAP1 \t\t\ttes32 public constant BRIDGE_R...\n      RETURN \t\t\ttes32 public constant BRIDGE_R...\n    tag 37\t\t\tnction rescueAllNative(address...\n      JUMPDEST \t\t\tnction rescueAllNative(address...\n      CALLVALUE \t\t\tnction rescueAllNative(address...\n      DUP1 \t\t\tnction rescueAllNative(address...\n      ISZERO \t\t\tnction rescueAllNative(address...\n      PUSH [tag] 209\t\t\tnction rescueAllNative(address...\n      JUMPI \t\t\tnction rescueAllNative(address...\n      PUSH 0\t\t\tnction rescueAllNative(address...\n      DUP1 \t\t\tnction rescueAllNative(address...\n      REVERT \t\t\tnction rescueAllNative(address...\n    tag 209\t\t\tnction rescueAllNative(address...\n      JUMPDEST \t\t\tnction rescueAllNative(address...\n      POP \t\t\tnction rescueAllNative(address...\n      PUSH [tag] 210\t\t\tnction rescueAllNative(address...\n      PUSH 4\t\t\tnction rescueAllNative(address...\n      DUP1 \t\t\tnction rescueAllNative(address...\n      CALLDATASIZE \t\t\tnction rescueAllNative(address...\n      SUB \t\t\tnction rescueAllNative(address...\n      DUP2 \t\t\tnction rescueAllNative(address...\n      ADD \t\t\tnction rescueAllNative(address...\n      SWAP1 \t\t\tnction rescueAllNative(address...\n      PUSH [tag] 211\t\t\tnction rescueAllNative(address...\n      SWAP2 \t\t\tnction rescueAllNative(address...\n      SWAP1 \t\t\tnction rescueAllNative(address...\n      PUSH [tag] 212\t\t\tnction rescueAllNative(address...\n      JUMP \t\t\tnction rescueAllNative(address...\n    tag 211\t\t\tnction rescueAllNative(address...\n      JUMPDEST \t\t\tnction rescueAllNative(address...\n      PUSH [tag] 213\t\t\tnction rescueAllNative(address...\n      JUMP \t\t\tnction rescueAllNative(address...\n    tag 210\t\t\tnction rescueAllNative(address...\n      JUMPDEST \t\t\tnction rescueAllNative(address...\n      STOP \t\t\tnction rescueAllNative(address...\n    tag 38\t\t\tnction rescueAllERC20(address ...\n      JUMPDEST \t\t\tnction rescueAllERC20(address ...\n      CALLVALUE \t\t\tnction rescueAllERC20(address ...\n      DUP1 \t\t\tnction rescueAllERC20(address ...\n      ISZERO \t\t\tnction rescueAllERC20(address ...\n      PUSH [tag] 214\t\t\tnction rescueAllERC20(address ...\n      JUMPI \t\t\tnction rescueAllERC20(address ...\n      PUSH 0\t\t\tnction rescueAllERC20(address ...\n      DUP1 \t\t\tnction rescueAllERC20(address ...\n      REVERT \t\t\tnction rescueAllERC20(address ...\n    tag 214\t\t\tnction rescueAllERC20(address ...\n      JUMPDEST \t\t\tnction rescueAllERC20(address ...\n      POP \t\t\tnction rescueAllERC20(address ...\n      PUSH [tag] 215\t\t\tnction rescueAllERC20(address ...\n      PUSH 4\t\t\tnction rescueAllERC20(address ...\n      DUP1 \t\t\tnction rescueAllERC20(address ...\n      CALLDATASIZE \t\t\tnction rescueAllERC20(address ...\n      SUB \t\t\tnction rescueAllERC20(address ...\n      DUP2 \t\t\tnction rescueAllERC20(address ...\n      ADD \t\t\tnction rescueAllERC20(address ...\n      SWAP1 \t\t\tnction rescueAllERC20(address ...\n      PUSH [tag] 216\t\t\tnction rescueAllERC20(address ...\n      SWAP2 \t\t\tnction rescueAllERC20(address ...\n      SWAP1 \t\t\tnction rescueAllERC20(address ...\n      PUSH [tag] 217\t\t\tnction rescueAllERC20(address ...\n      JUMP \t\t\tnction rescueAllERC20(address ...\n    tag 216\t\t\tnction rescueAllERC20(address ...\n      JUMPDEST \t\t\tnction rescueAllERC20(address ...\n      PUSH [tag] 218\t\t\tnction rescueAllERC20(address ...\n      JUMP \t\t\tnction rescueAllERC20(address ...\n    tag 215\t\t\tnction rescueAllERC20(address ...\n      JUMPDEST \t\t\tnction rescueAllERC20(address ...\n      STOP \t\t\tnction rescueAllERC20(address ...\n    tag 39\t\t\ttes32 public constant MINTER_R...\n      JUMPDEST \t\t\ttes32 public constant MINTER_R...\n      CALLVALUE \t\t\ttes32 public constant MINTER_R...\n      DUP1 \t\t\ttes32 public constant MINTER_R...\n      ISZERO \t\t\ttes32 public constant MINTER_R...\n      PUSH [tag] 219\t\t\ttes32 public constant MINTER_R...\n      JUMPI \t\t\ttes32 public constant MINTER_R...\n      PUSH 0\t\t\ttes32 public constant MINTER_R...\n      DUP1 \t\t\ttes32 public constant MINTER_R...\n      REVERT \t\t\ttes32 public constant MINTER_R...\n    tag 219\t\t\ttes32 public constant MINTER_R...\n      JUMPDEST \t\t\ttes32 public constant MINTER_R...\n      POP \t\t\ttes32 public constant MINTER_R...\n      PUSH [tag] 220\t\t\ttes32 public constant MINTER_R...\n      PUSH [tag] 221\t\t\ttes32 public constant MINTER_R...\n      JUMP \t\t\ttes32 public constant MINTER_R...\n    tag 220\t\t\ttes32 public constant MINTER_R...\n      JUMPDEST \t\t\ttes32 public constant MINTER_R...\n      PUSH 40\t\t\ttes32 public constant MINTER_R...\n      MLOAD \t\t\ttes32 public constant MINTER_R...\n      PUSH [tag] 222\t\t\ttes32 public constant MINTER_R...\n      SWAP2 \t\t\ttes32 public constant MINTER_R...\n      SWAP1 \t\t\ttes32 public constant MINTER_R...\n      PUSH [tag] 95\t\t\ttes32 public constant MINTER_R...\n      JUMP \t\t\ttes32 public constant MINTER_R...\n    tag 222\t\t\ttes32 public constant MINTER_R...\n      JUMPDEST \t\t\ttes32 public constant MINTER_R...\n      PUSH 40\t\t\ttes32 public constant MINTER_R...\n      MLOAD \t\t\ttes32 public constant MINTER_R...\n      DUP1 \t\t\ttes32 public constant MINTER_R...\n      SWAP2 \t\t\ttes32 public constant MINTER_R...\n      SUB \t\t\ttes32 public constant MINTER_R...\n      SWAP1 \t\t\ttes32 public constant MINTER_R...\n      RETURN \t\t\ttes32 public constant MINTER_R...\n    tag 40\t\t\tuledMint() external onlyRole(M...\n      JUMPDEST \t\t\tuledMint() external onlyRole(M...\n      CALLVALUE \t\t\tuledMint() external onlyRole(M...\n      DUP1 \t\t\tuledMint() external onlyRole(M...\n      ISZERO \t\t\tuledMint() external onlyRole(M...\n      PUSH [tag] 223\t\t\tuledMint() external onlyRole(M...\n      JUMPI \t\t\tuledMint() external onlyRole(M...\n      PUSH 0\t\t\tuledMint() external onlyRole(M...\n      DUP1 \t\t\tuledMint() external onlyRole(M...\n      REVERT \t\t\tuledMint() external onlyRole(M...\n    tag 223\t\t\tuledMint() external onlyRole(M...\n      JUMPDEST \t\t\tuledMint() external onlyRole(M...\n      POP \t\t\tuledMint() external onlyRole(M...\n      PUSH [tag] 224\t\t\tuledMint() external onlyRole(M...\n      PUSH 4\t\t\tuledMint() external onlyRole(M...\n      DUP1 \t\t\tuledMint() external onlyRole(M...\n      CALLDATASIZE \t\t\tuledMint() external onlyRole(M...\n      SUB \t\t\tuledMint() external onlyRole(M...\n      DUP2 \t\t\tuledMint() external onlyRole(M...\n      ADD \t\t\tuledMint() external onlyRole(M...\n      SWAP1 \t\t\tuledMint() external onlyRole(M...\n      PUSH [tag] 225\t\t\tuledMint() external onlyRole(M...\n      SWAP2 \t\t\tuledMint() external onlyRole(M...\n      SWAP1 \t\t\tuledMint() external onlyRole(M...\n      PUSH [tag] 103\t\t\tuledMint() external onlyRole(M...\n      JUMP \t\t\tuledMint() external onlyRole(M...\n    tag 225\t\t\tuledMint() external onlyRole(M...\n      JUMPDEST \t\t\tuledMint() external onlyRole(M...\n      PUSH [tag] 226\t\t\tuledMint() external onlyRole(M...\n      JUMP \t\t\tuledMint() external onlyRole(M...\n    tag 224\t\t\tuledMint() external onlyRole(M...\n      JUMPDEST \t\t\tuledMint() external onlyRole(M...\n      STOP \t\t\tuledMint() external onlyRole(M...\n    tag 41\t\t\tnts.push(2705875200);\\r\\n     ...\n      JUMPDEST \t\t\tnts.push(2705875200);\\r\\n     ...\n      CALLVALUE \t\t\tnts.push(2705875200);\\r\\n     ...\n      DUP1 \t\t\tnts.push(2705875200);\\r\\n     ...\n      ISZERO \t\t\tnts.push(2705875200);\\r\\n     ...\n      PUSH [tag] 227\t\t\tnts.push(2705875200);\\r\\n     ...\n      JUMPI \t\t\tnts.push(2705875200);\\r\\n     ...\n      PUSH 0\t\t\tnts.push(2705875200);\\r\\n     ...\n      DUP1 \t\t\tnts.push(2705875200);\\r\\n     ...\n      REVERT \t\t\tnts.push(2705875200);\\r\\n     ...\n    tag 227\t\t\tnts.push(2705875200);\\r\\n     ...\n      JUMPDEST \t\t\tnts.push(2705875200);\\r\\n     ...\n      POP \t\t\tnts.push(2705875200);\\r\\n     ...\n      PUSH [tag] 228\t\t\tnts.push(2705875200);\\r\\n     ...\n      PUSH 4\t\t\tnts.push(2705875200);\\r\\n     ...\n      DUP1 \t\t\tnts.push(2705875200);\\r\\n     ...\n      CALLDATASIZE \t\t\tnts.push(2705875200);\\r\\n     ...\n      SUB \t\t\tnts.push(2705875200);\\r\\n     ...\n      DUP2 \t\t\tnts.push(2705875200);\\r\\n     ...\n      ADD \t\t\tnts.push(2705875200);\\r\\n     ...\n      SWAP1 \t\t\tnts.push(2705875200);\\r\\n     ...\n      PUSH [tag] 229\t\t\tnts.push(2705875200);\\r\\n     ...\n      SWAP2 \t\t\tnts.push(2705875200);\\r\\n     ...\n      SWAP1 \t\t\tnts.push(2705875200);\\r\\n     ...\n      PUSH [tag] 217\t\t\tnts.push(2705875200);\\r\\n     ...\n      JUMP \t\t\tnts.push(2705875200);\\r\\n     ...\n    tag 229\t\t\tnts.push(2705875200);\\r\\n     ...\n      JUMPDEST \t\t\tnts.push(2705875200);\\r\\n     ...\n      PUSH [tag] 230\t\t\tnts.push(2705875200);\\r\\n     ...\n      JUMP \t\t\tnts.push(2705875200);\\r\\n     ...\n    tag 228\t\t\tnts.push(2705875200);\\r\\n     ...\n      JUMPDEST \t\t\tnts.push(2705875200);\\r\\n     ...\n      PUSH 40\t\t\tnts.push(2705875200);\\r\\n     ...\n      MLOAD \t\t\tnts.push(2705875200);\\r\\n     ...\n      PUSH [tag] 231\t\t\tnts.push(2705875200);\\r\\n     ...\n      SWAP2 \t\t\tnts.push(2705875200);\\r\\n     ...\n      SWAP1 \t\t\tnts.push(2705875200);\\r\\n     ...\n      PUSH [tag] 82\t\t\tnts.push(2705875200);\\r\\n     ...\n      JUMP \t\t\tnts.push(2705875200);\\r\\n     ...\n    tag 231\t\t\tnts.push(2705875200);\\r\\n     ...\n      JUMPDEST \t\t\tnts.push(2705875200);\\r\\n     ...\n      PUSH 40\t\t\tnts.push(2705875200);\\r\\n     ...\n      MLOAD \t\t\tnts.push(2705875200);\\r\\n     ...\n      DUP1 \t\t\tnts.push(2705875200);\\r\\n     ...\n      SWAP2 \t\t\tnts.push(2705875200);\\r\\n     ...\n      SUB \t\t\tnts.push(2705875200);\\r\\n     ...\n      SWAP1 \t\t\tnts.push(2705875200);\\r\\n     ...\n      RETURN \t\t\tnts.push(2705875200);\\r\\n     ...\n    tag 42\t\t\tol public emergencyStopped = f...\n      JUMPDEST \t\t\tol public emergencyStopped = f...\n      CALLVALUE \t\t\tol public emergencyStopped = f...\n      DUP1 \t\t\tol public emergencyStopped = f...\n      ISZERO \t\t\tol public emergencyStopped = f...\n      PUSH [tag] 232\t\t\tol public emergencyStopped = f...\n      JUMPI \t\t\tol public emergencyStopped = f...\n      PUSH 0\t\t\tol public emergencyStopped = f...\n      DUP1 \t\t\tol public emergencyStopped = f...\n      REVERT \t\t\tol public emergencyStopped = f...\n    tag 232\t\t\tol public emergencyStopped = f...\n      JUMPDEST \t\t\tol public emergencyStopped = f...\n      POP \t\t\tol public emergencyStopped = f...\n      PUSH [tag] 233\t\t\tol public emergencyStopped = f...\n      PUSH [tag] 234\t\t\tol public emergencyStopped = f...\n      JUMP \t\t\tol public emergencyStopped = f...\n    tag 233\t\t\tol public emergencyStopped = f...\n      JUMPDEST \t\t\tol public emergencyStopped = f...\n      PUSH 40\t\t\tol public emergencyStopped = f...\n      MLOAD \t\t\tol public emergencyStopped = f...\n      PUSH [tag] 235\t\t\tol public emergencyStopped = f...\n      SWAP2 \t\t\tol public emergencyStopped = f...\n      SWAP1 \t\t\tol public emergencyStopped = f...\n      PUSH [tag] 61\t\t\tol public emergencyStopped = f...\n      JUMP \t\t\tol public emergencyStopped = f...\n    tag 235\t\t\tol public emergencyStopped = f...\n      JUMPDEST \t\t\tol public emergencyStopped = f...\n      PUSH 40\t\t\tol public emergencyStopped = f...\n      MLOAD \t\t\tol public emergencyStopped = f...\n      DUP1 \t\t\tol public emergencyStopped = f...\n      SWAP2 \t\t\tol public emergencyStopped = f...\n      SUB \t\t\tol public emergencyStopped = f...\n      SWAP1 \t\t\tol public emergencyStopped = f...\n      RETURN \t\t\tol public emergencyStopped = f...\n    tag 43\t\t\ttimestamp);\\r\\n\\r\\n    constru...\n      JUMPDEST \t\t\ttimestamp);\\r\\n\\r\\n    constru...\n      CALLVALUE \t\t\ttimestamp);\\r\\n\\r\\n    constru...\n      DUP1 \t\t\ttimestamp);\\r\\n\\r\\n    constru...\n      ISZERO \t\t\ttimestamp);\\r\\n\\r\\n    constru...\n      PUSH [tag] 236\t\t\ttimestamp);\\r\\n\\r\\n    constru...\n      JUMPI \t\t\ttimestamp);\\r\\n\\r\\n    constru...\n      PUSH 0\t\t\ttimestamp);\\r\\n\\r\\n    constru...\n      DUP1 \t\t\ttimestamp);\\r\\n\\r\\n    constru...\n      REVERT \t\t\ttimestamp);\\r\\n\\r\\n    constru...\n    tag 236\t\t\ttimestamp);\\r\\n\\r\\n    constru...\n      JUMPDEST \t\t\ttimestamp);\\r\\n\\r\\n    constru...\n      POP \t\t\ttimestamp);\\r\\n\\r\\n    constru...\n      PUSH [tag] 237\t\t\ttimestamp);\\r\\n\\r\\n    constru...\n      PUSH 4\t\t\ttimestamp);\\r\\n\\r\\n    constru...\n      DUP1 \t\t\ttimestamp);\\r\\n\\r\\n    constru...\n      CALLDATASIZE \t\t\ttimestamp);\\r\\n\\r\\n    constru...\n      SUB \t\t\ttimestamp);\\r\\n\\r\\n    constru...\n      DUP2 \t\t\ttimestamp);\\r\\n\\r\\n    constru...\n      ADD \t\t\ttimestamp);\\r\\n\\r\\n    constru...\n      SWAP1 \t\t\ttimestamp);\\r\\n\\r\\n    constru...\n      PUSH [tag] 238\t\t\ttimestamp);\\r\\n\\r\\n    constru...\n      SWAP2 \t\t\ttimestamp);\\r\\n\\r\\n    constru...\n      SWAP1 \t\t\ttimestamp);\\r\\n\\r\\n    constru...\n      PUSH [tag] 125\t\t\ttimestamp);\\r\\n\\r\\n    constru...\n      JUMP \t\t\ttimestamp);\\r\\n\\r\\n    constru...\n    tag 238\t\t\ttimestamp);\\r\\n\\r\\n    constru...\n      JUMPDEST \t\t\ttimestamp);\\r\\n\\r\\n    constru...\n      PUSH [tag] 239\t\t\ttimestamp);\\r\\n\\r\\n    constru...\n      JUMP \t\t\ttimestamp);\\r\\n\\r\\n    constru...\n    tag 237\t\t\ttimestamp);\\r\\n\\r\\n    constru...\n      JUMPDEST \t\t\ttimestamp);\\r\\n\\r\\n    constru...\n      STOP \t\t\ttimestamp);\\r\\n\\r\\n    constru...\n    tag 59\t\t\t6 timestamp);\\r\\n\\r\\n    const...\n      JUMPDEST \t\t\t6 timestamp);\\r\\n\\r\\n    const...\n      PUSH 0\t\t\t    \n      PUSH 7965DB0B00000000000000000000000000000000000000000000000000000000\t\t\tnZeppelin v5 style)\\r\\n       ...\n      PUSH FFFFFFFFFFFFFFFFFFFFFFFFFFFFFFFFFFFFFFFFFFFFFFFFFFFFFFFF\t\t\to deployer (OpenZeppelin v5 st...\n      NOT \t\t\to deployer (OpenZeppelin v5 st...\n      AND \t\t\to deployer (OpenZeppelin v5 st...\n      DUP3 \t\t\to deployer \n      PUSH FFFFFFFFFFFFFFFFFFFFFFFFFFFFFFFFFFFFFFFFFFFFFFFFFFFFFFFF\t\t\to deployer (OpenZeppelin v5 st...\n      NOT \t\t\to deployer (OpenZeppelin v5 st...\n      AND \t\t\to deployer (OpenZeppelin v5 st...\n      EQ \t\t\to deployer (OpenZeppelin v5 st...\n      DUP1 \t\t\to deployer (OpenZeppelin v5 st...\n      PUSH [tag] 241\t\t\to deployer (OpenZeppelin v5 st...\n      JUMPI \t\t\to deployer (OpenZeppelin v5 st...\n      POP \t\t\to deployer (OpenZeppelin v5 st...\n      PUSH [tag] 242\t\t\tole(DEFAULT_ADMIN_ROLE, _msgSe...\n      DUP3 \t\t\t_msgSender(\n      PUSH [tag] 243\t\t\tole(DEFAULT_ADMIN_ROLE,\n      JUMP \t\t\tole(DEFAULT_ADMIN_ROLE, _msgSe...\n    tag 242\t\t\tole(DEFAULT_ADMIN_ROLE, _msgSe...\n      JUMPDEST \t\t\tole(DEFAULT_ADMIN_ROLE, _msgSe...\n    tag 241\t\t\to deployer (OpenZeppelin v5 st...\n      JUMPDEST \t\t\to deployer (OpenZeppelin v5 st...\n      SWAP1 \t\t\troles to deployer (OpenZeppeli...\n      POP \t\t\troles to deployer (OpenZeppeli...\n      SWAP2 \t\t\t6 timestamp);\\r\\n\\r\\n    const...\n      SWAP1 \t\t\t6 timestamp);\\r\\n\\r\\n    const...\n      POP \t\t\t6 timestamp);\\r\\n\\r\\n    const...\n      JUMP \t\t\t6 timestamp);\\r\\n\\r\\n    const...\n    tag 64\t\t\t uint256 public nextMintIndex ...\n      JUMPDEST \t\t\t uint256 public nextMintIndex ...\n      PUSH 60\t\t\tor next sched\n      PUSH 3\t\t\t Emer\n      DUP1 \t\t\t\\n    // Emer\n      SLOAD \t\t\t\\n    // Emer\n      PUSH [tag] 245\t\t\t\\n    // Emer\n      SWAP1 \t\t\t\\n    // Emer\n      PUSH [tag] 246\t\t\t\\n    // Emer\n      JUMP \t\t\t\\n    // Emer\n    tag 245\t\t\t\\n    // Emer\n      JUMPDEST \t\t\t\\n    // Emer\n      DUP1 \t\t\t\\n    // Emer\n      PUSH 1F\t\t\t\\n    // Emer\n      ADD \t\t\t\\n    // Emer\n      PUSH 20\t\t\t\\n    // Emer\n      DUP1 \t\t\t\\n    // Emer\n      SWAP2 \t\t\t\\n    // Emer\n      DIV \t\t\t\\n    // Emer\n      MUL \t\t\t\\n    // Emer\n      PUSH 20\t\t\t\\n    // Emer\n      ADD \t\t\t\\n    // Emer\n      PUSH 40\t\t\t\\n    // Emer\n      MLOAD \t\t\t\\n    // Emer\n      SWAP1 \t\t\t\\n    // Emer\n      DUP2 \t\t\t\\n    // Emer\n      ADD \t\t\t\\n    // Emer\n      PUSH 40\t\t\t\\n    // Emer\n      MSTORE \t\t\t\\n    // Emer\n      DUP1 \t\t\t\\n    // Emer\n      SWAP3 \t\t\t\\n    // Emer\n      SWAP2 \t\t\t\\n    // Emer\n      SWAP1 \t\t\t\\n    // Emer\n      DUP2 \t\t\t\\n    // Emer\n      DUP2 \t\t\t\\n    // Emer\n      MSTORE \t\t\t\\n    // Emer\n      PUSH 20\t\t\t\\n    // Emer\n      ADD \t\t\t\\n    // Emer\n      DUP3 \t\t\t\\n    // Emer\n      DUP1 \t\t\t\\n    // Emer\n      SLOAD \t\t\t\\n    // Emer\n      PUSH [tag] 247\t\t\t\\n    // Emer\n      SWAP1 \t\t\t\\n    // Emer\n      PUSH [tag] 246\t\t\t\\n    // Emer\n      JUMP \t\t\t\\n    // Emer\n    tag 247\t\t\t\\n    // Emer\n      JUMPDEST \t\t\t\\n    // Emer\n      DUP1 \t\t\t\\n    // Emer\n      ISZERO \t\t\t\\n    // Emer\n      PUSH [tag] 248\t\t\t\\n    // Emer\n      JUMPI \t\t\t\\n    // Emer\n      DUP1 \t\t\t\\n    // Emer\n      PUSH 1F\t\t\t\\n    // Emer\n      LT \t\t\t\\n    // Emer\n      PUSH [tag] 249\t\t\t\\n    // Emer\n      JUMPI \t\t\t\\n    // Emer\n      PUSH 100\t\t\t\\n    // Emer\n      DUP1 \t\t\t\\n    // Emer\n      DUP4 \t\t\t\\n    // Emer\n      SLOAD \t\t\t\\n    // Emer\n      DIV \t\t\t\\n    // Emer\n      MUL \t\t\t\\n    // Emer\n      DUP4 \t\t\t\\n    // Emer\n      MSTORE \t\t\t\\n    // Emer\n      SWAP2 \t\t\t\\n    // Emer\n      PUSH 20\t\t\t\\n    // Emer\n      ADD \t\t\t\\n    // Emer\n      SWAP2 \t\t\t\\n    // Emer\n      PUSH [tag] 248\t\t\t\\n    // Emer\n      JUMP \t\t\t\\n    // Emer\n    tag 249\t\t\t\\n    // Emer\n      JUMPDEST \t\t\t\\n    // Emer\n      DUP3 \t\t\t\\n    // Emer\n      ADD \t\t\t\\n    // Emer\n      SWAP2 \t\t\t\\n    // Emer\n      SWAP1 \t\t\t\\n    // Emer\n      PUSH 0\t\t\t\\n    // Emer\n      MSTORE \t\t\t\\n    // Emer\n      PUSH 20\t\t\t\\n    // Emer\n      PUSH 0\t\t\t\\n    // Emer\n      KECCAK256 \t\t\t\\n    // Emer\n      SWAP1 \t\t\t\\n    // Emer\n    tag 250\t\t\t\\n    // Emer\n      JUMPDEST \t\t\t\\n    // Emer\n      DUP2 \t\t\t\\n    // Emer\n      SLOAD \t\t\t\\n    // Emer\n      DUP2 \t\t\t\\n    // Emer\n      MSTORE \t\t\t\\n    // Emer\n      SWAP1 \t\t\t\\n    // Emer\n      PUSH 1\t\t\t\\n    // Emer\n      ADD \t\t\t\\n    // Emer\n      SWAP1 \t\t\t\\n    // Emer\n      PUSH 20\t\t\t\\n    // Emer\n      ADD \t\t\t\\n    // Emer\n      DUP1 \t\t\t\\n    // Emer\n      DUP4 \t\t\t\\n    // Emer\n      GT \t\t\t\\n    // Emer\n      PUSH [tag] 250\t\t\t\\n    // Emer\n      JUMPI \t\t\t\\n    // Emer\n      DUP3 \t\t\t\\n    // Emer\n      SWAP1 \t\t\t\\n    // Emer\n      SUB \t\t\t\\n    // Emer\n      PUSH 1F\t\t\t\\n    // Emer\n      AND \t\t\t\\n    // Emer\n      DUP3 \t\t\t\\n    // Emer\n      ADD \t\t\t\\n    // Emer\n      SWAP2 \t\t\t\\n    // Emer\n    tag 248\t\t\t\\n    // Emer\n      JUMPDEST \t\t\t\\n    // Emer\n      POP \t\t\t\\n    // Emer\n      POP \t\t\t\\n    // Emer\n      POP \t\t\t\\n    // Emer\n      POP \t\t\t\\n    // Emer\n      POP \t\t\t\\n    // Emer\n      SWAP1 \t\t\t\\n    // Emer\n      POP \t\t\t\\n    // Emer\n      SWAP1 \t\t\t uint256 public nextMintIndex ...\n      JUMP \t\t\t uint256 public nextMintIndex ...\n    tag 71\t\t\tecimals\\r\\n    function decima...\n      JUMPDEST \t\t\tecimals\\r\\n    function decima...\n      PUSH 0\t\t\t    \n      DUP1 \t\t\tDECIMALS;\\r\\n  \n      PUSH [tag] 252\t\t\t\\r\\n\\r\\n    // -\n      PUSH [tag] 253\t\t\t\\r\\n\\r\\n    //\n      JUMP \t\t\t\\r\\n\\r\\n    // -\n    tag 252\t\t\t\\r\\n\\r\\n    // -\n      JUMPDEST \t\t\t\\r\\n\\r\\n    // -\n      SWAP1 \t\t\tDECIMALS;\\r\\n    }\\r\\n\\r\\n    ...\n      POP \t\t\tDECIMALS;\\r\\n    }\\r\\n\\r\\n    ...\n      PUSH [tag] 254\t\t\t-----------\\r\\n    // Emergenc...\n      DUP2 \t\t\t--\\r\\n \n      DUP6 \t\t\t // Eme\n      DUP6 \t\t\tency \n      PUSH [tag] 255\t\t\t--------\n      JUMP \t\t\t-----------\\r\\n    // Emergenc...\n    tag 254\t\t\t-----------\\r\\n    // Emergenc...\n      JUMPDEST \t\t\t-----------\\r\\n    // Emergenc...\n      PUSH 1\t\t\t----\n      SWAP2 \t\t\t   // -----\n      POP \t\t\t   // -----\n      POP \t\t\t   // -----\n      SWAP3 \t\t\tecimals\\r\\n    function decima...\n      SWAP2 \t\t\tecimals\\r\\n    function decima...\n      POP \t\t\tecimals\\r\\n    function decima...\n      POP \t\t\tecimals\\r\\n    function decima...\n      JUMP \t\t\tecimals\\r\\n    function decima...\n    tag 77\t\t\tnction rescueNative(address pa...\n      JUMPDEST \t\t\tnction rescueNative(address pa...\n      PUSH [tag] 257\t\t\tnt256(_DECIMA\n      PUSH [tag] 258\t\t\tnt256(_DECI\n      JUMP \t\t\tnt256(_DECIMA\n    tag 257\t\t\tnt256(_DECIMA\n      JUMPDEST \t\t\tnt256(_DECIMA\n      PUSH 0\t\t\t,\n      PUSH FFFFFFFFFFFFFFFFFFFFFFFFFFFFFFFFFFFFFFFF\t\t\t != address(0), \n      AND \t\t\t != address(0), \n      DUP3 \t\t\t !\n      PUSH FFFFFFFFFFFFFFFFFFFFFFFFFFFFFFFFFFFFFFFF\t\t\t != address(0), \n      AND \t\t\t != address(0), \n      SUB \t\t\t != address(0), \n      PUSH [tag] 260\t\t\tquire(to != address(0), \"TIGG:...\n      JUMPI \t\t\tquire(to != address(0), \"TIGG:...\n      PUSH 40\t\t\tquire(to != address(0), \"TIGG:...\n      MLOAD \t\t\tquire(to != address(0), \"TIGG:...\n      PUSH 8C379A000000000000000000000000000000000000000000000000000000000\t\t\tquire(to != address(0), \"TIGG:...\n      DUP2 \t\t\tquire(to != address(0), \"TIGG:...\n      MSTORE \t\t\tquire(to != address(0), \"TIGG:...\n      PUSH 4\t\t\tquire(to != address(0), \"TIGG:...\n      ADD \t\t\tquire(to != address(0), \"TIGG:...\n      PUSH [tag] 261\t\t\tquire(to != address(0), \"TIGG:...\n      SWAP1 \t\t\tquire(to != address(0), \"TIGG:...\n      PUSH [tag] 262\t\t\tquire(to != address(0), \"TIGG:...\n      JUMP \t\t\tquire(to != address(0), \"TIGG:...\n    tag 261\t\t\tquire(to != address(0), \"TIGG:...\n      JUMPDEST \t\t\tquire(to != address(0), \"TIGG:...\n      PUSH 40\t\t\tquire(to != address(0), \"TIGG:...\n      MLOAD \t\t\tquire(to != address(0), \"TIGG:...\n      DUP1 \t\t\tquire(to != address(0), \"TIGG:...\n      SWAP2 \t\t\tquire(to != address(0), \"TIGG:...\n      SUB \t\t\tquire(to != address(0), \"TIGG:...\n      SWAP1 \t\t\tquire(to != address(0), \"TIGG:...\n      REVERT \t\t\tquire(to != address(0), \"TIGG:...\n    tag 260\t\t\tquire(to != address(0), \"TIGG:...\n      JUMPDEST \t\t\tquire(to != address(0), \"TIGG:...\n      SELFBALANCE \t\t\tdress(this).balance, \n      DUP2 \t\t\tount <\n      GT \t\t\tount <= address(this).balance,...\n      ISZERO \t\t\tount <= address(this).balance,...\n      PUSH [tag] 263\t\t\tquire(amount <= address(this)....\n      JUMPI \t\t\tquire(amount <= address(this)....\n      PUSH 40\t\t\tquire(amount <= address(this)....\n      MLOAD \t\t\tquire(amount <= address(this)....\n      PUSH 8C379A000000000000000000000000000000000000000000000000000000000\t\t\tquire(amount <= address(this)....\n      DUP2 \t\t\tquire(amount <= address(this)....\n      MSTORE \t\t\tquire(amount <= address(this)....\n      PUSH 4\t\t\tquire(amount <= address(this)....\n      ADD \t\t\tquire(amount <= address(this)....\n      PUSH [tag] 264\t\t\tquire(amount <= address(this)....\n      SWAP1 \t\t\tquire(amount <= address(this)....\n      PUSH [tag] 265\t\t\tquire(amount <= address(this)....\n      JUMP \t\t\tquire(amount <= address(this)....\n    tag 264\t\t\tquire(amount <= address(this)....\n      JUMPDEST \t\t\tquire(amount <= address(this)....\n      PUSH 40\t\t\tquire(amount <= address(this)....\n      MLOAD \t\t\tquire(amount <= address(this)....\n      DUP1 \t\t\tquire(amount <= address(this)....\n      SWAP2 \t\t\tquire(amount <= address(this)....\n      SUB \t\t\tquire(amount <= address(this)....\n      SWAP1 \t\t\tquire(amount <= address(this)....\n      REVERT \t\t\tquire(amount <= address(this)....\n    tag 263\t\t\tquire(amount <= address(this)....\n      JUMPDEST \t\t\tquire(amount <= address(this)....\n      DUP2 \t\t\t.t\n      PUSH FFFFFFFFFFFFFFFFFFFFFFFFFFFFFFFFFFFFFFFF\t\t\t.transfer(a\n      AND \t\t\t.transfer(a\n      PUSH 8FC\t\t\t.transfer(amount);\\r\n      DUP3 \t\t\tount);\n      SWAP1 \t\t\t.transfer(amount);\\r\n      DUP2 \t\t\t.transfer(amount);\\r\n      ISZERO \t\t\t.transfer(amount);\\r\n      MUL \t\t\t.transfer(amount);\\r\n      SWAP1 \t\t\t.transfer(amount);\\r\n      PUSH 40\t\t\t.transfer(amount);\\r\n      MLOAD \t\t\t.transfer(amount);\\r\n      PUSH 0\t\t\t.transfer(amount);\\r\n      PUSH 40\t\t\t.transfer(amount);\\r\n      MLOAD \t\t\t.transfer(amount);\\r\n      DUP1 \t\t\t.transfer(amount);\\r\n      DUP4 \t\t\t.transfer(amount);\\r\n      SUB \t\t\t.transfer(amount);\\r\n      DUP2 \t\t\t.transfer(amount);\\r\n      DUP6 \t\t\t.transfer(amount);\\r\n      DUP9 \t\t\t.transfer(amount);\\r\n      DUP9 \t\t\t.transfer(amount);\\r\n      CALL \t\t\t.transfer(amount);\\r\n      SWAP4 \t\t\t.transfer(amount);\\r\n      POP \t\t\t.transfer(amount);\\r\n      POP \t\t\t.transfer(amount);\\r\n      POP \t\t\t.transfer(amount);\\r\n      POP \t\t\t.transfer(amount);\\r\n      ISZERO \t\t\t.transfer(amount);\\r\n      DUP1 \t\t\t.transfer(amount);\\r\n      ISZERO \t\t\t.transfer(amount);\\r\n      PUSH [tag] 267\t\t\t.transfer(amount);\\r\n      JUMPI \t\t\t.transfer(amount);\\r\n      RETURNDATASIZE \t\t\t.transfer(amount);\\r\n      PUSH 0\t\t\t.transfer(amount);\\r\n      DUP1 \t\t\t.transfer(amount);\\r\n      RETURNDATACOPY \t\t\t.transfer(amount);\\r\n      RETURNDATASIZE \t\t\t.transfer(amount);\\r\n      PUSH 0\t\t\t.transfer(amount);\\r\n      REVERT \t\t\t.transfer(amount);\\r\n    tag 267\t\t\t.transfer(amount);\\r\n      JUMPDEST \t\t\t.transfer(amount);\\r\n      POP \t\t\t.transfer(amount);\\r\n      DUP2 \t\t\t, \n      PUSH FFFFFFFFFFFFFFFFFFFFFFFFFFFFFFFFFFFFFFFF\t\t\ttiveRescued(to, amount);\\r\n      AND \t\t\ttiveRescued(to, amount);\\r\n      PUSH E3EB98B7FE2A0C1D490B92AF73EEAE611E9B00AB3C3F70B20BD7BB43F67A0F43\t\t\ttiveRescued(to, amount);\\r\n      DUP3 \t\t\tount);\n      PUSH 40\t\t\ttiveRescued(to, amount);\\r\n      MLOAD \t\t\ttiveRescued(to, amount);\\r\n      PUSH [tag] 268\t\t\ttiveRescued(to, amount);\\r\n      SWAP2 \t\t\ttiveRescued(to, amount);\\r\n      SWAP1 \t\t\ttiveRescued(to, amount);\\r\n      PUSH [tag] 82\t\t\ttiveRescued(to, amount);\\r\n      JUMP \t\t\ttiveRescued(to, amount);\\r\n    tag 268\t\t\ttiveRescued(to, amount);\\r\n      JUMPDEST \t\t\ttiveRescued(to, amount);\\r\n      PUSH 40\t\t\ttiveRescued(to, amount);\\r\n      MLOAD \t\t\ttiveRescued(to, amount);\\r\n      DUP1 \t\t\ttiveRescued(to, amount);\\r\n      SWAP2 \t\t\ttiveRescued(to, amount);\\r\n      SUB \t\t\ttiveRescued(to, amount);\\r\n      SWAP1 \t\t\ttiveRescued(to, amount);\\r\n      LOG2 \t\t\ttiveRescued(to, amount);\\r\n      POP \t\t\tnction rescueNative(address pa...\n      POP \t\t\tnction rescueNative(address pa...\n      JUMP \t\t\tnction rescueNative(address pa...\n    tag 80\t\t\tole(BRIDGE_ROLE, _msgSender())...\n      JUMPDEST \t\t\tole(BRIDGE_ROLE, _msgSender())...\n      PUSH 0\t\t\tnitial \n      PUSH 2\t\t\t\\n        _mi\n      SLOAD \t\t\t\\n        _mi\n      SWAP1 \t\t\tployer\\r\\n        _mi\n      POP \t\t\tployer\\r\\n        _mi\n      SWAP1 \t\t\tole(BRIDGE_ROLE, _msgSender())...\n      JUMP \t\t\tole(BRIDGE_ROLE, _msgSender())...\n    tag 87\t\t\temergencyStopped, \"TIGG: emerg...\n      JUMPDEST \t\t\temergencyStopped, \"TIGG: emerg...\n      PUSH 0\t\t\tdMin\n      DUP1 \t\t\tTIGG: no schedu\n      PUSH [tag] 271\t\t\t mints left\"\n      PUSH [tag] 253\t\t\t mints lef\n      JUMP \t\t\t mints left\"\n    tag 271\t\t\t mints left\"\n      JUMPDEST \t\t\t mints left\"\n      SWAP1 \t\t\tTIGG: no scheduled mints left\"\n      POP \t\t\tTIGG: no scheduled mints left\"\n      PUSH [tag] 272\t\t\t    uint256 unlockTime = sched...\n      DUP6 \t\t\tckTi\n      DUP3 \t\t\t = sche\n      DUP6 \t\t\tledMi\n      PUSH [tag] 273\t\t\t    uint256 unl\n      JUMP \t\t\t    uint256 unlockTime = sched...\n    tag 272\t\t\t    uint256 unlockTime = sched...\n      JUMPDEST \t\t\t    uint256 unlockTime = sched...\n      PUSH [tag] 274\t\t\ttIndex];\\r\\n        require(\n      DUP6 \t\t\t    \n      DUP6 \t\t\t  \n      DUP6 \t\t\tquire\n      PUSH [tag] 275\t\t\ttIndex];\\r\n      JUMP \t\t\ttIndex];\\r\\n        require(\n    tag 274\t\t\ttIndex];\\r\\n        require(\n      JUMPDEST \t\t\ttIndex];\\r\\n        require(\n      PUSH 1\t\t\t= un\n      SWAP2 \t\t\tstamp >= un\n      POP \t\t\tstamp >= un\n      POP \t\t\tstamp >= un\n      SWAP4 \t\t\temergencyStopped, \"TIGG: emerg...\n      SWAP3 \t\t\temergencyStopped, \"TIGG: emerg...\n      POP \t\t\temergencyStopped, \"TIGG: emerg...\n      POP \t\t\temergencyStopped, \"TIGG: emerg...\n      POP \t\t\temergencyStopped, \"TIGG: emerg...\n      JUMP \t\t\temergencyStopped, \"TIGG: emerg...\n    tag 93\t\t\th; i++) {\\r\\n            emit ...\n      JUMPDEST \t\t\th; i++) {\\r\\n            emit ...\n      PUSH 0\t\t\tedMints\n      PUSH 5\t\t\t   }\\r\\n\n      PUSH 0\t\t\t   }\\r\\n\\r\\n    \n      DUP4 \t\t\t\\n   \n      DUP2 \t\t\t   }\\r\\n\\r\\n    \n      MSTORE \t\t\t   }\\r\\n\\r\\n    \n      PUSH 20\t\t\t   }\\r\\n\\r\\n    \n      ADD \t\t\t   }\\r\\n\\r\\n    \n      SWAP1 \t\t\t   }\\r\\n\\r\\n    \n      DUP2 \t\t\t   }\\r\\n\\r\\n    \n      MSTORE \t\t\t   }\\r\\n\\r\\n    \n      PUSH 20\t\t\t   }\\r\\n\\r\\n    \n      ADD \t\t\t   }\\r\\n\\r\\n    \n      PUSH 0\t\t\t   }\\r\\n\\r\\n    \n      KECCAK256 \t\t\t   }\\r\\n\\r\\n    \n      PUSH 1\t\t\t   }\\r\\n\\r\\n    // overrid\n      ADD \t\t\t   }\\r\\n\\r\\n    // overrid\n      SLOAD \t\t\t   }\\r\\n\\r\\n    // overrid\n      SWAP1 \t\t\t   }\\r\\n    }\\r\\n\\r\\n    // ov...\n      POP \t\t\t   }\\r\\n    }\\r\\n\\r\\n    // ov...\n      SWAP2 \t\t\th; i++) {\\r\\n            emit ...\n      SWAP1 \t\t\th; i++) {\\r\\n            emit ...\n      POP \t\t\th; i++) {\\r\\n            emit ...\n      JUMP \t\t\th; i++) {\\r\\n            emit ...\n    tag 98\t\t\tnt256 public nextMintIndex = 0...\n      JUMPDEST \t\t\tnt256 public nextMintIndex = 0...\n      PUSH 8\t\t\tnt256 public nextMintIndex = 0...\n      SLOAD \t\t\tnt256 public nextMintIndex = 0...\n      DUP2 \t\t\tnt256 public nextMintIndex = 0...\n      JUMP \t\t\tnt256 public nextMintIndex = 0...\n    tag 104\t\t\tgencyStopped(_msgSender(), blo...\n      JUMPDEST \t\t\tgencyStopped(_msgSender(), blo...\n      PUSH [tag] 277\t\t\tergencyStop() exte\n      DUP3 \t\t\t ext\n      PUSH [tag] 93\t\t\tergencyStop(\n      JUMP \t\t\tergencyStop() exte\n    tag 277\t\t\tergencyStop() exte\n      JUMPDEST \t\t\tergencyStop() exte\n      PUSH [tag] 279\t\t\t56 timestamp);\\r\\n\n      DUP2 \t\t\tp);\\r\n      PUSH [tag] 280\t\t\t56 timesta\n      JUMP \t\t\t56 timestamp);\\r\\n\n    tag 279\t\t\t56 timestamp);\\r\\n\n      JUMPDEST \t\t\t56 timestamp);\\r\\n\n      PUSH [tag] 282\t\t\ter {\\r\\n        emergencySt\n      DUP4 \t\t\t   e\n      DUP4 \t\t\trgencyS\n      PUSH [tag] 283\t\t\ter {\\r\\n    \n      JUMP \t\t\ter {\\r\\n        emergencySt\n    tag 282\t\t\ter {\\r\\n        emergencySt\n      JUMPDEST \t\t\ter {\\r\\n        emergencySt\n      POP \t\t\ter {\\r\\n        emergencySt\n      POP \t\t\tgencyStopped(_msgSender(), blo...\n      POP \t\t\tgencyStopped(_msgSender(), blo...\n      POP \t\t\tgencyStopped(_msgSender(), blo...\n      JUMP \t\t\tgencyStopped(_msgSender(), blo...\n    tag 107\t\t\tnt256 public constant INITIAL_...\n      JUMPDEST \t\t\tnt256 public constant INITIAL_...\n      PUSH 12\t\t\t;\\r\n      PUSH FF\t\t\tnt256(_DECIMALS));\n      AND \t\t\tnt256(_DECIMALS));\n      PUSH A\t\t\t *\n      PUSH [tag] 284\t\t\t ** uint256(_DECIMALS));\n      SWAP2 \t\t\t ** uint256(_DECIMALS));\n      SWAP1 \t\t\t ** uint256(_DECIMALS));\n      PUSH [tag] 285\t\t\t ** uint256(_DECIMALS));\n      JUMP \t\t\t ** uint256(_DECIMALS));\n    tag 284\t\t\t ** uint256(_DECIMALS));\n      JUMPDEST \t\t\t ** uint256(_DECIMALS));\n      PUSH 3B9ACA00\t\t\t000_000_000 *\n      PUSH [tag] 286\t\t\t000_000_000 * (10 ** uint256(_...\n      SWAP2 \t\t\t000_000_000 * (10 ** uint256(_...\n      SWAP1 \t\t\t000_000_000 * (10 ** uint256(_...\n      PUSH [tag] 287\t\t\t000_000_000 * (10 ** uint256(_...\n      JUMP \t\t\t000_000_000 * (10 ** uint256(_...\n    tag 286\t\t\t000_000_000 * (10 ** uint256(_...\n      JUMPDEST \t\t\t000_000_000 * (10 ** uint256(_...\n      DUP2 \t\t\tnt256 public constant INITIAL_...\n      JUMP \t\t\tnt256 public constant INITIAL_...\n    tag 111\t\t\tnction decimals() public pure ...\n      JUMPDEST \t\t\tnction decimals() public pure ...\n      PUSH 0\t\t\tnt8) \n      PUSH 12\t\t\t;\\r\n      SWAP1 \t\t\tturn _DECIMALS;\\r\n      POP \t\t\tturn _DECIMALS;\\r\n      SWAP1 \t\t\tnction decimals() public pure ...\n      JUMP \t\t\tnction decimals() public pure ...\n    tag 116\t\t\tnt256 public constant MAX_SUPP...\n      JUMPDEST \t\t\tnt256 public constant MAX_SUPP...\n      PUSH 12\t\t\t;\\r\n      PUSH FF\t\t\tnt256(_DECIMALS));\n      AND \t\t\tnt256(_DECIMALS));\n      PUSH A\t\t\t *\n      PUSH [tag] 289\t\t\t ** uint256(_DECIMALS));\n      SWAP2 \t\t\t ** uint256(_DECIMALS));\n      SWAP1 \t\t\t ** uint256(_DECIMALS));\n      PUSH [tag] 285\t\t\t ** uint256(_DECIMALS));\n      JUMP \t\t\t ** uint256(_DECIMALS));\n    tag 289\t\t\t ** uint256(_DECIMALS));\n      JUMPDEST \t\t\t ** uint256(_DECIMALS));\n      PUSH 2540BE400\t\t\t_000_000_000 *\n      PUSH [tag] 290\t\t\t_000_000_000 * (10 ** uint256(...\n      SWAP2 \t\t\t_000_000_000 * (10 ** uint256(...\n      SWAP1 \t\t\t_000_000_000 * (10 ** uint256(...\n      PUSH [tag] 287\t\t\t_000_000_000 * (10 ** uint256(...\n      JUMP \t\t\t_000_000_000 * (10 ** uint256(...\n    tag 290\t\t\t_000_000_000 * (10 ** uint256(...\n      JUMPDEST \t\t\t_000_000_000 * (10 ** uint256(...\n      DUP2 \t\t\tnt256 public constant MAX_SUPP...\n      JUMP \t\t\tnt256 public constant MAX_SUPP...\n    tag 121\t\t\tly());\\r\\n\\r\\n        // advan...\n      JUMPDEST \t\t\tly());\\r\\n\\r\\n        // advan...\n      PUSH [tag] 292\t\t\tternal view \n      PUSH [tag] 253\t\t\tternal vie\n      JUMP \t\t\tternal view \n    tag 292\t\t\tternal view \n      JUMPDEST \t\t\tternal view \n      PUSH FFFFFFFFFFFFFFFFFFFFFFFFFFFFFFFFFFFFFFFF\t\t\tledMintsRemaining() external v...\n      AND \t\t\tledMintsRemaining() external v...\n      DUP2 \t\t\tledMintsRemaining(\n      PUSH FFFFFFFFFFFFFFFFFFFFFFFFFFFFFFFFFFFFFFFF\t\t\tledMintsRemaining() external v...\n      AND \t\t\tledMintsRemaining() external v...\n      EQ \t\t\tledMintsRemaining() external v...\n      PUSH [tag] 293\t\t\theduledMintsRemaining() extern...\n      JUMPI \t\t\theduledMintsRemaining() extern...\n      PUSH 40\t\t\t      if (nextMintIndex >= sch\n      MLOAD \t\t\t      if (nextMintIndex >= sch\n      PUSH 6697B23200000000000000000000000000000000000000000000000000000000\t\t\t      if (nextMintIndex >= sch\n      DUP2 \t\t\t      if (nextMintIndex >= sch\n      MSTORE \t\t\t      if (nextMintIndex >= sch\n      PUSH 4\t\t\t      if (nextMintIndex >= sch\n      ADD \t\t\t      if (nextMintIndex >= sch\n      PUSH 40\t\t\t      if (nextMintIndex >= sch\n      MLOAD \t\t\t      if (nextMintIndex >= sch\n      DUP1 \t\t\t      if (nextMintIndex >= sch\n      SWAP2 \t\t\t      if (nextMintIndex >= sch\n      SUB \t\t\t      if (nextMintIndex >= sch\n      SWAP1 \t\t\t      if (nextMintIndex >= sch\n      REVERT \t\t\t      if (nextMintIndex >= sch\n    tag 293\t\t\theduledMintsRemaining() extern...\n      JUMPDEST \t\t\theduledMintsRemaining() extern...\n      PUSH [tag] 294\t\t\teturn 0;\\r\\n        return sch...\n      DUP3 \t\t\t    \n      DUP3 \t\t\treturn scheduledMi\n      PUSH [tag] 295\t\t\teturn 0;\\r\\n \n      JUMP \t\t\teturn 0;\\r\\n        return sch...\n    tag 294\t\t\teturn 0;\\r\\n        return sch...\n      JUMPDEST \t\t\teturn 0;\\r\\n        return sch...\n      POP \t\t\teturn 0;\\r\\n        return sch...\n      POP \t\t\tly());\\r\\n\\r\\n        // advan...\n      POP \t\t\tly());\\r\\n\\r\\n        // advan...\n      JUMP \t\t\tly());\\r\\n\\r\\n        // advan...\n    tag 126\t\t\tnction ownerGrantMinter(addres...\n      JUMPDEST \t\t\tnction ownerGrantMinter(addres...\n      PUSH [tag] 297\t\t\tnt256(_DECIMA\n      PUSH [tag] 258\t\t\tnt256(_DECI\n      JUMP \t\t\tnt256(_DECIMA\n    tag 297\t\t\tnt256(_DECIMA\n      JUMPDEST \t\t\tnt256(_DECIMA\n      PUSH [tag] 299\t\t\trantRole(MINTER_ROLE, account)...\n      PUSH 9F2DF0FED2C77648DE5860A4CC508CD0818C85B8B8A1AB4CEEEF8D981C8956A6\t\t\tccak256(\"MINTER_ROLE\");\\r\n      DUP3 \t\t\tcount);\n      PUSH [tag] 283\t\t\trantRole(M\n      JUMP \t\t\trantRole(MINTER_ROLE, account)...\n    tag 299\t\t\trantRole(MINTER_ROLE, account)...\n      JUMPDEST \t\t\trantRole(MINTER_ROLE, account)...\n      POP \t\t\trantRole(MINTER_ROLE, account)...\n      POP \t\t\tnction ownerGrantMinter(addres...\n      JUMP \t\t\tnction ownerGrantMinter(addres...\n    tag 129\t\t\tnction executeScheduledMint() ...\n      JUMPDEST \t\t\tnction executeScheduledMint() ...\n      PUSH 9F2DF0FED2C77648DE5860A4CC508CD0818C85B8B8A1AB4CEEEF8D981C8956A6\t\t\tccak256(\"MINTER_ROLE\");\\r\n      PUSH [tag] 301\t\t\t56 timestamp);\\r\\n\n      DUP2 \t\t\tp);\\r\n      PUSH [tag] 280\t\t\t56 timesta\n      JUMP \t\t\t56 timestamp);\\r\\n\n    tag 301\t\t\t56 timestamp);\\r\\n\n      JUMPDEST \t\t\t56 timestamp);\\r\\n\n      PUSH 9\t\t\tergencyStopped, \n      PUSH 0\t\t\tergencyStopped, \n      SWAP1 \t\t\tergencyStopped, \n      SLOAD \t\t\tergencyStopped, \n      SWAP1 \t\t\tergencyStopped, \n      PUSH 100\t\t\tergencyStopped, \n      EXP \t\t\tergencyStopped, \n      SWAP1 \t\t\tergencyStopped, \n      DIV \t\t\tergencyStopped, \n      PUSH FF\t\t\tergencyStopped, \n      AND \t\t\tergencyStopped, \n      ISZERO \t\t\tmergencyStopped, \n      PUSH [tag] 303\t\t\tquire(!emergencyStopped, \"TIGG...\n      JUMPI \t\t\tquire(!emergencyStopped, \"TIGG...\n      PUSH 40\t\t\tquire(!emergencyStopped, \"TIGG...\n      MLOAD \t\t\tquire(!emergencyStopped, \"TIGG...\n      PUSH 8C379A000000000000000000000000000000000000000000000000000000000\t\t\tquire(!emergencyStopped, \"TIGG...\n      DUP2 \t\t\tquire(!emergencyStopped, \"TIGG...\n      MSTORE \t\t\tquire(!emergencyStopped, \"TIGG...\n      PUSH 4\t\t\tquire(!emergencyStopped, \"TIGG...\n      ADD \t\t\tquire(!emergencyStopped, \"TIGG...\n      PUSH [tag] 304\t\t\tquire(!emergencyStopped, \"TIGG...\n      SWAP1 \t\t\tquire(!emergencyStopped, \"TIGG...\n      PUSH [tag] 305\t\t\tquire(!emergencyStopped, \"TIGG...\n      JUMP \t\t\tquire(!emergencyStopped, \"TIGG...\n    tag 304\t\t\tquire(!emergencyStopped, \"TIGG...\n      JUMPDEST \t\t\tquire(!emergencyStopped, \"TIGG...\n      PUSH 40\t\t\tquire(!emergencyStopped, \"TIGG...\n      MLOAD \t\t\tquire(!emergencyStopped, \"TIGG...\n      DUP1 \t\t\tquire(!emergencyStopped, \"TIGG...\n      SWAP2 \t\t\tquire(!emergencyStopped, \"TIGG...\n      SUB \t\t\tquire(!emergencyStopped, \"TIGG...\n      SWAP1 \t\t\tquire(!emergencyStopped, \"TIGG...\n      REVERT \t\t\tquire(!emergencyStopped, \"TIGG...\n    tag 303\t\t\tquire(!emergencyStopped, \"TIGG...\n      JUMPDEST \t\t\tquire(!emergencyStopped, \"TIGG...\n      PUSH 7\t\t\theduledMints.l\n      DUP1 \t\t\theduledMints.length, \n      SLOAD \t\t\theduledMints.length, \n      SWAP1 \t\t\theduledMints.length, \n      POP \t\t\theduledMints.length, \n      PUSH 8\t\t\txtMintIndex <\n      SLOAD \t\t\txtMintIndex <\n      LT \t\t\txtMintIndex < scheduledMints.l...\n      PUSH [tag] 306\t\t\tquire(nextMintIndex < schedule...\n      JUMPI \t\t\tquire(nextMintIndex < schedule...\n      PUSH 40\t\t\tquire(nextMintIndex < schedule...\n      MLOAD \t\t\tquire(nextMintIndex < schedule...\n      PUSH 8C379A000000000000000000000000000000000000000000000000000000000\t\t\tquire(nextMintIndex < schedule...\n      DUP2 \t\t\tquire(nextMintIndex < schedule...\n      MSTORE \t\t\tquire(nextMintIndex < schedule...\n      PUSH 4\t\t\tquire(nextMintIndex < schedule...\n      ADD \t\t\tquire(nextMintIndex < schedule...\n      PUSH [tag] 307\t\t\tquire(nextMintIndex < schedule...\n      SWAP1 \t\t\tquire(nextMintIndex < schedule...\n      PUSH [tag] 308\t\t\tquire(nextMintIndex < schedule...\n      JUMP \t\t\tquire(nextMintIndex < schedule...\n    tag 307\t\t\tquire(nextMintIndex < schedule...\n      JUMPDEST \t\t\tquire(nextMintIndex < schedule...\n      PUSH 40\t\t\tquire(nextMintIndex < schedule...\n      MLOAD \t\t\tquire(nextMintIndex < schedule...\n      DUP1 \t\t\tquire(nextMintIndex < schedule...\n      SWAP2 \t\t\tquire(nextMintIndex < schedule...\n      SUB \t\t\tquire(nextMintIndex < schedule...\n      SWAP1 \t\t\tquire(nextMintIndex < schedule...\n      REVERT \t\t\tquire(nextMintIndex < schedule...\n    tag 306\t\t\tquire(nextMintIndex < schedule...\n      JUMPDEST \t\t\tquire(nextMintIndex < schedule...\n      PUSH 0\t\t\tnt256 unlockTime =\n      PUSH 7\t\t\theduledMints[n\n      PUSH 8\t\t\txtMintIndex];\n      SLOAD \t\t\txtMintIndex];\n      DUP2 \t\t\theduledMints[nextMintIndex];\\r\n      SLOAD \t\t\theduledMints[nextMintIndex];\\r\n      DUP2 \t\t\theduledMints[nextMintIndex];\\r\n      LT \t\t\theduledMints[nextMintIndex];\\r\n      PUSH [tag] 309\t\t\theduledMints[nextMintIndex];\\r\n      JUMPI \t\t\theduledMints[nextMintIndex];\\r\n      PUSH [tag] 310\t\t\theduledMints[nextMintIndex];\\r\n      PUSH [tag] 311\t\t\theduledMints[nextMintIndex];\\r\n      JUMP \t\t\theduledMints[nextMintIndex];\\r\n    tag 310\t\t\theduledMints[nextMintIndex];\\r\n      JUMPDEST \t\t\theduledMints[nextMintIndex];\\r\n    tag 309\t\t\theduledMints[nextMintIndex];\\r\n      JUMPDEST \t\t\theduledMints[nextMintIndex];\\r\n      SWAP1 \t\t\theduledMints[nextMintIndex];\\r\n      PUSH 0\t\t\theduledMints[nextMintIndex];\\r\n      MSTORE \t\t\theduledMints[nextMintIndex];\\r\n      PUSH 20\t\t\theduledMints[nextMintIndex];\\r\n      PUSH 0\t\t\theduledMints[nextMintIndex];\\r\n      KECCAK256 \t\t\theduledMints[nextMintIndex];\\r\n      ADD \t\t\theduledMints[nextMintIndex];\\r\n      SLOAD \t\t\theduledMints[nextMintIndex];\\r\n      SWAP1 \t\t\tnt256 unlockTime = scheduledMi...\n      POP \t\t\tnt256 unlockTime = scheduledMi...\n      DUP1 \t\t\tlockTime, \n      TIMESTAMP \t\t\tock.timestamp >\n      LT \t\t\tock.timestamp >= unlockTime, \n      ISZERO \t\t\tock.timestamp >= unlockTime, \n      PUSH [tag] 313\t\t\tquire(block.timestamp >= unloc...\n      JUMPI \t\t\tquire(block.timestamp >= unloc...\n      PUSH 40\t\t\tquire(block.timestamp >= unloc...\n      MLOAD \t\t\tquire(block.timestamp >= unloc...\n      PUSH 8C379A000000000000000000000000000000000000000000000000000000000\t\t\tquire(block.timestamp >= unloc...\n      DUP2 \t\t\tquire(block.timestamp >= unloc...\n      MSTORE \t\t\tquire(block.timestamp >= unloc...\n      PUSH 4\t\t\tquire(block.timestamp >= unloc...\n      ADD \t\t\tquire(block.timestamp >= unloc...\n      PUSH [tag] 314\t\t\tquire(block.timestamp >= unloc...\n      SWAP1 \t\t\tquire(block.timestamp >= unloc...\n      PUSH [tag] 315\t\t\tquire(block.timestamp >= unloc...\n      JUMP \t\t\tquire(block.timestamp >= unloc...\n    tag 314\t\t\tquire(block.timestamp >= unloc...\n      JUMPDEST \t\t\tquire(block.timestamp >= unloc...\n      PUSH 40\t\t\tquire(block.timestamp >= unloc...\n      MLOAD \t\t\tquire(block.timestamp >= unloc...\n      DUP1 \t\t\tquire(block.timestamp >= unloc...\n      SWAP2 \t\t\tquire(block.timestamp >= unloc...\n      SUB \t\t\tquire(block.timestamp >= unloc...\n      SWAP1 \t\t\tquire(block.timestamp >= unloc...\n      REVERT \t\t\tquire(block.timestamp >= unloc...\n    tag 313\t\t\tquire(block.timestamp >= unloc...\n      JUMPDEST \t\t\tquire(block.timestamp >= unloc...\n      PUSH 0\t\t\tnt256 currentSupply =\n      PUSH [tag] 316\t\t\ttalSupply();\\r\n      PUSH [tag] 80\t\t\ttalSupply()\n      JUMP \t\t\ttalSupply();\\r\n    tag 316\t\t\ttalSupply();\\r\n      JUMPDEST \t\t\ttalSupply();\\r\n      SWAP1 \t\t\tnt256 currentSupply = totalSup...\n      POP \t\t\tnt256 currentSupply = totalSup...\n      PUSH 12\t\t\t;\\r\n      PUSH FF\t\t\tnt256(_DECIMALS));\n      AND \t\t\tnt256(_DECIMALS));\n      PUSH A\t\t\t *\n      PUSH [tag] 317\t\t\t ** uint256(_DECIMALS));\n      SWAP2 \t\t\t ** uint256(_DECIMALS));\n      SWAP1 \t\t\t ** uint256(_DECIMALS));\n      PUSH [tag] 285\t\t\t ** uint256(_DECIMALS));\n      JUMP \t\t\t ** uint256(_DECIMALS));\n    tag 317\t\t\t ** uint256(_DECIMALS));\n      JUMPDEST \t\t\t ** uint256(_DECIMALS));\n      PUSH 2540BE400\t\t\t_000_000_000 *\n      PUSH [tag] 318\t\t\t_000_000_000 * (10 ** uint256(...\n      SWAP2 \t\t\t_000_000_000 * (10 ** uint256(...\n      SWAP1 \t\t\t_000_000_000 * (10 ** uint256(...\n      PUSH [tag] 287\t\t\t_000_000_000 * (10 ** uint256(...\n      JUMP \t\t\t_000_000_000 * (10 ** uint256(...\n    tag 318\t\t\t_000_000_000 * (10 ** uint256(...\n      JUMPDEST \t\t\t_000_000_000 * (10 ** uint256(...\n      PUSH 12\t\t\t;\\r\n      PUSH FF\t\t\tnt256(_DECIMALS));\n      AND \t\t\tnt256(_DECIMALS));\n      PUSH A\t\t\t *\n      PUSH [tag] 319\t\t\t ** uint256(_DECIMALS));\n      SWAP2 \t\t\t ** uint256(_DECIMALS));\n      SWAP1 \t\t\t ** uint256(_DECIMALS));\n      PUSH [tag] 285\t\t\t ** uint256(_DECIMALS));\n      JUMP \t\t\t ** uint256(_DECIMALS));\n    tag 319\t\t\t ** uint256(_DECIMALS));\n      JUMPDEST \t\t\t ** uint256(_DECIMALS));\n      PUSH 3B9ACA00\t\t\t000_000_000 *\n      PUSH [tag] 320\t\t\t000_000_000 * (10 ** uint256(_...\n      SWAP2 \t\t\t000_000_000 * (10 ** uint256(_...\n      SWAP1 \t\t\t000_000_000 * (10 ** uint256(_...\n      PUSH [tag] 287\t\t\t000_000_000 * (10 ** uint256(_...\n      JUMP \t\t\t000_000_000 * (10 ** uint256(_...\n    tag 320\t\t\t000_000_000 * (10 ** uint256(_...\n      JUMPDEST \t\t\t000_000_000 * (10 ** uint256(_...\n      DUP3 \t\t\trrentSupply +\n      PUSH [tag] 321\t\t\trrentSupply + TRANCHE_AMOUNT <\n      SWAP2 \t\t\trrentSupply + TRANCHE_AMOUNT <\n      SWAP1 \t\t\trrentSupply + TRANCHE_AMOUNT <\n      PUSH [tag] 322\t\t\trrentSupply + TRANCHE_AMOUNT <\n      JUMP \t\t\trrentSupply + TRANCHE_AMOUNT <\n    tag 321\t\t\trrentSupply + TRANCHE_AMOUNT <\n      JUMPDEST \t\t\trrentSupply + TRANCHE_AMOUNT <\n      GT \t\t\trrentSupply + TRANCHE_AMOUNT <...\n      ISZERO \t\t\trrentSupply + TRANCHE_AMOUNT <...\n      PUSH [tag] 323\t\t\tquire(currentSupply + TRANCHE_...\n      JUMPI \t\t\tquire(currentSupply + TRANCHE_...\n      PUSH 40\t\t\tquire(currentSupply + TRANCHE_...\n      MLOAD \t\t\tquire(currentSupply + TRANCHE_...\n      PUSH 8C379A000000000000000000000000000000000000000000000000000000000\t\t\tquire(currentSupply + TRANCHE_...\n      DUP2 \t\t\tquire(currentSupply + TRANCHE_...\n      MSTORE \t\t\tquire(currentSupply + TRANCHE_...\n      PUSH 4\t\t\tquire(currentSupply + TRANCHE_...\n      ADD \t\t\tquire(currentSupply + TRANCHE_...\n      PUSH [tag] 324\t\t\tquire(currentSupply + TRANCHE_...\n      SWAP1 \t\t\tquire(currentSupply + TRANCHE_...\n      PUSH [tag] 325\t\t\tquire(currentSupply + TRANCHE_...\n      JUMP \t\t\tquire(currentSupply + TRANCHE_...\n    tag 324\t\t\tquire(currentSupply + TRANCHE_...\n      JUMPDEST \t\t\tquire(currentSupply + TRANCHE_...\n      PUSH 40\t\t\tquire(currentSupply + TRANCHE_...\n      MLOAD \t\t\tquire(currentSupply + TRANCHE_...\n      DUP1 \t\t\tquire(currentSupply + TRANCHE_...\n      SWAP2 \t\t\tquire(currentSupply + TRANCHE_...\n      SUB \t\t\tquire(currentSupply + TRANCHE_...\n      SWAP1 \t\t\tquire(currentSupply + TRANCHE_...\n      REVERT \t\t\tquire(currentSupply + TRANCHE_...\n    tag 323\t\t\tquire(currentSupply + TRANCHE_...\n      JUMPDEST \t\t\tquire(currentSupply + TRANCHE_...\n      PUSH [tag] 326\t\t\tint(owner(), TRANCHE_AMOUNT);\\...\n      PUSH [tag] 327\t\t\tner(), \n      PUSH [tag] 176\t\t\tner()\n      JUMP \t\t\tner(), \n    tag 327\t\t\tner(), \n      JUMPDEST \t\t\tner(), \n      PUSH 12\t\t\t;\\r\n      PUSH FF\t\t\tnt256(_DECIMALS));\n      AND \t\t\tnt256(_DECIMALS));\n      PUSH A\t\t\t *\n      PUSH [tag] 328\t\t\t ** uint256(_DECIMALS));\n      SWAP2 \t\t\t ** uint256(_DECIMALS));\n      SWAP1 \t\t\t ** uint256(_DECIMALS));\n      PUSH [tag] 285\t\t\t ** uint256(_DECIMALS));\n      JUMP \t\t\t ** uint256(_DECIMALS));\n    tag 328\t\t\t ** uint256(_DECIMALS));\n      JUMPDEST \t\t\t ** uint256(_DECIMALS));\n      PUSH 3B9ACA00\t\t\t000_000_000 *\n      PUSH [tag] 329\t\t\t000_000_000 * (10 ** uint256(_...\n      SWAP2 \t\t\t000_000_000 * (10 ** uint256(_...\n      SWAP1 \t\t\t000_000_000 * (10 ** uint256(_...\n      PUSH [tag] 287\t\t\t000_000_000 * (10 ** uint256(_...\n      JUMP \t\t\t000_000_000 * (10 ** uint256(_...\n    tag 329\t\t\t000_000_000 * (10 ** uint256(_...\n      JUMPDEST \t\t\t000_000_000 * (10 ** uint256(_...\n      PUSH [tag] 330\t\t\tint(o\n      JUMP \t\t\tint(owner(), TRANCHE_AMOUNT);\\...\n    tag 326\t\t\tint(owner(), TRANCHE_AMOUNT);\\...\n      JUMPDEST \t\t\tint(owner(), TRANCHE_AMOUNT);\\...\n      PUSH [tag] 331\t\t\tner(), \n      PUSH [tag] 176\t\t\tner()\n      JUMP \t\t\tner(), \n    tag 331\t\t\tner(), \n      JUMPDEST \t\t\tner(), \n      PUSH FFFFFFFFFFFFFFFFFFFFFFFFFFFFFFFFFFFFFFFF\t\t\tntExecuted(owner(), TRANCHE_AM...\n      AND \t\t\tntExecuted(owner(), TRANCHE_AM...\n      PUSH E8CCED2832690B941C3B15AC00E7E0CE2D3AA09000CD7535508C9221C1060C7\t\t\tntExecuted(owner(), TRANCHE_AM...\n      PUSH 12\t\t\t;\\r\n      PUSH FF\t\t\tnt256(_DECIMALS));\n      AND \t\t\tnt256(_DECIMALS));\n      PUSH A\t\t\t *\n      PUSH [tag] 332\t\t\t ** uint256(_DECIMALS));\n      SWAP2 \t\t\t ** uint256(_DECIMALS));\n      SWAP1 \t\t\t ** uint256(_DECIMALS));\n      PUSH [tag] 285\t\t\t ** uint256(_DECIMALS));\n      JUMP \t\t\t ** uint256(_DECIMALS));\n    tag 332\t\t\t ** uint256(_DECIMALS));\n      JUMPDEST \t\t\t ** uint256(_DECIMALS));\n      PUSH 3B9ACA00\t\t\t000_000_000 *\n      PUSH [tag] 333\t\t\t000_000_000 * (10 ** uint256(_...\n      SWAP2 \t\t\t000_000_000 * (10 ** uint256(_...\n      SWAP1 \t\t\t000_000_000 * (10 ** uint256(_...\n      PUSH [tag] 287\t\t\t000_000_000 * (10 ** uint256(_...\n      JUMP \t\t\t000_000_000 * (10 ** uint256(_...\n    tag 333\t\t\t000_000_000 * (10 ** uint256(_...\n      JUMPDEST \t\t\t000_000_000 * (10 ** uint256(_...\n      TIMESTAMP \t\t\tock.timestamp, \n      PUSH [tag] 334\t\t\ttalSupply());\n      PUSH [tag] 80\t\t\ttalSupply()\n      JUMP \t\t\ttalSupply());\n    tag 334\t\t\ttalSupply());\n      JUMPDEST \t\t\ttalSupply());\n      PUSH 40\t\t\tntExecuted(owner(), TRANCHE_AM...\n      MLOAD \t\t\tntExecuted(owner(), TRANCHE_AM...\n      PUSH [tag] 335\t\t\tntExecuted(owner(), TRANCHE_AM...\n      SWAP4 \t\t\tntExecuted(owner(), TRANCHE_AM...\n      SWAP3 \t\t\tntExecuted(owner(), TRANCHE_AM...\n      SWAP2 \t\t\tntExecuted(owner(), TRANCHE_AM...\n      SWAP1 \t\t\tntExecuted(owner(), TRANCHE_AM...\n      PUSH [tag] 336\t\t\tntExecuted(owner(), TRANCHE_AM...\n      JUMP \t\t\tntExecuted(owner(), TRANCHE_AM...\n    tag 335\t\t\tntExecuted(owner(), TRANCHE_AM...\n      JUMPDEST \t\t\tntExecuted(owner(), TRANCHE_AM...\n      PUSH 40\t\t\tntExecuted(owner(), TRANCHE_AM...\n      MLOAD \t\t\tntExecuted(owner(), TRANCHE_AM...\n      DUP1 \t\t\tntExecuted(owner(), TRANCHE_AM...\n      SWAP2 \t\t\tntExecuted(owner(), TRANCHE_AM...\n      SUB \t\t\tntExecuted(owner(), TRANCHE_AM...\n      SWAP1 \t\t\tntExecuted(owner(), TRANCHE_AM...\n      LOG2 \t\t\tntExecuted(owner(), TRANCHE_AM...\n      PUSH 1\t\t\t\\r\n      PUSH 8\t\t\txtMintIndex +\n      PUSH 0\t\t\txtMintIndex +\n      DUP3 \t\t\txtMintIndex += 1;\\r\n      DUP3 \t\t\txtMintIndex += 1;\\r\n      SLOAD \t\t\txtMintIndex += 1;\\r\n      PUSH [tag] 337\t\t\txtMintIndex += 1;\\r\n      SWAP2 \t\t\txtMintIndex += 1;\\r\n      SWAP1 \t\t\txtMintIndex += 1;\\r\n      PUSH [tag] 322\t\t\txtMintIndex += 1;\\r\n      JUMP \t\t\txtMintIndex += 1;\\r\n    tag 337\t\t\txtMintIndex += 1;\\r\n      JUMPDEST \t\t\txtMintIndex += 1;\\r\n      SWAP3 \t\t\txtMintIndex += 1;\\r\n      POP \t\t\txtMintIndex += 1;\\r\n      POP \t\t\txtMintIndex += 1;\\r\n      DUP2 \t\t\txtMintIndex += 1;\\r\n      SWAP1 \t\t\txtMintIndex += 1;\\r\n      SSTORE \t\t\txtMintIndex += 1;\\r\n      POP \t\t\txtMintIndex += 1;\\r\n      POP \t\t\t\\n        require(!emergencySt...\n      POP \t\t\t\\n        require(!emergencySt...\n      POP \t\t\tnction executeScheduledMint() ...\n      JUMP \t\t\tnction executeScheduledMint() ...\n    tag 133\t\t\tnction ownerGrantBridge(addres...\n      JUMPDEST \t\t\tnction ownerGrantBridge(addres...\n      PUSH [tag] 339\t\t\tnt256(_DECIMA\n      PUSH [tag] 258\t\t\tnt256(_DECI\n      JUMP \t\t\tnt256(_DECIMA\n    tag 339\t\t\tnt256(_DECIMA\n      JUMPDEST \t\t\tnt256(_DECIMA\n      PUSH [tag] 341\t\t\trantRole(BRIDGE_ROLE, account)...\n      PUSH 52BA824BFABC2BCFCDF7F0EDBB486EBB05E1836C90E78047EFEB949990F72E5F\t\t\tccak256(\"BRIDGE_ROLE\");\\r\n      DUP3 \t\t\tcount);\n      PUSH [tag] 283\t\t\trantRole(B\n      JUMP \t\t\trantRole(BRIDGE_ROLE, account)...\n    tag 341\t\t\trantRole(BRIDGE_ROLE, account)...\n      JUMPDEST \t\t\trantRole(BRIDGE_ROLE, account)...\n      POP \t\t\trantRole(BRIDGE_ROLE, account)...\n      POP \t\t\tnction ownerGrantBridge(addres...\n      JUMP \t\t\tnction ownerGrantBridge(addres...\n    tag 137\t\t\tnction ownerRevokeMinter(addre...\n      JUMPDEST \t\t\tnction ownerRevokeMinter(addre...\n      PUSH [tag] 343\t\t\tnt256(_DECIMA\n      PUSH [tag] 258\t\t\tnt256(_DECI\n      JUMP \t\t\tnt256(_DECIMA\n    tag 343\t\t\tnt256(_DECIMA\n      JUMPDEST \t\t\tnt256(_DECIMA\n      PUSH [tag] 345\t\t\tvokeRole(MINTER_ROLE, account)...\n      PUSH 9F2DF0FED2C77648DE5860A4CC508CD0818C85B8B8A1AB4CEEEF8D981C8956A6\t\t\tccak256(\"MINTER_ROLE\");\\r\n      DUP3 \t\t\tcount);\n      PUSH [tag] 226\t\t\tvokeRole(M\n      JUMP \t\t\tvokeRole(MINTER_ROLE, account)...\n    tag 345\t\t\tvokeRole(MINTER_ROLE, account)...\n      JUMPDEST \t\t\tvokeRole(MINTER_ROLE, account)...\n      POP \t\t\tnction ownerRevokeMinter(addre...\n      JUMP \t\t\tnction ownerRevokeMinter(addre...\n    tag 140\t\t\tnction liftEmergencyStop() ext...\n      JUMPDEST \t\t\tnction liftEmergencyStop() ext...\n      PUSH [tag] 347\t\t\tnt256(_DECIMA\n      PUSH [tag] 258\t\t\tnt256(_DECI\n      JUMP \t\t\tnt256(_DECIMA\n    tag 347\t\t\tnt256(_DECIMA\n      JUMPDEST \t\t\tnt256(_DECIMA\n      PUSH 0\t\t\tlse;\\r\n      PUSH 9\t\t\tergencyStopped =\n      PUSH 0\t\t\tergencyStopped =\n      PUSH 100\t\t\tergencyStopped = false;\\r\n      EXP \t\t\tergencyStopped = false;\\r\n      DUP2 \t\t\tergencyStopped = false;\\r\n      SLOAD \t\t\tergencyStopped = false;\\r\n      DUP2 \t\t\tergencyStopped = false;\\r\n      PUSH FF\t\t\tergencyStopped = false;\\r\n      MUL \t\t\tergencyStopped = false;\\r\n      NOT \t\t\tergencyStopped = false;\\r\n      AND \t\t\tergencyStopped = false;\\r\n      SWAP1 \t\t\tergencyStopped = false;\\r\n      DUP4 \t\t\tergencyStopped = false;\\r\n      ISZERO \t\t\tergencyStopped = false;\\r\n      ISZERO \t\t\tergencyStopped = false;\\r\n      MUL \t\t\tergencyStopped = false;\\r\n      OR \t\t\tergencyStopped = false;\\r\n      SWAP1 \t\t\tergencyStopped = false;\\r\n      SSTORE \t\t\tergencyStopped = false;\\r\n      POP \t\t\tergencyStopped = false;\\r\n      PUSH [tag] 349\t\t\tsgSender(), \n      PUSH [tag] 253\t\t\tsgSender()\n      JUMP \t\t\tsgSender(), \n    tag 349\t\t\tsgSender(), \n      JUMPDEST \t\t\tsgSender(), \n      PUSH FFFFFFFFFFFFFFFFFFFFFFFFFFFFFFFFFFFFFFFF\t\t\tergencyLifted(_msgSender(), bl...\n      AND \t\t\tergencyLifted(_msgSender(), bl...\n      PUSH F036A640940749AA9C9995BEEE1B92AF0E81C4146443CA049F1A71E9DB3B9745\t\t\tergencyLifted(_msgSender(), bl...\n      TIMESTAMP \t\t\tock.timestamp);\n      PUSH 40\t\t\tergencyLifted(_msgSender(), bl...\n      MLOAD \t\t\tergencyLifted(_msgSender(), bl...\n      PUSH [tag] 350\t\t\tergencyLifted(_msgSender(), bl...\n      SWAP2 \t\t\tergencyLifted(_msgSender(), bl...\n      SWAP1 \t\t\tergencyLifted(_msgSender(), bl...\n      PUSH [tag] 82\t\t\tergencyLifted(_msgSender(), bl...\n      JUMP \t\t\tergencyLifted(_msgSender(), bl...\n    tag 350\t\t\tergencyLifted(_msgSender(), bl...\n      JUMPDEST \t\t\tergencyLifted(_msgSender(), bl...\n      PUSH 40\t\t\tergencyLifted(_msgSender(), bl...\n      MLOAD \t\t\tergencyLifted(_msgSender(), bl...\n      DUP1 \t\t\tergencyLifted(_msgSender(), bl...\n      SWAP2 \t\t\tergencyLifted(_msgSender(), bl...\n      SUB \t\t\tergencyLifted(_msgSender(), bl...\n      SWAP1 \t\t\tergencyLifted(_msgSender(), bl...\n      LOG2 \t\t\tergencyLifted(_msgSender(), bl...\n      JUMP \t\t\tnction liftEmergencyStop() ext...\n    tag 143\t\t\tnction emergencyStop() externa...\n      JUMPDEST \t\t\tnction emergencyStop() externa...\n      PUSH [tag] 352\t\t\tnt256(_DECIMA\n      PUSH [tag] 258\t\t\tnt256(_DECI\n      JUMP \t\t\tnt256(_DECIMA\n    tag 352\t\t\tnt256(_DECIMA\n      JUMPDEST \t\t\tnt256(_DECIMA\n      PUSH 1\t\t\tue;\\r\n      PUSH 9\t\t\tergencyStopped =\n      PUSH 0\t\t\tergencyStopped =\n      PUSH 100\t\t\tergencyStopped = true;\\r\n      EXP \t\t\tergencyStopped = true;\\r\n      DUP2 \t\t\tergencyStopped = true;\\r\n      SLOAD \t\t\tergencyStopped = true;\\r\n      DUP2 \t\t\tergencyStopped = true;\\r\n      PUSH FF\t\t\tergencyStopped = true;\\r\n      MUL \t\t\tergencyStopped = true;\\r\n      NOT \t\t\tergencyStopped = true;\\r\n      AND \t\t\tergencyStopped = true;\\r\n      SWAP1 \t\t\tergencyStopped = true;\\r\n      DUP4 \t\t\tergencyStopped = true;\\r\n      ISZERO \t\t\tergencyStopped = true;\\r\n      ISZERO \t\t\tergencyStopped = true;\\r\n      MUL \t\t\tergencyStopped = true;\\r\n      OR \t\t\tergencyStopped = true;\\r\n      SWAP1 \t\t\tergencyStopped = true;\\r\n      SSTORE \t\t\tergencyStopped = true;\\r\n      POP \t\t\tergencyStopped = true;\\r\n      PUSH [tag] 354\t\t\tsgSender(), \n      PUSH [tag] 253\t\t\tsgSender()\n      JUMP \t\t\tsgSender(), \n    tag 354\t\t\tsgSender(), \n      JUMPDEST \t\t\tsgSender(), \n      PUSH FFFFFFFFFFFFFFFFFFFFFFFFFFFFFFFFFFFFFFFF\t\t\tergencyStopped(_msgSender(), b...\n      AND \t\t\tergencyStopped(_msgSender(), b...\n      PUSH CEC7EB7D76573077D1643CFBEA3F1E4DA629BBD107E59871677E581159210056\t\t\tergencyStopped(_msgSender(), b...\n      TIMESTAMP \t\t\tock.timestamp);\n      PUSH 40\t\t\tergencyStopped(_msgSender(), b...\n      MLOAD \t\t\tergencyStopped(_msgSender(), b...\n      PUSH [tag] 355\t\t\tergencyStopped(_msgSender(), b...\n      SWAP2 \t\t\tergencyStopped(_msgSender(), b...\n      SWAP1 \t\t\tergencyStopped(_msgSender(), b...\n      PUSH [tag] 82\t\t\tergencyStopped(_msgSender(), b...\n      JUMP \t\t\tergencyStopped(_msgSender(), b...\n    tag 355\t\t\tergencyStopped(_msgSender(), b...\n      JUMPDEST \t\t\tergencyStopped(_msgSender(), b...\n      PUSH 40\t\t\tergencyStopped(_msgSender(), b...\n      MLOAD \t\t\tergencyStopped(_msgSender(), b...\n      DUP1 \t\t\tergencyStopped(_msgSender(), b...\n      SWAP2 \t\t\tergencyStopped(_msgSender(), b...\n      SUB \t\t\tergencyStopped(_msgSender(), b...\n      SWAP1 \t\t\tergencyStopped(_msgSender(), b...\n      LOG2 \t\t\tergencyStopped(_msgSender(), b...\n      JUMP \t\t\tnction emergencyStop() externa...\n    tag 147\t\t\t     // Populate scheduled min...\n      JUMPDEST \t\t\t     // Populate scheduled min...\n      PUSH 0\t\t\tvery 5 \n      DUP1 \t\t\t)\\r\\n      \n      PUSH 0\t\t\t)\\r\\n        // Note\n      DUP4 \t\t\t // Not\n      PUSH FFFFFFFFFFFFFFFFFFFFFFFFFFFFFFFFFFFFFFFF\t\t\t)\\r\\n        // Note\n      AND \t\t\t)\\r\\n        // Note\n      PUSH FFFFFFFFFFFFFFFFFFFFFFFFFFFFFFFFFFFFFFFF\t\t\t)\\r\\n        // Note\n      AND \t\t\t)\\r\\n        // Note\n      DUP2 \t\t\t)\\r\\n        // Note\n      MSTORE \t\t\t)\\r\\n        // Note\n      PUSH 20\t\t\t)\\r\\n        // Note\n      ADD \t\t\t)\\r\\n        // Note\n      SWAP1 \t\t\t)\\r\\n        // Note\n      DUP2 \t\t\t)\\r\\n        // Note\n      MSTORE \t\t\t)\\r\\n        // Note\n      PUSH 20\t\t\t)\\r\\n        // Note\n      ADD \t\t\t)\\r\\n        // Note\n      PUSH 0\t\t\t)\\r\\n        // Note\n      KECCAK256 \t\t\t)\\r\\n        // Note\n      SLOAD \t\t\t)\\r\\n        // Note\n      SWAP1 \t\t\tng 2030)\\r\\n        // Note\n      POP \t\t\tng 2030)\\r\\n        // Note\n      SWAP2 \t\t\t     // Populate scheduled min...\n      SWAP1 \t\t\t     // Populate scheduled min...\n      POP \t\t\t     // Populate scheduled min...\n      JUMP \t\t\t     // Populate scheduled min...\n    tag 151\t\t\tcued(address indexed token, ad...\n      JUMPDEST \t\t\tcued(address indexed token, ad...\n      PUSH [tag] 358\t\t\tnt256(_DECIMA\n      PUSH [tag] 258\t\t\tnt256(_DECI\n      JUMP \t\t\tnt256(_DECIMA\n    tag 358\t\t\tnt256(_DECIMA\n      JUMPDEST \t\t\tnt256(_DECIMA\n      PUSH [tag] 360\t\t\t\\r\\n    event NativeRescued(ad...\n      PUSH 0\t\t\td\n      PUSH [tag] 361\t\t\t\\r\\n    event Native\n      JUMP \t\t\t\\r\\n    event NativeRescued(ad...\n    tag 360\t\t\t\\r\\n    event NativeRescued(ad...\n      JUMPDEST \t\t\t\\r\\n    event NativeRescued(ad...\n      JUMP \t\t\tcued(address indexed token, ad...\n    tag 156\t\t\tnt256[] public scheduledMints;...\n      JUMPDEST \t\t\tnt256[] public scheduledMints;...\n      PUSH 7\t\t\tnt256[] public scheduledMints;...\n      DUP2 \t\t\tnt256[] public scheduledMints;...\n      DUP2 \t\t\tnt256[] public scheduledMints;...\n      SLOAD \t\t\tnt256[] public scheduledMints;...\n      DUP2 \t\t\tnt256[] public scheduledMints;...\n      LT \t\t\tnt256[] public scheduledMints;...\n      PUSH [tag] 362\t\t\tnt256[] public scheduledMints;...\n      JUMPI \t\t\tnt256[] public scheduledMints;...\n      PUSH 0\t\t\tnt256[] public scheduledMints;...\n      DUP1 \t\t\tnt256[] public scheduledMints;...\n      REVERT \t\t\tnt256[] public scheduledMints;...\n    tag 362\t\t\tnt256[] public scheduledMints;...\n      JUMPDEST \t\t\tnt256[] public scheduledMints;...\n      SWAP1 \t\t\tnt256[] public scheduledMints;...\n      PUSH 0\t\t\tnt256[] public scheduledMints;...\n      MSTORE \t\t\tnt256[] public scheduledMints;...\n      PUSH 20\t\t\tnt256[] public scheduledMints;...\n      PUSH 0\t\t\tnt256[] public scheduledMints;...\n      KECCAK256 \t\t\tnt256[] public scheduledMints;...\n      ADD \t\t\tnt256[] public scheduledMints;...\n      PUSH 0\t\t\tnt256[] public scheduledMints;...\n      SWAP2 \t\t\tnt256[] public scheduledMints;...\n      POP \t\t\tnt256[] public scheduledMints;...\n      SWAP1 \t\t\tnt256[] public scheduledMints;...\n      POP \t\t\tnt256[] public scheduledMints;...\n      SLOAD \t\t\tnt256[] public scheduledMints;...\n      DUP2 \t\t\tnt256[] public scheduledMints;...\n      JUMP \t\t\tnt256[] public scheduledMints;...\n    tag 161\t\t\tnction bridgeBurn(address from...\n      JUMPDEST \t\t\tnction bridgeBurn(address from...\n      PUSH 52BA824BFABC2BCFCDF7F0EDBB486EBB05E1836C90E78047EFEB949990F72E5F\t\t\tccak256(\"BRIDGE_ROLE\");\\r\n      PUSH [tag] 365\t\t\t56 timestamp);\\r\\n\n      DUP2 \t\t\tp);\\r\n      PUSH [tag] 280\t\t\t56 timesta\n      JUMP \t\t\t56 timestamp);\\r\\n\n    tag 365\t\t\t56 timestamp);\\r\\n\n      JUMPDEST \t\t\t56 timestamp);\\r\\n\n      PUSH 9\t\t\tergencyStopped, \n      PUSH 0\t\t\tergencyStopped, \n      SWAP1 \t\t\tergencyStopped, \n      SLOAD \t\t\tergencyStopped, \n      SWAP1 \t\t\tergencyStopped, \n      PUSH 100\t\t\tergencyStopped, \n      EXP \t\t\tergencyStopped, \n      SWAP1 \t\t\tergencyStopped, \n      DIV \t\t\tergencyStopped, \n      PUSH FF\t\t\tergencyStopped, \n      AND \t\t\tergencyStopped, \n      ISZERO \t\t\tmergencyStopped, \n      PUSH [tag] 367\t\t\tquire(!emergencyStopped, \"TIGG...\n      JUMPI \t\t\tquire(!emergencyStopped, \"TIGG...\n      PUSH 40\t\t\tquire(!emergencyStopped, \"TIGG...\n      MLOAD \t\t\tquire(!emergencyStopped, \"TIGG...\n      PUSH 8C379A000000000000000000000000000000000000000000000000000000000\t\t\tquire(!emergencyStopped, \"TIGG...\n      DUP2 \t\t\tquire(!emergencyStopped, \"TIGG...\n      MSTORE \t\t\tquire(!emergencyStopped, \"TIGG...\n      PUSH 4\t\t\tquire(!emergencyStopped, \"TIGG...\n      ADD \t\t\tquire(!emergencyStopped, \"TIGG...\n      PUSH [tag] 368\t\t\tquire(!emergencyStopped, \"TIGG...\n      SWAP1 \t\t\tquire(!emergencyStopped, \"TIGG...\n      PUSH [tag] 305\t\t\tquire(!emergencyStopped, \"TIGG...\n      JUMP \t\t\tquire(!emergencyStopped, \"TIGG...\n    tag 368\t\t\tquire(!emergencyStopped, \"TIGG...\n      JUMPDEST \t\t\tquire(!emergencyStopped, \"TIGG...\n      PUSH 40\t\t\tquire(!emergencyStopped, \"TIGG...\n      MLOAD \t\t\tquire(!emergencyStopped, \"TIGG...\n      DUP1 \t\t\tquire(!emergencyStopped, \"TIGG...\n      SWAP2 \t\t\tquire(!emergencyStopped, \"TIGG...\n      SUB \t\t\tquire(!emergencyStopped, \"TIGG...\n      SWAP1 \t\t\tquire(!emergencyStopped, \"TIGG...\n      REVERT \t\t\tquire(!emergencyStopped, \"TIGG...\n    tag 367\t\t\tquire(!emergencyStopped, \"TIGG...\n      JUMPDEST \t\t\tquire(!emergencyStopped, \"TIGG...\n      PUSH 0\t\t\t,\n      PUSH FFFFFFFFFFFFFFFFFFFFFFFFFFFFFFFFFFFFFFFF\t\t\tom != address(0), \n      AND \t\t\tom != address(0), \n      DUP4 \t\t\tom !\n      PUSH FFFFFFFFFFFFFFFFFFFFFFFFFFFFFFFFFFFFFFFF\t\t\tom != address(0), \n      AND \t\t\tom != address(0), \n      SUB \t\t\tom != address(0), \n      PUSH [tag] 369\t\t\tquire(from != address(0), \"TIG...\n      JUMPI \t\t\tquire(from != address(0), \"TIG...\n      PUSH 40\t\t\tquire(from != address(0), \"TIG...\n      MLOAD \t\t\tquire(from != address(0), \"TIG...\n      PUSH 8C379A000000000000000000000000000000000000000000000000000000000\t\t\tquire(from != address(0), \"TIG...\n      DUP2 \t\t\tquire(from != address(0), \"TIG...\n      MSTORE \t\t\tquire(from != address(0), \"TIG...\n      PUSH 4\t\t\tquire(from != address(0), \"TIG...\n      ADD \t\t\tquire(from != address(0), \"TIG...\n      PUSH [tag] 370\t\t\tquire(from != address(0), \"TIG...\n      SWAP1 \t\t\tquire(from != address(0), \"TIG...\n      PUSH [tag] 371\t\t\tquire(from != address(0), \"TIG...\n      JUMP \t\t\tquire(from != address(0), \"TIG...\n    tag 370\t\t\tquire(from != address(0), \"TIG...\n      JUMPDEST \t\t\tquire(from != address(0), \"TIG...\n      PUSH 40\t\t\tquire(from != address(0), \"TIG...\n      MLOAD \t\t\tquire(from != address(0), \"TIG...\n      DUP1 \t\t\tquire(from != address(0), \"TIG...\n      SWAP2 \t\t\tquire(from != address(0), \"TIG...\n      SUB \t\t\tquire(from != address(0), \"TIG...\n      SWAP1 \t\t\tquire(from != address(0), \"TIG...\n      REVERT \t\t\tquire(from != address(0), \"TIG...\n    tag 369\t\t\tquire(from != address(0), \"TIG...\n      JUMPDEST \t\t\tquire(from != address(0), \"TIG...\n      PUSH [tag] 372\t\t\turn(from, amount);\\r\n      DUP4 \t\t\tom, \n      DUP4 \t\t\tount);\n      PUSH [tag] 373\t\t\turn(f\n      JUMP \t\t\turn(from, amount);\\r\n    tag 372\t\t\turn(from, amount);\\r\n      JUMPDEST \t\t\turn(from, amount);\\r\n      PUSH [tag] 374\t\t\tsgSender());\n      PUSH [tag] 253\t\t\tsgSender()\n      JUMP \t\t\tsgSender());\n    tag 374\t\t\tsgSender());\n      JUMPDEST \t\t\tsgSender());\n      PUSH FFFFFFFFFFFFFFFFFFFFFFFFFFFFFFFFFFFFFFFF\t\t\tidgeBurn(from, amount, _msgSen...\n      AND \t\t\tidgeBurn(from, amount, _msgSen...\n      DUP4 \t\t\tom, \n      PUSH FFFFFFFFFFFFFFFFFFFFFFFFFFFFFFFFFFFFFFFF\t\t\tidgeBurn(from, amount, _msgSen...\n      AND \t\t\tidgeBurn(from, amount, _msgSen...\n      PUSH 32F9B14980D51F40BA4119C33DAF3D6700E0ED2820178703454E311DA0C58A73\t\t\tidgeBurn(from, amount, _msgSen...\n      DUP5 \t\t\tount, \n      PUSH 40\t\t\tidgeBurn(from, amount, _msgSen...\n      MLOAD \t\t\tidgeBurn(from, amount, _msgSen...\n      PUSH [tag] 375\t\t\tidgeBurn(from, amount, _msgSen...\n      SWAP2 \t\t\tidgeBurn(from, amount, _msgSen...\n      SWAP1 \t\t\tidgeBurn(from, amount, _msgSen...\n      PUSH [tag] 82\t\t\tidgeBurn(from, amount, _msgSen...\n      JUMP \t\t\tidgeBurn(from, amount, _msgSen...\n    tag 375\t\t\tidgeBurn(from, amount, _msgSen...\n      JUMPDEST \t\t\tidgeBurn(from, amount, _msgSen...\n      PUSH 40\t\t\tidgeBurn(from, amount, _msgSen...\n      MLOAD \t\t\tidgeBurn(from, amount, _msgSen...\n      DUP1 \t\t\tidgeBurn(from, amount, _msgSen...\n      SWAP2 \t\t\tidgeBurn(from, amount, _msgSen...\n      SUB \t\t\tidgeBurn(from, amount, _msgSen...\n      SWAP1 \t\t\tidgeBurn(from, amount, _msgSen...\n      LOG3 \t\t\tidgeBurn(from, amount, _msgSen...\n      POP \t\t\tnction bridgeBurn(address from...\n      POP \t\t\tnction bridgeBurn(address from...\n      POP \t\t\tnction bridgeBurn(address from...\n      JUMP \t\t\tnction bridgeBurn(address from...\n    tag 164\t\t\tnction scheduledMintsRemaining...\n      JUMPDEST \t\t\tnction scheduledMintsRemaining...\n      PUSH 0\t\t\tnt256) \n      PUSH 7\t\t\theduledMints.l\n      DUP1 \t\t\theduledMints.length) \n      SLOAD \t\t\theduledMints.length) \n      SWAP1 \t\t\theduledMints.length) \n      POP \t\t\theduledMints.length) \n      PUSH 8\t\t\txtMintIndex >\n      SLOAD \t\t\txtMintIndex >\n      LT \t\t\txtMintIndex >= scheduledMints....\n      PUSH [tag] 377\t\t\t (nextMintIndex >= scheduledMi...\n      JUMPI \t\t\t (nextMintIndex >= scheduledMi...\n      PUSH 0\t\t\t\\r\n      SWAP1 \t\t\tturn 0;\\r\n      POP \t\t\tturn 0;\\r\n      PUSH [tag] 376\t\t\tturn 0;\\r\n      JUMP \t\t\tturn 0;\\r\n    tag 377\t\t\t (nextMintIndex >= scheduledMi...\n      JUMPDEST \t\t\t (nextMintIndex >= scheduledMi...\n      PUSH 8\t\t\txtMintIndex;\\r\n      SLOAD \t\t\txtMintIndex;\\r\n      PUSH 7\t\t\theduledMints.l\n      DUP1 \t\t\theduledMints.length -\n      SLOAD \t\t\theduledMints.length -\n      SWAP1 \t\t\theduledMints.length -\n      POP \t\t\theduledMints.length -\n      PUSH [tag] 378\t\t\theduledMints.length - nextMint...\n      SWAP2 \t\t\theduledMints.length - nextMint...\n      SWAP1 \t\t\theduledMints.length - nextMint...\n      PUSH [tag] 379\t\t\theduledMints.length - nextMint...\n      JUMP \t\t\theduledMints.length - nextMint...\n    tag 378\t\t\theduledMints.length - nextMint...\n      JUMPDEST \t\t\theduledMints.length - nextMint...\n      SWAP1 \t\t\tturn scheduledMints.length - n...\n      POP \t\t\tturn scheduledMints.length - n...\n    tag 376\t\t\tnction scheduledMintsRemaining...\n      JUMPDEST \t\t\tnction scheduledMintsRemaining...\n      SWAP1 \t\t\tnction scheduledMintsRemaining...\n      JUMP \t\t\tnction scheduledMintsRemaining...\n    tag 168\t\t\tnt256 public constant TRANCHE_...\n      JUMPDEST \t\t\tnt256 public constant TRANCHE_...\n      PUSH 12\t\t\t;\\r\n      PUSH FF\t\t\tnt256(_DECIMALS));\n      AND \t\t\tnt256(_DECIMALS));\n      PUSH A\t\t\t *\n      PUSH [tag] 380\t\t\t ** uint256(_DECIMALS));\n      SWAP2 \t\t\t ** uint256(_DECIMALS));\n      SWAP1 \t\t\t ** uint256(_DECIMALS));\n      PUSH [tag] 285\t\t\t ** uint256(_DECIMALS));\n      JUMP \t\t\t ** uint256(_DECIMALS));\n    tag 380\t\t\t ** uint256(_DECIMALS));\n      JUMPDEST \t\t\t ** uint256(_DECIMALS));\n      PUSH 3B9ACA00\t\t\t000_000_000 *\n      PUSH [tag] 381\t\t\t000_000_000 * (10 ** uint256(_...\n      SWAP2 \t\t\t000_000_000 * (10 ** uint256(_...\n      SWAP1 \t\t\t000_000_000 * (10 ** uint256(_...\n      PUSH [tag] 287\t\t\t000_000_000 * (10 ** uint256(_...\n      JUMP \t\t\t000_000_000 * (10 ** uint256(_...\n    tag 381\t\t\t000_000_000 * (10 ** uint256(_...\n      JUMPDEST \t\t\t000_000_000 * (10 ** uint256(_...\n      DUP2 \t\t\tnt256 public constant TRANCHE_...\n      JUMP \t\t\tnt256 public constant TRANCHE_...\n    tag 173\t\t\tnction bridgeMint(address to, ...\n      JUMPDEST \t\t\tnction bridgeMint(address to, ...\n      PUSH 52BA824BFABC2BCFCDF7F0EDBB486EBB05E1836C90E78047EFEB949990F72E5F\t\t\tccak256(\"BRIDGE_ROLE\");\\r\n      PUSH [tag] 383\t\t\t56 timestamp);\\r\\n\n      DUP2 \t\t\tp);\\r\n      PUSH [tag] 280\t\t\t56 timesta\n      JUMP \t\t\t56 timestamp);\\r\\n\n    tag 383\t\t\t56 timestamp);\\r\\n\n      JUMPDEST \t\t\t56 timestamp);\\r\\n\n      PUSH 9\t\t\tergencyStopped, \n      PUSH 0\t\t\tergencyStopped, \n      SWAP1 \t\t\tergencyStopped, \n      SLOAD \t\t\tergencyStopped, \n      SWAP1 \t\t\tergencyStopped, \n      PUSH 100\t\t\tergencyStopped, \n      EXP \t\t\tergencyStopped, \n      SWAP1 \t\t\tergencyStopped, \n      DIV \t\t\tergencyStopped, \n      PUSH FF\t\t\tergencyStopped, \n      AND \t\t\tergencyStopped, \n      ISZERO \t\t\tmergencyStopped, \n      PUSH [tag] 385\t\t\tquire(!emergencyStopped, \"TIGG...\n      JUMPI \t\t\tquire(!emergencyStopped, \"TIGG...\n      PUSH 40\t\t\tquire(!emergencyStopped, \"TIGG...\n      MLOAD \t\t\tquire(!emergencyStopped, \"TIGG...\n      PUSH 8C379A000000000000000000000000000000000000000000000000000000000\t\t\tquire(!emergencyStopped, \"TIGG...\n      DUP2 \t\t\tquire(!emergencyStopped, \"TIGG...\n      MSTORE \t\t\tquire(!emergencyStopped, \"TIGG...\n      PUSH 4\t\t\tquire(!emergencyStopped, \"TIGG...\n      ADD \t\t\tquire(!emergencyStopped, \"TIGG...\n      PUSH [tag] 386\t\t\tquire(!emergencyStopped, \"TIGG...\n      SWAP1 \t\t\tquire(!emergencyStopped, \"TIGG...\n      PUSH [tag] 305\t\t\tquire(!emergencyStopped, \"TIGG...\n      JUMP \t\t\tquire(!emergencyStopped, \"TIGG...\n    tag 386\t\t\tquire(!emergencyStopped, \"TIGG...\n      JUMPDEST \t\t\tquire(!emergencyStopped, \"TIGG...\n      PUSH 40\t\t\tquire(!emergencyStopped, \"TIGG...\n      MLOAD \t\t\tquire(!emergencyStopped, \"TIGG...\n      DUP1 \t\t\tquire(!emergencyStopped, \"TIGG...\n      SWAP2 \t\t\tquire(!emergencyStopped, \"TIGG...\n      SUB \t\t\tquire(!emergencyStopped, \"TIGG...\n      SWAP1 \t\t\tquire(!emergencyStopped, \"TIGG...\n      REVERT \t\t\tquire(!emergencyStopped, \"TIGG...\n    tag 385\t\t\tquire(!emergencyStopped, \"TIGG...\n      JUMPDEST \t\t\tquire(!emergencyStopped, \"TIGG...\n      PUSH 0\t\t\t,\n      PUSH FFFFFFFFFFFFFFFFFFFFFFFFFFFFFFFFFFFFFFFF\t\t\t != address(0), \n      AND \t\t\t != address(0), \n      DUP4 \t\t\t !\n      PUSH FFFFFFFFFFFFFFFFFFFFFFFFFFFFFFFFFFFFFFFF\t\t\t != address(0), \n      AND \t\t\t != address(0), \n      SUB \t\t\t != address(0), \n      PUSH [tag] 387\t\t\tquire(to != address(0), \"TIGG:...\n      JUMPI \t\t\tquire(to != address(0), \"TIGG:...\n      PUSH 40\t\t\tquire(to != address(0), \"TIGG:...\n      MLOAD \t\t\tquire(to != address(0), \"TIGG:...\n      PUSH 8C379A000000000000000000000000000000000000000000000000000000000\t\t\tquire(to != address(0), \"TIGG:...\n      DUP2 \t\t\tquire(to != address(0), \"TIGG:...\n      MSTORE \t\t\tquire(to != address(0), \"TIGG:...\n      PUSH 4\t\t\tquire(to != address(0), \"TIGG:...\n      ADD \t\t\tquire(to != address(0), \"TIGG:...\n      PUSH [tag] 388\t\t\tquire(to != address(0), \"TIGG:...\n      SWAP1 \t\t\tquire(to != address(0), \"TIGG:...\n      PUSH [tag] 389\t\t\tquire(to != address(0), \"TIGG:...\n      JUMP \t\t\tquire(to != address(0), \"TIGG:...\n    tag 388\t\t\tquire(to != address(0), \"TIGG:...\n      JUMPDEST \t\t\tquire(to != address(0), \"TIGG:...\n      PUSH 40\t\t\tquire(to != address(0), \"TIGG:...\n      MLOAD \t\t\tquire(to != address(0), \"TIGG:...\n      DUP1 \t\t\tquire(to != address(0), \"TIGG:...\n      SWAP2 \t\t\tquire(to != address(0), \"TIGG:...\n      SUB \t\t\tquire(to != address(0), \"TIGG:...\n      SWAP1 \t\t\tquire(to != address(0), \"TIGG:...\n      REVERT \t\t\tquire(to != address(0), \"TIGG:...\n    tag 387\t\t\tquire(to != address(0), \"TIGG:...\n      JUMPDEST \t\t\tquire(to != address(0), \"TIGG:...\n      PUSH 12\t\t\t;\\r\n      PUSH FF\t\t\tnt256(_DECIMALS));\n      AND \t\t\tnt256(_DECIMALS));\n      PUSH A\t\t\t *\n      PUSH [tag] 390\t\t\t ** uint256(_DECIMALS));\n      SWAP2 \t\t\t ** uint256(_DECIMALS));\n      SWAP1 \t\t\t ** uint256(_DECIMALS));\n      PUSH [tag] 285\t\t\t ** uint256(_DECIMALS));\n      JUMP \t\t\t ** uint256(_DECIMALS));\n    tag 390\t\t\t ** uint256(_DECIMALS));\n      JUMPDEST \t\t\t ** uint256(_DECIMALS));\n      PUSH 2540BE400\t\t\t_000_000_000 *\n      PUSH [tag] 391\t\t\t_000_000_000 * (10 ** uint256(...\n      SWAP2 \t\t\t_000_000_000 * (10 ** uint256(...\n      SWAP1 \t\t\t_000_000_000 * (10 ** uint256(...\n      PUSH [tag] 287\t\t\t_000_000_000 * (10 ** uint256(...\n      JUMP \t\t\t_000_000_000 * (10 ** uint256(...\n    tag 391\t\t\t_000_000_000 * (10 ** uint256(...\n      JUMPDEST \t\t\t_000_000_000 * (10 ** uint256(...\n      DUP3 \t\t\tount <\n      PUSH [tag] 392\t\t\ttalSupply() +\n      PUSH [tag] 80\t\t\ttalSupply()\n      JUMP \t\t\ttalSupply() +\n    tag 392\t\t\ttalSupply() +\n      JUMPDEST \t\t\ttalSupply() +\n      PUSH [tag] 393\t\t\ttalSupply() + amount <\n      SWAP2 \t\t\ttalSupply() + amount <\n      SWAP1 \t\t\ttalSupply() + amount <\n      PUSH [tag] 322\t\t\ttalSupply() + amount <\n      JUMP \t\t\ttalSupply() + amount <\n    tag 393\t\t\ttalSupply() + amount <\n      JUMPDEST \t\t\ttalSupply() + amount <\n      GT \t\t\ttalSupply() + amount <= MAX_SU...\n      ISZERO \t\t\ttalSupply() + amount <= MAX_SU...\n      PUSH [tag] 394\t\t\tquire(totalSupply() + amount <...\n      JUMPI \t\t\tquire(totalSupply() + amount <...\n      PUSH 40\t\t\tquire(totalSupply() + amount <...\n      MLOAD \t\t\tquire(totalSupply() + amount <...\n      PUSH 8C379A000000000000000000000000000000000000000000000000000000000\t\t\tquire(totalSupply() + amount <...\n      DUP2 \t\t\tquire(totalSupply() + amount <...\n      MSTORE \t\t\tquire(totalSupply() + amount <...\n      PUSH 4\t\t\tquire(totalSupply() + amount <...\n      ADD \t\t\tquire(totalSupply() + amount <...\n      PUSH [tag] 395\t\t\tquire(totalSupply() + amount <...\n      SWAP1 \t\t\tquire(totalSupply() + amount <...\n      PUSH [tag] 325\t\t\tquire(totalSupply() + amount <...\n      JUMP \t\t\tquire(totalSupply() + amount <...\n    tag 395\t\t\tquire(totalSupply() + amount <...\n      JUMPDEST \t\t\tquire(totalSupply() + amount <...\n      PUSH 40\t\t\tquire(totalSupply() + amount <...\n      MLOAD \t\t\tquire(totalSupply() + amount <...\n      DUP1 \t\t\tquire(totalSupply() + amount <...\n      SWAP2 \t\t\tquire(totalSupply() + amount <...\n      SUB \t\t\tquire(totalSupply() + amount <...\n      SWAP1 \t\t\tquire(totalSupply() + amount <...\n      REVERT \t\t\tquire(totalSupply() + amount <...\n    tag 394\t\t\tquire(totalSupply() + amount <...\n      JUMPDEST \t\t\tquire(totalSupply() + amount <...\n      PUSH [tag] 396\t\t\tint(to, amount);\\r\n      DUP4 \t\t\t, \n      DUP4 \t\t\tount);\n      PUSH [tag] 330\t\t\tint(t\n      JUMP \t\t\tint(to, amount);\\r\n    tag 396\t\t\tint(to, amount);\\r\n      JUMPDEST \t\t\tint(to, amount);\\r\n      PUSH [tag] 397\t\t\tsgSender());\n      PUSH [tag] 253\t\t\tsgSender()\n      JUMP \t\t\tsgSender());\n    tag 397\t\t\tsgSender());\n      JUMPDEST \t\t\tsgSender());\n      PUSH FFFFFFFFFFFFFFFFFFFFFFFFFFFFFFFFFFFFFFFF\t\t\tidgeMint(to, amount, _msgSende...\n      AND \t\t\tidgeMint(to, amount, _msgSende...\n      DUP4 \t\t\t, \n      PUSH FFFFFFFFFFFFFFFFFFFFFFFFFFFFFFFFFFFFFFFF\t\t\tidgeMint(to, amount, _msgSende...\n      AND \t\t\tidgeMint(to, amount, _msgSende...\n      PUSH C6C954B09524700CCC368D1FAC1E0623FC58BB1B87083F807332FE19F667DBE\t\t\tidgeMint(to, amount, _msgSende...\n      DUP5 \t\t\tount, \n      PUSH 40\t\t\tidgeMint(to, amount, _msgSende...\n      MLOAD \t\t\tidgeMint(to, amount, _msgSende...\n      PUSH [tag] 398\t\t\tidgeMint(to, amount, _msgSende...\n      SWAP2 \t\t\tidgeMint(to, amount, _msgSende...\n      SWAP1 \t\t\tidgeMint(to, amount, _msgSende...\n      PUSH [tag] 82\t\t\tidgeMint(to, amount, _msgSende...\n      JUMP \t\t\tidgeMint(to, amount, _msgSende...\n    tag 398\t\t\tidgeMint(to, amount, _msgSende...\n      JUMPDEST \t\t\tidgeMint(to, amount, _msgSende...\n      PUSH 40\t\t\tidgeMint(to, amount, _msgSende...\n      MLOAD \t\t\tidgeMint(to, amount, _msgSende...\n      DUP1 \t\t\tidgeMint(to, amount, _msgSende...\n      SWAP2 \t\t\tidgeMint(to, amount, _msgSende...\n      SUB \t\t\tidgeMint(to, amount, _msgSende...\n      SWAP1 \t\t\tidgeMint(to, amount, _msgSende...\n      LOG3 \t\t\tidgeMint(to, amount, _msgSende...\n      POP \t\t\tnction bridgeMint(address to, ...\n      POP \t\t\tnction bridgeMint(address to, ...\n      POP \t\t\tnction bridgeMint(address to, ...\n      JUMP \t\t\tnction bridgeMint(address to, ...\n    tag 176\t\t\tstarting 2030)\\r\\n    // These...\n      JUMPDEST \t\t\tstarting 2030)\\r\\n    // These...\n      PUSH 0\t\t\tps (sec\n      PUSH 6\t\t\t01 UTC\n      PUSH 0\t\t\t01 UTC\n      SWAP1 \t\t\t01 UTC\n      SLOAD \t\t\t01 UTC\n      SWAP1 \t\t\t01 UTC\n      PUSH 100\t\t\t01 UTC\n      EXP \t\t\t01 UTC\n      SWAP1 \t\t\t01 UTC\n      DIV \t\t\t01 UTC\n      PUSH FFFFFFFFFFFFFFFFFFFFFFFFFFFFFFFFFFFFFFFF\t\t\t01 UTC\n      AND \t\t\t01 UTC\n      SWAP1 \t\t\t970-01-01 UTC\n      POP \t\t\t970-01-01 UTC\n      SWAP1 \t\t\tstarting 2030)\\r\\n    // These...\n      JUMP \t\t\tstarting 2030)\\r\\n    // These...\n    tag 182\t\t\t());\\r\\n\\r\\n        // Mint in...\n      JUMPDEST \t\t\t());\\r\\n\\r\\n        // Mint in...\n      PUSH 0\t\t\t), I\n      PUSH 5\t\t\t      \n      PUSH 0\t\t\t        // P\n      DUP5 \t\t\t // \n      DUP2 \t\t\t        // P\n      MSTORE \t\t\t        // P\n      PUSH 20\t\t\t        // P\n      ADD \t\t\t        // P\n      SWAP1 \t\t\t        // P\n      DUP2 \t\t\t        // P\n      MSTORE \t\t\t        // P\n      PUSH 20\t\t\t        // P\n      ADD \t\t\t        // P\n      PUSH 0\t\t\t        // P\n      KECCAK256 \t\t\t        // P\n      PUSH 0\t\t\t        // Populate \n      ADD \t\t\t        // Populate \n      PUSH 0\t\t\t        // Populate scheduled\n      DUP4 \t\t\tchedule\n      PUSH FFFFFFFFFFFFFFFFFFFFFFFFFFFFFFFFFFFFFFFF\t\t\t        // Populate scheduled\n      AND \t\t\t        // Populate scheduled\n      PUSH FFFFFFFFFFFFFFFFFFFFFFFFFFFFFFFFFFFFFFFF\t\t\t        // Populate scheduled\n      AND \t\t\t        // Populate scheduled\n      DUP2 \t\t\t        // Populate scheduled\n      MSTORE \t\t\t        // Populate scheduled\n      PUSH 20\t\t\t        // Populate scheduled\n      ADD \t\t\t        // Populate scheduled\n      SWAP1 \t\t\t        // Populate scheduled\n      DUP2 \t\t\t        // Populate scheduled\n      MSTORE \t\t\t        // Populate scheduled\n      PUSH 20\t\t\t        // Populate scheduled\n      ADD \t\t\t        // Populate scheduled\n      PUSH 0\t\t\t        // Populate scheduled\n      KECCAK256 \t\t\t        // Populate scheduled\n      PUSH 0\t\t\t        // Populate scheduled\n      SWAP1 \t\t\t        // Populate scheduled\n      SLOAD \t\t\t        // Populate scheduled\n      SWAP1 \t\t\t        // Populate scheduled\n      PUSH 100\t\t\t        // Populate scheduled\n      EXP \t\t\t        // Populate scheduled\n      SWAP1 \t\t\t        // Populate scheduled\n      DIV \t\t\t        // Populate scheduled\n      PUSH FF\t\t\t        // Populate scheduled\n      AND \t\t\t        // Populate scheduled\n      SWAP1 \t\t\tY);\\r\\n\\r\\n        // Populate...\n      POP \t\t\tY);\\r\\n\\r\\n        // Populate...\n      SWAP3 \t\t\t());\\r\\n\\r\\n        // Mint in...\n      SWAP2 \t\t\t());\\r\\n\\r\\n        // Mint in...\n      POP \t\t\t());\\r\\n\\r\\n        // Mint in...\n      POP \t\t\t());\\r\\n\\r\\n        // Mint in...\n      JUMP \t\t\t());\\r\\n\\r\\n        // Mint in...\n    tag 186\t\t\ted amount, uint256 indexed unl...\n      JUMPDEST \t\t\ted amount, uint256 indexed unl...\n      PUSH 60\t\t\tent MintExecu\n      PUSH 4\t\t\t to, ui\n      DUP1 \t\t\tindexed to, ui\n      SLOAD \t\t\tindexed to, ui\n      PUSH [tag] 402\t\t\tindexed to, ui\n      SWAP1 \t\t\tindexed to, ui\n      PUSH [tag] 246\t\t\tindexed to, ui\n      JUMP \t\t\tindexed to, ui\n    tag 402\t\t\tindexed to, ui\n      JUMPDEST \t\t\tindexed to, ui\n      DUP1 \t\t\tindexed to, ui\n      PUSH 1F\t\t\tindexed to, ui\n      ADD \t\t\tindexed to, ui\n      PUSH 20\t\t\tindexed to, ui\n      DUP1 \t\t\tindexed to, ui\n      SWAP2 \t\t\tindexed to, ui\n      DIV \t\t\tindexed to, ui\n      MUL \t\t\tindexed to, ui\n      PUSH 20\t\t\tindexed to, ui\n      ADD \t\t\tindexed to, ui\n      PUSH 40\t\t\tindexed to, ui\n      MLOAD \t\t\tindexed to, ui\n      SWAP1 \t\t\tindexed to, ui\n      DUP2 \t\t\tindexed to, ui\n      ADD \t\t\tindexed to, ui\n      PUSH 40\t\t\tindexed to, ui\n      MSTORE \t\t\tindexed to, ui\n      DUP1 \t\t\tindexed to, ui\n      SWAP3 \t\t\tindexed to, ui\n      SWAP2 \t\t\tindexed to, ui\n      SWAP1 \t\t\tindexed to, ui\n      DUP2 \t\t\tindexed to, ui\n      DUP2 \t\t\tindexed to, ui\n      MSTORE \t\t\tindexed to, ui\n      PUSH 20\t\t\tindexed to, ui\n      ADD \t\t\tindexed to, ui\n      DUP3 \t\t\tindexed to, ui\n      DUP1 \t\t\tindexed to, ui\n      SLOAD \t\t\tindexed to, ui\n      PUSH [tag] 403\t\t\tindexed to, ui\n      SWAP1 \t\t\tindexed to, ui\n      PUSH [tag] 246\t\t\tindexed to, ui\n      JUMP \t\t\tindexed to, ui\n    tag 403\t\t\tindexed to, ui\n      JUMPDEST \t\t\tindexed to, ui\n      DUP1 \t\t\tindexed to, ui\n      ISZERO \t\t\tindexed to, ui\n      PUSH [tag] 404\t\t\tindexed to, ui\n      JUMPI \t\t\tindexed to, ui\n      DUP1 \t\t\tindexed to, ui\n      PUSH 1F\t\t\tindexed to, ui\n      LT \t\t\tindexed to, ui\n      PUSH [tag] 405\t\t\tindexed to, ui\n      JUMPI \t\t\tindexed to, ui\n      PUSH 100\t\t\tindexed to, ui\n      DUP1 \t\t\tindexed to, ui\n      DUP4 \t\t\tindexed to, ui\n      SLOAD \t\t\tindexed to, ui\n      DIV \t\t\tindexed to, ui\n      MUL \t\t\tindexed to, ui\n      DUP4 \t\t\tindexed to, ui\n      MSTORE \t\t\tindexed to, ui\n      SWAP2 \t\t\tindexed to, ui\n      PUSH 20\t\t\tindexed to, ui\n      ADD \t\t\tindexed to, ui\n      SWAP2 \t\t\tindexed to, ui\n      PUSH [tag] 404\t\t\tindexed to, ui\n      JUMP \t\t\tindexed to, ui\n    tag 405\t\t\tindexed to, ui\n      JUMPDEST \t\t\tindexed to, ui\n      DUP3 \t\t\tindexed to, ui\n      ADD \t\t\tindexed to, ui\n      SWAP2 \t\t\tindexed to, ui\n      SWAP1 \t\t\tindexed to, ui\n      PUSH 0\t\t\tindexed to, ui\n      MSTORE \t\t\tindexed to, ui\n      PUSH 20\t\t\tindexed to, ui\n      PUSH 0\t\t\tindexed to, ui\n      KECCAK256 \t\t\tindexed to, ui\n      SWAP1 \t\t\tindexed to, ui\n    tag 406\t\t\tindexed to, ui\n      JUMPDEST \t\t\tindexed to, ui\n      DUP2 \t\t\tindexed to, ui\n      SLOAD \t\t\tindexed to, ui\n      DUP2 \t\t\tindexed to, ui\n      MSTORE \t\t\tindexed to, ui\n      SWAP1 \t\t\tindexed to, ui\n      PUSH 1\t\t\tindexed to, ui\n      ADD \t\t\tindexed to, ui\n      SWAP1 \t\t\tindexed to, ui\n      PUSH 20\t\t\tindexed to, ui\n      ADD \t\t\tindexed to, ui\n      DUP1 \t\t\tindexed to, ui\n      DUP4 \t\t\tindexed to, ui\n      GT \t\t\tindexed to, ui\n      PUSH [tag] 406\t\t\tindexed to, ui\n      JUMPI \t\t\tindexed to, ui\n      DUP3 \t\t\tindexed to, ui\n      SWAP1 \t\t\tindexed to, ui\n      SUB \t\t\tindexed to, ui\n      PUSH 1F\t\t\tindexed to, ui\n      AND \t\t\tindexed to, ui\n      DUP3 \t\t\tindexed to, ui\n      ADD \t\t\tindexed to, ui\n      SWAP2 \t\t\tindexed to, ui\n    tag 404\t\t\tindexed to, ui\n      JUMPDEST \t\t\tindexed to, ui\n      POP \t\t\tindexed to, ui\n      POP \t\t\tindexed to, ui\n      POP \t\t\tindexed to, ui\n      POP \t\t\tindexed to, ui\n      POP \t\t\tindexed to, ui\n      SWAP1 \t\t\tindexed to, ui\n      POP \t\t\tindexed to, ui\n      SWAP1 \t\t\ted amount, uint256 indexed unl...\n      JUMP \t\t\ted amount, uint256 indexed unl...\n    tag 190\t\t\tent BridgeBurn(address indexed...\n      JUMPDEST \t\t\tent BridgeBurn(address indexed...\n      PUSH 0\t\t\tamou\n      DUP1 \t\t\tent BridgeBurn(address indexed...\n      SHL \t\t\tent BridgeBurn(address indexed...\n      DUP2 \t\t\tent BridgeBurn(address indexed...\n      JUMP \t\t\tent BridgeBurn(address indexed...\n    tag 195\t\t\t     scheduledMints.push(22325...\n      JUMPDEST \t\t\t     scheduledMints.push(22325...\n      PUSH 0\t\t\t sch\n      DUP1 \t\t\tpush(23903424\n      PUSH [tag] 408\t\t\t;\\r\\n        /\n      PUSH [tag] 253\t\t\t;\\r\\n       \n      JUMP \t\t\t;\\r\\n        /\n    tag 408\t\t\t;\\r\\n        /\n      JUMPDEST \t\t\t;\\r\\n        /\n      SWAP1 \t\t\tpush(2390342400);\\r\\n        /\n      POP \t\t\tpush(2390342400);\\r\\n        /\n      PUSH [tag] 409\t\t\t30\\r\\n        scheduledMints.\n      DUP2 \t\t\t  sch\n      DUP6 \t\t\tul\n      DUP6 \t\t\tMints\n      PUSH [tag] 275\t\t\t30\\r\\n     \n      JUMP \t\t\t30\\r\\n        scheduledMints.\n    tag 409\t\t\t30\\r\\n        scheduledMints.\n      JUMPDEST \t\t\t30\\r\\n        scheduledMints.\n      PUSH 1\t\t\t\\r\\n  \n      SWAP2 \t\t\t08800);\\r\\n  \n      POP \t\t\t08800);\\r\\n  \n      POP \t\t\t08800);\\r\\n  \n      SWAP3 \t\t\t     scheduledMints.push(22325...\n      SWAP2 \t\t\t     scheduledMints.push(22325...\n      POP \t\t\t     scheduledMints.push(22325...\n      POP \t\t\t     scheduledMints.push(22325...\n      JUMP \t\t\t     scheduledMints.push(22325...\n    tag 200\t\t\tnction ownerRevokeBridge(addre...\n      JUMPDEST \t\t\tnction ownerRevokeBridge(addre...\n      PUSH [tag] 411\t\t\tnt256(_DECIMA\n      PUSH [tag] 258\t\t\tnt256(_DECI\n      JUMP \t\t\tnt256(_DECIMA\n    tag 411\t\t\tnt256(_DECIMA\n      JUMPDEST \t\t\tnt256(_DECIMA\n      PUSH [tag] 413\t\t\tvokeRole(BRIDGE_ROLE, account)...\n      PUSH 52BA824BFABC2BCFCDF7F0EDBB486EBB05E1836C90E78047EFEB949990F72E5F\t\t\tccak256(\"BRIDGE_ROLE\");\\r\n      DUP3 \t\t\tcount);\n      PUSH [tag] 226\t\t\tvokeRole(B\n      JUMP \t\t\tvokeRole(BRIDGE_ROLE, account)...\n    tag 413\t\t\tvokeRole(BRIDGE_ROLE, account)...\n      JUMPDEST \t\t\tvokeRole(BRIDGE_ROLE, account)...\n      POP \t\t\tnction ownerRevokeBridge(addre...\n      JUMP \t\t\tnction ownerRevokeBridge(addre...\n    tag 204\t\t\tnction rescueERC20(address tok...\n      JUMPDEST \t\t\tnction rescueERC20(address tok...\n      PUSH [tag] 415\t\t\tnt256(_DECIMA\n      PUSH [tag] 258\t\t\tnt256(_DECI\n      JUMP \t\t\tnt256(_DECIMA\n    tag 415\t\t\tnt256(_DECIMA\n      JUMPDEST \t\t\tnt256(_DECIMA\n      PUSH 0\t\t\t,\n      PUSH FFFFFFFFFFFFFFFFFFFFFFFFFFFFFFFFFFFFFFFF\t\t\t != address(0), \n      AND \t\t\t != address(0), \n      DUP3 \t\t\t !\n      PUSH FFFFFFFFFFFFFFFFFFFFFFFFFFFFFFFFFFFFFFFF\t\t\t != address(0), \n      AND \t\t\t != address(0), \n      SUB \t\t\t != address(0), \n      PUSH [tag] 417\t\t\tquire(to != address(0), \"TIGG:...\n      JUMPI \t\t\tquire(to != address(0), \"TIGG:...\n      PUSH 40\t\t\tquire(to != address(0), \"TIGG:...\n      MLOAD \t\t\tquire(to != address(0), \"TIGG:...\n      PUSH 8C379A000000000000000000000000000000000000000000000000000000000\t\t\tquire(to != address(0), \"TIGG:...\n      DUP2 \t\t\tquire(to != address(0), \"TIGG:...\n      MSTORE \t\t\tquire(to != address(0), \"TIGG:...\n      PUSH 4\t\t\tquire(to != address(0), \"TIGG:...\n      ADD \t\t\tquire(to != address(0), \"TIGG:...\n      PUSH [tag] 418\t\t\tquire(to != address(0), \"TIGG:...\n      SWAP1 \t\t\tquire(to != address(0), \"TIGG:...\n      PUSH [tag] 262\t\t\tquire(to != address(0), \"TIGG:...\n      JUMP \t\t\tquire(to != address(0), \"TIGG:...\n    tag 418\t\t\tquire(to != address(0), \"TIGG:...\n      JUMPDEST \t\t\tquire(to != address(0), \"TIGG:...\n      PUSH 40\t\t\tquire(to != address(0), \"TIGG:...\n      MLOAD \t\t\tquire(to != address(0), \"TIGG:...\n      DUP1 \t\t\tquire(to != address(0), \"TIGG:...\n      SWAP2 \t\t\tquire(to != address(0), \"TIGG:...\n      SUB \t\t\tquire(to != address(0), \"TIGG:...\n      SWAP1 \t\t\tquire(to != address(0), \"TIGG:...\n      REVERT \t\t\tquire(to != address(0), \"TIGG:...\n    tag 417\t\t\tquire(to != address(0), \"TIGG:...\n      JUMPDEST \t\t\tquire(to != address(0), \"TIGG:...\n      PUSH [tag] 419\t\t\tRC20(token).safeTransfer(to, a...\n      DUP3 \t\t\t, \n      DUP3 \t\t\tount);\n      DUP6 \t\t\tken).\n      PUSH FFFFFFFFFFFFFFFFFFFFFFFFFFFFFFFFFFFFFFFF\t\t\tRC20(token).safeTransfer(t\n      AND \t\t\tRC20(token).safeTransfer(t\n      PUSH [tag] 420\t\t\tRC20(token).safeTransfer(t\n      SWAP1 \t\t\tRC20(token).safeTransfer(t\n      SWAP3 \t\t\tRC20(token).safeTransfer(to, a...\n      SWAP2 \t\t\tRC20(token).safeTransfer(to, a...\n      SWAP1 \t\t\tRC20(token).safeTransfer(to, a...\n      PUSH FFFFFFFF\t\t\tRC20(token).safeTransfer(to, a...\n      AND \t\t\tRC20(token).safeTransfer(to, a...\n      JUMP \t\t\tRC20(token).safeTransfer(to, a...\n    tag 419\t\t\tRC20(token).safeTransfer(to, a...\n      JUMPDEST \t\t\tRC20(token).safeTransfer(to, a...\n      DUP2 \t\t\t, \n      PUSH FFFFFFFFFFFFFFFFFFFFFFFFFFFFFFFFFFFFFFFF\t\t\tkenRescued(token, to, amount);...\n      AND \t\t\tkenRescued(token, to, amount);...\n      DUP4 \t\t\tken, \n      PUSH FFFFFFFFFFFFFFFFFFFFFFFFFFFFFFFFFFFFFFFF\t\t\tkenRescued(token, to, amount);...\n      AND \t\t\tkenRescued(token, to, amount);...\n      PUSH 4143F7B5CB6EA007914C32B8A3E64CEBC051D7F493FA0755454DA1E47701E125\t\t\tkenRescued(token, to, amount);...\n      DUP4 \t\t\tount);\n      PUSH 40\t\t\tkenRescued(token, to, amount);...\n      MLOAD \t\t\tkenRescued(token, to, amount);...\n      PUSH [tag] 421\t\t\tkenRescued(token, to, amount);...\n      SWAP2 \t\t\tkenRescued(token, to, amount);...\n      SWAP1 \t\t\tkenRescued(token, to, amount);...\n      PUSH [tag] 82\t\t\tkenRescued(token, to, amount);...\n      JUMP \t\t\tkenRescued(token, to, amount);...\n    tag 421\t\t\tkenRescued(token, to, amount);...\n      JUMPDEST \t\t\tkenRescued(token, to, amount);...\n      PUSH 40\t\t\tkenRescued(token, to, amount);...\n      MLOAD \t\t\tkenRescued(token, to, amount);...\n      DUP1 \t\t\tkenRescued(token, to, amount);...\n      SWAP2 \t\t\tkenRescued(token, to, amount);...\n      SUB \t\t\tkenRescued(token, to, amount);...\n      SWAP1 \t\t\tkenRescued(token, to, amount);...\n      LOG3 \t\t\tkenRescued(token, to, amount);...\n      POP \t\t\tnction rescueERC20(address tok...\n      POP \t\t\tnction rescueERC20(address tok...\n      POP \t\t\tnction rescueERC20(address tok...\n      JUMP \t\t\tnction rescueERC20(address tok...\n    tag 207\t\t\ttes32 public constant BRIDGE_R...\n      JUMPDEST \t\t\ttes32 public constant BRIDGE_R...\n      PUSH 52BA824BFABC2BCFCDF7F0EDBB486EBB05E1836C90E78047EFEB949990F72E5F\t\t\tccak256(\"BRIDGE_ROLE\");\\r\n      DUP2 \t\t\ttes32 public constant BRIDGE_R...\n      JUMP \t\t\ttes32 public constant BRIDGE_R...\n    tag 213\t\t\tnction rescueAllNative(address...\n      JUMPDEST \t\t\tnction rescueAllNative(address...\n      PUSH [tag] 423\t\t\tnt256(_DECIMA\n      PUSH [tag] 258\t\t\tnt256(_DECI\n      JUMP \t\t\tnt256(_DECIMA\n    tag 423\t\t\tnt256(_DECIMA\n      JUMPDEST \t\t\tnt256(_DECIMA\n      PUSH 0\t\t\t,\n      PUSH FFFFFFFFFFFFFFFFFFFFFFFFFFFFFFFFFFFFFFFF\t\t\t != address(0), \n      AND \t\t\t != address(0), \n      DUP2 \t\t\t !\n      PUSH FFFFFFFFFFFFFFFFFFFFFFFFFFFFFFFFFFFFFFFF\t\t\t != address(0), \n      AND \t\t\t != address(0), \n      SUB \t\t\t != address(0), \n      PUSH [tag] 425\t\t\tquire(to != address(0), \"TIGG:...\n      JUMPI \t\t\tquire(to != address(0), \"TIGG:...\n      PUSH 40\t\t\tquire(to != address(0), \"TIGG:...\n      MLOAD \t\t\tquire(to != address(0), \"TIGG:...\n      PUSH 8C379A000000000000000000000000000000000000000000000000000000000\t\t\tquire(to != address(0), \"TIGG:...\n      DUP2 \t\t\tquire(to != address(0), \"TIGG:...\n      MSTORE \t\t\tquire(to != address(0), \"TIGG:...\n      PUSH 4\t\t\tquire(to != address(0), \"TIGG:...\n      ADD \t\t\tquire(to != address(0), \"TIGG:...\n      PUSH [tag] 426\t\t\tquire(to != address(0), \"TIGG:...\n      SWAP1 \t\t\tquire(to != address(0), \"TIGG:...\n      PUSH [tag] 262\t\t\tquire(to != address(0), \"TIGG:...\n      JUMP \t\t\tquire(to != address(0), \"TIGG:...\n    tag 426\t\t\tquire(to != address(0), \"TIGG:...\n      JUMPDEST \t\t\tquire(to != address(0), \"TIGG:...\n      PUSH 40\t\t\tquire(to != address(0), \"TIGG:...\n      MLOAD \t\t\tquire(to != address(0), \"TIGG:...\n      DUP1 \t\t\tquire(to != address(0), \"TIGG:...\n      SWAP2 \t\t\tquire(to != address(0), \"TIGG:...\n      SUB \t\t\tquire(to != address(0), \"TIGG:...\n      SWAP1 \t\t\tquire(to != address(0), \"TIGG:...\n      REVERT \t\t\tquire(to != address(0), \"TIGG:...\n    tag 425\t\t\tquire(to != address(0), \"TIGG:...\n      JUMPDEST \t\t\tquire(to != address(0), \"TIGG:...\n      PUSH 0\t\t\tnt256 bal =\n      SELFBALANCE \t\t\tdress(this).balance;\\r\n      SWAP1 \t\t\tnt256 bal = address(this).bala...\n      POP \t\t\tnt256 bal = address(this).bala...\n      PUSH 0\t\t\t \n      DUP2 \t\t\tl >\n      GT \t\t\tl > 0, \n      PUSH [tag] 427\t\t\tquire(bal > 0, \"TIGG: zero bal...\n      JUMPI \t\t\tquire(bal > 0, \"TIGG: zero bal...\n      PUSH 40\t\t\tquire(bal > 0, \"TIGG: zero bal...\n      MLOAD \t\t\tquire(bal > 0, \"TIGG: zero bal...\n      PUSH 8C379A000000000000000000000000000000000000000000000000000000000\t\t\tquire(bal > 0, \"TIGG: zero bal...\n      DUP2 \t\t\tquire(bal > 0, \"TIGG: zero bal...\n      MSTORE \t\t\tquire(bal > 0, \"TIGG: zero bal...\n      PUSH 4\t\t\tquire(bal > 0, \"TIGG: zero bal...\n      ADD \t\t\tquire(bal > 0, \"TIGG: zero bal...\n      PUSH [tag] 428\t\t\tquire(bal > 0, \"TIGG: zero bal...\n      SWAP1 \t\t\tquire(bal > 0, \"TIGG: zero bal...\n      PUSH [tag] 429\t\t\tquire(bal > 0, \"TIGG: zero bal...\n      JUMP \t\t\tquire(bal > 0, \"TIGG: zero bal...\n    tag 428\t\t\tquire(bal > 0, \"TIGG: zero bal...\n      JUMPDEST \t\t\tquire(bal > 0, \"TIGG: zero bal...\n      PUSH 40\t\t\tquire(bal > 0, \"TIGG: zero bal...\n      MLOAD \t\t\tquire(bal > 0, \"TIGG: zero bal...\n      DUP1 \t\t\tquire(bal > 0, \"TIGG: zero bal...\n      SWAP2 \t\t\tquire(bal > 0, \"TIGG: zero bal...\n      SUB \t\t\tquire(bal > 0, \"TIGG: zero bal...\n      SWAP1 \t\t\tquire(bal > 0, \"TIGG: zero bal...\n      REVERT \t\t\tquire(bal > 0, \"TIGG: zero bal...\n    tag 427\t\t\tquire(bal > 0, \"TIGG: zero bal...\n      JUMPDEST \t\t\tquire(bal > 0, \"TIGG: zero bal...\n      DUP2 \t\t\t.t\n      PUSH FFFFFFFFFFFFFFFFFFFFFFFFFFFFFFFFFFFFFFFF\t\t\t.transfer(b\n      AND \t\t\t.transfer(b\n      PUSH 8FC\t\t\t.transfer(bal);\\r\n      DUP3 \t\t\tl);\n      SWAP1 \t\t\t.transfer(bal);\\r\n      DUP2 \t\t\t.transfer(bal);\\r\n      ISZERO \t\t\t.transfer(bal);\\r\n      MUL \t\t\t.transfer(bal);\\r\n      SWAP1 \t\t\t.transfer(bal);\\r\n      PUSH 40\t\t\t.transfer(bal);\\r\n      MLOAD \t\t\t.transfer(bal);\\r\n      PUSH 0\t\t\t.transfer(bal);\\r\n      PUSH 40\t\t\t.transfer(bal);\\r\n      MLOAD \t\t\t.transfer(bal);\\r\n      DUP1 \t\t\t.transfer(bal);\\r\n      DUP4 \t\t\t.transfer(bal);\\r\n      SUB \t\t\t.transfer(bal);\\r\n      DUP2 \t\t\t.transfer(bal);\\r\n      DUP6 \t\t\t.transfer(bal);\\r\n      DUP9 \t\t\t.transfer(bal);\\r\n      DUP9 \t\t\t.transfer(bal);\\r\n      CALL \t\t\t.transfer(bal);\\r\n      SWAP4 \t\t\t.transfer(bal);\\r\n      POP \t\t\t.transfer(bal);\\r\n      POP \t\t\t.transfer(bal);\\r\n      POP \t\t\t.transfer(bal);\\r\n      POP \t\t\t.transfer(bal);\\r\n      ISZERO \t\t\t.transfer(bal);\\r\n      DUP1 \t\t\t.transfer(bal);\\r\n      ISZERO \t\t\t.transfer(bal);\\r\n      PUSH [tag] 431\t\t\t.transfer(bal);\\r\n      JUMPI \t\t\t.transfer(bal);\\r\n      RETURNDATASIZE \t\t\t.transfer(bal);\\r\n      PUSH 0\t\t\t.transfer(bal);\\r\n      DUP1 \t\t\t.transfer(bal);\\r\n      RETURNDATACOPY \t\t\t.transfer(bal);\\r\n      RETURNDATASIZE \t\t\t.transfer(bal);\\r\n      PUSH 0\t\t\t.transfer(bal);\\r\n      REVERT \t\t\t.transfer(bal);\\r\n    tag 431\t\t\t.transfer(bal);\\r\n      JUMPDEST \t\t\t.transfer(bal);\\r\n      POP \t\t\t.transfer(bal);\\r\n      DUP2 \t\t\t, \n      PUSH FFFFFFFFFFFFFFFFFFFFFFFFFFFFFFFFFFFFFFFF\t\t\ttiveRescued(to, bal);\\r\n      AND \t\t\ttiveRescued(to, bal);\\r\n      PUSH E3EB98B7FE2A0C1D490B92AF73EEAE611E9B00AB3C3F70B20BD7BB43F67A0F43\t\t\ttiveRescued(to, bal);\\r\n      DUP3 \t\t\tl);\n      PUSH 40\t\t\ttiveRescued(to, bal);\\r\n      MLOAD \t\t\ttiveRescued(to, bal);\\r\n      PUSH [tag] 432\t\t\ttiveRescued(to, bal);\\r\n      SWAP2 \t\t\ttiveRescued(to, bal);\\r\n      SWAP1 \t\t\ttiveRescued(to, bal);\\r\n      PUSH [tag] 82\t\t\ttiveRescued(to, bal);\\r\n      JUMP \t\t\ttiveRescued(to, bal);\\r\n    tag 432\t\t\ttiveRescued(to, bal);\\r\n      JUMPDEST \t\t\ttiveRescued(to, bal);\\r\n      PUSH 40\t\t\ttiveRescued(to, bal);\\r\n      MLOAD \t\t\ttiveRescued(to, bal);\\r\n      DUP1 \t\t\ttiveRescued(to, bal);\\r\n      SWAP2 \t\t\ttiveRescued(to, bal);\\r\n      SUB \t\t\ttiveRescued(to, bal);\\r\n      SWAP1 \t\t\ttiveRescued(to, bal);\\r\n      LOG2 \t\t\ttiveRescued(to, bal);\\r\n      POP \t\t\t\\n        require(to != addres...\n      POP \t\t\tnction rescueAllNative(address...\n      JUMP \t\t\tnction rescueAllNative(address...\n    tag 218\t\t\tnction rescueAllERC20(address ...\n      JUMPDEST \t\t\tnction rescueAllERC20(address ...\n      PUSH [tag] 434\t\t\tnt256(_DECIMA\n      PUSH [tag] 258\t\t\tnt256(_DECI\n      JUMP \t\t\tnt256(_DECIMA\n    tag 434\t\t\tnt256(_DECIMA\n      JUMPDEST \t\t\tnt256(_DECIMA\n      PUSH 0\t\t\t,\n      PUSH FFFFFFFFFFFFFFFFFFFFFFFFFFFFFFFFFFFFFFFF\t\t\t != address(0), \n      AND \t\t\t != address(0), \n      DUP2 \t\t\t !\n      PUSH FFFFFFFFFFFFFFFFFFFFFFFFFFFFFFFFFFFFFFFF\t\t\t != address(0), \n      AND \t\t\t != address(0), \n      SUB \t\t\t != address(0), \n      PUSH [tag] 436\t\t\tquire(to != address(0), \"TIGG:...\n      JUMPI \t\t\tquire(to != address(0), \"TIGG:...\n      PUSH 40\t\t\tquire(to != address(0), \"TIGG:...\n      MLOAD \t\t\tquire(to != address(0), \"TIGG:...\n      PUSH 8C379A000000000000000000000000000000000000000000000000000000000\t\t\tquire(to != address(0), \"TIGG:...\n      DUP2 \t\t\tquire(to != address(0), \"TIGG:...\n      MSTORE \t\t\tquire(to != address(0), \"TIGG:...\n      PUSH 4\t\t\tquire(to != address(0), \"TIGG:...\n      ADD \t\t\tquire(to != address(0), \"TIGG:...\n      PUSH [tag] 437\t\t\tquire(to != address(0), \"TIGG:...\n      SWAP1 \t\t\tquire(to != address(0), \"TIGG:...\n      PUSH [tag] 262\t\t\tquire(to != address(0), \"TIGG:...\n      JUMP \t\t\tquire(to != address(0), \"TIGG:...\n    tag 437\t\t\tquire(to != address(0), \"TIGG:...\n      JUMPDEST \t\t\tquire(to != address(0), \"TIGG:...\n      PUSH 40\t\t\tquire(to != address(0), \"TIGG:...\n      MLOAD \t\t\tquire(to != address(0), \"TIGG:...\n      DUP1 \t\t\tquire(to != address(0), \"TIGG:...\n      SWAP2 \t\t\tquire(to != address(0), \"TIGG:...\n      SUB \t\t\tquire(to != address(0), \"TIGG:...\n      SWAP1 \t\t\tquire(to != address(0), \"TIGG:...\n      REVERT \t\t\tquire(to != address(0), \"TIGG:...\n    tag 436\t\t\tquire(to != address(0), \"TIGG:...\n      JUMPDEST \t\t\tquire(to != address(0), \"TIGG:...\n      PUSH 0\t\t\tnt256 bal =\n      DUP3 \t\t\tken).\n      PUSH FFFFFFFFFFFFFFFFFFFFFFFFFFFFFFFFFFFFFFFF\t\t\tRC20(token).balanceOf(a\n      AND \t\t\tRC20(token).balanceOf(a\n      PUSH 70A08231\t\t\tRC20(token).balanceOf(a\n      ADDRESS \t\t\tis))\n      PUSH 40\t\t\tRC20(token).balanceOf(address(...\n      MLOAD \t\t\tRC20(token).balanceOf(address(...\n      DUP3 \t\t\tRC20(token).balanceOf(address(...\n      PUSH FFFFFFFF\t\t\tRC20(token).balanceOf(address(...\n      AND \t\t\tRC20(token).balanceOf(address(...\n      PUSH E0\t\t\tRC20(token).balanceOf(address(...\n      SHL \t\t\tRC20(token).balanceOf(address(...\n      DUP2 \t\t\tRC20(token).balanceOf(address(...\n      MSTORE \t\t\tRC20(token).balanceOf(address(...\n      PUSH 4\t\t\tRC20(token).balanceOf(address(...\n      ADD \t\t\tRC20(token).balanceOf(address(...\n      PUSH [tag] 438\t\t\tRC20(token).balanceOf(address(...\n      SWAP2 \t\t\tRC20(token).balanceOf(address(...\n      SWAP1 \t\t\tRC20(token).balanceOf(address(...\n      PUSH [tag] 178\t\t\tRC20(token).balanceOf(address(...\n      JUMP \t\t\tRC20(token).balanceOf(address(...\n    tag 438\t\t\tRC20(token).balanceOf(address(...\n      JUMPDEST \t\t\tRC20(token).balanceOf(address(...\n      PUSH 20\t\t\tRC20(token).balanceOf(address(...\n      PUSH 40\t\t\tRC20(token).balanceOf(address(...\n      MLOAD \t\t\tRC20(token).balanceOf(address(...\n      DUP1 \t\t\tRC20(token).balanceOf(address(...\n      DUP4 \t\t\tRC20(token).balanceOf(address(...\n      SUB \t\t\tRC20(token).balanceOf(address(...\n      DUP2 \t\t\tRC20(token).balanceOf(address(...\n      DUP7 \t\t\tRC20(token).balanceOf(address(...\n      GAS \t\t\tRC20(token).balanceOf(address(...\n      STATICCALL \t\t\tRC20(token).balanceOf(address(...\n      ISZERO \t\t\tRC20(token).balanceOf(address(...\n      DUP1 \t\t\tRC20(token).balanceOf(address(...\n      ISZERO \t\t\tRC20(token).balanceOf(address(...\n      PUSH [tag] 440\t\t\tRC20(token).balanceOf(address(...\n      JUMPI \t\t\tRC20(token).balanceOf(address(...\n      RETURNDATASIZE \t\t\tRC20(token).balanceOf(address(...\n      PUSH 0\t\t\tRC20(token).balanceOf(address(...\n      DUP1 \t\t\tRC20(token).balanceOf(address(...\n      RETURNDATACOPY \t\t\tRC20(token).balanceOf(address(...\n      RETURNDATASIZE \t\t\tRC20(token).balanceOf(address(...\n      PUSH 0\t\t\tRC20(token).balanceOf(address(...\n      REVERT \t\t\tRC20(token).balanceOf(address(...\n    tag 440\t\t\tRC20(token).balanceOf(address(...\n      JUMPDEST \t\t\tRC20(token).balanceOf(address(...\n      POP \t\t\tRC20(token).balanceOf(address(...\n      POP \t\t\tRC20(token).balanceOf(address(...\n      POP \t\t\tRC20(token).balanceOf(address(...\n      POP \t\t\tRC20(token).balanceOf(address(...\n      PUSH 40\t\t\tRC20(token).balanceOf(address(...\n      MLOAD \t\t\tRC20(token).balanceOf(address(...\n      RETURNDATASIZE \t\t\tRC20(token).balanceOf(address(...\n      PUSH 1F\t\t\tRC20(token).balanceOf(address(...\n      NOT \t\t\tRC20(token).balanceOf(address(...\n      PUSH 1F\t\t\tRC20(token).balanceOf(address(...\n      DUP3 \t\t\tRC20(token).balanceOf(address(...\n      ADD \t\t\tRC20(token).balanceOf(address(...\n      AND \t\t\tRC20(token).balanceOf(address(...\n      DUP3 \t\t\tRC20(token).balanceOf(address(...\n      ADD \t\t\tRC20(token).balanceOf(address(...\n      DUP1 \t\t\tRC20(token).balanceOf(address(...\n      PUSH 40\t\t\tRC20(token).balanceOf(address(...\n      MSTORE \t\t\tRC20(token).balanceOf(address(...\n      POP \t\t\tRC20(token).balanceOf(address(...\n      DUP2 \t\t\tRC20(token).balanceOf(address(...\n      ADD \t\t\tRC20(token).balanceOf(address(...\n      SWAP1 \t\t\tRC20(token).balanceOf(address(...\n      PUSH [tag] 441\t\t\tRC20(token).balanceOf(address(...\n      SWAP2 \t\t\tRC20(token).balanceOf(address(...\n      SWAP1 \t\t\tRC20(token).balanceOf(address(...\n      PUSH [tag] 442\t\t\tRC20(token).balanceOf(address(...\n      JUMP \t\t\tRC20(token).balanceOf(address(...\n    tag 441\t\t\tRC20(token).balanceOf(address(...\n      JUMPDEST \t\t\tRC20(token).balanceOf(address(...\n      SWAP1 \t\t\tnt256 bal = IERC20(token).bala...\n      POP \t\t\tnt256 bal = IERC20(token).bala...\n      PUSH 0\t\t\t \n      DUP2 \t\t\tl >\n      GT \t\t\tl > 0, \n      PUSH [tag] 443\t\t\tquire(bal > 0, \"TIGG: zero bal...\n      JUMPI \t\t\tquire(bal > 0, \"TIGG: zero bal...\n      PUSH 40\t\t\tquire(bal > 0, \"TIGG: zero bal...\n      MLOAD \t\t\tquire(bal > 0, \"TIGG: zero bal...\n      PUSH 8C379A000000000000000000000000000000000000000000000000000000000\t\t\tquire(bal > 0, \"TIGG: zero bal...\n      DUP2 \t\t\tquire(bal > 0, \"TIGG: zero bal...\n      MSTORE \t\t\tquire(bal > 0, \"TIGG: zero bal...\n      PUSH 4\t\t\tquire(bal > 0, \"TIGG: zero bal...\n      ADD \t\t\tquire(bal > 0, \"TIGG: zero bal...\n      PUSH [tag] 444\t\t\tquire(bal > 0, \"TIGG: zero bal...\n      SWAP1 \t\t\tquire(bal > 0, \"TIGG: zero bal...\n      PUSH [tag] 429\t\t\tquire(bal > 0, \"TIGG: zero bal...\n      JUMP \t\t\tquire(bal > 0, \"TIGG: zero bal...\n    tag 444\t\t\tquire(bal > 0, \"TIGG: zero bal...\n      JUMPDEST \t\t\tquire(bal > 0, \"TIGG: zero bal...\n      PUSH 40\t\t\tquire(bal > 0, \"TIGG: zero bal...\n      MLOAD \t\t\tquire(bal > 0, \"TIGG: zero bal...\n      DUP1 \t\t\tquire(bal > 0, \"TIGG: zero bal...\n      SWAP2 \t\t\tquire(bal > 0, \"TIGG: zero bal...\n      SUB \t\t\tquire(bal > 0, \"TIGG: zero bal...\n      SWAP1 \t\t\tquire(bal > 0, \"TIGG: zero bal...\n      REVERT \t\t\tquire(bal > 0, \"TIGG: zero bal...\n    tag 443\t\t\tquire(bal > 0, \"TIGG: zero bal...\n      JUMPDEST \t\t\tquire(bal > 0, \"TIGG: zero bal...\n      PUSH [tag] 445\t\t\tRC20(token).safeTransfer(to, b...\n      DUP3 \t\t\t, \n      DUP3 \t\t\tl);\n      DUP6 \t\t\tken).\n      PUSH FFFFFFFFFFFFFFFFFFFFFFFFFFFFFFFFFFFFFFFF\t\t\tRC20(token).safeTransfer(t\n      AND \t\t\tRC20(token).safeTransfer(t\n      PUSH [tag] 420\t\t\tRC20(token).safeTransfer(t\n      SWAP1 \t\t\tRC20(token).safeTransfer(t\n      SWAP3 \t\t\tRC20(token).safeTransfer(to, b...\n      SWAP2 \t\t\tRC20(token).safeTransfer(to, b...\n      SWAP1 \t\t\tRC20(token).safeTransfer(to, b...\n      PUSH FFFFFFFF\t\t\tRC20(token).safeTransfer(to, b...\n      AND \t\t\tRC20(token).safeTransfer(to, b...\n      JUMP \t\t\tRC20(token).safeTransfer(to, b...\n    tag 445\t\t\tRC20(token).safeTransfer(to, b...\n      JUMPDEST \t\t\tRC20(token).safeTransfer(to, b...\n      DUP2 \t\t\t, \n      PUSH FFFFFFFFFFFFFFFFFFFFFFFFFFFFFFFFFFFFFFFF\t\t\tkenRescued(token, to, bal);\\r\n      AND \t\t\tkenRescued(token, to, bal);\\r\n      DUP4 \t\t\tken, \n      PUSH FFFFFFFFFFFFFFFFFFFFFFFFFFFFFFFFFFFFFFFF\t\t\tkenRescued(token, to, bal);\\r\n      AND \t\t\tkenRescued(token, to, bal);\\r\n      PUSH 4143F7B5CB6EA007914C32B8A3E64CEBC051D7F493FA0755454DA1E47701E125\t\t\tkenRescued(token, to, bal);\\r\n      DUP4 \t\t\tl);\n      PUSH 40\t\t\tkenRescued(token, to, bal);\\r\n      MLOAD \t\t\tkenRescued(token, to, bal);\\r\n      PUSH [tag] 446\t\t\tkenRescued(token, to, bal);\\r\n      SWAP2 \t\t\tkenRescued(token, to, bal);\\r\n      SWAP1 \t\t\tkenRescued(token, to, bal);\\r\n      PUSH [tag] 82\t\t\tkenRescued(token, to, bal);\\r\n      JUMP \t\t\tkenRescued(token, to, bal);\\r\n    tag 446\t\t\tkenRescued(token, to, bal);\\r\n      JUMPDEST \t\t\tkenRescued(token, to, bal);\\r\n      PUSH 40\t\t\tkenRescued(token, to, bal);\\r\n      MLOAD \t\t\tkenRescued(token, to, bal);\\r\n      DUP1 \t\t\tkenRescued(token, to, bal);\\r\n      SWAP2 \t\t\tkenRescued(token, to, bal);\\r\n      SUB \t\t\tkenRescued(token, to, bal);\\r\n      SWAP1 \t\t\tkenRescued(token, to, bal);\\r\n      LOG3 \t\t\tkenRescued(token, to, bal);\\r\n      POP \t\t\t\\n        require(to != addres...\n      POP \t\t\tnction rescueAllERC20(address ...\n      POP \t\t\tnction rescueAllERC20(address ...\n      JUMP \t\t\tnction rescueAllERC20(address ...\n    tag 221\t\t\ttes32 public constant MINTER_R...\n      JUMPDEST \t\t\ttes32 public constant MINTER_R...\n      PUSH 9F2DF0FED2C77648DE5860A4CC508CD0818C85B8B8A1AB4CEEEF8D981C8956A6\t\t\tccak256(\"MINTER_ROLE\");\\r\n      DUP2 \t\t\ttes32 public constant MINTER_R...\n      JUMP \t\t\ttes32 public constant MINTER_R...\n    tag 226\t\t\tuledMint() external onlyRole(M...\n      JUMPDEST \t\t\tuledMint() external onlyRole(M...\n      PUSH [tag] 447\t\t\tped, \"TIGG: emerge\n      DUP3 \t\t\tmerg\n      PUSH [tag] 93\t\t\tped, \"TIGG: \n      JUMP \t\t\tped, \"TIGG: emerge\n    tag 447\t\t\tped, \"TIGG: emerge\n      JUMPDEST \t\t\tped, \"TIGG: emerge\n      PUSH [tag] 449\t\t\t56 timestamp);\\r\\n\n      DUP2 \t\t\tp);\\r\n      PUSH [tag] 280\t\t\t56 timesta\n      JUMP \t\t\t56 timestamp);\\r\\n\n    tag 449\t\t\t56 timestamp);\\r\\n\n      JUMPDEST \t\t\t56 timestamp);\\r\\n\n      PUSH [tag] 451\t\t\t);\\r\\n        require(nextMi\n      DUP4 \t\t\trequ\n      DUP4 \t\t\te(nextM\n      PUSH [tag] 295\t\t\t);\\r\\n       \n      JUMP \t\t\t);\\r\\n        require(nextMi\n    tag 451\t\t\t);\\r\\n        require(nextMi\n      JUMPDEST \t\t\t);\\r\\n        require(nextMi\n      POP \t\t\t);\\r\\n        require(nextMi\n      POP \t\t\tuledMint() external onlyRole(M...\n      POP \t\t\tuledMint() external onlyRole(M...\n      POP \t\t\tuledMint() external onlyRole(M...\n      JUMP \t\t\tuledMint() external onlyRole(M...\n    tag 230\t\t\tnts.push(2705875200);\\r\\n     ...\n      JUMPDEST \t\t\tnts.push(2705875200);\\r\\n     ...\n      PUSH 0\t\t\t8000);\\r\n      PUSH 1\t\t\t-30\\r\\n      \n      PUSH 0\t\t\t-30\\r\\n        sched\n      DUP5 \t\t\t sche\n      PUSH FFFFFFFFFFFFFFFFFFFFFFFFFFFFFFFFFFFFFFFF\t\t\t-30\\r\\n        sched\n      AND \t\t\t-30\\r\\n        sched\n      PUSH FFFFFFFFFFFFFFFFFFFFFFFFFFFFFFFFFFFFFFFF\t\t\t-30\\r\\n        sched\n      AND \t\t\t-30\\r\\n        sched\n      DUP2 \t\t\t-30\\r\\n        sched\n      MSTORE \t\t\t-30\\r\\n        sched\n      PUSH 20\t\t\t-30\\r\\n        sched\n      ADD \t\t\t-30\\r\\n        sched\n      SWAP1 \t\t\t-30\\r\\n        sched\n      DUP2 \t\t\t-30\\r\\n        sched\n      MSTORE \t\t\t-30\\r\\n        sched\n      PUSH 20\t\t\t-30\\r\\n        sched\n      ADD \t\t\t-30\\r\\n        sched\n      PUSH 0\t\t\t-30\\r\\n        sched\n      KECCAK256 \t\t\t-30\\r\\n        sched\n      PUSH 0\t\t\t-30\\r\\n        scheduledMints\n      DUP4 \t\t\tledMint\n      PUSH FFFFFFFFFFFFFFFFFFFFFFFFFFFFFFFFFFFFFFFF\t\t\t-30\\r\\n        scheduledMints\n      AND \t\t\t-30\\r\\n        scheduledMints\n      PUSH FFFFFFFFFFFFFFFFFFFFFFFFFFFFFFFFFFFFFFFF\t\t\t-30\\r\\n        scheduledMints\n      AND \t\t\t-30\\r\\n        scheduledMints\n      DUP2 \t\t\t-30\\r\\n        scheduledMints\n      MSTORE \t\t\t-30\\r\\n        scheduledMints\n      PUSH 20\t\t\t-30\\r\\n        scheduledMints\n      ADD \t\t\t-30\\r\\n        scheduledMints\n      SWAP1 \t\t\t-30\\r\\n        scheduledMints\n      DUP2 \t\t\t-30\\r\\n        scheduledMints\n      MSTORE \t\t\t-30\\r\\n        scheduledMints\n      PUSH 20\t\t\t-30\\r\\n        scheduledMints\n      ADD \t\t\t-30\\r\\n        scheduledMints\n      PUSH 0\t\t\t-30\\r\\n        scheduledMints\n      KECCAK256 \t\t\t-30\\r\\n        scheduledMints\n      SLOAD \t\t\t-30\\r\\n        scheduledMints\n      SWAP1 \t\t\t2065-09-30\\r\\n        schedule...\n      POP \t\t\t2065-09-30\\r\\n        schedule...\n      SWAP3 \t\t\tnts.push(2705875200);\\r\\n     ...\n      SWAP2 \t\t\tnts.push(2705875200);\\r\\n     ...\n      POP \t\t\tnts.push(2705875200);\\r\\n     ...\n      POP \t\t\tnts.push(2705875200);\\r\\n     ...\n      JUMP \t\t\tnts.push(2705875200);\\r\\n     ...\n    tag 234\t\t\tol public emergencyStopped = f...\n      JUMPDEST \t\t\tol public emergencyStopped = f...\n      PUSH 9\t\t\tol public emergencyStopped = f...\n      PUSH 0\t\t\tol public emergencyStopped = f...\n      SWAP1 \t\t\tol public emergencyStopped = f...\n      SLOAD \t\t\tol public emergencyStopped = f...\n      SWAP1 \t\t\tol public emergencyStopped = f...\n      PUSH 100\t\t\tol public emergencyStopped = f...\n      EXP \t\t\tol public emergencyStopped = f...\n      SWAP1 \t\t\tol public emergencyStopped = f...\n      DIV \t\t\tol public emergencyStopped = f...\n      PUSH FF\t\t\tol public emergencyStopped = f...\n      AND \t\t\tol public emergencyStopped = f...\n      DUP2 \t\t\tol public emergencyStopped = f...\n      JUMP \t\t\tol public emergencyStopped = f...\n    tag 239\t\t\ttimestamp);\\r\\n\\r\\n    constru...\n      JUMPDEST \t\t\ttimestamp);\\r\\n\\r\\n    constru...\n      PUSH [tag] 454\t\t\tnt256(_DECIMA\n      PUSH [tag] 258\t\t\tnt256(_DECI\n      JUMP \t\t\tnt256(_DECIMA\n    tag 454\t\t\tnt256(_DECIMA\n      JUMPDEST \t\t\tnt256(_DECIMA\n      PUSH 0\t\t\t \n      PUSH FFFFFFFFFFFFFFFFFFFFFFFFFFFFFFFFFFFFFFFF\t\t\t      // Grant roles t\n      AND \t\t\t      // Grant roles t\n      DUP2 \t\t\t      //\n      PUSH FFFFFFFFFFFFFFFFFFFFFFFFFFFFFFFFFFFFFFFF\t\t\t      // Grant roles t\n      AND \t\t\t      // Grant roles t\n      SUB \t\t\t      // Grant roles t\n      PUSH [tag] 456\t\t\t\\r\\n        // Grant roles to ...\n      JUMPI \t\t\t\\r\\n        // Grant roles to ...\n      PUSH 0\t\t\to\n      PUSH 40\t\t\tn v5 style)\\r\\n        _grantR...\n      MLOAD \t\t\tn v5 style)\\r\\n        _grantR...\n      PUSH 1E4FBDF700000000000000000000000000000000000000000000000000000000\t\t\tn v5 style)\\r\\n        _grantR...\n      DUP2 \t\t\tn v5 style)\\r\\n        _grantR...\n      MSTORE \t\t\tn v5 style)\\r\\n        _grantR...\n      PUSH 4\t\t\tn v5 style)\\r\\n        _grantR...\n      ADD \t\t\tn v5 style)\\r\\n        _grantR...\n      PUSH [tag] 457\t\t\tn v5 style)\\r\\n        _grantR...\n      SWAP2 \t\t\tn v5 style)\\r\\n        _grantR...\n      SWAP1 \t\t\tn v5 style)\\r\\n        _grantR...\n      PUSH [tag] 178\t\t\tn v5 style)\\r\\n        _grantR...\n      JUMP \t\t\tn v5 style)\\r\\n        _grantR...\n    tag 457\t\t\tn v5 style)\\r\\n        _grantR...\n      JUMPDEST \t\t\tn v5 style)\\r\\n        _grantR...\n      PUSH 40\t\t\tn v5 style)\\r\\n        _grantR...\n      MLOAD \t\t\tn v5 style)\\r\\n        _grantR...\n      DUP1 \t\t\tn v5 style)\\r\\n        _grantR...\n      SWAP2 \t\t\tn v5 style)\\r\\n        _grantR...\n      SUB \t\t\tn v5 style)\\r\\n        _grantR...\n      SWAP1 \t\t\tn v5 style)\\r\\n        _grantR...\n      REVERT \t\t\tn v5 style)\\r\\n        _grantR...\n    tag 456\t\t\t\\r\\n        // Grant roles to ...\n      JUMPDEST \t\t\t\\r\\n        // Grant roles to ...\n      PUSH [tag] 458\t\t\t _msgSender());\\r\\n        _gr\n      DUP2 \t\t\t      _g\n      PUSH [tag] 361\t\t\t _msgSender());\\r\\n \n      JUMP \t\t\t _msgSender());\\r\\n        _gr\n    tag 458\t\t\t _msgSender());\\r\\n        _gr\n      JUMPDEST \t\t\t _msgSender());\\r\\n        _gr\n      POP \t\t\ttimestamp);\\r\\n\\r\\n    constru...\n      JUMP \t\t\ttimestamp);\\r\\n\\r\\n    constru...\n    tag 243\t\t\tERC20.sol\";\\r\\nimport \"@openze...\n      JUMPDEST \t\t\tERC20.sol\";\\r\\nimport \"@openze...\n      PUSH 0\t\t\tt \"@\n      PUSH 1FFC9A700000000000000000000000000000000000000000000000000000000\t\t\t/utils/SafeERC20.sol\";\\r\\ni\n      PUSH FFFFFFFFFFFFFFFFFFFFFFFFFFFFFFFFFFFFFFFFFFFFFFFFFFFFFFFF\t\t\tcts/token/ERC20/utils/SafeERC2...\n      NOT \t\t\tcts/token/ERC20/utils/SafeERC2...\n      AND \t\t\tcts/token/ERC20/utils/SafeERC2...\n      DUP3 \t\t\tcts/token/E\n      PUSH FFFFFFFFFFFFFFFFFFFFFFFFFFFFFFFFFFFFFFFFFFFFFFFFFFFFFFFF\t\t\tcts/token/ERC20/utils/SafeERC2...\n      NOT \t\t\tcts/token/ERC20/utils/SafeERC2...\n      AND \t\t\tcts/token/ERC20/utils/SafeERC2...\n      EQ \t\t\tcts/token/ERC20/utils/SafeERC2...\n      SWAP1 \t\t\t/contracts/token/ERC20/utils/S...\n      POP \t\t\t/contracts/token/ERC20/utils/S...\n      SWAP2 \t\t\tERC20.sol\";\\r\\nimport \"@openze...\n      SWAP1 \t\t\tERC20.sol\";\\r\\nimport \"@openze...\n      POP \t\t\tERC20.sol\";\\r\\nimport \"@openze...\n      JUMP \t\t\tERC20.sol\";\\r\\nimport \"@openze...\n    tag 253\t\t\tder), and _update hook\\r\\n*/\\r...\n      JUMPDEST \t\t\tder), and _update hook\\r\\n*/\\r...\n      PUSH 0\t\t\tontract\n      CALLER \t\t\t.sol\";\\r\\nim\n      SWAP1 \t\t\t0/ERC20.sol\";\\r\\nim\n      POP \t\t\t0/ERC20.sol\";\\r\\nim\n      SWAP1 \t\t\tder), and _update hook\\r\\n*/\\r...\n      JUMP \t\t\tder), and _update hook\\r\\n*/\\r...\n    tag 255\t\t\te(address account) external on...\n      JUMPDEST \t\t\te(address account) external on...\n      PUSH [tag] 462\t\t\t\n      DUP4 \t\t\t\n      DUP4 \t\t\t\n      DUP4 \t\t\t\n      PUSH 1\t\t\t\n      PUSH [tag] 463\t\t\t\n      JUMP \t\t\t\n    tag 462\t\t\t\n      JUMPDEST \t\t\t\n      POP \t\t\te(address account) external on...\n      POP \t\t\te(address account) external on...\n      POP \t\t\te(address account) external on...\n      JUMP \t\t\te(address account) external on...\n    tag 258\t\t\t/ index for next scheduled min...\n      JUMPDEST \t\t\t/ index for next scheduled min...\n      PUSH [tag] 465\t\t\t   bool publ\n      PUSH [tag] 253\t\t\t   bool pu\n      JUMP \t\t\t   bool publ\n    tag 465\t\t\t   bool publ\n      JUMPDEST \t\t\t   bool publ\n      PUSH FFFFFFFFFFFFFFFFFFFFFFFFFFFFFFFFFFFFFFFF\t\t\t breaker\\r\\n    bool publ\n      AND \t\t\t breaker\\r\\n    bool publ\n      PUSH [tag] 466\t\t\t breake\n      PUSH [tag] 176\t\t\t brea\n      JUMP \t\t\t breake\n    tag 466\t\t\t breake\n      JUMPDEST \t\t\t breake\n      PUSH FFFFFFFFFFFFFFFFFFFFFFFFFFFFFFFFFFFFFFFF\t\t\t breaker\\r\\n    bool publ\n      AND \t\t\t breaker\\r\\n    bool publ\n      EQ \t\t\t breaker\\r\\n    bool publ\n      PUSH [tag] 467\t\t\tcuit breaker\\r\\n    bool publi...\n      JUMPI \t\t\tcuit breaker\\r\\n    bool publi...\n      PUSH [tag] 468\t\t\t event MintS\n      PUSH [tag] 253\t\t\t event Min\n      JUMP \t\t\t event MintS\n    tag 468\t\t\t event MintS\n      JUMPDEST \t\t\t event MintS\n      PUSH 40\t\t\talse;\\r\\n\\r\\n    // Events\\r\\n...\n      MLOAD \t\t\talse;\\r\\n\\r\\n    // Events\\r\\n...\n      PUSH 118CDAA700000000000000000000000000000000000000000000000000000000\t\t\talse;\\r\\n\\r\\n    // Events\\r\\n...\n      DUP2 \t\t\talse;\\r\\n\\r\\n    // Events\\r\\n...\n      MSTORE \t\t\talse;\\r\\n\\r\\n    // Events\\r\\n...\n      PUSH 4\t\t\talse;\\r\\n\\r\\n    // Events\\r\\n...\n      ADD \t\t\talse;\\r\\n\\r\\n    // Events\\r\\n...\n      PUSH [tag] 469\t\t\talse;\\r\\n\\r\\n    // Events\\r\\n...\n      SWAP2 \t\t\talse;\\r\\n\\r\\n    // Events\\r\\n...\n      SWAP1 \t\t\talse;\\r\\n\\r\\n    // Events\\r\\n...\n      PUSH [tag] 178\t\t\talse;\\r\\n\\r\\n    // Events\\r\\n...\n      JUMP \t\t\talse;\\r\\n\\r\\n    // Events\\r\\n...\n    tag 469\t\t\talse;\\r\\n\\r\\n    // Events\\r\\n...\n      JUMPDEST \t\t\talse;\\r\\n\\r\\n    // Events\\r\\n...\n      PUSH 40\t\t\talse;\\r\\n\\r\\n    // Events\\r\\n...\n      MLOAD \t\t\talse;\\r\\n\\r\\n    // Events\\r\\n...\n      DUP1 \t\t\talse;\\r\\n\\r\\n    // Events\\r\\n...\n      SWAP2 \t\t\talse;\\r\\n\\r\\n    // Events\\r\\n...\n      SUB \t\t\talse;\\r\\n\\r\\n    // Events\\r\\n...\n      SWAP1 \t\t\talse;\\r\\n\\r\\n    // Events\\r\\n...\n      REVERT \t\t\talse;\\r\\n\\r\\n    // Events\\r\\n...\n    tag 467\t\t\tcuit breaker\\r\\n    bool publi...\n      JUMPDEST \t\t\tcuit breaker\\r\\n    bool publi...\n      JUMP \t\t\t/ index for next scheduled min...\n    tag 273\t\t\t\n      JUMPDEST \t\t\t\n      PUSH 0\t\t\t\n      PUSH [tag] 471\t\t\t\n      DUP5 \t\t\t\n      DUP5 \t\t\t\n      PUSH [tag] 230\t\t\t\n      JUMP \t\t\t\n    tag 471\t\t\t\n      JUMPDEST \t\t\t\n      SWAP1 \t\t\t\n      POP \t\t\t\n      PUSH FFFFFFFFFFFFFFFFFFFFFFFFFFFFFFFFFFFFFFFFFFFFFFFFFFFFFFFFFFFFFFFF\t\t\t\n      DUP2 \t\t\t\n      LT \t\t\t\n      ISZERO \t\t\t\n      PUSH [tag] 472\t\t\t\n      JUMPI \t\t\t\n      DUP2 \t\t\t\n      DUP2 \t\t\t\n      LT \t\t\t\n      ISZERO \t\t\t\n      PUSH [tag] 473\t\t\t\n      JUMPI \t\t\t\n      DUP3 \t\t\t\n      DUP2 \t\t\t\n      DUP4 \t\t\t\n      PUSH 40\t\t\t\n      MLOAD \t\t\t\n      PUSH FB8F41B200000000000000000000000000000000000000000000000000000000\t\t\t\n      DUP2 \t\t\t\n      MSTORE \t\t\t\n      PUSH 4\t\t\t\n      ADD \t\t\t\n      PUSH [tag] 474\t\t\t\n      SWAP4 \t\t\t\n      SWAP3 \t\t\t\n      SWAP2 \t\t\t\n      SWAP1 \t\t\t\n      PUSH [tag] 475\t\t\t\n      JUMP \t\t\t\n    tag 474\t\t\t\n      JUMPDEST \t\t\t\n      PUSH 40\t\t\t\n      MLOAD \t\t\t\n      DUP1 \t\t\t\n      SWAP2 \t\t\t\n      SUB \t\t\t\n      SWAP1 \t\t\t\n      REVERT \t\t\t\n    tag 473\t\t\t\n      JUMPDEST \t\t\t\n      PUSH [tag] 476\t\t\t\n      DUP5 \t\t\t\n      DUP5 \t\t\t\n      DUP5 \t\t\t\n      DUP5 \t\t\t\n      SUB \t\t\t\n      PUSH 0\t\t\t\n      PUSH [tag] 463\t\t\t\n      JUMP \t\t\t\n    tag 476\t\t\t\n      JUMPDEST \t\t\t\n    tag 472\t\t\t\n      JUMPDEST \t\t\t\n      POP \t\t\t\n      POP \t\t\t\n      POP \t\t\t\n      POP \t\t\t\n      JUMP \t\t\t\n    tag 275\t\t\ttalSupply());\\r\\n\\r\\n        /...\n      JUMPDEST \t\t\ttalSupply());\\r\\n\\r\\n        /...\n      PUSH 0\t\t\tu\n      PUSH FFFFFFFFFFFFFFFFFFFFFFFFFFFFFFFFFFFFFFFF\t\t\t  function schedul\n      AND \t\t\t  function schedul\n      DUP4 \t\t\t  fu\n      PUSH FFFFFFFFFFFFFFFFFFFFFFFFFFFFFFFFFFFFFFFF\t\t\t  function schedul\n      AND \t\t\t  function schedul\n      SUB \t\t\t  function schedul\n      PUSH [tag] 478\t\t\t\\r\\n    function scheduledMint...\n      JUMPI \t\t\t\\r\\n    function scheduledMint...\n      PUSH 0\t\t\t \n      PUSH 40\t\t\trnal view returns (uint256) {\\...\n      MLOAD \t\t\trnal view returns (uint256) {\\...\n      PUSH 96C6FD1E00000000000000000000000000000000000000000000000000000000\t\t\trnal view returns (uint256) {\\...\n      DUP2 \t\t\trnal view returns (uint256) {\\...\n      MSTORE \t\t\trnal view returns (uint256) {\\...\n      PUSH 4\t\t\trnal view returns (uint256) {\\...\n      ADD \t\t\trnal view returns (uint256) {\\...\n      PUSH [tag] 479\t\t\trnal view returns (uint256) {\\...\n      SWAP2 \t\t\trnal view returns (uint256) {\\...\n      SWAP1 \t\t\trnal view returns (uint256) {\\...\n      PUSH [tag] 178\t\t\trnal view returns (uint256) {\\...\n      JUMP \t\t\trnal view returns (uint256) {\\...\n    tag 479\t\t\trnal view returns (uint256) {\\...\n      JUMPDEST \t\t\trnal view returns (uint256) {\\...\n      PUSH 40\t\t\trnal view returns (uint256) {\\...\n      MLOAD \t\t\trnal view returns (uint256) {\\...\n      DUP1 \t\t\trnal view returns (uint256) {\\...\n      SWAP2 \t\t\trnal view returns (uint256) {\\...\n      SUB \t\t\trnal view returns (uint256) {\\...\n      SWAP1 \t\t\trnal view returns (uint256) {\\...\n      REVERT \t\t\trnal view returns (uint256) {\\...\n    tag 478\t\t\t\\r\\n    function scheduledMint...\n      JUMPDEST \t\t\t\\r\\n    function scheduledMint...\n      PUSH 0\t\t\td\n      PUSH FFFFFFFFFFFFFFFFFFFFFFFFFFFFFFFFFFFFFFFF\t\t\tex >= scheduledM\n      AND \t\t\tex >= scheduledM\n      DUP3 \t\t\tex\n      PUSH FFFFFFFFFFFFFFFFFFFFFFFFFFFFFFFFFFFFFFFF\t\t\tex >= scheduledM\n      AND \t\t\tex >= scheduledM\n      SUB \t\t\tex >= scheduledM\n      PUSH [tag] 480\t\t\ttIndex >= scheduledMints.lengt...\n      JUMPI \t\t\ttIndex >= scheduledMints.lengt...\n      PUSH 0\t\t\ts\n      PUSH 40\t\t\t\\n        return scheduledMint...\n      MLOAD \t\t\t\\n        return scheduledMint...\n      PUSH EC442F0500000000000000000000000000000000000000000000000000000000\t\t\t\\n        return scheduledMint...\n      DUP2 \t\t\t\\n        return scheduledMint...\n      MSTORE \t\t\t\\n        return scheduledMint...\n      PUSH 4\t\t\t\\n        return scheduledMint...\n      ADD \t\t\t\\n        return scheduledMint...\n      PUSH [tag] 481\t\t\t\\n        return scheduledMint...\n      SWAP2 \t\t\t\\n        return scheduledMint...\n      SWAP1 \t\t\t\\n        return scheduledMint...\n      PUSH [tag] 178\t\t\t\\n        return scheduledMint...\n      JUMP \t\t\t\\n        return scheduledMint...\n    tag 481\t\t\t\\n        return scheduledMint...\n      JUMPDEST \t\t\t\\n        return scheduledMint...\n      PUSH 40\t\t\t\\n        return scheduledMint...\n      MLOAD \t\t\t\\n        return scheduledMint...\n      DUP1 \t\t\t\\n        return scheduledMint...\n      SWAP2 \t\t\t\\n        return scheduledMint...\n      SUB \t\t\t\\n        return scheduledMint...\n      SWAP1 \t\t\t\\n        return scheduledMint...\n      REVERT \t\t\t\\n        return scheduledMint...\n    tag 480\t\t\ttIndex >= scheduledMints.lengt...\n      JUMPDEST \t\t\ttIndex >= scheduledMints.lengt...\n      PUSH [tag] 482\t\t\tx;\\r\\n    }\\r\\n\\r\\n    // ----\n      DUP4 \t\t\t}\\r\\n\\r\n      DUP4 \t\t\t  \n      DUP4 \t\t\t/ ---\n      PUSH [tag] 483\t\t\tx;\\r\\n   \n      JUMP \t\t\tx;\\r\\n    }\\r\\n\\r\\n    // ----\n    tag 482\t\t\tx;\\r\\n    }\\r\\n\\r\\n    // ----\n      JUMPDEST \t\t\tx;\\r\\n    }\\r\\n\\r\\n    // ----\n      POP \t\t\ttalSupply());\\r\\n\\r\\n        /...\n      POP \t\t\ttalSupply());\\r\\n\\r\\n        /...\n      POP \t\t\ttalSupply());\\r\\n\\r\\n        /...\n      JUMP \t\t\ttalSupply());\\r\\n\\r\\n        /...\n    tag 280\t\t\t\\n        scheduledMints.push(...\n      JUMPDEST \t\t\t\\n        scheduledMints.push(...\n      PUSH [tag] 485\t\t\t        scheduledMints.push(22\n      DUP2 \t\t\tedul\n      PUSH [tag] 486\t\t\tMints.push(2\n      PUSH [tag] 253\t\t\tMints.push\n      JUMP \t\t\tMints.push(2\n    tag 486\t\t\tMints.push(2\n      JUMPDEST \t\t\tMints.push(2\n      PUSH [tag] 487\t\t\t        sc\n      JUMP \t\t\t        scheduledMints.push(22\n    tag 485\t\t\t        scheduledMints.push(22\n      JUMPDEST \t\t\t        scheduledMints.push(22\n      POP \t\t\t\\n        scheduledMints.push(...\n      JUMP \t\t\t\\n        scheduledMints.push(...\n    tag 283\t\t\t\\r\\n        require(!emergency...\n      JUMPDEST \t\t\t\\r\\n        require(!emergency...\n      PUSH 0\t\t\tuire\n      PUSH [tag] 489\t\t\t0), \"TIGG: burn from z\n      DUP4 \t\t\tG: b\n      DUP4 \t\t\tn from \n      PUSH [tag] 182\t\t\t0), \"TI\n      JUMP \t\t\t0), \"TIGG: burn from z\n    tag 489\t\t\t0), \"TIGG: burn from z\n      JUMPDEST \t\t\t0), \"TIGG: burn from z\n      PUSH [tag] 490\t\t\tress(0), \"TIGG: burn from zero...\n      JUMPI \t\t\tress(0), \"TIGG: burn from zero...\n      PUSH 1\t\t\temit\n      PUSH 5\t\t\t  _bur\n      PUSH 0\t\t\t  _burn(from\n      DUP6 \t\t\t(fro\n      DUP2 \t\t\t  _burn(from\n      MSTORE \t\t\t  _burn(from\n      PUSH 20\t\t\t  _burn(from\n      ADD \t\t\t  _burn(from\n      SWAP1 \t\t\t  _burn(from\n      DUP2 \t\t\t  _burn(from\n      MSTORE \t\t\t  _burn(from\n      PUSH 20\t\t\t  _burn(from\n      ADD \t\t\t  _burn(from\n      PUSH 0\t\t\t  _burn(from\n      KECCAK256 \t\t\t  _burn(from\n      PUSH 0\t\t\t  _burn(from, amount\n      ADD \t\t\t  _burn(from, amount\n      PUSH 0\t\t\t  _burn(from, amount);\\r\\n    ...\n      DUP5 \t\t\t;\\r\\n    \n      PUSH FFFFFFFFFFFFFFFFFFFFFFFFFFFFFFFFFFFFFFFF\t\t\t  _burn(from, amount);\\r\\n    ...\n      AND \t\t\t  _burn(from, amount);\\r\\n    ...\n      PUSH FFFFFFFFFFFFFFFFFFFFFFFFFFFFFFFFFFFFFFFF\t\t\t  _burn(from, amount);\\r\\n    ...\n      AND \t\t\t  _burn(from, amount);\\r\\n    ...\n      DUP2 \t\t\t  _burn(from, amount);\\r\\n    ...\n      MSTORE \t\t\t  _burn(from, amount);\\r\\n    ...\n      PUSH 20\t\t\t  _burn(from, amount);\\r\\n    ...\n      ADD \t\t\t  _burn(from, amount);\\r\\n    ...\n      SWAP1 \t\t\t  _burn(from, amount);\\r\\n    ...\n      DUP2 \t\t\t  _burn(from, amount);\\r\\n    ...\n      MSTORE \t\t\t  _burn(from, amount);\\r\\n    ...\n      PUSH 20\t\t\t  _burn(from, amount);\\r\\n    ...\n      ADD \t\t\t  _burn(from, amount);\\r\\n    ...\n      PUSH 0\t\t\t  _burn(from, amount);\\r\\n    ...\n      KECCAK256 \t\t\t  _burn(from, amount);\\r\\n    ...\n      PUSH 0\t\t\t  _burn(from, amount);\\r\\n    ...\n      PUSH 100\t\t\t  _burn(from, amount);\\r\\n    ...\n      EXP \t\t\t  _burn(from, amount);\\r\\n    ...\n      DUP2 \t\t\t  _burn(from, amount);\\r\\n    ...\n      SLOAD \t\t\t  _burn(from, amount);\\r\\n    ...\n      DUP2 \t\t\t  _burn(from, amount);\\r\\n    ...\n      PUSH FF\t\t\t  _burn(from, amount);\\r\\n    ...\n      MUL \t\t\t  _burn(from, amount);\\r\\n    ...\n      NOT \t\t\t  _burn(from, amount);\\r\\n    ...\n      AND \t\t\t  _burn(from, amount);\\r\\n    ...\n      SWAP1 \t\t\t  _burn(from, amount);\\r\\n    ...\n      DUP4 \t\t\t  _burn(from, amount);\\r\\n    ...\n      ISZERO \t\t\t  _burn(from, amount);\\r\\n    ...\n      ISZERO \t\t\t  _burn(from, amount);\\r\\n    ...\n      MUL \t\t\t  _burn(from, amount);\\r\\n    ...\n      OR \t\t\t  _burn(from, amount);\\r\\n    ...\n      SWAP1 \t\t\t  _burn(from, amount);\\r\\n    ...\n      SSTORE \t\t\t  _burn(from, amount);\\r\\n    ...\n      POP \t\t\t  _burn(from, amount);\\r\\n    ...\n      PUSH [tag] 491\t\t\t}\\r\\n\\r\\n    // \n      PUSH [tag] 253\t\t\t}\\r\\n\\r\\n    /\n      JUMP \t\t\t}\\r\\n\\r\\n    // \n    tag 491\t\t\t}\\r\\n\\r\\n    // \n      JUMPDEST \t\t\t}\\r\\n\\r\\n    // \n      PUSH FFFFFFFFFFFFFFFFFFFFFFFFFFFFFFFFFFFFFFFF\t\t\tmount, _msgSender());\\r\\n    }...\n      AND \t\t\tmount, _msgSender());\\r\\n    }...\n      DUP3 \t\t\t));\\r\\n  \n      PUSH FFFFFFFFFFFFFFFFFFFFFFFFFFFFFFFFFFFFFFFF\t\t\tmount, _msgSender());\\r\\n    }...\n      AND \t\t\tmount, _msgSender());\\r\\n    }...\n      DUP5 \t\t\tende\n      PUSH 2F8788117E7EFF1D82E926EC794901D17C78024A50270940304540A733656F0D\t\t\tmount, _msgSender());\\r\\n    }...\n      PUSH 40\t\t\tmount, _msgSender());\\r\\n    }...\n      MLOAD \t\t\tmount, _msgSender());\\r\\n    }...\n      PUSH 40\t\t\tmount, _msgSender());\\r\\n    }...\n      MLOAD \t\t\tmount, _msgSender());\\r\\n    }...\n      DUP1 \t\t\tmount, _msgSender());\\r\\n    }...\n      SWAP2 \t\t\tmount, _msgSender());\\r\\n    }...\n      SUB \t\t\tmount, _msgSender());\\r\\n    }...\n      SWAP1 \t\t\tmount, _msgSender());\\r\\n    }...\n      LOG4 \t\t\tmount, _msgSender());\\r\\n    }...\n      PUSH 1\t\t\t\\r\\n  \n      SWAP1 \t\t\t-------\\r\\n  \n      POP \t\t\t-------\\r\\n  \n      PUSH [tag] 488\t\t\t-------\\r\\n  \n      JUMP \t\t\t-------\\r\\n  \n    tag 490\t\t\tress(0), \"TIGG: burn from zero...\n      JUMPDEST \t\t\tress(0), \"TIGG: burn from zero...\n      PUSH 0\t\t\tfallb\n      SWAP1 \t\t\tB) and fallb\n      POP \t\t\tB) and fallb\n    tag 488\t\t\t\\r\\n        require(!emergency...\n      JUMPDEST \t\t\t\\r\\n        require(!emergency...\n      SWAP3 \t\t\t\\r\\n        require(!emergency...\n      SWAP2 \t\t\t\\r\\n        require(!emergency...\n      POP \t\t\t\\r\\n        require(!emergency...\n      POP \t\t\t\\r\\n        require(!emergency...\n      JUMP \t\t\t\\r\\n        require(!emergency...\n    tag 295\t\t\tn, address to, uint256 amount)...\n      JUMPDEST \t\t\tn, address to, uint256 amount)...\n      PUSH 0\t\t\tress\n      PUSH [tag] 494\t\t\tero\");\\r\\n        IERC20\n      DUP4 \t\t\t    \n      DUP4 \t\t\t  IERC2\n      PUSH [tag] 182\t\t\tero\");\\r\n      JUMP \t\t\tero\");\\r\\n        IERC20\n    tag 494\t\t\tero\");\\r\\n        IERC20\n      JUMPDEST \t\t\tero\");\\r\\n        IERC20\n      ISZERO \t\t\tto zero\");\\r\\n        IERC20(t...\n      PUSH [tag] 495\t\t\tto zero\");\\r\\n        IERC20(t...\n      JUMPI \t\t\tto zero\");\\r\\n        IERC20(t...\n      PUSH 0\t\t\tToken\n      PUSH 5\t\t\tsfer(t\n      PUSH 0\t\t\tsfer(to, amo\n      DUP6 \t\t\t, am\n      DUP2 \t\t\tsfer(to, amo\n      MSTORE \t\t\tsfer(to, amo\n      PUSH 20\t\t\tsfer(to, amo\n      ADD \t\t\tsfer(to, amo\n      SWAP1 \t\t\tsfer(to, amo\n      DUP2 \t\t\tsfer(to, amo\n      MSTORE \t\t\tsfer(to, amo\n      PUSH 20\t\t\tsfer(to, amo\n      ADD \t\t\tsfer(to, amo\n      PUSH 0\t\t\tsfer(to, amo\n      KECCAK256 \t\t\tsfer(to, amo\n      PUSH 0\t\t\tsfer(to, amount);\\r\\n \n      ADD \t\t\tsfer(to, amount);\\r\\n \n      PUSH 0\t\t\tsfer(to, amount);\\r\\n        e...\n      DUP5 \t\t\t      e\n      PUSH FFFFFFFFFFFFFFFFFFFFFFFFFFFFFFFFFFFFFFFF\t\t\tsfer(to, amount);\\r\\n        e...\n      AND \t\t\tsfer(to, amount);\\r\\n        e...\n      PUSH FFFFFFFFFFFFFFFFFFFFFFFFFFFFFFFFFFFFFFFF\t\t\tsfer(to, amount);\\r\\n        e...\n      AND \t\t\tsfer(to, amount);\\r\\n        e...\n      DUP2 \t\t\tsfer(to, amount);\\r\\n        e...\n      MSTORE \t\t\tsfer(to, amount);\\r\\n        e...\n      PUSH 20\t\t\tsfer(to, amount);\\r\\n        e...\n      ADD \t\t\tsfer(to, amount);\\r\\n        e...\n      SWAP1 \t\t\tsfer(to, amount);\\r\\n        e...\n      DUP2 \t\t\tsfer(to, amount);\\r\\n        e...\n      MSTORE \t\t\tsfer(to, amount);\\r\\n        e...\n      PUSH 20\t\t\tsfer(to, amount);\\r\\n        e...\n      ADD \t\t\tsfer(to, amount);\\r\\n        e...\n      PUSH 0\t\t\tsfer(to, amount);\\r\\n        e...\n      KECCAK256 \t\t\tsfer(to, amount);\\r\\n        e...\n      PUSH 0\t\t\tsfer(to, amount);\\r\\n        e...\n      PUSH 100\t\t\tsfer(to, amount);\\r\\n        e...\n      EXP \t\t\tsfer(to, amount);\\r\\n        e...\n      DUP2 \t\t\tsfer(to, amount);\\r\\n        e...\n      SLOAD \t\t\tsfer(to, amount);\\r\\n        e...\n      DUP2 \t\t\tsfer(to, amount);\\r\\n        e...\n      PUSH FF\t\t\tsfer(to, amount);\\r\\n        e...\n      MUL \t\t\tsfer(to, amount);\\r\\n        e...\n      NOT \t\t\tsfer(to, amount);\\r\\n        e...\n      AND \t\t\tsfer(to, amount);\\r\\n        e...\n      SWAP1 \t\t\tsfer(to, amount);\\r\\n        e...\n      DUP4 \t\t\tsfer(to, amount);\\r\\n        e...\n      ISZERO \t\t\tsfer(to, amount);\\r\\n        e...\n      ISZERO \t\t\tsfer(to, amount);\\r\\n        e...\n      MUL \t\t\tsfer(to, amount);\\r\\n        e...\n      OR \t\t\tsfer(to, amount);\\r\\n        e...\n      SWAP1 \t\t\tsfer(to, amount);\\r\\n        e...\n      SSTORE \t\t\tsfer(to, amount);\\r\\n        e...\n      POP \t\t\tsfer(to, amount);\\r\\n        e...\n      PUSH [tag] 496\t\t\ttion rescueA\n      PUSH [tag] 253\t\t\ttion rescu\n      JUMP \t\t\ttion rescueA\n    tag 496\t\t\ttion rescueA\n      JUMPDEST \t\t\ttion rescueA\n      PUSH FFFFFFFFFFFFFFFFFFFFFFFFFFFFFFFFFFFFFFFF\t\t\tamount);\\r\\n    }\\r\\n\\r\\n    f...\n      AND \t\t\tamount);\\r\\n    }\\r\\n\\r\\n    f...\n      DUP3 \t\t\t\\n    fu\n      PUSH FFFFFFFFFFFFFFFFFFFFFFFFFFFFFFFFFFFFFFFF\t\t\tamount);\\r\\n    }\\r\\n\\r\\n    f...\n      AND \t\t\tamount);\\r\\n    }\\r\\n\\r\\n    f...\n      DUP5 \t\t\t  }\\r\n      PUSH F6391F5C32D9C69D2A47EA670B442974B53935D1EDC7FD64EB21E047A839171B\t\t\tamount);\\r\\n    }\\r\\n\\r\\n    f...\n      PUSH 40\t\t\tamount);\\r\\n    }\\r\\n\\r\\n    f...\n      MLOAD \t\t\tamount);\\r\\n    }\\r\\n\\r\\n    f...\n      PUSH 40\t\t\tamount);\\r\\n    }\\r\\n\\r\\n    f...\n      MLOAD \t\t\tamount);\\r\\n    }\\r\\n\\r\\n    f...\n      DUP1 \t\t\tamount);\\r\\n    }\\r\\n\\r\\n    f...\n      SWAP2 \t\t\tamount);\\r\\n    }\\r\\n\\r\\n    f...\n      SUB \t\t\tamount);\\r\\n    }\\r\\n\\r\\n    f...\n      SWAP1 \t\t\tamount);\\r\\n    }\\r\\n\\r\\n    f...\n      LOG4 \t\t\tamount);\\r\\n    }\\r\\n\\r\\n    f...\n      PUSH 1\t\t\t add\n      SWAP1 \t\t\t token, add\n      POP \t\t\t token, add\n      PUSH [tag] 493\t\t\t token, add\n      JUMP \t\t\t token, add\n    tag 495\t\t\tto zero\");\\r\\n        IERC20(t...\n      JUMPDEST \t\t\tto zero\");\\r\\n        IERC20(t...\n      PUSH 0\t\t\t requ\n      SWAP1 \t\t\t        requ\n      POP \t\t\t        requ\n    tag 493\t\t\tn, address to, uint256 amount)...\n      JUMPDEST \t\t\tn, address to, uint256 amount)...\n      SWAP3 \t\t\tn, address to, uint256 amount)...\n      SWAP2 \t\t\tn, address to, uint256 amount)...\n      POP \t\t\tn, address to, uint256 amount)...\n      POP \t\t\tn, address to, uint256 amount)...\n      JUMP \t\t\tn, address to, uint256 amount)...\n    tag 330\t\t\t != address(0), \"TIGG: to zero...\n      JUMPDEST \t\t\t != address(0), \"TIGG: to zero...\n      PUSH 0\t\t\t:\n      PUSH FFFFFFFFFFFFFFFFFFFFFFFFFFFFFFFFFFFFFFFF\t\t\this).balance, \"TIGG: \n      AND \t\t\this).balance, \"TIGG: \n      DUP3 \t\t\this).ba\n      PUSH FFFFFFFFFFFFFFFFFFFFFFFFFFFFFFFFFFFFFFFF\t\t\this).balance, \"TIGG: \n      AND \t\t\this).balance, \"TIGG: \n      SUB \t\t\this).balance, \"TIGG: \n      PUSH [tag] 499\t\t\tss(this).balance, \"TIGG: insuf...\n      JUMPI \t\t\tss(this).balance, \"TIGG: insuf...\n      PUSH 0\t\t\t;\n      PUSH 40\t\t\t\\r\\n        to.transfer(amount...\n      MLOAD \t\t\t\\r\\n        to.transfer(amount...\n      PUSH EC442F0500000000000000000000000000000000000000000000000000000000\t\t\t\\r\\n        to.transfer(amount...\n      DUP2 \t\t\t\\r\\n        to.transfer(amount...\n      MSTORE \t\t\t\\r\\n        to.transfer(amount...\n      PUSH 4\t\t\t\\r\\n        to.transfer(amount...\n      ADD \t\t\t\\r\\n        to.transfer(amount...\n      PUSH [tag] 500\t\t\t\\r\\n        to.transfer(amount...\n      SWAP2 \t\t\t\\r\\n        to.transfer(amount...\n      SWAP1 \t\t\t\\r\\n        to.transfer(amount...\n      PUSH [tag] 178\t\t\t\\r\\n        to.transfer(amount...\n      JUMP \t\t\t\\r\\n        to.transfer(amount...\n    tag 500\t\t\t\\r\\n        to.transfer(amount...\n      JUMPDEST \t\t\t\\r\\n        to.transfer(amount...\n      PUSH 40\t\t\t\\r\\n        to.transfer(amount...\n      MLOAD \t\t\t\\r\\n        to.transfer(amount...\n      DUP1 \t\t\t\\r\\n        to.transfer(amount...\n      SWAP2 \t\t\t\\r\\n        to.transfer(amount...\n      SUB \t\t\t\\r\\n        to.transfer(amount...\n      SWAP1 \t\t\t\\r\\n        to.transfer(amount...\n      REVERT \t\t\t\\r\\n        to.transfer(amount...\n    tag 499\t\t\tss(this).balance, \"TIGG: insuf...\n      JUMPDEST \t\t\tss(this).balance, \"TIGG: insuf...\n      PUSH [tag] 501\t\t\tescued(to, amount);\\r\\n    }\\r...\n      PUSH 0\t\t\tt\n      DUP4 \t\t\t\\n    }\\r\n      DUP4 \t\t\t\\n    \n      PUSH [tag] 483\t\t\tescued(\n      JUMP \t\t\tescued(to, amount);\\r\\n    }\\r...\n    tag 501\t\t\tescued(to, amount);\\r\\n    }\\r...\n      JUMPDEST \t\t\tescued(to, amount);\\r\\n    }\\r...\n      POP \t\t\t != address(0), \"TIGG: to zero...\n      POP \t\t\t != address(0), \"TIGG: to zero...\n      JUMP \t\t\t != address(0), \"TIGG: to zero...\n    tag 361\t\t\tITIAL_SUPPLY);\\r\\n\\r\\n        ...\n      JUMPDEST \t\t\tITIAL_SUPPLY);\\r\\n\\r\\n        ...\n      PUSH 0\t\t\t0:00:00 UTC ever\n      PUSH 6\t\t\t years\n      PUSH 0\t\t\t years\n      SWAP1 \t\t\t years\n      SLOAD \t\t\t years\n      SWAP1 \t\t\t years\n      PUSH 100\t\t\t years\n      EXP \t\t\t years\n      SWAP1 \t\t\t years\n      DIV \t\t\t years\n      PUSH FFFFFFFFFFFFFFFFFFFFFFFFFFFFFFFFFFFFFFFF\t\t\t years\n      AND \t\t\t years\n      SWAP1 \t\t\t0:00:00 UTC every 5 years\n      POP \t\t\t0:00:00 UTC every 5 years\n      DUP2 \t\t\t      //\n      PUSH 6\t\t\t2030)\\r\n      PUSH 0\t\t\t2030)\\r\n      PUSH 100\t\t\t2030)\\r\\n        //\n      EXP \t\t\t2030)\\r\\n        //\n      DUP2 \t\t\t2030)\\r\\n        //\n      SLOAD \t\t\t2030)\\r\\n        //\n      DUP2 \t\t\t2030)\\r\\n        //\n      PUSH FFFFFFFFFFFFFFFFFFFFFFFFFFFFFFFFFFFFFFFF\t\t\t2030)\\r\\n        //\n      MUL \t\t\t2030)\\r\\n        //\n      NOT \t\t\t2030)\\r\\n        //\n      AND \t\t\t2030)\\r\\n        //\n      SWAP1 \t\t\t2030)\\r\\n        //\n      DUP4 \t\t\t2030)\\r\\n        //\n      PUSH FFFFFFFFFFFFFFFFFFFFFFFFFFFFFFFFFFFFFFFF\t\t\t2030)\\r\\n        //\n      AND \t\t\t2030)\\r\\n        //\n      MUL \t\t\t2030)\\r\\n        //\n      OR \t\t\t2030)\\r\\n        //\n      SWAP1 \t\t\t2030)\\r\\n        //\n      SSTORE \t\t\t2030)\\r\\n        //\n      POP \t\t\t2030)\\r\\n        //\n      DUP2 \t\t\t// 2030-\n      PUSH FFFFFFFFFFFFFFFFFFFFFFFFFFFFFFFFFFFFFFFF\t\t\tps are in seconds UTC\\r\\n     ...\n      AND \t\t\tps are in seconds UTC\\r\\n     ...\n      DUP2 \t\t\t\\r\\n      \n      PUSH FFFFFFFFFFFFFFFFFFFFFFFFFFFFFFFFFFFFFFFF\t\t\tps are in seconds UTC\\r\\n     ...\n      AND \t\t\tps are in seconds UTC\\r\\n     ...\n      PUSH 8BE0079C531659141344CD1FD0A4F28419497F9722A3DAAFE3B4186F6B6457E0\t\t\tps are in seconds UTC\\r\\n     ...\n      PUSH 40\t\t\tps are in seconds UTC\\r\\n     ...\n      MLOAD \t\t\tps are in seconds UTC\\r\\n     ...\n      PUSH 40\t\t\tps are in seconds UTC\\r\\n     ...\n      MLOAD \t\t\tps are in seconds UTC\\r\\n     ...\n      DUP1 \t\t\tps are in seconds UTC\\r\\n     ...\n      SWAP2 \t\t\tps are in seconds UTC\\r\\n     ...\n      SUB \t\t\tps are in seconds UTC\\r\\n     ...\n      SWAP1 \t\t\tps are in seconds UTC\\r\\n     ...\n      LOG3 \t\t\tps are in seconds UTC\\r\\n     ...\n      POP \t\t\t (30 Sep 00:00:00 UTC every 5 ...\n      POP \t\t\tITIAL_SUPPLY);\\r\\n\\r\\n        ...\n      JUMP \t\t\tITIAL_SUPPLY);\\r\\n\\r\\n        ...\n    tag 373\t\t\t OpenZeppelin v5 transfer hook...\n      JUMPDEST \t\t\t OpenZeppelin v5 transfer hook...\n      PUSH 0\t\t\t-\n      PUSH FFFFFFFFFFFFFFFFFFFFFFFFFFFFFFFFFFFFFFFF\t\t\t// ------------------\n      AND \t\t\t// ------------------\n      DUP3 \t\t\t// ----\n      PUSH FFFFFFFFFFFFFFFFFFFFFFFFFFFFFFFFFFFFFFFF\t\t\t// ------------------\n      AND \t\t\t// ------------------\n      SUB \t\t\t// ------------------\n      PUSH [tag] 504\t\t\t    // ----------------------\\...\n      JUMPI \t\t\t    // ----------------------\\...\n      PUSH 0\t\t\to\n      PUSH 40\t\t\tate(address from, address to, \n      MLOAD \t\t\tate(address from, address to, \n      PUSH 96C6FD1E00000000000000000000000000000000000000000000000000000000\t\t\tate(address from, address to, \n      DUP2 \t\t\tate(address from, address to, \n      MSTORE \t\t\tate(address from, address to, \n      PUSH 4\t\t\tate(address from, address to, \n      ADD \t\t\tate(address from, address to, \n      PUSH [tag] 505\t\t\tate(address from, address to, \n      SWAP2 \t\t\tate(address from, address to, \n      SWAP1 \t\t\tate(address from, address to, \n      PUSH [tag] 178\t\t\tate(address from, address to, \n      JUMP \t\t\tate(address from, address to, \n    tag 505\t\t\tate(address from, address to, \n      JUMPDEST \t\t\tate(address from, address to, \n      PUSH 40\t\t\tate(address from, address to, \n      MLOAD \t\t\tate(address from, address to, \n      DUP1 \t\t\tate(address from, address to, \n      SWAP2 \t\t\tate(address from, address to, \n      SUB \t\t\tate(address from, address to, \n      SWAP1 \t\t\tate(address from, address to, \n      REVERT \t\t\tate(address from, address to, \n    tag 504\t\t\t    // ----------------------\\...\n      JUMPDEST \t\t\t    // ----------------------\\...\n      PUSH [tag] 506\t\t\trnal override {\\r\\n        req...\n      DUP3 \t\t\trride {\n      PUSH 0\t\t\tr\n      DUP4 \t\t\tire(!\n      PUSH [tag] 483\t\t\trnal ov\n      JUMP \t\t\trnal override {\\r\\n        req...\n    tag 506\t\t\trnal override {\\r\\n        req...\n      JUMPDEST \t\t\trnal override {\\r\\n        req...\n      POP \t\t\t OpenZeppelin v5 transfer hook...\n      POP \t\t\t OpenZeppelin v5 transfer hook...\n      JUMP \t\t\t OpenZeppelin v5 transfer hook...\n    tag 420\t\t\tnt8 private constant _DECIMALS...\n      JUMPDEST \t\t\tnt8 private constant _DECIMALS...\n      PUSH [tag] 508\t\t\t = 1_000_000_000 * (10 ** uint...\n      DUP4 \t\t\t10 **\n      DUP5 \t\t\tS)); \n      PUSH FFFFFFFFFFFFFFFFFFFFFFFFFFFFFFFFFFFFFFFF\t\t\tS)); // 1B\\r\\n  \n      AND \t\t\tS)); // 1B\\r\\n  \n      PUSH A9059CBB\t\t\tS)); // 1B\\r\\n  \n      DUP6 \t\t\tin\n      DUP6 \t\t\t56 pu\n      PUSH 40\t\t\tint256(_DECIMALS)); // 1B\\r\\n ...\n      MLOAD \t\t\tint256(_DECIMALS)); // 1B\\r\\n ...\n      PUSH 24\t\t\tint256(_DECIMALS)); // 1B\\r\\n ...\n      ADD \t\t\tint256(_DECIMALS)); // 1B\\r\\n ...\n      PUSH [tag] 509\t\t\tint256(_DECIMALS)); // 1B\\r\\n ...\n      SWAP3 \t\t\tint256(_DECIMALS)); // 1B\\r\\n ...\n      SWAP2 \t\t\tint256(_DECIMALS)); // 1B\\r\\n ...\n      SWAP1 \t\t\tint256(_DECIMALS)); // 1B\\r\\n ...\n      PUSH [tag] 510\t\t\tint256(_DECIMALS)); // 1B\\r\\n ...\n      JUMP \t\t\tint256(_DECIMALS)); // 1B\\r\\n ...\n    tag 509\t\t\tint256(_DECIMALS)); // 1B\\r\\n ...\n      JUMPDEST \t\t\tint256(_DECIMALS)); // 1B\\r\\n ...\n      PUSH 40\t\t\tint256(_DECIMALS)); // 1B\\r\\n ...\n      MLOAD \t\t\tint256(_DECIMALS)); // 1B\\r\\n ...\n      PUSH 20\t\t\tint256(_DECIMALS)); // 1B\\r\\n ...\n      DUP2 \t\t\tint256(_DECIMALS)); // 1B\\r\\n ...\n      DUP4 \t\t\tint256(_DECIMALS)); // 1B\\r\\n ...\n      SUB \t\t\tint256(_DECIMALS)); // 1B\\r\\n ...\n      SUB \t\t\tint256(_DECIMALS)); // 1B\\r\\n ...\n      DUP2 \t\t\tint256(_DECIMALS)); // 1B\\r\\n ...\n      MSTORE \t\t\tint256(_DECIMALS)); // 1B\\r\\n ...\n      SWAP1 \t\t\tint256(_DECIMALS)); // 1B\\r\\n ...\n      PUSH 40\t\t\tint256(_DECIMALS)); // 1B\\r\\n ...\n      MSTORE \t\t\tint256(_DECIMALS)); // 1B\\r\\n ...\n      SWAP2 \t\t\tint256(_DECIMALS)); // 1B\\r\\n ...\n      POP \t\t\tint256(_DECIMALS)); // 1B\\r\\n ...\n      PUSH E0\t\t\tint256(_DECIMALS)); // 1B\\r\\n ...\n      SHL \t\t\tint256(_DECIMALS)); // 1B\\r\\n ...\n      PUSH 20\t\t\tint256(_DECIMALS)); // 1B\\r\\n ...\n      DUP3 \t\t\tint256(_DECIMALS)); // 1B\\r\\n ...\n      ADD \t\t\tint256(_DECIMALS)); // 1B\\r\\n ...\n      DUP1 \t\t\tint256(_DECIMALS)); // 1B\\r\\n ...\n      MLOAD \t\t\tint256(_DECIMALS)); // 1B\\r\\n ...\n      PUSH FFFFFFFFFFFFFFFFFFFFFFFFFFFFFFFFFFFFFFFFFFFFFFFFFFFFFFFF\t\t\tint256(_DECIMALS)); // 1B\\r\\n ...\n      DUP4 \t\t\tint256(_DECIMALS)); // 1B\\r\\n ...\n      DUP2 \t\t\tint256(_DECIMALS)); // 1B\\r\\n ...\n      DUP4 \t\t\tint256(_DECIMALS)); // 1B\\r\\n ...\n      AND \t\t\tint256(_DECIMALS)); // 1B\\r\\n ...\n      OR \t\t\tint256(_DECIMALS)); // 1B\\r\\n ...\n      DUP4 \t\t\tint256(_DECIMALS)); // 1B\\r\\n ...\n      MSTORE \t\t\tint256(_DECIMALS)); // 1B\\r\\n ...\n      POP \t\t\tint256(_DECIMALS)); // 1B\\r\\n ...\n      POP \t\t\tint256(_DECIMALS)); // 1B\\r\\n ...\n      POP \t\t\tint256(_DECIMALS)); // 1B\\r\\n ...\n      POP \t\t\tint256(_DECIMALS)); // 1B\\r\\n ...\n      PUSH [tag] 511\t\t\t = 1_000_000_000 * \n      JUMP \t\t\t = 1_000_000_000 * (10 ** uint...\n    tag 508\t\t\t = 1_000_000_000 * (10 ** uint...\n      JUMPDEST \t\t\t = 1_000_000_000 * (10 ** uint...\n      POP \t\t\tnt8 private constant _DECIMALS...\n      POP \t\t\tnt8 private constant _DECIMALS...\n      POP \t\t\tnt8 private constant _DECIMALS...\n      JUMP \t\t\tnt8 private constant _DECIMALS...\n    tag 463\t\t\t\n      JUMPDEST \t\t\t\n      PUSH 0\t\t\t\n      PUSH FFFFFFFFFFFFFFFFFFFFFFFFFFFFFFFFFFFFFFFF\t\t\t\n      AND \t\t\t\n      DUP5 \t\t\t\n      PUSH FFFFFFFFFFFFFFFFFFFFFFFFFFFFFFFFFFFFFFFF\t\t\t\n      AND \t\t\t\n      SUB \t\t\t\n      PUSH [tag] 513\t\t\t\n      JUMPI \t\t\t\n      PUSH 0\t\t\t\n      PUSH 40\t\t\t\n      MLOAD \t\t\t\n      PUSH E602DF0500000000000000000000000000000000000000000000000000000000\t\t\t\n      DUP2 \t\t\t\n      MSTORE \t\t\t\n      PUSH 4\t\t\t\n      ADD \t\t\t\n      PUSH [tag] 514\t\t\t\n      SWAP2 \t\t\t\n      SWAP1 \t\t\t\n      PUSH [tag] 178\t\t\t\n      JUMP \t\t\t\n    tag 514\t\t\t\n      JUMPDEST \t\t\t\n      PUSH 40\t\t\t\n      MLOAD \t\t\t\n      DUP1 \t\t\t\n      SWAP2 \t\t\t\n      SUB \t\t\t\n      SWAP1 \t\t\t\n      REVERT \t\t\t\n    tag 513\t\t\t\n      JUMPDEST \t\t\t\n      PUSH 0\t\t\t\n      PUSH FFFFFFFFFFFFFFFFFFFFFFFFFFFFFFFFFFFFFFFF\t\t\t\n      AND \t\t\t\n      DUP4 \t\t\t\n      PUSH FFFFFFFFFFFFFFFFFFFFFFFFFFFFFFFFFFFFFFFF\t\t\t\n      AND \t\t\t\n      SUB \t\t\t\n      PUSH [tag] 515\t\t\t\n      JUMPI \t\t\t\n      PUSH 0\t\t\t\n      PUSH 40\t\t\t\n      MLOAD \t\t\t\n      PUSH 94280D6200000000000000000000000000000000000000000000000000000000\t\t\t\n      DUP2 \t\t\t\n      MSTORE \t\t\t\n      PUSH 4\t\t\t\n      ADD \t\t\t\n      PUSH [tag] 516\t\t\t\n      SWAP2 \t\t\t\n      SWAP1 \t\t\t\n      PUSH [tag] 178\t\t\t\n      JUMP \t\t\t\n    tag 516\t\t\t\n      JUMPDEST \t\t\t\n      PUSH 40\t\t\t\n      MLOAD \t\t\t\n      DUP1 \t\t\t\n      SWAP2 \t\t\t\n      SUB \t\t\t\n      SWAP1 \t\t\t\n      REVERT \t\t\t\n    tag 515\t\t\t\n      JUMPDEST \t\t\t\n      DUP2 \t\t\t\n      PUSH 1\t\t\t\n      PUSH 0\t\t\t\n      DUP7 \t\t\t\n      PUSH FFFFFFFFFFFFFFFFFFFFFFFFFFFFFFFFFFFFFFFF\t\t\t\n      AND \t\t\t\n      PUSH FFFFFFFFFFFFFFFFFFFFFFFFFFFFFFFFFFFFFFFF\t\t\t\n      AND \t\t\t\n      DUP2 \t\t\t\n      MSTORE \t\t\t\n      PUSH 20\t\t\t\n      ADD \t\t\t\n      SWAP1 \t\t\t\n      DUP2 \t\t\t\n      MSTORE \t\t\t\n      PUSH 20\t\t\t\n      ADD \t\t\t\n      PUSH 0\t\t\t\n      KECCAK256 \t\t\t\n      PUSH 0\t\t\t\n      DUP6 \t\t\t\n      PUSH FFFFFFFFFFFFFFFFFFFFFFFFFFFFFFFFFFFFFFFF\t\t\t\n      AND \t\t\t\n      PUSH FFFFFFFFFFFFFFFFFFFFFFFFFFFFFFFFFFFFFFFF\t\t\t\n      AND \t\t\t\n      DUP2 \t\t\t\n      MSTORE \t\t\t\n      PUSH 20\t\t\t\n      ADD \t\t\t\n      SWAP1 \t\t\t\n      DUP2 \t\t\t\n      MSTORE \t\t\t\n      PUSH 20\t\t\t\n      ADD \t\t\t\n      PUSH 0\t\t\t\n      KECCAK256 \t\t\t\n      DUP2 \t\t\t\n      SWAP1 \t\t\t\n      SSTORE \t\t\t\n      POP \t\t\t\n      DUP1 \t\t\t\n      ISZERO \t\t\t\n      PUSH [tag] 517\t\t\t\n      JUMPI \t\t\t\n      DUP3 \t\t\t\n      PUSH FFFFFFFFFFFFFFFFFFFFFFFFFFFFFFFFFFFFFFFF\t\t\t\n      AND \t\t\t\n      DUP5 \t\t\t\n      PUSH FFFFFFFFFFFFFFFFFFFFFFFFFFFFFFFFFFFFFFFF\t\t\t\n      AND \t\t\t\n      PUSH 8C5BE1E5EBEC7D5BD14F71427D1E84F3DD0314C0F7B2291E5B200AC8C7C3B925\t\t\t\n      DUP5 \t\t\t\n      PUSH 40\t\t\t\n      MLOAD \t\t\t\n      PUSH [tag] 518\t\t\t\n      SWAP2 \t\t\t\n      SWAP1 \t\t\t\n      PUSH [tag] 82\t\t\t\n      JUMP \t\t\t\n    tag 518\t\t\t\n      JUMPDEST \t\t\t\n      PUSH 40\t\t\t\n      MLOAD \t\t\t\n      DUP1 \t\t\t\n      SWAP2 \t\t\t\n      SUB \t\t\t\n      SWAP1 \t\t\t\n      LOG3 \t\t\t\n    tag 517\t\t\t\n      JUMPDEST \t\t\t\n      POP \t\t\t\n      POP \t\t\t\n      POP \t\t\t\n      POP \t\t\t\n      JUMP \t\t\t\n    tag 483\t\t\tnction _update(address from, a...\n      JUMPDEST \t\t\tnction _update(address from, a...\n      PUSH 9\t\t\tergencyStopped, \n      PUSH 0\t\t\tergencyStopped, \n      SWAP1 \t\t\tergencyStopped, \n      SLOAD \t\t\tergencyStopped, \n      SWAP1 \t\t\tergencyStopped, \n      PUSH 100\t\t\tergencyStopped, \n      EXP \t\t\tergencyStopped, \n      SWAP1 \t\t\tergencyStopped, \n      DIV \t\t\tergencyStopped, \n      PUSH FF\t\t\tergencyStopped, \n      AND \t\t\tergencyStopped, \n      ISZERO \t\t\tmergencyStopped, \n      PUSH [tag] 520\t\t\tquire(!emergencyStopped, \"TIGG...\n      JUMPI \t\t\tquire(!emergencyStopped, \"TIGG...\n      PUSH 40\t\t\tquire(!emergencyStopped, \"TIGG...\n      MLOAD \t\t\tquire(!emergencyStopped, \"TIGG...\n      PUSH 8C379A000000000000000000000000000000000000000000000000000000000\t\t\tquire(!emergencyStopped, \"TIGG...\n      DUP2 \t\t\tquire(!emergencyStopped, \"TIGG...\n      MSTORE \t\t\tquire(!emergencyStopped, \"TIGG...\n      PUSH 4\t\t\tquire(!emergencyStopped, \"TIGG...\n      ADD \t\t\tquire(!emergencyStopped, \"TIGG...\n      PUSH [tag] 521\t\t\tquire(!emergencyStopped, \"TIGG...\n      SWAP1 \t\t\tquire(!emergencyStopped, \"TIGG...\n      PUSH [tag] 305\t\t\tquire(!emergencyStopped, \"TIGG...\n      JUMP \t\t\tquire(!emergencyStopped, \"TIGG...\n    tag 521\t\t\tquire(!emergencyStopped, \"TIGG...\n      JUMPDEST \t\t\tquire(!emergencyStopped, \"TIGG...\n      PUSH 40\t\t\tquire(!emergencyStopped, \"TIGG...\n      MLOAD \t\t\tquire(!emergencyStopped, \"TIGG...\n      DUP1 \t\t\tquire(!emergencyStopped, \"TIGG...\n      SWAP2 \t\t\tquire(!emergencyStopped, \"TIGG...\n      SUB \t\t\tquire(!emergencyStopped, \"TIGG...\n      SWAP1 \t\t\tquire(!emergencyStopped, \"TIGG...\n      REVERT \t\t\tquire(!emergencyStopped, \"TIGG...\n    tag 520\t\t\tquire(!emergencyStopped, \"TIGG...\n      JUMPDEST \t\t\tquire(!emergencyStopped, \"TIGG...\n      PUSH [tag] 522\t\t\tper._update(from, to, amount);...\n      DUP4 \t\t\tom, \n      DUP4 \t\t\t, \n      DUP4 \t\t\tount);\n      PUSH [tag] 523\t\t\tper._update(f\n      JUMP \t\t\tper._update(from, to, amount);...\n    tag 522\t\t\tper._update(from, to, amount);...\n      JUMPDEST \t\t\tper._update(from, to, amount);...\n      POP \t\t\tnction _update(address from, a...\n      POP \t\t\tnction _update(address from, a...\n      POP \t\t\tnction _update(address from, a...\n      JUMP \t\t\tnction _update(address from, a...\n    tag 487\t\t\t0);\\r\\n        // 2055-09-30\\r...\n      JUMPDEST \t\t\t0);\\r\\n        // 2055-09-30\\r...\n      PUSH [tag] 525\t\t\t-30\\r\\n        scheduled\n      DUP3 \t\t\t    \n      DUP3 \t\t\tchedule\n      PUSH [tag] 182\t\t\t-30\\r\\n  \n      JUMP \t\t\t-30\\r\\n        scheduled\n    tag 525\t\t\t-30\\r\\n        scheduled\n      JUMPDEST \t\t\t-30\\r\\n        scheduled\n      PUSH [tag] 526\t\t\t60-09-30\\r\\n        scheduledM...\n      JUMPI \t\t\t60-09-30\\r\\n        scheduledM...\n      DUP1 \t\t\tschedul\n      DUP3 \t\t\tMint\n      PUSH 40\t\t\t\\r\\n        // 2065-09-30\\r\\n ...\n      MLOAD \t\t\t\\r\\n        // 2065-09-30\\r\\n ...\n      PUSH E2517D3F00000000000000000000000000000000000000000000000000000000\t\t\t\\r\\n        // 2065-09-30\\r\\n ...\n      DUP2 \t\t\t\\r\\n        // 2065-09-30\\r\\n ...\n      MSTORE \t\t\t\\r\\n        // 2065-09-30\\r\\n ...\n      PUSH 4\t\t\t\\r\\n        // 2065-09-30\\r\\n ...\n      ADD \t\t\t\\r\\n        // 2065-09-30\\r\\n ...\n      PUSH [tag] 527\t\t\t\\r\\n        // 2065-09-30\\r\\n ...\n      SWAP3 \t\t\t\\r\\n        // 2065-09-30\\r\\n ...\n      SWAP2 \t\t\t\\r\\n        // 2065-09-30\\r\\n ...\n      SWAP1 \t\t\t\\r\\n        // 2065-09-30\\r\\n ...\n      PUSH [tag] 528\t\t\t\\r\\n        // 2065-09-30\\r\\n ...\n      JUMP \t\t\t\\r\\n        // 2065-09-30\\r\\n ...\n    tag 527\t\t\t\\r\\n        // 2065-09-30\\r\\n ...\n      JUMPDEST \t\t\t\\r\\n        // 2065-09-30\\r\\n ...\n      PUSH 40\t\t\t\\r\\n        // 2065-09-30\\r\\n ...\n      MLOAD \t\t\t\\r\\n        // 2065-09-30\\r\\n ...\n      DUP1 \t\t\t\\r\\n        // 2065-09-30\\r\\n ...\n      SWAP2 \t\t\t\\r\\n        // 2065-09-30\\r\\n ...\n      SUB \t\t\t\\r\\n        // 2065-09-30\\r\\n ...\n      SWAP1 \t\t\t\\r\\n        // 2065-09-30\\r\\n ...\n      REVERT \t\t\t\\r\\n        // 2065-09-30\\r\\n ...\n    tag 526\t\t\t60-09-30\\r\\n        scheduledM...\n      JUMPDEST \t\t\t60-09-30\\r\\n        scheduledM...\n      POP \t\t\t0);\\r\\n        // 2055-09-30\\r...\n      POP \t\t\t0);\\r\\n        // 2055-09-30\\r...\n      JUMP \t\t\t0);\\r\\n        // 2055-09-30\\r...\n    tag 511\t\t\t_ROLE, account); }\\r\\n    func...\n      JUMPDEST \t\t\t_ROLE, account); }\\r\\n    func...\n      PUSH 0\t\t\tyOwner { revokeRol\n      DUP1 \t\t\tOLE, account); }\\r\\n \n      PUSH 20\t\t\tnerR\n      PUSH 0\t\t\t \n      DUP5 \t\t\tunct\n      MLOAD \t\t\t\\n    functi\n      PUSH 20\t\t\tnt);\n      DUP7 \t\t\t acc\n      ADD \t\t\tOLE, account); \n      PUSH 0\t\t\tE\n      DUP9 \t\t\te(BRI\n      GAS \t\t\trantR\n      CALL \t\t\t { _grantRole(BRIDGE_ROLE, acc...\n      DUP1 \t\t\tokeRole\n      PUSH [tag] 530\t\t\twner { revokeRole(BRIDGE_ROLE,...\n      JUMPI \t\t\twner { revokeRole(BRIDGE_ROLE,...\n      PUSH 40\t\t\t\n      MLOAD \t\t\t\n      RETURNDATASIZE \t\t\t\n      PUSH 0\t\t\t\n      DUP3 \t\t\t\n      RETURNDATACOPY \t\t\t\n      RETURNDATASIZE \t\t\t\n      DUP2 \t\t\t\n      REVERT \t\t\t\n    tag 530\t\t\twner { revokeRole(BRIDGE_ROLE,...\n      JUMPDEST \t\t\twner { revokeRole(BRIDGE_ROLE,...\n      RETURNDATASIZE \t\t\t\n      SWAP3 \t\t\t\n      POP \t\t\t\n      PUSH 0\t\t\t\n      MLOAD \t\t\t\n      SWAP2 \t\t\t\n      POP \t\t\t\n      POP \t\t\ts account) external onlyOwner ...\n      PUSH 0\t\t\t\n      DUP3 \t\t\t\n      EQ \t\t\t\n      PUSH [tag] 531\t\t\t\n      JUMPI \t\t\t\n      PUSH 1\t\t\t\n      DUP2 \t\t\t\n      EQ \t\t\t\n      ISZERO \t\t\t\n      PUSH [tag] 532\t\t\t\n      JUMP \t\t\t\n    tag 531\t\t\t\n      JUMPDEST \t\t\t\n      PUSH 0\t\t\t\n      DUP5 \t\t\t\n      PUSH FFFFFFFFFFFFFFFFFFFFFFFFFFFFFFFFFFFFFFFF\t\t\t\n      AND \t\t\t\n      EXTCODESIZE \t\t\t\n      EQ \t\t\t\n    tag 532\t\t\t\n      JUMPDEST \t\t\t\n      ISZERO \t\t\t\n      PUSH [tag] 533\t\t\t\n      JUMPI \t\t\t\n      DUP4 \t\t\t\n      PUSH 40\t\t\t\n      MLOAD \t\t\t\n      PUSH 5274AFE700000000000000000000000000000000000000000000000000000000\t\t\t\n      DUP2 \t\t\t\n      MSTORE \t\t\t\n      PUSH 4\t\t\t\n      ADD \t\t\t\n      PUSH [tag] 534\t\t\t\n      SWAP2 \t\t\t\n      SWAP1 \t\t\t\n      PUSH [tag] 178\t\t\t\n      JUMP \t\t\t\n    tag 534\t\t\t\n      JUMPDEST \t\t\t\n      PUSH 40\t\t\t\n      MLOAD \t\t\t\n      DUP1 \t\t\t\n      SWAP2 \t\t\t\n      SUB \t\t\t\n      SWAP1 \t\t\t\n      REVERT \t\t\t\n    tag 533\t\t\t\n      JUMPDEST \t\t\t\n      POP \t\t\tternal onlyOwner { revokeRole(...\n      POP \t\t\tternal onlyOwner { revokeRole(...\n      POP \t\t\t_ROLE, account); }\\r\\n    func...\n      POP \t\t\t_ROLE, account); }\\r\\n    func...\n      JUMP \t\t\t_ROLE, account); }\\r\\n    func...\n    tag 523\t\t\talSupply() + amount <= MAX_SUP...\n      JUMPDEST \t\t\talSupply() + amount <= MAX_SUP...\n      PUSH 0\t\t\tm\n      PUSH FFFFFFFFFFFFFFFFFFFFFFFFFFFFFFFFFFFFFFFF\t\t\tunt);\\r\\n        emi\n      AND \t\t\tunt);\\r\\n        emi\n      DUP4 \t\t\tunt)\n      PUSH FFFFFFFFFFFFFFFFFFFFFFFFFFFFFFFFFFFFFFFF\t\t\tunt);\\r\\n        emi\n      AND \t\t\tunt);\\r\\n        emi\n      SUB \t\t\tunt);\\r\\n        emi\n      PUSH [tag] 536\t\t\t amount);\\r\\n        emit Brid...\n      JUMPI \t\t\t amount);\\r\\n        emit Brid...\n      DUP1 \t\t\t {\\r\\n \n      PUSH 2\t\t\tole(BRIDGE_R\n      PUSH 0\t\t\tole(BRIDGE_R\n      DUP3 \t\t\tole(BRIDGE_ROLE) {\\r\\n \n      DUP3 \t\t\tole(BRIDGE_ROLE) {\\r\\n \n      SLOAD \t\t\tole(BRIDGE_ROLE) {\\r\\n \n      PUSH [tag] 537\t\t\tole(BRIDGE_ROLE) {\\r\\n \n      SWAP2 \t\t\tole(BRIDGE_ROLE) {\\r\\n \n      SWAP1 \t\t\tole(BRIDGE_ROLE) {\\r\\n \n      PUSH [tag] 322\t\t\tole(BRIDGE_ROLE) {\\r\\n \n      JUMP \t\t\tole(BRIDGE_ROLE) {\\r\\n \n    tag 537\t\t\tole(BRIDGE_ROLE) {\\r\\n \n      JUMPDEST \t\t\tole(BRIDGE_ROLE) {\\r\\n \n      SWAP3 \t\t\tole(BRIDGE_ROLE) {\\r\\n \n      POP \t\t\tole(BRIDGE_ROLE) {\\r\\n \n      POP \t\t\tole(BRIDGE_ROLE) {\\r\\n \n      DUP2 \t\t\tole(BRIDGE_ROLE) {\\r\\n \n      SWAP1 \t\t\tole(BRIDGE_ROLE) {\\r\\n \n      SSTORE \t\t\tole(BRIDGE_ROLE) {\\r\\n \n      POP \t\t\tole(BRIDGE_ROLE) {\\r\\n \n      PUSH [tag] 538\t\t\t amount);\\r\\n        emit Brid...\n      JUMP \t\t\t amount);\\r\\n        emit Brid...\n    tag 536\t\t\t amount);\\r\\n        emit Brid...\n      JUMPDEST \t\t\t amount);\\r\\n        emit Brid...\n      PUSH 0\t\t\td, \"TIGG: emergency\n      DUP1 \t\t\topped\");\\r\n      PUSH 0\t\t\topped\");\\r\\n     \n      DUP6 \t\t\t    \n      PUSH FFFFFFFFFFFFFFFFFFFFFFFFFFFFFFFFFFFFFFFF\t\t\topped\");\\r\\n     \n      AND \t\t\topped\");\\r\\n     \n      PUSH FFFFFFFFFFFFFFFFFFFFFFFFFFFFFFFFFFFFFFFF\t\t\topped\");\\r\\n     \n      AND \t\t\topped\");\\r\\n     \n      DUP2 \t\t\topped\");\\r\\n     \n      MSTORE \t\t\topped\");\\r\\n     \n      PUSH 20\t\t\topped\");\\r\\n     \n      ADD \t\t\topped\");\\r\\n     \n      SWAP1 \t\t\topped\");\\r\\n     \n      DUP2 \t\t\topped\");\\r\\n     \n      MSTORE \t\t\topped\");\\r\\n     \n      PUSH 20\t\t\topped\");\\r\\n     \n      ADD \t\t\topped\");\\r\\n     \n      PUSH 0\t\t\topped\");\\r\\n     \n      KECCAK256 \t\t\topped\");\\r\\n     \n      SLOAD \t\t\topped\");\\r\\n     \n      SWAP1 \t\t\td, \"TIGG: emergency stopped\");...\n      POP \t\t\td, \"TIGG: emergency stopped\");...\n      DUP2 \t\t\tTIGG:\n      DUP2 \t\t\t address(0)\n      LT \t\t\t address(0), \"TIGG:\n      ISZERO \t\t\tm != address(0), \"TIGG: burn f...\n      PUSH [tag] 539\t\t\tm != address(0), \"TIGG: burn f...\n      JUMPI \t\t\tm != address(0), \"TIGG: burn f...\n      DUP4 \t\t\t    \n      DUP2 \t\t\t  emit Brid\n      DUP4 \t\t\tBurn(\n      PUSH 40\t\t\t   _burn(from, amount);\\r\\n   ...\n      MLOAD \t\t\t   _burn(from, amount);\\r\\n   ...\n      PUSH E450D38C00000000000000000000000000000000000000000000000000000000\t\t\t   _burn(from, amount);\\r\\n   ...\n      DUP2 \t\t\t   _burn(from, amount);\\r\\n   ...\n      MSTORE \t\t\t   _burn(from, amount);\\r\\n   ...\n      PUSH 4\t\t\t   _burn(from, amount);\\r\\n   ...\n      ADD \t\t\t   _burn(from, amount);\\r\\n   ...\n      PUSH [tag] 540\t\t\t   _burn(from, amount);\\r\\n   ...\n      SWAP4 \t\t\t   _burn(from, amount);\\r\\n   ...\n      SWAP3 \t\t\t   _burn(from, amount);\\r\\n   ...\n      SWAP2 \t\t\t   _burn(from, amount);\\r\\n   ...\n      SWAP1 \t\t\t   _burn(from, amount);\\r\\n   ...\n      PUSH [tag] 475\t\t\t   _burn(from, amount);\\r\\n   ...\n      JUMP \t\t\t   _burn(from, amount);\\r\\n   ...\n    tag 540\t\t\t   _burn(from, amount);\\r\\n   ...\n      JUMPDEST \t\t\t   _burn(from, amount);\\r\\n   ...\n      PUSH 40\t\t\t   _burn(from, amount);\\r\\n   ...\n      MLOAD \t\t\t   _burn(from, amount);\\r\\n   ...\n      DUP1 \t\t\t   _burn(from, amount);\\r\\n   ...\n      SWAP2 \t\t\t   _burn(from, amount);\\r\\n   ...\n      SUB \t\t\t   _burn(from, amount);\\r\\n   ...\n      SWAP1 \t\t\t   _burn(from, amount);\\r\\n   ...\n      REVERT \t\t\t   _burn(from, amount);\\r\\n   ...\n    tag 539\t\t\tm != address(0), \"TIGG: burn f...\n      JUMPDEST \t\t\tm != address(0), \"TIGG: burn f...\n      DUP2 \t\t\ternal\n      DUP2 \t\t\t receive() \n      SUB \t\t\t receive() external\n      PUSH 0\t\t\t---------\n      DUP1 \t\t\t-------------\\r\\n\n      DUP7 \t\t\t---\\r\n      PUSH FFFFFFFFFFFFFFFFFFFFFFFFFFFFFFFFFFFFFFFF\t\t\t-------------\\r\\n\n      AND \t\t\t-------------\\r\\n\n      PUSH FFFFFFFFFFFFFFFFFFFFFFFFFFFFFFFFFFFFFFFF\t\t\t-------------\\r\\n\n      AND \t\t\t-------------\\r\\n\n      DUP2 \t\t\t-------------\\r\\n\n      MSTORE \t\t\t-------------\\r\\n\n      PUSH 20\t\t\t-------------\\r\\n\n      ADD \t\t\t-------------\\r\\n\n      SWAP1 \t\t\t-------------\\r\\n\n      DUP2 \t\t\t-------------\\r\\n\n      MSTORE \t\t\t-------------\\r\\n\n      PUSH 20\t\t\t-------------\\r\\n\n      ADD \t\t\t-------------\\r\\n\n      PUSH 0\t\t\t-------------\\r\\n\n      KECCAK256 \t\t\t-------------\\r\\n\n      DUP2 \t\t\t-------------\\r\\n    receive()...\n      SWAP1 \t\t\t-------------\\r\\n    receive()...\n      SSTORE \t\t\t-------------\\r\\n    receive()...\n      POP \t\t\t-------------\\r\\n    receive()...\n      POP \t\t\tmergencyStopped, \"TIGG: emerge...\n    tag 538\t\t\t amount);\\r\\n        emit Brid...\n      JUMPDEST \t\t\t amount);\\r\\n        emit Brid...\n      PUSH 0\t\t\t \n      PUSH FFFFFFFFFFFFFFFFFFFFFFFFFFFFFFFFFFFFFFFF\t\t\tyable {}\\r\\n\\r\\n    \n      AND \t\t\tyable {}\\r\\n\\r\\n    \n      DUP3 \t\t\tya\n      PUSH FFFFFFFFFFFFFFFFFFFFFFFFFFFFFFFFFFFFFFFF\t\t\tyable {}\\r\\n\\r\\n    \n      AND \t\t\tyable {}\\r\\n\\r\\n    \n      SUB \t\t\tyable {}\\r\\n\\r\\n    \n      PUSH [tag] 541\t\t\tl payable {}\\r\\n\\r\\n    // ---...\n      JUMPI \t\t\tl payable {}\\r\\n\\r\\n    // ---...\n      DUP1 \t\t\t amou\n      PUSH 2\t\t\tress to, uin\n      PUSH 0\t\t\tress to, uin\n      DUP3 \t\t\tress to, uint256 amou\n      DUP3 \t\t\tress to, uint256 amou\n      SLOAD \t\t\tress to, uint256 amou\n      SUB \t\t\tress to, uint256 amou\n      SWAP3 \t\t\tress to, uint256 amou\n      POP \t\t\tress to, uint256 amou\n      POP \t\t\tress to, uint256 amou\n      DUP2 \t\t\tress to, uint256 amou\n      SWAP1 \t\t\tress to, uint256 amou\n      SSTORE \t\t\tress to, uint256 amou\n      POP \t\t\tress to, uint256 amou\n      PUSH [tag] 542\t\t\tl payable {}\\r\\n\\r\\n    // ---...\n      JUMP \t\t\tl payable {}\\r\\n\\r\\n    // ---...\n    tag 541\t\t\tl payable {}\\r\\n\\r\\n    // ---...\n      JUMPDEST \t\t\tl payable {}\\r\\n\\r\\n    // ---...\n      DUP1 \t\t\tRC20(\n      PUSH 0\t\t\tnction re\n      DUP1 \t\t\tnction rescue\n      DUP5 \t\t\tcu\n      PUSH FFFFFFFFFFFFFFFFFFFFFFFFFFFFFFFFFFFFFFFF\t\t\tnction rescue\n      AND \t\t\tnction rescue\n      PUSH FFFFFFFFFFFFFFFFFFFFFFFFFFFFFFFFFFFFFFFF\t\t\tnction rescue\n      AND \t\t\tnction rescue\n      DUP2 \t\t\tnction rescue\n      MSTORE \t\t\tnction rescue\n      PUSH 20\t\t\tnction rescue\n      ADD \t\t\tnction rescue\n      SWAP1 \t\t\tnction rescue\n      DUP2 \t\t\tnction rescue\n      MSTORE \t\t\tnction rescue\n      PUSH 20\t\t\tnction rescue\n      ADD \t\t\tnction rescue\n      PUSH 0\t\t\tnction rescue\n      KECCAK256 \t\t\tnction rescue\n      PUSH 0\t\t\tnction rescue\n      DUP3 \t\t\tnction rescueAllERC20(\n      DUP3 \t\t\tnction rescueAllERC20(\n      SLOAD \t\t\tnction rescueAllERC20(\n      ADD \t\t\tnction rescueAllERC20(\n      SWAP3 \t\t\tnction rescueAllERC20(\n      POP \t\t\tnction rescueAllERC20(\n      POP \t\t\tnction rescueAllERC20(\n      DUP2 \t\t\tnction rescueAllERC20(\n      SWAP1 \t\t\tnction rescueAllERC20(\n      SSTORE \t\t\tnction rescueAllERC20(\n      POP \t\t\tnction rescueAllERC20(\n    tag 542\t\t\tl payable {}\\r\\n\\r\\n    // ---...\n      JUMPDEST \t\t\tl payable {}\\r\\n\\r\\n    // ---...\n      DUP2 \t\t\t  \n      PUSH FFFFFFFFFFFFFFFFFFFFFFFFFFFFFFFFFFFFFFFF\t\t\tOwner {\\r\\n        require(\n      AND \t\t\tOwner {\\r\\n        require(\n      DUP4 \t\t\t    \n      PUSH FFFFFFFFFFFFFFFFFFFFFFFFFFFFFFFFFFFFFFFF\t\t\tOwner {\\r\\n        require(\n      AND \t\t\tOwner {\\r\\n        require(\n      PUSH DDF252AD1BE2C89B69C2B068FC378DAA952BA7F163C4A11628F55A4DF523B3EF\t\t\tOwner {\\r\\n        require(\n      DUP4 \t\t\tquire\n      PUSH 40\t\t\tOwner {\\r\\n        require(\n      MLOAD \t\t\tOwner {\\r\\n        require(\n      PUSH [tag] 543\t\t\tOwner {\\r\\n        require(\n      SWAP2 \t\t\tOwner {\\r\\n        require(\n      SWAP1 \t\t\tOwner {\\r\\n        require(\n      PUSH [tag] 82\t\t\tOwner {\\r\\n        require(\n      JUMP \t\t\tOwner {\\r\\n        require(\n    tag 543\t\t\tOwner {\\r\\n        require(\n      JUMPDEST \t\t\tOwner {\\r\\n        require(\n      PUSH 40\t\t\tOwner {\\r\\n        require(\n      MLOAD \t\t\tOwner {\\r\\n        require(\n      DUP1 \t\t\tOwner {\\r\\n        require(\n      SWAP2 \t\t\tOwner {\\r\\n        require(\n      SUB \t\t\tOwner {\\r\\n        require(\n      SWAP1 \t\t\tOwner {\\r\\n        require(\n      LOG3 \t\t\tOwner {\\r\\n        require(\n      POP \t\t\talSupply() + amount <= MAX_SUP...\n      POP \t\t\talSupply() + amount <= MAX_SUP...\n      POP \t\t\talSupply() + amount <= MAX_SUP...\n      JUMP \t\t\talSupply() + amount <= MAX_SUP...\n    tag 545\t\t\tNAL (OpenZeppelin v5.x pattern...\n      JUMPDEST \t\t\tNAL (OpenZeppelin v5.x pattern...\n      PUSH 0\t\t\t0\n      DUP1 \t\t\t0\n      REVERT \t\t\tly: 1,000,00\n    tag 547\t\t\tt 00:00:00 UTC every 5 years (...\n      JUMPDEST \t\t\tt 00:00:00 UTC every 5 years (...\n      PUSH 0\t\t\tat 2030\n      PUSH FFFFFFFF00000000000000000000000000000000000000000000000000000000\t\t\t - Emergency stop / restart (t...\n      DUP3 \t\t\tmps.\\r\n      AND \t\t\testamps.\\r\\n  - Emergency stop...\n      SWAP1 \t\t\trdcoded timestamps.\\r\\n  - Eme...\n      POP \t\t\trdcoded timestamps.\\r\\n  - Eme...\n      SWAP2 \t\t\tt 00:00:00 UTC every 5 years (...\n      SWAP1 \t\t\tt 00:00:00 UTC every 5 years (...\n      POP \t\t\tt 00:00:00 UTC every 5 years (...\n      JUMP \t\t\tt 00:00:00 UTC every 5 years (...\n    tag 548\t\t\tBridge mint/burn hooks restric...\n      JUMPDEST \t\t\tBridge mint/burn hooks restric...\n      PUSH [tag] 605\t\t\tor tokens & native curr\n      DUP2 \t\t\te cur\n      PUSH [tag] 547\t\t\tor tokens & native curr\n      JUMP \t\t\tor tokens & native curr\n    tag 605\t\t\tor tokens & native curr\n      JUMPDEST \t\t\tor tokens & native curr\n      DUP2 \t\t\ttions\n      EQ \t\t\tunctions for tokens & native c...\n      PUSH [tag] 606\t\t\t- Rescue functions for tokens ...\n      JUMPI \t\t\t- Rescue functions for tokens ...\n      PUSH 0\t\t\ty\n      DUP1 \t\t\to\n      REVERT \t\t\t(owner-only)\n    tag 606\t\t\t- Rescue functions for tokens ...\n      JUMPDEST \t\t\t- Rescue functions for tokens ...\n      POP \t\t\tBridge mint/burn hooks restric...\n      JUMP \t\t\tBridge mint/burn hooks restric...\n    tag 549\t\t\telin v5: uses _grantRole, Owna...\n      JUMPDEST \t\t\telin v5: uses _grantRole, Owna...\n      PUSH 0\t\t\t, and\n      DUP2 \t\t\tnzeppe\n      CALLDATALOAD \t\t\t\\nimport \"@openzeppel\n      SWAP1 \t\t\tok\\r\\n*/\\r\\n\\r\\nimport \"@openz...\n      POP \t\t\tok\\r\\n*/\\r\\n\\r\\nimport \"@openz...\n      PUSH [tag] 608\t\t\tcts/token/ERC20/ERC20.sol\";\\r\\...\n      DUP2 \t\t\t;\\r\\nim\n      PUSH [tag] 548\t\t\tcts/token/ERC20/ERC20.sol\";\\r\\...\n      JUMP \t\t\tcts/token/ERC20/ERC20.sol\";\\r\\...\n    tag 608\t\t\tcts/token/ERC20/ERC20.sol\";\\r\\...\n      JUMPDEST \t\t\tcts/token/ERC20/ERC20.sol\";\\r\\...\n      SWAP3 \t\t\telin v5: uses _grantRole, Owna...\n      SWAP2 \t\t\telin v5: uses _grantRole, Owna...\n      POP \t\t\telin v5: uses _grantRole, Owna...\n      POP \t\t\telin v5: uses _grantRole, Owna...\n      JUMP \t\t\telin v5: uses _grantRole, Owna...\n    tag 58\t\t\tppelin/contracts/token/ERC20/I...\n      JUMPDEST \t\t\tppelin/contracts/token/ERC20/I...\n      PUSH 0\t\t\tppelin\n      PUSH 20\t\t\t;\\r\n      DUP3 \t\t\tfeERC20.s\n      DUP5 \t\t\t/utils/\n      SUB \t\t\tRC20/utils/SafeERC20.so\n      SLT \t\t\ten/ERC20/utils/SafeERC20.sol\";...\n      ISZERO \t\t\ttoken/ERC20/utils/SafeERC20.so...\n      PUSH [tag] 610\t\t\ttoken/ERC20/utils/SafeERC20.so...\n      JUMPI \t\t\ttoken/ERC20/utils/SafeERC20.so...\n      PUSH [tag] 611\t\t\tort \"@openzeppelin/contracts/a...\n      PUSH [tag] 545\t\t\tort \"@openzeppelin/contracts/a...\n      JUMP \t\t\tort \"@openzeppelin/contracts/a...\n    tag 611\t\t\tort \"@openzeppelin/contracts/a...\n      JUMPDEST \t\t\tort \"@openzeppelin/contracts/a...\n    tag 610\t\t\ttoken/ERC20/utils/SafeERC20.so...\n      JUMPDEST \t\t\ttoken/ERC20/utils/SafeERC20.so...\n      PUSH 0\t\t\tt\n      PUSH [tag] 612\t\t\tssControl, Ownable {\\r\\n    us...\n      DUP5 \t\t\tr IERC2\n      DUP3 \t\t\teERC20\n      DUP6 \t\t\t  using S\n      ADD \t\t\t\\r\\n    using SafeERC20 \n      PUSH [tag] 549\t\t\tssControl, Ownable {\\r\\n    us...\n      JUMP \t\t\tssControl, Ownable {\\r\\n    us...\n    tag 612\t\t\tssControl, Ownable {\\r\\n    us...\n      JUMPDEST \t\t\tssControl, Ownable {\\r\\n    us...\n      SWAP2 \t\t\tRC20, AccessControl, Ownable {...\n      POP \t\t\tRC20, AccessControl, Ownable {...\n      POP \t\t\tcess/Ownable.sol\";\\r\\n\\r\\ncont...\n      SWAP3 \t\t\tppelin/contracts/token/ERC20/I...\n      SWAP2 \t\t\tppelin/contracts/token/ERC20/I...\n      POP \t\t\tppelin/contracts/token/ERC20/I...\n      POP \t\t\tppelin/contracts/token/ERC20/I...\n      JUMP \t\t\tppelin/contracts/token/ERC20/I...\n    tag 550\t\t\t constant MINTER_ROLE = keccak...\n      JUMPDEST \t\t\t constant MINTER_ROLE = keccak...\n      PUSH 0\t\t\t\"MINTER\n      DUP2 \t\t\tt BRI\n      ISZERO \t\t\tconstant BRID\n      ISZERO \t\t\tpublic constant BRIDG\n      SWAP1 \t\t\t   bytes32 public constant BRI...\n      POP \t\t\t   bytes32 public constant BRI...\n      SWAP2 \t\t\t constant MINTER_ROLE = keccak...\n      SWAP1 \t\t\t constant MINTER_ROLE = keccak...\n      POP \t\t\t constant MINTER_ROLE = keccak...\n      JUMP \t\t\t constant MINTER_ROLE = keccak...\n    tag 551\t\t\tcak256(\"BRIDGE_ROLE\");\\r\\n\\r\\n...\n      JUMPDEST \t\t\tcak256(\"BRIDGE_ROLE\");\\r\\n\\r\\n...\n      PUSH [tag] 615\t\t\t56 public constant IN\n      DUP2 \t\t\tant I\n      PUSH [tag] 550\t\t\t56 public constant IN\n      JUMP \t\t\t56 public constant IN\n    tag 615\t\t\t56 public constant IN\n      JUMPDEST \t\t\t56 public constant IN\n      DUP3 \t\t\tuin\n      MSTORE \t\t\t\\n\\r\\n    uint256 public const...\n      POP \t\t\tcak256(\"BRIDGE_ROLE\");\\r\\n\\r\\n...\n      POP \t\t\tcak256(\"BRIDGE_ROLE\");\\r\\n\\r\\n...\n      JUMP \t\t\tcak256(\"BRIDGE_ROLE\");\\r\\n\\r\\n...\n    tag 61\t\t\t= 1_000_000_000 * (10 ** uint2...\n      JUMPDEST \t\t\t= 1_000_000_000 * (10 ** uint2...\n      PUSH 0\t\t\tE_AM\n      PUSH 20\t\t\t25\n      DUP3 \t\t\t(10 ** ui\n      ADD \t\t\t0 * (10 ** uint256\n      SWAP1 \t\t\t0_000_000 * (10 ** uint256\n      POP \t\t\t0_000_000 * (10 ** uint256\n      PUSH [tag] 617\t\t\t)); // 1B each tranche\\r\\n    ...\n      PUSH 0\t\t\t \n      DUP4 \t\t\t MAX_SUPP\n      ADD \t\t\ttant MAX_SUPPLY =\n      DUP5 \t\t\tblic c\n      PUSH [tag] 551\t\t\t)); // 1B each tranche\\r\\n    ...\n      JUMP \t\t\t)); // 1B each tranche\\r\\n    ...\n    tag 617\t\t\t)); // 1B each tranche\\r\\n    ...\n      JUMPDEST \t\t\t)); // 1B each tranche\\r\\n    ...\n      SWAP3 \t\t\t= 1_000_000_000 * (10 ** uint2...\n      SWAP2 \t\t\t= 1_000_000_000 * (10 ** uint2...\n      POP \t\t\t= 1_000_000_000 * (10 ** uint2...\n      POP \t\t\t= 1_000_000_000 * (10 ** uint2...\n      JUMP \t\t\t= 1_000_000_000 * (10 ** uint2...\n    tag 552\t\t\t0 * (10 ** uint256(_DECIMALS))...\n      JUMPDEST \t\t\t0 * (10 ** uint256(_DECIMALS))...\n      PUSH 0\t\t\tdcoded\n      DUP2 \t\t\t30 Se\n      MLOAD \t\t\tamps (30 Sep\n      SWAP1 \t\t\tint timestamps (30 Sep\n      POP \t\t\tint timestamps (30 Sep\n      SWAP2 \t\t\t0 * (10 ** uint256(_DECIMALS))...\n      SWAP1 \t\t\t0 * (10 ** uint256(_DECIMALS))...\n      POP \t\t\t0 * (10 ** uint256(_DECIMALS))...\n      JUMP \t\t\t0 * (10 ** uint256(_DECIMALS))...\n    tag 553\t\t\t every 5 years starting 2030)\\...\n      JUMPDEST \t\t\t every 5 years starting 2030)\\...\n      PUSH 0\t\t\t01-01 UTC)\\r\n      DUP3 \t\t\tchedul\n      DUP3 \t\t\tlic\n      MSTORE \t\t\t6[] public schedule\n      PUSH 20\t\t\tintI\n      DUP3 \t\t\tnex\n      ADD \t\t\tlic nextMintIn\n      SWAP1 \t\t\t    uint256 public nextMintIn\n      POP \t\t\t    uint256 public nextMintIn\n      SWAP3 \t\t\t every 5 years starting 2030)\\...\n      SWAP2 \t\t\t every 5 years starting 2030)\\...\n      POP \t\t\t every 5 years starting 2030)\\...\n      POP \t\t\t every 5 years starting 2030)\\...\n      JUMP \t\t\t every 5 years starting 2030)\\...\n    tag 554\t\t\tindex for next scheduled mint\\...\n      JUMPDEST \t\t\tindex for next scheduled mint\\...\n      PUSH 0\t\t\tc\n    tag 621\t\t\tyStopped = false;\\r\\n\\r\\n    /...\n      JUMPDEST \t\t\tyStopped = false;\\r\\n\\r\\n    /...\n      DUP4 \t\t\tse;\\r\\n\\r\n      DUP2 \t\t\tf\n      LT \t\t\t = false;\\r\\n\\r\\n\n      ISZERO \t\t\tyStopped = false;\\r\\n\\r\\n    /...\n      PUSH [tag] 623\t\t\tyStopped = false;\\r\\n\\r\\n    /...\n      JUMPI \t\t\tyStopped = false;\\r\\n\\r\\n    /...\n      DUP1 \t\t\t \n      DUP3 \t\t\tdex\n      ADD \t\t\t6 indexed u\n      MLOAD \t\t\tuint256 indexed un\n      DUP2 \t\t\tn\n      DUP5 \t\t\t am\n      ADD \t\t\texed amount\n      MSTORE \t\t\t256 indexed amount, uint256 in...\n      PUSH 20\t\t\t  \n      DUP2 \t\t\ts\n      ADD \t\t\tvents\\r\\n   \n      SWAP1 \t\t\t // Events\\r\\n   \n      POP \t\t\t // Events\\r\\n   \n      PUSH [tag] 621\t\t\tyStopped = false;\\r\\n\\r\\n    /...\n      JUMP \t\t\tyStopped = false;\\r\\n\\r\\n    /...\n    tag 623\t\t\tyStopped = false;\\r\\n\\r\\n    /...\n      JUMPDEST \t\t\tyStopped = false;\\r\\n\\r\\n    /...\n      PUSH 0\t\t\td\n      DUP5 \t\t\tddress\n      DUP5 \t\t\tted\n      ADD \t\t\txecuted(address \n      MSTORE \t\t\tt MintExecuted(address inde\n      POP \t\t\tker\\r\\n    bool public emergen...\n      POP \t\t\tindex for next scheduled mint\\...\n      POP \t\t\tindex for next scheduled mint\\...\n      POP \t\t\tindex for next scheduled mint\\...\n      JUMP \t\t\tindex for next scheduled mint\\...\n    tag 555\t\t\t256 amount, uint256 timestamp,...\n      JUMPDEST \t\t\t256 amount, uint256 timestamp,...\n      PUSH 0\t\t\twTotal\n      PUSH 1F\t\t\td \n      NOT \t\t\tdexed t\n      PUSH 1F\t\t\tss\n      DUP4 \t\t\tt(add\n      ADD \t\t\teMint(address \n      AND \t\t\tridgeMint(address indexed to\n      SWAP1 \t\t\t   event BridgeMint(address in...\n      POP \t\t\t   event BridgeMint(address in...\n      SWAP2 \t\t\t256 amount, uint256 timestamp,...\n      SWAP1 \t\t\t256 amount, uint256 timestamp,...\n      POP \t\t\t256 amount, uint256 timestamp,...\n      JUMP \t\t\t256 amount, uint256 timestamp,...\n    tag 556\t\t\tount, address indexed bridge);...\n      JUMPDEST \t\t\tount, address indexed bridge);...\n      PUSH 0\t\t\tt, \n      PUSH [tag] 626\t\t\t\\n    event TokenRescued(addre...\n      DUP3 \t\t\tndexe\n      PUSH [tag] 552\t\t\t\\n    event TokenRescued(addre...\n      JUMP \t\t\t\\n    event TokenRescued(addre...\n    tag 626\t\t\t\\n    event TokenRescued(addre...\n      JUMPDEST \t\t\t\\n    event TokenRescued(addre...\n      PUSH [tag] 627\t\t\tindexed to, uint256 amount);\\r...\n      DUP2 \t\t\tdexed \n      DUP6 \t\t\tss \n      PUSH [tag] 553\t\t\tindexed to, uint256 amount);\\r...\n      JUMP \t\t\tindexed to, uint256 amount);\\r...\n    tag 627\t\t\tindexed to, uint256 amount);\\r...\n      JUMPDEST \t\t\tindexed to, uint256 amount);\\r...\n      SWAP4 \t\t\tddress indexed to, uint256 amo...\n      POP \t\t\tddress indexed to, uint256 amo...\n      PUSH [tag] 628\t\t\t6 amount);\\r\\n    event Emerge...\n      DUP2 \t\t\t uint2\n      DUP6 \t\t\td b\n      PUSH 20\t\t\t ind\n      DUP7 \t\t\taddre\n      ADD \t\t\tped(address inde\n      PUSH [tag] 554\t\t\t6 amount);\\r\\n    event Emerge...\n      JUMP \t\t\t6 amount);\\r\\n    event Emerge...\n    tag 628\t\t\t6 amount);\\r\\n    event Emerge...\n      JUMPDEST \t\t\t6 amount);\\r\\n    event Emerge...\n      PUSH [tag] 629\t\t\tEmergencyLifted(address index\n      DUP2 \t\t\ts inde\n      PUSH [tag] 555\t\t\tEmergencyLifted(address index\n      JUMP \t\t\tEmergencyLifted(address index\n    tag 629\t\t\tEmergencyLifted(address index\n      JUMPDEST \t\t\tEmergencyLifted(address index\n      DUP5 \t\t\tven\n      ADD \t\t\t   event EmergencyLifted(addre...\n      SWAP2 \t\t\tmp);\\r\\n    event EmergencyLif...\n      POP \t\t\tmp);\\r\\n    event EmergencyLif...\n      POP \t\t\tddress indexed bridge);\\r\\n   ...\n      SWAP3 \t\t\tount, address indexed bridge);...\n      SWAP2 \t\t\tount, address indexed bridge);...\n      POP \t\t\tount, address indexed bridge);...\n      POP \t\t\tount, address indexed bridge);...\n      JUMP \t\t\tount, address indexed bridge);...\n    tag 66\t\t\t6 timestamp);\\r\\n\\r\\n    const...\n      JUMPDEST \t\t\t6 timestamp);\\r\\n\\r\\n    const...\n      PUSH 0\t\t\tloye\n      PUSH 20\t\t\t _\n      DUP3 \t\t\te)\\r\\n     \n      ADD \t\t\tstyle)\\r\\n        _g\n      SWAP1 \t\t\telin v5 style)\\r\\n        _g\n      POP \t\t\telin v5 style)\\r\\n        _g\n      DUP2 \t\t\t       _g\n      DUP2 \t\t\t));\\r\n      SUB \t\t\tder());\\r\\n        _gr\n      PUSH 0\t\t\tg\n      DUP4 \t\t\tN_ROLE, _\n      ADD \t\t\tADMIN_ROLE, _msgS\n      MSTORE \t\t\tEFAULT_ADMIN_ROLE, _msgSender(...\n      PUSH [tag] 631\t\t\tE, _msgSender());\\r\\n        _...\n      DUP2 \t\t\t    \n      DUP5 \t\t\t;\\r\\n\\r\\n \n      PUSH [tag] 556\t\t\tE, _msgSender());\\r\\n        _...\n      JUMP \t\t\tE, _msgSender());\\r\\n        _...\n    tag 631\t\t\tE, _msgSender());\\r\\n        _...\n      JUMPDEST \t\t\tE, _msgSender());\\r\\n        _...\n      SWAP1 \t\t\tNTER_ROLE, _msgSender());\\r\\n ...\n      POP \t\t\tNTER_ROLE, _msgSender());\\r\\n ...\n      SWAP3 \t\t\t6 timestamp);\\r\\n\\r\\n    const...\n      SWAP2 \t\t\t6 timestamp);\\r\\n\\r\\n    const...\n      POP \t\t\t6 timestamp);\\r\\n\\r\\n    const...\n      POP \t\t\t6 timestamp);\\r\\n\\r\\n    const...\n      JUMP \t\t\t6 timestamp);\\r\\n\\r\\n    const...\n    tag 557\t\t\tl supply to deployer\\r\\n      ...\n      JUMPDEST \t\t\tl supply to deployer\\r\\n      ...\n      PUSH 0\t\t\tmsgSend\n      PUSH FFFFFFFFFFFFFFFFFFFFFFFFFFFFFFFFFFFFFFFF\t\t\t // Populate scheduled mint ti...\n      DUP3 \t\t\t     \n      AND \t\t\t\\r\\n\\r\\n        // Populate sc...\n      SWAP1 \t\t\tAL_SUPPLY);\\r\\n\\r\\n        // ...\n      POP \t\t\tAL_SUPPLY);\\r\\n\\r\\n        // ...\n      SWAP2 \t\t\tl supply to deployer\\r\\n      ...\n      SWAP1 \t\t\tl supply to deployer\\r\\n      ...\n      POP \t\t\tl supply to deployer\\r\\n      ...\n      JUMP \t\t\tl supply to deployer\\r\\n      ...\n    tag 558\t\t\t UTC every 5 years starting 20...\n      JUMPDEST \t\t\t UTC every 5 years starting 20...\n      PUSH 0\t\t\t      /\n      PUSH [tag] 634\t\t\t in seconds UTC\\r\\n       \n      DUP3 \t\t\t     \n      PUSH [tag] 557\t\t\t in seconds UTC\\r\\n       \n      JUMP \t\t\t in seconds UTC\\r\\n       \n    tag 634\t\t\t in seconds UTC\\r\\n       \n      JUMPDEST \t\t\t in seconds UTC\\r\\n       \n      SWAP1 \t\t\testamps are in seconds UTC\\r\\n...\n      POP \t\t\testamps are in seconds UTC\\r\\n...\n      SWAP2 \t\t\t UTC every 5 years starting 20...\n      SWAP1 \t\t\t UTC every 5 years starting 20...\n      POP \t\t\t UTC every 5 years starting 20...\n      JUMP \t\t\t UTC every 5 years starting 20...\n    tag 559\t\t\t30 00:00:00 UTC\\r\\n        sch...\n      JUMPDEST \t\t\t30 00:00:00 UTC\\r\\n        sch...\n      PUSH [tag] 636\t\t\t5-09-30\\r\\n        schedul\n      DUP2 \t\t\tchedu\n      PUSH [tag] 558\t\t\t5-09-30\\r\\n        schedul\n      JUMP \t\t\t5-09-30\\r\\n        schedul\n    tag 636\t\t\t5-09-30\\r\\n        schedul\n      JUMPDEST \t\t\t5-09-30\\r\\n        schedul\n      DUP2 \t\t\t // 2\n      EQ \t\t\t    // 2035-09-30\\r\\n        s...\n      PUSH [tag] 637\t\t\t00);\\r\\n        // 2035-09-30\\...\n      JUMPI \t\t\t00);\\r\\n        // 2035-09-30\\...\n      PUSH 0\t\t\t7\n      DUP1 \t\t\t(\n      REVERT \t\t\tts.push(2074\n    tag 637\t\t\t00);\\r\\n        // 2035-09-30\\...\n      JUMPDEST \t\t\t00);\\r\\n        // 2035-09-30\\...\n      POP \t\t\t30 00:00:00 UTC\\r\\n        sch...\n      JUMP \t\t\t30 00:00:00 UTC\\r\\n        sch...\n    tag 560\t\t\t    // 2040-09-30\\r\\n        s...\n      JUMPDEST \t\t\t    // 2040-09-30\\r\\n        s...\n      PUSH 0\t\t\t(2232\n      DUP2 \t\t\t      \n      CALLDATALOAD \t\t\t 2045-09-30\\r\\n       \n      SWAP1 \t\t\t       // 2045-09-30\\r\\n      ...\n      POP \t\t\t       // 2045-09-30\\r\\n      ...\n      PUSH [tag] 639\t\t\tdMints.push(2390342400);\\r\\n  ...\n      DUP2 \t\t\t     \n      PUSH [tag] 559\t\t\tdMints.push(2390342400);\\r\\n  ...\n      JUMP \t\t\tdMints.push(2390342400);\\r\\n  ...\n    tag 639\t\t\tdMints.push(2390342400);\\r\\n  ...\n      JUMPDEST \t\t\tdMints.push(2390342400);\\r\\n  ...\n      SWAP3 \t\t\t    // 2040-09-30\\r\\n        s...\n      SWAP2 \t\t\t    // 2040-09-30\\r\\n        s...\n      POP \t\t\t    // 2040-09-30\\r\\n        s...\n      POP \t\t\t    // 2040-09-30\\r\\n        s...\n      JUMP \t\t\t    // 2040-09-30\\r\\n        s...\n    tag 561\t\t\t30\\r\\n        scheduledMints.p...\n      JUMPDEST \t\t\t30\\r\\n        scheduledMints.p...\n      PUSH 0\t\t\t08800);\n      DUP2 \t\t\t0\\r\\n  \n      SWAP1 \t\t\t/ 2055-09-30\\r\\n  \n      POP \t\t\t/ 2055-09-30\\r\\n  \n      SWAP2 \t\t\t30\\r\\n        scheduledMints.p...\n      SWAP1 \t\t\t30\\r\\n        scheduledMints.p...\n      POP \t\t\t30\\r\\n        scheduledMints.p...\n      JUMP \t\t\t30\\r\\n        scheduledMints.p...\n    tag 562\t\t\tledMints.push(2705875200);\\r\\n...\n      JUMPDEST \t\t\tledMints.push(2705875200);\\r\\n...\n      PUSH [tag] 642\t\t\t.push(2863728000);\\r\\n    \n      DUP2 \t\t\t\\r\\n   \n      PUSH [tag] 561\t\t\t.push(2863728000);\\r\\n    \n      JUMP \t\t\t.push(2863728000);\\r\\n    \n    tag 642\t\t\t.push(2863728000);\\r\\n    \n      JUMPDEST \t\t\t.push(2863728000);\\r\\n    \n      DUP2 \t\t\tedMin\n      EQ \t\t\tduledMints.push(2863728000);\\r...\n      PUSH [tag] 643\t\t\t      scheduledMints.push(2863...\n      JUMPI \t\t\t      scheduledMints.push(2863...\n      PUSH 0\t\t\t3\n      DUP1 \t\t\t0\n      REVERT \t\t\t/ 2065-09-30\n    tag 643\t\t\t      scheduledMints.push(2863...\n      JUMPDEST \t\t\t      scheduledMints.push(2863...\n      POP \t\t\tledMints.push(2705875200);\\r\\n...\n      JUMP \t\t\tledMints.push(2705875200);\\r\\n...\n    tag 563\t\t\tduledMints.push(3021494400);\\r...\n      JUMPDEST \t\t\tduledMints.push(3021494400);\\r...\n      PUSH 0\t\t\t09-30\n      DUP2 \t\t\t926080\n      CALLDATALOAD \t\t\tints.push(3179260800\n      SWAP1 \t\t\tcheduledMints.push(3179260800\n      POP \t\t\tcheduledMints.push(3179260800\n      PUSH [tag] 645\t\t\t     // Emit schedule events f...\n      DUP2 \t\t\ts for\n      PUSH [tag] 562\t\t\t     // Emit schedule events f...\n      JUMP \t\t\t     // Emit schedule events f...\n    tag 645\t\t\t     // Emit schedule events f...\n      JUMPDEST \t\t\t     // Emit schedule events f...\n      SWAP3 \t\t\tduledMints.push(3021494400);\\r...\n      SWAP2 \t\t\tduledMints.push(3021494400);\\r...\n      POP \t\t\tduledMints.push(3021494400);\\r...\n      POP \t\t\tduledMints.push(3021494400);\\r...\n      JUMP \t\t\tduledMints.push(3021494400);\\r...\n    tag 70\t\t\tnsparency\\r\\n        for (uint...\n      JUMPDEST \t\t\tnsparency\\r\\n        for (uint...\n      PUSH 0\t\t\t+) {\\r\\n\n      DUP1 \t\t\t      \n      PUSH 40\t\t\tdu\n      DUP4 \t\t\tAMOUNT, s\n      DUP6 \t\t\t(TRANCH\n      SUB \t\t\tuled(TRANCHE_AMOUNT, sc\n      SLT \t\t\tcheduled(TRANCHE_AMOUNT, sched...\n      ISZERO \t\t\tntScheduled(TRANCHE_AMOUNT, sc...\n      PUSH [tag] 647\t\t\tntScheduled(TRANCHE_AMOUNT, sc...\n      JUMPI \t\t\tntScheduled(TRANCHE_AMOUNT, sc...\n      PUSH [tag] 648\t\t\tints[i]);\\r\\n        }\\r\\n    ...\n      PUSH [tag] 545\t\t\tints[i]);\\r\\n        }\\r\\n    ...\n      JUMP \t\t\tints[i]);\\r\\n        }\\r\\n    ...\n    tag 648\t\t\tints[i]);\\r\\n        }\\r\\n    ...\n      JUMPDEST \t\t\tints[i]);\\r\\n        }\\r\\n    ...\n    tag 647\t\t\tntScheduled(TRANCHE_AMOUNT, sc...\n      JUMPDEST \t\t\tntScheduled(TRANCHE_AMOUNT, sc...\n      PUSH 0\t\t\t\\n\n      PUSH [tag] 649\t\t\t;\\r\\n    }\\r\\n\\r\\n    // -----...\n      DUP6 \t\t\t  // Em\n      DUP3 \t\t\t-----\\r\n      DUP7 \t\t\t---------\n      ADD \t\t\t--------------------\\r\\n\n      PUSH [tag] 560\t\t\t;\\r\\n    }\\r\\n\\r\\n    // -----...\n      JUMP \t\t\t;\\r\\n    }\\r\\n\\r\\n    // -----...\n    tag 649\t\t\t;\\r\\n    }\\r\\n\\r\\n    // -----...\n      JUMPDEST \t\t\t;\\r\\n    }\\r\\n\\r\\n    // -----...\n      SWAP3 \t\t\t _DECIMALS;\\r\\n    }\\r\\n\\r\\n  ...\n      POP \t\t\t _DECIMALS;\\r\\n    }\\r\\n\\r\\n  ...\n      POP \t\t\te override returns (uint8) {\\r...\n      PUSH 20\t\t\t  \n      PUSH [tag] 650\t\t\t) external onlyOwner {\\r\\n    ...\n      DUP6 \t\t\tped = t\n      DUP3 \t\t\tgencyS\n      DUP7 \t\t\t       em\n      ADD \t\t\t{\\r\\n        emergencySt\n      PUSH [tag] 563\t\t\t) external onlyOwner {\\r\\n    ...\n      JUMP \t\t\t) external onlyOwner {\\r\\n    ...\n    tag 650\t\t\t) external onlyOwner {\\r\\n    ...\n      JUMPDEST \t\t\t) external onlyOwner {\\r\\n    ...\n      SWAP2 \t\t\tgencyStop() external onlyOwner...\n      POP \t\t\tgencyStop() external onlyOwner...\n      POP \t\t\t // ----------------------\\r\\n...\n      SWAP3 \t\t\tnsparency\\r\\n        for (uint...\n      POP \t\t\tnsparency\\r\\n        for (uint...\n      SWAP3 \t\t\tnsparency\\r\\n        for (uint...\n      SWAP1 \t\t\tnsparency\\r\\n        for (uint...\n      POP \t\t\tnsparency\\r\\n        for (uint...\n      JUMP \t\t\tnsparency\\r\\n        for (uint...\n    tag 564\t\t\tencyStopped(_msgSender(), bloc...\n      JUMPDEST \t\t\tencyStopped(_msgSender(), bloc...\n      PUSH 0\t\t\t    }\\r\\n\n      PUSH [tag] 652\t\t\trgencyStop() external on\n      DUP3 \t\t\tnal o\n      PUSH [tag] 557\t\t\trgencyStop() external on\n      JUMP \t\t\trgencyStop() external on\n    tag 652\t\t\trgencyStop() external on\n      JUMPDEST \t\t\trgencyStop() external on\n      SWAP1 \t\t\tion liftEmergencyStop() extern...\n      POP \t\t\tion liftEmergencyStop() extern...\n      SWAP2 \t\t\tencyStopped(_msgSender(), bloc...\n      SWAP1 \t\t\tencyStopped(_msgSender(), bloc...\n      POP \t\t\tencyStopped(_msgSender(), bloc...\n      JUMP \t\t\tencyStopped(_msgSender(), bloc...\n    tag 565\t\t\t       emergencyStopped = fals...\n      JUMPDEST \t\t\t       emergencyStopped = fals...\n      PUSH [tag] 654\t\t\tk.timestamp);\\r\\n    }\\r\\n\\r\\n...\n      DUP2 \t\t\t  // \n      PUSH [tag] 564\t\t\tk.timestamp);\\r\\n    }\\r\\n\\r\\n...\n      JUMP \t\t\tk.timestamp);\\r\\n    }\\r\\n\\r\\n...\n    tag 654\t\t\tk.timestamp);\\r\\n    }\\r\\n\\r\\n...\n      JUMPDEST \t\t\tk.timestamp);\\r\\n    }\\r\\n\\r\\n...\n      DUP2 \t\t\t), bl\n      EQ \t\t\ter(), block.timestamp);\\r\\n   ...\n      PUSH [tag] 655\t\t\td(_msgSender(), block.timestam...\n      JUMPI \t\t\td(_msgSender(), block.timestam...\n      PUSH 0\t\t\t-\n      DUP1 \t\t\t-\n      REVERT \t\t\t------------\n    tag 655\t\t\td(_msgSender(), block.timestam...\n      JUMPDEST \t\t\td(_msgSender(), block.timestam...\n      POP \t\t\t       emergencyStopped = fals...\n      JUMP \t\t\t       emergencyStopped = fals...\n    tag 566\t\t\tcheduled mint: execute next tr...\n      JUMPDEST \t\t\tcheduled mint: execute next tr...\n      PUSH 0\t\t\tble b\n      DUP2 \t\t\t emerg\n      CALLDATALOAD \t\t\tlocked during emerge\n      SWAP1 \t\t\tLE, and blocked during emerge\n      POP \t\t\tLE, and blocked during emerge\n      PUSH [tag] 657\t\t\t // ----------------------\\r\\n...\n      DUP2 \t\t\tction\n      PUSH [tag] 565\t\t\t // ----------------------\\r\\n...\n      JUMP \t\t\t // ----------------------\\r\\n...\n    tag 657\t\t\t // ----------------------\\r\\n...\n      JUMPDEST \t\t\t // ----------------------\\r\\n...\n      SWAP3 \t\t\tcheduled mint: execute next tr...\n      SWAP2 \t\t\tcheduled mint: execute next tr...\n      POP \t\t\tcheduled mint: execute next tr...\n      POP \t\t\tcheduled mint: execute next tr...\n      JUMP \t\t\tcheduled mint: execute next tr...\n    tag 76\t\t\tuledMint() external onlyRole(M...\n      JUMPDEST \t\t\tuledMint() external onlyRole(M...\n      PUSH 0\t\t\ted, \"T\n      DUP1 \t\t\tG: eme\n      PUSH 40\t\t\tIn\n      DUP4 \t\t\tire(nextM\n      DUP6 \t\t\t     re\n      SUB \t\t\t\\n        require(nextMi\n      SLT \t\t\t\");\\r\\n        require(nextMin...\n      ISZERO \t\t\tped\");\\r\\n        require(next...\n      PUSH [tag] 659\t\t\tped\");\\r\\n        require(next...\n      JUMPI \t\t\tped\");\\r\\n        require(next...\n      PUSH [tag] 660\t\t\t< scheduledMints.length, \"TIGG...\n      PUSH [tag] 545\t\t\t< scheduledMints.length, \"TIGG...\n      JUMP \t\t\t< scheduledMints.length, \"TIGG...\n    tag 660\t\t\t< scheduledMints.length, \"TIGG...\n      JUMPDEST \t\t\t< scheduledMints.length, \"TIGG...\n    tag 659\t\t\tped\");\\r\\n        require(next...\n      JUMPDEST \t\t\tped\");\\r\\n        require(next...\n      PUSH 0\t\t\t;\n      PUSH [tag] 661\t\t\ttimestamp >= unlockTime, \"TIGG...\n      DUP6 \t\t\tt avail\n      DUP3 \t\t\tnt not\n      DUP7 \t\t\tcheduled \n      ADD \t\t\tG: scheduled mint not \n      PUSH [tag] 566\t\t\ttimestamp >= unlockTime, \"TIGG...\n      JUMP \t\t\ttimestamp >= unlockTime, \"TIGG...\n    tag 661\t\t\ttimestamp >= unlockTime, \"TIGG...\n      JUMPDEST \t\t\ttimestamp >= unlockTime, \"TIGG...\n      SWAP3 \t\t\tire(block.timestamp >= unlockT...\n      POP \t\t\tire(block.timestamp >= unlockT...\n      POP \t\t\tscheduledMints[nextMintIndex];...\n      PUSH 20\t\t\tpp\n      PUSH [tag] 662\t\t\turrentSupply + TRANCHE_AMOUNT ...\n      DUP6 \t\t\t\"TIGG: \n      DUP3 \t\t\t_SUPPL\n      DUP7 \t\t\tOUNT <= M\n      ADD \t\t\tE_AMOUNT <= MAX_SUPPLY\n      PUSH [tag] 563\t\t\turrentSupply + TRANCHE_AMOUNT ...\n      JUMP \t\t\turrentSupply + TRANCHE_AMOUNT ...\n    tag 662\t\t\turrentSupply + TRANCHE_AMOUNT ...\n      JUMPDEST \t\t\turrentSupply + TRANCHE_AMOUNT ...\n      SWAP2 \t\t\t require(currentSupply + TRANC...\n      POP \t\t\t require(currentSupply + TRANC...\n      POP \t\t\tnt256 currentSupply = totalSup...\n      SWAP3 \t\t\tuledMint() external onlyRole(M...\n      POP \t\t\tuledMint() external onlyRole(M...\n      SWAP3 \t\t\tuledMint() external onlyRole(M...\n      SWAP1 \t\t\tuledMint() external onlyRole(M...\n      POP \t\t\tuledMint() external onlyRole(M...\n      JUMP \t\t\tuledMint() external onlyRole(M...\n    tag 567\t\t\t\\r\\n        // Mint tranche to...\n      JUMPDEST \t\t\t\\r\\n        // Mint tranche to...\n      PUSH [tag] 664\t\t\ter(), TRANCHE_AMOUNT);\\r\\n\n      DUP2 \t\t\tNT);\\r\n      PUSH [tag] 561\t\t\ter(), TRANCHE_AMOUNT);\\r\\n\n      JUMP \t\t\ter(), TRANCHE_AMOUNT);\\r\\n\n    tag 664\t\t\ter(), TRANCHE_AMOUNT);\\r\\n\n      JUMPDEST \t\t\ter(), TRANCHE_AMOUNT);\\r\\n\n      DUP3 \t\t\tt(o\n      MSTORE \t\t\t   _mint(owner(), TRANCHE_AMOU...\n      POP \t\t\t\\r\\n        // Mint tranche to...\n      POP \t\t\t\\r\\n        // Mint tranche to...\n      JUMP \t\t\t\\r\\n        // Mint tranche to...\n    tag 82\t\t\tt MintExecuted(owner(), TRANCH...\n      JUMPDEST \t\t\tt MintExecuted(owner(), TRANCH...\n      PUSH 0\t\t\te in\n      PUSH 20\t\t\t  \n      DUP3 \t\t\tdex += 1;\n      ADD \t\t\tntIndex += 1;\\r\\n   \n      SWAP1 \t\t\t  nextMintIndex += 1;\\r\\n   \n      POP \t\t\t  nextMintIndex += 1;\\r\\n   \n      PUSH [tag] 666\t\t\tfunction scheduledMintsRemaini...\n      PUSH 0\t\t\t\\r\n      DUP4 \t\t\t(uint256)\n      ADD \t\t\trns (uint256) {\\r\\n\n      DUP5 \t\t\tview r\n      PUSH [tag] 567\t\t\tfunction scheduledMintsRemaini...\n      JUMP \t\t\tfunction scheduledMintsRemaini...\n    tag 666\t\t\tfunction scheduledMintsRemaini...\n      JUMPDEST \t\t\tfunction scheduledMintsRemaini...\n      SWAP3 \t\t\tt MintExecuted(owner(), TRANCH...\n      SWAP2 \t\t\tt MintExecuted(owner(), TRANCH...\n      POP \t\t\tt MintExecuted(owner(), TRANCH...\n      POP \t\t\tt MintExecuted(owner(), TRANCH...\n      JUMP \t\t\tt MintExecuted(owner(), TRANCH...\n    tag 86\t\t\txtMintIndex >= scheduledMints....\n      JUMPDEST \t\t\txtMintIndex >= scheduledMints....\n      PUSH 0\t\t\ts.leng\n      DUP1 \t\t\t - nex\n      PUSH 0\t\t\tintInd\n      PUSH 60\t\t\t\\r\\n\n      DUP5 \t\t\t---------\n      DUP7 \t\t\t-------\n      SUB \t\t\t// --------------------\n      SLT \t\t\t    // ----------------------\\...\n      ISZERO \t\t\t\\n\\r\\n    // -----------------...\n      PUSH [tag] 668\t\t\t\\n\\r\\n    // -----------------...\n      JUMPI \t\t\t\\n\\r\\n    // -----------------...\n      PUSH [tag] 669\t\t\t// Bridge functions (only BRID...\n      PUSH [tag] 545\t\t\t// Bridge functions (only BRID...\n      JUMP \t\t\t// Bridge functions (only BRID...\n    tag 669\t\t\t// Bridge functions (only BRID...\n      JUMPDEST \t\t\t// Bridge functions (only BRID...\n    tag 668\t\t\t\\n\\r\\n    // -----------------...\n      JUMPDEST \t\t\t\\n\\r\\n    // -----------------...\n      PUSH 0\t\t\tt\n      PUSH [tag] 670\t\t\tGE_ROLE) {\\r\\n        require(...\n      DUP7 \t\t\t, \"TIGG\n      DUP3 \t\t\tcyStop\n      DUP8 \t\t\tre(!emerg\n      ADD \t\t\tequire(!emergencyStopp\n      PUSH [tag] 560\t\t\tGE_ROLE) {\\r\\n        require(...\n      JUMP \t\t\tGE_ROLE) {\\r\\n        require(...\n    tag 670\t\t\tGE_ROLE) {\\r\\n        require(...\n      JUMPDEST \t\t\tGE_ROLE) {\\r\\n        require(...\n      SWAP4 \t\t\tyRole(BRIDGE_ROLE) {\\r\\n      ...\n      POP \t\t\tyRole(BRIDGE_ROLE) {\\r\\n      ...\n      POP \t\t\tint(address to, uint256 amount...\n      PUSH 20\t\t\tes\n      PUSH [tag] 671\t\t\to\");\\r\\n        require(totalS...\n      DUP7 \t\t\t<= MAX_\n      DUP3 \t\t\t+ amou\n      DUP8 \t\t\talSupply(\n      ADD \t\t\t(totalSupply() + amoun\n      PUSH [tag] 560\t\t\to\");\\r\\n        require(totalS...\n      JUMP \t\t\to\");\\r\\n        require(totalS...\n    tag 671\t\t\to\");\\r\\n        require(totalS...\n      JUMPDEST \t\t\to\");\\r\\n        require(totalS...\n      SWAP3 \t\t\tint to zero\");\\r\\n        requ...\n      POP \t\t\tint to zero\");\\r\\n        requ...\n      POP \t\t\t;\\r\\n        require(to != add...\n      PUSH 40\t\t\tmi\n      PUSH [tag] 672\t\t\t emit BridgeMint(to, amount, _...\n      DUP7 \t\t\t    }\\r\\n\n      DUP3 \t\t\tder())\n      DUP8 \t\t\tnt, _msgS\n      ADD \t\t\tamount, _msgSender());\n      PUSH [tag] 563\t\t\t emit BridgeMint(to, amount, _...\n      JUMP \t\t\t emit BridgeMint(to, amount, _...\n    tag 672\t\t\t emit BridgeMint(to, amount, _...\n      JUMPDEST \t\t\t emit BridgeMint(to, amount, _...\n      SWAP2 \t\t\t;\\r\\n        emit BridgeMint(t...\n      POP \t\t\t;\\r\\n        emit BridgeMint(t...\n      POP \t\t\tpply exceeded\");\\r\\n\\r\\n      ...\n      SWAP3 \t\t\txtMintIndex >= scheduledMints....\n      POP \t\t\txtMintIndex >= scheduledMints....\n      SWAP3 \t\t\txtMintIndex >= scheduledMints....\n      POP \t\t\txtMintIndex >= scheduledMints....\n      SWAP3 \t\t\txtMintIndex >= scheduledMints....\n      JUMP \t\t\txtMintIndex >= scheduledMints....\n    tag 568\t\t\tn(address from, uint256 amount...\n      JUMPDEST \t\t\tn(address from, uint256 amount...\n      PUSH 0\t\t\tnal onl\n      DUP2 \t\t\t     \n      SWAP1 \t\t\tE_ROLE) {\\r\\n     \n      POP \t\t\tE_ROLE) {\\r\\n     \n      SWAP2 \t\t\tn(address from, uint256 amount...\n      SWAP1 \t\t\tn(address from, uint256 amount...\n      POP \t\t\tn(address from, uint256 amount...\n      JUMP \t\t\tn(address from, uint256 amount...\n    tag 569\t\t\temergencyStopped, \"TIGG: emerg...\n      JUMPDEST \t\t\temergencyStopped, \"TIGG: emerg...\n      PUSH [tag] 675\t\t\tdress(0), \"TIGG: burn fr\n      DUP2 \t\t\turn f\n      PUSH [tag] 568\t\t\tdress(0), \"TIGG: burn fr\n      JUMP \t\t\tdress(0), \"TIGG: burn fr\n    tag 675\t\t\tdress(0), \"TIGG: burn fr\n      JUMPDEST \t\t\tdress(0), \"TIGG: burn fr\n      DUP2 \t\t\tm != \n      EQ \t\t\tfrom != address(0), \"TIGG: bur...\n      PUSH [tag] 676\t\t\t  require(from != address(0), ...\n      JUMPI \t\t\t  require(from != address(0), ...\n      PUSH 0\t\t\t \n      DUP1 \t\t\t\\r\n      REVERT \t\t\tro\");\\r\\n\\r\\n   \n    tag 676\t\t\t  require(from != address(0), ...\n      JUMPDEST \t\t\t  require(from != address(0), ...\n      POP \t\t\temergencyStopped, \"TIGG: emerg...\n      JUMP \t\t\temergencyStopped, \"TIGG: emerg...\n    tag 570\t\t\tm, amount);\\r\\n        emit Br...\n      JUMPDEST \t\t\tm, amount);\\r\\n        emit Br...\n      PUSH 0\t\t\tunt, \n      DUP2 \t\t\t------\n      CALLDATALOAD \t\t\t}\\r\\n\\r\\n    // --------\n      SWAP1 \t\t\t));\\r\\n    }\\r\\n\\r\\n    // ---...\n      POP \t\t\t));\\r\\n    }\\r\\n\\r\\n    // ---...\n      PUSH [tag] 678\t\t\t-----\\r\\n    // Accept native ...\n      DUP2 \t\t\t curr\n      PUSH [tag] 569\t\t\t-----\\r\\n    // Accept native ...\n      JUMP \t\t\t-----\\r\\n    // Accept native ...\n    tag 678\t\t\t-----\\r\\n    // Accept native ...\n      JUMPDEST \t\t\t-----\\r\\n    // Accept native ...\n      SWAP3 \t\t\tm, amount);\\r\\n        emit Br...\n      SWAP2 \t\t\tm, amount);\\r\\n        emit Br...\n      POP \t\t\tm, amount);\\r\\n        emit Br...\n      POP \t\t\tm, amount);\\r\\n        emit Br...\n      JUMP \t\t\tm, amount);\\r\\n        emit Br...\n    tag 92\t\t\td fallback\\r\\n    // ---------...\n      JUMPDEST \t\t\td fallback\\r\\n    // ---------...\n      PUSH 0\t\t\tternal\n      PUSH 20\t\t\te \n      DUP3 \t\t\ternal pay\n      DUP5 \t\t\tack() e\n      SUB \t\t\tallback() external paya\n      SLT \t\t\t   fallback() external payable...\n      ISZERO \t\t\t\\r\\n    fallback() external pa...\n      PUSH [tag] 680\t\t\t\\r\\n    fallback() external pa...\n      JUMPI \t\t\t\\r\\n    fallback() external pa...\n      PUSH [tag] 681\t\t\t\\r\\n    // -------------------...\n      PUSH [tag] 545\t\t\t\\r\\n    // -------------------...\n      JUMP \t\t\t\\r\\n    // -------------------...\n    tag 681\t\t\t\\r\\n    // -------------------...\n      JUMPDEST \t\t\t\\r\\n    // -------------------...\n    tag 680\t\t\t\\r\\n    fallback() external pa...\n      JUMPDEST \t\t\t\\r\\n    fallback() external pa...\n      PUSH 0\t\t\to\n      PUSH [tag] 682\t\t\tken, address to, uint256 amoun...\n      DUP5 \t\t\tyOwner \n      DUP3 \t\t\ternal \n      DUP6 \t\t\tamount) e\n      ADD \t\t\t256 amount) external o\n      PUSH [tag] 570\t\t\tken, address to, uint256 amoun...\n      JUMP \t\t\tken, address to, uint256 amoun...\n    tag 682\t\t\tken, address to, uint256 amoun...\n      JUMPDEST \t\t\tken, address to, uint256 amoun...\n      SWAP2 \t\t\taddress token, address to, uin...\n      POP \t\t\taddress token, address to, uin...\n      POP \t\t\t-----------------\\r\\n    funct...\n      SWAP3 \t\t\td fallback\\r\\n    // ---------...\n      SWAP2 \t\t\td fallback\\r\\n    // ---------...\n      POP \t\t\td fallback\\r\\n    // ---------...\n      POP \t\t\td fallback\\r\\n    // ---------...\n      JUMP \t\t\td fallback\\r\\n    // ---------...\n    tag 571\t\t\t address(0), \"TIGG: to zero\");...\n      JUMPDEST \t\t\t address(0), \"TIGG: to zero\");...\n      PUSH [tag] 684\t\t\t  emit TokenRescued(toke\n      DUP2 \t\t\td(tok\n      PUSH [tag] 568\t\t\t  emit TokenRescued(toke\n      JUMP \t\t\t  emit TokenRescued(toke\n    tag 684\t\t\t  emit TokenRescued(toke\n      JUMPDEST \t\t\t  emit TokenRescued(toke\n      DUP3 \t\t\t   \n      MSTORE \t\t\tnt);\\r\\n        emit TokenResc...\n      POP \t\t\t address(0), \"TIGG: to zero\");...\n      POP \t\t\t address(0), \"TIGG: to zero\");...\n      JUMP \t\t\t address(0), \"TIGG: to zero\");...\n    tag 95\t\t\t);\\r\\n    }\\r\\n\\r\\n    functio...\n      JUMPDEST \t\t\t);\\r\\n    }\\r\\n\\r\\n    functio...\n      PUSH 0\t\t\t    \n      PUSH 20\t\t\tto\n      DUP3 \t\t\t0), \"TIGG\n      ADD \t\t\tess(0), \"TIGG: to \n      SWAP1 \t\t\t != address(0), \"TIGG: to \n      POP \t\t\t != address(0), \"TIGG: to \n      PUSH [tag] 686\t\t\t       uint256 bal = IERC20(to...\n      PUSH 0\t\t\t \n      DUP4 \t\t\t));\\r\\n    \n      ADD \t\t\tthis));\\r\\n        \n      DUP5 \t\t\t(addre\n      PUSH [tag] 571\t\t\t       uint256 bal = IERC20(to...\n      JUMP \t\t\t       uint256 bal = IERC20(to...\n    tag 686\t\t\t       uint256 bal = IERC20(to...\n      JUMPDEST \t\t\t       uint256 bal = IERC20(to...\n      SWAP3 \t\t\t);\\r\\n    }\\r\\n\\r\\n    functio...\n      SWAP2 \t\t\t);\\r\\n    }\\r\\n\\r\\n    functio...\n      POP \t\t\t);\\r\\n    }\\r\\n\\r\\n    functio...\n      POP \t\t\t);\\r\\n    }\\r\\n\\r\\n    functio...\n      JUMP \t\t\t);\\r\\n    }\\r\\n\\r\\n    functio...\n    tag 103\t\t\t0, \"TIGG: zero balance\");\\r\\n ...\n      JUMPDEST \t\t\t0, \"TIGG: zero balance\");\\r\\n ...\n      PUSH 0\t\t\tl);\\r\\n \n      DUP1 \t\t\t     e\n      PUSH 40\t\t\t\\n \n      DUP4 \t\t\t);\\r\\n    }\n      DUP6 \t\t\t, to, b\n      SUB \t\t\token, to, bal);\\r\\n    }\\r\n      SLT \t\t\ted(token, to, bal);\\r\\n    }\\r...\n      ISZERO \t\t\tscued(token, to, bal);\\r\\n    ...\n      PUSH [tag] 688\t\t\tscued(token, to, bal);\\r\\n    ...\n      JUMPI \t\t\tscued(token, to, bal);\\r\\n    ...\n      PUSH [tag] 689\t\t\tunction rescueNative(address p...\n      PUSH [tag] 545\t\t\tunction rescueNative(address p...\n      JUMP \t\t\tunction rescueNative(address p...\n    tag 689\t\t\tunction rescueNative(address p...\n      JUMPDEST \t\t\tunction rescueNative(address p...\n    tag 688\t\t\tscued(token, to, bal);\\r\\n    ...\n      JUMPDEST \t\t\tscued(token, to, bal);\\r\\n    ...\n      PUSH 0\t\t\tt\n      PUSH [tag] 690\t\t\tre(amount <= address(this).bal...\n      DUP6 \t\t\tsuffici\n      DUP3 \t\t\t\"TIGG:\n      DUP7 \t\t\t).balance\n      ADD \t\t\tthis).balance, \"TIGG: \n      PUSH [tag] 570\t\t\tre(amount <= address(this).bal...\n      JUMP \t\t\tre(amount <= address(this).bal...\n    tag 690\t\t\tre(amount <= address(this).bal...\n      JUMPDEST \t\t\tre(amount <= address(this).bal...\n      SWAP3 \t\t\t     require(amount <= address...\n      POP \t\t\t     require(amount <= address...\n      POP \t\t\tire(to != address(0), \"TIGG: t...\n      PUSH 20\t\t\t  \n      PUSH [tag] 691\t\t\t amount);\\r\\n    }\\r\\n\\r\\n    ...\n      DUP6 \t\t\tive(add\n      DUP3 \t\t\tcueAll\n      DUP7 \t\t\tunction r\n      ADD \t\t\t   function rescueAllN\n      PUSH [tag] 560\t\t\t amount);\\r\\n    }\\r\\n\\r\\n    ...\n      JUMP \t\t\t amount);\\r\\n    }\\r\\n\\r\\n    ...\n    tag 691\t\t\t amount);\\r\\n    }\\r\\n\\r\\n    ...\n      JUMPDEST \t\t\t amount);\\r\\n    }\\r\\n\\r\\n    ...\n      SWAP2 \t\t\tescued(to, amount);\\r\\n    }\\r...\n      POP \t\t\tescued(to, amount);\\r\\n    }\\r...\n      POP \t\t\t   to.transfer(amount);\\r\\n   ...\n      SWAP3 \t\t\t0, \"TIGG: zero balance\");\\r\\n ...\n      POP \t\t\t0, \"TIGG: zero balance\");\\r\\n ...\n      SWAP3 \t\t\t0, \"TIGG: zero balance\");\\r\\n ...\n      SWAP1 \t\t\t0, \"TIGG: zero balance\");\\r\\n ...\n      POP \t\t\t0, \"TIGG: zero balance\");\\r\\n ...\n      JUMP \t\t\t0, \"TIGG: zero balance\");\\r\\n ...\n    tag 572\t\t\tl onlyOwner {\\r\\n        requi...\n      JUMPDEST \t\t\tl onlyOwner {\\r\\n        requi...\n      PUSH 0\t\t\t= addre\n      PUSH FF\t\t\t uin\n      DUP3 \t\t\t     \n      AND \t\t\t);\\r\\n        uint\n      SWAP1 \t\t\tG: to zero\");\\r\\n        uint\n      POP \t\t\tG: to zero\");\\r\\n        uint\n      SWAP2 \t\t\tl onlyOwner {\\r\\n        requi...\n      SWAP1 \t\t\tl onlyOwner {\\r\\n        requi...\n      POP \t\t\tl onlyOwner {\\r\\n        requi...\n      JUMP \t\t\tl onlyOwner {\\r\\n        requi...\n    tag 573\t\t\tdress(this).balance;\\r\\n      ...\n      JUMPDEST \t\t\tdress(this).balance;\\r\\n      ...\n      PUSH [tag] 694\t\t\transfer(bal);\\r\\n       \n      DUP2 \t\t\t     \n      PUSH [tag] 572\t\t\transfer(bal);\\r\\n       \n      JUMP \t\t\transfer(bal);\\r\\n       \n    tag 694\t\t\transfer(bal);\\r\\n       \n      JUMPDEST \t\t\transfer(bal);\\r\\n       \n      DUP3 \t\t\t to\n      MSTORE \t\t\t        to.transfer(bal);\\r\\n ...\n      POP \t\t\tdress(this).balance;\\r\\n      ...\n      POP \t\t\tdress(this).balance;\\r\\n      ...\n      JUMP \t\t\tdress(this).balance;\\r\\n      ...\n    tag 113\t\t\tescued(to, bal);\\r\\n    }\\r\\n\\...\n      JUMPDEST \t\t\tescued(to, bal);\\r\\n    }\\r\\n\\...\n      PUSH 0\t\t\t hoo\n      PUSH 20\t\t\ty\\r\n      DUP3 \t\t\tng emerge\n      ADD \t\t\tduring emergency\\r\\n\n      SWAP1 \t\t\tansfers during emergency\\r\\n\n      POP \t\t\tansfers during emergency\\r\\n\n      PUSH [tag] 696\t\t\t-------------------\\r\\n    fun...\n      PUSH 0\t\t\tt\n      DUP4 \t\t\tm, addres\n      ADD \t\t\t from, address to\n      DUP5 \t\t\te(addr\n      PUSH [tag] 573\t\t\t-------------------\\r\\n    fun...\n      JUMP \t\t\t-------------------\\r\\n    fun...\n    tag 696\t\t\t-------------------\\r\\n    fun...\n      JUMPDEST \t\t\t-------------------\\r\\n    fun...\n      SWAP3 \t\t\tescued(to, bal);\\r\\n    }\\r\\n\\...\n      SWAP2 \t\t\tescued(to, bal);\\r\\n    }\\r\\n\\...\n      POP \t\t\tescued(to, bal);\\r\\n    }\\r\\n\\...\n      POP \t\t\tescued(to, bal);\\r\\n    }\\r\\n\\...\n      JUMP \t\t\tescued(to, bal);\\r\\n    }\\r\\n\\...\n    tag 125\t\t\tnt) internal override {\\r\\n   ...\n      JUMPDEST \t\t\tnt) internal override {\\r\\n   ...\n      PUSH 0\t\t\t \"TIGG\n      PUSH 20\t\t\tte\n      DUP3 \t\t\t super._u\n      DUP5 \t\t\t\\r\\n     \n      SUB \t\t\td\");\\r\\n        super._up\n      SLT \t\t\topped\");\\r\\n        super._upd...\n      ISZERO \t\t\t stopped\");\\r\\n        super._...\n      PUSH [tag] 698\t\t\t stopped\");\\r\\n        super._...\n      JUMPI \t\t\t stopped\");\\r\\n        super._...\n      PUSH [tag] 699\t\t\tm, to, amount);\\r\\n    }\\r\\n\\r...\n      PUSH [tag] 545\t\t\tm, to, amount);\\r\\n    }\\r\\n\\r...\n      JUMP \t\t\tm, to, amount);\\r\\n    }\\r\\n\\r...\n    tag 699\t\t\tm, to, amount);\\r\\n    }\\r\\n\\r...\n      JUMPDEST \t\t\tm, to, amount);\\r\\n    }\\r\\n\\r...\n    tag 698\t\t\t stopped\");\\r\\n        super._...\n      JUMPDEST \t\t\t stopped\");\\r\\n        super._...\n      PUSH 0\t\t\t-\n      PUSH [tag] 700\t\t\tGrantMinter(address account) e...\n      DUP5 \t\t\ter { _g\n      DUP3 \t\t\tl only\n      DUP6 \t\t\tnt) exter\n      ADD \t\t\tccount) external onlyO\n      PUSH [tag] 560\t\t\tGrantMinter(address account) e...\n      JUMP \t\t\tGrantMinter(address account) e...\n    tag 700\t\t\tGrantMinter(address account) e...\n      JUMPDEST \t\t\tGrantMinter(address account) e...\n      SWAP2 \t\t\ttion ownerGrantMinter(address ...\n      POP \t\t\ttion ownerGrantMinter(address ...\n      POP \t\t\ters\\r\\n    // ----------------...\n      SWAP3 \t\t\tnt) internal override {\\r\\n   ...\n      SWAP2 \t\t\tnt) internal override {\\r\\n   ...\n      POP \t\t\tnt) internal override {\\r\\n   ...\n      POP \t\t\tnt) internal override {\\r\\n   ...\n      JUMP \t\t\tnt) internal override {\\r\\n   ...\n    tag 155\t\t\tcount); }\\r\\n    function owne...\n      JUMPDEST \t\t\tcount); }\\r\\n    function owne...\n      PUSH 0\t\t\textern\n      PUSH 20\t\t\tun\n      DUP3 \t\t\tR_ROLE, a\n      DUP5 \t\t\tole(MIN\n      SUB \t\t\tokeRole(MINTER_ROLE, ac\n      SLT \t\t\t revokeRole(MINTER_ROLE, accou...\n      ISZERO \t\t\tr { revokeRole(MINTER_ROLE, ac...\n      PUSH [tag] 702\t\t\tr { revokeRole(MINTER_ROLE, ac...\n      JUMPI \t\t\tr { revokeRole(MINTER_ROLE, ac...\n      PUSH [tag] 703\t\t\t}\\r\\n    function ownerGrantBr...\n      PUSH [tag] 545\t\t\t}\\r\\n    function ownerGrantBr...\n      JUMP \t\t\t}\\r\\n    function ownerGrantBr...\n    tag 703\t\t\t}\\r\\n    function ownerGrantBr...\n      JUMPDEST \t\t\t}\\r\\n    function ownerGrantBr...\n    tag 702\t\t\tr { revokeRole(MINTER_ROLE, ac...\n      JUMPDEST \t\t\tr { revokeRole(MINTER_ROLE, ac...\n      PUSH 0\t\t\t \n      PUSH [tag] 704\t\t\ts account) external onlyOwner ...\n      DUP5 \t\t\tIDGE_RO\n      DUP3 \t\t\tkeRole\n      DUP6 \t\t\twner { re\n      ADD \t\t\tnlyOwner { revokeRole(\n      PUSH [tag] 563\t\t\ts account) external onlyOwner ...\n      JUMP \t\t\ts account) external onlyOwner ...\n    tag 704\t\t\ts account) external onlyOwner ...\n      JUMPDEST \t\t\ts account) external onlyOwner ...\n      SWAP2 \t\t\tdge(address account) external ...\n      POP \t\t\tdge(address account) external ...\n      POP \t\t\tLE, account); }\\r\\n    functio...\n      SWAP3 \t\t\tcount); }\\r\\n    function owne...\n      SWAP2 \t\t\tcount); }\\r\\n    function owne...\n      POP \t\t\tcount); }\\r\\n    function owne...\n      POP \t\t\tcount); }\\r\\n    function owne...\n      JUMP \t\t\tcount); }\\r\\n    function owne...\n    tag 574\t\t\t\n      JUMPDEST \t\t\t\n      PUSH [tag] 706\t\t\t\n      DUP2 \t\t\t\n      PUSH [tag] 558\t\t\t\n      JUMP \t\t\t\n    tag 706\t\t\t\n      JUMPDEST \t\t\t\n      DUP3 \t\t\t\n      MSTORE \t\t\t\n      POP \t\t\t\n      POP \t\t\t\n      JUMP \t\t\t\n    tag 178\t\t\t\n      JUMPDEST \t\t\t\n      PUSH 0\t\t\t\n      PUSH 20\t\t\t\n      DUP3 \t\t\t\n      ADD \t\t\t\n      SWAP1 \t\t\t\n      POP \t\t\t\n      PUSH [tag] 708\t\t\t\n      PUSH 0\t\t\t\n      DUP4 \t\t\t\n      ADD \t\t\t\n      DUP5 \t\t\t\n      PUSH [tag] 574\t\t\t\n      JUMP \t\t\t\n    tag 708\t\t\t\n      JUMPDEST \t\t\t\n      SWAP3 \t\t\t\n      SWAP2 \t\t\t\n      POP \t\t\t\n      POP \t\t\t\n      JUMP \t\t\t\n    tag 212\t\t\t\n      JUMPDEST \t\t\t\n      PUSH 0\t\t\t\n      PUSH 20\t\t\t\n      DUP3 \t\t\t\n      DUP5 \t\t\t\n      SUB \t\t\t\n      SLT \t\t\t\n      ISZERO \t\t\t\n      PUSH [tag] 710\t\t\t\n      JUMPI \t\t\t\n      PUSH [tag] 711\t\t\t\n      PUSH [tag] 545\t\t\t\n      JUMP \t\t\t\n    tag 711\t\t\t\n      JUMPDEST \t\t\t\n    tag 710\t\t\t\n      JUMPDEST \t\t\t\n      PUSH 0\t\t\t\n      PUSH [tag] 712\t\t\t\n      DUP5 \t\t\t\n      DUP3 \t\t\t\n      DUP6 \t\t\t\n      ADD \t\t\t\n      PUSH [tag] 566\t\t\t\n      JUMP \t\t\t\n    tag 712\t\t\t\n      JUMPDEST \t\t\t\n      SWAP2 \t\t\t\n      POP \t\t\t\n      POP \t\t\t\n      SWAP3 \t\t\t\n      SWAP2 \t\t\t\n      POP \t\t\t\n      POP \t\t\t\n      JUMP \t\t\t\n    tag 217\t\t\t\n      JUMPDEST \t\t\t\n      PUSH 0\t\t\t\n      DUP1 \t\t\t\n      PUSH 40\t\t\t\n      DUP4 \t\t\t\n      DUP6 \t\t\t\n      SUB \t\t\t\n      SLT \t\t\t\n      ISZERO \t\t\t\n      PUSH [tag] 714\t\t\t\n      JUMPI \t\t\t\n      PUSH [tag] 715\t\t\t\n      PUSH [tag] 545\t\t\t\n      JUMP \t\t\t\n    tag 715\t\t\t\n      JUMPDEST \t\t\t\n    tag 714\t\t\t\n      JUMPDEST \t\t\t\n      PUSH 0\t\t\t\n      PUSH [tag] 716\t\t\t\n      DUP6 \t\t\t\n      DUP3 \t\t\t\n      DUP7 \t\t\t\n      ADD \t\t\t\n      PUSH [tag] 560\t\t\t\n      JUMP \t\t\t\n    tag 716\t\t\t\n      JUMPDEST \t\t\t\n      SWAP3 \t\t\t\n      POP \t\t\t\n      POP \t\t\t\n      PUSH 20\t\t\t\n      PUSH [tag] 717\t\t\t\n      DUP6 \t\t\t\n      DUP3 \t\t\t\n      DUP7 \t\t\t\n      ADD \t\t\t\n      PUSH [tag] 560\t\t\t\n      JUMP \t\t\t\n    tag 717\t\t\t\n      JUMPDEST \t\t\t\n      SWAP2 \t\t\t\n      POP \t\t\t\n      POP \t\t\t\n      SWAP3 \t\t\t\n      POP \t\t\t\n      SWAP3 \t\t\t\n      SWAP1 \t\t\t\n      POP \t\t\t\n      JUMP \t\t\t\n    tag 575\t\t\t\n      JUMPDEST \t\t\t\n      PUSH 4E487B7100000000000000000000000000000000000000000000000000000000\t\t\t\n      PUSH 0\t\t\t\n      MSTORE \t\t\t\n      PUSH 22\t\t\t\n      PUSH 4\t\t\t\n      MSTORE \t\t\t\n      PUSH 24\t\t\t\n      PUSH 0\t\t\t\n      REVERT \t\t\t\n    tag 246\t\t\t\n      JUMPDEST \t\t\t\n      PUSH 0\t\t\t\n      PUSH 2\t\t\t\n      DUP3 \t\t\t\n      DIV \t\t\t\n      SWAP1 \t\t\t\n      POP \t\t\t\n      PUSH 1\t\t\t\n      DUP3 \t\t\t\n      AND \t\t\t\n      DUP1 \t\t\t\n      PUSH [tag] 720\t\t\t\n      JUMPI \t\t\t\n      PUSH 7F\t\t\t\n      DUP3 \t\t\t\n      AND \t\t\t\n      SWAP2 \t\t\t\n      POP \t\t\t\n    tag 720\t\t\t\n      JUMPDEST \t\t\t\n      PUSH 20\t\t\t\n      DUP3 \t\t\t\n      LT \t\t\t\n      DUP2 \t\t\t\n      SUB \t\t\t\n      PUSH [tag] 721\t\t\t\n      JUMPI \t\t\t\n      PUSH [tag] 722\t\t\t\n      PUSH [tag] 575\t\t\t\n      JUMP \t\t\t\n    tag 722\t\t\t\n      JUMPDEST \t\t\t\n    tag 721\t\t\t\n      JUMPDEST \t\t\t\n      POP \t\t\t\n      SWAP2 \t\t\t\n      SWAP1 \t\t\t\n      POP \t\t\t\n      JUMP \t\t\t\n    tag 576\t\t\t\n      JUMPDEST \t\t\t\n      PUSH 544947473A20746F207A65726F00000000000000000000000000000000000000\t\t\t\n      PUSH 0\t\t\t\n      DUP3 \t\t\t\n      ADD \t\t\t\n      MSTORE \t\t\t\n      POP \t\t\t\n      JUMP \t\t\t\n    tag 577\t\t\t\n      JUMPDEST \t\t\t\n      PUSH 0\t\t\t\n      PUSH [tag] 725\t\t\t\n      PUSH D\t\t\t\n      DUP4 \t\t\t\n      PUSH [tag] 553\t\t\t\n      JUMP \t\t\t\n    tag 725\t\t\t\n      JUMPDEST \t\t\t\n      SWAP2 \t\t\t\n      POP \t\t\t\n      PUSH [tag] 726\t\t\t\n      DUP3 \t\t\t\n      PUSH [tag] 576\t\t\t\n      JUMP \t\t\t\n    tag 726\t\t\t\n      JUMPDEST \t\t\t\n      PUSH 20\t\t\t\n      DUP3 \t\t\t\n      ADD \t\t\t\n      SWAP1 \t\t\t\n      POP \t\t\t\n      SWAP2 \t\t\t\n      SWAP1 \t\t\t\n      POP \t\t\t\n      JUMP \t\t\t\n    tag 262\t\t\t\n      JUMPDEST \t\t\t\n      PUSH 0\t\t\t\n      PUSH 20\t\t\t\n      DUP3 \t\t\t\n      ADD \t\t\t\n      SWAP1 \t\t\t\n      POP \t\t\t\n      DUP2 \t\t\t\n      DUP2 \t\t\t\n      SUB \t\t\t\n      PUSH 0\t\t\t\n      DUP4 \t\t\t\n      ADD \t\t\t\n      MSTORE \t\t\t\n      PUSH [tag] 728\t\t\t\n      DUP2 \t\t\t\n      PUSH [tag] 577\t\t\t\n      JUMP \t\t\t\n    tag 728\t\t\t\n      JUMPDEST \t\t\t\n      SWAP1 \t\t\t\n      POP \t\t\t\n      SWAP2 \t\t\t\n      SWAP1 \t\t\t\n      POP \t\t\t\n      JUMP \t\t\t\n    tag 578\t\t\t\n      JUMPDEST \t\t\t\n      PUSH 544947473A20696E73756666696369656E742062616C616E6365000000000000\t\t\t\n      PUSH 0\t\t\t\n      DUP3 \t\t\t\n      ADD \t\t\t\n      MSTORE \t\t\t\n      POP \t\t\t\n      JUMP \t\t\t\n    tag 579\t\t\t\n      JUMPDEST \t\t\t\n      PUSH 0\t\t\t\n      PUSH [tag] 731\t\t\t\n      PUSH 1A\t\t\t\n      DUP4 \t\t\t\n      PUSH [tag] 553\t\t\t\n      JUMP \t\t\t\n    tag 731\t\t\t\n      JUMPDEST \t\t\t\n      SWAP2 \t\t\t\n      POP \t\t\t\n      PUSH [tag] 732\t\t\t\n      DUP3 \t\t\t\n      PUSH [tag] 578\t\t\t\n      JUMP \t\t\t\n    tag 732\t\t\t\n      JUMPDEST \t\t\t\n      PUSH 20\t\t\t\n      DUP3 \t\t\t\n      ADD \t\t\t\n      SWAP1 \t\t\t\n      POP \t\t\t\n      SWAP2 \t\t\t\n      SWAP1 \t\t\t\n      POP \t\t\t\n      JUMP \t\t\t\n    tag 265\t\t\t\n      JUMPDEST \t\t\t\n      PUSH 0\t\t\t\n      PUSH 20\t\t\t\n      DUP3 \t\t\t\n      ADD \t\t\t\n      SWAP1 \t\t\t\n      POP \t\t\t\n      DUP2 \t\t\t\n      DUP2 \t\t\t\n      SUB \t\t\t\n      PUSH 0\t\t\t\n      DUP4 \t\t\t\n      ADD \t\t\t\n      MSTORE \t\t\t\n      PUSH [tag] 734\t\t\t\n      DUP2 \t\t\t\n      PUSH [tag] 579\t\t\t\n      JUMP \t\t\t\n    tag 734\t\t\t\n      JUMPDEST \t\t\t\n      SWAP1 \t\t\t\n      POP \t\t\t\n      SWAP2 \t\t\t\n      SWAP1 \t\t\t\n      POP \t\t\t\n      JUMP \t\t\t\n    tag 580\t\t\t\n      JUMPDEST \t\t\t\n      PUSH 4E487B7100000000000000000000000000000000000000000000000000000000\t\t\t\n      PUSH 0\t\t\t\n      MSTORE \t\t\t\n      PUSH 11\t\t\t\n      PUSH 4\t\t\t\n      MSTORE \t\t\t\n      PUSH 24\t\t\t\n      PUSH 0\t\t\t\n      REVERT \t\t\t\n    tag 581\t\t\t\n      JUMPDEST \t\t\t\n      PUSH 0\t\t\t\n      DUP2 \t\t\t\n      PUSH 1\t\t\t\n      SHR \t\t\t\n      SWAP1 \t\t\t\n      POP \t\t\t\n      SWAP2 \t\t\t\n      SWAP1 \t\t\t\n      POP \t\t\t\n      JUMP \t\t\t\n    tag 582\t\t\t\n      JUMPDEST \t\t\t\n      PUSH 0\t\t\t\n      DUP1 \t\t\t\n      DUP3 \t\t\t\n      SWAP2 \t\t\t\n      POP \t\t\t\n      DUP4 \t\t\t\n      SWAP1 \t\t\t\n      POP \t\t\t\n    tag 738\t\t\t\n      JUMPDEST \t\t\t\n      PUSH 1\t\t\t\n      DUP6 \t\t\t\n      GT \t\t\t\n      ISZERO \t\t\t\n      PUSH [tag] 740\t\t\t\n      JUMPI \t\t\t\n      DUP1 \t\t\t\n      DUP7 \t\t\t\n      DIV \t\t\t\n      DUP2 \t\t\t\n      GT \t\t\t\n      ISZERO \t\t\t\n      PUSH [tag] 741\t\t\t\n      JUMPI \t\t\t\n      PUSH [tag] 742\t\t\t\n      PUSH [tag] 580\t\t\t\n      JUMP \t\t\t\n    tag 742\t\t\t\n      JUMPDEST \t\t\t\n    tag 741\t\t\t\n      JUMPDEST \t\t\t\n      PUSH 1\t\t\t\n      DUP6 \t\t\t\n      AND \t\t\t\n      ISZERO \t\t\t\n      PUSH [tag] 743\t\t\t\n      JUMPI \t\t\t\n      DUP1 \t\t\t\n      DUP3 \t\t\t\n      MUL \t\t\t\n      SWAP2 \t\t\t\n      POP \t\t\t\n    tag 743\t\t\t\n      JUMPDEST \t\t\t\n      DUP1 \t\t\t\n      DUP2 \t\t\t\n      MUL \t\t\t\n      SWAP1 \t\t\t\n      POP \t\t\t\n      PUSH [tag] 744\t\t\t\n      DUP6 \t\t\t\n      PUSH [tag] 581\t\t\t\n      JUMP \t\t\t\n    tag 744\t\t\t\n      JUMPDEST \t\t\t\n      SWAP5 \t\t\t\n      POP \t\t\t\n      PUSH [tag] 738\t\t\t\n      JUMP \t\t\t\n    tag 740\t\t\t\n      JUMPDEST \t\t\t\n      SWAP5 \t\t\t\n      POP \t\t\t\n      SWAP5 \t\t\t\n      SWAP3 \t\t\t\n      POP \t\t\t\n      POP \t\t\t\n      POP \t\t\t\n      JUMP \t\t\t\n    tag 583\t\t\t\n      JUMPDEST \t\t\t\n      PUSH 0\t\t\t\n      DUP3 \t\t\t\n      PUSH [tag] 746\t\t\t\n      JUMPI \t\t\t\n      PUSH 1\t\t\t\n      SWAP1 \t\t\t\n      POP \t\t\t\n      PUSH [tag] 745\t\t\t\n      JUMP \t\t\t\n    tag 746\t\t\t\n      JUMPDEST \t\t\t\n      DUP2 \t\t\t\n      PUSH [tag] 747\t\t\t\n      JUMPI \t\t\t\n      PUSH 0\t\t\t\n      SWAP1 \t\t\t\n      POP \t\t\t\n      PUSH [tag] 745\t\t\t\n      JUMP \t\t\t\n    tag 747\t\t\t\n      JUMPDEST \t\t\t\n      DUP2 \t\t\t\n      PUSH 1\t\t\t\n      DUP2 \t\t\t\n      EQ \t\t\t\n      PUSH [tag] 749\t\t\t\n      JUMPI \t\t\t\n      PUSH 2\t\t\t\n      DUP2 \t\t\t\n      EQ \t\t\t\n      PUSH [tag] 750\t\t\t\n      JUMPI \t\t\t\n      PUSH [tag] 748\t\t\t\n      JUMP \t\t\t\n    tag 749\t\t\t\n      JUMPDEST \t\t\t\n      PUSH 1\t\t\t\n      SWAP2 \t\t\t\n      POP \t\t\t\n      POP \t\t\t\n      PUSH [tag] 745\t\t\t\n      JUMP \t\t\t\n    tag 750\t\t\t\n      JUMPDEST \t\t\t\n      PUSH FF\t\t\t\n      DUP5 \t\t\t\n      GT \t\t\t\n      ISZERO \t\t\t\n      PUSH [tag] 751\t\t\t\n      JUMPI \t\t\t\n      PUSH [tag] 752\t\t\t\n      PUSH [tag] 580\t\t\t\n      JUMP \t\t\t\n    tag 752\t\t\t\n      JUMPDEST \t\t\t\n    tag 751\t\t\t\n      JUMPDEST \t\t\t\n      DUP4 \t\t\t\n      PUSH 2\t\t\t\n      EXP \t\t\t\n      SWAP2 \t\t\t\n      POP \t\t\t\n      DUP5 \t\t\t\n      DUP3 \t\t\t\n      GT \t\t\t\n      ISZERO \t\t\t\n      PUSH [tag] 753\t\t\t\n      JUMPI \t\t\t\n      PUSH [tag] 754\t\t\t\n      PUSH [tag] 580\t\t\t\n      JUMP \t\t\t\n    tag 754\t\t\t\n      JUMPDEST \t\t\t\n    tag 753\t\t\t\n      JUMPDEST \t\t\t\n      POP \t\t\t\n      PUSH [tag] 745\t\t\t\n      JUMP \t\t\t\n    tag 748\t\t\t\n      JUMPDEST \t\t\t\n      POP \t\t\t\n      PUSH 20\t\t\t\n      DUP4 \t\t\t\n      LT \t\t\t\n      PUSH 133\t\t\t\n      DUP4 \t\t\t\n      LT \t\t\t\n      AND \t\t\t\n      PUSH 4E\t\t\t\n      DUP5 \t\t\t\n      LT \t\t\t\n      PUSH B\t\t\t\n      DUP5 \t\t\t\n      LT \t\t\t\n      AND \t\t\t\n      OR \t\t\t\n      ISZERO \t\t\t\n      PUSH [tag] 755\t\t\t\n      JUMPI \t\t\t\n      DUP3 \t\t\t\n      DUP3 \t\t\t\n      EXP \t\t\t\n      SWAP1 \t\t\t\n      POP \t\t\t\n      DUP4 \t\t\t\n      DUP2 \t\t\t\n      GT \t\t\t\n      ISZERO \t\t\t\n      PUSH [tag] 756\t\t\t\n      JUMPI \t\t\t\n      PUSH [tag] 757\t\t\t\n      PUSH [tag] 580\t\t\t\n      JUMP \t\t\t\n    tag 757\t\t\t\n      JUMPDEST \t\t\t\n    tag 756\t\t\t\n      JUMPDEST \t\t\t\n      PUSH [tag] 745\t\t\t\n      JUMP \t\t\t\n    tag 755\t\t\t\n      JUMPDEST \t\t\t\n      PUSH [tag] 758\t\t\t\n      DUP5 \t\t\t\n      DUP5 \t\t\t\n      DUP5 \t\t\t\n      PUSH 1\t\t\t\n      PUSH [tag] 582\t\t\t\n      JUMP \t\t\t\n    tag 758\t\t\t\n      JUMPDEST \t\t\t\n      SWAP3 \t\t\t\n      POP \t\t\t\n      SWAP1 \t\t\t\n      POP \t\t\t\n      DUP2 \t\t\t\n      DUP5 \t\t\t\n      DIV \t\t\t\n      DUP2 \t\t\t\n      GT \t\t\t\n      ISZERO \t\t\t\n      PUSH [tag] 759\t\t\t\n      JUMPI \t\t\t\n      PUSH [tag] 760\t\t\t\n      PUSH [tag] 580\t\t\t\n      JUMP \t\t\t\n    tag 760\t\t\t\n      JUMPDEST \t\t\t\n    tag 759\t\t\t\n      JUMPDEST \t\t\t\n      DUP2 \t\t\t\n      DUP2 \t\t\t\n      MUL \t\t\t\n      SWAP1 \t\t\t\n      POP \t\t\t\n    tag 745\t\t\t\n      JUMPDEST \t\t\t\n      SWAP4 \t\t\t\n      SWAP3 \t\t\t\n      POP \t\t\t\n      POP \t\t\t\n      POP \t\t\t\n      JUMP \t\t\t\n    tag 285\t\t\t\n      JUMPDEST \t\t\t\n      PUSH 0\t\t\t\n      PUSH [tag] 762\t\t\t\n      DUP3 \t\t\t\n      PUSH [tag] 561\t\t\t\n      JUMP \t\t\t\n    tag 762\t\t\t\n      JUMPDEST \t\t\t\n      SWAP2 \t\t\t\n      POP \t\t\t\n      PUSH [tag] 763\t\t\t\n      DUP4 \t\t\t\n      PUSH [tag] 561\t\t\t\n      JUMP \t\t\t\n    tag 763\t\t\t\n      JUMPDEST \t\t\t\n      SWAP3 \t\t\t\n      POP \t\t\t\n      PUSH [tag] 764\t\t\t\n      PUSH FFFFFFFFFFFFFFFFFFFFFFFFFFFFFFFFFFFFFFFFFFFFFFFFFFFFFFFFFFFFFFFF\t\t\t\n      DUP5 \t\t\t\n      DUP5 \t\t\t\n      PUSH [tag] 583\t\t\t\n      JUMP \t\t\t\n    tag 764\t\t\t\n      JUMPDEST \t\t\t\n      SWAP1 \t\t\t\n      POP \t\t\t\n      SWAP3 \t\t\t\n      SWAP2 \t\t\t\n      POP \t\t\t\n      POP \t\t\t\n      JUMP \t\t\t\n    tag 287\t\t\t\n      JUMPDEST \t\t\t\n      PUSH 0\t\t\t\n      PUSH [tag] 766\t\t\t\n      DUP3 \t\t\t\n      PUSH [tag] 561\t\t\t\n      JUMP \t\t\t\n    tag 766\t\t\t\n      JUMPDEST \t\t\t\n      SWAP2 \t\t\t\n      POP \t\t\t\n      PUSH [tag] 767\t\t\t\n      DUP4 \t\t\t\n      PUSH [tag] 561\t\t\t\n      JUMP \t\t\t\n    tag 767\t\t\t\n      JUMPDEST \t\t\t\n      SWAP3 \t\t\t\n      POP \t\t\t\n      DUP3 \t\t\t\n      DUP3 \t\t\t\n      MUL \t\t\t\n      PUSH [tag] 768\t\t\t\n      DUP2 \t\t\t\n      PUSH [tag] 561\t\t\t\n      JUMP \t\t\t\n    tag 768\t\t\t\n      JUMPDEST \t\t\t\n      SWAP2 \t\t\t\n      POP \t\t\t\n      DUP3 \t\t\t\n      DUP3 \t\t\t\n      DIV \t\t\t\n      DUP5 \t\t\t\n      EQ \t\t\t\n      DUP4 \t\t\t\n      ISZERO \t\t\t\n      OR \t\t\t\n      PUSH [tag] 769\t\t\t\n      JUMPI \t\t\t\n      PUSH [tag] 770\t\t\t\n      PUSH [tag] 580\t\t\t\n      JUMP \t\t\t\n    tag 770\t\t\t\n      JUMPDEST \t\t\t\n    tag 769\t\t\t\n      JUMPDEST \t\t\t\n      POP \t\t\t\n      SWAP3 \t\t\t\n      SWAP2 \t\t\t\n      POP \t\t\t\n      POP \t\t\t\n      JUMP \t\t\t\n    tag 584\t\t\t\n      JUMPDEST \t\t\t\n      PUSH 544947473A20656D657267656E63792073746F70706564000000000000000000\t\t\t\n      PUSH 0\t\t\t\n      DUP3 \t\t\t\n      ADD \t\t\t\n      MSTORE \t\t\t\n      POP \t\t\t\n      JUMP \t\t\t\n    tag 585\t\t\t\n      JUMPDEST \t\t\t\n      PUSH 0\t\t\t\n      PUSH [tag] 773\t\t\t\n      PUSH 17\t\t\t\n      DUP4 \t\t\t\n      PUSH [tag] 553\t\t\t\n      JUMP \t\t\t\n    tag 773\t\t\t\n      JUMPDEST \t\t\t\n      SWAP2 \t\t\t\n      POP \t\t\t\n      PUSH [tag] 774\t\t\t\n      DUP3 \t\t\t\n      PUSH [tag] 584\t\t\t\n      JUMP \t\t\t\n    tag 774\t\t\t\n      JUMPDEST \t\t\t\n      PUSH 20\t\t\t\n      DUP3 \t\t\t\n      ADD \t\t\t\n      SWAP1 \t\t\t\n      POP \t\t\t\n      SWAP2 \t\t\t\n      SWAP1 \t\t\t\n      POP \t\t\t\n      JUMP \t\t\t\n    tag 305\t\t\t\n      JUMPDEST \t\t\t\n      PUSH 0\t\t\t\n      PUSH 20\t\t\t\n      DUP3 \t\t\t\n      ADD \t\t\t\n      SWAP1 \t\t\t\n      POP \t\t\t\n      DUP2 \t\t\t\n      DUP2 \t\t\t\n      SUB \t\t\t\n      PUSH 0\t\t\t\n      DUP4 \t\t\t\n      ADD \t\t\t\n      MSTORE \t\t\t\n      PUSH [tag] 776\t\t\t\n      DUP2 \t\t\t\n      PUSH [tag] 585\t\t\t\n      JUMP \t\t\t\n    tag 776\t\t\t\n      JUMPDEST \t\t\t\n      SWAP1 \t\t\t\n      POP \t\t\t\n      SWAP2 \t\t\t\n      SWAP1 \t\t\t\n      POP \t\t\t\n      JUMP \t\t\t\n    tag 586\t\t\t\n      JUMPDEST \t\t\t\n      PUSH 544947473A206E6F207363686564756C6564206D696E7473206C656674000000\t\t\t\n      PUSH 0\t\t\t\n      DUP3 \t\t\t\n      ADD \t\t\t\n      MSTORE \t\t\t\n      POP \t\t\t\n      JUMP \t\t\t\n    tag 587\t\t\t\n      JUMPDEST \t\t\t\n      PUSH 0\t\t\t\n      PUSH [tag] 779\t\t\t\n      PUSH 1D\t\t\t\n      DUP4 \t\t\t\n      PUSH [tag] 553\t\t\t\n      JUMP \t\t\t\n    tag 779\t\t\t\n      JUMPDEST \t\t\t\n      SWAP2 \t\t\t\n      POP \t\t\t\n      PUSH [tag] 780\t\t\t\n      DUP3 \t\t\t\n      PUSH [tag] 586\t\t\t\n      JUMP \t\t\t\n    tag 780\t\t\t\n      JUMPDEST \t\t\t\n      PUSH 20\t\t\t\n      DUP3 \t\t\t\n      ADD \t\t\t\n      SWAP1 \t\t\t\n      POP \t\t\t\n      SWAP2 \t\t\t\n      SWAP1 \t\t\t\n      POP \t\t\t\n      JUMP \t\t\t\n    tag 308\t\t\t\n      JUMPDEST \t\t\t\n      PUSH 0\t\t\t\n      PUSH 20\t\t\t\n      DUP3 \t\t\t\n      ADD \t\t\t\n      SWAP1 \t\t\t\n      POP \t\t\t\n      DUP2 \t\t\t\n      DUP2 \t\t\t\n      SUB \t\t\t\n      PUSH 0\t\t\t\n      DUP4 \t\t\t\n      ADD \t\t\t\n      MSTORE \t\t\t\n      PUSH [tag] 782\t\t\t\n      DUP2 \t\t\t\n      PUSH [tag] 587\t\t\t\n      JUMP \t\t\t\n    tag 782\t\t\t\n      JUMPDEST \t\t\t\n      SWAP1 \t\t\t\n      POP \t\t\t\n      SWAP2 \t\t\t\n      SWAP1 \t\t\t\n      POP \t\t\t\n      JUMP \t\t\t\n    tag 311\t\t\t\n      JUMPDEST \t\t\t\n      PUSH 4E487B7100000000000000000000000000000000000000000000000000000000\t\t\t\n      PUSH 0\t\t\t\n      MSTORE \t\t\t\n      PUSH 32\t\t\t\n      PUSH 4\t\t\t\n      MSTORE \t\t\t\n      PUSH 24\t\t\t\n      PUSH 0\t\t\t\n      REVERT \t\t\t\n    tag 588\t\t\t\n      JUMPDEST \t\t\t\n      PUSH 544947473A207363686564756C6564206D696E74206E6F742079657420617661\t\t\t\n      PUSH 0\t\t\t\n      DUP3 \t\t\t\n      ADD \t\t\t\n      MSTORE \t\t\t\n      PUSH 696C61626C650000000000000000000000000000000000000000000000000000\t\t\t\n      PUSH 20\t\t\t\n      DUP3 \t\t\t\n      ADD \t\t\t\n      MSTORE \t\t\t\n      POP \t\t\t\n      JUMP \t\t\t\n    tag 589\t\t\t\n      JUMPDEST \t\t\t\n      PUSH 0\t\t\t\n      PUSH [tag] 786\t\t\t\n      PUSH 26\t\t\t\n      DUP4 \t\t\t\n      PUSH [tag] 553\t\t\t\n      JUMP \t\t\t\n    tag 786\t\t\t\n      JUMPDEST \t\t\t\n      SWAP2 \t\t\t\n      POP \t\t\t\n      PUSH [tag] 787\t\t\t\n      DUP3 \t\t\t\n      PUSH [tag] 588\t\t\t\n      JUMP \t\t\t\n    tag 787\t\t\t\n      JUMPDEST \t\t\t\n      PUSH 40\t\t\t\n      DUP3 \t\t\t\n      ADD \t\t\t\n      SWAP1 \t\t\t\n      POP \t\t\t\n      SWAP2 \t\t\t\n      SWAP1 \t\t\t\n      POP \t\t\t\n      JUMP \t\t\t\n    tag 315\t\t\t\n      JUMPDEST \t\t\t\n      PUSH 0\t\t\t\n      PUSH 20\t\t\t\n      DUP3 \t\t\t\n      ADD \t\t\t\n      SWAP1 \t\t\t\n      POP \t\t\t\n      DUP2 \t\t\t\n      DUP2 \t\t\t\n      SUB \t\t\t\n      PUSH 0\t\t\t\n      DUP4 \t\t\t\n      ADD \t\t\t\n      MSTORE \t\t\t\n      PUSH [tag] 789\t\t\t\n      DUP2 \t\t\t\n      PUSH [tag] 589\t\t\t\n      JUMP \t\t\t\n    tag 789\t\t\t\n      JUMPDEST \t\t\t\n      SWAP1 \t\t\t\n      POP \t\t\t\n      SWAP2 \t\t\t\n      SWAP1 \t\t\t\n      POP \t\t\t\n      JUMP \t\t\t\n    tag 322\t\t\t\n      JUMPDEST \t\t\t\n      PUSH 0\t\t\t\n      PUSH [tag] 791\t\t\t\n      DUP3 \t\t\t\n      PUSH [tag] 561\t\t\t\n      JUMP \t\t\t\n    tag 791\t\t\t\n      JUMPDEST \t\t\t\n      SWAP2 \t\t\t\n      POP \t\t\t\n      PUSH [tag] 792\t\t\t\n      DUP4 \t\t\t\n      PUSH [tag] 561\t\t\t\n      JUMP \t\t\t\n    tag 792\t\t\t\n      JUMPDEST \t\t\t\n      SWAP3 \t\t\t\n      POP \t\t\t\n      DUP3 \t\t\t\n      DUP3 \t\t\t\n      ADD \t\t\t\n      SWAP1 \t\t\t\n      POP \t\t\t\n      DUP1 \t\t\t\n      DUP3 \t\t\t\n      GT \t\t\t\n      ISZERO \t\t\t\n      PUSH [tag] 793\t\t\t\n      JUMPI \t\t\t\n      PUSH [tag] 794\t\t\t\n      PUSH [tag] 580\t\t\t\n      JUMP \t\t\t\n    tag 794\t\t\t\n      JUMPDEST \t\t\t\n    tag 793\t\t\t\n      JUMPDEST \t\t\t\n      SWAP3 \t\t\t\n      SWAP2 \t\t\t\n      POP \t\t\t\n      POP \t\t\t\n      JUMP \t\t\t\n    tag 590\t\t\t\n      JUMPDEST \t\t\t\n      PUSH 544947473A206D617820737570706C7920657863656564656400000000000000\t\t\t\n      PUSH 0\t\t\t\n      DUP3 \t\t\t\n      ADD \t\t\t\n      MSTORE \t\t\t\n      POP \t\t\t\n      JUMP \t\t\t\n    tag 591\t\t\t\n      JUMPDEST \t\t\t\n      PUSH 0\t\t\t\n      PUSH [tag] 797\t\t\t\n      PUSH 19\t\t\t\n      DUP4 \t\t\t\n      PUSH [tag] 553\t\t\t\n      JUMP \t\t\t\n    tag 797\t\t\t\n      JUMPDEST \t\t\t\n      SWAP2 \t\t\t\n      POP \t\t\t\n      PUSH [tag] 798\t\t\t\n      DUP3 \t\t\t\n      PUSH [tag] 590\t\t\t\n      JUMP \t\t\t\n    tag 798\t\t\t\n      JUMPDEST \t\t\t\n      PUSH 20\t\t\t\n      DUP3 \t\t\t\n      ADD \t\t\t\n      SWAP1 \t\t\t\n      POP \t\t\t\n      SWAP2 \t\t\t\n      SWAP1 \t\t\t\n      POP \t\t\t\n      JUMP \t\t\t\n    tag 325\t\t\t\n      JUMPDEST \t\t\t\n      PUSH 0\t\t\t\n      PUSH 20\t\t\t\n      DUP3 \t\t\t\n      ADD \t\t\t\n      SWAP1 \t\t\t\n      POP \t\t\t\n      DUP2 \t\t\t\n      DUP2 \t\t\t\n      SUB \t\t\t\n      PUSH 0\t\t\t\n      DUP4 \t\t\t\n      ADD \t\t\t\n      MSTORE \t\t\t\n      PUSH [tag] 800\t\t\t\n      DUP2 \t\t\t\n      PUSH [tag] 591\t\t\t\n      JUMP \t\t\t\n    tag 800\t\t\t\n      JUMPDEST \t\t\t\n      SWAP1 \t\t\t\n      POP \t\t\t\n      SWAP2 \t\t\t\n      SWAP1 \t\t\t\n      POP \t\t\t\n      JUMP \t\t\t\n    tag 336\t\t\t\n      JUMPDEST \t\t\t\n      PUSH 0\t\t\t\n      PUSH 60\t\t\t\n      DUP3 \t\t\t\n      ADD \t\t\t\n      SWAP1 \t\t\t\n      POP \t\t\t\n      PUSH [tag] 802\t\t\t\n      PUSH 0\t\t\t\n      DUP4 \t\t\t\n      ADD \t\t\t\n      DUP7 \t\t\t\n      PUSH [tag] 567\t\t\t\n      JUMP \t\t\t\n    tag 802\t\t\t\n      JUMPDEST \t\t\t\n      PUSH [tag] 803\t\t\t\n      PUSH 20\t\t\t\n      DUP4 \t\t\t\n      ADD \t\t\t\n      DUP6 \t\t\t\n      PUSH [tag] 567\t\t\t\n      JUMP \t\t\t\n    tag 803\t\t\t\n      JUMPDEST \t\t\t\n      PUSH [tag] 804\t\t\t\n      PUSH 40\t\t\t\n      DUP4 \t\t\t\n      ADD \t\t\t\n      DUP5 \t\t\t\n      PUSH [tag] 567\t\t\t\n      JUMP \t\t\t\n    tag 804\t\t\t\n      JUMPDEST \t\t\t\n      SWAP5 \t\t\t\n      SWAP4 \t\t\t\n      POP \t\t\t\n      POP \t\t\t\n      POP \t\t\t\n      POP \t\t\t\n      JUMP \t\t\t\n    tag 592\t\t\t\n      JUMPDEST \t\t\t\n      PUSH 544947473A206275726E2066726F6D207A65726F000000000000000000000000\t\t\t\n      PUSH 0\t\t\t\n      DUP3 \t\t\t\n      ADD \t\t\t\n      MSTORE \t\t\t\n      POP \t\t\t\n      JUMP \t\t\t\n    tag 593\t\t\t\n      JUMPDEST \t\t\t\n      PUSH 0\t\t\t\n      PUSH [tag] 807\t\t\t\n      PUSH 14\t\t\t\n      DUP4 \t\t\t\n      PUSH [tag] 553\t\t\t\n      JUMP \t\t\t\n    tag 807\t\t\t\n      JUMPDEST \t\t\t\n      SWAP2 \t\t\t\n      POP \t\t\t\n      PUSH [tag] 808\t\t\t\n      DUP3 \t\t\t\n      PUSH [tag] 592\t\t\t\n      JUMP \t\t\t\n    tag 808\t\t\t\n      JUMPDEST \t\t\t\n      PUSH 20\t\t\t\n      DUP3 \t\t\t\n      ADD \t\t\t\n      SWAP1 \t\t\t\n      POP \t\t\t\n      SWAP2 \t\t\t\n      SWAP1 \t\t\t\n      POP \t\t\t\n      JUMP \t\t\t\n    tag 371\t\t\t\n      JUMPDEST \t\t\t\n      PUSH 0\t\t\t\n      PUSH 20\t\t\t\n      DUP3 \t\t\t\n      ADD \t\t\t\n      SWAP1 \t\t\t\n      POP \t\t\t\n      DUP2 \t\t\t\n      DUP2 \t\t\t\n      SUB \t\t\t\n      PUSH 0\t\t\t\n      DUP4 \t\t\t\n      ADD \t\t\t\n      MSTORE \t\t\t\n      PUSH [tag] 810\t\t\t\n      DUP2 \t\t\t\n      PUSH [tag] 593\t\t\t\n      JUMP \t\t\t\n    tag 810\t\t\t\n      JUMPDEST \t\t\t\n      SWAP1 \t\t\t\n      POP \t\t\t\n      SWAP2 \t\t\t\n      SWAP1 \t\t\t\n      POP \t\t\t\n      JUMP \t\t\t\n    tag 379\t\t\t\n      JUMPDEST \t\t\t\n      PUSH 0\t\t\t\n      PUSH [tag] 812\t\t\t\n      DUP3 \t\t\t\n      PUSH [tag] 561\t\t\t\n      JUMP \t\t\t\n    tag 812\t\t\t\n      JUMPDEST \t\t\t\n      SWAP2 \t\t\t\n      POP \t\t\t\n      PUSH [tag] 813\t\t\t\n      DUP4 \t\t\t\n      PUSH [tag] 561\t\t\t\n      JUMP \t\t\t\n    tag 813\t\t\t\n      JUMPDEST \t\t\t\n      SWAP3 \t\t\t\n      POP \t\t\t\n      DUP3 \t\t\t\n      DUP3 \t\t\t\n      SUB \t\t\t\n      SWAP1 \t\t\t\n      POP \t\t\t\n      DUP2 \t\t\t\n      DUP2 \t\t\t\n      GT \t\t\t\n      ISZERO \t\t\t\n      PUSH [tag] 814\t\t\t\n      JUMPI \t\t\t\n      PUSH [tag] 815\t\t\t\n      PUSH [tag] 580\t\t\t\n      JUMP \t\t\t\n    tag 815\t\t\t\n      JUMPDEST \t\t\t\n    tag 814\t\t\t\n      JUMPDEST \t\t\t\n      SWAP3 \t\t\t\n      SWAP2 \t\t\t\n      POP \t\t\t\n      POP \t\t\t\n      JUMP \t\t\t\n    tag 594\t\t\t\n      JUMPDEST \t\t\t\n      PUSH 544947473A206D696E7420746F207A65726F0000000000000000000000000000\t\t\t\n      PUSH 0\t\t\t\n      DUP3 \t\t\t\n      ADD \t\t\t\n      MSTORE \t\t\t\n      POP \t\t\t\n      JUMP \t\t\t\n    tag 595\t\t\t\n      JUMPDEST \t\t\t\n      PUSH 0\t\t\t\n      PUSH [tag] 818\t\t\t\n      PUSH 12\t\t\t\n      DUP4 \t\t\t\n      PUSH [tag] 553\t\t\t\n      JUMP \t\t\t\n    tag 818\t\t\t\n      JUMPDEST \t\t\t\n      SWAP2 \t\t\t\n      POP \t\t\t\n      PUSH [tag] 819\t\t\t\n      DUP3 \t\t\t\n      PUSH [tag] 594\t\t\t\n      JUMP \t\t\t\n    tag 819\t\t\t\n      JUMPDEST \t\t\t\n      PUSH 20\t\t\t\n      DUP3 \t\t\t\n      ADD \t\t\t\n      SWAP1 \t\t\t\n      POP \t\t\t\n      SWAP2 \t\t\t\n      SWAP1 \t\t\t\n      POP \t\t\t\n      JUMP \t\t\t\n    tag 389\t\t\t\n      JUMPDEST \t\t\t\n      PUSH 0\t\t\t\n      PUSH 20\t\t\t\n      DUP3 \t\t\t\n      ADD \t\t\t\n      SWAP1 \t\t\t\n      POP \t\t\t\n      DUP2 \t\t\t\n      DUP2 \t\t\t\n      SUB \t\t\t\n      PUSH 0\t\t\t\n      DUP4 \t\t\t\n      ADD \t\t\t\n      MSTORE \t\t\t\n      PUSH [tag] 821\t\t\t\n      DUP2 \t\t\t\n      PUSH [tag] 595\t\t\t\n      JUMP \t\t\t\n    tag 821\t\t\t\n      JUMPDEST \t\t\t\n      SWAP1 \t\t\t\n      POP \t\t\t\n      SWAP2 \t\t\t\n      SWAP1 \t\t\t\n      POP \t\t\t\n      JUMP \t\t\t\n    tag 596\t\t\t\n      JUMPDEST \t\t\t\n      PUSH 544947473A207A65726F2062616C616E63650000000000000000000000000000\t\t\t\n      PUSH 0\t\t\t\n      DUP3 \t\t\t\n      ADD \t\t\t\n      MSTORE \t\t\t\n      POP \t\t\t\n      JUMP \t\t\t\n    tag 597\t\t\t\n      JUMPDEST \t\t\t\n      PUSH 0\t\t\t\n      PUSH [tag] 824\t\t\t\n      PUSH 12\t\t\t\n      DUP4 \t\t\t\n      PUSH [tag] 553\t\t\t\n      JUMP \t\t\t\n    tag 824\t\t\t\n      JUMPDEST \t\t\t\n      SWAP2 \t\t\t\n      POP \t\t\t\n      PUSH [tag] 825\t\t\t\n      DUP3 \t\t\t\n      PUSH [tag] 596\t\t\t\n      JUMP \t\t\t\n    tag 825\t\t\t\n      JUMPDEST \t\t\t\n      PUSH 20\t\t\t\n      DUP3 \t\t\t\n      ADD \t\t\t\n      SWAP1 \t\t\t\n      POP \t\t\t\n      SWAP2 \t\t\t\n      SWAP1 \t\t\t\n      POP \t\t\t\n      JUMP \t\t\t\n    tag 429\t\t\t\n      JUMPDEST \t\t\t\n      PUSH 0\t\t\t\n      PUSH 20\t\t\t\n      DUP3 \t\t\t\n      ADD \t\t\t\n      SWAP1 \t\t\t\n      POP \t\t\t\n      DUP2 \t\t\t\n      DUP2 \t\t\t\n      SUB \t\t\t\n      PUSH 0\t\t\t\n      DUP4 \t\t\t\n      ADD \t\t\t\n      MSTORE \t\t\t\n      PUSH [tag] 827\t\t\t\n      DUP2 \t\t\t\n      PUSH [tag] 597\t\t\t\n      JUMP \t\t\t\n    tag 827\t\t\t\n      JUMPDEST \t\t\t\n      SWAP1 \t\t\t\n      POP \t\t\t\n      SWAP2 \t\t\t\n      SWAP1 \t\t\t\n      POP \t\t\t\n      JUMP \t\t\t\n    tag 598\t\t\t\n      JUMPDEST \t\t\t\n      PUSH 0\t\t\t\n      DUP2 \t\t\t\n      MLOAD \t\t\t\n      SWAP1 \t\t\t\n      POP \t\t\t\n      PUSH [tag] 829\t\t\t\n      DUP2 \t\t\t\n      PUSH [tag] 562\t\t\t\n      JUMP \t\t\t\n    tag 829\t\t\t\n      JUMPDEST \t\t\t\n      SWAP3 \t\t\t\n      SWAP2 \t\t\t\n      POP \t\t\t\n      POP \t\t\t\n      JUMP \t\t\t\n    tag 442\t\t\t\n      JUMPDEST \t\t\t\n      PUSH 0\t\t\t\n      PUSH 20\t\t\t\n      DUP3 \t\t\t\n      DUP5 \t\t\t\n      SUB \t\t\t\n      SLT \t\t\t\n      ISZERO \t\t\t\n      PUSH [tag] 831\t\t\t\n      JUMPI \t\t\t\n      PUSH [tag] 832\t\t\t\n      PUSH [tag] 545\t\t\t\n      JUMP \t\t\t\n    tag 832\t\t\t\n      JUMPDEST \t\t\t\n    tag 831\t\t\t\n      JUMPDEST \t\t\t\n      PUSH 0\t\t\t\n      PUSH [tag] 833\t\t\t\n      DUP5 \t\t\t\n      DUP3 \t\t\t\n      DUP6 \t\t\t\n      ADD \t\t\t\n      PUSH [tag] 598\t\t\t\n      JUMP \t\t\t\n    tag 833\t\t\t\n      JUMPDEST \t\t\t\n      SWAP2 \t\t\t\n      POP \t\t\t\n      POP \t\t\t\n      SWAP3 \t\t\t\n      SWAP2 \t\t\t\n      POP \t\t\t\n      POP \t\t\t\n      JUMP \t\t\t\n    tag 475\t\t\t\n      JUMPDEST \t\t\t\n      PUSH 0\t\t\t\n      PUSH 60\t\t\t\n      DUP3 \t\t\t\n      ADD \t\t\t\n      SWAP1 \t\t\t\n      POP \t\t\t\n      PUSH [tag] 835\t\t\t\n      PUSH 0\t\t\t\n      DUP4 \t\t\t\n      ADD \t\t\t\n      DUP7 \t\t\t\n      PUSH [tag] 574\t\t\t\n      JUMP \t\t\t\n    tag 835\t\t\t\n      JUMPDEST \t\t\t\n      PUSH [tag] 836\t\t\t\n      PUSH 20\t\t\t\n      DUP4 \t\t\t\n      ADD \t\t\t\n      DUP6 \t\t\t\n      PUSH [tag] 567\t\t\t\n      JUMP \t\t\t\n    tag 836\t\t\t\n      JUMPDEST \t\t\t\n      PUSH [tag] 837\t\t\t\n      PUSH 40\t\t\t\n      DUP4 \t\t\t\n      ADD \t\t\t\n      DUP5 \t\t\t\n      PUSH [tag] 567\t\t\t\n      JUMP \t\t\t\n    tag 837\t\t\t\n      JUMPDEST \t\t\t\n      SWAP5 \t\t\t\n      SWAP4 \t\t\t\n      POP \t\t\t\n      POP \t\t\t\n      POP \t\t\t\n      POP \t\t\t\n      JUMP \t\t\t\n    tag 510\t\t\t\n      JUMPDEST \t\t\t\n      PUSH 0\t\t\t\n      PUSH 40\t\t\t\n      DUP3 \t\t\t\n      ADD \t\t\t\n      SWAP1 \t\t\t\n      POP \t\t\t\n      PUSH [tag] 839\t\t\t\n      PUSH 0\t\t\t\n      DUP4 \t\t\t\n      ADD \t\t\t\n      DUP6 \t\t\t\n      PUSH [tag] 574\t\t\t\n      JUMP \t\t\t\n    tag 839\t\t\t\n      JUMPDEST \t\t\t\n      PUSH [tag] 840\t\t\t\n      PUSH 20\t\t\t\n      DUP4 \t\t\t\n      ADD \t\t\t\n      DUP5 \t\t\t\n      PUSH [tag] 567\t\t\t\n      JUMP \t\t\t\n    tag 840\t\t\t\n      JUMPDEST \t\t\t\n      SWAP4 \t\t\t\n      SWAP3 \t\t\t\n      POP \t\t\t\n      POP \t\t\t\n      POP \t\t\t\n      JUMP \t\t\t\n    tag 528\t\t\t\n      JUMPDEST \t\t\t\n      PUSH 0\t\t\t\n      PUSH 40\t\t\t\n      DUP3 \t\t\t\n      ADD \t\t\t\n      SWAP1 \t\t\t\n      POP \t\t\t\n      PUSH [tag] 842\t\t\t\n      PUSH 0\t\t\t\n      DUP4 \t\t\t\n      ADD \t\t\t\n      DUP6 \t\t\t\n      PUSH [tag] 574\t\t\t\n      JUMP \t\t\t\n    tag 842\t\t\t\n      JUMPDEST \t\t\t\n      PUSH [tag] 843\t\t\t\n      PUSH 20\t\t\t\n      DUP4 \t\t\t\n      ADD \t\t\t\n      DUP5 \t\t\t\n      PUSH [tag] 571\t\t\t\n      JUMP \t\t\t\n    tag 843\t\t\t\n      JUMPDEST \t\t\t\n      SWAP4 \t\t\t\n      SWAP3 \t\t\t\n      POP \t\t\t\n      POP \t\t\t\n      POP \t\t\t\n      JUMP \t\t\t\n    .data\n"
}